{
  "contractName": "CooperativeSignaling",
  "abi": [
    {
      "constant": true,
      "inputs": [
        {
          "name": "",
          "type": "uint256"
        }
      ],
      "name": "CurrentProcesses",
      "outputs": [
        {
          "name": "",
          "type": "address"
        }
      ],
      "payable": false,
      "stateMutability": "view",
      "type": "function",
      "signature": "0xf0f7843d"
    },
    {
      "constant": false,
      "inputs": [
        {
          "name": "M",
          "type": "address"
        }
      ],
      "name": "init",
      "outputs": [
        {
          "name": "",
          "type": "address"
        }
      ],
      "payable": false,
      "stateMutability": "nonpayable",
      "type": "function",
      "signature": "0x19ab453c"
    },
    {
      "constant": false,
      "inputs": [
        {
          "name": "process",
          "type": "address"
        },
        {
          "name": "descision",
          "type": "bool"
        }
      ],
      "name": "approve",
      "outputs": [
        {
          "name": "",
          "type": "address"
        }
      ],
      "payable": false,
      "stateMutability": "nonpayable",
      "type": "function",
      "signature": "0x3d140d21"
    },
    {
      "constant": true,
      "inputs": [
        {
          "name": "process",
          "type": "address"
        }
      ],
      "name": "findProcess",
      "outputs": [
        {
          "components": [
            {
              "name": "FoundProcess",
              "type": "address"
            },
            {
              "name": "existing",
              "type": "bool"
            }
          ],
          "name": "",
          "type": "tuple"
        }
      ],
      "payable": false,
      "stateMutability": "view",
      "type": "function",
      "signature": "0x3d92d67a"
    }
  ],
  "bytecode": "0x608060405234801561001057600080fd5b506111cc806100206000396000f3fe608060405260043610610062576000357c0100000000000000000000000000000000000000000000000000000000900463ffffffff16806319ab453c146100675780633d140d21146100a45780633d92d67a146100e1578063f0f7843d1461011e575b600080fd5b34801561007357600080fd5b5061008e60048036036100899190810190610841565b61015b565b60405161009b91906109d2565b60405180910390f35b3480156100b057600080fd5b506100cb60048036036100c69190810190610893565b6103d9565b6040516100d891906109d2565b60405180910390f35b3480156100ed57600080fd5b5061010860048036036101039190810190610841565b610567565b6040516101159190610a5e565b60405180910390f35b34801561012a57600080fd5b50610145600480360361014091908101906108f8565b61075d565b6040516101529190610a08565b60405180910390f35b60008061016661079b565b604051809103906000f080158015610182573d6000803e3d6000fd5b5073ffffffffffffffffffffffffffffffffffffffff1663d25ee2e2336040518263ffffffff167c01000000000000000000000000000000000000000000000000000000000281526004016101d791906109ed565b602060405180830381600087803b1580156101f157600080fd5b505af1158015610205573d6000803e3d6000fd5b505050506040513d601f19601f8201168201806040525061022991908101906108cf565b73ffffffffffffffffffffffffffffffffffffffff166380d2646e846040518263ffffffff167c010000000000000000000000000000000000000000000000000000000002815260040161027d91906109d2565b602060405180830381600087803b15801561029757600080fd5b505af11580156102ab573d6000803e3d6000fd5b505050506040513d601f19601f820116820180604052506102cf91908101906108cf565b905060008190806001815401808255809150509060018203906000526020600020016000909192909190916101000a81548173ffffffffffffffffffffffffffffffffffffffff021916908373ffffffffffffffffffffffffffffffffffffffff160217905550508073ffffffffffffffffffffffffffffffffffffffff166338cc48316040518163ffffffff167c010000000000000000000000000000000000000000000000000000000002815260040160206040518083038186803b15801561039957600080fd5b505afa1580156103ad573d6000803e3d6000fd5b505050506040513d601f19601f820116820180604052506103d1919081019061086a565b915050919050565b60006103e36107ab565b6103ec84610567565b905080602001511515610434576040517f08c379a000000000000000000000000000000000000000000000000000000000815260040161042b90610a3e565b60405180910390fd5b806000015173ffffffffffffffffffffffffffffffffffffffff166356de96db60076040518263ffffffff167c010000000000000000000000000000000000000000000000000000000002815260040161048e9190610a23565b600060405180830381600087803b1580156104a857600080fd5b505af11580156104bc573d6000803e3d6000fd5b50505050806000015173ffffffffffffffffffffffffffffffffffffffff166338cc48316040518163ffffffff167c010000000000000000000000000000000000000000000000000000000002815260040160206040518083038186803b15801561052657600080fd5b505afa15801561053a573d6000803e3d6000fd5b505050506040513d601f19601f8201168201806040525061055e919081019061086a565b91505092915050565b61056f6107ab565b60006105796107ab565b60408051908101604052808373ffffffffffffffffffffffffffffffffffffffff16815260200160001515815250905060008090505b600080549050811015610752578473ffffffffffffffffffffffffffffffffffffffff166000828154811015156105e257fe5b9060005260206000200160009054906101000a900473ffffffffffffffffffffffffffffffffffffffff1673ffffffffffffffffffffffffffffffffffffffff166338cc48316040518163ffffffff167c010000000000000000000000000000000000000000000000000000000002815260040160206040518083038186803b15801561066e57600080fd5b505afa158015610682573d6000803e3d6000fd5b505050506040513d601f19601f820116820180604052506106a6919081019061086a565b73ffffffffffffffffffffffffffffffffffffffff161415610745576000818154811015156106d157fe5b9060005260206000200160009054906101000a900473ffffffffffffffffffffffffffffffffffffffff16826000019073ffffffffffffffffffffffffffffffffffffffff16908173ffffffffffffffffffffffffffffffffffffffff168152505060018260200190151590811515815250505b80806001019150506105af565b508092505050919050565b60008181548110151561076c57fe5b906000526020600020016000915054906101000a900473ffffffffffffffffffffffffffffffffffffffff1681565b60405161061f80610b7483390190565b6040805190810160405280600073ffffffffffffffffffffffffffffffffffffffff1681526020016000151581525090565b60006107e98235610acd565b905092915050565b60006107fd8251610acd565b905092915050565b60006108118235610adf565b905092915050565b60006108258251610aeb565b905092915050565b60006108398235610afd565b905092915050565b60006020828403121561085357600080fd5b6000610861848285016107dd565b91505092915050565b60006020828403121561087c57600080fd5b600061088a848285016107f1565b91505092915050565b600080604083850312156108a657600080fd5b60006108b4858286016107dd565b92505060206108c585828601610805565b9150509250929050565b6000602082840312156108e157600080fd5b60006108ef84828501610819565b91505092915050565b60006020828403121561090a57600080fd5b60006109188482850161082d565b91505092915050565b61092a81610b07565b82525050565b61093981610a79565b82525050565b61094881610a8b565b82525050565b61095781610b19565b82525050565b61096681610b3d565b82525050565b6000601482527f50726f63657373206e6f74206578697374696e670000000000000000000000006020830152604082019050919050565b6040820160008201516109b9600085018261094e565b5060208201516109cc602085018261093f565b50505050565b60006020820190506109e76000830184610930565b92915050565b6000602082019050610a026000830184610921565b92915050565b6000602082019050610a1d600083018461094e565b92915050565b6000602082019050610a38600083018461095d565b92915050565b60006020820190508181036000830152610a578161096c565b9050919050565b6000604082019050610a7360008301846109a3565b92915050565b6000610a8482610aad565b9050919050565b60008115159050919050565b6000600882101515610aa557fe5b819050919050565b600073ffffffffffffffffffffffffffffffffffffffff82169050919050565b6000610ad882610aad565b9050919050565b60008115159050919050565b6000610af682610a79565b9050919050565b6000819050919050565b6000610b1282610b4f565b9050919050565b6000610b2482610b2b565b9050919050565b6000610b3682610aad565b9050919050565b6000610b4882610a97565b9050919050565b6000610b5a82610b61565b9050919050565b6000610b6c82610aad565b905091905056fe60806040526000600360016101000a81548160ff0219169083600781111561002357fe5b021790555060006002819055506000600360006101000a81548160ff0219169083151502179055506105c58061005a6000396000f3fe6080604052600436106100af576000357c0100000000000000000000000000000000000000000000000000000000900463ffffffff1680631865c57d146100b457806338cc48311461010b5780634d9b37351461016257806350b1be261461018d57806356de96db146101c65780635e7e0d3c1461020457806380d2646e14610233578063822db559146102c4578063cce8962f146102ff578063d25ee2e21461033c578063f00e6a2a146103cd575b600080fd5b3480156100c057600080fd5b506100c9610424565b604051808273ffffffffffffffffffffffffffffffffffffffff1673ffffffffffffffffffffffffffffffffffffffff16815260200191505060405180910390f35b34801561011757600080fd5b5061012061044e565b604051808273ffffffffffffffffffffffffffffffffffffffff1673ffffffffffffffffffffffffffffffffffffffff16815260200191505060405180910390f35b34801561016e57600080fd5b50610177610456565b6040518082815260200191505060405180910390f35b34801561019957600080fd5b506101a2610460565b604051808260078111156101b257fe5b60ff16815260200191505060405180910390f35b3480156101d257600080fd5b50610202600480360360208110156101e957600080fd5b81019080803560ff169060200190929190505050610477565b005b34801561021057600080fd5b5061021961049d565b604051808215151515815260200191505060405180910390f35b34801561023f57600080fd5b506102826004803603602081101561025657600080fd5b81019080803573ffffffffffffffffffffffffffffffffffffffff1690602001909291905050506104b4565b604051808273ffffffffffffffffffffffffffffffffffffffff1673ffffffffffffffffffffffffffffffffffffffff16815260200191505060405180910390f35b3480156102d057600080fd5b506102fd600480360360208110156102e757600080fd5b81019080803590602001909291905050506104ff565b005b34801561030b57600080fd5b5061033a6004803603602081101561032257600080fd5b81019080803515159060200190929190505050610509565b005b34801561034857600080fd5b5061038b6004803603602081101561035f57600080fd5b81019080803573ffffffffffffffffffffffffffffffffffffffff169060200190929190505050610526565b604051808273ffffffffffffffffffffffffffffffffffffffff1673ffffffffffffffffffffffffffffffffffffffff16815260200191505060405180910390f35b3480156103d957600080fd5b506103e2610570565b604051808273ffffffffffffffffffffffffffffffffffffffff1673ffffffffffffffffffffffffffffffffffffffff16815260200191505060405180910390f35b6000600160009054906101000a900473ffffffffffffffffffffffffffffffffffffffff16905090565b600030905090565b6000600254905090565b6000600360019054906101000a900460ff16905090565b80600360016101000a81548160ff0219169083600781111561049557fe5b021790555050565b6000600360009054906101000a900460ff16905090565b600081600160006101000a81548173ffffffffffffffffffffffffffffffffffffffff021916908373ffffffffffffffffffffffffffffffffffffffff160217905550309050919050565b8060028190555050565b80600360006101000a81548160ff02191690831515021790555050565b6000816000806101000a81548173ffffffffffffffffffffffffffffffffffffffff021916908373ffffffffffffffffffffffffffffffffffffffff160217905550309050919050565b60008060009054906101000a900473ffffffffffffffffffffffffffffffffffffffff1690509056fea165627a7a72305820c225f70d504c3e4056de63e6f4dd9debe81be793887a22be63fa5477e4e23e590029a265627a7a72305820a406bff90a5fa91f002fe23cb65645530843b85e5af4d8f92d2b330799b31bff6c6578706572696d656e74616cf50037",
  "source": "pragma solidity ^0.5.0;\r\npragma experimental ABIEncoderV2;\r\n\r\nimport \"./Process.sol\";\r\n\r\ncontract CooperativeSignaling {\r\n\r\n    Process[] public CurrentProcesses;\r\n\r\n    function init(address M) \r\n    public \r\n    returns (address){\r\n\r\n        Process newProcess = new Process().withTarget(msg.sender).withMitigator(M);\r\n        CurrentProcesses.push(newProcess);\r\n\r\n        return newProcess.getAddress();\r\n    }\r\n\r\n    function approve(address process,bool descision) \r\n    public\r\n    returns (address){\r\n        ProcessSearchResult memory ProcessToUse = findProcess(process);\r\n        \r\n        require(ProcessToUse.existing,\"Process not existing\");\r\n        \r\n        ProcessToUse.FoundProcess.setState(Process.State.ABORT);\r\n\r\n        return ProcessToUse.FoundProcess.getAddress();\r\n    }\r\n\r\n    function findProcess(address process) \r\n    public view \r\n    returns(ProcessSearchResult memory){\r\n        Process FoundProcess;\r\n        ProcessSearchResult memory result = ProcessSearchResult({FoundProcess:FoundProcess,existing:false});\r\n        for (uint i = 0 ; i < CurrentProcesses.length; i++) {\r\n            if(CurrentProcesses[i].getAddress()==process){\r\n                result.FoundProcess = CurrentProcesses[i];\r\n                result.existing = true;\r\n            }\r\n        }\r\n        return result;\r\n    }\r\n\r\n    struct ProcessSearchResult{\r\n        Process FoundProcess;\r\n        bool existing;\r\n    }\r\n}",
  "sourcePath": "C:/Users/Dominik Bünzli/Documents/GitHub/MBM/contracts/CooperativeSignaling.sol",
  "compiler": {
    "name": "solc",
    "version": "0.5.0+commit.1d4f565a.Emscripten.clang"
  },
  "schemaVersion": "3.0.1",
  "updatedAt": "2019-01-21T21:43:53.103Z",
  "devdoc": {
    "methods": {}
  },
  "userdoc": {
    "methods": {}
  }
}