{
  "contractName": "EvaluationFactory",
  "abi": [
    {
      "constant": false,
      "inputs": [
        {
          "name": "_Type",
          "type": "Enums.EvaluationType"
        },
        {
          "name": "_TargetAddress",
          "type": "address"
        },
        {
          "name": "_MitigatorAddress",
          "type": "address"
        }
      ],
      "name": "create",
      "outputs": [
        {
          "name": "",
          "type": "IEvaluation"
        }
      ],
      "payable": false,
      "stateMutability": "nonpayable",
      "type": "function",
      "signature": "0x67ec1e16"
    }
  ],
  "bytecode": "0x6106bb610030600b82828239805160001a6073146000811461002057610022565bfe5b5030600052607381538281f3fe73000000000000000000000000000000000000000030146080604052600436106100575763ffffffff7c010000000000000000000000000000000000000000000000000000000060003504166367ec1e16811461005c575b600080fd5b81801561006857600080fd5b506100ad6004803603606081101561007f57600080fd5b5060ff8135169073ffffffffffffffffffffffffffffffffffffffff602082013581169160400135166100d6565b6040805173ffffffffffffffffffffffffffffffffffffffff9092168252519081900360200190f35b6000808460018111156100e557fe5b141561013d5782826100f56101c9565b73ffffffffffffffffffffffffffffffffffffffff928316815291166020820152604080519182900301906000f080158015610135573d6000803e3d6000fd5b5090506101c2565b600184600181111561014b57fe5b141561015b5782826100f56101d9565b604080517f08c379a000000000000000000000000000000000000000000000000000000000815260206004820152601d60248201527f54797065206e6f7420696e204576616c756174696f6e466163746f7279000000604482015290519081900360640190fd5b9392505050565b6040516102f0806101ea83390190565b6040516101b6806104da8339019056fe608060405234801561001057600080fd5b506040516040806102f08339810180604052604081101561003057600080fd5b50805160209091015160008054600160a060020a03938416600160a060020a03199182161790915560018054939092169216919091179055610279806100776000396000f3fe6080604052600436106100615763ffffffff7c01000000000000000000000000000000000000000000000000000000006000350416631250d06781146100665780639e39f364146100d4578063a87bf3b614610109578063e069bf2f14610136575b600080fd5b34801561007257600080fd5b506100936004803603602081101561008957600080fd5b503560ff16610163565b60405173ffffffffffffffffffffffffffffffffffffffff83168152602081018260098111156100bf57fe5b60ff1681526020019250505060405180910390f35b3480156100e057600080fd5b50610093600480360360408110156100f757600080fd5b5060ff813581169160200135166101a9565b34801561011557600080fd5b506100936004803603602081101561012c57600080fd5b503560ff166101ff565b34801561014257600080fd5b506100936004803603602081101561015957600080fd5b503560ff16610209565b600080805b83600281111561017457fe5b141561019c57505060015473ffffffffffffffffffffffffffffffffffffffff1660076101a4565b506000905060085b915091565b60008060028460028111156101ba57fe5b14156101d2576101c9836101ff565b915091506101f8565b60008460028111156101e057fe5b14156101ef576101c983610209565b6101c983610163565b9250929050565b6000806002610168565b6000808083600281111561021957fe5b141561022b57506000905060096101a4565b505060005473ffffffffffffffffffffffffffffffffffffffff1660076101a456fea165627a7a7230582089364f7669736eee061d5d731445f6bdefff160910fb9e311987036c6b8b423b0029608060405234801561001057600080fd5b506040516040806101b68339810180604052604081101561003057600080fd5b50805160209091015160008054600160a060020a03938416600160a060020a0319918216179091556001805493909216921691909117905561013f806100776000396000f3fe6080604052600436106100405763ffffffff7c01000000000000000000000000000000000000000000000000000000006000350416639e39f3648114610045575b600080fd5b34801561005157600080fd5b5061007a6004803603604081101561006857600080fd5b5060ff813581169160200135166100bb565b60405173ffffffffffffffffffffffffffffffffffffffff83168152602081018260098111156100a657fe5b60ff1681526020019250505060405180910390f35b60008060028360028111156100cc57fe5b505060028460028111156100dc57fe5b141561010457505060005473ffffffffffffffffffffffffffffffffffffffff16600761010c565b506000905060085b925092905056fea165627a7a72305820ca634d12c539e9797014ec2e920291e92ebfab5a7d02f71fbcadbb400647198f0029a165627a7a72305820f7d68e36a288ffd55ec5bc7867fe57c3becf6137180908db4f82465201afd54a0029",
  "source": "pragma solidity ^0.5.0;\r\n\r\nimport \"./Enums.sol\";\r\nimport \"./IEvaluation.sol\";\r\nimport \"./EvaluationWithProof.sol\";\r\nimport \"./EvaluationWithoutProof.sol\";\r\n\r\n\r\nlibrary EvaluationFactory{\r\n    \r\n    function create(Enums.EvaluationType _Type,address payable _TargetAddress,address payable _MitigatorAddress) \r\n    public\r\n\treturns (IEvaluation){\r\n        \r\n\t\tif(_Type == Enums.EvaluationType.WITHPROOF){\r\n\t\t\treturn new EvaluationWithProof(_TargetAddress,_MitigatorAddress);\r\n\t\t}else if(_Type == Enums.EvaluationType.WITHOUTPROOF){\r\n\t\t\treturn new EvaluationWithoutProof(_TargetAddress,_MitigatorAddress);\r\n\t\t}else{\r\n\t\t\trevert(\"Type not in EvaluationFactory\");\r\n\t\t}\r\n\t}\r\n    \r\n}",
  "sourcePath": "C:\\Code\\Private\\CooperativeSignaling\\contracts\\EvaluationFactory.sol",
  "compiler": {
    "name": "solc",
    "version": "0.5.0+commit.1d4f565a.Emscripten.clang"
  },
  "schemaVersion": "3.0.1",
  "updatedAt": "2019-02-10T15:13:49.791Z",
  "devdoc": {
    "methods": {}
  },
  "userdoc": {
    "methods": {}
  }
}