{
  "contractName": "EvaluationWithoutProof",
  "abi": [
    {
      "inputs": [
        {
          "name": "_TargetAddress",
          "type": "address"
        },
        {
          "name": "_MitigatorAddress",
          "type": "address"
        }
      ],
      "payable": false,
      "stateMutability": "nonpayable",
      "type": "constructor"
    },
    {
      "constant": true,
      "inputs": [
        {
          "name": "TargetRating",
          "type": "uint8"
        },
        {
          "name": "MitigatorRating",
          "type": "uint8"
        }
      ],
      "name": "evaluate",
      "outputs": [
        {
          "name": "",
          "type": "address"
        },
        {
          "name": "",
          "type": "uint8"
        }
      ],
      "payable": false,
      "stateMutability": "view",
      "type": "function"
    }
  ],
  "bytecode": "0x608060405234801561001057600080fd5b506040516040806101b68339810180604052604081101561003057600080fd5b50805160209091015160008054600160a060020a03938416600160a060020a0319918216179091556001805493909216921691909117905561013f806100776000396000f3fe6080604052600436106100405763ffffffff7c01000000000000000000000000000000000000000000000000000000006000350416639e39f3648114610045575b600080fd5b34801561005157600080fd5b5061007a6004803603604081101561006857600080fd5b5060ff813581169160200135166100bb565b60405173ffffffffffffffffffffffffffffffffffffffff83168152602081018260098111156100a657fe5b60ff1681526020019250505060405180910390f35b60008060028360028111156100cc57fe5b505060028460028111156100dc57fe5b141561010457505060005473ffffffffffffffffffffffffffffffffffffffff16600761010c565b506000905060085b925092905056fea165627a7a72305820ca634d12c539e9797014ec2e920291e92ebfab5a7d02f71fbcadbb400647198f0029",
  "source": "pragma solidity ^0.5.0;\r\n\r\nimport \"./Enums.sol\";\r\nimport \"./IEvaluation.sol\";\r\n\r\ncontract EvaluationWithoutProof is IEvaluation{\r\n\r\n\taddress payable internal TargetAddress;\r\n\taddress payable internal MitigatorAddress;\r\n\t\r\n\tconstructor(address payable _TargetAddress,address payable _MitigatorAddress) public{\r\n\t\tTargetAddress= _TargetAddress;\r\n\t\tMitigatorAddress= _MitigatorAddress;\r\n\t}\r\n\r\n    function evaluate(Enums.Rating TargetRating, Enums.Rating MitigatorRating) public view returns (address payable,Enums.StateType){ \r\n\t\t\r\n\t\t//used to silence warning for MitigatorRating\r\n\t\tif(MitigatorRating==Enums.Rating.ACK){\t}\r\n\t\t\r\n\t\tif(TargetRating==Enums.Rating.ACK){\r\n\t\t\treturn(TargetAddress,Enums.StateType.COMPLETE);\r\n        }else{\r\n\t\t\treturn(address(0),Enums.StateType.ABORT);\r\n\t\t}\r\n    }\r\n   \r\n}",
  "sourcePath": "C:\\Code\\Private\\CooperativeSignaling\\contracts\\EvaluationWithoutProof.sol",
  "compiler": {
    "name": "solc",
    "version": "0.5.0+commit.1d4f565a.Emscripten.clang"
  },
  "schemaVersion": "3.0.1",
  "updatedAt": "2019-02-10T16:05:26.502Z",
  "devdoc": {
    "methods": {}
  },
  "userdoc": {
    "methods": {}
  }
}