{
  "contractName": "EvaluationWithProof",
  "abi": [
    {
      "inputs": [
        {
          "name": "_TargetAddress",
          "type": "address"
        },
        {
          "name": "_MitigatorAddress",
          "type": "address"
        }
      ],
      "payable": false,
      "stateMutability": "nonpayable",
      "type": "constructor"
    },
    {
      "constant": true,
      "inputs": [
        {
          "name": "TargetRating",
          "type": "uint8"
        },
        {
          "name": "MitigatorRating",
          "type": "uint8"
        }
      ],
      "name": "evaluate",
      "outputs": [
        {
          "name": "",
          "type": "address"
        },
        {
          "name": "",
          "type": "uint8"
        }
      ],
      "payable": false,
      "stateMutability": "view",
      "type": "function"
    },
    {
      "constant": true,
      "inputs": [
        {
          "name": "MitigatorRating",
          "type": "uint8"
        }
      ],
      "name": "acknowledged",
      "outputs": [
        {
          "name": "",
          "type": "address"
        },
        {
          "name": "",
          "type": "uint8"
        }
      ],
      "payable": false,
      "stateMutability": "view",
      "type": "function"
    },
    {
      "constant": true,
      "inputs": [
        {
          "name": "MitigatorRating",
          "type": "uint8"
        }
      ],
      "name": "selfish",
      "outputs": [
        {
          "name": "",
          "type": "address"
        },
        {
          "name": "",
          "type": "uint8"
        }
      ],
      "payable": false,
      "stateMutability": "view",
      "type": "function"
    },
    {
      "constant": true,
      "inputs": [
        {
          "name": "MitigatorRating",
          "type": "uint8"
        }
      ],
      "name": "rejected",
      "outputs": [
        {
          "name": "",
          "type": "address"
        },
        {
          "name": "",
          "type": "uint8"
        }
      ],
      "payable": false,
      "stateMutability": "view",
      "type": "function"
    }
  ],
  "bytecode": "0x608060405234801561001057600080fd5b506040516040806102f08339810180604052604081101561003057600080fd5b50805160209091015160008054600160a060020a03938416600160a060020a03199182161790915560018054939092169216919091179055610279806100776000396000f3fe6080604052600436106100615763ffffffff7c01000000000000000000000000000000000000000000000000000000006000350416631250d06781146100665780639e39f364146100d4578063a87bf3b614610109578063e069bf2f14610136575b600080fd5b34801561007257600080fd5b506100936004803603602081101561008957600080fd5b503560ff16610163565b60405173ffffffffffffffffffffffffffffffffffffffff83168152602081018260088111156100bf57fe5b60ff1681526020019250505060405180910390f35b3480156100e057600080fd5b50610093600480360360408110156100f757600080fd5b5060ff813581169160200135166101a9565b34801561011557600080fd5b506100936004803603602081101561012c57600080fd5b503560ff166101ff565b34801561014257600080fd5b506100936004803603602081101561015957600080fd5b503560ff16610209565b600080805b83600281111561017457fe5b141561019c57505060015473ffffffffffffffffffffffffffffffffffffffff1660066101a4565b506000905060075b915091565b60008060028460028111156101ba57fe5b14156101d2576101c9836101ff565b915091506101f8565b60008460028111156101e057fe5b14156101ef576101c983610209565b6101c983610163565b9250929050565b6000806002610168565b6000808083600281111561021957fe5b141561022b57506000905060086101a4565b505060005473ffffffffffffffffffffffffffffffffffffffff1660066101a456fea165627a7a72305820d8f4d85209a5067acbf5f96770e47dcb079df4828376466b688177f9da5d00d70029",
  "source": "pragma solidity ^0.5.0;\r\n\r\nimport \"./Enums.sol\";\r\nimport \"./IEvaluation.sol\";\r\n\r\ncontract  EvaluationWithProof is IEvaluation{\r\n\t\r\n\taddress internal TargetAddress;\r\n\taddress internal MitigatorAddress;\r\n\t\r\n\tconstructor(address _TargetAddress,address _MitigatorAddress) public{\r\n\t\tTargetAddress= _TargetAddress;\r\n\t\tMitigatorAddress= _MitigatorAddress;\r\n\t}\r\n\r\n    function evaluate(Enums.Rating TargetRating, Enums.Rating MitigatorRating) public view returns (address,Enums.State){    \r\n        if(TargetRating==Enums.Rating.POS){\r\n            return acknowledged(MitigatorRating);\r\n        }else if(TargetRating==Enums.Rating.NEG){\r\n            return rejected(MitigatorRating);\r\n        }else{\r\n            return selfish(MitigatorRating);\r\n        }\r\n    }\r\n\r\n    function acknowledged(Enums.Rating MitigatorRating) public view returns (address ,Enums.State){    \r\n        if(MitigatorRating==Enums.Rating.POS){\r\n\t\t\treturn(MitigatorAddress,Enums.State.COMPLETE);\r\n        }else{\r\n            return(address(0),Enums.State.ABORT);\r\n        }\r\n    }\r\n    \r\n    function selfish(Enums.Rating MitigatorRating) public view returns (address ,Enums.State){    \r\n        if(MitigatorRating==Enums.Rating.NEG){\r\n            return(MitigatorAddress,Enums.State.COMPLETE);\r\n        }else{\r\n            return(address(0),Enums.State.ABORT);\r\n        }\r\n    }\r\n    \r\n    function rejected(Enums.Rating MitigatorRating) public view returns (address ,Enums.State){    \r\n        if(MitigatorRating==Enums.Rating.NEG){\r\n            return(address(0),Enums.State.ESCALATE);\r\n        }else{\r\n            return(TargetAddress,Enums.State.COMPLETE);\r\n        }\r\n    }\r\n}",
  "sourcePath": "C:\\Code\\Private\\CooperativeSignaling\\contracts\\EvaluationWithProof.sol",
  "compiler": {
    "name": "solc",
    "version": "0.5.0+commit.1d4f565a.Emscripten.clang"
  },
  "schemaVersion": "3.0.1",
  "updatedAt": "2019-02-11T14:52:11.986Z",
  "devdoc": {
    "methods": {}
  },
  "userdoc": {
    "methods": {}
  }
}