{
  "contractName": "Evaluation",
  "abi": [
    {
      "inputs": [
        {
          "name": "owner",
          "type": "address"
        },
        {
          "name": "_TargetAddress",
          "type": "address"
        },
        {
          "name": "_MitigatorAddress",
          "type": "address"
        }
      ],
      "payable": false,
      "stateMutability": "nonpayable",
      "type": "constructor"
    },
    {
      "constant": true,
      "inputs": [
        {
          "name": "_ProofWasProvided",
          "type": "bool"
        },
        {
          "name": "TargetRating",
          "type": "uint8"
        },
        {
          "name": "MitigatorRating",
          "type": "uint8"
        }
      ],
      "name": "evaluate",
      "outputs": [
        {
          "name": "",
          "type": "address"
        },
        {
          "name": "",
          "type": "uint8"
        }
      ],
      "payable": false,
      "stateMutability": "view",
      "type": "function"
    },
    {
      "constant": true,
      "inputs": [
        {
          "name": "TargetRating",
          "type": "uint8"
        }
      ],
      "name": "evaluationWithoutProof",
      "outputs": [
        {
          "name": "",
          "type": "address"
        },
        {
          "name": "",
          "type": "uint8"
        }
      ],
      "payable": false,
      "stateMutability": "view",
      "type": "function"
    },
    {
      "constant": true,
      "inputs": [
        {
          "name": "TargetRating",
          "type": "uint8"
        },
        {
          "name": "MitigatorRating",
          "type": "uint8"
        }
      ],
      "name": "evaluationWithProof",
      "outputs": [
        {
          "name": "",
          "type": "address"
        },
        {
          "name": "",
          "type": "uint8"
        }
      ],
      "payable": false,
      "stateMutability": "view",
      "type": "function"
    },
    {
      "constant": true,
      "inputs": [
        {
          "name": "MitigatorRating",
          "type": "uint8"
        }
      ],
      "name": "evaluationWithProofAcknowledged",
      "outputs": [
        {
          "name": "",
          "type": "address"
        },
        {
          "name": "",
          "type": "uint8"
        }
      ],
      "payable": false,
      "stateMutability": "view",
      "type": "function"
    },
    {
      "constant": true,
      "inputs": [
        {
          "name": "MitigatorRating",
          "type": "uint8"
        }
      ],
      "name": "evaluationWithProofSelfish",
      "outputs": [
        {
          "name": "",
          "type": "address"
        },
        {
          "name": "",
          "type": "uint8"
        }
      ],
      "payable": false,
      "stateMutability": "view",
      "type": "function"
    },
    {
      "constant": true,
      "inputs": [
        {
          "name": "MitigatorRating",
          "type": "uint8"
        }
      ],
      "name": "evaluationWithProofRejected",
      "outputs": [
        {
          "name": "",
          "type": "address"
        },
        {
          "name": "",
          "type": "uint8"
        }
      ],
      "payable": false,
      "stateMutability": "view",
      "type": "function"
    }
  ],
  "bytecode": "0x608060405234801561001057600080fd5b506040516060806103b48339810180604052606081101561003057600080fd5b508051602082015160409092015160008054600160a060020a03938416600160a060020a03199182161790915560018054948416948216949094179093556002805492909116919092161790556103288061008c6000396000f3fe6080604052600436106100775763ffffffff7c01000000000000000000000000000000000000000000000000000000006000350416630b957629811461007c57806315f6c1341461007c578063349590c3146100ea578063415899f31461011f57806353707b4c1461014c5780638886181814610189575b600080fd5b34801561008857600080fd5b506100a96004803603602081101561009f57600080fd5b503560ff166101b6565b60405173ffffffffffffffffffffffffffffffffffffffff83168152602081018260088111156100d557fe5b60ff1681526020019250505060405180910390f35b3480156100f657600080fd5b506100a96004803603604081101561010d57600080fd5b5060ff813581169160200135166101fc565b34801561012b57600080fd5b506100a96004803603602081101561014257600080fd5b503560ff16610252565b34801561015857600080fd5b506100a96004803603606081101561016f57600080fd5b50803515159060ff60208201358116916040013516610297565b34801561019557600080fd5b506100a9600480360360208110156101ac57600080fd5b503560ff166102c4565b60008060028360028111156101c757fe5b14156101ef57505060025473ffffffffffffffffffffffffffffffffffffffff1660066101f7565b506000905060075b915091565b600080600284600281111561020d57fe5b14156102255761021c836101b6565b9150915061024b565b600084600281111561023357fe5b14156102425761021c83610252565b61021c836101b6565b9250929050565b600080600283600281111561026357fe5b141561027557506000905060086101f7565b505060015473ffffffffffffffffffffffffffffffffffffffff1660066101f7565b60008084156102b3576102aa84846101fc565b915091506102bc565b6102aa846102c4565b935093915050565b600080808360028111156102d457fe5b14156101ef57505060015473ffffffffffffffffffffffffffffffffffffffff1660066101f756fea165627a7a7230582089f6309960b8ce70341b9cf754dad47a61214fd2b26bcbdc8c02709894aa3dfd0029",
  "source": "pragma solidity ^0.5.0;\r\n\r\nimport \"./Enums.sol\";\r\n\r\ncontract  Evaluation {\r\n\r\n\taddress private OwningContract;\r\n\taddress private TargetAddress;\r\n\taddress private MitigatorAddress;\r\n\t\r\n\tconstructor(address owner,address _TargetAddress,address _MitigatorAddress) public{\r\n\t\tOwningContract = owner;\r\n\t\tTargetAddress= _TargetAddress;\r\n\t\tMitigatorAddress= _MitigatorAddress;\r\n\t}\r\n\r\n    function evaluate(bool _ProofWasProvided, Enums.Rating TargetRating, Enums.Rating MitigatorRating) public view returns (address,Enums.State){    \r\n        if(_ProofWasProvided){\r\n            return evaluationWithProof(TargetRating,MitigatorRating);\r\n        }else{\r\n            return evaluationWithoutProof(TargetRating);\r\n        }\r\n    }\r\n    \r\n    function evaluationWithoutProof(Enums.Rating TargetRating) public view returns (address,Enums.State){    \r\n        if(TargetRating==Enums.Rating.REJ){\r\n\t\t\t\treturn(TargetAddress,Enums.State.COMPLETE);\r\n            }else{\r\n                return(address(0),Enums.State.ABORT);\r\n            }\r\n    }\r\n    \r\n    function evaluationWithProof(Enums.Rating TargetRating, Enums.Rating MitigatorRating) public view returns (address,Enums.State){    \r\n        if(TargetRating==Enums.Rating.ACK){\r\n            return evaluationWithProofAcknowledged(MitigatorRating);\r\n        }else if(TargetRating==Enums.Rating.REJ){\r\n            return evaluationWithProofRejected(MitigatorRating);\r\n        }else{\r\n            return evaluationWithProofSelfish(MitigatorRating);\r\n        }\r\n    }\r\n    \r\n    function evaluationWithProofAcknowledged(Enums.Rating MitigatorRating) public view returns (address,Enums.State){    \r\n        if(MitigatorRating==Enums.Rating.ACK){\r\n\t\t\treturn(MitigatorAddress,Enums.State.COMPLETE);\r\n        }else{\r\n            return(address(0),Enums.State.ABORT);\r\n        }\r\n    }\r\n    \r\n    function evaluationWithProofSelfish(Enums.Rating MitigatorRating) public view returns (address,Enums.State){    \r\n        if(MitigatorRating==Enums.Rating.ACK){\r\n            return(MitigatorAddress,Enums.State.COMPLETE);\r\n        }else{\r\n            return(address(0),Enums.State.ABORT);\r\n        }\r\n    }\r\n    \r\n    function evaluationWithProofRejected(Enums.Rating MitigatorRating) public view returns (address,Enums.State){    \r\n        if(MitigatorRating==Enums.Rating.ACK){\r\n            return(address(0),Enums.State.ESCALATE);\r\n        }else{\r\n            return(TargetAddress,Enums.State.COMPLETE);\r\n        }\r\n    }\r\n}",
  "sourcePath": "C:\\Code\\Private\\CooperativeSignaling\\contracts\\Evaluation.sol",
  "compiler": {
    "name": "solc",
    "version": "0.5.0+commit.1d4f565a.Emscripten.clang"
  },
  "schemaVersion": "3.0.1",
  "updatedAt": "2019-02-05T20:40:45.076Z",
  "devdoc": {
    "methods": {}
  },
  "userdoc": {
    "methods": {}
  }
}