{
  "contractName": "Evaluation",
  "abi": [
    {
      "constant": false,
      "inputs": [
        {
          "name": "Data",
          "type": "address"
        }
      ],
      "name": "evaluate",
      "outputs": [
        {
          "name": "",
          "type": "address"
        }
      ],
      "payable": true,
      "stateMutability": "payable",
      "type": "function"
    },
    {
      "constant": false,
      "inputs": [
        {
          "name": "Data",
          "type": "address"
        }
      ],
      "name": "evaluationWithoutProof",
      "outputs": [],
      "payable": true,
      "stateMutability": "payable",
      "type": "function"
    },
    {
      "constant": false,
      "inputs": [
        {
          "name": "Data",
          "type": "address"
        }
      ],
      "name": "evaluationWithProof",
      "outputs": [],
      "payable": true,
      "stateMutability": "payable",
      "type": "function"
    },
    {
      "constant": false,
      "inputs": [
        {
          "name": "Data",
          "type": "address"
        }
      ],
      "name": "evaluationWithProofAcknowledged",
      "outputs": [],
      "payable": true,
      "stateMutability": "payable",
      "type": "function"
    },
    {
      "constant": false,
      "inputs": [
        {
          "name": "Data",
          "type": "address"
        }
      ],
      "name": "evaluationWithProofSelfish",
      "outputs": [],
      "payable": true,
      "stateMutability": "payable",
      "type": "function"
    },
    {
      "constant": false,
      "inputs": [
        {
          "name": "Data",
          "type": "address"
        }
      ],
      "name": "evaluationWithProofRejected",
      "outputs": [],
      "payable": true,
      "stateMutability": "payable",
      "type": "function"
    }
  ],
  "bytecode": "0x608060405234801561001057600080fd5b5061086f806100206000396000f3fe60806040526004361061005e5763ffffffff60e060020a6000350416631493ed6681146100635780632ad9cd9c1461008b578063aaff7109146100b1578063b29de4ae146100d7578063ce23480c146100b1578063f721fb24146100fd575b600080fd5b6100896004803603602081101561007957600080fd5b5035600160a060020a031661013f565b005b610089600480360360208110156100a157600080fd5b5035600160a060020a0316610364565b610089600480360360208110156100c757600080fd5b5035600160a060020a0316610476565b610089600480360360208110156100ed57600080fd5b5035600160a060020a031661053c565b6101236004803603602081101561011357600080fd5b5035600160a060020a03166107b9565b60408051600160a060020a039092168252519081900360200190f35b600081600160a060020a0316639ed5b5026040518163ffffffff1660e060020a02815260040160206040518083038186803b15801561017d57600080fd5b505afa158015610191573d6000803e3d6000fd5b505050506040513d60208110156101a757600080fd5b505160028111156101b457fe5b14156102f95780600160a060020a031663e39ff19f82600160a060020a031663f00e6a2a6040518163ffffffff1660e060020a02815260040160206040518083038186803b15801561020557600080fd5b505afa158015610219573d6000803e3d6000fd5b505050506040513d602081101561022f57600080fd5b50516040805160e060020a63ffffffff8516028152600160a060020a03909216600483015251602480830192600092919082900301818387803b15801561027557600080fd5b505af1158015610289573d6000803e3d6000fd5b505060405160e060020a6356de96db028152600160a060020a03841692506356de96db915060069060040180825b60ff168152602001915050600060405180830381600087803b1580156102dc57600080fd5b505af11580156102f0573d6000803e3d6000fd5b50505050610361565b60405160e060020a6356de96db028152600160a060020a038216906356de96db9060079060040180825b60ff168152602001915050600060405180830381600087803b15801561034857600080fd5b505af115801561035c573d6000803e3d6000fd5b505050505b50565b600281600160a060020a0316639ed5b5026040518163ffffffff1660e060020a02815260040160206040518083038186803b1580156103a257600080fd5b505afa1580156103b6573d6000803e3d6000fd5b505050506040513d60208110156103cc57600080fd5b505160028111156103d957fe5b14156103ed576103e881610476565b610361565b600081600160a060020a0316639ed5b5026040518163ffffffff1660e060020a02815260040160206040518083038186803b15801561042b57600080fd5b505afa15801561043f573d6000803e3d6000fd5b505050506040513d602081101561045557600080fd5b5051600281111561046257fe5b1415610471576103e88161053c565b610361815b600281600160a060020a03166390f3213d6040518163ffffffff1660e060020a02815260040160206040518083038186803b1580156104b457600080fd5b505afa1580156104c8573d6000803e3d6000fd5b505050506040513d60208110156104de57600080fd5b505160028111156104eb57fe5b14156102f95780600160a060020a031663e39ff19f82600160a060020a03166350b1be266040518163ffffffff1660e060020a02815260040160206040518083038186803b15801561020557600080fd5b600281600160a060020a03166390f3213d6040518163ffffffff1660e060020a02815260040160206040518083038186803b15801561057a57600080fd5b505afa15801561058e573d6000803e3d6000fd5b505050506040513d60208110156105a457600080fd5b505160028111156105b157fe5b14156106b85780600160a060020a031663e39ff19f82600160a060020a031663f00e6a2a6040518163ffffffff1660e060020a02815260040160206040518083038186803b15801561060257600080fd5b505afa158015610616573d6000803e3d6000fd5b505050506040513d602081101561062c57600080fd5b50516040805160e060020a63ffffffff8516028152600160a060020a03909216600483015251602480830192600092919082900301818387803b15801561067257600080fd5b505af1158015610686573d6000803e3d6000fd5b505060405160e060020a6356de96db028152600160a060020a03841692506356de96db915060089060040180826102b7565b80600160a060020a031663e39ff19f82600160a060020a031663f00e6a2a6040518163ffffffff1660e060020a02815260040160206040518083038186803b15801561070357600080fd5b505afa158015610717573d6000803e3d6000fd5b505050506040513d602081101561072d57600080fd5b50516040805160e060020a63ffffffff8516028152600160a060020a03909216600483015251602480830192600092919082900301818387803b15801561077357600080fd5b505af1158015610787573d6000803e3d6000fd5b505060405160e060020a6356de96db028152600160a060020a03841692506356de96db91506006906004018082610323565b600081600160a060020a031663620ae1c76040518163ffffffff1660e060020a02815260040160206040518083038186803b1580156107f757600080fd5b505afa15801561080b573d6000803e3d6000fd5b505050506040513d602081101561082157600080fd5b5051156108365761083182610364565b61083f565b61083f8261013f565b509056fea165627a7a72305820acb1b0295afbc9ebc83bd9b21657f9599ac76e246586a9e179960a2dc3f39d6c0029",
  "source": "pragma solidity ^0.5.0;\r\n\r\nimport \"./ProcessData.sol\";\r\n\r\ncontract  Evaluation {\r\n\r\n    function evaluate(ProcessData Data) public payable  returns (ProcessData){    \r\n        if(Data.isProofProvided()){\r\n            evaluationWithProof(Data);\r\n        }else{\r\n            evaluationWithoutProof(Data);\r\n        }\r\n        \r\n        return Data;\r\n    }\r\n    \r\n    function evaluationWithoutProof(ProcessData Data) public payable  {    \r\n        if(Data.getTargetRating()==ProcessData.Rating.REJ){\r\n                Data.transferFunds(Data.getTarget());\r\n                Data.setState(ProcessData.State.COMPLETE);\r\n            }else{\r\n                Data.setState(ProcessData.State.ABORT);\r\n            }\r\n    }\r\n    \r\n    function evaluationWithProof(ProcessData Data) public payable  {    \r\n        if(Data.getTargetRating()==ProcessData.Rating.ACK){\r\n            evaluationWithProofAcknowledged(Data);\r\n        }else if(Data.getTargetRating()==ProcessData.Rating.REJ){\r\n            evaluationWithProofRejected(Data);\r\n        }else{\r\n            evaluationWithProofSelfish(Data);\r\n        }\r\n    }\r\n    \r\n    function evaluationWithProofAcknowledged(ProcessData Data) public payable  {    \r\n        if(Data.getMitigatorRating()==ProcessData.Rating.ACK){\r\n            Data.transferFunds(Data.getMitigator());\r\n            Data.setState(ProcessData.State.COMPLETE);\r\n        }else{\r\n            Data.setState(ProcessData.State.ABORT);\r\n        }\r\n    }\r\n    \r\n    function evaluationWithProofSelfish(ProcessData Data) public payable  {    \r\n        if(Data.getMitigatorRating()==ProcessData.Rating.ACK){\r\n            Data.transferFunds(Data.getMitigator());\r\n            Data.setState(ProcessData.State.COMPLETE);\r\n        }else{\r\n            Data.setState(ProcessData.State.ABORT);\r\n        }\r\n    }\r\n    \r\n    function evaluationWithProofRejected(ProcessData Data) public payable  {    \r\n        if(Data.getMitigatorRating()==ProcessData.Rating.ACK){\r\n            Data.transferFunds(Data.getTarget());\r\n            Data.setState(ProcessData.State.ESCALATE);\r\n        }else{\r\n            Data.transferFunds(Data.getTarget());\r\n            Data.setState(ProcessData.State.COMPLETE);\r\n        }\r\n    }\r\n}",
  "sourcePath": "C:\\Code\\Private\\CooperativeSignaling\\contracts\\Evaluation.sol",
  "compiler": {
    "name": "solc",
    "version": "0.5.0+commit.1d4f565a.Emscripten.clang"
  },
  "schemaVersion": "3.0.1",
  "updatedAt": "2019-02-01T21:44:45.628Z",
  "devdoc": {
    "methods": {}
  },
  "userdoc": {
    "methods": {}
  }
}