{
  "contractName": "IActor",
  "abi": [
    {
      "inputs": [
        {
          "name": "_Owner",
          "type": "address"
        },
        {
          "name": "price",
          "type": "uint256"
        },
        {
          "name": "net",
          "type": "string"
        }
      ],
      "payable": true,
      "stateMutability": "payable",
      "type": "constructor"
    },
    {
      "payable": true,
      "stateMutability": "payable",
      "type": "fallback"
    },
    {
      "constant": true,
      "inputs": [],
      "name": "getOwner",
      "outputs": [
        {
          "name": "",
          "type": "address"
        }
      ],
      "payable": false,
      "stateMutability": "view",
      "type": "function"
    },
    {
      "constant": true,
      "inputs": [
        {
          "name": "offer",
          "type": "uint256"
        },
        {
          "name": "amountOfAddresses",
          "type": "uint256"
        }
      ],
      "name": "isOfferAcceptable",
      "outputs": [
        {
          "name": "",
          "type": "bool"
        }
      ],
      "payable": false,
      "stateMutability": "view",
      "type": "function"
    },
    {
      "constant": true,
      "inputs": [],
      "name": "getPricePerUnit",
      "outputs": [
        {
          "name": "",
          "type": "uint256"
        }
      ],
      "payable": false,
      "stateMutability": "view",
      "type": "function"
    },
    {
      "constant": true,
      "inputs": [],
      "name": "getNetwork",
      "outputs": [
        {
          "name": "",
          "type": "string"
        }
      ],
      "payable": false,
      "stateMutability": "view",
      "type": "function"
    }
  ],
  "bytecode": "0x60806040526040516104cb3803806104cb8339810180604052606081101561002657600080fd5b815160208301516040840180519294919382019264010000000081111561004c57600080fd5b8201602081018481111561005f57600080fd5b815164010000000081118282018710171561007957600080fd5b505060008054600160a060020a031916600160a060020a038816179055600185905580519093506100b392506002915060208401906100bc565b50505050610157565b828054600181600116156101000203166002900490600052602060002090601f016020900481019282601f106100fd57805160ff191683800117855561012a565b8280016001018555821561012a579182015b8281111561012a57825182559160200191906001019061010f565b5061013692915061013a565b5090565b61015491905b808211156101365760008155600101610140565b90565b610365806101666000396000f3fe6080604052600436106100615763ffffffff7c010000000000000000000000000000000000000000000000000000000060003504166307e4b7e981146100ac578063893d20e814610136578063a5ebeaa414610174578063a7cc53f5146101b8575b6000805460405173ffffffffffffffffffffffffffffffffffffffff90911691303180156108fc02929091818181858888f193505050501580156100a9573d6000803e3d6000fd5b50005b3480156100b857600080fd5b506100c16101df565b6040805160208082528351818301528351919283929083019185019080838360005b838110156100fb5781810151838201526020016100e3565b50505050905090810190601f1680156101285780820380516001836020036101000a031916815260200191505b509250505060405180910390f35b34801561014257600080fd5b5061014b610272565b6040805173ffffffffffffffffffffffffffffffffffffffff9092168252519081900360200190f35b34801561018057600080fd5b506101a46004803603604081101561019757600080fd5b508035906020013561028e565b604080519115158252519081900360200190f35b3480156101c457600080fd5b506101cd610333565b60408051918252519081900360200190f35b60028054604080516020601f60001961010060018716150201909416859004938401819004810282018101909252828152606093909290918301828280156102685780601f1061023d57610100808354040283529160200191610268565b820191906000526020600020905b81548152906001019060200180831161024b57829003601f168201915b5050505050905090565b60005473ffffffffffffffffffffffffffffffffffffffff1690565b600154600090820283101561032a57604080517f08c379a000000000000000000000000000000000000000000000000000000000815260206004820152602d60248201527f4f666665722077617320746f6f206c6f772c20706c656173652070726f76696460448201527f65206d6f72652066756e64732e00000000000000000000000000000000000000606482015290519081900360840190fd5b50600192915050565b6001549056fea165627a7a723058200bfca24c8f510a6da553e03543af0205fbb4dea3ea3f6d80abbfc47b9be41aa50029",
  "source": "pragma solidity ^0.5.0;\r\n\r\ncontract IActor {\r\n    \r\n    address payable private Owner;\r\n    uint private PricePerUnit;\r\n    string private Network;\r\n\r\n    constructor (address payable _Owner,uint256 price, string memory net) \r\n\tpayable\r\n    public\r\n    {\r\n        Owner = _Owner;\r\n        PricePerUnit = price;\r\n        Network = net;\r\n    }\r\n\r\n    function getOwner() \r\n    external view\r\n    returns (address payable){\r\n        return Owner;\r\n    }\r\n\t\r\n\tfunction() payable external {\r\n\t\tOwner.transfer(address(this).balance);\r\n\t}\r\n\r\n    function isOfferAcceptable(uint256 offer,uint amountOfAddresses) \r\n    public view\r\n    returns (bool){\r\n        require(offer >= amountOfAddresses*PricePerUnit,\"Offer was too low, please provide more funds.\");\r\n        return true;\r\n    }\r\n    \r\n    function getPricePerUnit() \r\n    public view\r\n    returns (uint){\r\n        return PricePerUnit;\r\n    }\r\n\r\n    function getNetwork() \r\n    public view\r\n    returns (string memory){\r\n        return Network;\r\n    }\r\n\r\n}",
  "sourcePath": "C:\\Code\\Private\\MBM\\contracts\\IActor.sol",
  "compiler": {
    "name": "solc",
    "version": "0.5.0+commit.1d4f565a.Emscripten.clang"
  },
  "schemaVersion": "3.0.1",
  "updatedAt": "2019-02-07T21:19:52.018Z",
  "devdoc": {
    "methods": {}
  },
  "userdoc": {
    "methods": {}
  }
}