{
  "contractName": "IActor",
  "abi": [
    {
      "inputs": [
        {
          "name": "ActorAddress",
          "type": "address"
        },
        {
          "name": "price",
          "type": "uint256"
        },
        {
          "name": "net",
          "type": "string"
        }
      ],
      "payable": false,
      "stateMutability": "nonpayable",
      "type": "constructor"
    },
    {
      "constant": true,
      "inputs": [],
      "name": "getOwner",
      "outputs": [
        {
          "name": "",
          "type": "address"
        }
      ],
      "payable": false,
      "stateMutability": "view",
      "type": "function"
    },
    {
      "constant": true,
      "inputs": [],
      "name": "getAddress",
      "outputs": [
        {
          "name": "",
          "type": "address"
        }
      ],
      "payable": false,
      "stateMutability": "view",
      "type": "function"
    },
    {
      "constant": true,
      "inputs": [
        {
          "name": "offer",
          "type": "uint256"
        },
        {
          "name": "amountOfAddresses",
          "type": "uint256"
        }
      ],
      "name": "isOfferAcceptable",
      "outputs": [
        {
          "name": "",
          "type": "bool"
        }
      ],
      "payable": false,
      "stateMutability": "view",
      "type": "function"
    },
    {
      "constant": true,
      "inputs": [],
      "name": "getPricePerUnit",
      "outputs": [
        {
          "name": "",
          "type": "uint256"
        }
      ],
      "payable": false,
      "stateMutability": "view",
      "type": "function"
    },
    {
      "constant": true,
      "inputs": [],
      "name": "getNetwork",
      "outputs": [
        {
          "name": "",
          "type": "string"
        }
      ],
      "payable": false,
      "stateMutability": "view",
      "type": "function"
    }
  ],
  "bytecode": "0x608060405234801561001057600080fd5b506040516104b63803806104b68339810180604052606081101561003357600080fd5b815160208301516040840180519294919382019264010000000081111561005957600080fd5b8201602081018481111561006c57600080fd5b815164010000000081118282018710171561008657600080fd5b505060008054600160a060020a031916600160a060020a038816179055600185905580519093506100c092506002915060208401906100c9565b50505050610164565b828054600181600116156101000203166002900490600052602060002090601f016020900481019282601f1061010a57805160ff1916838001178555610137565b82800160010185558215610137579182015b8281111561013757825182559160200191906001019061011c565b50610143929150610147565b5090565b61016191905b80821115610143576000815560010161014d565b90565b610343806101736000396000f3fe60806040526004361061006c5763ffffffff7c010000000000000000000000000000000000000000000000000000000060003504166307e4b7e9811461007157806338cc4831146100fb578063893d20e814610139578063a5ebeaa41461014e578063a7cc53f514610192575b600080fd5b34801561007d57600080fd5b506100866101b9565b6040805160208082528351818301528351919283929083019185019080838360005b838110156100c05781810151838201526020016100a8565b50505050905090810190601f1680156100ed5780820380516001836020036101000a031916815260200191505b509250505060405180910390f35b34801561010757600080fd5b5061011061024c565b6040805173ffffffffffffffffffffffffffffffffffffffff9092168252519081900360200190f35b34801561014557600080fd5b50610110610250565b34801561015a57600080fd5b5061017e6004803603604081101561017157600080fd5b508035906020013561026c565b604080519115158252519081900360200190f35b34801561019e57600080fd5b506101a7610311565b60408051918252519081900360200190f35b60028054604080516020601f60001961010060018716150201909416859004938401819004810282018101909252828152606093909290918301828280156102425780601f1061021757610100808354040283529160200191610242565b820191906000526020600020905b81548152906001019060200180831161022557829003601f168201915b5050505050905090565b3090565b60005473ffffffffffffffffffffffffffffffffffffffff1690565b600154600090820283101561030857604080517f08c379a000000000000000000000000000000000000000000000000000000000815260206004820152602d60248201527f4f666665722077617320746f6f206c6f772c20706c656173652070726f76696460448201527f65206d6f72652066756e64732e00000000000000000000000000000000000000606482015290519081900360840190fd5b50600192915050565b6001549056fea165627a7a72305820e916cf7b595291c781971316cdf62e2e04bf2e62afd457f557fa935073dcf2140029",
  "source": "pragma solidity ^0.5.0;\r\n\r\ncontract IActor {\r\n    \r\n    address payable private Owner;\r\n    uint private PricePerUnit;\r\n    string private Network;\r\n\t\r\n    constructor (address payable ActorAddress,uint256 price, string memory net) \r\n    public\r\n    {\r\n        Owner = ActorAddress;\r\n        PricePerUnit = price;\r\n        Network = net;\r\n    }\r\n\r\n    function getOwner() \r\n    public view\r\n    returns (address payable){\r\n        return Owner;\r\n    }\r\n    \r\n    function getAddress()\r\n    public view\r\n    returns (address){\r\n        return address(this);\r\n    }\r\n    \r\n    function isOfferAcceptable(uint256 offer,uint amountOfAddresses) \r\n    public view\r\n    returns (bool){\r\n        require(offer >= amountOfAddresses*PricePerUnit,\"Offer was too low, please provide more funds.\");\r\n        return true;\r\n    }\r\n    \r\n    function getPricePerUnit() \r\n    public view\r\n    returns (uint){\r\n        return PricePerUnit;\r\n    }\r\n\r\n    function getNetwork() \r\n    public view\r\n    returns (string memory){\r\n        return Network;\r\n    }\r\n\r\n}",
  "sourcePath": "C:\\Code\\Private\\CooperativeSignaling\\contracts\\IActor.sol",
  "compiler": {
    "name": "solc",
    "version": "0.5.0+commit.1d4f565a.Emscripten.clang"
  },
  "schemaVersion": "3.0.1",
  "updatedAt": "2019-02-03T15:57:54.358Z",
  "devdoc": {
    "methods": {}
  },
  "userdoc": {
    "methods": {}
  }
}