{
  "contractName": "IData",
  "abi": [
    {
      "inputs": [
        {
          "name": "T",
          "type": "address"
        },
        {
          "name": "M",
          "type": "address"
        },
        {
          "name": "Interval",
          "type": "uint256"
        },
        {
          "name": "listOfAddresses",
          "type": "string"
        },
        {
          "name": "amount",
          "type": "uint256"
        }
      ],
      "payable": true,
      "stateMutability": "payable",
      "type": "constructor"
    },
    {
      "payable": true,
      "stateMutability": "payable",
      "type": "fallback"
    },
    {
      "anonymous": false,
      "inputs": [
        {
          "indexed": false,
          "name": "value",
          "type": "uint256"
        }
      ],
      "name": "Received",
      "type": "event"
    },
    {
      "constant": false,
      "inputs": [
        {
          "name": "receiver",
          "type": "address"
        }
      ],
      "name": "transferFunds",
      "outputs": [],
      "payable": false,
      "stateMutability": "nonpayable",
      "type": "function"
    },
    {
      "constant": true,
      "inputs": [],
      "name": "getMitigator",
      "outputs": [
        {
          "name": "",
          "type": "address"
        }
      ],
      "payable": false,
      "stateMutability": "view",
      "type": "function"
    },
    {
      "constant": true,
      "inputs": [],
      "name": "getTarget",
      "outputs": [
        {
          "name": "",
          "type": "address"
        }
      ],
      "payable": false,
      "stateMutability": "view",
      "type": "function"
    },
    {
      "constant": true,
      "inputs": [],
      "name": "getProof",
      "outputs": [
        {
          "name": "",
          "type": "string"
        }
      ],
      "payable": false,
      "stateMutability": "view",
      "type": "function"
    },
    {
      "constant": false,
      "inputs": [
        {
          "name": "_Proof",
          "type": "string"
        }
      ],
      "name": "setProof",
      "outputs": [],
      "payable": false,
      "stateMutability": "nonpayable",
      "type": "function"
    },
    {
      "constant": true,
      "inputs": [],
      "name": "getTargetRating",
      "outputs": [
        {
          "name": "",
          "type": "uint8"
        }
      ],
      "payable": false,
      "stateMutability": "view",
      "type": "function"
    },
    {
      "constant": true,
      "inputs": [],
      "name": "getMitigatorRating",
      "outputs": [
        {
          "name": "",
          "type": "uint8"
        }
      ],
      "payable": false,
      "stateMutability": "view",
      "type": "function"
    },
    {
      "constant": false,
      "inputs": [
        {
          "name": "_Rating",
          "type": "uint8"
        }
      ],
      "name": "setTargetRating",
      "outputs": [],
      "payable": false,
      "stateMutability": "nonpayable",
      "type": "function"
    },
    {
      "constant": false,
      "inputs": [
        {
          "name": "_Rating",
          "type": "uint8"
        }
      ],
      "name": "setMitigatorRating",
      "outputs": [],
      "payable": false,
      "stateMutability": "nonpayable",
      "type": "function"
    },
    {
      "constant": true,
      "inputs": [],
      "name": "getStartTime",
      "outputs": [
        {
          "name": "",
          "type": "uint256"
        }
      ],
      "payable": false,
      "stateMutability": "view",
      "type": "function"
    },
    {
      "constant": false,
      "inputs": [],
      "name": "setDeadline",
      "outputs": [],
      "payable": false,
      "stateMutability": "nonpayable",
      "type": "function"
    },
    {
      "constant": true,
      "inputs": [],
      "name": "getDeadline",
      "outputs": [
        {
          "name": "",
          "type": "uint256"
        }
      ],
      "payable": false,
      "stateMutability": "view",
      "type": "function"
    }
  ],
  "bytecode": "0x4260045560a06040819052600060808190526200001f916006916200009e565b5060405162000a2e38038062000a2e8339810180604052620000459190810190620001c2565b60008054600160a060020a03808816600160a060020a0319928316179092556001805492871692909116919091179055600283905581516200008f9060059060208501906200009e565b5060075550620002fb92505050565b828054600181600116156101000203166002900490600052602060002090601f016020900481019282601f10620000e157805160ff191683800117855562000111565b8280016001018555821562000111579182015b8281111562000111578251825591602001919060010190620000f4565b506200011f92915062000123565b5090565b6200014091905b808211156200011f57600081556001016200012a565b90565b6000620001518251620002b5565b9392505050565b6000601f820183136200016a57600080fd5b8151620001816200017b8262000281565b6200025a565b915080825260208301602083018583830111156200019e57600080fd5b620001ab838284620002c8565b50505092915050565b600062000151825162000140565b600080600080600060a08688031215620001db57600080fd5b6000620001e9888862000143565b9550506020620001fc8882890162000143565b94505060406200020f88828901620001b4565b93505060608601516001604060020a038111156200022c57600080fd5b6200023a8882890162000158565b92505060806200024d88828901620001b4565b9150509295509295909350565b6040518181016001604060020a03811182821017156200027957600080fd5b604052919050565b60006001604060020a038211156200029857600080fd5b506020601f91909101601f19160190565b600160a060020a031690565b6000620002c282620002a9565b92915050565b60005b83811015620002e5578181015183820152602001620002cb565b83811115620002f5576000848401525b50505050565b610723806200030b6000396000f3fe6080604052600436106100b95763ffffffff7c010000000000000000000000000000000000000000000000000000000060003504166315336f8081146100f25780631dc9b2841461011457806350b1be26146101345780635c5d625e1461015f5780635f8d96de1461018157806390f3213d146101a357806399707f9c146101c55780639ed5b502146101da578063a3bbb090146101ef578063c828371e1461020f578063e39ff19f14610224578063f00e6a2a14610244575b7fa8142743f8f70a4c26f3691cf4ed59718381fb2f18070ec52be1f1022d855557346040516100e891906105f8565b60405180910390a1005b3480156100fe57600080fd5b5061011261010d36600461053a565b610259565b005b34801561012057600080fd5b5061011261012f36600461051c565b610270565b34801561014057600080fd5b50610149610293565b60405161015691906105c5565b60405180910390f35b34801561016b57600080fd5b506101746102b0565b60405161015691906105e7565b34801561018d57600080fd5b50610196610346565b60405161015691906105f8565b3480156101af57600080fd5b506101b861034c565b60405161015691906105d9565b3480156101d157600080fd5b5061011261035a565b3480156101e657600080fd5b506101b8610364565b3480156101fb57600080fd5b5061011261020a36600461051c565b61036d565b34801561021b57600080fd5b50610196610386565b34801561023057600080fd5b5061011261023f3660046104f6565b61038c565b34801561025057600080fd5b506101496103cf565b805161026c9060069060208401906103eb565b5050565b6008805482919061ff00191661010083600281111561028b57fe5b021790555050565b60015473ffffffffffffffffffffffffffffffffffffffff165b90565b60068054604080516020601f600260001961010060018816150201909516949094049384018190048102820181019092528281526060939092909183018282801561033c5780601f106103115761010080835404028352916020019161033c565b820191906000526020600020905b81548152906001019060200180831161031f57829003601f168201915b5050505050905090565b60035490565b600854610100900460ff1690565b6002544201600355565b60085460ff1690565b6008805482919060ff1916600183600281111561028b57fe5b60045490565b60405173ffffffffffffffffffffffffffffffffffffffff821690303180156108fc02916000818181858888f1935050505015801561026c573d6000803e3d6000fd5b60005473ffffffffffffffffffffffffffffffffffffffff1690565b828054600181600116156101000203166002900490600052602060002090601f016020900481019282601f1061042c57805160ff1916838001178555610459565b82800160010185558215610459579182015b8281111561045957825182559160200191906001019061043e565b50610465929150610469565b5090565b6102ad91905b80821115610465576000815560010161046f565b600061048f8235610659565b9392505050565b600061048f8235610689565b6000601f820183136104b357600080fd5b81356104c66104c18261062d565b610606565b915080825260208301602083018583830111156104e257600080fd5b6104ed8382846106a3565b50505092915050565b60006020828403121561050857600080fd5b60006105148484610483565b949350505050565b60006020828403121561052e57600080fd5b60006105148484610496565b60006020828403121561054c57600080fd5b813567ffffffffffffffff81111561056357600080fd5b610514848285016104a2565b61057881610659565b82525050565b61057881610698565b600061059282610655565b8084526105a68160208601602086016106af565b6105af816106df565b9093016020019392505050565b610578816102ad565b602081016105d3828461056f565b92915050565b602081016105d3828461057e565b6020808252810161048f8184610587565b602081016105d382846105bc565b60405181810167ffffffffffffffff8111828210171561062557600080fd5b604052919050565b600067ffffffffffffffff82111561064457600080fd5b506020601f91909101601f19160190565b5190565b60006105d382610670565b60006003821061046557fe5b73ffffffffffffffffffffffffffffffffffffffff1690565b60006003821061046557600080fd5b60006105d382610664565b82818337506000910152565b60005b838110156106ca5781810151838201526020016106b2565b838111156106d9576000848401525b50505050565b601f01601f19169056fea265627a7a72305820c0a4f511f490fbcf9b9ad7c5ad7e160e438c34a1a874323c782544b04e61245d6c6578706572696d656e74616cf50037",
  "source": "pragma solidity ^0.5.0;\r\npragma experimental ABIEncoderV2;\r\n\r\nimport \"./Enums.sol\";\r\n\r\ncontract IData {\r\n    \r\n    address payable private Target;\r\n    address payable private Mitigator;\r\n    \r\n    uint private DeadlineInterval;\r\n    uint256 private Deadline;\r\n    uint256 private StartTime = now;\r\n    \r\n    string private ListOfAddresses;\r\n    string private Proof =\"\";\r\n    uint private AmountOfAddresses;\r\n    \r\n    Enums.Rating private TargetRating;\r\n    Enums.Rating private MitigatorRating;\r\n    event Received(uint256 value);\r\n\r\n    constructor (address payable T,address payable M, uint256 Interval,string memory listOfAddresses,uint amount) \r\n    public\r\n    payable\r\n    {\r\n        Target = T;\r\n        Mitigator = M;\r\n        DeadlineInterval = Interval;\r\n        ListOfAddresses = listOfAddresses;\r\n        AmountOfAddresses = amount;\r\n    }\r\n    \r\n\tfunction() payable external {\r\n\t\temit Received(msg.value);\r\n\t}\r\n\t\r\n\tfunction transferFunds(address payable receiver) public {   \r\n        receiver.transfer(address(this).balance);\r\n    }\r\n\r\n    function getMitigator() public view returns (address payable){return Mitigator;}\r\n    function getTarget() public view returns (address payable){ return Target;}\r\n    \r\n    function getProof() public view returns (string memory){return Proof;}\r\n    function setProof(string memory _Proof) public {Proof = _Proof;}\r\n\r\n    function getTargetRating()  public view returns (Enums.Rating){return TargetRating;}\r\n    function getMitigatorRating()  public view returns (Enums.Rating){return MitigatorRating;}\r\n    \r\n    function setTargetRating(Enums.Rating _Rating) public {TargetRating = _Rating;}\r\n    function setMitigatorRating(Enums.Rating _Rating)  public {MitigatorRating = _Rating;}\r\n\r\n    function getStartTime() public view returns (uint256){return StartTime;}\r\n    \r\n    function setDeadline()public {Deadline = now + DeadlineInterval * 1 seconds;}\r\n    function getDeadline() public view returns (uint256){return Deadline;}\r\n    \r\n\r\n}",
  "sourcePath": "C:\\Code\\Private\\MBM\\contracts\\IData.sol",
  "compiler": {
    "name": "solc",
    "version": "0.5.0+commit.1d4f565a.Emscripten.clang"
  },
  "schemaVersion": "3.0.1",
  "updatedAt": "2019-02-07T21:19:52.027Z",
  "devdoc": {
    "methods": {}
  },
  "userdoc": {
    "methods": {}
  }
}