{
  "contractName": "IData",
  "abi": [
    {
      "inputs": [
        {
          "name": "_Target",
          "type": "address"
        },
        {
          "name": "_Mitigator",
          "type": "address"
        },
        {
          "name": "_Interval",
          "type": "uint256"
        },
        {
          "name": "_ListOfAddresses",
          "type": "string"
        },
        {
          "name": "_OfferedFunds",
          "type": "uint256"
        }
      ],
      "payable": true,
      "stateMutability": "payable",
      "type": "constructor"
    },
    {
      "payable": true,
      "stateMutability": "payable",
      "type": "fallback"
    },
    {
      "anonymous": false,
      "inputs": [
        {
          "indexed": false,
          "name": "value",
          "type": "uint256"
        }
      ],
      "name": "ReceivedData",
      "type": "event"
    },
    {
      "constant": false,
      "inputs": [
        {
          "name": "receiver",
          "type": "address"
        }
      ],
      "name": "transferFunds",
      "outputs": [],
      "payable": false,
      "stateMutability": "nonpayable",
      "type": "function"
    },
    {
      "constant": true,
      "inputs": [],
      "name": "getOfferedFunds",
      "outputs": [
        {
          "name": "",
          "type": "uint256"
        }
      ],
      "payable": false,
      "stateMutability": "view",
      "type": "function"
    },
    {
      "constant": true,
      "inputs": [],
      "name": "getListOfAddresses",
      "outputs": [
        {
          "name": "",
          "type": "string"
        }
      ],
      "payable": false,
      "stateMutability": "view",
      "type": "function"
    },
    {
      "constant": true,
      "inputs": [],
      "name": "getMitigator",
      "outputs": [
        {
          "name": "",
          "type": "address"
        }
      ],
      "payable": false,
      "stateMutability": "view",
      "type": "function"
    },
    {
      "constant": true,
      "inputs": [],
      "name": "getTarget",
      "outputs": [
        {
          "name": "",
          "type": "address"
        }
      ],
      "payable": false,
      "stateMutability": "view",
      "type": "function"
    },
    {
      "constant": true,
      "inputs": [],
      "name": "getProof",
      "outputs": [
        {
          "name": "",
          "type": "string"
        }
      ],
      "payable": false,
      "stateMutability": "view",
      "type": "function"
    },
    {
      "constant": true,
      "inputs": [],
      "name": "isProofProvided",
      "outputs": [
        {
          "name": "",
          "type": "bool"
        }
      ],
      "payable": false,
      "stateMutability": "view",
      "type": "function"
    },
    {
      "constant": false,
      "inputs": [
        {
          "name": "_Proof",
          "type": "string"
        }
      ],
      "name": "setProof",
      "outputs": [],
      "payable": false,
      "stateMutability": "nonpayable",
      "type": "function"
    },
    {
      "constant": true,
      "inputs": [],
      "name": "getTargetRating",
      "outputs": [
        {
          "name": "",
          "type": "uint8"
        }
      ],
      "payable": false,
      "stateMutability": "view",
      "type": "function"
    },
    {
      "constant": true,
      "inputs": [],
      "name": "getMitigatorRating",
      "outputs": [
        {
          "name": "",
          "type": "uint8"
        }
      ],
      "payable": false,
      "stateMutability": "view",
      "type": "function"
    },
    {
      "constant": false,
      "inputs": [
        {
          "name": "_Rating",
          "type": "uint8"
        }
      ],
      "name": "setTargetRating",
      "outputs": [],
      "payable": false,
      "stateMutability": "nonpayable",
      "type": "function"
    },
    {
      "constant": false,
      "inputs": [
        {
          "name": "_Rating",
          "type": "uint8"
        }
      ],
      "name": "setMitigatorRating",
      "outputs": [],
      "payable": false,
      "stateMutability": "nonpayable",
      "type": "function"
    },
    {
      "constant": false,
      "inputs": [],
      "name": "setEndTime",
      "outputs": [],
      "payable": false,
      "stateMutability": "nonpayable",
      "type": "function"
    },
    {
      "constant": true,
      "inputs": [],
      "name": "getStartTime",
      "outputs": [
        {
          "name": "",
          "type": "uint256"
        }
      ],
      "payable": false,
      "stateMutability": "view",
      "type": "function"
    },
    {
      "constant": true,
      "inputs": [],
      "name": "getEndTime",
      "outputs": [
        {
          "name": "",
          "type": "uint256"
        }
      ],
      "payable": false,
      "stateMutability": "view",
      "type": "function"
    },
    {
      "constant": true,
      "inputs": [],
      "name": "getDeadlineInterval",
      "outputs": [
        {
          "name": "",
          "type": "uint256"
        }
      ],
      "payable": false,
      "stateMutability": "view",
      "type": "function"
    }
  ],
  "bytecode": "0x4260035560a060408190526000608081905261001d916006916100fe565b50604051610971380380610971833981018060405260a081101561004057600080fd5b815160208301516040840151606085018051939592949193918301929164010000000081111561006f57600080fd5b8201602081018481111561008257600080fd5b815164010000000081118282018710171561009c57600080fd5b505060209182015160008054600160a060020a03808b16600160a060020a03199283161790925560018054928a16929091169190911790556002869055815191945092506100f091600591908501906100fe565b506007555061019992505050565b828054600181600116156101000203166002900490600052602060002090601f016020900481019282601f1061013f57805160ff191683800117855561016c565b8280016001018555821561016c579182015b8281111561016c578251825591602001919060010190610151565b5061017892915061017c565b5090565b61019691905b808211156101785760008155600101610182565b90565b6107c9806101a86000396000f3fe6080604052600436106100e55763ffffffff7c010000000000000000000000000000000000000000000000000000000060003504166311adbaad811461011a57806315336f80146101a45780631dc9b28414610259578063439f5ac21461028657806350b1be26146102ad5780635c5d625e146102eb578063620ae1c71461030057806376be6af6146103295780638271bb351461033e57806390f3213d146103535780639ed5b5021461038c578063a3bbb090146103a1578063ae892157146103ce578063c828371e146103e3578063e39ff19f146103f8578063f00e6a2a14610438575b6040805134815290517fe2bb324fa67410a9554929c8822a194d56941327668b8c7ceb61e7b3b2e016f49181900360200190a1005b34801561012657600080fd5b5061012f61044d565b6040805160208082528351818301528351919283929083019185019080838360005b83811015610169578181015183820152602001610151565b50505050905090810190601f1680156101965780820380516001836020036101000a031916815260200191505b509250505060405180910390f35b3480156101b057600080fd5b50610257600480360360208110156101c757600080fd5b8101906020810181356401000000008111156101e257600080fd5b8201836020820111156101f457600080fd5b8035906020019184600183028401116401000000008311171561021657600080fd5b91908080601f0160208091040260200160405190810160405280939291908181526020018383808284376000920191909152509295506104e4945050505050565b005b34801561026557600080fd5b506102576004803603602081101561027c57600080fd5b503560ff166104fb565b34801561029257600080fd5b5061029b61051e565b60408051918252519081900360200190f35b3480156102b957600080fd5b506102c2610524565b6040805173ffffffffffffffffffffffffffffffffffffffff9092168252519081900360200190f35b3480156102f757600080fd5b5061012f610540565b34801561030c57600080fd5b506103156105a1565b604080519115158252519081900360200190f35b34801561033557600080fd5b506102576105cf565b34801561034a57600080fd5b5061029b6105d5565b34801561035f57600080fd5b506103686105db565b6040518082600281111561037857fe5b60ff16815260200191505060405180910390f35b34801561039857600080fd5b506103686105e9565b3480156103ad57600080fd5b50610257600480360360208110156103c457600080fd5b503560ff166105f2565b3480156103da57600080fd5b5061029b61060b565b3480156103ef57600080fd5b5061029b610611565b34801561040457600080fd5b506102576004803603602081101561041b57600080fd5b503573ffffffffffffffffffffffffffffffffffffffff16610617565b34801561044457600080fd5b506102c26106e9565b60058054604080516020601f60026000196101006001881615020190951694909404938401819004810282018101909252828152606093909290918301828280156104d95780601f106104ae576101008083540402835291602001916104d9565b820191906000526020600020905b8154815290600101906020018083116104bc57829003601f168201915b505050505090505b90565b80516104f7906006906020840190610705565b5050565b6008805482919061ff00191661010083600281111561051657fe5b021790555050565b60045490565b60015473ffffffffffffffffffffffffffffffffffffffff1690565b60068054604080516020601f60026000196101006001881615020190951694909404938401819004810282018101909252828152606093909290918301828280156104d95780601f106104ae576101008083540402835291602001916104d9565b600080600680546001816001161561010002031660029004905011156105c9575060016104e1565b50600090565b42600455565b60075490565b600854610100900460ff1690565b60085460ff1690565b6008805482919060ff1916600183600281111561051657fe5b60025490565b60035490565b8073ffffffffffffffffffffffffffffffffffffffff1663893d20e86040518163ffffffff167c010000000000000000000000000000000000000000000000000000000002815260040160206040518083038186803b15801561067957600080fd5b505afa15801561068d573d6000803e3d6000fd5b505050506040513d60208110156106a357600080fd5b505160405173ffffffffffffffffffffffffffffffffffffffff90911690303180156108fc02916000818181858888f193505050501580156104f7573d6000803e3d6000fd5b60005473ffffffffffffffffffffffffffffffffffffffff1690565b828054600181600116156101000203166002900490600052602060002090601f016020900481019282601f1061074657805160ff1916838001178555610773565b82800160010185558215610773579182015b82811115610773578251825591602001919060010190610758565b5061077f929150610783565b5090565b6104e191905b8082111561077f576000815560010161078956fea165627a7a7230582033a6311fa73cfaee09abf278dee73bc2148da73f6658c6d2bc1524bbdf14e1180029",
  "source": "pragma solidity ^0.5.0;\r\n\r\nimport \"./Enums.sol\";\r\nimport \"./IActor.sol\";\r\n\r\ncontract IData {\r\n    \r\n    address payable private Target;\r\n    address payable private Mitigator;\r\n    \r\n    uint256 private DeadlineInterval;\r\n    uint256 private StartTime = now;\r\n    uint256 private EndTime;\r\n\t\r\n    string private ListOfAddresses;\r\n    string private Proof =\"\";\r\n    uint256 private OfferedFunds;\r\n\t\r\n    Enums.Rating private TargetRating;\r\n    Enums.Rating private MitigatorRating;\r\n    event ReceivedData(uint256 value);\r\n\r\n    constructor (address payable _Target,address payable _Mitigator, uint256 _Interval,string memory _ListOfAddresses,uint256 _OfferedFunds) \r\n    public\r\n    payable\r\n    {\r\n        Target = _Target;\r\n        Mitigator = _Mitigator;\r\n        DeadlineInterval = _Interval;\r\n        ListOfAddresses = _ListOfAddresses;\r\n        OfferedFunds = _OfferedFunds;\r\n    }\r\n    \r\n\tfunction() payable external {\r\n\t\temit ReceivedData(msg.value);\r\n\t}\r\n\t\r\n\tfunction transferFunds(address payable receiver) public {   \r\n        IActor(receiver).getOwner().transfer(address(this).balance);\r\n    }\r\n\t\r\n\tfunction getOfferedFunds() public view returns (uint256){return OfferedFunds;}\r\n\t\r\n\tfunction getListOfAddresses() public view returns (string memory){return ListOfAddresses;}\r\n\t\r\n    function getMitigator() public view returns (address payable){return Mitigator;}\r\n    function getTarget() public view returns (address payable){ return Target;}\r\n    \r\n    function getProof() public view returns (string memory){return Proof;}\r\n\tfunction isProofProvided() public view returns (bool){\r\n\t\tif(bytes(Proof).length>0){\r\n\t\t\treturn true;\r\n\t\t}\r\n\t\treturn false;\r\n\t}\r\n    function setProof(string memory _Proof) public {Proof = _Proof;}\r\n\r\n    function getTargetRating()  public view returns (Enums.Rating){return TargetRating;}\r\n    function getMitigatorRating()  public view returns (Enums.Rating){return MitigatorRating;}\r\n    \r\n    function setTargetRating(Enums.Rating _Rating) public {TargetRating = _Rating;}\r\n    function setMitigatorRating(Enums.Rating _Rating)  public {MitigatorRating = _Rating;}\r\n\t\r\n\tfunction setEndTime() public {EndTime=now;}\r\n    function getStartTime() public view returns (uint256){return StartTime;}\r\n\tfunction getEndTime() public view returns (uint256){return EndTime;}\r\n    function getDeadlineInterval() public view returns (uint256){return DeadlineInterval;}\r\n    \r\n\r\n}",
  "sourcePath": "C:\\Code\\Private\\CooperativeSignaling\\contracts\\IData.sol",
  "compiler": {
    "name": "solc",
    "version": "0.5.0+commit.1d4f565a.Emscripten.clang"
  },
  "schemaVersion": "3.0.1",
  "updatedAt": "2019-02-10T19:16:31.344Z",
  "devdoc": {
    "methods": {}
  },
  "userdoc": {
    "methods": {}
  }
}