{
  "contractName": "IData",
  "abi": [
    {
      "inputs": [
        {
          "name": "_Target",
          "type": "address"
        },
        {
          "name": "_Mitigator",
          "type": "address"
        },
        {
          "name": "_Interval",
          "type": "uint256"
        },
        {
          "name": "_ListOfAddresses",
          "type": "string"
        },
        {
          "name": "_OfferedFunds",
          "type": "uint256"
        }
      ],
      "payable": true,
      "stateMutability": "payable",
      "type": "constructor"
    },
    {
      "payable": true,
      "stateMutability": "payable",
      "type": "fallback"
    },
    {
      "anonymous": false,
      "inputs": [
        {
          "indexed": false,
          "name": "value",
          "type": "uint256"
        }
      ],
      "name": "ReceivedData",
      "type": "event"
    },
    {
      "constant": false,
      "inputs": [
        {
          "name": "receiver",
          "type": "address"
        }
      ],
      "name": "transferFunds",
      "outputs": [],
      "payable": false,
      "stateMutability": "nonpayable",
      "type": "function"
    },
    {
      "constant": true,
      "inputs": [],
      "name": "getOfferedFunds",
      "outputs": [
        {
          "name": "",
          "type": "uint256"
        }
      ],
      "payable": false,
      "stateMutability": "view",
      "type": "function"
    },
    {
      "constant": true,
      "inputs": [],
      "name": "getMitigator",
      "outputs": [
        {
          "name": "",
          "type": "address"
        }
      ],
      "payable": false,
      "stateMutability": "view",
      "type": "function"
    },
    {
      "constant": true,
      "inputs": [],
      "name": "getTarget",
      "outputs": [
        {
          "name": "",
          "type": "address"
        }
      ],
      "payable": false,
      "stateMutability": "view",
      "type": "function"
    },
    {
      "constant": true,
      "inputs": [],
      "name": "getProof",
      "outputs": [
        {
          "name": "",
          "type": "string"
        }
      ],
      "payable": false,
      "stateMutability": "view",
      "type": "function"
    },
    {
      "constant": true,
      "inputs": [],
      "name": "isProofProvided",
      "outputs": [
        {
          "name": "",
          "type": "bool"
        }
      ],
      "payable": false,
      "stateMutability": "view",
      "type": "function"
    },
    {
      "constant": false,
      "inputs": [
        {
          "name": "_Proof",
          "type": "string"
        }
      ],
      "name": "setProof",
      "outputs": [],
      "payable": false,
      "stateMutability": "nonpayable",
      "type": "function"
    },
    {
      "constant": true,
      "inputs": [],
      "name": "getTargetRating",
      "outputs": [
        {
          "name": "",
          "type": "uint8"
        }
      ],
      "payable": false,
      "stateMutability": "view",
      "type": "function"
    },
    {
      "constant": true,
      "inputs": [],
      "name": "getMitigatorRating",
      "outputs": [
        {
          "name": "",
          "type": "uint8"
        }
      ],
      "payable": false,
      "stateMutability": "view",
      "type": "function"
    },
    {
      "constant": false,
      "inputs": [
        {
          "name": "_Rating",
          "type": "uint8"
        }
      ],
      "name": "setTargetRating",
      "outputs": [],
      "payable": false,
      "stateMutability": "nonpayable",
      "type": "function"
    },
    {
      "constant": false,
      "inputs": [
        {
          "name": "_Rating",
          "type": "uint8"
        }
      ],
      "name": "setMitigatorRating",
      "outputs": [],
      "payable": false,
      "stateMutability": "nonpayable",
      "type": "function"
    },
    {
      "constant": true,
      "inputs": [],
      "name": "getStartTime",
      "outputs": [
        {
          "name": "",
          "type": "uint256"
        }
      ],
      "payable": false,
      "stateMutability": "view",
      "type": "function"
    },
    {
      "constant": true,
      "inputs": [],
      "name": "getEndTime",
      "outputs": [
        {
          "name": "",
          "type": "uint256"
        }
      ],
      "payable": false,
      "stateMutability": "view",
      "type": "function"
    },
    {
      "constant": true,
      "inputs": [],
      "name": "getDeadlineInterval",
      "outputs": [
        {
          "name": "",
          "type": "uint256"
        }
      ],
      "payable": false,
      "stateMutability": "view",
      "type": "function"
    }
  ],
  "bytecode": "0x4260035560a060408190526000608081905261001d916006916100fe565b5060405161083b38038061083b833981018060405260a081101561004057600080fd5b815160208301516040840151606085018051939592949193918301929164010000000081111561006f57600080fd5b8201602081018481111561008257600080fd5b815164010000000081118282018710171561009c57600080fd5b505060209182015160008054600160a060020a03808b16600160a060020a03199283161790925560018054928a16929091169190911790556002869055815191945092506100f091600591908501906100fe565b506007555061019992505050565b828054600181600116156101000203166002900490600052602060002090601f016020900481019282601f1061013f57805160ff191683800117855561016c565b8280016001018555821561016c579182015b8281111561016c578251825591602001919060010190610151565b5061017892915061017c565b5090565b61019691905b808211156101785760008155600101610182565b90565b610693806101a86000396000f3fe6080604052600436106100cf5763ffffffff7c010000000000000000000000000000000000000000000000000000000060003504166315336f8081146101045780631dc9b284146101b9578063439f5ac2146101e657806350b1be261461020d5780635c5d625e1461024b578063620ae1c7146102d55780638271bb35146102fe57806390f3213d146103135780639ed5b5021461034c578063a3bbb09014610361578063ae8921571461038e578063c828371e146103a3578063e39ff19f146103b8578063f00e6a2a146103f8575b6040805134815290517fe2bb324fa67410a9554929c8822a194d56941327668b8c7ceb61e7b3b2e016f49181900360200190a1005b34801561011057600080fd5b506101b76004803603602081101561012757600080fd5b81019060208101813564010000000081111561014257600080fd5b82018360208201111561015457600080fd5b8035906020019184600183028401116401000000008311171561017657600080fd5b91908080601f01602080910402602001604051908101604052809392919081815260200183838082843760009201919091525092955061040d945050505050565b005b3480156101c557600080fd5b506101b7600480360360208110156101dc57600080fd5b503560ff16610424565b3480156101f257600080fd5b506101fb610447565b60408051918252519081900360200190f35b34801561021957600080fd5b5061022261044e565b6040805173ffffffffffffffffffffffffffffffffffffffff9092168252519081900360200190f35b34801561025757600080fd5b5061026061046a565b6040805160208082528351818301528351919283929083019185019080838360005b8381101561029a578181015183820152602001610282565b50505050905090810190601f1680156102c75780820380516001836020036101000a031916815260200191505b509250505060405180910390f35b3480156102e157600080fd5b506102ea610500565b604080519115158252519081900360200190f35b34801561030a57600080fd5b506101fb61052e565b34801561031f57600080fd5b50610328610534565b6040518082600281111561033857fe5b60ff16815260200191505060405180910390f35b34801561035857600080fd5b50610328610542565b34801561036d57600080fd5b506101b76004803603602081101561038457600080fd5b503560ff1661054b565b34801561039a57600080fd5b506101fb610564565b3480156103af57600080fd5b506101fb61056a565b3480156103c457600080fd5b506101b7600480360360208110156103db57600080fd5b503573ffffffffffffffffffffffffffffffffffffffff16610570565b34801561040457600080fd5b506102226105b3565b80516104209060069060208401906105cf565b5050565b6008805482919061ff00191661010083600281111561043f57fe5b021790555050565b6004545b90565b60015473ffffffffffffffffffffffffffffffffffffffff1690565b60068054604080516020601f60026000196101006001881615020190951694909404938401819004810282018101909252828152606093909290918301828280156104f65780601f106104cb576101008083540402835291602001916104f6565b820191906000526020600020905b8154815290600101906020018083116104d957829003601f168201915b5050505050905090565b600080600680546001816001161561010002031660029004905011156105285750600161044b565b50600090565b60075490565b600854610100900460ff1690565b60085460ff1690565b6008805482919060ff1916600183600281111561043f57fe5b60025490565b60035490565b60405173ffffffffffffffffffffffffffffffffffffffff821690303180156108fc02916000818181858888f19350505050158015610420573d6000803e3d6000fd5b60005473ffffffffffffffffffffffffffffffffffffffff1690565b828054600181600116156101000203166002900490600052602060002090601f016020900481019282601f1061061057805160ff191683800117855561063d565b8280016001018555821561063d579182015b8281111561063d578251825591602001919060010190610622565b5061064992915061064d565b5090565b61044b91905b80821115610649576000815560010161065356fea165627a7a72305820980441a01835ddbcff9483538c626e519436c9b30027bae2d101dbd7c78942910029",
  "source": "pragma solidity ^0.5.0;\r\n\r\nimport \"./Enums.sol\";\r\n\r\ncontract IData {\r\n    \r\n    address payable private Target;\r\n    address payable private Mitigator;\r\n    \r\n    uint256 private DeadlineInterval;\r\n    uint256 private StartTime = now;\r\n    uint256 private EndTime;\r\n\t\r\n    string private ListOfAddresses;\r\n    string private Proof =\"\";\r\n    uint256 private OfferedFunds;\r\n\t\r\n    Enums.Rating private TargetRating;\r\n    Enums.Rating private MitigatorRating;\r\n    event ReceivedData(uint256 value);\r\n\r\n    constructor (address payable _Target,address payable _Mitigator, uint256 _Interval,string memory _ListOfAddresses,uint256 _OfferedFunds) \r\n    public\r\n    payable\r\n    {\r\n        Target = _Target;\r\n        Mitigator = _Mitigator;\r\n        DeadlineInterval = _Interval;\r\n        ListOfAddresses = _ListOfAddresses;\r\n        OfferedFunds = _OfferedFunds;\r\n    }\r\n    \r\n\tfunction() payable external {\r\n\t\temit ReceivedData(msg.value);\r\n\t}\r\n\t\r\n\tfunction transferFunds(address payable receiver) public {   \r\n        receiver.transfer(address(this).balance);\r\n    }\r\n\tfunction getOfferedFunds() public view returns (uint256){return OfferedFunds;}\r\n\t\r\n    function getMitigator() public view returns (address payable){return Mitigator;}\r\n    function getTarget() public view returns (address payable){ return Target;}\r\n    \r\n    function getProof() public view returns (string memory){return Proof;}\r\n\tfunction isProofProvided() public view returns (bool){\r\n\t\tif(bytes(Proof).length>0){\r\n\t\t\treturn true;\r\n\t\t}\r\n\t\treturn false;\r\n\t}\r\n    function setProof(string memory _Proof) public {Proof = _Proof;}\r\n\r\n    function getTargetRating()  public view returns (Enums.Rating){return TargetRating;}\r\n    function getMitigatorRating()  public view returns (Enums.Rating){return MitigatorRating;}\r\n    \r\n    function setTargetRating(Enums.Rating _Rating) public {TargetRating = _Rating;}\r\n    function setMitigatorRating(Enums.Rating _Rating)  public {MitigatorRating = _Rating;}\r\n\r\n    function getStartTime() public view returns (uint256){return StartTime;}\r\n\tfunction getEndTime() public view returns (uint256){return EndTime;}\r\n    function getDeadlineInterval() public view returns (uint256){return DeadlineInterval;}\r\n    \r\n\r\n}",
  "sourcePath": "C:\\Code\\Private\\CooperativeSignaling\\contracts\\IData.sol",
  "compiler": {
    "name": "solc",
    "version": "0.5.0+commit.1d4f565a.Emscripten.clang"
  },
  "schemaVersion": "3.0.1",
  "updatedAt": "2019-02-10T16:05:26.512Z",
  "devdoc": {
    "methods": {}
  },
  "userdoc": {
    "methods": {}
  }
}