{
  "contractName": "Mitigator",
  "abi": [
    {
      "inputs": [],
      "payable": false,
      "stateMutability": "nonpayable",
      "type": "constructor"
    },
    {
      "constant": false,
      "inputs": [
        {
          "name": "Receiver",
          "type": "address"
        }
      ],
      "name": "send",
      "outputs": [],
      "payable": true,
      "stateMutability": "payable",
      "type": "function"
    }
  ],
  "bytecode": "0x608060405234801561001057600080fd5b50336000806101000a81548173ffffffffffffffffffffffffffffffffffffffff021916908373ffffffffffffffffffffffffffffffffffffffff1602179055506101c4806100606000396000f3fe608060405260043610610041576000357c0100000000000000000000000000000000000000000000000000000000900463ffffffff1680633e58c58c14610046575b600080fd5b6100886004803603602081101561005c57600080fd5b81019080803573ffffffffffffffffffffffffffffffffffffffff16906020019092919050505061008a565b005b6000809054906101000a900473ffffffffffffffffffffffffffffffffffffffff1673ffffffffffffffffffffffffffffffffffffffff163373ffffffffffffffffffffffffffffffffffffffff1614151561014e576040517f08c379a00000000000000000000000000000000000000000000000000000000081526004018080602001828103825260138152602001807f53656e646572206973206e6f74204f776e65720000000000000000000000000081525060200191505060405180910390fd5b8073ffffffffffffffffffffffffffffffffffffffff166108fc349081150290604051600060405180830381858888f19350505050158015610194573d6000803e3d6000fd5b505056fea165627a7a723058201d7df891063a2f9ab4013c2d766575e32b810cb7f0c90df06afc883a5dff37120029",
  "source": "pragma solidity ^0.5.0;\r\n\r\ncontract Mitigator {\r\n\r\n    address Owner;\r\n\r\n    constructor() public{\r\n        Owner = msg.sender;\r\n    }\r\n\r\n    function send(address payable Receiver) public payable {\r\n        require(msg.sender==Owner,\"Sender is not Owner\");\r\n        Receiver.transfer(msg.value);\r\n    }\r\n}",
  "sourcePath": "C:/Users/Dominik Bünzli/Documents/GitHub/MBM/contracts/Mitigator.sol",
  "compiler": {
    "name": "solc",
    "version": "0.5.0+commit.1d4f565a.Emscripten.clang"
  },
  "schemaVersion": "3.0.1",
  "updatedAt": "2019-01-21T21:43:32.244Z",
  "devdoc": {
    "methods": {}
  },
  "userdoc": {
    "methods": {}
  }
}