{
  "contractName": "Process",
  "abi": [
    {
      "inputs": [],
      "payable": true,
      "stateMutability": "payable",
      "type": "constructor"
    },
    {
      "payable": true,
      "stateMutability": "payable",
      "type": "fallback"
    },
    {
      "anonymous": false,
      "inputs": [
        {
          "indexed": false,
          "name": "value",
          "type": "uint256"
        }
      ],
      "name": "ReceivedProcess",
      "type": "event"
    },
    {
      "constant": false,
      "inputs": [
        {
          "name": "_Target",
          "type": "address"
        },
        {
          "name": "_Mitigator",
          "type": "address"
        },
        {
          "name": "_Interval",
          "type": "uint256"
        },
        {
          "name": "_ListOfAddresses",
          "type": "string"
        },
        {
          "name": "_OfferedFunds",
          "type": "uint256"
        }
      ],
      "name": "init",
      "outputs": [],
      "payable": false,
      "stateMutability": "nonpayable",
      "type": "function"
    },
    {
      "constant": false,
      "inputs": [
        {
          "name": "descision",
          "type": "bool"
        }
      ],
      "name": "approve",
      "outputs": [],
      "payable": false,
      "stateMutability": "nonpayable",
      "type": "function"
    },
    {
      "constant": false,
      "inputs": [],
      "name": "sendFunds",
      "outputs": [],
      "payable": false,
      "stateMutability": "nonpayable",
      "type": "function"
    },
    {
      "constant": false,
      "inputs": [
        {
          "name": "value",
          "type": "string"
        }
      ],
      "name": "uploadProof",
      "outputs": [],
      "payable": false,
      "stateMutability": "nonpayable",
      "type": "function"
    },
    {
      "constant": false,
      "inputs": [
        {
          "name": "value",
          "type": "uint256"
        }
      ],
      "name": "rateByTarget",
      "outputs": [],
      "payable": false,
      "stateMutability": "nonpayable",
      "type": "function"
    },
    {
      "constant": false,
      "inputs": [
        {
          "name": "value",
          "type": "uint256"
        }
      ],
      "name": "rateByMitigator",
      "outputs": [],
      "payable": false,
      "stateMutability": "nonpayable",
      "type": "function"
    },
    {
      "constant": true,
      "inputs": [],
      "name": "getState",
      "outputs": [
        {
          "name": "",
          "type": "address"
        }
      ],
      "payable": false,
      "stateMutability": "view",
      "type": "function"
    },
    {
      "constant": true,
      "inputs": [],
      "name": "isFinished",
      "outputs": [
        {
          "name": "",
          "type": "bool"
        }
      ],
      "payable": false,
      "stateMutability": "view",
      "type": "function"
    },
    {
      "constant": true,
      "inputs": [],
      "name": "getData",
      "outputs": [
        {
          "name": "",
          "type": "address"
        }
      ],
      "payable": false,
      "stateMutability": "view",
      "type": "function"
    }
  ],
  "bytecode": "0x60806040526001805460a060020a60ff02191690556115b3806100236000396000f3fe6080604052600436106100985763ffffffff7c010000000000000000000000000000000000000000000000000000000060003504166309b67f8e81146100cd5780630a1b0034146100fb5780631865c57d146101255780632350e71a146101565780632f3b7958146101805780633bc5de301461023357806374f09bd0146102485780637b3529621461031d5780638d68cf5914610346575b6040805134815290517fb681f2e66431088ff7f54e86cad35d2f1437303f9459aa46ea86d2b5c2a5f41d9181900360200190a1005b3480156100d957600080fd5b506100f9600480360360208110156100f057600080fd5b5035151561035b565b005b34801561010757600080fd5b506100f96004803603602081101561011e57600080fd5b50356104c9565b34801561013157600080fd5b5061013a610656565b60408051600160a060020a039092168252519081900360200190f35b34801561016257600080fd5b506100f96004803603602081101561017957600080fd5b5035610665565b34801561018c57600080fd5b506100f9600480360360208110156101a357600080fd5b8101906020810181356401000000008111156101be57600080fd5b8201836020820111156101d057600080fd5b803590602001918460018302840111640100000000831117156101f257600080fd5b91908080601f01602080910402602001604051908101604052809392919081815260200183838082843760009201919091525092955061073f945050505050565b34801561023f57600080fd5b5061013a610878565b34801561025457600080fd5b506100f9600480360360a081101561026b57600080fd5b600160a060020a038235811692602081013590911691604082013591908101906080810160608201356401000000008111156102a657600080fd5b8201836020820111156102b857600080fd5b803590602001918460018302840111640100000000831117156102da57600080fd5b91908080601f0160208091040260200160405190810160405280939291908181526020018383808284376000920191909152509295505091359250610887915050565b34801561032957600080fd5b50610332610b88565b604080519115158252519081900360200190f35b34801561035257600080fd5b506100f9610ba9565b60008054604080517f972213ad00000000000000000000000000000000000000000000000000000000815284151560048201529051600160a060020a039092169263972213ad926024808401936020939083900390910190829087803b1580156103c457600080fd5b505af11580156103d8573d6000803e3d6000fd5b505050506040513d60208110156103ee57600080fd5b505060015460405160e160020a633652585502815273__StateFactory__________________________91636ca4b0aa91600291600160a060020a03169060040180835b60ff16815260200182600160a060020a0316600160a060020a031681526020019250505060206040518083038186803b15801561046e57600080fd5b505af4158015610482573d6000803e3d6000fd5b505050506040513d602081101561049857600080fd5b50516000805473ffffffffffffffffffffffffffffffffffffffff1916600160a060020a0390921691909117905550565b60008054604080517ffe0d94c1000000000000000000000000000000000000000000000000000000008152600481018590529051600160a060020a039092169263fe0d94c1926024808401936020939083900390910190829087803b15801561053157600080fd5b505af1158015610545573d6000803e3d6000fd5b505050506040513d602081101561055b57600080fd5b50506001546040805160e160020a633652585502815260066004820152600160a060020a0390921660248301525173__StateFactory__________________________91636ca4b0aa916044808301926020929190829003018186803b1580156105c457600080fd5b505af41580156105d8573d6000803e3d6000fd5b505050506040513d60208110156105ee57600080fd5b505160008054600160a060020a0390921673ffffffffffffffffffffffffffffffffffffffff19909216919091179055506001805474ff0000000000000000000000000000000000000000191674010000000000000000000000000000000000000000179055565b600054600160a060020a031690565b60008054604080517ffe0d94c1000000000000000000000000000000000000000000000000000000008152600481018590529051600160a060020a039092169263fe0d94c1926024808401936020939083900390910190829087803b1580156106cd57600080fd5b505af11580156106e1573d6000803e3d6000fd5b505050506040513d60208110156106f757600080fd5b505060015460405160e160020a633652585502815273__StateFactory__________________________91636ca4b0aa91600591600160a060020a0316906004018083610432565b600080546040517fbd590d7e000000000000000000000000000000000000000000000000000000008152602060048201818152855160248401528551600160a060020a039094169463bd590d7e948794929384936044019290860191908190849084905b838110156107bb5781810151838201526020016107a3565b50505050905090810190601f1680156107e85780820380516001836020036101000a031916815260200191505b5092505050602060405180830381600087803b15801561080757600080fd5b505af115801561081b573d6000803e3d6000fd5b505050506040513d602081101561083157600080fd5b505060015460405160e160020a633652585502815273__StateFactory__________________________91636ca4b0aa91600491600160a060020a03169082018083610432565b600154600160a060020a031690565b8484848484610894610d3c565b8086600160a060020a0316600160a060020a0316815260200185600160a060020a0316600160a060020a0316815260200184815260200180602001838152602001828103825284818151815260200191508051906020019080838360005b8381101561090a5781810151838201526020016108f2565b50505050905090810190601f1680156109375780820380516001836020036101000a031916815260200191505b509650505050505050604051809103906000f08015801561095c573d6000803e3d6000fd5b506001805473ffffffffffffffffffffffffffffffffffffffff1916600160a060020a0392831617908190556040805160e160020a633652585502815260006004820152919092166024820152905173__StateFactory__________________________91636ca4b0aa916044808301926020929190829003018186803b1580156109e657600080fd5b505af41580156109fa573d6000803e3d6000fd5b505050506040513d6020811015610a1057600080fd5b50516000805473ffffffffffffffffffffffffffffffffffffffff1916600160a060020a0392831617808255604080517f614619540000000000000000000000000000000000000000000000000000000081529051919093169263614619549260048083019360209390929083900390910190829087803b158015610a9457600080fd5b505af1158015610aa8573d6000803e3d6000fd5b505050506040513d6020811015610abe57600080fd5b5050600180546040805160e160020a63365258550281526004810193909352600160a060020a0390911660248301525173__StateFactory__________________________91636ca4b0aa916044808301926020929190829003018186803b158015610b2957600080fd5b505af4158015610b3d573d6000803e3d6000fd5b505050506040513d6020811015610b5357600080fd5b50516000805473ffffffffffffffffffffffffffffffffffffffff1916600160a060020a039092169190911790555050505050565b60015474010000000000000000000000000000000000000000900460ff1690565b600154604051600160a060020a0390911690303180156108fc02916000818181858888f19350505050158015610be3573d6000803e3d6000fd5b506000809054906101000a9004600160a060020a0316600160a060020a031663614619546040518163ffffffff167c0100000000000000000000000000000000000000000000000000000000028152600401602060405180830381600087803b158015610c4f57600080fd5b505af1158015610c63573d6000803e3d6000fd5b505050506040513d6020811015610c7957600080fd5b50506001546040805160e160020a633652585502815260036004820152600160a060020a0390921660248301525173__StateFactory__________________________91636ca4b0aa916044808301926020929190829003018186803b158015610ce257600080fd5b505af4158015610cf6573d6000803e3d6000fd5b505050506040513d6020811015610d0c57600080fd5b50516000805473ffffffffffffffffffffffffffffffffffffffff1916600160a060020a03909216919091179055565b60405161083b80610d4d8339019056fe4260035560a060408190526000608081905261001d916006916100fe565b5060405161083b38038061083b833981018060405260a081101561004057600080fd5b815160208301516040840151606085018051939592949193918301929164010000000081111561006f57600080fd5b8201602081018481111561008257600080fd5b815164010000000081118282018710171561009c57600080fd5b505060209182015160008054600160a060020a03808b16600160a060020a03199283161790925560018054928a16929091169190911790556002869055815191945092506100f091600591908501906100fe565b506007555061019992505050565b828054600181600116156101000203166002900490600052602060002090601f016020900481019282601f1061013f57805160ff191683800117855561016c565b8280016001018555821561016c579182015b8281111561016c578251825591602001919060010190610151565b5061017892915061017c565b5090565b61019691905b808211156101785760008155600101610182565b90565b610693806101a86000396000f3fe6080604052600436106100cf5763ffffffff7c010000000000000000000000000000000000000000000000000000000060003504166315336f8081146101045780631dc9b284146101b9578063439f5ac2146101e657806350b1be261461020d5780635c5d625e1461024b578063620ae1c7146102d55780638271bb35146102fe57806390f3213d146103135780639ed5b5021461034c578063a3bbb09014610361578063ae8921571461038e578063c828371e146103a3578063e39ff19f146103b8578063f00e6a2a146103f8575b6040805134815290517fe2bb324fa67410a9554929c8822a194d56941327668b8c7ceb61e7b3b2e016f49181900360200190a1005b34801561011057600080fd5b506101b76004803603602081101561012757600080fd5b81019060208101813564010000000081111561014257600080fd5b82018360208201111561015457600080fd5b8035906020019184600183028401116401000000008311171561017657600080fd5b91908080601f01602080910402602001604051908101604052809392919081815260200183838082843760009201919091525092955061040d945050505050565b005b3480156101c557600080fd5b506101b7600480360360208110156101dc57600080fd5b503560ff16610424565b3480156101f257600080fd5b506101fb610447565b60408051918252519081900360200190f35b34801561021957600080fd5b5061022261044e565b6040805173ffffffffffffffffffffffffffffffffffffffff9092168252519081900360200190f35b34801561025757600080fd5b5061026061046a565b6040805160208082528351818301528351919283929083019185019080838360005b8381101561029a578181015183820152602001610282565b50505050905090810190601f1680156102c75780820380516001836020036101000a031916815260200191505b509250505060405180910390f35b3480156102e157600080fd5b506102ea610500565b604080519115158252519081900360200190f35b34801561030a57600080fd5b506101fb61052e565b34801561031f57600080fd5b50610328610534565b6040518082600281111561033857fe5b60ff16815260200191505060405180910390f35b34801561035857600080fd5b50610328610542565b34801561036d57600080fd5b506101b76004803603602081101561038457600080fd5b503560ff1661054b565b34801561039a57600080fd5b506101fb610564565b3480156103af57600080fd5b506101fb61056a565b3480156103c457600080fd5b506101b7600480360360208110156103db57600080fd5b503573ffffffffffffffffffffffffffffffffffffffff16610570565b34801561040457600080fd5b506102226105b3565b80516104209060069060208401906105cf565b5050565b6008805482919061ff00191661010083600281111561043f57fe5b021790555050565b6004545b90565b60015473ffffffffffffffffffffffffffffffffffffffff1690565b60068054604080516020601f60026000196101006001881615020190951694909404938401819004810282018101909252828152606093909290918301828280156104f65780601f106104cb576101008083540402835291602001916104f6565b820191906000526020600020905b8154815290600101906020018083116104d957829003601f168201915b5050505050905090565b600080600680546001816001161561010002031660029004905011156105285750600161044b565b50600090565b60075490565b600854610100900460ff1690565b60085460ff1690565b6008805482919060ff1916600183600281111561043f57fe5b60025490565b60035490565b60405173ffffffffffffffffffffffffffffffffffffffff821690303180156108fc02916000818181858888f19350505050158015610420573d6000803e3d6000fd5b60005473ffffffffffffffffffffffffffffffffffffffff1690565b828054600181600116156101000203166002900490600052602060002090601f016020900481019282601f1061061057805160ff191683800117855561063d565b8280016001018555821561063d579182015b8281111561063d578251825591602001919060010190610622565b5061064992915061064d565b5090565b61044b91905b80821115610649576000815560010161065356fea165627a7a72305820980441a01835ddbcff9483538c626e519436c9b30027bae2d101dbd7c78942910029a165627a7a7230582021a66e17f456013be0a6743816bc50a7247adf2279ddef78eed7709b0e008c010029",
  "source": "pragma solidity ^0.5.0;\r\n\r\nimport \"./IData.sol\";\r\nimport \"./Enums.sol\";\r\nimport \"./IState.sol\";\r\nimport \"./StateFactory.sol\";\r\n\r\ncontract Process{\r\n    \r\n    IState private State;\r\n    IData Data;\r\n\tbool Finish = false;\r\n\tevent ReceivedProcess(uint256 value);\r\n\t\r\n    constructor() public payable{}\r\n    \r\n    function init(address payable _Target,address payable _Mitigator,uint256 _Interval,string memory _ListOfAddresses,uint256 _OfferedFunds) public{\r\n        Data = new IData(_Target,_Mitigator,_Interval,_ListOfAddresses,_OfferedFunds);\r\n\t\tState =StateFactory.create(Enums.StateType.REQUEST,address(Data));\r\n        State.execute();\r\n\t\tState =StateFactory.create(Enums.StateType.APPROVE,address(Data));\r\n    }\r\n    \r\n    function approve(bool descision) \r\n    public{\r\n        \r\n        State.execute(descision);\r\n\t\tState =StateFactory.create(Enums.StateType.FUNDING,address(Data));\r\n\t}\r\n    \r\n    function sendFunds() \r\n    public{\r\n\t\taddress(Data).transfer(address(this).balance);\r\n        State.execute();\r\n\t\tState = StateFactory.create(Enums.StateType.PROOF,address(Data));\r\n    }\r\n    \r\n    function uploadProof(string memory value) \r\n    public{\r\n        \r\n        State.execute(value);\r\n\t\tState =StateFactory.create(Enums.StateType.RATE_T,address(Data));\r\n    }\r\n    \r\n    function rateByTarget(uint256 value) \r\n    public{\r\n        \r\n        State.execute(value);\r\n\t\tState =StateFactory.create(Enums.StateType.RATE_M,address(Data));\r\n    }\r\n    \r\n    function rateByMitigator(uint256 value) \r\n    public{\r\n        \r\n        State.execute(value);\r\n\t\tState =StateFactory.create(Enums.StateType.EVALUATION,address(Data));\r\n\t\tFinish = true;\r\n    }\r\n    \r\n    function() payable external {\r\n\t\temit ReceivedProcess(msg.value);\r\n\t}\r\n    \r\n    function getState() \r\n    public view\r\n    returns (address){\r\n        return address(State);\r\n    }\r\n\t\r\n\tfunction isFinished() \r\n    public view\r\n    returns (bool){\r\n        return Finish;\r\n    }\r\n\t\r\n\tfunction getData() \r\n    public view\r\n    returns (address payable){\r\n        return address(Data);\r\n    }\r\n    \r\n}",
  "sourcePath": "C:\\Code\\Private\\CooperativeSignaling\\contracts\\Process.sol",
  "compiler": {
    "name": "solc",
    "version": "0.5.0+commit.1d4f565a.Emscripten.clang"
  },
  "schemaVersion": "3.0.1",
  "updatedAt": "2019-02-10T15:13:47.140Z",
  "devdoc": {
    "methods": {}
  },
  "userdoc": {
    "methods": {}
  }
}