{
  "contractName": "ProcessData",
  "abi": [
    {
      "inputs": [
        {
          "name": "_Target",
          "type": "address"
        },
        {
          "name": "_Mitigator",
          "type": "address"
        },
        {
          "name": "Interval",
          "type": "uint256"
        },
        {
          "name": "_OfferedFunds",
          "type": "uint256"
        },
        {
          "name": "_ListOfAddresses",
          "type": "string"
        }
      ],
      "payable": true,
      "stateMutability": "payable",
      "type": "constructor"
    },
    {
      "payable": true,
      "stateMutability": "payable",
      "type": "fallback"
    },
    {
      "anonymous": false,
      "inputs": [
        {
          "indexed": false,
          "name": "value",
          "type": "uint256"
        }
      ],
      "name": "Received",
      "type": "event"
    },
    {
      "constant": false,
      "inputs": [
        {
          "name": "receiver",
          "type": "address"
        }
      ],
      "name": "transferFunds",
      "outputs": [],
      "payable": false,
      "stateMutability": "nonpayable",
      "type": "function"
    },
    {
      "constant": true,
      "inputs": [],
      "name": "getNextActor",
      "outputs": [
        {
          "name": "",
          "type": "address"
        }
      ],
      "payable": false,
      "stateMutability": "view",
      "type": "function"
    },
    {
      "constant": true,
      "inputs": [],
      "name": "getTarget",
      "outputs": [
        {
          "name": "",
          "type": "address"
        }
      ],
      "payable": false,
      "stateMutability": "view",
      "type": "function"
    },
    {
      "constant": false,
      "inputs": [],
      "name": "executeEvaluation",
      "outputs": [],
      "payable": false,
      "stateMutability": "nonpayable",
      "type": "function"
    },
    {
      "constant": true,
      "inputs": [],
      "name": "getDeadline",
      "outputs": [
        {
          "name": "",
          "type": "uint256"
        }
      ],
      "payable": false,
      "stateMutability": "view",
      "type": "function"
    },
    {
      "constant": true,
      "inputs": [],
      "name": "getMitigator",
      "outputs": [
        {
          "name": "",
          "type": "address"
        }
      ],
      "payable": false,
      "stateMutability": "view",
      "type": "function"
    },
    {
      "constant": true,
      "inputs": [],
      "name": "getFunds",
      "outputs": [
        {
          "name": "",
          "type": "uint256"
        }
      ],
      "payable": false,
      "stateMutability": "view",
      "type": "function"
    },
    {
      "constant": true,
      "inputs": [],
      "name": "getOfferedFunds",
      "outputs": [
        {
          "name": "",
          "type": "uint256"
        }
      ],
      "payable": false,
      "stateMutability": "view",
      "type": "function"
    },
    {
      "constant": true,
      "inputs": [],
      "name": "getTargetRating",
      "outputs": [
        {
          "name": "",
          "type": "uint8"
        }
      ],
      "payable": false,
      "stateMutability": "view",
      "type": "function"
    },
    {
      "constant": true,
      "inputs": [],
      "name": "getMitigatorRating",
      "outputs": [
        {
          "name": "",
          "type": "uint8"
        }
      ],
      "payable": false,
      "stateMutability": "view",
      "type": "function"
    },
    {
      "constant": true,
      "inputs": [],
      "name": "getState",
      "outputs": [
        {
          "name": "",
          "type": "uint256"
        }
      ],
      "payable": false,
      "stateMutability": "view",
      "type": "function"
    },
    {
      "constant": true,
      "inputs": [],
      "name": "getProof",
      "outputs": [
        {
          "name": "",
          "type": "string"
        }
      ],
      "payable": false,
      "stateMutability": "view",
      "type": "function"
    },
    {
      "constant": true,
      "inputs": [],
      "name": "getStartTime",
      "outputs": [
        {
          "name": "",
          "type": "uint256"
        }
      ],
      "payable": false,
      "stateMutability": "view",
      "type": "function"
    },
    {
      "constant": true,
      "inputs": [],
      "name": "getStartAndEndTime",
      "outputs": [
        {
          "name": "",
          "type": "uint256"
        },
        {
          "name": "",
          "type": "uint256"
        }
      ],
      "payable": false,
      "stateMutability": "view",
      "type": "function"
    },
    {
      "constant": true,
      "inputs": [],
      "name": "getListOfAddresses",
      "outputs": [
        {
          "name": "",
          "type": "string"
        }
      ],
      "payable": false,
      "stateMutability": "view",
      "type": "function"
    },
    {
      "constant": false,
      "inputs": [
        {
          "name": "_State",
          "type": "uint8"
        }
      ],
      "name": "endProcess",
      "outputs": [],
      "payable": false,
      "stateMutability": "nonpayable",
      "type": "function"
    },
    {
      "constant": false,
      "inputs": [],
      "name": "advanceState",
      "outputs": [],
      "payable": false,
      "stateMutability": "nonpayable",
      "type": "function"
    },
    {
      "constant": false,
      "inputs": [
        {
          "name": "_Proof",
          "type": "string"
        }
      ],
      "name": "setProof",
      "outputs": [],
      "payable": false,
      "stateMutability": "nonpayable",
      "type": "function"
    },
    {
      "constant": false,
      "inputs": [
        {
          "name": "rating",
          "type": "uint8"
        }
      ],
      "name": "setTargetRating",
      "outputs": [],
      "payable": false,
      "stateMutability": "nonpayable",
      "type": "function"
    },
    {
      "constant": false,
      "inputs": [
        {
          "name": "rating",
          "type": "uint8"
        }
      ],
      "name": "setMitigatorRating",
      "outputs": [],
      "payable": false,
      "stateMutability": "nonpayable",
      "type": "function"
    },
    {
      "constant": true,
      "inputs": [],
      "name": "isProofProvided",
      "outputs": [
        {
          "name": "",
          "type": "bool"
        }
      ],
      "payable": false,
      "stateMutability": "view",
      "type": "function"
    }
  ],
  "bytecode": "0x60806040526000600455604051620012df380380620012df833981018060405260a08110156200002e57600080fd5b8151602083015160408401516060850151608086018051949693959294919392830192916401000000008111156200006557600080fd5b820160208101848111156200007957600080fd5b81516401000000008111828201871017156200009457600080fd5b50506003805433600160a060020a0319918216179091556004869055600080548216600160a060020a038b8116919091179091556001805483168a83161780825560028054919093169316929092179055426007556009805460ff1916909117905560058690558051909350620001159250600b9150602084019062000121565b505050505050620001c6565b828054600181600116156101000203166002900490600052602060002090601f016020900481019282601f106200016457805160ff191683800117855562000194565b8280016001018555821562000194579182015b828111156200019457825182559160200191906001019062000177565b50620001a2929150620001a6565b5090565b620001c391905b80821115620001a25760008155600101620001ad565b90565b61110980620001d66000396000f3fe6080604052600436106101035763ffffffff60e060020a60003504166311adbaad81146101b857806315336f80146102425780631865c57d146102f75780631b3e7c4b1461031e5780631dc9b2841461034f5780634d9b37351461037c57806350b1be26146103915780635c5d625e146103a65780635f8d96de146103bb578063620ae1c7146103d05780638271bb35146103f9578063841eb45a1461040e57806384ecdaf61461042357806390f3213d146104385780639b14949a146104715780639ed5b5021461049f578063a3bbb090146104b4578063aa2515d3146104e1578063c828371e1461050e578063e39ff19f14610523578063f00e6a2a14610556575b600454341015610183576040805160e560020a62461bcd02815260206004820152603760248201527f506c656173652070726f76696465206174206c65617374207468652066756e6460448201527f7320796f7520696e697469616c6c79206f666665726564000000000000000000606482015290519081900360840190fd5b6040805134815290517fa8142743f8f70a4c26f3691cf4ed59718381fb2f18070ec52be1f1022d8555579181900360200190a1005b3480156101c457600080fd5b506101cd61056b565b6040805160208082528351818301528351919283929083019185019080838360005b838110156102075781810151838201526020016101ef565b50505050905090810190601f1680156102345780820380516001836020036101000a031916815260200191505b509250505060405180910390f35b34801561024e57600080fd5b506102f56004803603602081101561026557600080fd5b81019060208101813564010000000081111561028057600080fd5b82018360208201111561029257600080fd5b803590602001918460018302840111640100000000831117156102b457600080fd5b91908080601f016020809104026020016040519081016040528093929190818152602001838380828437600092019190915250929550610602945050505050565b005b34801561030357600080fd5b5061030c6106fc565b60408051918252519081900360200190f35b34801561032a57600080fd5b50610333610715565b60408051600160a060020a039092168252519081900360200190f35b34801561035b57600080fd5b506102f56004803603602081101561037257600080fd5b503560ff16610724565b34801561038857600080fd5b5061030c6107ab565b34801561039d57600080fd5b506103336107b0565b3480156103b257600080fd5b506101cd6107bf565b3480156103c757600080fd5b5061030c610820565b3480156103dc57600080fd5b506103e5610826565b604080519115158252519081900360200190f35b34801561040557600080fd5b5061030c610854565b34801561041a57600080fd5b506102f561085a565b34801561042f57600080fd5b506102f5610b1b565b34801561044457600080fd5b5061044d610c8f565b6040518082600281111561045d57fe5b60ff16815260200191505060405180910390f35b34801561047d57600080fd5b50610486610c9d565b6040805192835260208301919091528051918290030190f35b3480156104ab57600080fd5b5061044d610d32565b3480156104c057600080fd5b506102f5600480360360208110156104d757600080fd5b503560ff16610d3b565b3480156104ed57600080fd5b506102f56004803603602081101561050457600080fd5b503560ff16610db8565b34801561051a57600080fd5b5061030c610ed4565b34801561052f57600080fd5b506102f56004803603602081101561054657600080fd5b5035600160a060020a0316610eda565b34801561056257600080fd5b50610333610fdd565b600b8054604080516020601f60026000196101006001881615020190951694909404938401819004810282018101909252828152606093909290918301828280156105f75780601f106105cc576101008083540402835291602001916105f7565b820191906000526020600020905b8154815290600101906020018083116105da57829003601f168201915b505050505090505b90565b600354600160a060020a03163314610666576040805160e560020a62461bcd02815260206004820152603360248201526000805160206110be833981519152604482015260008051602061109e833981519152606482015290519081900360840190fd5b80516000106106e5576040805160e560020a62461bcd02815260206004820152602a60248201527f456d70747920737472696e672063616e6e6f742062652061636365707465642060448201527f617320612070726f6f6600000000000000000000000000000000000000000000606482015290519081900360840190fd5b80516106f890600a906020840190611005565b5050565b60095460009060ff16600881111561071057fe5b905090565b600254600160a060020a031690565b600354600160a060020a03163314610788576040805160e560020a62461bcd02815260206004820152603360248201526000805160206110be833981519152604482015260008051602061109e833981519152606482015290519081900360840190fd5b600c805482919061ff0019166101008360028111156107a357fe5b021790555050565b303190565b600154600160a060020a031690565b600a8054604080516020601f60026000196101006001881615020190951694909404938401819004810282018101909252828152606093909290918301828280156105f75780601f106105cc576101008083540402835291602001916105f7565b60065490565b600080600a805460018160011615610100020316600290049050111561084e575060016105ff565b50600090565b60045490565b600354600160a060020a031633146108be576040805160e560020a62461bcd02815260206004820152603360248201526000805160206110be833981519152604482015260008051602061109e833981519152606482015290519081900360840190fd5b60008060006108cb610826565b1561098c5760008054600154604080517f67ec1e160000000000000000000000000000000000000000000000000000000081526004810194909452600160a060020a039283166024850152911660448301525173__EvaluationFactory_____________________916367ec1e16916064808301926020929190829003018186803b15801561095957600080fd5b505af415801561096d573d6000803e3d6000fd5b505050506040513d602081101561098357600080fd5b50519050610a45565b60005460018054604080517f67ec1e160000000000000000000000000000000000000000000000000000000081526004810193909352600160a060020a03938416602484015292166044820152905173__EvaluationFactory_____________________916367ec1e16916064808301926020929190829003018186803b158015610a1657600080fd5b505af4158015610a2a573d6000803e3d6000fd5b505050506040513d6020811015610a4057600080fd5b505190505b80600160a060020a0316639e39f364610a5c610d32565b610a64610c8f565b6040518363ffffffff1660e060020a02815260040180836002811115610a8657fe5b60ff168152602001826002811115610a9a57fe5b60ff16815260200192505050604080518083038186803b158015610abd57600080fd5b505afa158015610ad1573d6000803e3d6000fd5b505050506040513d6040811015610ae757600080fd5b5080516020909101519093509150600160a060020a03831615610b0d57610b0d83610eda565b610b1682610db8565b505050565b600354600160a060020a03163314610b7f576040805160e560020a62461bcd02815260206004820152603360248201526000805160206110be833981519152604482015260008051602061109e833981519152606482015290519081900360840190fd5b600260095460ff166008811115610b9257fe5b10610ba05760055442016006555b610ba8610fdd565b600160a060020a0316610bb9610715565b600160a060020a03161415610c0257610bd06107b0565b6002805473ffffffffffffffffffffffffffffffffffffffff1916600160a060020a0392909216919091179055610c38565b610c0a610fdd565b6002805473ffffffffffffffffffffffffffffffffffffffff1916600160a060020a03929092169190911790555b600560095460ff166008811115610c4b57fe5b1415610c5e57610c5961085a565b610c8d565b60095460009060ff166008811115610c7257fe5b6001019050610c8b816008811115610c8657fe5b610fec565b505b565b600c54610100900460ff1690565b6000806006610caa6106fc565b1015610d26576040805160e560020a62461bcd02815260206004820152602760248201527f50726f63657373206e6f7420636f6d706c657465642c206e6f20656e6474696d60448201527f6520676976656e00000000000000000000000000000000000000000000000000606482015290519081900360840190fd5b50506007546008549091565b600c5460ff1690565b600354600160a060020a03163314610d9f576040805160e560020a62461bcd02815260206004820152603360248201526000805160206110be833981519152604482015260008051602061109e833981519152606482015290519081900360840190fd5b600c805482919060ff191660018360028111156107a357fe5b600354600160a060020a03163314610e1c576040805160e560020a62461bcd02815260206004820152603360248201526000805160206110be833981519152604482015260008051602061109e833981519152606482015290519081900360840190fd5b6006816008811115610e2a57fe5b1015610e80576040805160e560020a62461bcd02815260206004820181905260248201527f4f6e6c7920616e6420656e64696e672073746174652063616e20626520736574604482015290519081900360640190fd5b6009805482919060ff19166001836008811115610e9957fe5b0217905550506000546002805473ffffffffffffffffffffffffffffffffffffffff1916600160a060020a0390921691909117905542600855565b60075490565b600354600160a060020a03163314610f3e576040805160e560020a62461bcd02815260206004820152603360248201526000805160206110be833981519152604482015260008051602061109e833981519152606482015290519081900360840190fd5b80600160a060020a031663893d20e86040518163ffffffff1660e060020a02815260040160206040518083038186803b158015610f7a57600080fd5b505afa158015610f8e573d6000803e3d6000fd5b505050506040513d6020811015610fa457600080fd5b5051604051600160a060020a0390911690303180156108fc02916000818181858888f193505050501580156106f8573d6000803e3d6000fd5b600054600160a060020a031690565b6009805482919060ff191660018360088111156107a357fe5b828054600181600116156101000203166002900490600052602060002090601f016020900481019282601f1061104657805160ff1916838001178555611073565b82800160010185558215611073579182015b82811115611073578251825591602001919060010190611058565b5061107f929150611083565b5090565b6105ff91905b8082111561107f576000815560010161108956fe746865206f776e696e6720636f6e747261637400000000000000000000000000416374696f6e2063616e206f6e6c7920626520706572666f726d656420627920a165627a7a723058208e44c066e7fa4942e72659a3ffbc4032aaad9c7cd463ecd9fcf9ccaabd1f9cb80029",
  "source": "pragma solidity ^0.5.0;\r\n\r\nimport \"./IActor.sol\";\r\nimport \"./EvaluationFactory.sol\";\r\nimport \"./Enums.sol\";\r\n\r\ncontract  ProcessData {\r\n\r\n    IActor Target;\r\n    IActor Mitigator;\r\n    IActor NextActor;\r\n\taddress private OwnedByContract;\r\n    uint256 private OfferedFunds = 0;\r\n    uint256 private DeadlineInterval;\r\n    uint256 private Deadline;\r\n\tuint256 private StartTime;\r\n\tuint256 private EndTime;\r\n\tevent Received(uint256 value);\r\n\t\r\n    Enums.State private CurrentState; \r\n    string private Proof;\r\n    string private ListOfAddresses;\r\n    Enums.Rating private TargetRating;\r\n    Enums.Rating private MitigatorRating;\r\n\t\r\n    constructor (address _Target,address _Mitigator,uint Interval,uint256 _OfferedFunds,string memory _ListOfAddresses) public payable\r\n    {\r\n\t\tOwnedByContract = msg.sender;\r\n        OfferedFunds = _OfferedFunds;\r\n        Target = IActor(_Target);\r\n        Mitigator = IActor(_Mitigator);\r\n        NextActor = Mitigator;\r\n\t\tStartTime = now;\r\n        CurrentState = Enums.State.APPROVE;\r\n        DeadlineInterval = Interval;\r\n        ListOfAddresses=_ListOfAddresses;\r\n    }\r\n    \r\n    function transferFunds(IActor receiver) public {   \r\n\t\trequire(msg.sender==OwnedByContract,\"Action can only be performed by the owning contract\");\r\n        receiver.getOwner().transfer(address(this).balance);\r\n    }\r\n    \r\n    function() payable external {\r\n\t\trequire(msg.value >= OfferedFunds,\"Please provide at least the funds you initially offered\");\r\n\t\temit Received(msg.value);\r\n\t}\r\n\t\r\n    function getNextActor() public view returns (IActor){\r\n        return NextActor;\r\n    }\r\n\r\n    function getTarget() public view returns (IActor){\r\n        return Target;\r\n    }\r\n\t\r\n\t//Method is used to Instantiate the evaluation and get the address of the fund receiver and the end state that needs to be set\r\n\tfunction executeEvaluation() public{\r\n\t\t\r\n\t\trequire(msg.sender==OwnedByContract,\"Action can only be performed by the owning contract\");\r\n\t\taddress actor;\r\n\t\tEnums.State stateToSet;\r\n\t\t\r\n\t\tIEvaluation _Evaluation;\r\n\t\t\r\n\t\tif(isProofProvided()){\r\n\t\t\t_Evaluation = EvaluationFactory.create(Enums.EvaluationType.WITHPROOF,address(Target),address(Mitigator));\r\n\t\t}else{\r\n\t\t\t_Evaluation = EvaluationFactory.create(Enums.EvaluationType.WITHOUTPROOF,address(Target),address(Mitigator));\r\n\t\t}\r\n\r\n        (actor,stateToSet) = _Evaluation.evaluate(getTargetRating(), getMitigatorRating());\r\n\t\t\r\n\t\tif(actor!=address(0)){\r\n\t\t\ttransferFunds(IActor(actor));\r\n\t\t}\r\n\t\tendProcess(stateToSet);\r\n    }\r\n    \r\n    function getDeadline() public view returns (uint){\r\n        return Deadline;\r\n    }\r\n\r\n    function getMitigator() public view returns (IActor){\r\n        return Mitigator;\r\n    }\r\n\r\n    function getFunds() public view returns (uint256){\r\n        return address(this).balance;\r\n    }\r\n    \r\n    function getOfferedFunds() public view returns (uint){\r\n        return OfferedFunds;\r\n    }\r\n    \r\n    function getTargetRating() public view returns (Enums.Rating){\r\n        return TargetRating;\r\n    }\r\n    \r\n    function getMitigatorRating() public view returns (Enums.Rating){\r\n        return MitigatorRating;\r\n    }\r\n    \r\n    function getState() public view returns (uint){\r\n        return uint(CurrentState);\r\n    }\r\n    \r\n    function getProof() public view returns (string memory){\r\n        return Proof;\r\n    }\r\n\t\r\n\tfunction getStartTime() public view returns (uint256){\r\n        return StartTime;\r\n    }\r\n\t\r\n\tfunction getStartAndEndTime() public view returns (uint256,uint256){\r\n\t\trequire(getState()>=uint(Enums.State.COMPLETE),\"Process not completed, no endtime given\");\r\n        return (StartTime,EndTime);\r\n    }\r\n    \r\n\tfunction getListOfAddresses() public view returns (string memory){\r\n        return ListOfAddresses;\r\n    }\r\n\t\r\n\t//Finalized the process, sets the Target as a NextActor and sets an ending state. Also the Endtime gets specified.\r\n\tfunction endProcess(Enums.State _State) public {\r\n\t\trequire(msg.sender==OwnedByContract,\"Action can only be performed by the owning contract\");\r\n\t\trequire(_State>=Enums.State.COMPLETE,\"Only and ending state can be set\");\r\n\t\tCurrentState = _State;\r\n\t\tNextActor = Target;\r\n\t\tEndTime= now;\r\n    }\r\n\r\n\t//Advances the current state, switches the NextActor, sets the next deadline and checks if the process needs to be finalized eventually\r\n\tfunction advanceState() public {\r\n\t\trequire(msg.sender==OwnedByContract,\"Action can only be performed by the owning contract\");\r\n\t\t\r\n\t\tif(CurrentState>=Enums.State.FUNDING){\r\n\t\t\tDeadline = (now+ (DeadlineInterval * 1 seconds));\r\n\t\t}\r\n\t\t\r\n\t\t//If the current next actor is target, the next actor after advancing should be the mitigator\r\n\t\tif(getNextActor()==getTarget()){\r\n\t\t\tNextActor = getMitigator();\r\n\t\t}else{\r\n\t\t\tNextActor = getTarget();\t\t\t\t\r\n\t\t}\r\n\t\t\r\n\t\tif(CurrentState == Enums.State.MRATE){\r\n\t\t\texecuteEvaluation();\r\n\t\t}else{\r\n\t\t\t//advance the state plus 1\r\n\t\t\tuint nextState = uint(CurrentState)+1;\r\n\t\t\tsetState(Enums.State(nextState));\r\n\t\t}\r\n\t}\r\n\t\r\n    function setProof(string memory _Proof) public{\r\n\t\trequire(msg.sender==OwnedByContract,\"Action can only be performed by the owning contract\");\r\n\t\trequire(bytes(_Proof).length > 0,\"Empty string cannot be accepted as a proof\");\r\n        Proof = _Proof;\r\n    }\r\n\t\r\n    function setState(Enums.State state) private{\r\n        CurrentState = state;\r\n    }\r\n    \r\n    function setTargetRating(Enums.Rating rating) public{\r\n\t\trequire(msg.sender==OwnedByContract,\"Action can only be performed by the owning contract\");\r\n        TargetRating = rating;\r\n    }\r\n    \r\n    function setMitigatorRating(Enums.Rating rating) public{\r\n\t\trequire(msg.sender==OwnedByContract,\"Action can only be performed by the owning contract\");\r\n        MitigatorRating = rating;\r\n    }\r\n    \r\n    function isProofProvided() public view returns(bool){\r\n        if(bytes(Proof).length >0){return true;}\r\n        return false;\r\n    }\r\n}\r\n",
  "sourcePath": "C:\\Code\\Private\\CooperativeSignaling\\contracts\\ProcessData.sol",
  "compiler": {
    "name": "solc",
    "version": "0.5.0+commit.1d4f565a.Emscripten.clang"
  },
  "schemaVersion": "3.0.1",
  "updatedAt": "2019-02-11T14:52:12.002Z",
  "devdoc": {
    "methods": {}
  },
  "userdoc": {
    "methods": {}
  }
}