{
  "contractName": "ProcessData",
  "abi": [
    {
      "inputs": [
        {
          "name": "_Target",
          "type": "address"
        },
        {
          "name": "_Mitigator",
          "type": "address"
        },
        {
          "name": "Interval",
          "type": "uint256"
        },
        {
          "name": "_PotentialFunds",
          "type": "uint256"
        },
        {
          "name": "_ListOfAddresses",
          "type": "string"
        }
      ],
      "payable": true,
      "stateMutability": "payable",
      "type": "constructor"
    },
    {
      "payable": true,
      "stateMutability": "payable",
      "type": "fallback"
    },
    {
      "constant": false,
      "inputs": [
        {
          "name": "amount",
          "type": "uint256"
        }
      ],
      "name": "receiveFunds",
      "outputs": [],
      "payable": true,
      "stateMutability": "payable",
      "type": "function"
    },
    {
      "constant": false,
      "inputs": [
        {
          "name": "receiver",
          "type": "address"
        }
      ],
      "name": "transferFunds",
      "outputs": [],
      "payable": false,
      "stateMutability": "nonpayable",
      "type": "function"
    },
    {
      "constant": true,
      "inputs": [],
      "name": "getAddress",
      "outputs": [
        {
          "name": "",
          "type": "address"
        }
      ],
      "payable": false,
      "stateMutability": "view",
      "type": "function"
    },
    {
      "constant": true,
      "inputs": [],
      "name": "getNextActor",
      "outputs": [
        {
          "name": "",
          "type": "address"
        }
      ],
      "payable": false,
      "stateMutability": "view",
      "type": "function"
    },
    {
      "constant": true,
      "inputs": [],
      "name": "getTarget",
      "outputs": [
        {
          "name": "",
          "type": "address"
        }
      ],
      "payable": false,
      "stateMutability": "view",
      "type": "function"
    },
    {
      "constant": true,
      "inputs": [],
      "name": "getDeadline",
      "outputs": [
        {
          "name": "",
          "type": "uint256"
        }
      ],
      "payable": false,
      "stateMutability": "view",
      "type": "function"
    },
    {
      "constant": true,
      "inputs": [],
      "name": "getMitigator",
      "outputs": [
        {
          "name": "",
          "type": "address"
        }
      ],
      "payable": false,
      "stateMutability": "view",
      "type": "function"
    },
    {
      "constant": true,
      "inputs": [],
      "name": "getFunds",
      "outputs": [
        {
          "name": "",
          "type": "uint256"
        }
      ],
      "payable": false,
      "stateMutability": "view",
      "type": "function"
    },
    {
      "constant": true,
      "inputs": [],
      "name": "getPotentialFunds",
      "outputs": [
        {
          "name": "",
          "type": "uint256"
        }
      ],
      "payable": false,
      "stateMutability": "view",
      "type": "function"
    },
    {
      "constant": true,
      "inputs": [],
      "name": "getTargetRating",
      "outputs": [
        {
          "name": "",
          "type": "uint8"
        }
      ],
      "payable": false,
      "stateMutability": "view",
      "type": "function"
    },
    {
      "constant": true,
      "inputs": [],
      "name": "getMitigatorRating",
      "outputs": [
        {
          "name": "",
          "type": "uint8"
        }
      ],
      "payable": false,
      "stateMutability": "view",
      "type": "function"
    },
    {
      "constant": true,
      "inputs": [],
      "name": "getState",
      "outputs": [
        {
          "name": "",
          "type": "uint256"
        }
      ],
      "payable": false,
      "stateMutability": "view",
      "type": "function"
    },
    {
      "constant": true,
      "inputs": [],
      "name": "getProof",
      "outputs": [
        {
          "name": "",
          "type": "string"
        }
      ],
      "payable": false,
      "stateMutability": "view",
      "type": "function"
    },
    {
      "constant": true,
      "inputs": [],
      "name": "getListOfAddresses",
      "outputs": [
        {
          "name": "",
          "type": "string"
        }
      ],
      "payable": false,
      "stateMutability": "view",
      "type": "function"
    },
    {
      "constant": false,
      "inputs": [],
      "name": "setNextDeadline",
      "outputs": [],
      "payable": false,
      "stateMutability": "nonpayable",
      "type": "function"
    },
    {
      "constant": false,
      "inputs": [
        {
          "name": "_NextActor",
          "type": "address"
        }
      ],
      "name": "setNextActor",
      "outputs": [],
      "payable": false,
      "stateMutability": "nonpayable",
      "type": "function"
    },
    {
      "constant": false,
      "inputs": [
        {
          "name": "_Proof",
          "type": "string"
        }
      ],
      "name": "setProof",
      "outputs": [],
      "payable": false,
      "stateMutability": "nonpayable",
      "type": "function"
    },
    {
      "constant": false,
      "inputs": [
        {
          "name": "state",
          "type": "uint8"
        }
      ],
      "name": "setState",
      "outputs": [],
      "payable": false,
      "stateMutability": "nonpayable",
      "type": "function"
    },
    {
      "constant": false,
      "inputs": [
        {
          "name": "rating",
          "type": "uint8"
        }
      ],
      "name": "setTargetRating",
      "outputs": [],
      "payable": false,
      "stateMutability": "nonpayable",
      "type": "function"
    },
    {
      "constant": false,
      "inputs": [
        {
          "name": "rating",
          "type": "uint8"
        }
      ],
      "name": "setMitigatorRating",
      "outputs": [],
      "payable": false,
      "stateMutability": "nonpayable",
      "type": "function"
    },
    {
      "constant": true,
      "inputs": [],
      "name": "isProofProvided",
      "outputs": [
        {
          "name": "",
          "type": "bool"
        }
      ],
      "payable": false,
      "stateMutability": "view",
      "type": "function"
    }
  ],
  "bytecode": "0x608060405260006003556000600455604051610a37380380610a37833981018060405260a081101561003057600080fd5b81516020830151604084015160608501516080860180519496939592949193928301929164010000000081111561006657600080fd5b8201602081018481111561007957600080fd5b815164010000000081118282018710171561009357600080fd5b5050600385905560008054600160a060020a038a8116600160a060020a031992831617909255600180548a8416908316178082556002805490931693169290921790556007805460ff1916909117905560058690558051909350610100925060099150602084019061010b565b5050505050506101a6565b828054600181600116156101000203166002900490600052602060002090601f016020900481019282601f1061014c57805160ff1916838001178555610179565b82800160010185558215610179579182015b8281111561017957825182559160200191906001019061015e565b50610185929150610189565b5090565b6101a391905b80821115610185576000815560010161018f565b90565b610882806101b56000396000f3fe60806040526004361061011c5763ffffffff7c010000000000000000000000000000000000000000000000000000000060003504166311adbaad811461011e57806315336f80146101a85780631865c57d1461025b5780631b3e7c4b146102825780631dc9b284146102b35780631ecb0434146102e057806338cc4831146102f55780634d9b3735146102e057806350b1be261461030a57806356de96db1461031f5780635c5d625e1461034c5780635f8d96de14610361578063620ae1c7146103765780638827e09b1461039f57806390f3213d146103bc5780639363d6f2146103f55780639ed5b5021461040a578063a3bbb0901461041f578063e39ff19f1461044c578063f00e6a2a1461047f578063f6e9178914610494575b005b34801561012a57600080fd5b506101336104c7565b6040805160208082528351818301528351919283929083019185019080838360005b8381101561016d578181015183820152602001610155565b50505050905090810190601f16801561019a5780820380516001836020036101000a031916815260200191505b509250505060405180910390f35b3480156101b457600080fd5b5061011c600480360360208110156101cb57600080fd5b8101906020810181356401000000008111156101e657600080fd5b8201836020820111156101f857600080fd5b8035906020019184600183028401116401000000008311171561021a57600080fd5b91908080601f01602080910402602001604051908101604052809392919081815260200183838082843760009201919091525092955061055e945050505050565b34801561026757600080fd5b50610270610575565b60408051918252519081900360200190f35b34801561028e57600080fd5b5061029761058e565b60408051600160a060020a039092168252519081900360200190f35b3480156102bf57600080fd5b5061011c600480360360208110156102d657600080fd5b503560ff1661059d565b3480156102ec57600080fd5b506102706105c0565b34801561030157600080fd5b506102976105c6565b34801561031657600080fd5b506102976105ca565b34801561032b57600080fd5b5061011c6004803603602081101561034257600080fd5b503560ff166105d9565b34801561035857600080fd5b506101336105f2565b34801561036d57600080fd5b50610270610653565b34801561038257600080fd5b5061038b610659565b604080519115158252519081900360200190f35b61011c600480360360208110156103b557600080fd5b5035610687565b3480156103c857600080fd5b506103d161068c565b604051808260028111156103e157fe5b60ff16815260200191505060405180910390f35b34801561040157600080fd5b5061011c61069a565b34801561041657600080fd5b506103d16106a4565b34801561042b57600080fd5b5061011c6004803603602081101561044257600080fd5b503560ff166106ad565b34801561045857600080fd5b5061011c6004803603602081101561046f57600080fd5b5035600160a060020a03166106c6565b34801561048b57600080fd5b50610297610780565b3480156104a057600080fd5b5061011c600480360360208110156104b757600080fd5b5035600160a060020a031661078f565b60098054604080516020601f60026000196101006001881615020190951694909404938401819004810282018101909252828152606093909290918301828280156105535780601f1061052857610100808354040283529160200191610553565b820191906000526020600020905b81548152906001019060200180831161053657829003601f168201915b505050505090505b90565b80516105719060089060208401906107be565b5050565b60075460009060ff16600881111561058957fe5b905090565b600254600160a060020a031690565b600a805482919061ff0019166101008360028111156105b857fe5b021790555050565b60045490565b3090565b600154600160a060020a031690565b6007805482919060ff191660018360088111156105b857fe5b60088054604080516020601f60026000196101006001881615020190951694909404938401819004810282018101909252828152606093909290918301828280156105535780601f1061052857610100808354040283529160200191610553565b60065490565b600080600880546001816001161561010002031660029004905011156106815750600161055b565b50600090565b600455565b600a54610100900460ff1690565b6005544201600655565b600a5460ff1690565b600a805482919060ff191660018360028111156105b857fe5b80600160a060020a031663893d20e86040518163ffffffff167c010000000000000000000000000000000000000000000000000000000002815260040160206040518083038186803b15801561071b57600080fd5b505afa15801561072f573d6000803e3d6000fd5b505050506040513d602081101561074557600080fd5b5051600454604051600160a060020a039092169181156108fc0291906000818181858888f19350505050158015610571573d6000803e3d6000fd5b600054600160a060020a031690565b6002805473ffffffffffffffffffffffffffffffffffffffff1916600160a060020a0392909216919091179055565b828054600181600116156101000203166002900490600052602060002090601f016020900481019282601f106107ff57805160ff191683800117855561082c565b8280016001018555821561082c579182015b8281111561082c578251825591602001919060010190610811565b5061083892915061083c565b5090565b61055b91905b80821115610838576000815560010161084256fea165627a7a72305820fbb71066aea02c054aa6929b647cafd5215dcee6cad9c32167c1b425d520d5370029",
  "source": "pragma solidity ^0.5.0;\r\n\r\nimport \"./IActor.sol\";\r\n\r\ncontract  ProcessData {\r\n\r\n    enum State {REQUEST,APPROVE,FUNDING,PROOF,TRATE,MRATE,COMPLETE,ABORT,ESCALATE}\r\n    enum Rating {REJ,NA,ACK}\r\n    \r\n    IActor Target;\r\n    IActor Mitigator;\r\n    IActor NextActor;\r\n    uint private PotentialFunds = 0;\r\n    uint private Funds = 0;\r\n    uint private DeadlineInterval;\r\n    uint private Deadline;\r\n    \r\n    State CurrentState; \r\n    string Proof;\r\n    string ListOfAddresses;\r\n    Rating TargetRating;\r\n    Rating MitigatorRating;\r\n\t\r\n    constructor (address _Target,address _Mitigator,uint Interval,uint256 _PotentialFunds,string memory _ListOfAddresses) public payable\r\n    {\r\n        PotentialFunds = _PotentialFunds;\r\n        Target = IActor(_Target);\r\n        Mitigator = IActor(_Mitigator);\r\n        NextActor = Mitigator;\r\n        CurrentState = State.APPROVE;\r\n        DeadlineInterval = Interval;\r\n        ListOfAddresses=_ListOfAddresses;\r\n    }\r\n\r\n    function receiveFunds(uint256 amount) public payable{    \r\n        Funds = amount;\r\n    }\r\n    \r\n    function transferFunds(IActor receiver) public {    \r\n        receiver.getOwner().transfer(Funds);\r\n    }\r\n    \r\n    function() payable external {}\r\n  \r\n    function getAddress() \r\n    public view\r\n    returns (address payable){\r\n        return address(this);\r\n    }\r\n    \r\n    function getNextActor() \r\n    public view\r\n    returns (IActor){\r\n        return NextActor;\r\n    }\r\n\r\n    function getTarget() \r\n    public view\r\n    returns (IActor){\r\n        return Target;\r\n    }\r\n    \r\n    function getDeadline() \r\n    public view\r\n    returns (uint){\r\n        return Deadline;\r\n    }\r\n\r\n    function getMitigator() \r\n    public view\r\n    returns (IActor){\r\n        return Mitigator;\r\n    }\r\n\r\n    function getFunds() \r\n    public view\r\n    returns (uint){\r\n        return Funds;\r\n    }\r\n    \r\n    function getPotentialFunds() \r\n    public view\r\n    returns (uint){\r\n        return Funds;\r\n    }\r\n    \r\n    function getTargetRating() \r\n    public view\r\n    returns (Rating){\r\n        return TargetRating;\r\n    }\r\n    \r\n    function getMitigatorRating() \r\n    public view\r\n    returns (Rating){\r\n        return MitigatorRating;\r\n    }\r\n    \r\n    function getState() \r\n    public view\r\n    returns (uint){\r\n        return uint(CurrentState);\r\n    }\r\n    \r\n    function getProof() \r\n    public view\r\n    returns (string memory){\r\n        return Proof;\r\n    }\r\n    \r\n\tfunction getListOfAddresses() \r\n    public view\r\n    returns (string memory){\r\n        return ListOfAddresses;\r\n    }\r\n\t\r\n    function setNextDeadline() \r\n    public {\r\n        Deadline = now+ (DeadlineInterval * 1 seconds);\r\n    }\r\n    \r\n    function setNextActor(IActor _NextActor) \r\n    public {\r\n        NextActor = _NextActor;\r\n    }\r\n\r\n    function setProof(string memory _Proof) \r\n    public{\r\n        Proof = _Proof;\r\n    }\r\n    \r\n    function setState(State state) \r\n    public{\r\n        CurrentState = state;\r\n    }\r\n    \r\n    function setTargetRating(Rating rating) \r\n    public{\r\n        TargetRating = rating;\r\n    }\r\n    \r\n    function setMitigatorRating(Rating rating) \r\n    public{\r\n        MitigatorRating = rating;\r\n    }\r\n    \r\n    function isProofProvided()\r\n    public view\r\n    returns(bool){\r\n        if(bytes(Proof).length >0){return true;}\r\n        return false;\r\n    }\r\n}\r\n",
  "sourcePath": "C:\\Code\\Private\\CooperativeSignaling\\contracts\\ProcessData.sol",
  "compiler": {
    "name": "solc",
    "version": "0.5.0+commit.1d4f565a.Emscripten.clang"
  },
  "schemaVersion": "3.0.1",
  "updatedAt": "2019-02-01T21:44:45.624Z",
  "devdoc": {
    "methods": {}
  },
  "userdoc": {
    "methods": {}
  }
}