{
  "contractName": "ProcessData",
  "abi": [
    {
      "inputs": [
        {
          "name": "_Target",
          "type": "address"
        },
        {
          "name": "_Mitigator",
          "type": "address"
        },
        {
          "name": "Interval",
          "type": "uint256"
        },
        {
          "name": "_OfferedFunds",
          "type": "uint256"
        },
        {
          "name": "_ListOfAddresses",
          "type": "string"
        }
      ],
      "payable": true,
      "stateMutability": "payable",
      "type": "constructor"
    },
    {
      "payable": true,
      "stateMutability": "payable",
      "type": "fallback"
    },
    {
      "anonymous": false,
      "inputs": [
        {
          "indexed": false,
          "name": "value",
          "type": "uint256"
        }
      ],
      "name": "Received",
      "type": "event"
    },
    {
      "constant": false,
      "inputs": [
        {
          "name": "receiver",
          "type": "address"
        }
      ],
      "name": "transferFunds",
      "outputs": [],
      "payable": false,
      "stateMutability": "nonpayable",
      "type": "function"
    },
    {
      "constant": true,
      "inputs": [],
      "name": "getAddress",
      "outputs": [
        {
          "name": "",
          "type": "address"
        }
      ],
      "payable": false,
      "stateMutability": "view",
      "type": "function"
    },
    {
      "constant": true,
      "inputs": [],
      "name": "getNextActor",
      "outputs": [
        {
          "name": "",
          "type": "address"
        }
      ],
      "payable": false,
      "stateMutability": "view",
      "type": "function"
    },
    {
      "constant": true,
      "inputs": [],
      "name": "getTarget",
      "outputs": [
        {
          "name": "",
          "type": "address"
        }
      ],
      "payable": false,
      "stateMutability": "view",
      "type": "function"
    },
    {
      "constant": false,
      "inputs": [],
      "name": "executeEvaluation",
      "outputs": [],
      "payable": false,
      "stateMutability": "nonpayable",
      "type": "function"
    },
    {
      "constant": true,
      "inputs": [],
      "name": "getDeadline",
      "outputs": [
        {
          "name": "",
          "type": "uint256"
        }
      ],
      "payable": false,
      "stateMutability": "view",
      "type": "function"
    },
    {
      "constant": true,
      "inputs": [],
      "name": "getMitigator",
      "outputs": [
        {
          "name": "",
          "type": "address"
        }
      ],
      "payable": false,
      "stateMutability": "view",
      "type": "function"
    },
    {
      "constant": true,
      "inputs": [],
      "name": "getFunds",
      "outputs": [
        {
          "name": "",
          "type": "uint256"
        }
      ],
      "payable": false,
      "stateMutability": "view",
      "type": "function"
    },
    {
      "constant": true,
      "inputs": [],
      "name": "getOfferedFunds",
      "outputs": [
        {
          "name": "",
          "type": "uint256"
        }
      ],
      "payable": false,
      "stateMutability": "view",
      "type": "function"
    },
    {
      "constant": true,
      "inputs": [],
      "name": "getTargetRating",
      "outputs": [
        {
          "name": "",
          "type": "uint8"
        }
      ],
      "payable": false,
      "stateMutability": "view",
      "type": "function"
    },
    {
      "constant": true,
      "inputs": [],
      "name": "getMitigatorRating",
      "outputs": [
        {
          "name": "",
          "type": "uint8"
        }
      ],
      "payable": false,
      "stateMutability": "view",
      "type": "function"
    },
    {
      "constant": true,
      "inputs": [],
      "name": "getState",
      "outputs": [
        {
          "name": "",
          "type": "uint256"
        }
      ],
      "payable": false,
      "stateMutability": "view",
      "type": "function"
    },
    {
      "constant": true,
      "inputs": [],
      "name": "getProof",
      "outputs": [
        {
          "name": "",
          "type": "string"
        }
      ],
      "payable": false,
      "stateMutability": "view",
      "type": "function"
    },
    {
      "constant": true,
      "inputs": [],
      "name": "getStartAndEndTime",
      "outputs": [
        {
          "name": "",
          "type": "uint256"
        },
        {
          "name": "",
          "type": "uint256"
        }
      ],
      "payable": false,
      "stateMutability": "view",
      "type": "function"
    },
    {
      "constant": true,
      "inputs": [],
      "name": "getListOfAddresses",
      "outputs": [
        {
          "name": "",
          "type": "string"
        }
      ],
      "payable": false,
      "stateMutability": "view",
      "type": "function"
    },
    {
      "constant": false,
      "inputs": [
        {
          "name": "_State",
          "type": "uint8"
        }
      ],
      "name": "endProcess",
      "outputs": [],
      "payable": false,
      "stateMutability": "nonpayable",
      "type": "function"
    },
    {
      "constant": false,
      "inputs": [
        {
          "name": "_Proof",
          "type": "string"
        }
      ],
      "name": "setProof",
      "outputs": [],
      "payable": false,
      "stateMutability": "nonpayable",
      "type": "function"
    },
    {
      "constant": false,
      "inputs": [],
      "name": "advanceState",
      "outputs": [],
      "payable": false,
      "stateMutability": "nonpayable",
      "type": "function"
    },
    {
      "constant": false,
      "inputs": [
        {
          "name": "rating",
          "type": "uint8"
        }
      ],
      "name": "setTargetRating",
      "outputs": [],
      "payable": false,
      "stateMutability": "nonpayable",
      "type": "function"
    },
    {
      "constant": false,
      "inputs": [
        {
          "name": "rating",
          "type": "uint8"
        }
      ],
      "name": "setMitigatorRating",
      "outputs": [],
      "payable": false,
      "stateMutability": "nonpayable",
      "type": "function"
    },
    {
      "constant": true,
      "inputs": [],
      "name": "isProofProvided",
      "outputs": [
        {
          "name": "",
          "type": "bool"
        }
      ],
      "payable": false,
      "stateMutability": "view",
      "type": "function"
    }
  ],
  "bytecode": "0x608060405260006004556040516200157c3803806200157c833981018060405260a08110156200002e57600080fd5b8151602083015160408401516060850151608086018051949693959294919392830192916401000000008111156200006557600080fd5b820160208101848111156200007957600080fd5b81516401000000008111828201871017156200009457600080fd5b50506003805433600160a060020a0319918216179091556004869055600080548216600160a060020a038b8116919091179091556001805483168a83161780825560028054919093169316929092179055426007556009805460ff1916909117905560058690558051909350620001159250600b9150602084019062000121565b505050505050620001c6565b828054600181600116156101000203166002900490600052602060002090601f016020900481019282601f106200016457805160ff191683800117855562000194565b8280016001018555821562000194579182015b828111156200019457825182559160200191906001019062000177565b50620001a2929150620001a6565b5090565b620001c391905b80821115620001a25760008155600101620001ad565b90565b6113a680620001d66000396000f3fe6080604052600436106101035763ffffffff60e060020a60003504166311adbaad81146101b857806315336f80146102425780631865c57d146102f75780631b3e7c4b1461031e5780631dc9b2841461034f57806338cc48311461037c5780634d9b37351461039157806350b1be26146103a65780635c5d625e146103bb5780635f8d96de146103d0578063620ae1c7146103e55780638271bb351461040e578063841eb45a1461042357806384ecdaf61461043857806390f3213d1461044d5780639b14949a146104865780639ed5b502146104b4578063a3bbb090146104c9578063aa2515d3146104f6578063e39ff19f14610523578063f00e6a2a14610556575b600454341015610183576040805160e560020a62461bcd02815260206004820152603760248201527f506c656173652070726f76696465206174206c65617374207468652066756e6460448201527f7320796f7520696e697469616c6c79206f666665726564000000000000000000606482015290519081900360840190fd5b6040805134815290517fa8142743f8f70a4c26f3691cf4ed59718381fb2f18070ec52be1f1022d8555579181900360200190a1005b3480156101c457600080fd5b506101cd61056b565b6040805160208082528351818301528351919283929083019185019080838360005b838110156102075781810151838201526020016101ef565b50505050905090810190601f1680156102345780820380516001836020036101000a031916815260200191505b509250505060405180910390f35b34801561024e57600080fd5b506102f56004803603602081101561026557600080fd5b81019060208101813564010000000081111561028057600080fd5b82018360208201111561029257600080fd5b803590602001918460018302840111640100000000831117156102b457600080fd5b91908080601f016020809104026020016040519081016040528093929190818152602001838380828437600092019190915250929550610602945050505050565b005b34801561030357600080fd5b5061030c6106fc565b60408051918252519081900360200190f35b34801561032a57600080fd5b50610333610715565b60408051600160a060020a039092168252519081900360200190f35b34801561035b57600080fd5b506102f56004803603602081101561037257600080fd5b503560ff16610724565b34801561038857600080fd5b506103336107ab565b34801561039d57600080fd5b5061030c6107af565b3480156103b257600080fd5b506103336107b4565b3480156103c757600080fd5b506101cd6107c3565b3480156103dc57600080fd5b5061030c610824565b3480156103f157600080fd5b506103fa61082a565b604080519115158252519081900360200190f35b34801561041a57600080fd5b5061030c610858565b34801561042f57600080fd5b506102f561085e565b34801561044457600080fd5b506102f5610b12565b34801561045957600080fd5b50610462610c7d565b6040518082600281111561047257fe5b60ff16815260200191505060405180910390f35b34801561049257600080fd5b5061049b610c8b565b6040805192835260208301919091528051918290030190f35b3480156104c057600080fd5b50610462610c95565b3480156104d557600080fd5b506102f5600480360360208110156104ec57600080fd5b503560ff16610c9e565b34801561050257600080fd5b506102f56004803603602081101561051957600080fd5b503560ff16610d1b565b34801561052f57600080fd5b506102f56004803603602081101561054657600080fd5b5035600160a060020a0316610d8f565b34801561056257600080fd5b50610333610eb6565b600b8054604080516020601f60026000196101006001881615020190951694909404938401819004810282018101909252828152606093909290918301828280156105f75780601f106105cc576101008083540402835291602001916105f7565b820191906000526020600020905b8154815290600101906020018083116105da57829003601f168201915b505050505090505b90565b600354600160a060020a03163314610666576040805160e560020a62461bcd028152602060048201526033602482015260008051602061135b833981519152604482015260008051602061133b833981519152606482015290519081900360840190fd5b80516000106106e5576040805160e560020a62461bcd02815260206004820152602a60248201527f456d70747920737472696e672063616e6e6f742062652061636365707465642060448201527f617320612070726f6f6600000000000000000000000000000000000000000000606482015290519081900360840190fd5b80516106f890600a906020840190610ede565b5050565b60095460009060ff16600881111561071057fe5b905090565b600254600160a060020a031690565b600354600160a060020a03163314610788576040805160e560020a62461bcd028152602060048201526033602482015260008051602061135b833981519152604482015260008051602061133b833981519152606482015290519081900360840190fd5b600c805482919061ff0019166101008360028111156107a357fe5b021790555050565b3090565b303190565b600154600160a060020a031690565b600a8054604080516020601f60026000196101006001881615020190951694909404938401819004810282018101909252828152606093909290918301828280156105f75780601f106105cc576101008083540402835291602001916105f7565b60065490565b600080600a8054600181600116156101000203166002900490501115610852575060016105ff565b50600090565b60045490565b600080600030600160a060020a03166338cc48316040518163ffffffff1660e060020a02815260040160206040518083038186803b15801561089f57600080fd5b505afa1580156108b3573d6000803e3d6000fd5b505050506040513d60208110156108c957600080fd5b5051600054604080517f38cc48310000000000000000000000000000000000000000000000000000000081529051600160a060020a03909216916338cc483191600480820192602092909190829003018186803b15801561092957600080fd5b505afa15801561093d573d6000803e3d6000fd5b505050506040513d602081101561095357600080fd5b5051600154604080517f38cc48310000000000000000000000000000000000000000000000000000000081529051600160a060020a03909216916338cc483191600480820192602092909190829003018186803b1580156109b357600080fd5b505afa1580156109c7573d6000803e3d6000fd5b505050506040513d60208110156109dd57600080fd5b50516109e7610f5c565b600160a060020a03938416815291831660208301529091166040808301919091525190819003606001906000f080158015610a26573d6000803e3d6000fd5b50905080600160a060020a03166353707b4c610a4061082a565b610a48610c95565b610a50610c7d565b6040518463ffffffff1660e060020a0281526004018084151515158152602001836002811115610a7c57fe5b60ff168152602001826002811115610a9057fe5b60ff1681526020019350505050604080518083038186803b158015610ab457600080fd5b505afa158015610ac8573d6000803e3d6000fd5b505050506040513d6040811015610ade57600080fd5b5080516020909101519093509150600160a060020a03831615610b0457610b0483610d8f565b610b0d82610d1b565b505050565b600354600160a060020a03163314610b76576040805160e560020a62461bcd028152602060048201526033602482015260008051602061135b833981519152604482015260008051602061133b833981519152606482015290519081900360840190fd5b600260095460ff166008811115610b8957fe5b10610b975760055442016006555b610b9f610eb6565b600160a060020a0316610bb0610715565b600160a060020a03161415610bf957610bc76107b4565b6002805473ffffffffffffffffffffffffffffffffffffffff1916600160a060020a0392909216919091179055610c2f565b610c01610eb6565b6002805473ffffffffffffffffffffffffffffffffffffffff1916600160a060020a03929092169190911790555b6005610c396106fc565b1415610c4c57610c4761085e565b610c7b565b60095460009060ff166008811115610c6057fe5b6001019050610c79816008811115610c7457fe5b610ec5565b505b565b600c54610100900460ff1690565b6007546008549091565b600c5460ff1690565b600354600160a060020a03163314610d02576040805160e560020a62461bcd028152602060048201526033602482015260008051602061135b833981519152604482015260008051602061133b833981519152606482015290519081900360840190fd5b600c805482919060ff191660018360028111156107a357fe5b600354600160a060020a03163314610d7f576040805160e560020a62461bcd028152602060048201526033602482015260008051602061135b833981519152604482015260008051602061133b833981519152606482015290519081900360840190fd5b610d8881610ec5565b5042600855565b600354600160a060020a03163314610e17576040805160e560020a62461bcd02815260206004820152603460248201527f46756e64732063616e206f6e6c79206265207472616e7366657272656420627960448201527f20746865206f776e696e6720636f6e7472616374000000000000000000000000606482015290519081900360840190fd5b80600160a060020a031663893d20e86040518163ffffffff1660e060020a02815260040160206040518083038186803b158015610e5357600080fd5b505afa158015610e67573d6000803e3d6000fd5b505050506040513d6020811015610e7d57600080fd5b5051604051600160a060020a0390911690303180156108fc02916000818181858888f193505050501580156106f8573d6000803e3d6000fd5b600054600160a060020a031690565b6009805482919060ff191660018360088111156107a357fe5b828054600181600116156101000203166002900490600052602060002090601f016020900481019282601f10610f1f57805160ff1916838001178555610f4c565b82800160010185558215610f4c579182015b82811115610f4c578251825591602001919060010190610f31565b50610f58929150610f6c565b5090565b6040516103b480610f8783390190565b6105ff91905b80821115610f585760008155600101610f7256fe608060405234801561001057600080fd5b506040516060806103b48339810180604052606081101561003057600080fd5b508051602082015160409092015160008054600160a060020a03938416600160a060020a03199182161790915560018054948416948216949094179093556002805492909116919092161790556103288061008c6000396000f3fe6080604052600436106100775763ffffffff7c01000000000000000000000000000000000000000000000000000000006000350416630b957629811461007c57806315f6c1341461007c578063349590c3146100ea578063415899f31461011f57806353707b4c1461014c5780638886181814610189575b600080fd5b34801561008857600080fd5b506100a96004803603602081101561009f57600080fd5b503560ff166101b6565b60405173ffffffffffffffffffffffffffffffffffffffff83168152602081018260088111156100d557fe5b60ff1681526020019250505060405180910390f35b3480156100f657600080fd5b506100a96004803603604081101561010d57600080fd5b5060ff813581169160200135166101fc565b34801561012b57600080fd5b506100a96004803603602081101561014257600080fd5b503560ff16610252565b34801561015857600080fd5b506100a96004803603606081101561016f57600080fd5b50803515159060ff60208201358116916040013516610297565b34801561019557600080fd5b506100a9600480360360208110156101ac57600080fd5b503560ff166102c4565b60008060028360028111156101c757fe5b14156101ef57505060025473ffffffffffffffffffffffffffffffffffffffff1660066101f7565b506000905060075b915091565b600080600284600281111561020d57fe5b14156102255761021c836101b6565b9150915061024b565b600084600281111561023357fe5b14156102425761021c83610252565b61021c836101b6565b9250929050565b600080600283600281111561026357fe5b141561027557506000905060086101f7565b505060015473ffffffffffffffffffffffffffffffffffffffff1660066101f7565b60008084156102b3576102aa84846101fc565b915091506102bc565b6102aa846102c4565b935093915050565b600080808360028111156102d457fe5b14156101ef57505060015473ffffffffffffffffffffffffffffffffffffffff1660066101f756fea165627a7a7230582089f6309960b8ce70341b9cf754dad47a61214fd2b26bcbdc8c02709894aa3dfd0029746865206f776e696e6720636f6e747261637400000000000000000000000000416374696f6e2063616e206f6e6c7920626520706572666f726d656420627920a165627a7a72305820007edf57b0a625029ee11a4b70b859d32c6743c8990c206ac7206561ea09a0340029",
  "source": "pragma solidity ^0.5.0;\r\n\r\nimport \"./IActor.sol\";\r\nimport \"./Evaluation.sol\";\r\nimport \"./Enums.sol\";\r\n\r\ncontract  ProcessData {\r\n\r\n    IActor Target;\r\n    IActor Mitigator;\r\n    IActor NextActor;\r\n\taddress private OwnedByContract;\r\n    uint private OfferedFunds = 0;\r\n    uint256 private DeadlineInterval;\r\n    uint256 private Deadline;\r\n\tuint256 private StartTime;\r\n\tuint256 private EndTime;\r\n\tevent Received(uint256 value);\r\n\t\r\n    Enums.State private CurrentState; \r\n    string private Proof;\r\n    string private ListOfAddresses;\r\n    Enums.Rating private TargetRating;\r\n    Enums.Rating private MitigatorRating;\r\n\t\r\n    constructor (address _Target,address _Mitigator,uint Interval,uint256 _OfferedFunds,string memory _ListOfAddresses) public payable\r\n    {\r\n\t\tOwnedByContract = msg.sender;\r\n        OfferedFunds = _OfferedFunds;\r\n        Target = IActor(_Target);\r\n        Mitigator = IActor(_Mitigator);\r\n        NextActor = Mitigator;\r\n\t\tStartTime = now;\r\n        CurrentState = Enums.State.APPROVE;\r\n        DeadlineInterval = Interval;\r\n        ListOfAddresses=_ListOfAddresses;\r\n    }\r\n    \r\n    function transferFunds(IActor receiver) public {   \r\n\t\trequire(msg.sender==OwnedByContract,\"Funds can only be transferred by the owning contract\");\r\n        receiver.getOwner().transfer(address(this).balance);\r\n    }\r\n    \r\n    function() payable external {\r\n\t\trequire(msg.value >= OfferedFunds,\"Please provide at least the funds you initially offered\");\r\n\t\temit Received(msg.value);\r\n\t}\r\n  \r\n    function getAddress() public view returns (address payable){\r\n        return address(this);\r\n    }\r\n    \r\n    function getNextActor() public view returns (IActor){\r\n        return NextActor;\r\n    }\r\n\r\n    function getTarget() public view returns (IActor){\r\n        return Target;\r\n    }\r\n\t\r\n\tfunction executeEvaluation() public{\r\n\t\taddress actor;\r\n\t\tEnums.State stateToSet;\r\n\t\tEvaluation _Evaluation = new Evaluation(this.getAddress(),Target.getAddress(),Mitigator.getAddress());\r\n\t\t\r\n        (actor,stateToSet) = _Evaluation.evaluate(isProofProvided(),getTargetRating(), getMitigatorRating());\r\n\t\t\r\n\t\tif(actor!=address(0)){\r\n\t\t\ttransferFunds(IActor(actor));\r\n\t\t}\r\n\t\tendProcess(stateToSet);\r\n    }\r\n    \r\n    function getDeadline() public view returns (uint){\r\n        return Deadline;\r\n    }\r\n\r\n    function getMitigator() public view returns (IActor){\r\n        return Mitigator;\r\n    }\r\n\r\n    function getFunds() public view returns (uint256){\r\n        return address(this).balance;\r\n    }\r\n    \r\n    function getOfferedFunds() public view returns (uint){\r\n        return OfferedFunds;\r\n    }\r\n    \r\n    function getTargetRating() public view returns (Enums.Rating){\r\n        return TargetRating;\r\n    }\r\n    \r\n    function getMitigatorRating() public view returns (Enums.Rating){\r\n        return MitigatorRating;\r\n    }\r\n    \r\n    function getState() public view returns (uint){\r\n        return uint(CurrentState);\r\n    }\r\n    \r\n    function getProof() public view returns (string memory){\r\n        return Proof;\r\n    }\r\n\t\r\n\tfunction getStartAndEndTime() public view returns (uint256,uint256){\r\n        return (StartTime,EndTime);\r\n    }\r\n    \r\n\tfunction getListOfAddresses() public view returns (string memory){\r\n        return ListOfAddresses;\r\n    }\r\n\t\r\n\tfunction endProcess(Enums.State _State) public {\r\n\t\trequire(msg.sender==OwnedByContract,\"Action can only be performed by the owning contract\");\r\n\t\tsetState(_State);\r\n\t\tEndTime= now;\r\n    }\r\n\r\n    function setProof(string memory _Proof) public{\r\n\t\trequire(msg.sender==OwnedByContract,\"Action can only be performed by the owning contract\");\r\n\t\trequire(bytes(_Proof).length > 0,\"Empty string cannot be accepted as a proof\");\r\n        Proof = _Proof;\r\n    }\r\n\t\r\n\tfunction advanceState() public {\r\n\t\trequire(msg.sender==OwnedByContract,\"Action can only be performed by the owning contract\");\r\n\t\t\r\n\t\tif(CurrentState>=Enums.State.FUNDING){\r\n\t\t\tDeadline = (now+ (DeadlineInterval * 1 seconds));\r\n\t\t}\r\n\t\t\r\n\t\t//If the current next actor is target, the next actor after advancing should be the mitigator\r\n\t\tif(getNextActor()==getTarget()){\r\n\t\t\tNextActor = getMitigator();\r\n\t\t}else{\r\n\t\t\tNextActor = getTarget();\t\t\t\t\r\n\t\t}\r\n\t\t\r\n\t\tif(getState() == uint(Enums.State.MRATE)){\r\n\t\t\texecuteEvaluation();\r\n\t\t}else{\r\n\t\t\t//advance the state plus 1\r\n\t\t\tuint nextState = uint(CurrentState)+1;\r\n\t\t\tsetState(Enums.State(nextState));\r\n\t\t}\r\n\t}\r\n    \r\n    function setState(Enums.State state) private{\r\n        CurrentState = state;\r\n    }\r\n    \r\n    function setTargetRating(Enums.Rating rating) public{\r\n\t\trequire(msg.sender==OwnedByContract,\"Action can only be performed by the owning contract\");\r\n        TargetRating = rating;\r\n    }\r\n    \r\n    function setMitigatorRating(Enums.Rating rating) public{\r\n\t\trequire(msg.sender==OwnedByContract,\"Action can only be performed by the owning contract\");\r\n        MitigatorRating = rating;\r\n    }\r\n    \r\n    function isProofProvided() public view returns(bool){\r\n        if(bytes(Proof).length >0){return true;}\r\n        return false;\r\n    }\r\n}\r\n",
  "sourcePath": "C:\\Code\\Private\\CooperativeSignaling\\contracts\\ProcessData.sol",
  "compiler": {
    "name": "solc",
    "version": "0.5.0+commit.1d4f565a.Emscripten.clang"
  },
  "schemaVersion": "3.0.1",
  "updatedAt": "2019-02-05T18:09:20.794Z",
  "devdoc": {
    "methods": {}
  },
  "userdoc": {
    "methods": {}
  }
}