{
  "contractName": "ProcessData",
  "abi": [
    {
      "inputs": [
        {
          "name": "_Target",
          "type": "address"
        },
        {
          "name": "_Mitigator",
          "type": "address"
        },
        {
          "name": "Interval",
          "type": "uint256"
        },
        {
          "name": "_OfferedFunds",
          "type": "uint256"
        },
        {
          "name": "_ListOfAddresses",
          "type": "string"
        }
      ],
      "payable": true,
      "stateMutability": "payable",
      "type": "constructor"
    },
    {
      "payable": true,
      "stateMutability": "payable",
      "type": "fallback"
    },
    {
      "anonymous": false,
      "inputs": [
        {
          "indexed": false,
          "name": "value",
          "type": "uint256"
        }
      ],
      "name": "Received",
      "type": "event"
    },
    {
      "constant": false,
      "inputs": [
        {
          "name": "receiver",
          "type": "address"
        }
      ],
      "name": "transferFunds",
      "outputs": [],
      "payable": false,
      "stateMutability": "nonpayable",
      "type": "function"
    },
    {
      "constant": true,
      "inputs": [],
      "name": "getAddress",
      "outputs": [
        {
          "name": "",
          "type": "address"
        }
      ],
      "payable": false,
      "stateMutability": "view",
      "type": "function"
    },
    {
      "constant": true,
      "inputs": [],
      "name": "getNextActor",
      "outputs": [
        {
          "name": "",
          "type": "address"
        }
      ],
      "payable": false,
      "stateMutability": "view",
      "type": "function"
    },
    {
      "constant": true,
      "inputs": [],
      "name": "getTarget",
      "outputs": [
        {
          "name": "",
          "type": "address"
        }
      ],
      "payable": false,
      "stateMutability": "view",
      "type": "function"
    },
    {
      "constant": false,
      "inputs": [],
      "name": "executeEvaluation",
      "outputs": [],
      "payable": false,
      "stateMutability": "nonpayable",
      "type": "function"
    },
    {
      "constant": true,
      "inputs": [],
      "name": "getDeadline",
      "outputs": [
        {
          "name": "",
          "type": "uint256"
        }
      ],
      "payable": false,
      "stateMutability": "view",
      "type": "function"
    },
    {
      "constant": true,
      "inputs": [],
      "name": "getMitigator",
      "outputs": [
        {
          "name": "",
          "type": "address"
        }
      ],
      "payable": false,
      "stateMutability": "view",
      "type": "function"
    },
    {
      "constant": true,
      "inputs": [],
      "name": "getFunds",
      "outputs": [
        {
          "name": "",
          "type": "uint256"
        }
      ],
      "payable": false,
      "stateMutability": "view",
      "type": "function"
    },
    {
      "constant": true,
      "inputs": [],
      "name": "getOfferedFunds",
      "outputs": [
        {
          "name": "",
          "type": "uint256"
        }
      ],
      "payable": false,
      "stateMutability": "view",
      "type": "function"
    },
    {
      "constant": true,
      "inputs": [],
      "name": "getTargetRating",
      "outputs": [
        {
          "name": "",
          "type": "uint8"
        }
      ],
      "payable": false,
      "stateMutability": "view",
      "type": "function"
    },
    {
      "constant": true,
      "inputs": [],
      "name": "getMitigatorRating",
      "outputs": [
        {
          "name": "",
          "type": "uint8"
        }
      ],
      "payable": false,
      "stateMutability": "view",
      "type": "function"
    },
    {
      "constant": true,
      "inputs": [],
      "name": "getState",
      "outputs": [
        {
          "name": "",
          "type": "uint256"
        }
      ],
      "payable": false,
      "stateMutability": "view",
      "type": "function"
    },
    {
      "constant": true,
      "inputs": [],
      "name": "getProof",
      "outputs": [
        {
          "name": "",
          "type": "string"
        }
      ],
      "payable": false,
      "stateMutability": "view",
      "type": "function"
    },
    {
      "constant": true,
      "inputs": [],
      "name": "getListOfAddresses",
      "outputs": [
        {
          "name": "",
          "type": "string"
        }
      ],
      "payable": false,
      "stateMutability": "view",
      "type": "function"
    },
    {
      "constant": false,
      "inputs": [],
      "name": "setNextDeadline",
      "outputs": [],
      "payable": false,
      "stateMutability": "nonpayable",
      "type": "function"
    },
    {
      "constant": false,
      "inputs": [
        {
          "name": "_NextActor",
          "type": "address"
        }
      ],
      "name": "setNextActor",
      "outputs": [],
      "payable": false,
      "stateMutability": "nonpayable",
      "type": "function"
    },
    {
      "constant": false,
      "inputs": [
        {
          "name": "_Proof",
          "type": "string"
        }
      ],
      "name": "setProof",
      "outputs": [],
      "payable": false,
      "stateMutability": "nonpayable",
      "type": "function"
    },
    {
      "constant": false,
      "inputs": [
        {
          "name": "state",
          "type": "uint8"
        }
      ],
      "name": "setState",
      "outputs": [],
      "payable": false,
      "stateMutability": "nonpayable",
      "type": "function"
    },
    {
      "constant": false,
      "inputs": [
        {
          "name": "rating",
          "type": "uint8"
        }
      ],
      "name": "setTargetRating",
      "outputs": [],
      "payable": false,
      "stateMutability": "nonpayable",
      "type": "function"
    },
    {
      "constant": false,
      "inputs": [
        {
          "name": "rating",
          "type": "uint8"
        }
      ],
      "name": "setMitigatorRating",
      "outputs": [],
      "payable": false,
      "stateMutability": "nonpayable",
      "type": "function"
    },
    {
      "constant": true,
      "inputs": [],
      "name": "isProofProvided",
      "outputs": [
        {
          "name": "",
          "type": "bool"
        }
      ],
      "payable": false,
      "stateMutability": "view",
      "type": "function"
    }
  ],
  "bytecode": "0x608060405260006004556040516200130938038062001309833981018060405260a081101561002d57600080fd5b81516020830151604084015160608501516080860180519496939592949193928301929164010000000081111561006357600080fd5b8201602081018481111561007657600080fd5b815164010000000081118282018710171561009057600080fd5b505060038054600160a060020a03199081163317909155600486905560008054600160a060020a038b811691841691909117909155600180548a83169084161790819055600280549093169116179055600780547401000000000000000000000000000000000000000060a060020a60ff0219909116179055600586905580519093506101269250600991506020840190610131565b5050505050506101cc565b828054600181600116156101000203166002900490600052602060002090601f016020900481019282601f1061017257805160ff191683800117855561019f565b8280016001018555821561019f579182015b8281111561019f578251825591602001919060010190610184565b506101ab9291506101af565b5090565b6101c991905b808211156101ab57600081556001016101b5565b90565b61112d80620001dc6000396000f3fe6080604052600436106101035763ffffffff60e060020a60003504166311adbaad81146101cf57806315336f80146102595780631865c57d1461030e5780631b3e7c4b146103355780631dc9b2841461036657806338cc4831146103935780634d9b3735146103a857806350b1be26146103bd57806356de96db146103d25780635c5d625e146103ff5780635f8d96de14610414578063620ae1c7146104295780638271bb3514610452578063841eb45a1461046757806390f3213d1461047c5780639363d6f2146104b55780639ed5b502146104ca578063a3bbb090146104df578063e39ff19f1461050c578063f00e6a2a1461053f578063f6e9178914610554575b60045434101561019a57604080517f08c379a000000000000000000000000000000000000000000000000000000000815260206004820152603760248201527f506c656173652070726f76696465206174206c65617374207468652066756e6460448201527f7320796f7520696e697469616c6c79206f666665726564000000000000000000606482015290519081900360840190fd5b6040805134815290517fa8142743f8f70a4c26f3691cf4ed59718381fb2f18070ec52be1f1022d8555579181900360200190a1005b3480156101db57600080fd5b506101e4610587565b6040805160208082528351818301528351919283929083019185019080838360005b8381101561021e578181015183820152602001610206565b50505050905090810190601f16801561024b5780820380516001836020036101000a031916815260200191505b509250505060405180910390f35b34801561026557600080fd5b5061030c6004803603602081101561027c57600080fd5b81019060208101813564010000000081111561029757600080fd5b8201836020820111156102a957600080fd5b803590602001918460018302840111640100000000831117156102cb57600080fd5b91908080601f01602080910402602001604051908101604052809392919081815260200183838082843760009201919091525092955061061e945050505050565b005b34801561031a57600080fd5b506103236106cb565b60408051918252519081900360200190f35b34801561034157600080fd5b5061034a6106fc565b60408051600160a060020a039092168252519081900360200190f35b34801561037257600080fd5b5061030c6004803603602081101561038957600080fd5b503560ff1661070b565b34801561039f57600080fd5b5061034a61072e565b3480156103b457600080fd5b50610323610732565b3480156103c957600080fd5b5061034a610737565b3480156103de57600080fd5b5061030c600480360360208110156103f557600080fd5b503560ff16610746565b34801561040b57600080fd5b506101e4610787565b34801561042057600080fd5b506103236107e8565b34801561043557600080fd5b5061043e6107ee565b604080519115158252519081900360200190f35b34801561045e57600080fd5b5061032361081c565b34801561047357600080fd5b5061030c610822565b34801561048857600080fd5b50610491610aef565b604051808260028111156104a157fe5b60ff16815260200191505060405180910390f35b3480156104c157600080fd5b5061030c610afd565b3480156104d657600080fd5b50610491610ba6565b3480156104eb57600080fd5b5061030c6004803603602081101561050257600080fd5b503560ff16610baf565b34801561051857600080fd5b5061030c6004803603602081101561052f57600080fd5b5035600160a060020a0316610bc8565b34801561054b57600080fd5b5061034a610c67565b34801561056057600080fd5b5061030c6004803603602081101561057757600080fd5b5035600160a060020a0316610c76565b60098054604080516020601f60026000196101006001881615020190951694909404938401819004810282018101909252828152606093909290918301828280156106135780601f106105e857610100808354040283529160200191610613565b820191906000526020600020905b8154815290600101906020018083116105f657829003601f168201915b505050505090505b90565b80516000106106b457604080517f08c379a000000000000000000000000000000000000000000000000000000000815260206004820152602a60248201527f456d70747920737472696e672063616e6e6f742062652061636365707465642060448201527f617320612070726f6f6600000000000000000000000000000000000000000000606482015290519081900360840190fd5b80516106c7906008906020840190610ca5565b5050565b60075460009074010000000000000000000000000000000000000000900460ff1660088111156106f757fe5b905090565b600254600160a060020a031690565b600a805482919061ff00191661010083600281111561072657fe5b021790555050565b3090565b303190565b600154600160a060020a031690565b6007805482919074ff000000000000000000000000000000000000000019167401000000000000000000000000000000000000000083600881111561072657fe5b60088054604080516020601f60026000196101006001881615020190951694909404938401819004810282018101909252828152606093909290918301828280156106135780601f106105e857610100808354040283529160200191610613565b60065490565b600080600880546001816001161561010002031660029004905011156108165750600161061b565b50600090565b60045490565b60008030600160a060020a03166338cc48316040518163ffffffff1660e060020a02815260040160206040518083038186803b15801561086157600080fd5b505afa158015610875573d6000803e3d6000fd5b505050506040513d602081101561088b57600080fd5b5051600054604080517f38cc48310000000000000000000000000000000000000000000000000000000081529051600160a060020a03909216916338cc483191600480820192602092909190829003018186803b1580156108eb57600080fd5b505afa1580156108ff573d6000803e3d6000fd5b505050506040513d602081101561091557600080fd5b5051600154604080517f38cc48310000000000000000000000000000000000000000000000000000000081529051600160a060020a03909216916338cc483191600480820192602092909190829003018186803b15801561097557600080fd5b505afa158015610989573d6000803e3d6000fd5b505050506040513d602081101561099f57600080fd5b50516109a9610d23565b600160a060020a03938416815291831660208301529091166040808301919091525190819003606001906000f0801580156109e8573d6000803e3d6000fd5b506007805473ffffffffffffffffffffffffffffffffffffffff1916600160a060020a039283161790819055166353707b4c610a226107ee565b610a2a610ba6565b610a32610aef565b6040518463ffffffff1660e060020a0281526004018084151515158152602001836002811115610a5e57fe5b60ff168152602001826002811115610a7257fe5b60ff1681526020019350505050604080518083038186803b158015610a9657600080fd5b505afa158015610aaa573d6000803e3d6000fd5b505050506040513d6040811015610ac057600080fd5b5080516020909101519092509050600160a060020a03821615610ae657610ae682610bc8565b6106c781610746565b600a54610100900460ff1690565b600354600160a060020a03163314610b9c57604080517f08c379a000000000000000000000000000000000000000000000000000000000815260206004820152603360248201527f416374696f6e2063616e206f6e6c7920626520706572666f726d65642062792060448201527f746865206f776e696e6720636f6e747261637400000000000000000000000000606482015290519081900360840190fd5b6005544201600655565b600a5460ff1690565b600a805482919060ff1916600183600281111561072657fe5b80600160a060020a031663893d20e86040518163ffffffff1660e060020a02815260040160206040518083038186803b158015610c0457600080fd5b505afa158015610c18573d6000803e3d6000fd5b505050506040513d6020811015610c2e57600080fd5b5051604051600160a060020a0390911690303180156108fc02916000818181858888f193505050501580156106c7573d6000803e3d6000fd5b600054600160a060020a031690565b6002805473ffffffffffffffffffffffffffffffffffffffff1916600160a060020a0392909216919091179055565b828054600181600116156101000203166002900490600052602060002090601f016020900481019282601f10610ce657805160ff1916838001178555610d13565b82800160010185558215610d13579182015b82811115610d13578251825591602001919060010190610cf8565b50610d1f929150610d33565b5090565b6040516103b480610d4e83390190565b61061b91905b80821115610d1f5760008155600101610d3956fe608060405234801561001057600080fd5b506040516060806103b48339810180604052606081101561003057600080fd5b508051602082015160409092015160008054600160a060020a03938416600160a060020a03199182161790915560018054948416948216949094179093556002805492909116919092161790556103288061008c6000396000f3fe6080604052600436106100775763ffffffff7c01000000000000000000000000000000000000000000000000000000006000350416630b957629811461007c57806315f6c1341461007c578063349590c3146100ea578063415899f31461011f57806353707b4c1461014c5780638886181814610189575b600080fd5b34801561008857600080fd5b506100a96004803603602081101561009f57600080fd5b503560ff166101b6565b60405173ffffffffffffffffffffffffffffffffffffffff83168152602081018260088111156100d557fe5b60ff1681526020019250505060405180910390f35b3480156100f657600080fd5b506100a96004803603604081101561010d57600080fd5b5060ff813581169160200135166101fc565b34801561012b57600080fd5b506100a96004803603602081101561014257600080fd5b503560ff16610252565b34801561015857600080fd5b506100a96004803603606081101561016f57600080fd5b50803515159060ff60208201358116916040013516610297565b34801561019557600080fd5b506100a9600480360360208110156101ac57600080fd5b503560ff166102c4565b60008060028360028111156101c757fe5b14156101ef57505060025473ffffffffffffffffffffffffffffffffffffffff1660066101f7565b506000905060075b915091565b600080600284600281111561020d57fe5b14156102255761021c836101b6565b9150915061024b565b600084600281111561023357fe5b14156102425761021c83610252565b61021c836101b6565b9250929050565b600080600283600281111561026357fe5b141561027557506000905060086101f7565b505060015473ffffffffffffffffffffffffffffffffffffffff1660066101f7565b60008084156102b3576102aa84846101fc565b915091506102bc565b6102aa846102c4565b935093915050565b600080808360028111156102d457fe5b14156101ef57505060015473ffffffffffffffffffffffffffffffffffffffff1660066101f756fea165627a7a7230582089f6309960b8ce70341b9cf754dad47a61214fd2b26bcbdc8c02709894aa3dfd0029a165627a7a7230582020f433005aab771a8800f3c84239153b83d52e5572060bd7bbc5ff9ad874181d0029",
  "source": "pragma solidity ^0.5.0;\r\n\r\nimport \"./IActor.sol\";\r\nimport \"./Evaluation.sol\";\r\nimport \"./Enums.sol\";\r\n\r\ncontract  ProcessData {\r\n\r\n    IActor Target;\r\n    IActor Mitigator;\r\n    IActor NextActor;\r\n\taddress private OwnedByContract;\r\n    uint private OfferedFunds = 0;\r\n    uint private DeadlineInterval;\r\n    uint private Deadline;\r\n    Evaluation private _Evaluation;\r\n\tevent Received(uint256 value);\r\n\t\r\n    Enums.State CurrentState; \r\n    string Proof;\r\n    string ListOfAddresses;\r\n    Enums.Rating TargetRating;\r\n    Enums.Rating MitigatorRating;\r\n\t\r\n    constructor (address _Target,address _Mitigator,uint Interval,uint256 _OfferedFunds,string memory _ListOfAddresses) public payable\r\n    {\r\n\t\tOwnedByContract = msg.sender;\r\n        OfferedFunds = _OfferedFunds;\r\n        Target = IActor(_Target);\r\n        Mitigator = IActor(_Mitigator);\r\n        NextActor = Mitigator;\r\n        CurrentState = Enums.State.APPROVE;\r\n        DeadlineInterval = Interval;\r\n        ListOfAddresses=_ListOfAddresses;\r\n    }\r\n    \r\n    function transferFunds(IActor receiver) public {   \r\n\t\t//require(msg.sender==OwnedByContract,\"Funds can only be transferred by the owning contract\");\r\n        receiver.getOwner().transfer(address(this).balance);\r\n    }\r\n    \r\n    function() payable external {\r\n\t\trequire(msg.value >= OfferedFunds,\"Please provide at least the funds you initially offered\");\r\n\t\temit Received(msg.value);\r\n\t}\r\n  \r\n    function getAddress() \r\n    public view\r\n    returns (address payable){\r\n        return address(this);\r\n    }\r\n    \r\n    function getNextActor() \r\n    public view\r\n    returns (IActor){\r\n        return NextActor;\r\n    }\r\n\r\n    function getTarget() \r\n    public view\r\n    returns (IActor){\r\n        return Target;\r\n    }\r\n\t\r\n\tfunction executeEvaluation() \r\n    public{\r\n\t\taddress actor;\r\n\t\tEnums.State stateToSet;\r\n\t\t_Evaluation = new Evaluation(this.getAddress(),Target.getAddress(),Mitigator.getAddress());\r\n\t\t\r\n        (actor,stateToSet) = _Evaluation.evaluate(isProofProvided(),getTargetRating(), getMitigatorRating());\r\n\t\t\r\n\t\tif(actor!=address(0)){\r\n\t\t\ttransferFunds(IActor(actor));\r\n\t\t}\r\n\t\tsetState(stateToSet);\r\n    }\r\n    \r\n    function getDeadline() \r\n    public view\r\n    returns (uint){\r\n        return Deadline;\r\n    }\r\n\r\n    function getMitigator() \r\n    public view\r\n    returns (IActor){\r\n        return Mitigator;\r\n    }\r\n\r\n    function getFunds() \r\n    public view\r\n    returns (uint256){\r\n        return address(this).balance;\r\n    }\r\n    \r\n    function getOfferedFunds() \r\n    public view\r\n    returns (uint){\r\n        return OfferedFunds;\r\n    }\r\n    \r\n    function getTargetRating() \r\n    public view\r\n    returns (Enums.Rating){\r\n        return TargetRating;\r\n    }\r\n    \r\n    function getMitigatorRating() \r\n    public view\r\n    returns (Enums.Rating){\r\n        return MitigatorRating;\r\n    }\r\n    \r\n    function getState() \r\n    public view\r\n    returns (uint){\r\n        return uint(CurrentState);\r\n    }\r\n    \r\n    function getProof() \r\n    public view\r\n    returns (string memory){\r\n        return Proof;\r\n    }\r\n    \r\n\tfunction getListOfAddresses() \r\n    public view\r\n    returns (string memory){\r\n        return ListOfAddresses;\r\n    }\r\n\t\r\n    function setNextDeadline() \r\n    public {\r\n\t\trequire(msg.sender==OwnedByContract,\"Action can only be performed by the owning contract\");\r\n        Deadline = now+ (DeadlineInterval * 1 seconds);\r\n    }\r\n    \r\n    function setNextActor(IActor _NextActor) \r\n    public {\r\n\t\t//require(msg.sender==OwnedByContract,\"Action can only be performed by the owning contract\");\r\n        NextActor = _NextActor;\r\n    }\r\n\r\n    function setProof(string memory _Proof) \r\n    public{\r\n\t\t//require(msg.sender==OwnedByContract,\"Action can only be performed by the owning contract\");\r\n\t\trequire(bytes(_Proof).length > 0,\"Empty string cannot be accepted as a proof\");\r\n        Proof = _Proof;\r\n    }\r\n    \r\n    function setState(Enums.State state) \r\n    public{\r\n\t\t//require(msg.sender==OwnedByContract,\"Action can only be performed by the owning contract\");\r\n        CurrentState = state;\r\n    }\r\n    \r\n    function setTargetRating(Enums.Rating rating) \r\n    public{\r\n\t\t//require(msg.sender==OwnedByContract,\"Action can only be performed by the owning contract\");\r\n        TargetRating = rating;\r\n    }\r\n    \r\n    function setMitigatorRating(Enums.Rating rating) \r\n    public{\r\n\t\t//require(msg.sender==OwnedByContract,\"Action can only be performed by the owning contract\");\r\n        MitigatorRating = rating;\r\n    }\r\n    \r\n    function isProofProvided()\r\n    public view\r\n    returns(bool){\r\n        if(bytes(Proof).length >0){return true;}\r\n        return false;\r\n    }\r\n}\r\n",
  "sourcePath": "C:\\Code\\Private\\CooperativeSignaling\\contracts\\ProcessData.sol",
  "compiler": {
    "name": "solc",
    "version": "0.5.0+commit.1d4f565a.Emscripten.clang"
  },
  "schemaVersion": "3.0.1",
  "updatedAt": "2019-02-03T15:57:54.374Z",
  "devdoc": {
    "methods": {}
  },
  "userdoc": {
    "methods": {}
  }
}