{
  "contractName": "Process",
  "abi": [
    {
      "inputs": [],
      "payable": true,
      "stateMutability": "payable",
      "type": "constructor"
    },
    {
      "payable": true,
      "stateMutability": "payable",
      "type": "fallback"
    },
    {
      "constant": false,
      "inputs": [
        {
          "name": "T",
          "type": "address"
        },
        {
          "name": "M",
          "type": "address"
        },
        {
          "name": "Interval",
          "type": "uint256"
        },
        {
          "name": "listOfAddresses",
          "type": "string"
        },
        {
          "name": "amountOfAddresses",
          "type": "uint256"
        }
      ],
      "name": "init",
      "outputs": [
        {
          "name": "",
          "type": "address"
        }
      ],
      "payable": false,
      "stateMutability": "nonpayable",
      "type": "function"
    },
    {
      "constant": false,
      "inputs": [
        {
          "name": "descision",
          "type": "bool"
        }
      ],
      "name": "approve",
      "outputs": [],
      "payable": false,
      "stateMutability": "nonpayable",
      "type": "function"
    },
    {
      "constant": false,
      "inputs": [],
      "name": "sendFunds",
      "outputs": [],
      "payable": false,
      "stateMutability": "nonpayable",
      "type": "function"
    },
    {
      "constant": false,
      "inputs": [
        {
          "name": "value",
          "type": "string"
        }
      ],
      "name": "uploadProof",
      "outputs": [],
      "payable": false,
      "stateMutability": "nonpayable",
      "type": "function"
    },
    {
      "constant": false,
      "inputs": [
        {
          "name": "value",
          "type": "uint256"
        }
      ],
      "name": "rateByTarget",
      "outputs": [],
      "payable": false,
      "stateMutability": "nonpayable",
      "type": "function"
    },
    {
      "constant": false,
      "inputs": [
        {
          "name": "value",
          "type": "uint256"
        }
      ],
      "name": "rateByMitigator",
      "outputs": [],
      "payable": false,
      "stateMutability": "nonpayable",
      "type": "function"
    },
    {
      "constant": true,
      "inputs": [],
      "name": "getState",
      "outputs": [
        {
          "name": "",
          "type": "address"
        }
      ],
      "payable": false,
      "stateMutability": "view",
      "type": "function"
    }
  ],
  "bytecode": "0x6080604052614663806100136000396000f3fe6080604052600436106200008a5763ffffffff7c010000000000000000000000000000000000000000000000000000000060003504166309b67f8e81146200008c5780630a1b003414620000b15780631865c57d14620000d65780632350e71a14620001065780632f3b7958146200012b57806374f09bd014620001505780638d68cf591462000184575b005b3480156200009957600080fd5b506200008a620000ab366004620008b6565b6200019c565b348015620000be57600080fd5b506200008a620000d036600462000918565b6200028d565b348015620000e357600080fd5b50620000ee6200030f565b604051620000fd919062000a29565b60405180910390f35b3480156200011357600080fd5b506200008a6200012536600462000918565b6200031e565b3480156200013857600080fd5b506200008a6200014a366004620008df565b620003b5565b3480156200015d57600080fd5b50620001756200016f3660046200081d565b6200044c565b604051620000fd9190620009a6565b3480156200019157600080fd5b506200008a620005f8565b6000546040517f972213ad000000000000000000000000000000000000000000000000000000008152600160a060020a039091169063972213ad90620001e790849060040162000a19565b600060405180830381600087803b1580156200020257600080fd5b505af115801562000217573d6000803e3d6000fd5b5050600154600160a060020a0316915062000233905062000719565b6200023f9190620009a6565b604051809103906000f0801580156200025c573d6000803e3d6000fd5b506000805473ffffffffffffffffffffffffffffffffffffffff1916600160a060020a039290921691909117905550565b6000546040517ffe0d94c1000000000000000000000000000000000000000000000000000000008152600160a060020a039091169063fe0d94c190620002d890849060040162000a4c565b600060405180830381600087803b158015620002f357600080fd5b505af115801562000308573d6000803e3d6000fd5b5050505050565b600054600160a060020a031690565b6000546040517ffe0d94c1000000000000000000000000000000000000000000000000000000008152600160a060020a039091169063fe0d94c1906200036990849060040162000a4c565b600060405180830381600087803b1580156200038457600080fd5b505af115801562000399573d6000803e3d6000fd5b5050600154600160a060020a031691506200023390506200072a565b6000546040517fbd590d7e000000000000000000000000000000000000000000000000000000008152600160a060020a039091169063bd590d7e906200040090849060040162000a39565b600060405180830381600087803b1580156200041b57600080fd5b505af115801562000430573d6000803e3d6000fd5b5050600154600160a060020a031691506200023390506200073b565b600085858585856200045d6200074c565b6200046d959493929190620009bc565b604051809103906000f0801580156200048a573d6000803e3d6000fd5b506001805473ffffffffffffffffffffffffffffffffffffffff1916600160a060020a03928316179081905516620004c16200075d565b620004cd9190620009a6565b604051809103906000f080158015620004ea573d6000803e3d6000fd5b506000805473ffffffffffffffffffffffffffffffffffffffff1916600160a060020a0392831617808255604080517f6146195400000000000000000000000000000000000000000000000000000000815290519190931692636146195492600480830193919282900301818387803b1580156200056757600080fd5b505af11580156200057c573d6000803e3d6000fd5b5050600154600160a060020a031691506200059890506200076e565b620005a49190620009a6565b604051809103906000f080158015620005c1573d6000803e3d6000fd5b506000805473ffffffffffffffffffffffffffffffffffffffff1916600160a060020a039290921691909117905595945050505050565b600154604051600160a060020a0390911690303180156108fc02916000818181858888f1935050505015801562000633573d6000803e3d6000fd5b5060008054604080517f614619540000000000000000000000000000000000000000000000000000000081529051600160a060020a039092169263614619549260048084019382900301818387803b1580156200068f57600080fd5b505af1158015620006a4573d6000803e3d6000fd5b5050600154600160a060020a03169150620006c090506200077f565b620006cc9190620009a6565b604051809103906000f080158015620006e9573d6000803e3d6000fd5b506000805473ffffffffffffffffffffffffffffffffffffffff1916600160a060020a0392909216919091179055565b6040516108158062000b2983390190565b60405161085c806200133e83390190565b60405161085c8062001b9a83390190565b604051610a2e80620023f683390190565b60405161075e8062002e2483390190565b6040516107e8806200358283390190565b6040516108c08062003d6a83390190565b60006200079e823562000ab1565b9392505050565b60006200079e823562000abe565b6000601f82018313620007c557600080fd5b8135620007dc620007d68262000a84565b62000a5c565b91508082526020830160208301858383011115620007f957600080fd5b6200080683828462000adf565b50505092915050565b60006200079e823562000acf565b600080600080600060a086880312156200083657600080fd5b600062000844888862000790565b9550506020620008578882890162000790565b94505060406200086a888289016200080f565b935050606086013567ffffffffffffffff8111156200088857600080fd5b6200089688828901620007b3565b9250506080620008a9888289016200080f565b9150509295509295909350565b600060208284031215620008c957600080fd5b6000620008d78484620007a5565b949350505050565b600060208284031215620008f257600080fd5b813567ffffffffffffffff8111156200090a57600080fd5b620008d784828501620007b3565b6000602082840312156200092b57600080fd5b6000620008d784846200080f565b620009448162000ab1565b82525050565b620009448162000abe565b620009448162000ad2565b60006200096d8262000aad565b8084526200098381602086016020860162000aeb565b6200098e8162000b1e565b9093016020019392505050565b620009448162000acf565b60208101620009b6828462000939565b92915050565b60a08101620009cc828862000939565b620009db602083018762000939565b620009ea60408301866200099b565b8181036060830152620009fe818562000960565b905062000a0f60808301846200099b565b9695505050505050565b60208101620009b682846200094a565b60208101620009b6828462000955565b602080825281016200079e818462000960565b60208101620009b682846200099b565b60405181810167ffffffffffffffff8111828210171562000a7c57600080fd5b604052919050565b600067ffffffffffffffff82111562000a9c57600080fd5b506020601f91909101601f19160190565b5190565b6000620009b68262000ac3565b151590565b600160a060020a031690565b90565b6000620009b68262000ab1565b82818337506000910152565b60005b8381101562000b0857818101518382015260200162000aee565b8381111562000b18576000848401525b50505050565b601f01601f19169056fe60c0604052600660808190527f495374617465000000000000000000000000000000000000000000000000000060a090815261003e91600191906100c9565b506040805180820190915260078082527f46756e64696e67000000000000000000000000000000000000000000000000006020909201918252610083916002916100c9565b50604051602080610815833981018060405260208110156100a357600080fd5b505160008054600160a060020a031916600160a060020a03909216919091179055610164565b828054600181600116156101000203166002900490600052602060002090601f016020900481019282601f1061010a57805160ff1916838001178555610137565b82800160010185558215610137579182015b8281111561013757825182559160200191906001019061011c565b50610143929150610147565b5090565b61016191905b80821115610143576000815560010161014d565b90565b6106a2806101736000396000f3fe6080604052600436106100745763ffffffff60e060020a60003504166307918ec5811461007957806317d7de7c1461010357806325e3926e1461011857806361461954146101415780637bb3ad9b14610158578063972213ad14610196578063bd590d7e146101c2578063fe0d94c114610275575b600080fd5b34801561008557600080fd5b5061008e61029f565b6040805160208082528351818301528351919283929083019185019080838360005b838110156100c85781810151838201526020016100b0565b50505050905090810190601f1680156100f55780820380516001836020036101000a031916815260200191505b509250505060405180910390f35b34801561010f57600080fd5b5061008e61032a565b34801561012457600080fd5b5061012d6103c0565b604080519115158252519081900360200190f35b34801561014d57600080fd5b506101566104fb565b005b34801561016457600080fd5b5061016d610572565b6040805173ffffffffffffffffffffffffffffffffffffffff9092168252519081900360200190f35b3480156101a257600080fd5b50610156600480360360208110156101b957600080fd5b5035151561060f565b3480156101ce57600080fd5b50610156600480360360208110156101e557600080fd5b81019060208101813564010000000081111561020057600080fd5b82018360208201111561021257600080fd5b8035906020019184600183028401116401000000008311171561023457600080fd5b91908080601f01602080910402602001604051908101604052809392919081815260200183838082843760009201919091525092955061060f945050505050565b34801561028157600080fd5b506101566004803603602081101561029857600080fd5b503561060f565b6002805460408051602060018416156101000260001901909316849004601f810184900484028201840190925281815292918301828280156103225780601f106102f757610100808354040283529160200191610322565b820191906000526020600020905b81548152906001019060200180831161030557829003601f168201915b505050505081565b60018054604080516020601f600260001961010087891615020190951694909404938401819004810282018101909252828152606093909290918301828280156103b55780601f1061038a576101008083540402835291602001916103b5565b820191906000526020600020905b81548152906001019060200180831161039857829003601f168201915b505050505090505b90565b6000805474010000000000000000000000000000000000000000900460ff1615156001141561045057604080517f08c379a000000000000000000000000000000000000000000000000000000000815260206004820152600f60248201527f50726f636573732061626f727465640000000000000000000000000000000000604482015290519081900360640190fd5b6000809054906101000a900473ffffffffffffffffffffffffffffffffffffffff1673ffffffffffffffffffffffffffffffffffffffff16635f8d96de6040518163ffffffff1660e060020a02815260040160206040518083038186803b1580156104ba57600080fd5b505afa1580156104ce573d6000803e3d6000fd5b505050506040513d60208110156104e457600080fd5b50514211156104f5575060006103bd565b50600190565b6105036103c0565b151561057057604080517f08c379a000000000000000000000000000000000000000000000000000000000815260206004820152600d60248201527f43616e277420616476616e636500000000000000000000000000000000000000604482015290519081900360640190fd5b565b60008060009054906101000a900473ffffffffffffffffffffffffffffffffffffffff1673ffffffffffffffffffffffffffffffffffffffff1663f00e6a2a6040518163ffffffff1660e060020a02815260040160206040518083038186803b1580156105de57600080fd5b505afa1580156105f2573d6000803e3d6000fd5b505050506040513d602081101561060857600080fd5b5051905090565b604080517f08c379a000000000000000000000000000000000000000000000000000000000815260206004820152600f60248201527f4e6f7420496d706c656d656e7465640000000000000000000000000000000000604482015290519081900360640190fdfea165627a7a723058206a3b681a13387cb02e7da0dde1f1eba7434f704dd9804398295bc3b8afda16ef002960c0604052600660808190527f495374617465000000000000000000000000000000000000000000000000000060a090815261003e9160019190610084565b5060405160208061085c8339810180604052602081101561005e57600080fd5b505160008054600160a060020a031916600160a060020a0390921691909117905561011f565b828054600181600116156101000203166002900490600052602060002090601f016020900481019282601f106100c557805160ff19168380011785556100f2565b828001600101855582156100f2579182015b828111156100f25782518255916020019190600101906100d7565b506100fe929150610102565b5090565b61011c91905b808211156100fe5760008155600101610108565b90565b61072e8061012e6000396000f3fe6080604052600436106100745763ffffffff60e060020a60003504166307918ec5811461007957806317d7de7c1461010357806325e3926e1461011857806361461954146101415780637bb3ad9b14610158578063972213ad14610196578063bd590d7e146101c2578063fe0d94c114610275575b600080fd5b34801561008557600080fd5b5061008e61029f565b6040805160208082528351818301528351919283929083019185019080838360005b838110156100c85781810151838201526020016100b0565b50505050905090810190601f1680156100f55780820380516001836020036101000a031916815260200191505b509250505060405180910390f35b34801561010f57600080fd5b5061008e61032c565b34801561012457600080fd5b5061012d6103c2565b604080519115158252519081900360200190f35b34801561014d57600080fd5b506101566104fd565b005b34801561016457600080fd5b5061016d610564565b6040805173ffffffffffffffffffffffffffffffffffffffff9092168252519081900360200190f35b3480156101a257600080fd5b50610156600480360360208110156101b957600080fd5b503515156104fd565b3480156101ce57600080fd5b50610156600480360360208110156101e557600080fd5b81019060208101813564010000000081111561020057600080fd5b82018360208201111561021257600080fd5b8035906020019184600183028401116401000000008311171561023457600080fd5b91908080601f0160208091040260200160405190810160405280939291908181526020018383808284376000920191909152509295506104fd945050505050565b34801561028157600080fd5b506101566004803603602081101561029857600080fd5b5035610601565b60018054604080516020600284861615610100026000190190941693909304601f810184900484028201840190925281815292918301828280156103245780601f106102f957610100808354040283529160200191610324565b820191906000526020600020905b81548152906001019060200180831161030757829003601f168201915b505050505081565b60018054604080516020601f600260001961010087891615020190951694909404938401819004810282018101909252828152606093909290918301828280156103b75780601f1061038c576101008083540402835291602001916103b7565b820191906000526020600020905b81548152906001019060200180831161039a57829003601f168201915b505050505090505b90565b6000805474010000000000000000000000000000000000000000900460ff1615156001141561045257604080517f08c379a000000000000000000000000000000000000000000000000000000000815260206004820152600f60248201527f50726f636573732061626f727465640000000000000000000000000000000000604482015290519081900360640190fd5b6000809054906101000a900473ffffffffffffffffffffffffffffffffffffffff1673ffffffffffffffffffffffffffffffffffffffff16635f8d96de6040518163ffffffff1660e060020a02815260040160206040518083038186803b1580156104bc57600080fd5b505afa1580156104d0573d6000803e3d6000fd5b505050506040513d60208110156104e657600080fd5b50514211156104f7575060006103bf565b50600190565b604080517f08c379a000000000000000000000000000000000000000000000000000000000815260206004820152600f60248201527f4e6f7420496d706c656d656e7465640000000000000000000000000000000000604482015290519081900360640190fd5b60008060009054906101000a900473ffffffffffffffffffffffffffffffffffffffff1673ffffffffffffffffffffffffffffffffffffffff166350b1be266040518163ffffffff1660e060020a02815260040160206040518083038186803b1580156105d057600080fd5b505afa1580156105e4573d6000803e3d6000fd5b505050506040513d60208110156105fa57600080fd5b5051905090565b6106096103c2565b151561067657604080517f08c379a000000000000000000000000000000000000000000000000000000000815260206004820152600d60248201527f43616e277420616476616e636500000000000000000000000000000000000000604482015290519081900360640190fd5b60005473ffffffffffffffffffffffffffffffffffffffff16631dc9b2848260028111156106a057fe5b6040518263ffffffff1660e060020a028152600401808260028111156106c257fe5b60ff168152602001915050600060405180830381600087803b1580156106e757600080fd5b505af11580156106fb573d6000803e3d6000fd5b505050505056fea165627a7a723058204cb1ea1e3fa68ccf5907c95f8965835a810e7bb63ff25b6b1cdc25a21ab198cd002960c0604052600660808190527f495374617465000000000000000000000000000000000000000000000000000060a090815261003e9160019190610084565b5060405160208061085c8339810180604052602081101561005e57600080fd5b505160008054600160a060020a031916600160a060020a0390921691909117905561011f565b828054600181600116156101000203166002900490600052602060002090601f016020900481019282601f106100c557805160ff19168380011785556100f2565b828001600101855582156100f2579182015b828111156100f25782518255916020019190600101906100d7565b506100fe929150610102565b5090565b61011c91905b808211156100fe5760008155600101610108565b90565b61072e8061012e6000396000f3fe6080604052600436106100745763ffffffff60e060020a60003504166307918ec5811461007957806317d7de7c1461010357806325e3926e1461011857806361461954146101415780637bb3ad9b14610158578063972213ad14610196578063bd590d7e146101c2578063fe0d94c114610275575b600080fd5b34801561008557600080fd5b5061008e61029f565b6040805160208082528351818301528351919283929083019185019080838360005b838110156100c85781810151838201526020016100b0565b50505050905090810190601f1680156100f55780820380516001836020036101000a031916815260200191505b509250505060405180910390f35b34801561010f57600080fd5b5061008e61032c565b34801561012457600080fd5b5061012d6103c2565b604080519115158252519081900360200190f35b34801561014d57600080fd5b506101566104fd565b005b34801561016457600080fd5b5061016d610564565b6040805173ffffffffffffffffffffffffffffffffffffffff9092168252519081900360200190f35b3480156101a257600080fd5b50610156600480360360208110156101b957600080fd5b503515156104fd565b3480156101ce57600080fd5b50610156600480360360208110156101e557600080fd5b81019060208101813564010000000081111561020057600080fd5b82018360208201111561021257600080fd5b8035906020019184600183028401116401000000008311171561023457600080fd5b91908080601f0160208091040260200160405190810160405280939291908181526020018383808284376000920191909152509295506104fd945050505050565b34801561028157600080fd5b506101566004803603602081101561029857600080fd5b5035610601565b60018054604080516020600284861615610100026000190190941693909304601f810184900484028201840190925281815292918301828280156103245780601f106102f957610100808354040283529160200191610324565b820191906000526020600020905b81548152906001019060200180831161030757829003601f168201915b505050505081565b60018054604080516020601f600260001961010087891615020190951694909404938401819004810282018101909252828152606093909290918301828280156103b75780601f1061038c576101008083540402835291602001916103b7565b820191906000526020600020905b81548152906001019060200180831161039a57829003601f168201915b505050505090505b90565b6000805474010000000000000000000000000000000000000000900460ff1615156001141561045257604080517f08c379a000000000000000000000000000000000000000000000000000000000815260206004820152600f60248201527f50726f636573732061626f727465640000000000000000000000000000000000604482015290519081900360640190fd5b6000809054906101000a900473ffffffffffffffffffffffffffffffffffffffff1673ffffffffffffffffffffffffffffffffffffffff16635f8d96de6040518163ffffffff1660e060020a02815260040160206040518083038186803b1580156104bc57600080fd5b505afa1580156104d0573d6000803e3d6000fd5b505050506040513d60208110156104e657600080fd5b50514211156104f7575060006103bf565b50600190565b604080517f08c379a000000000000000000000000000000000000000000000000000000000815260206004820152600f60248201527f4e6f7420496d706c656d656e7465640000000000000000000000000000000000604482015290519081900360640190fd5b60008060009054906101000a900473ffffffffffffffffffffffffffffffffffffffff1673ffffffffffffffffffffffffffffffffffffffff1663f00e6a2a6040518163ffffffff1660e060020a02815260040160206040518083038186803b1580156105d057600080fd5b505afa1580156105e4573d6000803e3d6000fd5b505050506040513d60208110156105fa57600080fd5b5051905090565b6106096103c2565b151561067657604080517f08c379a000000000000000000000000000000000000000000000000000000000815260206004820152600d60248201527f43616e277420616476616e636500000000000000000000000000000000000000604482015290519081900360640190fd5b60005473ffffffffffffffffffffffffffffffffffffffff1663a3bbb0908260028111156106a057fe5b6040518263ffffffff1660e060020a028152600401808260028111156106c257fe5b60ff168152602001915050600060405180830381600087803b1580156106e757600080fd5b505af11580156106fb573d6000803e3d6000fd5b505050505056fea165627a7a72305820ee00b9e24a5f3fe35ccb4a303fd6038f44c826a40ba579596c83c9c5f9a56bf400294260045560a06040819052600060808190526200001f916006916200009e565b5060405162000a2e38038062000a2e8339810180604052620000459190810190620001c2565b60008054600160a060020a03808816600160a060020a0319928316179092556001805492871692909116919091179055600283905581516200008f9060059060208501906200009e565b5060075550620002fb92505050565b828054600181600116156101000203166002900490600052602060002090601f016020900481019282601f10620000e157805160ff191683800117855562000111565b8280016001018555821562000111579182015b8281111562000111578251825591602001919060010190620000f4565b506200011f92915062000123565b5090565b6200014091905b808211156200011f57600081556001016200012a565b90565b6000620001518251620002b5565b9392505050565b6000601f820183136200016a57600080fd5b8151620001816200017b8262000281565b6200025a565b915080825260208301602083018583830111156200019e57600080fd5b620001ab838284620002c8565b50505092915050565b600062000151825162000140565b600080600080600060a08688031215620001db57600080fd5b6000620001e9888862000143565b9550506020620001fc8882890162000143565b94505060406200020f88828901620001b4565b93505060608601516001604060020a038111156200022c57600080fd5b6200023a8882890162000158565b92505060806200024d88828901620001b4565b9150509295509295909350565b6040518181016001604060020a03811182821017156200027957600080fd5b604052919050565b60006001604060020a038211156200029857600080fd5b506020601f91909101601f19160190565b600160a060020a031690565b6000620002c282620002a9565b92915050565b60005b83811015620002e5578181015183820152602001620002cb565b83811115620002f5576000848401525b50505050565b610723806200030b6000396000f3fe6080604052600436106100b95763ffffffff7c010000000000000000000000000000000000000000000000000000000060003504166315336f8081146100f25780631dc9b2841461011457806350b1be26146101345780635c5d625e1461015f5780635f8d96de1461018157806390f3213d146101a357806399707f9c146101c55780639ed5b502146101da578063a3bbb090146101ef578063c828371e1461020f578063e39ff19f14610224578063f00e6a2a14610244575b7fa8142743f8f70a4c26f3691cf4ed59718381fb2f18070ec52be1f1022d855557346040516100e891906105f8565b60405180910390a1005b3480156100fe57600080fd5b5061011261010d36600461053a565b610259565b005b34801561012057600080fd5b5061011261012f36600461051c565b610270565b34801561014057600080fd5b50610149610293565b60405161015691906105c5565b60405180910390f35b34801561016b57600080fd5b506101746102b0565b60405161015691906105e7565b34801561018d57600080fd5b50610196610346565b60405161015691906105f8565b3480156101af57600080fd5b506101b861034c565b60405161015691906105d9565b3480156101d157600080fd5b5061011261035a565b3480156101e657600080fd5b506101b8610364565b3480156101fb57600080fd5b5061011261020a36600461051c565b61036d565b34801561021b57600080fd5b50610196610386565b34801561023057600080fd5b5061011261023f3660046104f6565b61038c565b34801561025057600080fd5b506101496103cf565b805161026c9060069060208401906103eb565b5050565b6008805482919061ff00191661010083600281111561028b57fe5b021790555050565b60015473ffffffffffffffffffffffffffffffffffffffff165b90565b60068054604080516020601f600260001961010060018816150201909516949094049384018190048102820181019092528281526060939092909183018282801561033c5780601f106103115761010080835404028352916020019161033c565b820191906000526020600020905b81548152906001019060200180831161031f57829003601f168201915b5050505050905090565b60035490565b600854610100900460ff1690565b6002544201600355565b60085460ff1690565b6008805482919060ff1916600183600281111561028b57fe5b60045490565b60405173ffffffffffffffffffffffffffffffffffffffff821690303180156108fc02916000818181858888f1935050505015801561026c573d6000803e3d6000fd5b60005473ffffffffffffffffffffffffffffffffffffffff1690565b828054600181600116156101000203166002900490600052602060002090601f016020900481019282601f1061042c57805160ff1916838001178555610459565b82800160010185558215610459579182015b8281111561045957825182559160200191906001019061043e565b50610465929150610469565b5090565b6102ad91905b80821115610465576000815560010161046f565b600061048f8235610659565b9392505050565b600061048f8235610689565b6000601f820183136104b357600080fd5b81356104c66104c18261062d565b610606565b915080825260208301602083018583830111156104e257600080fd5b6104ed8382846106a3565b50505092915050565b60006020828403121561050857600080fd5b60006105148484610483565b949350505050565b60006020828403121561052e57600080fd5b60006105148484610496565b60006020828403121561054c57600080fd5b813567ffffffffffffffff81111561056357600080fd5b610514848285016104a2565b61057881610659565b82525050565b61057881610698565b600061059282610655565b8084526105a68160208601602086016106af565b6105af816106df565b9093016020019392505050565b610578816102ad565b602081016105d3828461056f565b92915050565b602081016105d3828461057e565b6020808252810161048f8184610587565b602081016105d382846105bc565b60405181810167ffffffffffffffff8111828210171561062557600080fd5b604052919050565b600067ffffffffffffffff82111561064457600080fd5b506020601f91909101601f19160190565b5190565b60006105d382610670565b60006003821061046557fe5b73ffffffffffffffffffffffffffffffffffffffff1690565b60006003821061046557600080fd5b60006105d382610664565b82818337506000910152565b60005b838110156106ca5781810151838201526020016106b2565b838111156106d9576000848401525b50505050565b601f01601f19169056fea265627a7a72305820c0a4f511f490fbcf9b9ad7c5ad7e160e438c34a1a874323c782544b04e61245d6c6578706572696d656e74616cf5003760c0604052600660808190527f495374617465000000000000000000000000000000000000000000000000000060a090815261003e9160019190610084565b5060405160208061075e8339810180604052602081101561005e57600080fd5b505160008054600160a060020a031916600160a060020a0390921691909117905561011f565b828054600181600116156101000203166002900490600052602060002090601f016020900481019282601f106100c557805160ff19168380011785556100f2565b828001600101855582156100f2579182015b828111156100f25782518255916020019190600101906100d7565b506100fe929150610102565b5090565b61011c91905b808211156100fe5760008155600101610108565b90565b6106308061012e6000396000f3fe60806040526004361061008d5763ffffffff7c010000000000000000000000000000000000000000000000000000000060003504166307918ec5811461009257806317d7de7c1461011c57806325e3926e14610131578063614619541461015a5780637bb3ad9b14610171578063972213ad146101af578063bd590d7e146101db578063fe0d94c11461028e575b600080fd5b34801561009e57600080fd5b506100a76102b8565b6040805160208082528351818301528351919283929083019185019080838360005b838110156100e15781810151838201526020016100c9565b50505050905090810190601f16801561010e5780820380516001836020036101000a031916815260200191505b509250505060405180910390f35b34801561012857600080fd5b506100a7610345565b34801561013d57600080fd5b506101466103da565b604080519115158252519081900360200190f35b34801561016657600080fd5b5061016f610470565b005b34801561017d57600080fd5b506101866104e7565b6040805173ffffffffffffffffffffffffffffffffffffffff9092168252519081900360200190f35b3480156101bb57600080fd5b5061016f600480360360208110156101d257600080fd5b5035151561059d565b3480156101e757600080fd5b5061016f600480360360208110156101fe57600080fd5b81019060208101813564010000000081111561021957600080fd5b82018360208201111561022b57600080fd5b8035906020019184600183028401116401000000008311171561024d57600080fd5b91908080601f01602080910402602001604051908101604052809392919081815260200183838082843760009201919091525092955061059d945050505050565b34801561029a57600080fd5b5061016f600480360360208110156102b157600080fd5b503561059d565b60018054604080516020600284861615610100026000190190941693909304601f8101849004840282018401909252818152929183018282801561033d5780601f106103125761010080835404028352916020019161033d565b820191906000526020600020905b81548152906001019060200180831161032057829003601f168201915b505050505081565b60018054604080516020601f600260001961010087891615020190951694909404938401819004810282018101909252828152606093909290918301828280156103d05780601f106103a5576101008083540402835291602001916103d0565b820191906000526020600020905b8154815290600101906020018083116103b357829003601f168201915b5050505050905090565b6000805474010000000000000000000000000000000000000000900460ff1615156001141561046a57604080517f08c379a000000000000000000000000000000000000000000000000000000000815260206004820152601860248201527f50726f6365737320686173206265656e2061626f727465640000000000000000604482015290519081900360640190fd5b50600190565b6104786103da565b15156104e557604080517f08c379a000000000000000000000000000000000000000000000000000000000815260206004820152600d60248201527f43616e277420616476616e636500000000000000000000000000000000000000604482015290519081900360640190fd5b565b60008060009054906101000a900473ffffffffffffffffffffffffffffffffffffffff1673ffffffffffffffffffffffffffffffffffffffff1663f00e6a2a6040518163ffffffff167c010000000000000000000000000000000000000000000000000000000002815260040160206040518083038186803b15801561056c57600080fd5b505afa158015610580573d6000803e3d6000fd5b505050506040513d602081101561059657600080fd5b5051905090565b604080517f08c379a000000000000000000000000000000000000000000000000000000000815260206004820152600f60248201527f4e6f7420496d706c656d656e7465640000000000000000000000000000000000604482015290519081900360640190fdfea165627a7a72305820784214560aebd1e6ade585bcc9764364470fc4f98efa17ebb8317cb13440e9f6002960c0604052600660808190527f495374617465000000000000000000000000000000000000000000000000000060a090815261003e91600191906100c9565b506040805180820190915260078082527f417070726f7665000000000000000000000000000000000000000000000000006020909201918252610083916002916100c9565b506040516020806107e8833981018060405260208110156100a357600080fd5b505160008054600160a060020a031916600160a060020a03909216919091179055610164565b828054600181600116156101000203166002900490600052602060002090601f016020900481019282601f1061010a57805160ff1916838001178555610137565b82800160010185558215610137579182015b8281111561013757825182559160200191906001019061011c565b50610143929150610147565b5090565b61016191905b80821115610143576000815560010161014d565b90565b610675806101736000396000f3fe60806040526004361061008d5763ffffffff7c010000000000000000000000000000000000000000000000000000000060003504166307918ec5811461009257806317d7de7c1461011c57806325e3926e14610131578063614619541461015a5780637bb3ad9b14610171578063972213ad146101af578063bd590d7e146101db578063fe0d94c11461028e575b600080fd5b34801561009e57600080fd5b506100a76102b8565b6040805160208082528351818301528351919283929083019185019080838360005b838110156100e15781810151838201526020016100c9565b50505050905090810190601f16801561010e5780820380516001836020036101000a031916815260200191505b509250505060405180910390f35b34801561012857600080fd5b506100a7610343565b34801561013d57600080fd5b506101466103d8565b604080519115158252519081900360200190f35b34801561016657600080fd5b5061016f61046e565b005b34801561017d57600080fd5b506101866104d5565b6040805173ffffffffffffffffffffffffffffffffffffffff9092168252519081900360200190f35b3480156101bb57600080fd5b5061016f600480360360208110156101d257600080fd5b5035151561058b565b3480156101e757600080fd5b5061016f600480360360208110156101fe57600080fd5b81019060208101813564010000000081111561021957600080fd5b82018360208201111561022b57600080fd5b8035906020019184600183028401116401000000008311171561024d57600080fd5b91908080601f01602080910402602001604051908101604052809392919081815260200183838082843760009201919091525092955061046e945050505050565b34801561029a57600080fd5b5061016f600480360360208110156102b157600080fd5b503561046e565b6002805460408051602060018416156101000260001901909316849004601f8101849004840282018401909252818152929183018282801561033b5780601f106103105761010080835404028352916020019161033b565b820191906000526020600020905b81548152906001019060200180831161031e57829003601f168201915b505050505081565b60018054604080516020601f600260001961010087891615020190951694909404938401819004810282018101909252828152606093909290918301828280156103ce5780601f106103a3576101008083540402835291602001916103ce565b820191906000526020600020905b8154815290600101906020018083116103b157829003601f168201915b5050505050905090565b6000805474010000000000000000000000000000000000000000900460ff1615156001141561046857604080517f08c379a000000000000000000000000000000000000000000000000000000000815260206004820152600f60248201527f50726f636573732061626f727465640000000000000000000000000000000000604482015290519081900360640190fd5b50600190565b604080517f08c379a000000000000000000000000000000000000000000000000000000000815260206004820152600f60248201527f4e6f7420496d706c656d656e7465640000000000000000000000000000000000604482015290519081900360640190fd5b60008060009054906101000a900473ffffffffffffffffffffffffffffffffffffffff1673ffffffffffffffffffffffffffffffffffffffff166350b1be266040518163ffffffff167c010000000000000000000000000000000000000000000000000000000002815260040160206040518083038186803b15801561055a57600080fd5b505afa15801561056e573d6000803e3d6000fd5b505050506040513d602081101561058457600080fd5b5051905090565b6105936103d8565b151561060057604080517f08c379a000000000000000000000000000000000000000000000000000000000815260206004820152600d60248201527f43616e277420616476616e636500000000000000000000000000000000000000604482015290519081900360640190fd5b80151561060f5761060f610612565b50565b6000805474ff000000000000000000000000000000000000000019167401000000000000000000000000000000000000000017905556fea165627a7a723058204e775c833b56dff5dfe2cfd2f2a84233928d92c0eebe1e9e1e5ba2740ce0f948002960c0604052600660808190527f495374617465000000000000000000000000000000000000000000000000000060a090815261003e9160019190610084565b506040516020806108c08339810180604052602081101561005e57600080fd5b505160008054600160a060020a031916600160a060020a0390921691909117905561011f565b828054600181600116156101000203166002900490600052602060002090601f016020900481019282601f106100c557805160ff19168380011785556100f2565b828001600101855582156100f2579182015b828111156100f25782518255916020019190600101906100d7565b506100fe929150610102565b5090565b61011c91905b808211156100fe5760008155600101610108565b90565b6107928061012e6000396000f3fe6080604052600436106100745763ffffffff60e060020a60003504166307918ec5811461007957806317d7de7c1461010357806325e3926e1461011857806361461954146101415780637bb3ad9b14610158578063972213ad14610196578063bd590d7e146101c2578063fe0d94c114610275575b600080fd5b34801561008557600080fd5b5061008e61029f565b6040805160208082528351818301528351919283929083019185019080838360005b838110156100c85781810151838201526020016100b0565b50505050905090810190601f1680156100f55780820380516001836020036101000a031916815260200191505b509250505060405180910390f35b34801561010f57600080fd5b5061008e61032c565b34801561012457600080fd5b5061012d6103c2565b604080519115158252519081900360200190f35b34801561014d57600080fd5b506101566104fd565b005b34801561016457600080fd5b5061016d610564565b6040805173ffffffffffffffffffffffffffffffffffffffff9092168252519081900360200190f35b3480156101a257600080fd5b50610156600480360360208110156101b957600080fd5b503515156104fd565b3480156101ce57600080fd5b50610156600480360360208110156101e557600080fd5b81019060208101813564010000000081111561020057600080fd5b82018360208201111561021257600080fd5b8035906020019184600183028401116401000000008311171561023457600080fd5b91908080601f016020809104026020016040519081016040528093929190818152602001838380828437600092019190915250929550610601945050505050565b34801561028157600080fd5b506101566004803603602081101561029857600080fd5b50356104fd565b60018054604080516020600284861615610100026000190190941693909304601f810184900484028201840190925281815292918301828280156103245780601f106102f957610100808354040283529160200191610324565b820191906000526020600020905b81548152906001019060200180831161030757829003601f168201915b505050505081565b60018054604080516020601f600260001961010087891615020190951694909404938401819004810282018101909252828152606093909290918301828280156103b75780601f1061038c576101008083540402835291602001916103b7565b820191906000526020600020905b81548152906001019060200180831161039a57829003601f168201915b505050505090505b90565b6000805474010000000000000000000000000000000000000000900460ff1615156001141561045257604080517f08c379a000000000000000000000000000000000000000000000000000000000815260206004820152600f60248201527f50726f636573732061626f727465640000000000000000000000000000000000604482015290519081900360640190fd5b6000809054906101000a900473ffffffffffffffffffffffffffffffffffffffff1673ffffffffffffffffffffffffffffffffffffffff16635f8d96de6040518163ffffffff1660e060020a02815260040160206040518083038186803b1580156104bc57600080fd5b505afa1580156104d0573d6000803e3d6000fd5b505050506040513d60208110156104e657600080fd5b50514211156104f7575060006103bf565b50600190565b604080517f08c379a000000000000000000000000000000000000000000000000000000000815260206004820152600f60248201527f4e6f7420496d706c656d656e7465640000000000000000000000000000000000604482015290519081900360640190fd5b60008060009054906101000a900473ffffffffffffffffffffffffffffffffffffffff1673ffffffffffffffffffffffffffffffffffffffff166350b1be266040518163ffffffff1660e060020a02815260040160206040518083038186803b1580156105d057600080fd5b505afa1580156105e4573d6000803e3d6000fd5b505050506040513d60208110156105fa57600080fd5b5051905090565b6106096103c2565b151561067657604080517f08c379a000000000000000000000000000000000000000000000000000000000815260206004820152600d60248201527f43616e277420616476616e636500000000000000000000000000000000000000604482015290519081900360640190fd5b600080546040517f15336f8000000000000000000000000000000000000000000000000000000000815260206004820181815285516024840152855173ffffffffffffffffffffffffffffffffffffffff909416946315336f80948794929384936044019290860191908190849084905b838110156106ff5781810151838201526020016106e7565b50505050905090810190601f16801561072c5780820380516001836020036101000a031916815260200191505b5092505050600060405180830381600087803b15801561074b57600080fd5b505af115801561075f573d6000803e3d6000fd5b505050505056fea165627a7a723058208382780a3af1570e5fb9b0a31bba1a3bbad64afdef95276286afce0e33a479ee0029a265627a7a72305820814f6eaf9bfc7d2739def81cf2e8ef1f4c2f7734016b3bcd895032570e58f3db6c6578706572696d656e74616cf50037",
  "source": "pragma solidity ^0.5.0;\r\npragma experimental ABIEncoderV2;\r\n\r\nimport \"./IData.sol\";\r\nimport \"./Enums.sol\";\r\nimport \"./IState.sol\";\r\nimport \"./StateStart.sol\";\r\nimport \"./StateFunding.sol\";\r\nimport \"./StateRatingByMitigator.sol\";\r\nimport \"./StateEvaluation.sol\";\r\nimport \"./StateApprove.sol\";\r\nimport \"./StateProof.sol\";\r\nimport \"./StateRatingByTarget.sol\";\r\n\r\ncontract Process{\r\n    \r\n    IState private State;\r\n    IData data;\r\n    constructor() public payable{}\r\n    \r\n    function init(address payable T,address payable M,uint Interval,string memory listOfAddresses,uint256 amountOfAddresses) public returns(address){\r\n        data = new IData(T,M,Interval,listOfAddresses,amountOfAddresses);\r\n\t\tState =new StateStart(address(data));\r\n        State.execute();\r\n\t\tState = new StateApprove(address(data));\r\n    }\r\n    \r\n    function approve(bool descision) \r\n    public{\r\n        \r\n        State.execute(descision);\r\n\t\tState = new StateFunding(address(data));\r\n\t}\r\n    \r\n    function sendFunds() \r\n    public{\r\n\t\taddress(data).transfer(address(this).balance);\r\n        State.execute();\r\n\t\tState = new StateProof(address(data));\r\n    }\r\n    \r\n    function uploadProof(string memory value) \r\n    public{\r\n        \r\n        State.execute(value);\r\n\t\tState = new StateRatingByTarget(address(data));\r\n    }\r\n    \r\n    function rateByTarget(uint256 value) \r\n    public{\r\n        \r\n        State.execute(value);\r\n\t\tState = new StateRatingByMitigator(address(data));\r\n    }\r\n    \r\n    function rateByMitigator(uint256 value) \r\n    public{\r\n        \r\n        State.execute(value);\r\n    }\r\n    \r\n    function() payable external {\r\n\t}\r\n    \r\n    function getState() \r\n    public view\r\n    returns (IState){\r\n        return State;\r\n    }\r\n    \r\n}",
  "sourcePath": "C:\\Code\\Private\\MBM\\contracts\\Process.sol",
  "compiler": {
    "name": "solc",
    "version": "0.5.0+commit.1d4f565a.Emscripten.clang"
  },
  "schemaVersion": "3.0.1",
  "updatedAt": "2019-02-07T21:19:52.032Z",
  "devdoc": {
    "methods": {}
  },
  "userdoc": {
    "methods": {}
  }
}