{
  "contractName": "ProcessData",
  "abi": [
    {
      "inputs": [
        {
          "name": "_Target",
          "type": "address"
        },
        {
          "name": "_Mitigator",
          "type": "address"
        },
        {
          "name": "Interval",
          "type": "uint256"
        },
        {
          "name": "_OfferedFunds",
          "type": "uint256"
        },
        {
          "name": "_ListOfAddresses",
          "type": "string"
        }
      ],
      "payable": true,
      "stateMutability": "payable",
      "type": "constructor"
    },
    {
      "payable": true,
      "stateMutability": "payable",
      "type": "fallback"
    },
    {
      "constant": false,
      "inputs": [
        {
          "name": "amount",
          "type": "uint256"
        }
      ],
      "name": "receiveFunds",
      "outputs": [],
      "payable": true,
      "stateMutability": "payable",
      "type": "function"
    },
    {
      "constant": false,
      "inputs": [
        {
          "name": "receiver",
          "type": "address"
        }
      ],
      "name": "transferFunds",
      "outputs": [],
      "payable": false,
      "stateMutability": "nonpayable",
      "type": "function"
    },
    {
      "constant": true,
      "inputs": [],
      "name": "getAddress",
      "outputs": [
        {
          "name": "",
          "type": "address"
        }
      ],
      "payable": false,
      "stateMutability": "view",
      "type": "function"
    },
    {
      "constant": true,
      "inputs": [],
      "name": "getNextActor",
      "outputs": [
        {
          "name": "",
          "type": "address"
        }
      ],
      "payable": false,
      "stateMutability": "view",
      "type": "function"
    },
    {
      "constant": true,
      "inputs": [],
      "name": "getTarget",
      "outputs": [
        {
          "name": "",
          "type": "address"
        }
      ],
      "payable": false,
      "stateMutability": "view",
      "type": "function"
    },
    {
      "constant": false,
      "inputs": [],
      "name": "executeEvaluation",
      "outputs": [],
      "payable": false,
      "stateMutability": "nonpayable",
      "type": "function"
    },
    {
      "constant": true,
      "inputs": [],
      "name": "getDeadline",
      "outputs": [
        {
          "name": "",
          "type": "uint256"
        }
      ],
      "payable": false,
      "stateMutability": "view",
      "type": "function"
    },
    {
      "constant": true,
      "inputs": [],
      "name": "getMitigator",
      "outputs": [
        {
          "name": "",
          "type": "address"
        }
      ],
      "payable": false,
      "stateMutability": "view",
      "type": "function"
    },
    {
      "constant": true,
      "inputs": [],
      "name": "getFunds",
      "outputs": [
        {
          "name": "",
          "type": "uint256"
        }
      ],
      "payable": false,
      "stateMutability": "view",
      "type": "function"
    },
    {
      "constant": true,
      "inputs": [],
      "name": "getOfferedFunds",
      "outputs": [
        {
          "name": "",
          "type": "uint256"
        }
      ],
      "payable": false,
      "stateMutability": "view",
      "type": "function"
    },
    {
      "constant": true,
      "inputs": [],
      "name": "getTargetRating",
      "outputs": [
        {
          "name": "",
          "type": "uint8"
        }
      ],
      "payable": false,
      "stateMutability": "view",
      "type": "function"
    },
    {
      "constant": true,
      "inputs": [],
      "name": "getMitigatorRating",
      "outputs": [
        {
          "name": "",
          "type": "uint8"
        }
      ],
      "payable": false,
      "stateMutability": "view",
      "type": "function"
    },
    {
      "constant": true,
      "inputs": [],
      "name": "getState",
      "outputs": [
        {
          "name": "",
          "type": "uint256"
        }
      ],
      "payable": false,
      "stateMutability": "view",
      "type": "function"
    },
    {
      "constant": true,
      "inputs": [],
      "name": "getProof",
      "outputs": [
        {
          "name": "",
          "type": "string"
        }
      ],
      "payable": false,
      "stateMutability": "view",
      "type": "function"
    },
    {
      "constant": true,
      "inputs": [],
      "name": "getListOfAddresses",
      "outputs": [
        {
          "name": "",
          "type": "string"
        }
      ],
      "payable": false,
      "stateMutability": "view",
      "type": "function"
    },
    {
      "constant": false,
      "inputs": [],
      "name": "setNextDeadline",
      "outputs": [],
      "payable": false,
      "stateMutability": "nonpayable",
      "type": "function"
    },
    {
      "constant": false,
      "inputs": [
        {
          "name": "_NextActor",
          "type": "address"
        }
      ],
      "name": "setNextActor",
      "outputs": [],
      "payable": false,
      "stateMutability": "nonpayable",
      "type": "function"
    },
    {
      "constant": false,
      "inputs": [
        {
          "name": "_Proof",
          "type": "string"
        }
      ],
      "name": "setProof",
      "outputs": [],
      "payable": false,
      "stateMutability": "nonpayable",
      "type": "function"
    },
    {
      "constant": false,
      "inputs": [
        {
          "name": "state",
          "type": "uint8"
        }
      ],
      "name": "setState",
      "outputs": [],
      "payable": false,
      "stateMutability": "nonpayable",
      "type": "function"
    },
    {
      "constant": false,
      "inputs": [
        {
          "name": "rating",
          "type": "uint8"
        }
      ],
      "name": "setTargetRating",
      "outputs": [],
      "payable": false,
      "stateMutability": "nonpayable",
      "type": "function"
    },
    {
      "constant": false,
      "inputs": [
        {
          "name": "rating",
          "type": "uint8"
        }
      ],
      "name": "setMitigatorRating",
      "outputs": [],
      "payable": false,
      "stateMutability": "nonpayable",
      "type": "function"
    },
    {
      "constant": true,
      "inputs": [],
      "name": "isProofProvided",
      "outputs": [
        {
          "name": "",
          "type": "bool"
        }
      ],
      "payable": false,
      "stateMutability": "view",
      "type": "function"
    }
  ],
  "bytecode": "0x6080604052600060045560006005556040516200130938038062001309833981018060405260a081101561003257600080fd5b81516020830151604084015160608501516080860180519496939592949193928301929164010000000081111561006857600080fd5b8201602081018481111561007b57600080fd5b815164010000000081118282018710171561009557600080fd5b505060038054600160a060020a03199081163317909155600486905560008054600160a060020a038b811691841691909117909155600180548a83169084161790819055600280549093169116179055600880547401000000000000000000000000000000000000000060a060020a60ff02199091161790556006869055805190935061012b9250600a91506020840190610136565b5050505050506101d1565b828054600181600116156101000203166002900490600052602060002090601f016020900481019282601f1061017757805160ff19168380011785556101a4565b828001600101855582156101a4579182015b828111156101a4578251825591602001919060010190610189565b506101b09291506101b4565b5090565b6101ce91905b808211156101b057600081556001016101ba565b90565b61112880620001e16000396000f3fe60806040526004361061010e5763ffffffff60e060020a60003504166311adbaad811461011057806315336f801461019a5780631865c57d1461024d5780631b3e7c4b146102745780631dc9b284146102a557806338cc4831146102d25780634d9b3735146102e757806350b1be26146102fc57806356de96db146103115780635c5d625e1461033e5780635f8d96de14610353578063620ae1c7146103685780638271bb35146102e7578063841eb45a146103915780638827e09b146103a657806390f3213d146103c35780639363d6f2146103fc5780639ed5b50214610411578063a3bbb09014610426578063e39ff19f14610453578063f00e6a2a14610486578063f6e917891461049b575b005b34801561011c57600080fd5b506101256104ce565b6040805160208082528351818301528351919283929083019185019080838360005b8381101561015f578181015183820152602001610147565b50505050905090810190601f16801561018c5780820380516001836020036101000a031916815260200191505b509250505060405180910390f35b3480156101a657600080fd5b5061010e600480360360208110156101bd57600080fd5b8101906020810181356401000000008111156101d857600080fd5b8201836020820111156101ea57600080fd5b8035906020019184600183028401116401000000008311171561020c57600080fd5b91908080601f016020809104026020016040519081016040528093929190818152602001838380828437600092019190915250929550610565945050505050565b34801561025957600080fd5b506102626105fb565b60408051918252519081900360200190f35b34801561028057600080fd5b5061028961061d565b60408051600160a060020a039092168252519081900360200190f35b3480156102b157600080fd5b5061010e600480360360208110156102c857600080fd5b503560ff1661062c565b3480156102de57600080fd5b5061028961064f565b3480156102f357600080fd5b50610262610653565b34801561030857600080fd5b50610289610659565b34801561031d57600080fd5b5061010e6004803603602081101561033457600080fd5b503560ff16610668565b34801561034a57600080fd5b506101256106a8565b34801561035f57600080fd5b50610262610709565b34801561037457600080fd5b5061037d61070f565b604080519115158252519081900360200190f35b34801561039d57600080fd5b5061010e61073d565b61010e600480360360208110156103bc57600080fd5b50356109f2565b3480156103cf57600080fd5b506103d8610a77565b604051808260028111156103e857fe5b60ff16815260200191505060405180910390f35b34801561040857600080fd5b5061010e610a85565b34801561041d57600080fd5b506103d8610b17565b34801561043257600080fd5b5061010e6004803603602081101561044957600080fd5b503560ff16610b20565b34801561045f57600080fd5b5061010e6004803603602081101561047657600080fd5b5035600160a060020a0316610b39565b34801561049257600080fd5b50610289610c62565b3480156104a757600080fd5b5061010e600480360360208110156104be57600080fd5b5035600160a060020a0316610c71565b600a8054604080516020601f600260001961010060018816150201909516949094049384018190048102820181019092528281526060939092909183018282801561055a5780601f1061052f5761010080835404028352916020019161055a565b820191906000526020600020905b81548152906001019060200180831161053d57829003601f168201915b505050505090505b90565b80516000106105e4576040805160e560020a62461bcd02815260206004820152602a60248201527f456d70747920737472696e672063616e6e6f742062652061636365707465642060448201527f617320612070726f6f6600000000000000000000000000000000000000000000606482015290519081900360840190fd5b80516105f7906009906020840190610ca0565b5050565b6000600860149054906101000a900460ff16600881111561061857fe5b905090565b600254600160a060020a031690565b600b805482919061ff00191661010083600281111561064757fe5b021790555050565b3090565b60055490565b600154600160a060020a031690565b6008805482919074ff0000000000000000000000000000000000000000191674010000000000000000000000000000000000000000838381111561064757fe5b60098054604080516020601f600260001961010060018816150201909516949094049384018190048102820181019092528281526060939092909183018282801561055a5780601f1061052f5761010080835404028352916020019161055a565b60075490565b6000806009805460018160011615610100020316600290049050111561073757506001610562565b50600090565b60008030600160a060020a03166338cc48316040518163ffffffff1660e060020a02815260040160206040518083038186803b15801561077c57600080fd5b505afa158015610790573d6000803e3d6000fd5b505050506040513d60208110156107a657600080fd5b5051600054604080517f38cc48310000000000000000000000000000000000000000000000000000000081529051600160a060020a03909216916338cc483191600480820192602092909190829003018186803b15801561080657600080fd5b505afa15801561081a573d6000803e3d6000fd5b505050506040513d602081101561083057600080fd5b5051600154604080517f38cc48310000000000000000000000000000000000000000000000000000000081529051600160a060020a03909216916338cc483191600480820192602092909190829003018186803b15801561089057600080fd5b505afa1580156108a4573d6000803e3d6000fd5b505050506040513d60208110156108ba57600080fd5b50516108c4610d1e565b600160a060020a03938416815291831660208301529091166040808301919091525190819003606001906000f080158015610903573d6000803e3d6000fd5b506008805473ffffffffffffffffffffffffffffffffffffffff1916600160a060020a039283161790819055166353707b4c61093d61070f565b610945610b17565b61094d610a77565b6040518463ffffffff1660e060020a028152600401808415151515815260200183600281111561097957fe5b60ff16815260200182600281111561098d57fe5b60ff1681526020019350505050604080518083038186803b1580156109b157600080fd5b505afa1580156109c5573d6000803e3d6000fd5b505050506040513d60408110156109db57600080fd5b50805160209091015190925090506105f781610668565b600454811015610a72576040805160e560020a62461bcd02815260206004820152603760248201527f506c656173652070726f76696465206174206c65617374207468652066756e6460448201527f7320796f7520696e697469616c6c79206f666665726564000000000000000000606482015290519081900360840190fd5b600555565b600b54610100900460ff1690565b600354600160a060020a03163314610b0d576040805160e560020a62461bcd02815260206004820152603360248201527f416374696f6e2063616e206f6e6c7920626520706572666f726d65642062792060448201527f746865206f776e696e6720636f6e747261637400000000000000000000000000606482015290519081900360840190fd5b6006544201600755565b600b5460ff1690565b600b805482919060ff1916600183600281111561064757fe5b600354600160a060020a03163314610bc1576040805160e560020a62461bcd02815260206004820152603460248201527f46756e64732063616e206f6e6c79206265207472616e7366657272656420627960448201527f20746865206f776e696e6720636f6e7472616374000000000000000000000000606482015290519081900360840190fd5b80600160a060020a031663893d20e86040518163ffffffff1660e060020a02815260040160206040518083038186803b158015610bfd57600080fd5b505afa158015610c11573d6000803e3d6000fd5b505050506040513d6020811015610c2757600080fd5b5051600554604051600160a060020a039092169181156108fc0291906000818181858888f193505050501580156105f7573d6000803e3d6000fd5b600054600160a060020a031690565b6002805473ffffffffffffffffffffffffffffffffffffffff1916600160a060020a0392909216919091179055565b828054600181600116156101000203166002900490600052602060002090601f016020900481019282601f10610ce157805160ff1916838001178555610d0e565b82800160010185558215610d0e579182015b82811115610d0e578251825591602001919060010190610cf3565b50610d1a929150610d2e565b5090565b6040516103b480610d4983390190565b61056291905b80821115610d1a5760008155600101610d3456fe608060405234801561001057600080fd5b506040516060806103b48339810180604052606081101561003057600080fd5b508051602082015160409092015160008054600160a060020a03938416600160a060020a03199182161790915560018054948416948216949094179093556002805492909116919092161790556103288061008c6000396000f3fe6080604052600436106100775763ffffffff7c01000000000000000000000000000000000000000000000000000000006000350416630b957629811461007c57806315f6c1341461007c578063349590c3146100ea578063415899f31461011f57806353707b4c1461014c5780638886181814610189575b600080fd5b34801561008857600080fd5b506100a96004803603602081101561009f57600080fd5b503560ff166101b6565b60405173ffffffffffffffffffffffffffffffffffffffff83168152602081018260088111156100d557fe5b60ff1681526020019250505060405180910390f35b3480156100f657600080fd5b506100a96004803603604081101561010d57600080fd5b5060ff813581169160200135166101fc565b34801561012b57600080fd5b506100a96004803603602081101561014257600080fd5b503560ff16610252565b34801561015857600080fd5b506100a96004803603606081101561016f57600080fd5b50803515159060ff60208201358116916040013516610297565b34801561019557600080fd5b506100a9600480360360208110156101ac57600080fd5b503560ff166102c4565b60008060028360028111156101c757fe5b14156101ef57505060025473ffffffffffffffffffffffffffffffffffffffff1660066101f7565b506000905060075b915091565b600080600284600281111561020d57fe5b14156102255761021c836101b6565b9150915061024b565b600084600281111561023357fe5b14156102425761021c83610252565b61021c836101b6565b9250929050565b600080600283600281111561026357fe5b141561027557506000905060086101f7565b505060015473ffffffffffffffffffffffffffffffffffffffff1660066101f7565b60008084156102b3576102aa84846101fc565b915091506102bc565b6102aa846102c4565b935093915050565b600080808360028111156102d457fe5b14156101ef57505060015473ffffffffffffffffffffffffffffffffffffffff1660066101f756fea165627a7a7230582089f6309960b8ce70341b9cf754dad47a61214fd2b26bcbdc8c02709894aa3dfd0029a165627a7a72305820d2590627329ea70b4162d15411cea5667949262d7b3b2d102c91eb58ef9256030029",
  "source": "pragma solidity ^0.5.0;\r\n\r\nimport \"./IActor.sol\";\r\nimport \"./Evaluation.sol\";\r\nimport \"./Enums.sol\";\r\n\r\ncontract  ProcessData {\r\n\r\n    IActor Target;\r\n    IActor Mitigator;\r\n    IActor NextActor;\r\n\taddress private OwnedByContract;\r\n    uint private OfferedFunds = 0;\r\n    uint private Funds = 0;\r\n    uint private DeadlineInterval;\r\n    uint private Deadline;\r\n    Evaluation private _Evaluation;\r\n\t\r\n    Enums.State CurrentState; \r\n    string Proof;\r\n    string ListOfAddresses;\r\n    Enums.Rating TargetRating;\r\n    Enums.Rating MitigatorRating;\r\n\t\r\n    constructor (address _Target,address _Mitigator,uint Interval,uint256 _OfferedFunds,string memory _ListOfAddresses) public payable\r\n    {\r\n\t\tOwnedByContract = msg.sender;\r\n        OfferedFunds = _OfferedFunds;\r\n        Target = IActor(_Target);\r\n        Mitigator = IActor(_Mitigator);\r\n        NextActor = Mitigator;\r\n        CurrentState = Enums.State.APPROVE;\r\n        DeadlineInterval = Interval;\r\n        ListOfAddresses=_ListOfAddresses;\r\n    }\r\n\t\r\n    function receiveFunds(uint256 amount) public payable{    \r\n        require(amount >= OfferedFunds,\"Please provide at least the funds you initially offered\");\r\n\t\tFunds = amount;\r\n    }\r\n    \r\n    function transferFunds(IActor receiver) public {   \r\n\t\trequire(msg.sender==OwnedByContract,\"Funds can only be transferred by the owning contract\");\r\n        receiver.getOwner().transfer(Funds);\r\n    }\r\n    \r\n    function() payable external {}\r\n  \r\n    function getAddress() \r\n    public view\r\n    returns (address payable){\r\n        return address(this);\r\n    }\r\n    \r\n    function getNextActor() \r\n    public view\r\n    returns (IActor){\r\n        return NextActor;\r\n    }\r\n\r\n    function getTarget() \r\n    public view\r\n    returns (IActor){\r\n        return Target;\r\n    }\r\n\t\r\n\tfunction executeEvaluation() \r\n    public{\r\n\t\taddress actor;\r\n\t\tEnums.State stateToSet;\r\n\t\t_Evaluation = new Evaluation(this.getAddress(),Target.getAddress(),Mitigator.getAddress());\r\n\t\t\r\n        (actor,stateToSet) = _Evaluation.evaluate(isProofProvided(),getTargetRating(), getMitigatorRating());\r\n\t\t\r\n\t\tif(actor!=address(0)){\r\n\t\t\t//transferFunds(IActor(actor));\r\n\t\t}\r\n\t\tsetState(stateToSet);\r\n    }\r\n    \r\n    function getDeadline() \r\n    public view\r\n    returns (uint){\r\n        return Deadline;\r\n    }\r\n\r\n    function getMitigator() \r\n    public view\r\n    returns (IActor){\r\n        return Mitigator;\r\n    }\r\n\r\n    function getFunds() \r\n    public view\r\n    returns (uint){\r\n        return Funds;\r\n    }\r\n    \r\n    function getOfferedFunds() \r\n    public view\r\n    returns (uint){\r\n        return Funds;\r\n    }\r\n    \r\n    function getTargetRating() \r\n    public view\r\n    returns (Enums.Rating){\r\n        return TargetRating;\r\n    }\r\n    \r\n    function getMitigatorRating() \r\n    public view\r\n    returns (Enums.Rating){\r\n        return MitigatorRating;\r\n    }\r\n    \r\n    function getState() \r\n    public view\r\n    returns (uint){\r\n        return uint(CurrentState);\r\n    }\r\n    \r\n    function getProof() \r\n    public view\r\n    returns (string memory){\r\n        return Proof;\r\n    }\r\n    \r\n\tfunction getListOfAddresses() \r\n    public view\r\n    returns (string memory){\r\n        return ListOfAddresses;\r\n    }\r\n\t\r\n    function setNextDeadline() \r\n    public {\r\n\t\trequire(msg.sender==OwnedByContract,\"Action can only be performed by the owning contract\");\r\n        Deadline = now+ (DeadlineInterval * 1 seconds);\r\n    }\r\n    \r\n    function setNextActor(IActor _NextActor) \r\n    public {\r\n\t\t//require(msg.sender==OwnedByContract,\"Action can only be performed by the owning contract\");\r\n        NextActor = _NextActor;\r\n    }\r\n\r\n    function setProof(string memory _Proof) \r\n    public{\r\n\t\t//require(msg.sender==OwnedByContract,\"Action can only be performed by the owning contract\");\r\n\t\trequire(bytes(_Proof).length > 0,\"Empty string cannot be accepted as a proof\");\r\n        Proof = _Proof;\r\n    }\r\n    \r\n    function setState(Enums.State state) \r\n    public{\r\n\t\t//require(msg.sender==OwnedByContract,\"Action can only be performed by the owning contract\");\r\n        CurrentState = state;\r\n    }\r\n    \r\n    function setTargetRating(Enums.Rating rating) \r\n    public{\r\n\t\t//require(msg.sender==OwnedByContract,\"Action can only be performed by the owning contract\");\r\n        TargetRating = rating;\r\n    }\r\n    \r\n    function setMitigatorRating(Enums.Rating rating) \r\n    public{\r\n\t\t//require(msg.sender==OwnedByContract,\"Action can only be performed by the owning contract\");\r\n        MitigatorRating = rating;\r\n    }\r\n    \r\n    function isProofProvided()\r\n    public view\r\n    returns(bool){\r\n        if(bytes(Proof).length >0){return true;}\r\n        return false;\r\n    }\r\n}\r\n",
  "sourcePath": "C:\\Code\\Private\\CooperativeSignaling\\contracts\\ProcessData.sol",
  "compiler": {
    "name": "solc",
    "version": "0.5.0+commit.1d4f565a.Emscripten.clang"
  },
  "schemaVersion": "3.0.1",
  "updatedAt": "2019-02-02T16:29:05.732Z",
  "devdoc": {
    "methods": {}
  },
  "userdoc": {
    "methods": {}
  }
}