{
  "contractName": "Protocol",
  "abi": [
    {
      "payable": true,
      "stateMutability": "payable",
      "type": "fallback"
    },
    {
      "anonymous": false,
      "inputs": [
        {
          "indexed": false,
          "name": "_from",
          "type": "address"
        },
        {
          "indexed": false,
          "name": "addr",
          "type": "address"
        }
      ],
      "name": "ProcessCreated",
      "type": "event"
    },
    {
      "anonymous": false,
      "inputs": [
        {
          "indexed": false,
          "name": "_from",
          "type": "address"
        },
        {
          "indexed": false,
          "name": "addr",
          "type": "address"
        }
      ],
      "name": "ActorCreated",
      "type": "event"
    },
    {
      "anonymous": false,
      "inputs": [
        {
          "indexed": false,
          "name": "value",
          "type": "uint256"
        }
      ],
      "name": "FundsReceived",
      "type": "event"
    },
    {
      "constant": false,
      "inputs": [
        {
          "name": "_Owner",
          "type": "address"
        },
        {
          "name": "PricePerUnit",
          "type": "uint256"
        },
        {
          "name": "NetworkName",
          "type": "string"
        }
      ],
      "name": "registerActor",
      "outputs": [
        {
          "name": "",
          "type": "address"
        }
      ],
      "payable": false,
      "stateMutability": "nonpayable",
      "type": "function"
    },
    {
      "constant": false,
      "inputs": [
        {
          "name": "_Owner",
          "type": "address"
        }
      ],
      "name": "deleteActor",
      "outputs": [],
      "payable": false,
      "stateMutability": "nonpayable",
      "type": "function"
    },
    {
      "constant": false,
      "inputs": [
        {
          "name": "_MitigatorOwner",
          "type": "address"
        },
        {
          "name": "_DeadlineInterval",
          "type": "uint256"
        },
        {
          "name": "_OfferedFunds",
          "type": "uint256"
        },
        {
          "name": "_ListOfAddresses",
          "type": "string"
        },
        {
          "name": "_NumberOfAddresses",
          "type": "uint256"
        }
      ],
      "name": "init",
      "outputs": [
        {
          "name": "",
          "type": "address"
        }
      ],
      "payable": false,
      "stateMutability": "nonpayable",
      "type": "function"
    },
    {
      "constant": false,
      "inputs": [
        {
          "name": "process",
          "type": "address"
        },
        {
          "name": "descision",
          "type": "bool"
        }
      ],
      "name": "approve",
      "outputs": [
        {
          "name": "",
          "type": "address"
        }
      ],
      "payable": true,
      "stateMutability": "payable",
      "type": "function"
    },
    {
      "constant": false,
      "inputs": [
        {
          "name": "process",
          "type": "address"
        }
      ],
      "name": "sendFunds",
      "outputs": [
        {
          "name": "",
          "type": "address"
        }
      ],
      "payable": true,
      "stateMutability": "payable",
      "type": "function"
    },
    {
      "constant": false,
      "inputs": [
        {
          "name": "process",
          "type": "address"
        },
        {
          "name": "proof",
          "type": "string"
        }
      ],
      "name": "uploadProof",
      "outputs": [
        {
          "name": "",
          "type": "address"
        }
      ],
      "payable": false,
      "stateMutability": "nonpayable",
      "type": "function"
    },
    {
      "constant": false,
      "inputs": [
        {
          "name": "process",
          "type": "address"
        },
        {
          "name": "rating",
          "type": "uint256"
        }
      ],
      "name": "rateByMitigator",
      "outputs": [
        {
          "name": "",
          "type": "address"
        }
      ],
      "payable": false,
      "stateMutability": "nonpayable",
      "type": "function"
    },
    {
      "constant": false,
      "inputs": [
        {
          "name": "process",
          "type": "address"
        },
        {
          "name": "rating",
          "type": "uint256"
        }
      ],
      "name": "rateByTarget",
      "outputs": [
        {
          "name": "",
          "type": "address"
        }
      ],
      "payable": false,
      "stateMutability": "nonpayable",
      "type": "function"
    },
    {
      "constant": false,
      "inputs": [
        {
          "name": "process",
          "type": "address"
        }
      ],
      "name": "skipCurrentState",
      "outputs": [],
      "payable": false,
      "stateMutability": "nonpayable",
      "type": "function"
    },
    {
      "constant": true,
      "inputs": [],
      "name": "getProcesses",
      "outputs": [
        {
          "name": "",
          "type": "address[]"
        }
      ],
      "payable": false,
      "stateMutability": "view",
      "type": "function"
    },
    {
      "constant": true,
      "inputs": [],
      "name": "getActors",
      "outputs": [
        {
          "name": "",
          "type": "address[]"
        }
      ],
      "payable": false,
      "stateMutability": "view",
      "type": "function"
    }
  ],
  "bytecode": "0x608060405234801561001057600080fd5b506163f5806100206000396000f3fe608060405260043610620000a05763ffffffff60e060020a600035041662ed70268114620000db578063103647fc1462000102578063137e7a7d146200013f5780632402bea814620001665780633d140d21146200018b5780633d99bdc714620001a25780636e52b23914620001c7578063812eea0014620001df578063c369ac921462000204578063cfe52bdd1462000229578063d8ca03561462000240575b7fbcdc7071c1beb6dcf2744621e0b29a2f2432ee20812d9ca5e3d5e8f9308d93a334604051620000d1919062001775565b60405180910390a1005b348015620000e857600080fd5b5062000100620000fa36600462000fe5565b62000265565b005b3480156200010f57600080fd5b506200012762000121366004620010c8565b62000389565b604051620001369190620015b1565b60405180910390f35b3480156200014c57600080fd5b5062000157620004c0565b60405162000136919062001679565b3480156200017357600080fd5b50620001006200018536600462000fe5565b62000525565b620001276200019c36600462001006565b62000528565b348015620001af57600080fd5b5062000127620001c136600462001135565b620005de565b348015620001d457600080fd5b5062000157620008d4565b348015620001ec57600080fd5b5062000127620001fe36600462001093565b62000936565b3480156200021157600080fd5b50620001276200022336600462001045565b620009ae565b620001276200023a36600462000fe5565b62000a26565b3480156200024d57600080fd5b50620001276200025f36600462001093565b62000aef565b600160a060020a03811633146200029c5760405160e560020a62461bcd0281526004016200029390620016e5565b60405180910390fd5b620002a78162000b67565b1515620002cb5760405160e560020a62461bcd02815260040162000293906200171b565b6000620002d88262000b6d565b600154909150600010620003035760405160e560020a62461bcd0281526004016200029390620016f7565b6000805460001981019081106200031657fe5b60009182526020822001548154600160a060020a039091169190839081106200033b57fe5b60009182526020822001805473ffffffffffffffffffffffffffffffffffffffff1916600160a060020a0393909316929092179091558054600019019062000384908262000eb0565b505050565b6000620003968462000c5e565b15620003b95760405160e560020a62461bcd02815260040162000293906200172d565b600160a060020a0384163314620003e75760405160e560020a62461bcd028152600401620002939062001763565b6000848484620003f662000ed7565b62000404939291906200163d565b604051809103906000f08015801562000421573d6000803e3d6000fd5b50600080546001810182559080527f290decd9548b62a8d60345a988386fc84ba6bc95484008f6362f93160ef3e56301805473ffffffffffffffffffffffffffffffffffffffff1916600160a060020a0383161790556040519091507fc5670063c168f180a7b2c6f5900d3e21ebf6b0b7cfb9912d5cbb57fc1b15bf0d90620004ae9033908490620015c1565b60405180910390a190505b9392505050565b606060008054806020026020016040519081016040528092919081815260200182805480156200051a57602002820191906000526020600020905b8154600160a060020a03168152600190910190602001808311620004fb575b505050505090505b90565b50565b6000620005358362000d49565b1515620005595760405160e560020a62461bcd02815260040162000293906200173f565b6040517f09b67f8e000000000000000000000000000000000000000000000000000000008152600160a060020a038416906309b67f8e90620005a09085906004016200168c565b600060405180830381600087803b158015620005bb57600080fd5b505af1158015620005d0573d6000803e3d6000fd5b505050508290505b92915050565b6000808351111515620006085760405160e560020a62461bcd0281526004016200029390620016d3565b620006138662000c5e565b1515620006375760405160e560020a62461bcd028152600401620002939062001709565b620006423362000c5e565b1515620006665760405160e560020a62461bcd0281526004016200029390620016af565b33600160a060020a0387161415620006955760405160e560020a62461bcd028152600401620002939062001751565b6000620006a28762000da2565b6040517fa5ebeaa4000000000000000000000000000000000000000000000000000000008152909150600160a060020a0382169063a5ebeaa490620006ee908890879060040162001785565b60206040518083038186803b1580156200070757600080fd5b505afa1580156200071c573d6000803e3d6000fd5b505050506040513d601f19601f82011682018060405250620007429190810190620011ce565b1515620007665760405160e560020a62461bcd0281526004016200029390620016c1565b60006200077262000ee8565b604051809103906000f0801580156200078f573d6000803e3d6000fd5b50905080600160a060020a03166374f09bd0620007ac3362000da2565b620007b78b62000da2565b8a89896040518663ffffffff1660e060020a028152600401620007df959493929190620015e0565b602060405180830381600087803b158015620007fa57600080fd5b505af11580156200080f573d6000803e3d6000fd5b505050506040513d601f19601f8201168201806040525062000835919081019062000fbc565b506001805480820182556000919091527fb10e2d527612073b26eecdfd717e6a320cf44b4afac2b0732d9fcbe2b7fa0cf601805473ffffffffffffffffffffffffffffffffffffffff1916600160a060020a0383161790556040517f6e7faf61cfe268d7ba9b653ca2ccad3dc13a03d89863baa45e6de18e50596fc990620008c19033908490620015c1565b60405180910390a1979650505050505050565b606060018054806020026020016040519081016040528092919081815260200182805480156200051a57602002820191906000526020600020908154600160a060020a03168152600190910190602001808311620004fb575050505050905090565b6000620009438362000d49565b1515620009675760405160e560020a62461bcd02815260040162000293906200173f565b6040517f0a1b0034000000000000000000000000000000000000000000000000000000008152600160a060020a03841690630a1b003490620005a090859060040162001775565b6000620009bb8362000d49565b1515620009df5760405160e560020a62461bcd02815260040162000293906200173f565b6040517f2f3b7958000000000000000000000000000000000000000000000000000000008152600160a060020a03841690632f3b795890620005a09085906004016200169c565b600062000a338262000d49565b151562000a575760405160e560020a62461bcd02815260040162000293906200173f565b604051600160a060020a038316903480156108fc02916000818181858888f1935050505015801562000a8d573d6000803e3d6000fd5b5081600160a060020a0316638d68cf596040518163ffffffff1660e060020a028152600401600060405180830381600087803b15801562000acd57600080fd5b505af115801562000ae2573d6000803e3d6000fd5b505050508190505b919050565b600062000afc8362000d49565b151562000b205760405160e560020a62461bcd02815260040162000293906200173f565b6040517f2350e71a000000000000000000000000000000000000000000000000000000008152600160a060020a03841690632350e71a90620005a090859060040162001775565b50600190565b6000805b60005481101562000c555782600160a060020a031660008281548110151562000b9657fe5b60009182526020918290200154604080517f893d20e80000000000000000000000000000000000000000000000000000000081529051600160a060020a039092169263893d20e892600480840193829003018186803b15801562000bf957600080fd5b505afa15801562000c0e573d6000803e3d6000fd5b505050506040513d601f19601f8201168201806040525062000c34919081019062000fbc565b600160a060020a0316141562000c4c57905062000aea565b60010162000b71565b50600092915050565b6000805b60005481101562000c555782600160a060020a031660008281548110151562000c8757fe5b60009182526020918290200154604080517f893d20e80000000000000000000000000000000000000000000000000000000081529051600160a060020a039092169263893d20e892600480840193829003018186803b15801562000cea57600080fd5b505afa15801562000cff573d6000803e3d6000fd5b505050506040513d601f19601f8201168201806040525062000d25919081019062000fbc565b600160a060020a0316141562000d4057600191505062000aea565b60010162000c62565b6000805b60015481101562000c555782600160a060020a031660018281548110151562000d7257fe5b600091825260209091200154600160a060020a0316141562000d9957600191505062000aea565b60010162000d4d565b6000805b60005481101562000c555782600160a060020a031660008281548110151562000dcb57fe5b60009182526020918290200154604080517f893d20e80000000000000000000000000000000000000000000000000000000081529051600160a060020a039092169263893d20e892600480840193829003018186803b15801562000e2e57600080fd5b505afa15801562000e43573d6000803e3d6000fd5b505050506040513d601f19601f8201168201806040525062000e69919081019062000fbc565b600160a060020a0316141562000ea757600080548290811062000e8857fe5b600091825260209091200154600160a060020a0316915062000aea9050565b60010162000da6565b81548183558181111562000384576000838152602090206200038491810190830162000ef9565b6040516104cb806200187b83390190565b6040516146768062001d4683390190565b6200052291905b8082111562000f16576000815560010162000f00565b5090565b6000620004b98251620017ff565b6000620004b98235620017ff565b6000620004b982356200180c565b6000620004b982516200180c565b6000601f8201831362000f6457600080fd5b813562000f7b62000f7582620017cc565b620017a4565b9150808252602083016020830185838301111562000f9857600080fd5b62000fa583828462001831565b50505092915050565b6000620004b9823562000522565b60006020828403121562000fcf57600080fd5b600062000fdd848462000f1a565b949350505050565b60006020828403121562000ff857600080fd5b600062000fdd848462000f28565b600080604083850312156200101a57600080fd5b600062001028858562000f28565b92505060206200103b8582860162000f36565b9150509250929050565b600080604083850312156200105957600080fd5b600062001067858562000f28565b925050602083013567ffffffffffffffff8111156200108557600080fd5b6200103b8582860162000f52565b60008060408385031215620010a757600080fd5b6000620010b5858562000f28565b92505060206200103b8582860162000fae565b600080600060608486031215620010de57600080fd5b6000620010ec868662000f28565b9350506020620010ff8682870162000fae565b925050604084013567ffffffffffffffff8111156200111d57600080fd5b6200112b8682870162000f52565b9150509250925092565b600080600080600060a086880312156200114e57600080fd5b60006200115c888862000f28565b95505060206200116f8882890162000fae565b9450506040620011828882890162000fae565b935050606086013567ffffffffffffffff811115620011a057600080fd5b620011ae8882890162000f52565b9250506080620011c18882890162000fae565b9150509295509295909350565b600060208284031215620011e157600080fd5b600062000fdd848462000f44565b620011fa816200181d565b82525050565b620011fa81620017ff565b60006200121882620017fb565b8084526020840193506200122c83620017f5565b60005b8281101562001262576200124586835162001200565b6200125082620017f5565b6020969096019591506001016200122f565b5093949350505050565b620011fa816200180c565b60006200128482620017fb565b8084526200129a8160208601602086016200183d565b620012a58162001870565b9093016020019392505050565b602481527f53656e646572206973206e6f74207265676973746572656420617320616e206160208201527f63746f7200000000000000000000000000000000000000000000000000000000604082015260600190565b600d81527f46756e647320746f6f206c6f7700000000000000000000000000000000000000602082015260400190565b601581527f6e6f206164647265737365732070726f76696465640000000000000000000000602082015260400190565b602881527f5468652073656e646572206973206e6f7420746865206f776e6572206f66207460208201527f6865206163746f72000000000000000000000000000000000000000000000000604082015260600190565b601081527f456d707479206163746f72206c69737400000000000000000000000000000000602082015260400190565b601381527f4e6f2072656769737465726564206163746f7200000000000000000000000000602082015260400190565b602b81527f5468652073656e64657220697320696e766f6c76656420696e20616e2061637460208201527f6976652070726f63657373000000000000000000000000000000000000000000604082015260600190565b603681527f5468652070726f7669646564206164647265737320697320616c72656164792060208201527f7265676973746572656420617320616e206163746f7200000000000000000000604082015260600190565b600a81527f6e6f2070726f6365737300000000000000000000000000000000000000000000602082015260400190565b602481527f53656e64657220616e64207461726765742063616e6e6f74206265207468652060208201527f73616d6500000000000000000000000000000000000000000000000000000000604082015260600190565b602a81527f5468652073656e646572206973206e6f7420746865206f776e6572206f66207460208201527f6865206164647265737300000000000000000000000000000000000000000000604082015260600190565b620011fa8162000522565b60208101620005d8828462001200565b60408101620015d18285620011ef565b620004b96020830184620011ef565b60a08101620015f0828862001200565b620015ff602083018762001200565b6200160e6040830186620015a6565b818103606083015262001622818562001277565b9050620016336080830184620015a6565b9695505050505050565b606081016200164d828662001200565b6200165c6020830185620015a6565b818103604083015262001670818462001277565b95945050505050565b60208082528101620004b981846200120b565b60208101620005d882846200126c565b60208082528101620004b9818462001277565b60208082528101620005d881620012b2565b60208082528101620005d88162001308565b60208082528101620005d88162001338565b60208082528101620005d88162001368565b60208082528101620005d881620013be565b60208082528101620005d881620013ee565b60208082528101620005d8816200141e565b60208082528101620005d88162001474565b60208082528101620005d881620014ca565b60208082528101620005d881620014fa565b60208082528101620005d88162001550565b60208101620005d88284620015a6565b60408101620017958285620015a6565b620004b96020830184620015a6565b60405181810167ffffffffffffffff81118282101715620017c457600080fd5b604052919050565b600067ffffffffffffffff821115620017e457600080fd5b506020601f91909101601f19160190565b60200190565b5190565b6000620005d88262001811565b151590565b600160a060020a031690565b6000620005d8826000620005d882620017ff565b82818337506000910152565b60005b838110156200185a57818101518382015260200162001840565b838111156200186a576000848401525b50505050565b601f01601f19169056fe60806040526040516104cb3803806104cb8339810180604052606081101561002657600080fd5b815160208301516040840180519294919382019264010000000081111561004c57600080fd5b8201602081018481111561005f57600080fd5b815164010000000081118282018710171561007957600080fd5b505060008054600160a060020a031916600160a060020a038816179055600185905580519093506100b392506002915060208401906100bc565b50505050610157565b828054600181600116156101000203166002900490600052602060002090601f016020900481019282601f106100fd57805160ff191683800117855561012a565b8280016001018555821561012a579182015b8281111561012a57825182559160200191906001019061010f565b5061013692915061013a565b5090565b61015491905b808211156101365760008155600101610140565b90565b610365806101666000396000f3fe6080604052600436106100615763ffffffff7c010000000000000000000000000000000000000000000000000000000060003504166307e4b7e981146100ac578063893d20e814610136578063a5ebeaa414610174578063a7cc53f5146101b8575b6000805460405173ffffffffffffffffffffffffffffffffffffffff90911691303180156108fc02929091818181858888f193505050501580156100a9573d6000803e3d6000fd5b50005b3480156100b857600080fd5b506100c16101df565b6040805160208082528351818301528351919283929083019185019080838360005b838110156100fb5781810151838201526020016100e3565b50505050905090810190601f1680156101285780820380516001836020036101000a031916815260200191505b509250505060405180910390f35b34801561014257600080fd5b5061014b610272565b6040805173ffffffffffffffffffffffffffffffffffffffff9092168252519081900360200190f35b34801561018057600080fd5b506101a46004803603604081101561019757600080fd5b508035906020013561028e565b604080519115158252519081900360200190f35b3480156101c457600080fd5b506101cd610333565b60408051918252519081900360200190f35b60028054604080516020601f60001961010060018716150201909416859004938401819004810282018101909252828152606093909290918301828280156102685780601f1061023d57610100808354040283529160200191610268565b820191906000526020600020905b81548152906001019060200180831161024b57829003601f168201915b5050505050905090565b60005473ffffffffffffffffffffffffffffffffffffffff1690565b600154600090820283101561032a57604080517f08c379a000000000000000000000000000000000000000000000000000000000815260206004820152602d60248201527f4f666665722077617320746f6f206c6f772c20706c656173652070726f76696460448201527f65206d6f72652066756e64732e00000000000000000000000000000000000000606482015290519081900360840190fd5b50600192915050565b6001549056fea165627a7a723058200bfca24c8f510a6da553e03543af0205fbb4dea3ea3f6d80abbfc47b9be41aa500296080604052614663806100136000396000f3fe6080604052600436106200008a5763ffffffff7c010000000000000000000000000000000000000000000000000000000060003504166309b67f8e81146200008c5780630a1b003414620000b15780631865c57d14620000d65780632350e71a14620001065780632f3b7958146200012b57806374f09bd014620001505780638d68cf591462000184575b005b3480156200009957600080fd5b506200008a620000ab366004620008b6565b6200019c565b348015620000be57600080fd5b506200008a620000d036600462000918565b6200028d565b348015620000e357600080fd5b50620000ee6200030f565b604051620000fd919062000a29565b60405180910390f35b3480156200011357600080fd5b506200008a6200012536600462000918565b6200031e565b3480156200013857600080fd5b506200008a6200014a366004620008df565b620003b5565b3480156200015d57600080fd5b50620001756200016f3660046200081d565b6200044c565b604051620000fd9190620009a6565b3480156200019157600080fd5b506200008a620005f8565b6000546040517f972213ad000000000000000000000000000000000000000000000000000000008152600160a060020a039091169063972213ad90620001e790849060040162000a19565b600060405180830381600087803b1580156200020257600080fd5b505af115801562000217573d6000803e3d6000fd5b5050600154600160a060020a0316915062000233905062000719565b6200023f9190620009a6565b604051809103906000f0801580156200025c573d6000803e3d6000fd5b506000805473ffffffffffffffffffffffffffffffffffffffff1916600160a060020a039290921691909117905550565b6000546040517ffe0d94c1000000000000000000000000000000000000000000000000000000008152600160a060020a039091169063fe0d94c190620002d890849060040162000a4c565b600060405180830381600087803b158015620002f357600080fd5b505af115801562000308573d6000803e3d6000fd5b5050505050565b600054600160a060020a031690565b6000546040517ffe0d94c1000000000000000000000000000000000000000000000000000000008152600160a060020a039091169063fe0d94c1906200036990849060040162000a4c565b600060405180830381600087803b1580156200038457600080fd5b505af115801562000399573d6000803e3d6000fd5b5050600154600160a060020a031691506200023390506200072a565b6000546040517fbd590d7e000000000000000000000000000000000000000000000000000000008152600160a060020a039091169063bd590d7e906200040090849060040162000a39565b600060405180830381600087803b1580156200041b57600080fd5b505af115801562000430573d6000803e3d6000fd5b5050600154600160a060020a031691506200023390506200073b565b600085858585856200045d6200074c565b6200046d959493929190620009bc565b604051809103906000f0801580156200048a573d6000803e3d6000fd5b506001805473ffffffffffffffffffffffffffffffffffffffff1916600160a060020a03928316179081905516620004c16200075d565b620004cd9190620009a6565b604051809103906000f080158015620004ea573d6000803e3d6000fd5b506000805473ffffffffffffffffffffffffffffffffffffffff1916600160a060020a0392831617808255604080517f6146195400000000000000000000000000000000000000000000000000000000815290519190931692636146195492600480830193919282900301818387803b1580156200056757600080fd5b505af11580156200057c573d6000803e3d6000fd5b5050600154600160a060020a031691506200059890506200076e565b620005a49190620009a6565b604051809103906000f080158015620005c1573d6000803e3d6000fd5b506000805473ffffffffffffffffffffffffffffffffffffffff1916600160a060020a039290921691909117905595945050505050565b600154604051600160a060020a0390911690303180156108fc02916000818181858888f1935050505015801562000633573d6000803e3d6000fd5b5060008054604080517f614619540000000000000000000000000000000000000000000000000000000081529051600160a060020a039092169263614619549260048084019382900301818387803b1580156200068f57600080fd5b505af1158015620006a4573d6000803e3d6000fd5b5050600154600160a060020a03169150620006c090506200077f565b620006cc9190620009a6565b604051809103906000f080158015620006e9573d6000803e3d6000fd5b506000805473ffffffffffffffffffffffffffffffffffffffff1916600160a060020a0392909216919091179055565b6040516108158062000b2983390190565b60405161085c806200133e83390190565b60405161085c8062001b9a83390190565b604051610a2e80620023f683390190565b60405161075e8062002e2483390190565b6040516107e8806200358283390190565b6040516108c08062003d6a83390190565b60006200079e823562000ab1565b9392505050565b60006200079e823562000abe565b6000601f82018313620007c557600080fd5b8135620007dc620007d68262000a84565b62000a5c565b91508082526020830160208301858383011115620007f957600080fd5b6200080683828462000adf565b50505092915050565b60006200079e823562000acf565b600080600080600060a086880312156200083657600080fd5b600062000844888862000790565b9550506020620008578882890162000790565b94505060406200086a888289016200080f565b935050606086013567ffffffffffffffff8111156200088857600080fd5b6200089688828901620007b3565b9250506080620008a9888289016200080f565b9150509295509295909350565b600060208284031215620008c957600080fd5b6000620008d78484620007a5565b949350505050565b600060208284031215620008f257600080fd5b813567ffffffffffffffff8111156200090a57600080fd5b620008d784828501620007b3565b6000602082840312156200092b57600080fd5b6000620008d784846200080f565b620009448162000ab1565b82525050565b620009448162000abe565b620009448162000ad2565b60006200096d8262000aad565b8084526200098381602086016020860162000aeb565b6200098e8162000b1e565b9093016020019392505050565b620009448162000acf565b60208101620009b6828462000939565b92915050565b60a08101620009cc828862000939565b620009db602083018762000939565b620009ea60408301866200099b565b8181036060830152620009fe818562000960565b905062000a0f60808301846200099b565b9695505050505050565b60208101620009b682846200094a565b60208101620009b6828462000955565b602080825281016200079e818462000960565b60208101620009b682846200099b565b60405181810167ffffffffffffffff8111828210171562000a7c57600080fd5b604052919050565b600067ffffffffffffffff82111562000a9c57600080fd5b506020601f91909101601f19160190565b5190565b6000620009b68262000ac3565b151590565b600160a060020a031690565b90565b6000620009b68262000ab1565b82818337506000910152565b60005b8381101562000b0857818101518382015260200162000aee565b8381111562000b18576000848401525b50505050565b601f01601f19169056fe60c0604052600660808190527f495374617465000000000000000000000000000000000000000000000000000060a090815261003e91600191906100c9565b506040805180820190915260078082527f46756e64696e67000000000000000000000000000000000000000000000000006020909201918252610083916002916100c9565b50604051602080610815833981018060405260208110156100a357600080fd5b505160008054600160a060020a031916600160a060020a03909216919091179055610164565b828054600181600116156101000203166002900490600052602060002090601f016020900481019282601f1061010a57805160ff1916838001178555610137565b82800160010185558215610137579182015b8281111561013757825182559160200191906001019061011c565b50610143929150610147565b5090565b61016191905b80821115610143576000815560010161014d565b90565b6106a2806101736000396000f3fe6080604052600436106100745763ffffffff60e060020a60003504166307918ec5811461007957806317d7de7c1461010357806325e3926e1461011857806361461954146101415780637bb3ad9b14610158578063972213ad14610196578063bd590d7e146101c2578063fe0d94c114610275575b600080fd5b34801561008557600080fd5b5061008e61029f565b6040805160208082528351818301528351919283929083019185019080838360005b838110156100c85781810151838201526020016100b0565b50505050905090810190601f1680156100f55780820380516001836020036101000a031916815260200191505b509250505060405180910390f35b34801561010f57600080fd5b5061008e61032a565b34801561012457600080fd5b5061012d6103c0565b604080519115158252519081900360200190f35b34801561014d57600080fd5b506101566104fb565b005b34801561016457600080fd5b5061016d610572565b6040805173ffffffffffffffffffffffffffffffffffffffff9092168252519081900360200190f35b3480156101a257600080fd5b50610156600480360360208110156101b957600080fd5b5035151561060f565b3480156101ce57600080fd5b50610156600480360360208110156101e557600080fd5b81019060208101813564010000000081111561020057600080fd5b82018360208201111561021257600080fd5b8035906020019184600183028401116401000000008311171561023457600080fd5b91908080601f01602080910402602001604051908101604052809392919081815260200183838082843760009201919091525092955061060f945050505050565b34801561028157600080fd5b506101566004803603602081101561029857600080fd5b503561060f565b6002805460408051602060018416156101000260001901909316849004601f810184900484028201840190925281815292918301828280156103225780601f106102f757610100808354040283529160200191610322565b820191906000526020600020905b81548152906001019060200180831161030557829003601f168201915b505050505081565b60018054604080516020601f600260001961010087891615020190951694909404938401819004810282018101909252828152606093909290918301828280156103b55780601f1061038a576101008083540402835291602001916103b5565b820191906000526020600020905b81548152906001019060200180831161039857829003601f168201915b505050505090505b90565b6000805474010000000000000000000000000000000000000000900460ff1615156001141561045057604080517f08c379a000000000000000000000000000000000000000000000000000000000815260206004820152600f60248201527f50726f636573732061626f727465640000000000000000000000000000000000604482015290519081900360640190fd5b6000809054906101000a900473ffffffffffffffffffffffffffffffffffffffff1673ffffffffffffffffffffffffffffffffffffffff16635f8d96de6040518163ffffffff1660e060020a02815260040160206040518083038186803b1580156104ba57600080fd5b505afa1580156104ce573d6000803e3d6000fd5b505050506040513d60208110156104e457600080fd5b50514211156104f5575060006103bd565b50600190565b6105036103c0565b151561057057604080517f08c379a000000000000000000000000000000000000000000000000000000000815260206004820152600d60248201527f43616e277420616476616e636500000000000000000000000000000000000000604482015290519081900360640190fd5b565b60008060009054906101000a900473ffffffffffffffffffffffffffffffffffffffff1673ffffffffffffffffffffffffffffffffffffffff1663f00e6a2a6040518163ffffffff1660e060020a02815260040160206040518083038186803b1580156105de57600080fd5b505afa1580156105f2573d6000803e3d6000fd5b505050506040513d602081101561060857600080fd5b5051905090565b604080517f08c379a000000000000000000000000000000000000000000000000000000000815260206004820152600f60248201527f4e6f7420496d706c656d656e7465640000000000000000000000000000000000604482015290519081900360640190fdfea165627a7a723058206a3b681a13387cb02e7da0dde1f1eba7434f704dd9804398295bc3b8afda16ef002960c0604052600660808190527f495374617465000000000000000000000000000000000000000000000000000060a090815261003e9160019190610084565b5060405160208061085c8339810180604052602081101561005e57600080fd5b505160008054600160a060020a031916600160a060020a0390921691909117905561011f565b828054600181600116156101000203166002900490600052602060002090601f016020900481019282601f106100c557805160ff19168380011785556100f2565b828001600101855582156100f2579182015b828111156100f25782518255916020019190600101906100d7565b506100fe929150610102565b5090565b61011c91905b808211156100fe5760008155600101610108565b90565b61072e8061012e6000396000f3fe6080604052600436106100745763ffffffff60e060020a60003504166307918ec5811461007957806317d7de7c1461010357806325e3926e1461011857806361461954146101415780637bb3ad9b14610158578063972213ad14610196578063bd590d7e146101c2578063fe0d94c114610275575b600080fd5b34801561008557600080fd5b5061008e61029f565b6040805160208082528351818301528351919283929083019185019080838360005b838110156100c85781810151838201526020016100b0565b50505050905090810190601f1680156100f55780820380516001836020036101000a031916815260200191505b509250505060405180910390f35b34801561010f57600080fd5b5061008e61032c565b34801561012457600080fd5b5061012d6103c2565b604080519115158252519081900360200190f35b34801561014d57600080fd5b506101566104fd565b005b34801561016457600080fd5b5061016d610564565b6040805173ffffffffffffffffffffffffffffffffffffffff9092168252519081900360200190f35b3480156101a257600080fd5b50610156600480360360208110156101b957600080fd5b503515156104fd565b3480156101ce57600080fd5b50610156600480360360208110156101e557600080fd5b81019060208101813564010000000081111561020057600080fd5b82018360208201111561021257600080fd5b8035906020019184600183028401116401000000008311171561023457600080fd5b91908080601f0160208091040260200160405190810160405280939291908181526020018383808284376000920191909152509295506104fd945050505050565b34801561028157600080fd5b506101566004803603602081101561029857600080fd5b5035610601565b60018054604080516020600284861615610100026000190190941693909304601f810184900484028201840190925281815292918301828280156103245780601f106102f957610100808354040283529160200191610324565b820191906000526020600020905b81548152906001019060200180831161030757829003601f168201915b505050505081565b60018054604080516020601f600260001961010087891615020190951694909404938401819004810282018101909252828152606093909290918301828280156103b75780601f1061038c576101008083540402835291602001916103b7565b820191906000526020600020905b81548152906001019060200180831161039a57829003601f168201915b505050505090505b90565b6000805474010000000000000000000000000000000000000000900460ff1615156001141561045257604080517f08c379a000000000000000000000000000000000000000000000000000000000815260206004820152600f60248201527f50726f636573732061626f727465640000000000000000000000000000000000604482015290519081900360640190fd5b6000809054906101000a900473ffffffffffffffffffffffffffffffffffffffff1673ffffffffffffffffffffffffffffffffffffffff16635f8d96de6040518163ffffffff1660e060020a02815260040160206040518083038186803b1580156104bc57600080fd5b505afa1580156104d0573d6000803e3d6000fd5b505050506040513d60208110156104e657600080fd5b50514211156104f7575060006103bf565b50600190565b604080517f08c379a000000000000000000000000000000000000000000000000000000000815260206004820152600f60248201527f4e6f7420496d706c656d656e7465640000000000000000000000000000000000604482015290519081900360640190fd5b60008060009054906101000a900473ffffffffffffffffffffffffffffffffffffffff1673ffffffffffffffffffffffffffffffffffffffff166350b1be266040518163ffffffff1660e060020a02815260040160206040518083038186803b1580156105d057600080fd5b505afa1580156105e4573d6000803e3d6000fd5b505050506040513d60208110156105fa57600080fd5b5051905090565b6106096103c2565b151561067657604080517f08c379a000000000000000000000000000000000000000000000000000000000815260206004820152600d60248201527f43616e277420616476616e636500000000000000000000000000000000000000604482015290519081900360640190fd5b60005473ffffffffffffffffffffffffffffffffffffffff16631dc9b2848260028111156106a057fe5b6040518263ffffffff1660e060020a028152600401808260028111156106c257fe5b60ff168152602001915050600060405180830381600087803b1580156106e757600080fd5b505af11580156106fb573d6000803e3d6000fd5b505050505056fea165627a7a723058204cb1ea1e3fa68ccf5907c95f8965835a810e7bb63ff25b6b1cdc25a21ab198cd002960c0604052600660808190527f495374617465000000000000000000000000000000000000000000000000000060a090815261003e9160019190610084565b5060405160208061085c8339810180604052602081101561005e57600080fd5b505160008054600160a060020a031916600160a060020a0390921691909117905561011f565b828054600181600116156101000203166002900490600052602060002090601f016020900481019282601f106100c557805160ff19168380011785556100f2565b828001600101855582156100f2579182015b828111156100f25782518255916020019190600101906100d7565b506100fe929150610102565b5090565b61011c91905b808211156100fe5760008155600101610108565b90565b61072e8061012e6000396000f3fe6080604052600436106100745763ffffffff60e060020a60003504166307918ec5811461007957806317d7de7c1461010357806325e3926e1461011857806361461954146101415780637bb3ad9b14610158578063972213ad14610196578063bd590d7e146101c2578063fe0d94c114610275575b600080fd5b34801561008557600080fd5b5061008e61029f565b6040805160208082528351818301528351919283929083019185019080838360005b838110156100c85781810151838201526020016100b0565b50505050905090810190601f1680156100f55780820380516001836020036101000a031916815260200191505b509250505060405180910390f35b34801561010f57600080fd5b5061008e61032c565b34801561012457600080fd5b5061012d6103c2565b604080519115158252519081900360200190f35b34801561014d57600080fd5b506101566104fd565b005b34801561016457600080fd5b5061016d610564565b6040805173ffffffffffffffffffffffffffffffffffffffff9092168252519081900360200190f35b3480156101a257600080fd5b50610156600480360360208110156101b957600080fd5b503515156104fd565b3480156101ce57600080fd5b50610156600480360360208110156101e557600080fd5b81019060208101813564010000000081111561020057600080fd5b82018360208201111561021257600080fd5b8035906020019184600183028401116401000000008311171561023457600080fd5b91908080601f0160208091040260200160405190810160405280939291908181526020018383808284376000920191909152509295506104fd945050505050565b34801561028157600080fd5b506101566004803603602081101561029857600080fd5b5035610601565b60018054604080516020600284861615610100026000190190941693909304601f810184900484028201840190925281815292918301828280156103245780601f106102f957610100808354040283529160200191610324565b820191906000526020600020905b81548152906001019060200180831161030757829003601f168201915b505050505081565b60018054604080516020601f600260001961010087891615020190951694909404938401819004810282018101909252828152606093909290918301828280156103b75780601f1061038c576101008083540402835291602001916103b7565b820191906000526020600020905b81548152906001019060200180831161039a57829003601f168201915b505050505090505b90565b6000805474010000000000000000000000000000000000000000900460ff1615156001141561045257604080517f08c379a000000000000000000000000000000000000000000000000000000000815260206004820152600f60248201527f50726f636573732061626f727465640000000000000000000000000000000000604482015290519081900360640190fd5b6000809054906101000a900473ffffffffffffffffffffffffffffffffffffffff1673ffffffffffffffffffffffffffffffffffffffff16635f8d96de6040518163ffffffff1660e060020a02815260040160206040518083038186803b1580156104bc57600080fd5b505afa1580156104d0573d6000803e3d6000fd5b505050506040513d60208110156104e657600080fd5b50514211156104f7575060006103bf565b50600190565b604080517f08c379a000000000000000000000000000000000000000000000000000000000815260206004820152600f60248201527f4e6f7420496d706c656d656e7465640000000000000000000000000000000000604482015290519081900360640190fd5b60008060009054906101000a900473ffffffffffffffffffffffffffffffffffffffff1673ffffffffffffffffffffffffffffffffffffffff1663f00e6a2a6040518163ffffffff1660e060020a02815260040160206040518083038186803b1580156105d057600080fd5b505afa1580156105e4573d6000803e3d6000fd5b505050506040513d60208110156105fa57600080fd5b5051905090565b6106096103c2565b151561067657604080517f08c379a000000000000000000000000000000000000000000000000000000000815260206004820152600d60248201527f43616e277420616476616e636500000000000000000000000000000000000000604482015290519081900360640190fd5b60005473ffffffffffffffffffffffffffffffffffffffff1663a3bbb0908260028111156106a057fe5b6040518263ffffffff1660e060020a028152600401808260028111156106c257fe5b60ff168152602001915050600060405180830381600087803b1580156106e757600080fd5b505af11580156106fb573d6000803e3d6000fd5b505050505056fea165627a7a72305820ee00b9e24a5f3fe35ccb4a303fd6038f44c826a40ba579596c83c9c5f9a56bf400294260045560a06040819052600060808190526200001f916006916200009e565b5060405162000a2e38038062000a2e8339810180604052620000459190810190620001c2565b60008054600160a060020a03808816600160a060020a0319928316179092556001805492871692909116919091179055600283905581516200008f9060059060208501906200009e565b5060075550620002fb92505050565b828054600181600116156101000203166002900490600052602060002090601f016020900481019282601f10620000e157805160ff191683800117855562000111565b8280016001018555821562000111579182015b8281111562000111578251825591602001919060010190620000f4565b506200011f92915062000123565b5090565b6200014091905b808211156200011f57600081556001016200012a565b90565b6000620001518251620002b5565b9392505050565b6000601f820183136200016a57600080fd5b8151620001816200017b8262000281565b6200025a565b915080825260208301602083018583830111156200019e57600080fd5b620001ab838284620002c8565b50505092915050565b600062000151825162000140565b600080600080600060a08688031215620001db57600080fd5b6000620001e9888862000143565b9550506020620001fc8882890162000143565b94505060406200020f88828901620001b4565b93505060608601516001604060020a038111156200022c57600080fd5b6200023a8882890162000158565b92505060806200024d88828901620001b4565b9150509295509295909350565b6040518181016001604060020a03811182821017156200027957600080fd5b604052919050565b60006001604060020a038211156200029857600080fd5b506020601f91909101601f19160190565b600160a060020a031690565b6000620002c282620002a9565b92915050565b60005b83811015620002e5578181015183820152602001620002cb565b83811115620002f5576000848401525b50505050565b610723806200030b6000396000f3fe6080604052600436106100b95763ffffffff7c010000000000000000000000000000000000000000000000000000000060003504166315336f8081146100f25780631dc9b2841461011457806350b1be26146101345780635c5d625e1461015f5780635f8d96de1461018157806390f3213d146101a357806399707f9c146101c55780639ed5b502146101da578063a3bbb090146101ef578063c828371e1461020f578063e39ff19f14610224578063f00e6a2a14610244575b7fa8142743f8f70a4c26f3691cf4ed59718381fb2f18070ec52be1f1022d855557346040516100e891906105f8565b60405180910390a1005b3480156100fe57600080fd5b5061011261010d36600461053a565b610259565b005b34801561012057600080fd5b5061011261012f36600461051c565b610270565b34801561014057600080fd5b50610149610293565b60405161015691906105c5565b60405180910390f35b34801561016b57600080fd5b506101746102b0565b60405161015691906105e7565b34801561018d57600080fd5b50610196610346565b60405161015691906105f8565b3480156101af57600080fd5b506101b861034c565b60405161015691906105d9565b3480156101d157600080fd5b5061011261035a565b3480156101e657600080fd5b506101b8610364565b3480156101fb57600080fd5b5061011261020a36600461051c565b61036d565b34801561021b57600080fd5b50610196610386565b34801561023057600080fd5b5061011261023f3660046104f6565b61038c565b34801561025057600080fd5b506101496103cf565b805161026c9060069060208401906103eb565b5050565b6008805482919061ff00191661010083600281111561028b57fe5b021790555050565b60015473ffffffffffffffffffffffffffffffffffffffff165b90565b60068054604080516020601f600260001961010060018816150201909516949094049384018190048102820181019092528281526060939092909183018282801561033c5780601f106103115761010080835404028352916020019161033c565b820191906000526020600020905b81548152906001019060200180831161031f57829003601f168201915b5050505050905090565b60035490565b600854610100900460ff1690565b6002544201600355565b60085460ff1690565b6008805482919060ff1916600183600281111561028b57fe5b60045490565b60405173ffffffffffffffffffffffffffffffffffffffff821690303180156108fc02916000818181858888f1935050505015801561026c573d6000803e3d6000fd5b60005473ffffffffffffffffffffffffffffffffffffffff1690565b828054600181600116156101000203166002900490600052602060002090601f016020900481019282601f1061042c57805160ff1916838001178555610459565b82800160010185558215610459579182015b8281111561045957825182559160200191906001019061043e565b50610465929150610469565b5090565b6102ad91905b80821115610465576000815560010161046f565b600061048f8235610659565b9392505050565b600061048f8235610689565b6000601f820183136104b357600080fd5b81356104c66104c18261062d565b610606565b915080825260208301602083018583830111156104e257600080fd5b6104ed8382846106a3565b50505092915050565b60006020828403121561050857600080fd5b60006105148484610483565b949350505050565b60006020828403121561052e57600080fd5b60006105148484610496565b60006020828403121561054c57600080fd5b813567ffffffffffffffff81111561056357600080fd5b610514848285016104a2565b61057881610659565b82525050565b61057881610698565b600061059282610655565b8084526105a68160208601602086016106af565b6105af816106df565b9093016020019392505050565b610578816102ad565b602081016105d3828461056f565b92915050565b602081016105d3828461057e565b6020808252810161048f8184610587565b602081016105d382846105bc565b60405181810167ffffffffffffffff8111828210171561062557600080fd5b604052919050565b600067ffffffffffffffff82111561064457600080fd5b506020601f91909101601f19160190565b5190565b60006105d382610670565b60006003821061046557fe5b73ffffffffffffffffffffffffffffffffffffffff1690565b60006003821061046557600080fd5b60006105d382610664565b82818337506000910152565b60005b838110156106ca5781810151838201526020016106b2565b838111156106d9576000848401525b50505050565b601f01601f19169056fea265627a7a72305820c0a4f511f490fbcf9b9ad7c5ad7e160e438c34a1a874323c782544b04e61245d6c6578706572696d656e74616cf5003760c0604052600660808190527f495374617465000000000000000000000000000000000000000000000000000060a090815261003e9160019190610084565b5060405160208061075e8339810180604052602081101561005e57600080fd5b505160008054600160a060020a031916600160a060020a0390921691909117905561011f565b828054600181600116156101000203166002900490600052602060002090601f016020900481019282601f106100c557805160ff19168380011785556100f2565b828001600101855582156100f2579182015b828111156100f25782518255916020019190600101906100d7565b506100fe929150610102565b5090565b61011c91905b808211156100fe5760008155600101610108565b90565b6106308061012e6000396000f3fe60806040526004361061008d5763ffffffff7c010000000000000000000000000000000000000000000000000000000060003504166307918ec5811461009257806317d7de7c1461011c57806325e3926e14610131578063614619541461015a5780637bb3ad9b14610171578063972213ad146101af578063bd590d7e146101db578063fe0d94c11461028e575b600080fd5b34801561009e57600080fd5b506100a76102b8565b6040805160208082528351818301528351919283929083019185019080838360005b838110156100e15781810151838201526020016100c9565b50505050905090810190601f16801561010e5780820380516001836020036101000a031916815260200191505b509250505060405180910390f35b34801561012857600080fd5b506100a7610345565b34801561013d57600080fd5b506101466103da565b604080519115158252519081900360200190f35b34801561016657600080fd5b5061016f610470565b005b34801561017d57600080fd5b506101866104e7565b6040805173ffffffffffffffffffffffffffffffffffffffff9092168252519081900360200190f35b3480156101bb57600080fd5b5061016f600480360360208110156101d257600080fd5b5035151561059d565b3480156101e757600080fd5b5061016f600480360360208110156101fe57600080fd5b81019060208101813564010000000081111561021957600080fd5b82018360208201111561022b57600080fd5b8035906020019184600183028401116401000000008311171561024d57600080fd5b91908080601f01602080910402602001604051908101604052809392919081815260200183838082843760009201919091525092955061059d945050505050565b34801561029a57600080fd5b5061016f600480360360208110156102b157600080fd5b503561059d565b60018054604080516020600284861615610100026000190190941693909304601f8101849004840282018401909252818152929183018282801561033d5780601f106103125761010080835404028352916020019161033d565b820191906000526020600020905b81548152906001019060200180831161032057829003601f168201915b505050505081565b60018054604080516020601f600260001961010087891615020190951694909404938401819004810282018101909252828152606093909290918301828280156103d05780601f106103a5576101008083540402835291602001916103d0565b820191906000526020600020905b8154815290600101906020018083116103b357829003601f168201915b5050505050905090565b6000805474010000000000000000000000000000000000000000900460ff1615156001141561046a57604080517f08c379a000000000000000000000000000000000000000000000000000000000815260206004820152601860248201527f50726f6365737320686173206265656e2061626f727465640000000000000000604482015290519081900360640190fd5b50600190565b6104786103da565b15156104e557604080517f08c379a000000000000000000000000000000000000000000000000000000000815260206004820152600d60248201527f43616e277420616476616e636500000000000000000000000000000000000000604482015290519081900360640190fd5b565b60008060009054906101000a900473ffffffffffffffffffffffffffffffffffffffff1673ffffffffffffffffffffffffffffffffffffffff1663f00e6a2a6040518163ffffffff167c010000000000000000000000000000000000000000000000000000000002815260040160206040518083038186803b15801561056c57600080fd5b505afa158015610580573d6000803e3d6000fd5b505050506040513d602081101561059657600080fd5b5051905090565b604080517f08c379a000000000000000000000000000000000000000000000000000000000815260206004820152600f60248201527f4e6f7420496d706c656d656e7465640000000000000000000000000000000000604482015290519081900360640190fdfea165627a7a72305820784214560aebd1e6ade585bcc9764364470fc4f98efa17ebb8317cb13440e9f6002960c0604052600660808190527f495374617465000000000000000000000000000000000000000000000000000060a090815261003e91600191906100c9565b506040805180820190915260078082527f417070726f7665000000000000000000000000000000000000000000000000006020909201918252610083916002916100c9565b506040516020806107e8833981018060405260208110156100a357600080fd5b505160008054600160a060020a031916600160a060020a03909216919091179055610164565b828054600181600116156101000203166002900490600052602060002090601f016020900481019282601f1061010a57805160ff1916838001178555610137565b82800160010185558215610137579182015b8281111561013757825182559160200191906001019061011c565b50610143929150610147565b5090565b61016191905b80821115610143576000815560010161014d565b90565b610675806101736000396000f3fe60806040526004361061008d5763ffffffff7c010000000000000000000000000000000000000000000000000000000060003504166307918ec5811461009257806317d7de7c1461011c57806325e3926e14610131578063614619541461015a5780637bb3ad9b14610171578063972213ad146101af578063bd590d7e146101db578063fe0d94c11461028e575b600080fd5b34801561009e57600080fd5b506100a76102b8565b6040805160208082528351818301528351919283929083019185019080838360005b838110156100e15781810151838201526020016100c9565b50505050905090810190601f16801561010e5780820380516001836020036101000a031916815260200191505b509250505060405180910390f35b34801561012857600080fd5b506100a7610343565b34801561013d57600080fd5b506101466103d8565b604080519115158252519081900360200190f35b34801561016657600080fd5b5061016f61046e565b005b34801561017d57600080fd5b506101866104d5565b6040805173ffffffffffffffffffffffffffffffffffffffff9092168252519081900360200190f35b3480156101bb57600080fd5b5061016f600480360360208110156101d257600080fd5b5035151561058b565b3480156101e757600080fd5b5061016f600480360360208110156101fe57600080fd5b81019060208101813564010000000081111561021957600080fd5b82018360208201111561022b57600080fd5b8035906020019184600183028401116401000000008311171561024d57600080fd5b91908080601f01602080910402602001604051908101604052809392919081815260200183838082843760009201919091525092955061046e945050505050565b34801561029a57600080fd5b5061016f600480360360208110156102b157600080fd5b503561046e565b6002805460408051602060018416156101000260001901909316849004601f8101849004840282018401909252818152929183018282801561033b5780601f106103105761010080835404028352916020019161033b565b820191906000526020600020905b81548152906001019060200180831161031e57829003601f168201915b505050505081565b60018054604080516020601f600260001961010087891615020190951694909404938401819004810282018101909252828152606093909290918301828280156103ce5780601f106103a3576101008083540402835291602001916103ce565b820191906000526020600020905b8154815290600101906020018083116103b157829003601f168201915b5050505050905090565b6000805474010000000000000000000000000000000000000000900460ff1615156001141561046857604080517f08c379a000000000000000000000000000000000000000000000000000000000815260206004820152600f60248201527f50726f636573732061626f727465640000000000000000000000000000000000604482015290519081900360640190fd5b50600190565b604080517f08c379a000000000000000000000000000000000000000000000000000000000815260206004820152600f60248201527f4e6f7420496d706c656d656e7465640000000000000000000000000000000000604482015290519081900360640190fd5b60008060009054906101000a900473ffffffffffffffffffffffffffffffffffffffff1673ffffffffffffffffffffffffffffffffffffffff166350b1be266040518163ffffffff167c010000000000000000000000000000000000000000000000000000000002815260040160206040518083038186803b15801561055a57600080fd5b505afa15801561056e573d6000803e3d6000fd5b505050506040513d602081101561058457600080fd5b5051905090565b6105936103d8565b151561060057604080517f08c379a000000000000000000000000000000000000000000000000000000000815260206004820152600d60248201527f43616e277420616476616e636500000000000000000000000000000000000000604482015290519081900360640190fd5b80151561060f5761060f610612565b50565b6000805474ff000000000000000000000000000000000000000019167401000000000000000000000000000000000000000017905556fea165627a7a723058204e775c833b56dff5dfe2cfd2f2a84233928d92c0eebe1e9e1e5ba2740ce0f948002960c0604052600660808190527f495374617465000000000000000000000000000000000000000000000000000060a090815261003e9160019190610084565b506040516020806108c08339810180604052602081101561005e57600080fd5b505160008054600160a060020a031916600160a060020a0390921691909117905561011f565b828054600181600116156101000203166002900490600052602060002090601f016020900481019282601f106100c557805160ff19168380011785556100f2565b828001600101855582156100f2579182015b828111156100f25782518255916020019190600101906100d7565b506100fe929150610102565b5090565b61011c91905b808211156100fe5760008155600101610108565b90565b6107928061012e6000396000f3fe6080604052600436106100745763ffffffff60e060020a60003504166307918ec5811461007957806317d7de7c1461010357806325e3926e1461011857806361461954146101415780637bb3ad9b14610158578063972213ad14610196578063bd590d7e146101c2578063fe0d94c114610275575b600080fd5b34801561008557600080fd5b5061008e61029f565b6040805160208082528351818301528351919283929083019185019080838360005b838110156100c85781810151838201526020016100b0565b50505050905090810190601f1680156100f55780820380516001836020036101000a031916815260200191505b509250505060405180910390f35b34801561010f57600080fd5b5061008e61032c565b34801561012457600080fd5b5061012d6103c2565b604080519115158252519081900360200190f35b34801561014d57600080fd5b506101566104fd565b005b34801561016457600080fd5b5061016d610564565b6040805173ffffffffffffffffffffffffffffffffffffffff9092168252519081900360200190f35b3480156101a257600080fd5b50610156600480360360208110156101b957600080fd5b503515156104fd565b3480156101ce57600080fd5b50610156600480360360208110156101e557600080fd5b81019060208101813564010000000081111561020057600080fd5b82018360208201111561021257600080fd5b8035906020019184600183028401116401000000008311171561023457600080fd5b91908080601f016020809104026020016040519081016040528093929190818152602001838380828437600092019190915250929550610601945050505050565b34801561028157600080fd5b506101566004803603602081101561029857600080fd5b50356104fd565b60018054604080516020600284861615610100026000190190941693909304601f810184900484028201840190925281815292918301828280156103245780601f106102f957610100808354040283529160200191610324565b820191906000526020600020905b81548152906001019060200180831161030757829003601f168201915b505050505081565b60018054604080516020601f600260001961010087891615020190951694909404938401819004810282018101909252828152606093909290918301828280156103b75780601f1061038c576101008083540402835291602001916103b7565b820191906000526020600020905b81548152906001019060200180831161039a57829003601f168201915b505050505090505b90565b6000805474010000000000000000000000000000000000000000900460ff1615156001141561045257604080517f08c379a000000000000000000000000000000000000000000000000000000000815260206004820152600f60248201527f50726f636573732061626f727465640000000000000000000000000000000000604482015290519081900360640190fd5b6000809054906101000a900473ffffffffffffffffffffffffffffffffffffffff1673ffffffffffffffffffffffffffffffffffffffff16635f8d96de6040518163ffffffff1660e060020a02815260040160206040518083038186803b1580156104bc57600080fd5b505afa1580156104d0573d6000803e3d6000fd5b505050506040513d60208110156104e657600080fd5b50514211156104f7575060006103bf565b50600190565b604080517f08c379a000000000000000000000000000000000000000000000000000000000815260206004820152600f60248201527f4e6f7420496d706c656d656e7465640000000000000000000000000000000000604482015290519081900360640190fd5b60008060009054906101000a900473ffffffffffffffffffffffffffffffffffffffff1673ffffffffffffffffffffffffffffffffffffffff166350b1be266040518163ffffffff1660e060020a02815260040160206040518083038186803b1580156105d057600080fd5b505afa1580156105e4573d6000803e3d6000fd5b505050506040513d60208110156105fa57600080fd5b5051905090565b6106096103c2565b151561067657604080517f08c379a000000000000000000000000000000000000000000000000000000000815260206004820152600d60248201527f43616e277420616476616e636500000000000000000000000000000000000000604482015290519081900360640190fd5b600080546040517f15336f8000000000000000000000000000000000000000000000000000000000815260206004820181815285516024840152855173ffffffffffffffffffffffffffffffffffffffff909416946315336f80948794929384936044019290860191908190849084905b838110156106ff5781810151838201526020016106e7565b50505050905090810190601f16801561072c5780820380516001836020036101000a031916815260200191505b5092505050600060405180830381600087803b15801561074b57600080fd5b505af115801561075f573d6000803e3d6000fd5b505050505056fea165627a7a723058208382780a3af1570e5fb9b0a31bba1a3bbad64afdef95276286afce0e33a479ee0029a265627a7a72305820814f6eaf9bfc7d2739def81cf2e8ef1f4c2f7734016b3bcd895032570e58f3db6c6578706572696d656e74616cf50037a265627a7a72305820978bf77af5fa56ec0b6d383845f2701d1e1aac502c52b0cbbe1b1cd6388110b96c6578706572696d656e74616cf50037",
  "source": "pragma solidity ^0.5.0;\r\npragma experimental ABIEncoderV2;\r\n\r\nimport \"./Process.sol\";\r\nimport \"./IActor.sol\";\r\n\r\ncontract Protocol {\r\n\r\n    address payable[] private Actors;\r\n    address payable[] private CurrentProcesses;\r\n\r\n    event ProcessCreated(address _from, address addr);\r\n\tevent ActorCreated(address _from, address addr);\r\n\tevent FundsReceived(uint256 value);\r\n\t\r\n\tfunction() external payable{\r\n\t\temit FundsReceived(msg.value);\r\n\t}\r\n\r\n    function registerActor(address payable _Owner,uint256 PricePerUnit,string memory NetworkName) public returns(address){\r\n        require(!ownerIsActor(_Owner),\"The provided address is already registered as an actor\");\r\n\t\trequire(_Owner==msg.sender,\"The sender is not the owner of the address\");\r\n\t\tIActor _Actor = new IActor(_Owner,PricePerUnit,NetworkName);\r\n        Actors.push(address(_Actor));\r\n\t\temit ActorCreated(msg.sender,address(_Actor));\r\n        return address(_Actor);\r\n    }\r\n\t\r\n\tfunction deleteActor(address payable _Owner) public{\r\n\t\trequire(_Owner == msg.sender,\"The sender is not the owner of the actor\");\r\n\t\trequire(notInActiveProcesses(_Owner),\"The sender is involved in an active process\");\r\n\t\tuint id = getActorIndexFromOwner(_Owner);\r\n\t\trequire(CurrentProcesses.length > 0,\"Empty actor list\");\r\n\t\tActors[id] = Actors[Actors.length-1];\r\n\t\tActors.length = Actors.length-1;\r\n    }\r\n\t\r\n\tfunction notInActiveProcesses(address payable _Owner) private view returns(bool){\r\n\t\treturn true;\r\n\t}\r\n\t\r\n    function init(address payable _MitigatorOwner,uint _DeadlineInterval,uint256 _OfferedFunds,string memory _ListOfAddresses, uint _NumberOfAddresses) \r\n    public \r\n    returns (address){\r\n        \r\n        require(bytes(_ListOfAddresses).length >0,\"no addresses provided\");\r\n        require(ownerIsActor(_MitigatorOwner),\"No registered actor\");\r\n\t\trequire(ownerIsActor(msg.sender),\"Sender is not registered as an actor\");\r\n\t\trequire(msg.sender!=_MitigatorOwner,\"Sender and target cannot be the same\");\r\n\t\tIActor _Mitigator = IActor(getActor(_MitigatorOwner));\r\n        require(_Mitigator.isOfferAcceptable(_OfferedFunds,_NumberOfAddresses),\"Funds too low\");\r\n        \r\n        Process newProcess = new Process();\r\n        newProcess.init(getActor(msg.sender),getActor(_MitigatorOwner),_DeadlineInterval,_ListOfAddresses,_NumberOfAddresses);\r\n        \r\n        CurrentProcesses.push(address(newProcess));\r\n\t\t\r\n\t\temit ProcessCreated(msg.sender,address(newProcess));\r\n\t\t\r\n        return address(newProcess);\r\n        \r\n    }\r\n\r\n    function approve(address payable process,bool descision) \r\n    public\r\n    payable\r\n    returns (address){\r\n        \r\n        require(isProcess(process),\"no process\");\r\n        Process(process).approve(descision);\r\n        \r\n        return process;\r\n    }\r\n    \r\n    function sendFunds(address payable process) \r\n    public\r\n    payable\r\n    returns (address){\r\n        \r\n        require(isProcess(process),\"no process\");\r\n        process.transfer(msg.value);\r\n\t\tProcess(process).sendFunds();\r\n        return process;\r\n    }\r\n    \r\n    function uploadProof(address payable process,string memory proof) \r\n    public\r\n    returns (address){\r\n        \r\n        require(isProcess(process),\"no process\");\r\n        Process(process).uploadProof(proof);\r\n        \r\n        return process;\r\n    }\r\n    \r\n    function rateByMitigator(address payable process,uint rating) \r\n    public\r\n    returns (address){\r\n        \r\n        require(isProcess(process),\"no process\");\r\n        Process(process).rateByMitigator(rating);\r\n        \r\n        return process;\r\n    }\r\n    \r\n    function rateByTarget(address payable process,uint rating) \r\n    public\r\n    returns (address){\r\n        \r\n        require(isProcess(process),\"no process\");\r\n        Process(process).rateByTarget(rating);\r\n        \r\n        return process;\r\n    }\r\n   \r\n   \r\n\tfunction skipCurrentState(address payable process) public{\r\n\t\t\r\n\t}\r\n\r\n    function getProcesses() \r\n    public view \r\n    returns(address payable[] memory){\r\n        return CurrentProcesses;\r\n    }\r\n\t\r\n\tfunction getActors() \r\n    public view \r\n    returns(address payable[] memory){\r\n        return Actors;\r\n    }\r\n\r\n    function isProcess(address payable process) \r\n    private view \r\n    returns(bool){\r\n        for (uint i = 0 ; i < CurrentProcesses.length; i++) {\r\n            if(CurrentProcesses[i]==process){\r\n                return true;\r\n            }\r\n        }\r\n        return false;\r\n    }\r\n    \r\n    function addressIsActor(address actor) \r\n    private view \r\n    returns(bool){\r\n        for (uint i = 0 ; i < Actors.length; i++) {\r\n            if(Actors[i]==actor){\r\n                return true;\r\n            }\r\n        }\r\n        return false;\r\n    }\r\n\t\r\n\tfunction getActorIndexFromOwner(address payable owner) \r\n    private view \r\n    returns(uint){\r\n        for (uint i = 0 ; i < Actors.length; i++) {\r\n            if(IActor(Actors[i]).getOwner()==owner){\r\n                return i;\r\n            }\r\n        }\r\n        return 0;\r\n    }\r\n\t\r\n\tfunction ownerIsActor(address payable owner) \r\n    private view \r\n    returns(bool){\r\n        for (uint i = 0 ; i < Actors.length; i++) {\r\n            if(IActor(Actors[i]).getOwner()==owner){\r\n                return true;\r\n            }\r\n        }\r\n        return false;\r\n    }\r\n\t\r\n\tfunction getActor(address payable owner) \r\n    private view \r\n    returns(address payable){\r\n        for (uint i = 0 ; i < Actors.length; i++) {\r\n            if(IActor(Actors[i]).getOwner()==owner){\r\n                return Actors[i];\r\n            }\r\n        }\r\n\t\treturn address(0);\r\n    }\r\n}",
  "sourcePath": "C:/Code/Private/MBM/contracts/Protocol.sol",
  "compiler": {
    "name": "solc",
    "version": "0.5.0+commit.1d4f565a.Emscripten.clang"
  },
  "schemaVersion": "3.0.1",
  "updatedAt": "2019-02-07T21:19:52.045Z",
  "devdoc": {
    "methods": {}
  },
  "userdoc": {
    "methods": {}
  }
}