{
  "contractName": "Protocol",
  "abi": [
    {
      "payable": true,
      "stateMutability": "payable",
      "type": "fallback"
    },
    {
      "anonymous": false,
      "inputs": [
        {
          "indexed": false,
          "name": "_from",
          "type": "address"
        },
        {
          "indexed": false,
          "name": "addr",
          "type": "address"
        }
      ],
      "name": "ProcessCreated",
      "type": "event",
      "signature": "0x6e7faf61cfe268d7ba9b653ca2ccad3dc13a03d89863baa45e6de18e50596fc9"
    },
    {
      "anonymous": false,
      "inputs": [
        {
          "indexed": false,
          "name": "_from",
          "type": "address"
        },
        {
          "indexed": false,
          "name": "addr",
          "type": "address"
        }
      ],
      "name": "ActorCreated",
      "type": "event",
      "signature": "0xc5670063c168f180a7b2c6f5900d3e21ebf6b0b7cfb9912d5cbb57fc1b15bf0d"
    },
    {
      "anonymous": false,
      "inputs": [
        {
          "indexed": false,
          "name": "value",
          "type": "uint256"
        }
      ],
      "name": "FundsReceived",
      "type": "event",
      "signature": "0xbcdc7071c1beb6dcf2744621e0b29a2f2432ee20812d9ca5e3d5e8f9308d93a3"
    },
    {
      "constant": false,
      "inputs": [
        {
          "name": "_Owner",
          "type": "address"
        },
        {
          "name": "PricePerUnit",
          "type": "uint256"
        },
        {
          "name": "NetworkName",
          "type": "string"
        }
      ],
      "name": "registerActor",
      "outputs": [],
      "payable": false,
      "stateMutability": "nonpayable",
      "type": "function",
      "signature": "0x103647fc"
    },
    {
      "constant": false,
      "inputs": [
        {
          "name": "_Owner",
          "type": "address"
        }
      ],
      "name": "deleteActor",
      "outputs": [],
      "payable": false,
      "stateMutability": "nonpayable",
      "type": "function",
      "signature": "0x00ed7026"
    },
    {
      "constant": false,
      "inputs": [
        {
          "name": "_MitigatorOwner",
          "type": "address"
        },
        {
          "name": "_DeadlineInterval",
          "type": "uint256"
        },
        {
          "name": "_OfferedFunds",
          "type": "uint256"
        },
        {
          "name": "_ListOfAddresses",
          "type": "string"
        },
        {
          "name": "_NumberOfAddresses",
          "type": "uint256"
        }
      ],
      "name": "init",
      "outputs": [],
      "payable": false,
      "stateMutability": "nonpayable",
      "type": "function",
      "signature": "0x3d99bdc7"
    },
    {
      "constant": false,
      "inputs": [
        {
          "name": "process",
          "type": "address"
        },
        {
          "name": "descision",
          "type": "bool"
        }
      ],
      "name": "approve",
      "outputs": [],
      "payable": false,
      "stateMutability": "nonpayable",
      "type": "function",
      "signature": "0x3d140d21"
    },
    {
      "constant": false,
      "inputs": [
        {
          "name": "process",
          "type": "address"
        }
      ],
      "name": "sendFunds",
      "outputs": [],
      "payable": true,
      "stateMutability": "payable",
      "type": "function",
      "signature": "0xcfe52bdd"
    },
    {
      "constant": false,
      "inputs": [
        {
          "name": "process",
          "type": "address"
        },
        {
          "name": "proof",
          "type": "string"
        }
      ],
      "name": "uploadProof",
      "outputs": [],
      "payable": false,
      "stateMutability": "nonpayable",
      "type": "function",
      "signature": "0xc369ac92"
    },
    {
      "constant": false,
      "inputs": [
        {
          "name": "process",
          "type": "address"
        },
        {
          "name": "rating",
          "type": "uint256"
        }
      ],
      "name": "rateByMitigator",
      "outputs": [],
      "payable": false,
      "stateMutability": "nonpayable",
      "type": "function",
      "signature": "0x812eea00"
    },
    {
      "constant": false,
      "inputs": [
        {
          "name": "process",
          "type": "address"
        },
        {
          "name": "rating",
          "type": "uint256"
        }
      ],
      "name": "rateByTarget",
      "outputs": [],
      "payable": false,
      "stateMutability": "nonpayable",
      "type": "function",
      "signature": "0xd8ca0356"
    },
    {
      "constant": true,
      "inputs": [],
      "name": "getProcesses",
      "outputs": [
        {
          "name": "",
          "type": "address[]"
        }
      ],
      "payable": false,
      "stateMutability": "view",
      "type": "function",
      "signature": "0x6e52b239"
    },
    {
      "constant": true,
      "inputs": [],
      "name": "getActors",
      "outputs": [
        {
          "name": "",
          "type": "address[]"
        }
      ],
      "payable": false,
      "stateMutability": "view",
      "type": "function",
      "signature": "0x137e7a7d"
    }
  ],
  "bytecode": "0x608060405234801561001057600080fd5b50613af8806100206000396000f3fe608060405260043610620000945763ffffffff60e060020a600035041662ed70268114620000c9578063103647fc1462000102578063137e7a7d14620001d15780633d140d21146200023b5780633d99bdc7146200027a5780636e52b2391462000352578063812eea00146200036a578063c369ac9214620003a7578063cfe52bdd1462000471578063d8ca0356146200049a575b6040805134815290517fbcdc7071c1beb6dcf2744621e0b29a2f2432ee20812d9ca5e3d5e8f9308d93a39181900360200190a1005b348015620000d657600080fd5b506200010060048036036020811015620000ef57600080fd5b5035600160a060020a0316620004d7565b005b3480156200010f57600080fd5b5062000100600480360360608110156200012857600080fd5b600160a060020a03823516916020810135918101906060810160408201356401000000008111156200015957600080fd5b8201836020820111156200016c57600080fd5b803590602001918460018302840111640100000000831117156200018f57600080fd5b91908080601f01602080910402602001604051908101604052809392919081815260200183838082843760009201919091525092955062000739945050505050565b348015620001de57600080fd5b50620001e96200099e565b60408051602080825283518183015283519192839290830191858101910280838360005b83811015620002275781810151838201526020016200020d565b505050509050019250505060405180910390f35b3480156200024857600080fd5b5062000100600480360360408110156200026157600080fd5b50600160a060020a038135169060200135151562000a03565b3480156200028757600080fd5b5062000100600480360360a0811015620002a057600080fd5b600160a060020a038235169160208101359160408201359190810190608081016060820135640100000000811115620002d857600080fd5b820183602082011115620002eb57600080fd5b803590602001918460018302840111640100000000831117156200030e57600080fd5b91908080601f016020809104026020016040519081016040528093929190818152602001838380828437600092019190915250929550509135925062000ad4915050565b3480156200035f57600080fd5b50620001e962000f6b565b3480156200037757600080fd5b5062000100600480360360408110156200039057600080fd5b50600160a060020a03813516906020013562000fcd565b348015620003b457600080fd5b506200010060048036036040811015620003cd57600080fd5b600160a060020a038235169190810190604081016020820135640100000000811115620003f957600080fd5b8201836020820111156200040c57600080fd5b803590602001918460018302840111640100000000831117156200042f57600080fd5b91908080601f01602080910402602001604051908101604052809392919081815260200183838082843760009201919091525092955062001068945050505050565b62000100600480360360208110156200048957600080fd5b5035600160a060020a03166200117c565b348015620004a757600080fd5b506200010060048036036040811015620004c057600080fd5b50600160a060020a0381351690602001356200125f565b600160a060020a03811633146200055e576040805160e560020a62461bcd02815260206004820152602860248201527f5468652073656e646572206973206e6f7420746865206f776e6572206f66207460448201527f6865206163746f72000000000000000000000000000000000000000000000000606482015290519081900360840190fd5b6200056981620012fa565b1515620005c0576040805160e560020a62461bcd02815260206004820152601560248201527f4f776e6572206973206e6f7420616e206163746f720000000000000000000000604482015290519081900360640190fd5b620005cb81620013e3565b151562000648576040805160e560020a62461bcd02815260206004820152602b60248201527f5468652073656e64657220697320696e766f6c76656420696e20616e2061637460448201527f6976652070726f63657373000000000000000000000000000000000000000000606482015290519081900360840190fd5b6000620006558262001689565b600154909150600010620006b3576040805160e560020a62461bcd02815260206004820152601060248201527f456d707479206163746f72206c69737400000000000000000000000000000000604482015290519081900360640190fd5b600080546000198101908110620006c657fe5b60009182526020822001548154600160a060020a03909116919083908110620006eb57fe5b60009182526020822001805473ffffffffffffffffffffffffffffffffffffffff1916600160a060020a03939093169290921790915580546000190190620007349082620018be565b505050565b6200074483620012fa565b15620007c0576040805160e560020a62461bcd02815260206004820152603660248201527f5468652070726f7669646564206164647265737320697320616c72656164792060448201527f7265676973746572656420617320616e206163746f7200000000000000000000606482015290519081900360840190fd5b600160a060020a038316331462000847576040805160e560020a62461bcd02815260206004820152602a60248201527f5468652073656e646572206973206e6f7420746865206f776e6572206f66207460448201527f6865206164647265737300000000000000000000000000000000000000000000606482015290519081900360840190fd5b600083838362000856620018e5565b8084600160a060020a0316600160a060020a0316815260200183815260200180602001828103825283818151815260200191508051906020019080838360005b83811015620008b057818101518382015260200162000896565b50505050905090810190601f168015620008de5780820380516001836020036101000a031916815260200191505b50945050505050604051809103906000f08015801562000902573d6000803e3d6000fd5b50600080546001810182559080527f290decd9548b62a8d60345a988386fc84ba6bc95484008f6362f93160ef3e56301805473ffffffffffffffffffffffffffffffffffffffff1916600160a060020a03831690811790915560408051338152602081019290925280519293507fc5670063c168f180a7b2c6f5900d3e21ebf6b0b7cfb9912d5cbb57fc1b15bf0d92918290030190a150505050565b60606000805480602002602001604051908101604052809291908181526020018280548015620009f857602002820191906000526020600020905b8154600160a060020a03168152600190910190602001808311620009d9575b505050505090505b90565b62000a0e8262001764565b151562000a54576040805160e560020a62461bcd02815260206004820152600a602482015260008051602062003aad833981519152604482015290519081900360640190fd5b604080517f09b67f8e00000000000000000000000000000000000000000000000000000000815282151560048201529051600160a060020a038416916309b67f8e91602480830192600092919082900301818387803b15801562000ab757600080fd5b505af115801562000acc573d6000803e3d6000fd5b505050505050565b815160001062000b2e576040805160e560020a62461bcd02815260206004820152601560248201527f6e6f206164647265737365732070726f76696465640000000000000000000000604482015290519081900360640190fd5b62000b3985620012fa565b151562000b90576040805160e560020a62461bcd02815260206004820152601360248201527f4e6f2072656769737465726564206163746f7200000000000000000000000000604482015290519081900360640190fd5b62000b9b33620012fa565b151562000c17576040805160e560020a62461bcd028152602060048201526024808201527f53656e646572206973206e6f74207265676973746572656420617320616e206160448201527f63746f7200000000000000000000000000000000000000000000000000000000606482015290519081900360840190fd5b33600160a060020a038616141562000c9e576040805160e560020a62461bcd028152602060048201526024808201527f53656e64657220616e64207461726765742063616e6e6f74206265207468652060448201527f73616d6500000000000000000000000000000000000000000000000000000000606482015290519081900360840190fd5b600062000cab86620017bd565b905080600160a060020a031663a5ebeaa485846040518363ffffffff1660e060020a028152600401808381526020018281526020019250505060206040518083038186803b15801562000cfd57600080fd5b505afa15801562000d12573d6000803e3d6000fd5b505050506040513d602081101562000d2957600080fd5b5051151562000d82576040805160e560020a62461bcd02815260206004820152600d60248201527f46756e647320746f6f206c6f7700000000000000000000000000000000000000604482015290519081900360640190fd5b600062000d8e620018f6565b604051809103906000f08015801562000dab573d6000803e3d6000fd5b50905080600160a060020a03166374f09bd062000dc833620017bd565b62000dd38a620017bd565b89888a6040518663ffffffff1660e060020a0281526004018086600160a060020a0316600160a060020a0316815260200185600160a060020a0316600160a060020a0316815260200184815260200180602001838152602001828103825284818151815260200191508051906020019080838360005b8381101562000e6357818101518382015260200162000e49565b50505050905090810190601f16801562000e915780820380516001836020036101000a031916815260200191505b509650505050505050600060405180830381600087803b15801562000eb557600080fd5b505af115801562000eca573d6000803e3d6000fd5b50506001805480820182556000919091527fb10e2d527612073b26eecdfd717e6a320cf44b4afac2b0732d9fcbe2b7fa0cf601805473ffffffffffffffffffffffffffffffffffffffff1916600160a060020a03851690811790915560408051338152602081019290925280517f6e7faf61cfe268d7ba9b653ca2ccad3dc13a03d89863baa45e6de18e50596fc9945091829003019150a150505050505050565b60606001805480602002602001604051908101604052809291908181526020018280548015620009f857602002820191906000526020600020908154600160a060020a03168152600190910190602001808311620009d9575050505050905090565b62000fd88262001764565b15156200101e576040805160e560020a62461bcd02815260206004820152600a602482015260008051602062003aad833981519152604482015290519081900360640190fd5b81600160a060020a0316630a1b0034826040518263ffffffff1660e060020a02815260040180828152602001915050600060405180830381600087803b15801562000ab757600080fd5b620010738262001764565b1515620010b9576040805160e560020a62461bcd02815260206004820152600a602482015260008051602062003aad833981519152604482015290519081900360640190fd5b6040517f2f3b7958000000000000000000000000000000000000000000000000000000008152602060048201818152835160248401528351600160a060020a03861693632f3b79589386939283926044019185019080838360005b838110156200112e57818101518382015260200162001114565b50505050905090810190601f1680156200115c5780820380516001836020036101000a031916815260200191505b5092505050600060405180830381600087803b15801562000ab757600080fd5b620011878162001764565b1515620011cd576040805160e560020a62461bcd02815260206004820152600a602482015260008051602062003aad833981519152604482015290519081900360640190fd5b604051600160a060020a038216903480156108fc02916000818181858888f1935050505015801562001203573d6000803e3d6000fd5b5080600160a060020a0316638d68cf596040518163ffffffff1660e060020a028152600401600060405180830381600087803b1580156200124357600080fd5b505af115801562001258573d6000803e3d6000fd5b5050505050565b6200126a8262001764565b1515620012b0576040805160e560020a62461bcd02815260206004820152600a602482015260008051602062003aad833981519152604482015290519081900360640190fd5b81600160a060020a0316632350e71a826040518263ffffffff1660e060020a02815260040180828152602001915050600060405180830381600087803b15801562000ab757600080fd5b6000805b600054811015620013d85782600160a060020a03166000828154811015156200132357fe5b60009182526020918290200154604080517f893d20e80000000000000000000000000000000000000000000000000000000081529051600160a060020a039092169263893d20e892600480840193829003018186803b1580156200138657600080fd5b505afa1580156200139b573d6000803e3d6000fd5b505050506040513d6020811015620013b257600080fd5b5051600160a060020a03161415620013cf576001915050620013de565b600101620012fe565b50600090505b919050565b6000805b600154811015620016805760006001828154811015156200140457fe5b60009182526020918290200154604080517f3bc5de300000000000000000000000000000000000000000000000000000000081529051600160a060020a0390921692633bc5de3092600480840193829003018186803b1580156200146757600080fd5b505afa1580156200147c573d6000803e3d6000fd5b505050506040513d60208110156200149357600080fd5b5051600180549192509083908110620014a857fe5b60009182526020918290200154604080517f7b3529620000000000000000000000000000000000000000000000000000000081529051600160a060020a0390921692637b35296292600480840193829003018186803b1580156200150b57600080fd5b505afa15801562001520573d6000803e3d6000fd5b505050506040513d60208110156200153757600080fd5b5051151562001676576200154b84620017bd565b600160a060020a031681600160a060020a031663f00e6a2a6040518163ffffffff1660e060020a02815260040160206040518083038186803b1580156200159157600080fd5b505afa158015620015a6573d6000803e3d6000fd5b505050506040513d6020811015620015bd57600080fd5b5051600160a060020a03161415620015db57600092505050620013de565b620015e684620017bd565b600160a060020a031681600160a060020a03166350b1be266040518163ffffffff1660e060020a02815260040160206040518083038186803b1580156200162c57600080fd5b505afa15801562001641573d6000803e3d6000fd5b505050506040513d60208110156200165857600080fd5b5051600160a060020a031614156200167657600092505050620013de565b50600101620013e7565b50600192915050565b6000805b600054811015620013d85782600160a060020a0316600082815481101515620016b257fe5b60009182526020918290200154604080517f893d20e80000000000000000000000000000000000000000000000000000000081529051600160a060020a039092169263893d20e892600480840193829003018186803b1580156200171557600080fd5b505afa1580156200172a573d6000803e3d6000fd5b505050506040513d60208110156200174157600080fd5b5051600160a060020a031614156200175b579050620013de565b6001016200168d565b6000805b600154811015620013d85782600160a060020a03166001828154811015156200178d57fe5b600091825260209091200154600160a060020a03161415620017b4576001915050620013de565b60010162001768565b6000805b600054811015620013d85782600160a060020a0316600082815481101515620017e657fe5b60009182526020918290200154604080517f893d20e80000000000000000000000000000000000000000000000000000000081529051600160a060020a039092169263893d20e892600480840193829003018186803b1580156200184957600080fd5b505afa1580156200185e573d6000803e3d6000fd5b505050506040513d60208110156200187557600080fd5b5051600160a060020a03161415620018b55760008054829081106200189657fe5b600091825260209091200154600160a060020a03169150620013de9050565b600101620017c1565b81548183558181111562000734576000838152602090206200073491810190830162001907565b6040516105a8806200192983390190565b604051611bdc8062001ed183390190565b62000a0091905b808211156200192457600081556001016200190e565b509056fe60806040526040516105a83803806105a88339810180604052606081101561002657600080fd5b815160208301516040840180519294919382019264010000000081111561004c57600080fd5b8201602081018481111561005f57600080fd5b815164010000000081118282018710171561007957600080fd5b505060008054600160a060020a031916600160a060020a038816179055600185905580519093506100b392506002915060208401906100bc565b50505050610157565b828054600181600116156101000203166002900490600052602060002090601f016020900481019282601f106100fd57805160ff191683800117855561012a565b8280016001018555821561012a579182015b8281111561012a57825182559160200191906001019061010f565b5061013692915061013a565b5090565b61015491905b808211156101365760008155600101610140565b90565b610442806101666000396000f3fe60806040526004361061006c5763ffffffff7c010000000000000000000000000000000000000000000000000000000060003504166307e4b7e981146100a15780633c68eb811461012b578063893d20e814610142578063a5ebeaa414610180578063a7cc53f5146101c4575b6040805134815290517fda14d97fee42955b019b78f3cb092a8bea2d0a82e7c507f5e0aaecd366fd64e99181900360200190a1005b3480156100ad57600080fd5b506100b66101eb565b6040805160208082528351818301528351919283929083019185019080838360005b838110156100f05781810151838201526020016100d8565b50505050905090810190601f16801561011d5780820380516001836020036101000a031916815260200191505b509250505060405180910390f35b34801561013757600080fd5b5061014061027e565b005b34801561014e57600080fd5b5061015761034f565b6040805173ffffffffffffffffffffffffffffffffffffffff9092168252519081900360200190f35b34801561018c57600080fd5b506101b0600480360360408110156101a357600080fd5b508035906020013561036b565b604080519115158252519081900360200190f35b3480156101d057600080fd5b506101d9610410565b60408051918252519081900360200190f35b60028054604080516020601f60001961010060018716150201909416859004938401819004810282018101909252828152606093909290918301828280156102745780601f1061024957610100808354040283529160200191610274565b820191906000526020600020905b81548152906001019060200180831161025757829003601f168201915b5050505050905090565b60005473ffffffffffffffffffffffffffffffffffffffff16331461030457604080517f08c379a000000000000000000000000000000000000000000000000000000000815260206004820152601b60248201527f53656e646572206e6f742061626c6520746f2077697468647261770000000000604482015290519081900360640190fd5b6000805460405173ffffffffffffffffffffffffffffffffffffffff90911691303180156108fc02929091818181858888f1935050505015801561034c573d6000803e3d6000fd5b50565b60005473ffffffffffffffffffffffffffffffffffffffff1690565b600154600090820283101561040757604080517f08c379a000000000000000000000000000000000000000000000000000000000815260206004820152602d60248201527f4f666665722077617320746f6f206c6f772c20706c656173652070726f76696460448201527f65206d6f72652066756e64732e00000000000000000000000000000000000000606482015290519081900360840190fd5b50600192915050565b6001549056fea165627a7a72305820709ddd40ccdc5989967c5ada5355a31d8dd7ceaa629b0ecaa69cb689f38245f2002960806040526001805460a060020a60ff0219169055611bb9806100236000396000f3fe60806040526004361061007f5763ffffffff60e060020a60003504166309b67f8e81146100b45780630a1b0034146100e25780631865c57d1461010c5780632350e71a1461013d5780632f3b7958146101675780633bc5de301461021a57806374f09bd01461022f5780637b352962146103045780638d68cf591461032d575b6040805134815290517fb681f2e66431088ff7f54e86cad35d2f1437303f9459aa46ea86d2b5c2a5f41d9181900360200190a1005b3480156100c057600080fd5b506100e0600480360360208110156100d757600080fd5b50351515610342565b005b3480156100ee57600080fd5b506100e06004803603602081101561010557600080fd5b5035610535565b34801561011857600080fd5b506101216107d6565b60408051600160a060020a039092168252519081900360200190f35b34801561014957600080fd5b506100e06004803603602081101561016057600080fd5b50356107e5565b34801561017357600080fd5b506100e06004803603602081101561018a57600080fd5b8101906020810181356401000000008111156101a557600080fd5b8201836020820111156101b757600080fd5b803590602001918460018302840111640100000000831117156101d957600080fd5b91908080601f016020809104026020016040519081016040528093929190818152602001838380828437600092019190915250929550610a47945050505050565b34801561022657600080fd5b50610121610b6c565b34801561023b57600080fd5b506100e0600480360360a081101561025257600080fd5b600160a060020a0382358116926020810135909116916040820135919081019060808101606082013564010000000081111561028d57600080fd5b82018360208201111561029f57600080fd5b803590602001918460018302840111640100000000831117156102c157600080fd5b91908080601f0160208091040260200160405190810160405280939291908181526020018383808284376000920191909152509295505091359250610b7b915050565b34801561031057600080fd5b50610319610ea0565b604080519115158252519081900360200190f35b34801561033957600080fd5b506100e0610ec1565b6001805460a860020a900460ff16600981111561035b57fe5b1461039e576040805160e560020a62461bcd0281526020600482015260146024820152600080516020611b6e833981519152604482015290519081900360640190fd5b60008054604080517f972213ad00000000000000000000000000000000000000000000000000000000815284151560048201529051600160a060020a039092169263972213ad926024808401936020939083900390910190829087803b15801561040757600080fd5b505af115801561041b573d6000803e3d6000fd5b505050506040513d602081101561043157600080fd5b50516001805460a860020a60ff02191660a860020a83600981111561045257fe5b021790555060015460405160e160020a633652585502815273__StateFactory__________________________91636ca4b0aa9160ff60a860020a83041691600160a060020a031690600401808360098111156104ab57fe5b60ff16815260200182600160a060020a0316600160a060020a031681526020019250505060206040518083038186803b1580156104e757600080fd5b505af41580156104fb573d6000803e3d6000fd5b505050506040513d602081101561051157600080fd5b505160008054600160a060020a031916600160a060020a0390921691909117905550565b600560015460a860020a900460ff16600981111561054f57fe5b14610592576040805160e560020a62461bcd0281526020600482015260146024820152600080516020611b6e833981519152604482015290519081900360640190fd5b60008054604080517ffe0d94c1000000000000000000000000000000000000000000000000000000008152600481018590529051600160a060020a039092169263fe0d94c1926024808401936020939083900390910190829087803b1580156105fa57600080fd5b505af115801561060e573d6000803e3d6000fd5b505050506040513d602081101561062457600080fd5b50516001805460a860020a60ff02191660a860020a83600981111561064557fe5b021790555060015460405160e160020a633652585502815273__StateFactory__________________________91636ca4b0aa9160ff60a860020a83041691600160a060020a0316906004018083600981111561069e57fe5b60ff16815260200182600160a060020a0316600160a060020a031681526020019250505060206040518083038186803b1580156106da57600080fd5b505af41580156106ee573d6000803e3d6000fd5b505050506040513d602081101561070457600080fd5b505160008054600160a060020a031916600160a060020a0392831617808255604080517f614619540000000000000000000000000000000000000000000000000000000081529051919093169263614619549260048083019360209390929083900390910190829087803b15801561077b57600080fd5b505af115801561078f573d6000803e3d6000fd5b505050506040513d60208110156107a557600080fd5b50516001805460a860020a60ff02191660a860020a8360098111156107c657fe5b02179055506107d36110d8565b50565b600054600160a060020a031690565b600460015460a860020a900460ff1660098111156107ff57fe5b14610842576040805160e560020a62461bcd0281526020600482015260146024820152600080516020611b6e833981519152604482015290519081900360640190fd5b60008054604080517ffe0d94c1000000000000000000000000000000000000000000000000000000008152600481018590529051600160a060020a039092169263fe0d94c1926024808401936020939083900390910190829087803b1580156108aa57600080fd5b505af11580156108be573d6000803e3d6000fd5b505050506040513d60208110156108d457600080fd5b50516001805460a860020a60ff02191660a860020a8360098111156108f557fe5b021790555060015460405160e160020a633652585502815273__StateFactory__________________________91636ca4b0aa9160ff60a860020a83041691600160a060020a0316906004018083600981111561094e57fe5b60ff16815260200182600160a060020a0316600160a060020a031681526020019250505060206040518083038186803b15801561098a57600080fd5b505af415801561099e573d6000803e3d6000fd5b505050506040513d60208110156109b457600080fd5b505160008054600160a060020a031916600160a060020a03909216919091179055600660015460a860020a900460ff1660098111156109ef57fe5b14156107d3576000809054906101000a9004600160a060020a0316600160a060020a031663614619546040518163ffffffff1660e060020a028152600401602060405180830381600087803b15801561077b57600080fd5b600360015460a860020a900460ff166009811115610a6157fe5b14610aa4576040805160e560020a62461bcd0281526020600482015260146024820152600080516020611b6e833981519152604482015290519081900360640190fd5b600080546040517fbd590d7e000000000000000000000000000000000000000000000000000000008152602060048201818152855160248401528551600160a060020a039094169463bd590d7e948794929384936044019290860191908190849084905b83811015610b20578181015183820152602001610b08565b50505050905090810190601f168015610b4d5780820380516001836020036101000a031916815260200191505b5092505050602060405180830381600087803b15801561040757600080fd5b600154600160a060020a031690565b8484848484610b886111ec565b8086600160a060020a0316600160a060020a0316815260200185600160a060020a0316600160a060020a0316815260200184815260200180602001838152602001828103825284818151815260200191508051906020019080838360005b83811015610bfe578181015183820152602001610be6565b50505050905090810190601f168015610c2b5780820380516001836020036101000a031916815260200191505b509650505050505050604051809103906000f080158015610c50573d6000803e3d6000fd5b5060018054600160a060020a031916600160a060020a0392831617908190556040805160e160020a633652585502815260006004820152919092166024820152905173__StateFactory__________________________91636ca4b0aa916044808301926020929190829003018186803b158015610ccd57600080fd5b505af4158015610ce1573d6000803e3d6000fd5b505050506040513d6020811015610cf757600080fd5b505160008054600160a060020a031916600160a060020a0392831617808255604080517f614619540000000000000000000000000000000000000000000000000000000081529051919093169263614619549260048083019360209390929083900390910190829087803b158015610d6e57600080fd5b505af1158015610d82573d6000803e3d6000fd5b505050506040513d6020811015610d9857600080fd5b50516001805460a860020a60ff02191660a860020a836009811115610db957fe5b021790555060015460405160e160020a633652585502815273__StateFactory__________________________91636ca4b0aa9160ff60a860020a83041691600160a060020a03169060040180836009811115610e1257fe5b60ff16815260200182600160a060020a0316600160a060020a031681526020019250505060206040518083038186803b158015610e4e57600080fd5b505af4158015610e62573d6000803e3d6000fd5b505050506040513d6020811015610e7857600080fd5b505160008054600160a060020a031916600160a060020a039092169190911790555050505050565b60015474010000000000000000000000000000000000000000900460ff1690565b600260015460a860020a900460ff166009811115610edb57fe5b14610f1e576040805160e560020a62461bcd0281526020600482015260146024820152600080516020611b6e833981519152604482015290519081900360640190fd5b600154604051600160a060020a0390911690303180156108fc02916000818181858888f19350505050158015610f58573d6000803e3d6000fd5b506000809054906101000a9004600160a060020a0316600160a060020a031663614619546040518163ffffffff1660e060020a028152600401602060405180830381600087803b158015610fab57600080fd5b505af1158015610fbf573d6000803e3d6000fd5b505050506040513d6020811015610fd557600080fd5b50516001805460a860020a60ff02191660a860020a836009811115610ff657fe5b021790555060015460405160e160020a633652585502815273__StateFactory__________________________91636ca4b0aa9160ff60a860020a83041691600160a060020a0316906004018083600981111561104f57fe5b60ff16815260200182600160a060020a0316600160a060020a031681526020019250505060206040518083038186803b15801561108b57600080fd5b505af415801561109f573d6000803e3d6000fd5b505050506040513d60208110156110b557600080fd5b505160008054600160a060020a031916600160a060020a03909216919091179055565b60015460405160e160020a633652585502815273__StateFactory__________________________91636ca4b0aa9160ff60a860020a83041691600160a060020a0316906004018083600981111561112c57fe5b60ff16815260200182600160a060020a0316600160a060020a031681526020019250505060206040518083038186803b15801561116857600080fd5b505af415801561117c573d6000803e3d6000fd5b505050506040513d602081101561119257600080fd5b505160008054600160a060020a03909216600160a060020a03199092169190911790556001805474ff0000000000000000000000000000000000000000191674010000000000000000000000000000000000000000179055565b604051610971806111fd8339019056fe4260035560a060408190526000608081905261001d916006916100fe565b50604051610971380380610971833981018060405260a081101561004057600080fd5b815160208301516040840151606085018051939592949193918301929164010000000081111561006f57600080fd5b8201602081018481111561008257600080fd5b815164010000000081118282018710171561009c57600080fd5b505060209182015160008054600160a060020a03808b16600160a060020a03199283161790925560018054928a16929091169190911790556002869055815191945092506100f091600591908501906100fe565b506007555061019992505050565b828054600181600116156101000203166002900490600052602060002090601f016020900481019282601f1061013f57805160ff191683800117855561016c565b8280016001018555821561016c579182015b8281111561016c578251825591602001919060010190610151565b5061017892915061017c565b5090565b61019691905b808211156101785760008155600101610182565b90565b6107c9806101a86000396000f3fe6080604052600436106100e55763ffffffff7c010000000000000000000000000000000000000000000000000000000060003504166311adbaad811461011a57806315336f80146101a45780631dc9b28414610259578063439f5ac21461028657806350b1be26146102ad5780635c5d625e146102eb578063620ae1c71461030057806376be6af6146103295780638271bb351461033e57806390f3213d146103535780639ed5b5021461038c578063a3bbb090146103a1578063ae892157146103ce578063c828371e146103e3578063e39ff19f146103f8578063f00e6a2a14610438575b6040805134815290517fe2bb324fa67410a9554929c8822a194d56941327668b8c7ceb61e7b3b2e016f49181900360200190a1005b34801561012657600080fd5b5061012f61044d565b6040805160208082528351818301528351919283929083019185019080838360005b83811015610169578181015183820152602001610151565b50505050905090810190601f1680156101965780820380516001836020036101000a031916815260200191505b509250505060405180910390f35b3480156101b057600080fd5b50610257600480360360208110156101c757600080fd5b8101906020810181356401000000008111156101e257600080fd5b8201836020820111156101f457600080fd5b8035906020019184600183028401116401000000008311171561021657600080fd5b91908080601f0160208091040260200160405190810160405280939291908181526020018383808284376000920191909152509295506104e4945050505050565b005b34801561026557600080fd5b506102576004803603602081101561027c57600080fd5b503560ff166104fb565b34801561029257600080fd5b5061029b61051e565b60408051918252519081900360200190f35b3480156102b957600080fd5b506102c2610524565b6040805173ffffffffffffffffffffffffffffffffffffffff9092168252519081900360200190f35b3480156102f757600080fd5b5061012f610540565b34801561030c57600080fd5b506103156105a1565b604080519115158252519081900360200190f35b34801561033557600080fd5b506102576105cf565b34801561034a57600080fd5b5061029b6105d5565b34801561035f57600080fd5b506103686105db565b6040518082600281111561037857fe5b60ff16815260200191505060405180910390f35b34801561039857600080fd5b506103686105e9565b3480156103ad57600080fd5b50610257600480360360208110156103c457600080fd5b503560ff166105f2565b3480156103da57600080fd5b5061029b61060b565b3480156103ef57600080fd5b5061029b610611565b34801561040457600080fd5b506102576004803603602081101561041b57600080fd5b503573ffffffffffffffffffffffffffffffffffffffff16610617565b34801561044457600080fd5b506102c26106e9565b60058054604080516020601f60026000196101006001881615020190951694909404938401819004810282018101909252828152606093909290918301828280156104d95780601f106104ae576101008083540402835291602001916104d9565b820191906000526020600020905b8154815290600101906020018083116104bc57829003601f168201915b505050505090505b90565b80516104f7906006906020840190610705565b5050565b6008805482919061ff00191661010083600281111561051657fe5b021790555050565b60045490565b60015473ffffffffffffffffffffffffffffffffffffffff1690565b60068054604080516020601f60026000196101006001881615020190951694909404938401819004810282018101909252828152606093909290918301828280156104d95780601f106104ae576101008083540402835291602001916104d9565b600080600680546001816001161561010002031660029004905011156105c9575060016104e1565b50600090565b42600455565b60075490565b600854610100900460ff1690565b60085460ff1690565b6008805482919060ff1916600183600281111561051657fe5b60025490565b60035490565b8073ffffffffffffffffffffffffffffffffffffffff1663893d20e86040518163ffffffff167c010000000000000000000000000000000000000000000000000000000002815260040160206040518083038186803b15801561067957600080fd5b505afa15801561068d573d6000803e3d6000fd5b505050506040513d60208110156106a357600080fd5b505160405173ffffffffffffffffffffffffffffffffffffffff90911690303180156108fc02916000818181858888f193505050501580156104f7573d6000803e3d6000fd5b60005473ffffffffffffffffffffffffffffffffffffffff1690565b828054600181600116156101000203166002900490600052602060002090601f016020900481019282601f1061074657805160ff1916838001178555610773565b82800160010185558215610773579182015b82811115610773578251825591602001919060010190610758565b5061077f929150610783565b5090565b6104e191905b8082111561077f576000815560010161078956fea165627a7a723058209fb207c9e4246cedb4dfa5630b33137a13a52f81ebc5fa64ca8fbd69f333fd2000295374617465206973206e6f7420636f7272656374000000000000000000000000a165627a7a72305820c919ffbedf1922bf0613c6e580fe9b4262fea827b826fa963f375587c1bd84d600296e6f2070726f6365737300000000000000000000000000000000000000000000a165627a7a72305820d9deb2c14ed982d4fb43a7d0fe54d2d54d5d75be9fb5624de2f56e69a181d99d0029",
  "source": "pragma solidity ^0.5.0;\r\n\r\nimport \"./Process.sol\";\r\nimport \"./IActor.sol\";\r\nimport \"./IData.sol\";\r\n\r\ncontract Protocol {\r\n\t\r\n    address payable[] private Actors;\r\n    address payable[] private CurrentProcesses;\r\n\r\n    event ProcessCreated(address _from, address addr);\r\n\tevent ActorCreated(address _from, address addr);\r\n\tevent FundsReceived(uint256 value);\r\n\t\r\n\tfunction() external payable{\r\n\t\temit FundsReceived(msg.value);\r\n\t}\r\n\r\n    function registerActor(address payable _Owner,uint256 PricePerUnit,string memory NetworkName) public{\r\n        require(!ownerIsActor(_Owner),\"The provided address is already registered as an actor\");\r\n\t\trequire(_Owner==msg.sender,\"The sender is not the owner of the address\");\r\n\t\tIActor _Actor = new IActor(_Owner,PricePerUnit,NetworkName);\r\n        Actors.push(address(_Actor));\r\n\t\temit ActorCreated(msg.sender,address(_Actor));\r\n    }\r\n\t\r\n\tfunction deleteActor(address payable _Owner) public{\r\n\t\trequire(_Owner == msg.sender,\"The sender is not the owner of the actor\");\r\n\t\trequire(ownerIsActor(_Owner),\"Owner is not an actor\");\r\n\t\trequire(notInActiveProcesses(_Owner),\"The sender is involved in an active process\");\r\n\t\tuint id = getActorIndexFromOwner(_Owner);\r\n\t\trequire(CurrentProcesses.length > 0,\"Empty actor list\");\r\n\t\tActors[id] = Actors[Actors.length-1];\r\n\t\tActors.length = Actors.length-1;\r\n    }\r\n\t\r\n\tfunction notInActiveProcesses(address payable _Owner) private view returns(bool){\r\n\r\n\t\tfor (uint i = 0 ; i < CurrentProcesses.length; i++) {\r\n\t\t\tIData Data = IData(Process(CurrentProcesses[i]).getData());\r\n\t\t\tif(!Process(CurrentProcesses[i]).isFinished()){\r\n\t\t\t\tif(Data.getTarget()==getActor(_Owner)){\r\n\t\t\t\t\treturn false;\r\n\t\t\t\t}\r\n\t\t\t\tif(Data.getMitigator()==getActor(_Owner)){\r\n\t\t\t\t\treturn false;\r\n\t\t\t\t}\r\n\t\t\t} \r\n        }\r\n\t\treturn true;\r\n\t}\r\n\t\r\n    function init(address payable _MitigatorOwner,uint _DeadlineInterval,uint256 _OfferedFunds,string memory _ListOfAddresses, uint _NumberOfAddresses) \r\n    public{\r\n        \r\n        require(bytes(_ListOfAddresses).length >0,\"no addresses provided\");\r\n        require(ownerIsActor(_MitigatorOwner),\"No registered actor\");\r\n\t\trequire(ownerIsActor(msg.sender),\"Sender is not registered as an actor\");\r\n\t\trequire(msg.sender!=_MitigatorOwner,\"Sender and target cannot be the same\");\r\n\t\tIActor _Mitigator = IActor(getActor(_MitigatorOwner));\r\n        require(_Mitigator.isOfferAcceptable(_OfferedFunds,_NumberOfAddresses),\"Funds too low\");\r\n        \r\n        Process newProcess = new Process();\r\n        newProcess.init(getActor(msg.sender),getActor(_MitigatorOwner),_DeadlineInterval,_ListOfAddresses,_OfferedFunds);\r\n        \r\n        CurrentProcesses.push(address(newProcess));\r\n\t\t\r\n\t\temit ProcessCreated(msg.sender,address(newProcess)); \r\n    }\r\n\r\n    function approve(address payable process,bool descision) \r\n    public{\r\n        \r\n        require(isProcess(process),\"no process\");\r\n        Process(process).approve(descision);\r\n    }\r\n    \r\n    function sendFunds(address payable process) \r\n    public\r\n\tpayable{\r\n        \r\n        require(isProcess(process),\"no process\");\r\n        process.transfer(msg.value);\r\n\t\tProcess(process).sendFunds();\r\n    }\r\n    \r\n    function uploadProof(address payable process,string memory proof) \r\n    public{\r\n        \r\n        require(isProcess(process),\"no process\");\r\n        Process(process).uploadProof(proof);\r\n    }\r\n    \r\n    function rateByMitigator(address payable process,uint rating) \r\n    public{\r\n        \r\n        require(isProcess(process),\"no process\");\r\n        Process(process).rateByMitigator(rating);\r\n    }\r\n    \r\n    function rateByTarget(address payable process,uint rating) \r\n    public{\r\n        \r\n        require(isProcess(process),\"no process\");\r\n        Process(process).rateByTarget(rating);\r\n    }\r\n\r\n    function getProcesses() \r\n    public view \r\n    returns(address payable[] memory){\r\n        return CurrentProcesses;\r\n    }\r\n\t\r\n\tfunction getActors() \r\n    public view \r\n    returns(address payable[] memory){\r\n        return Actors;\r\n    }\r\n\r\n    function isProcess(address payable process) \r\n    private view \r\n    returns(bool){\r\n        for (uint i = 0 ; i < CurrentProcesses.length; i++) {\r\n            if(CurrentProcesses[i]==process){\r\n                return true;\r\n            }\r\n        }\r\n        return false;\r\n    }\r\n    \r\n    function addressIsActor(address actor) \r\n    private view \r\n    returns(bool){\r\n        for (uint i = 0 ; i < Actors.length; i++) {\r\n            if(Actors[i]==actor){\r\n                return true;\r\n            }\r\n        }\r\n        return false;\r\n    }\r\n\t\r\n\tfunction getActorIndexFromOwner(address payable owner) \r\n    private view \r\n    returns(uint){\r\n        for (uint i = 0 ; i < Actors.length; i++) {\r\n            if(IActor(Actors[i]).getOwner()==owner){\r\n                return i;\r\n            }\r\n        }\r\n        return 0;\r\n    }\r\n\t\r\n\tfunction ownerIsActor(address payable owner) \r\n    private view \r\n    returns(bool){\r\n        for (uint i = 0 ; i < Actors.length; i++) {\r\n            if(IActor(Actors[i]).getOwner()==owner){\r\n                return true;\r\n            }\r\n        }\r\n        return false;\r\n    }\r\n\t\r\n\tfunction getActor(address payable owner) \r\n    private view \r\n    returns(address payable){\r\n        for (uint i = 0 ; i < Actors.length; i++) {\r\n            if(IActor(Actors[i]).getOwner()==owner){\r\n                return Actors[i];\r\n            }\r\n        }\r\n\t\treturn address(0);\r\n    }\r\n}",
  "sourcePath": "C:/Users/Dominik Bnzli/Documents/GitHub/CooperativeSignaling/contracts/Protocol.sol",
  "compiler": {
    "name": "solc",
    "version": "0.5.0+commit.1d4f565a.Emscripten.clang"
  },
  "schemaVersion": "3.0.1",
  "updatedAt": "2019-02-10T22:12:10.494Z",
  "devdoc": {
    "methods": {}
  },
  "userdoc": {
    "methods": {}
  }
}