{
  "contractName": "Protocol",
  "abi": [
    {
      "inputs": [],
      "payable": true,
      "stateMutability": "payable",
      "type": "constructor",
      "signature": "constructor"
    },
    {
      "payable": true,
      "stateMutability": "payable",
      "type": "fallback"
    },
    {
      "anonymous": false,
      "inputs": [
        {
          "indexed": false,
          "name": "_from",
          "type": "address"
        },
        {
          "indexed": false,
          "name": "addr",
          "type": "address"
        }
      ],
      "name": "ProcessCreated",
      "type": "event",
      "signature": "0x6e7faf61cfe268d7ba9b653ca2ccad3dc13a03d89863baa45e6de18e50596fc9"
    },
    {
      "anonymous": false,
      "inputs": [
        {
          "indexed": false,
          "name": "value",
          "type": "uint256"
        }
      ],
      "name": "FundsReceived",
      "type": "event",
      "signature": "0xbcdc7071c1beb6dcf2744621e0b29a2f2432ee20812d9ca5e3d5e8f9308d93a3"
    },
    {
      "constant": false,
      "inputs": [
        {
          "name": "_Mitigator",
          "type": "address"
        },
        {
          "name": "_DeadlineInterval",
          "type": "uint256"
        },
        {
          "name": "_OfferedFunds",
          "type": "uint256"
        },
        {
          "name": "_ListOfAddresses",
          "type": "string"
        }
      ],
      "name": "init",
      "outputs": [],
      "payable": false,
      "stateMutability": "nonpayable",
      "type": "function",
      "signature": "0x0386ebb0"
    },
    {
      "constant": false,
      "inputs": [
        {
          "name": "descision",
          "type": "bool"
        }
      ],
      "name": "approve",
      "outputs": [],
      "payable": false,
      "stateMutability": "nonpayable",
      "type": "function",
      "signature": "0x09b67f8e"
    },
    {
      "constant": false,
      "inputs": [],
      "name": "sendFunds",
      "outputs": [],
      "payable": true,
      "stateMutability": "payable",
      "type": "function",
      "signature": "0x8d68cf59"
    },
    {
      "constant": false,
      "inputs": [
        {
          "name": "_Proof",
          "type": "string"
        }
      ],
      "name": "uploadProof",
      "outputs": [],
      "payable": false,
      "stateMutability": "nonpayable",
      "type": "function",
      "signature": "0x2f3b7958"
    },
    {
      "constant": false,
      "inputs": [
        {
          "name": "_Rating",
          "type": "uint256"
        }
      ],
      "name": "ratingByTarget",
      "outputs": [],
      "payable": false,
      "stateMutability": "nonpayable",
      "type": "function",
      "signature": "0x85ad35bc"
    },
    {
      "constant": false,
      "inputs": [
        {
          "name": "_Rating",
          "type": "uint256"
        }
      ],
      "name": "ratingByMitigator",
      "outputs": [],
      "payable": false,
      "stateMutability": "nonpayable",
      "type": "function",
      "signature": "0x3a9d5a02"
    },
    {
      "constant": false,
      "inputs": [],
      "name": "setNewDeadline",
      "outputs": [],
      "payable": false,
      "stateMutability": "nonpayable",
      "type": "function",
      "signature": "0x20dc80a9"
    },
    {
      "constant": true,
      "inputs": [],
      "name": "getListOfAddresses",
      "outputs": [
        {
          "name": "",
          "type": "string"
        }
      ],
      "payable": false,
      "stateMutability": "view",
      "type": "function",
      "signature": "0x11adbaad"
    },
    {
      "constant": true,
      "inputs": [],
      "name": "getProof",
      "outputs": [
        {
          "name": "",
          "type": "string"
        }
      ],
      "payable": false,
      "stateMutability": "view",
      "type": "function",
      "signature": "0x5c5d625e"
    },
    {
      "constant": true,
      "inputs": [],
      "name": "getCurrentState",
      "outputs": [
        {
          "name": "",
          "type": "uint8"
        }
      ],
      "payable": false,
      "stateMutability": "view",
      "type": "function",
      "signature": "0x378aa701"
    },
    {
      "constant": true,
      "inputs": [],
      "name": "getTargetRating",
      "outputs": [
        {
          "name": "",
          "type": "uint8"
        }
      ],
      "payable": false,
      "stateMutability": "view",
      "type": "function",
      "signature": "0x9ed5b502"
    },
    {
      "constant": true,
      "inputs": [],
      "name": "getMitigatorRating",
      "outputs": [
        {
          "name": "",
          "type": "uint8"
        }
      ],
      "payable": false,
      "stateMutability": "view",
      "type": "function",
      "signature": "0x90f3213d"
    },
    {
      "constant": true,
      "inputs": [],
      "name": "getStartTime",
      "outputs": [
        {
          "name": "",
          "type": "uint256"
        }
      ],
      "payable": false,
      "stateMutability": "view",
      "type": "function",
      "signature": "0xc828371e"
    },
    {
      "constant": true,
      "inputs": [],
      "name": "getEndTime",
      "outputs": [
        {
          "name": "",
          "type": "uint256"
        }
      ],
      "payable": false,
      "stateMutability": "view",
      "type": "function",
      "signature": "0x439f5ac2"
    }
  ],
  "bytecode": "0x60806040524260065560008054600160a060020a03191633179055610f3f806100296000396000f3fe6080604052600436106100cf5763ffffffff7c01000000000000000000000000000000000000000000000000000000006000350416630386ebb0811461010457806309b67f8e146101d557806311adbaad1461020157806320dc80a91461028b5780632f3b7958146102a0578063378aa701146103535780633a9d5a021461038c578063439f5ac2146103b65780635c5d625e146103dd57806385ad35bc146103f25780638d68cf591461041c57806390f3213d146104245780639ed5b50214610449578063c828371e1461045e575b6040805134815290517fbcdc7071c1beb6dcf2744621e0b29a2f2432ee20812d9ca5e3d5e8f9308d93a39181900360200190a1005b34801561011057600080fd5b506101d36004803603608081101561012757600080fd5b600160a060020a03823516916020810135916040820135919081019060808101606082013564010000000081111561015e57600080fd5b82018360208201111561017057600080fd5b8035906020019184600183028401116401000000008311171561019257600080fd5b91908080601f016020809104026020016040519081016040528093929190818152602001838380828437600092019190915250929550610473945050505050565b005b3480156101e157600080fd5b506101d3600480360360208110156101f857600080fd5b5035151561056d565b34801561020d57600080fd5b50610216610676565b6040805160208082528351818301528351919283929083019185019080838360005b83811015610250578181015183820152602001610238565b50505050905090810190601f16801561027d5780820380516001836020036101000a031916815260200191505b509250505060405180910390f35b34801561029757600080fd5b506101d361070a565b3480156102ac57600080fd5b506101d3600480360360208110156102c357600080fd5b8101906020810181356401000000008111156102de57600080fd5b8201836020820111156102f057600080fd5b8035906020019184600183028401116401000000008311171561031257600080fd5b91908080601f016020809104026020016040519081016040528093929190818152602001838380828437600092019190915250929550610714945050505050565b34801561035f57600080fd5b50610368610839565b6040518082600881111561037857fe5b60ff16815260200191505060405180910390f35b34801561039857600080fd5b506101d3600480360360208110156103af57600080fd5b5035610849565b3480156103c257600080fd5b506103cb610948565b60408051918252519081900360200190f35b3480156103e957600080fd5b5061021661094e565b3480156103fe57600080fd5b506101d36004803603602081101561041557600080fd5b50356109af565b6101d3610b30565b34801561043057600080fd5b50610439610c68565b6040518082600281111561037857fe5b34801561045557600080fd5b50610439610c76565b34801561046a57600080fd5b506103cb610c7f565b600054600160a060020a031633146104c3576040805160e560020a62461bcd02815260206004820152601c6024820152600080516020610ef4833981519152604482015290519081900360640190fd5b60018054600160a060020a03861673ffffffffffffffffffffffffffffffffffffffff19918216179091556000805490911633179055600883905560048290558051610516906002906020840190610e3b565b506001805460a060020a60ff02191660a060020a1790556040805133815230602082015281517f6e7faf61cfe268d7ba9b653ca2ccad3dc13a03d89863baa45e6de18e50596fc9929181900390910190a150505050565b600154600160a060020a031633146105bd576040805160e560020a62461bcd02815260206004820152601c6024820152600080516020610ef4833981519152604482015290519081900360640190fd5b6001805460a060020a900460ff1660088111156105d657fe5b14610619576040805160e560020a62461bcd0281526020600482015260186024820152600080516020610ed4833981519152604482015290519081900360640190fd5b801561064b576001805460a060020a60ff02191674020000000000000000000000000000000000000000179055610673565b6001805460a060020a60ff021916740700000000000000000000000000000000000000001790555b50565b60028054604080516020601f60001961010060018716150201909416859004938401819004810282018101909252828152606093909290918301828280156106ff5780601f106106d4576101008083540402835291602001916106ff565b820191906000526020600020905b8154815290600101906020018083116106e257829003601f168201915b505050505090505b90565b6008544201600955565b600360015460a060020a900460ff16600881111561072e57fe5b14610771576040805160e560020a62461bcd0281526020600482015260186024820152600080516020610ed4833981519152604482015290519081900360640190fd5b6009544211156107af576001805460a060020a60ff021916740400000000000000000000000000000000000000001790556107aa61070a565b610673565b600154600160a060020a031633146107ff576040805160e560020a62461bcd02815260206004820152601c6024820152600080516020610ef4833981519152604482015290519081900360640190fd5b8051610812906003906020840190610e3b565b50600180546004919060a060020a60ff02191660a060020a835b021790555061067361070a565b60015460a060020a900460ff1690565b600560015460a060020a900460ff16600881111561086357fe5b146108a6576040805160e560020a62461bcd0281526020600482015260186024820152600080516020610ed4833981519152604482015290519081900360640190fd5b6009544211156108c7576005805461ff0019166101001790556107aa610c85565b600154600160a060020a03163314610917576040805160e560020a62461bcd02815260206004820152601c6024820152600080516020610ef4833981519152604482015290519081900360640190fd5b80600281111561092357fe5b6005805461ff00191661010083600281111561093b57fe5b0217905550610673610c85565b60075490565b60038054604080516020601f60026000196101006001881615020190951694909404938401819004810282018101909252828152606093909290918301828280156106ff5780601f106106d4576101008083540402835291602001916106ff565b600460015460a060020a900460ff1660088111156109c957fe5b14610a0c576040805160e560020a62461bcd0281526020600482015260186024820152600080516020610ed4833981519152604482015290519081900360640190fd5b600954421115610a785760058054600160ff199091168117909155805460a060020a60ff02191674050000000000000000000000000000000000000000179055610a5461070a565b6003546002600019610100600184161502019091160415156107aa576107aa610c85565b600054600160a060020a03163314610ac8576040805160e560020a62461bcd02815260206004820152601c6024820152600080516020610ef4833981519152604482015290519081900360640190fd5b806002811115610ad457fe5b6005805460ff19166001836002811115610aea57fe5b0217905550600354600260001961010060018416150201909116041515610b13576107aa610c85565b600180546005919060a060020a60ff02191660a060020a8361082c565b600054600160a060020a03163314610b80576040805160e560020a62461bcd02815260206004820152601c6024820152600080516020610ef4833981519152604482015290519081900360640190fd5b600260015460a060020a900460ff166008811115610b9a57fe5b14610bdd576040805160e560020a62461bcd0281526020600482015260186024820152600080516020610ed4833981519152604482015290519081900360640190fd5b600454341015610c37576040805160e560020a62461bcd02815260206004820152601f60248201527f73656e64206174206c6561737420746865206f6666657265642066756e647300604482015290519081900360640190fd5b6001805460a060020a60ff02191674030000000000000000000000000000000000000000179055610c6661070a565b565b600554610100900460ff1690565b60055460ff1690565b60065490565b600080610c90610d0b565b60018054929450909250829160a060020a60ff02191660a060020a836008811115610cb757fe5b0217905550600160a060020a03821615610d0357604051600160a060020a03831690303180156108fc02916000818181858888f19350505050158015610d01573d6000803e3d6000fd5b505b505042600755565b600080600060038054600181600116156101000203166002900490501115610d8057600260055460ff166002811115610d4057fe5b1415610d5757610d4e610dba565b91509150610db6565b600060055460ff166002811115610d6a57fe5b1415610d7857610d4e610df1565b610d4e610e32565b600060055460ff166002811115610d9357fe5b1415610dae575050600054600160a060020a03166006610db6565b506000905060075b9091565b60008060025b600554610100900460ff166002811115610dd657fe5b1415610dae575050600154600160a060020a03166006610db6565b60008080600554610100900460ff166002811115610e0b57fe5b1415610e1d5750600090506008610db6565b5050600054600160a060020a03166006610db6565b60008080610dc0565b828054600181600116156101000203166002900490600052602060002090601f016020900481019282601f10610e7c57805160ff1916838001178555610ea9565b82800160010185558215610ea9579182015b82811115610ea9578251825591602001919060010190610e8e565b50610eb5929150610eb9565b5090565b61070791905b80821115610eb55760008155600101610ebf56fe5374617465206973206e6f7420617070726f707269617465000000000000000073656e646572206973206e6f74207265717569726564206163746f7200000000a165627a7a7230582039d15e6c8a9a3a2fb9b6de241028dca1505b475bb96e62015d3e97dd09d34fce0029",
  "source": "pragma solidity ^0.5.0;\r\n\r\nimport \"./Enums.sol\";\r\n\r\ncontract Protocol {\r\n\r\n    address payable private Target;\r\n\taddress payable private Mitigator;\r\n\tEnums.State CurrentState;\r\n\tstring private ListOfAddresses;\r\n\tstring private Proof;\r\n\tuint256 private OfferedFunds;\r\n\tEnums.Rating private TargetRating;\r\n\tEnums.Rating private MitigatorRating;\r\n\tuint256 private StartTime = now;\r\n\tuint256 private EndTime;\r\n\tuint256 private DeadlineInterval;\r\n\tuint256 private Deadline;\r\n    event ProcessCreated(address _from, address addr);\r\n\tevent FundsReceived(uint256 value);\r\n\t\r\n\tconstructor() public payable{Target = msg.sender;}\r\n\t\r\n    function init(address payable _Mitigator,uint _DeadlineInterval,uint256 _OfferedFunds,string memory _ListOfAddresses) \r\n    public {\r\n        \r\n        require(msg.sender==Target,\"sender is not required actor\");\r\n\t\tMitigator = _Mitigator;\r\n\t\tTarget = msg.sender;\r\n\t\tDeadlineInterval=_DeadlineInterval;\r\n\t\tOfferedFunds=_OfferedFunds;\r\n\t\tListOfAddresses=_ListOfAddresses;\r\n\t\tCurrentState = Enums.State.APPROVE;\r\n\t\temit ProcessCreated(msg.sender,address(this));\r\n    }\r\n\r\n    function approve(bool descision) \r\n    public{\r\n        \r\n\t\trequire(msg.sender==Mitigator,\"sender is not required actor\");\r\n        require(CurrentState==Enums.State.APPROVE,\"State is not appropriate\");\r\n\r\n        if(descision){\r\n            CurrentState = Enums.State.FUNDING;\r\n        }else{\r\n            CurrentState = Enums.State.ABORT;\r\n        }\r\n    }\r\n    \r\n    function sendFunds() \r\n\tpayable\r\n    public{\r\n        \r\n        require(msg.sender==Target,\"sender is not required actor\");\r\n\t\trequire(CurrentState==Enums.State.FUNDING,\"State is not appropriate\");\r\n        require(msg.value >= OfferedFunds,\"send at least the offered funds\");\r\n\t\t\r\n\t\tCurrentState = Enums.State.PROOF;\r\n\t\tsetNewDeadline();\r\n    }\r\n    \r\n    \r\n    function uploadProof(string memory _Proof) \r\n    public{\r\n        require(CurrentState==Enums.State.PROOF,\"State is not appropriate\");\r\n\t\t\r\n\t\tif(now>Deadline){\r\n\t\t\tCurrentState = Enums.State.RATE_T;\r\n\t\t\tsetNewDeadline();\r\n\t\t\treturn;\r\n\t\t}\r\n\t\t\r\n        require(msg.sender==Mitigator,\"sender is not required actor\");\r\n\r\n        Proof = _Proof;\r\n\t\tCurrentState = Enums.State.RATE_T;\r\n\t\tsetNewDeadline();\r\n    }\r\n    \r\n    function ratingByTarget(uint _Rating) \r\n    public{\r\n        \r\n        require(CurrentState==Enums.State.RATE_T,\"State is not appropriate\");\r\n\t\t\r\n\t\tif(now>Deadline){\r\n\t\t\tTargetRating = Enums.Rating.NA;\r\n\t\t\tCurrentState = Enums.State.RATE_M;\r\n\t\t\tsetNewDeadline();\r\n\t\t\t\r\n\t\t\tif(bytes(Proof).length==0){\r\n\t\t\t\treturn endProcess();\r\n\t\t\t}\r\n\t\t\treturn;\r\n\t\t}\r\n\t\trequire(msg.sender==Target,\"sender is not required actor\");\r\n        TargetRating = Enums.Rating(_Rating);\r\n        \r\n\t\tif(bytes(Proof).length==0){\r\n\t\t\treturn endProcess();\r\n        }\r\n\t\tCurrentState = Enums.State.RATE_M;\r\n\t\tsetNewDeadline();\r\n    }\r\n    \r\n    function ratingByMitigator(uint _Rating) \r\n    public{\r\n        require(CurrentState==Enums.State.RATE_M,\"State is not appropriate\");\r\n\t\t\r\n\t\tif(now>Deadline){\r\n\t\t\tMitigatorRating = Enums.Rating.NA;\r\n\t\t\treturn endProcess();\r\n\t\t}\r\n\t\t\r\n\t\trequire(msg.sender==Mitigator,\"sender is not required actor\");\r\n        MitigatorRating = Enums.Rating(_Rating);\r\n\t\treturn endProcess();\r\n    }\r\n\t\r\n\tfunction endProcess() private{\r\n\t\taddress payable owner;\r\n\t\tEnums.State stateToSet;\r\n\t\t\r\n        (owner,stateToSet) = evaluate();\r\n\t\t\r\n\t\tCurrentState = stateToSet;\r\n\t\tif(owner!=address(0)){\r\n\t\t\towner.transfer(address(this).balance);\r\n\t\t}\r\n\t\tEndTime = now;\r\n\t}\r\n\t\r\n\t function evaluate() private view returns (address payable,Enums.State){    \r\n       \r\n\t   //evaluation with proof\r\n\t   if(bytes(Proof).length>0){\r\n\t\t\tif(TargetRating==Enums.Rating.POS){\r\n\t\t\t\treturn satisfied();\r\n\t\t\t}else if(TargetRating==Enums.Rating.NEG){\r\n\t\t\t\treturn dissatisfied();\r\n\t\t\t}else{\r\n\t\t\t\treturn selfish();\r\n\t\t\t}\r\n\t\t//evaluation wihout proof\r\n        }else{\r\n            if(TargetRating==Enums.Rating.NEG){\r\n\t\t\t\treturn(Target,Enums.State.COMPLETE);\r\n            }else{\r\n                return(address(0),Enums.State.ABORT);\r\n            }\r\n        }\r\n    }\r\n    \r\n    function satisfied() private view returns (address payable,Enums.State){    \r\n        if(MitigatorRating==Enums.Rating.POS){\r\n\t\t\treturn(Mitigator,Enums.State.COMPLETE);\r\n        }else{\r\n            return(address(0),Enums.State.ABORT);\r\n        }\r\n    }\r\n    \r\n    function selfish() private view returns (address payable,Enums.State){    \r\n        if(MitigatorRating==Enums.Rating.NEG){\r\n            return(Mitigator,Enums.State.COMPLETE);\r\n        }else{\r\n            return(address(0),Enums.State.ABORT);\r\n        }\r\n    }\r\n    \r\n    function dissatisfied() private view returns (address payable,Enums.State){    \r\n        if(MitigatorRating==Enums.Rating.NEG){\r\n            return(address(0),Enums.State.ESCALATE);\r\n        }else{\r\n            return(Target,Enums.State.COMPLETE);\r\n        }\r\n    }\r\n\t\t\r\n\tfunction() external payable{\r\n\t\temit FundsReceived(msg.value);\r\n\t}\r\n\t\r\n\tfunction setNewDeadline() public{\r\n\t\tDeadline = now + DeadlineInterval * 1 seconds;\r\n\t}\r\n\tfunction getListOfAddresses() public view returns(string memory){\r\n\t\treturn ListOfAddresses;\r\n\t}\r\n\tfunction getProof() public view returns(string memory){\r\n\t\treturn Proof;\r\n\t}\r\n\tfunction getCurrentState() public view returns (Enums.State){\r\n\t\treturn CurrentState;\r\n\t}\r\n\tfunction getTargetRating() public view returns (Enums.Rating){\r\n\t\treturn TargetRating;\r\n\t}\r\n\tfunction getMitigatorRating() public view returns (Enums.Rating){\r\n\t\treturn MitigatorRating;\r\n\t}\r\n\tfunction getStartTime() public view returns (uint256){\r\n\t\treturn StartTime;\r\n\t}\r\n\tfunction getEndTime() public view returns (uint256){\r\n\t\treturn EndTime;\r\n\t}\r\n}",
  "sourcePath": "C:/Code/Private/CooperativeSignaling/contracts/Protocol.sol",
  "compiler": {
    "name": "solc",
    "version": "0.5.0+commit.1d4f565a.Emscripten.clang"
  },
  "schemaVersion": "3.0.1",
  "updatedAt": "2019-02-12T17:06:34.696Z",
  "devdoc": {
    "methods": {}
  },
  "userdoc": {
    "methods": {}
  }
}