{
  "contractName": "Protocol",
  "abi": [
    {
      "anonymous": false,
      "inputs": [
        {
          "indexed": false,
          "name": "_from",
          "type": "address"
        },
        {
          "indexed": false,
          "name": "addr",
          "type": "address"
        }
      ],
      "name": "ProcessDataCreated",
      "type": "event",
      "signature": "0x0882f6c178d03f7e5056c19884ff9dbd841f072c80be76045db6007f9ca30fb5"
    },
    {
      "anonymous": false,
      "inputs": [
        {
          "indexed": false,
          "name": "_from",
          "type": "address"
        },
        {
          "indexed": false,
          "name": "addr",
          "type": "address"
        }
      ],
      "name": "MitigatorCreated",
      "type": "event",
      "signature": "0x00348a694629aa1d95f5871c91c0b8722435ece0397f5913b4c368069f86e7be"
    },
    {
      "anonymous": false,
      "inputs": [
        {
          "indexed": false,
          "name": "_from",
          "type": "address"
        },
        {
          "indexed": false,
          "name": "addr",
          "type": "address"
        }
      ],
      "name": "TargetCreated",
      "type": "event",
      "signature": "0xc2772959c7d8d2b8db9eb70d179850c99c875ab14cc6768dcfbc8c1d1a5793b6"
    },
    {
      "constant": false,
      "inputs": [
        {
          "name": "_MitigatorOwner",
          "type": "address"
        },
        {
          "name": "PricePerUnit",
          "type": "uint256"
        },
        {
          "name": "NetworkName",
          "type": "string"
        }
      ],
      "name": "registerMitigator",
      "outputs": [
        {
          "name": "",
          "type": "address"
        }
      ],
      "payable": false,
      "stateMutability": "nonpayable",
      "type": "function",
      "signature": "0x0be796b5"
    },
    {
      "constant": false,
      "inputs": [
        {
          "name": "_TargetOwner",
          "type": "address"
        },
        {
          "name": "PricePerUnit",
          "type": "uint256"
        },
        {
          "name": "NetworkName",
          "type": "string"
        }
      ],
      "name": "registerTarget",
      "outputs": [
        {
          "name": "",
          "type": "address"
        }
      ],
      "payable": false,
      "stateMutability": "nonpayable",
      "type": "function",
      "signature": "0xfb9cb44a"
    },
    {
      "constant": false,
      "inputs": [
        {
          "name": "_Mitigator",
          "type": "address"
        },
        {
          "name": "_DeadlineInterval",
          "type": "uint256"
        },
        {
          "name": "_OfferedFunds",
          "type": "uint256"
        },
        {
          "name": "_ListOfAddresses",
          "type": "string"
        },
        {
          "name": "_NumberOfAddresses",
          "type": "uint256"
        }
      ],
      "name": "init",
      "outputs": [
        {
          "name": "",
          "type": "address"
        }
      ],
      "payable": false,
      "stateMutability": "nonpayable",
      "type": "function",
      "signature": "0x3d99bdc7"
    },
    {
      "constant": false,
      "inputs": [
        {
          "name": "process",
          "type": "address"
        },
        {
          "name": "descision",
          "type": "bool"
        }
      ],
      "name": "approve",
      "outputs": [
        {
          "name": "",
          "type": "address"
        }
      ],
      "payable": false,
      "stateMutability": "nonpayable",
      "type": "function",
      "signature": "0x3d140d21"
    },
    {
      "constant": false,
      "inputs": [
        {
          "name": "process",
          "type": "address"
        }
      ],
      "name": "sendFunds",
      "outputs": [
        {
          "name": "",
          "type": "address"
        }
      ],
      "payable": true,
      "stateMutability": "payable",
      "type": "function",
      "signature": "0xcfe52bdd"
    },
    {
      "constant": false,
      "inputs": [
        {
          "name": "process",
          "type": "address"
        },
        {
          "name": "_Proof",
          "type": "string"
        }
      ],
      "name": "uploadProof",
      "outputs": [
        {
          "name": "",
          "type": "address"
        }
      ],
      "payable": true,
      "stateMutability": "payable",
      "type": "function",
      "signature": "0xc369ac92"
    },
    {
      "constant": false,
      "inputs": [
        {
          "name": "process",
          "type": "address"
        },
        {
          "name": "rating",
          "type": "uint8"
        }
      ],
      "name": "ratingByTarget",
      "outputs": [
        {
          "name": "",
          "type": "address"
        }
      ],
      "payable": true,
      "stateMutability": "payable",
      "type": "function",
      "signature": "0x9cd14d73"
    },
    {
      "constant": false,
      "inputs": [
        {
          "name": "process",
          "type": "address"
        },
        {
          "name": "rating",
          "type": "uint8"
        }
      ],
      "name": "ratingByMitigator",
      "outputs": [
        {
          "name": "",
          "type": "address"
        }
      ],
      "payable": true,
      "stateMutability": "payable",
      "type": "function",
      "signature": "0xcd0a1d60"
    },
    {
      "constant": true,
      "inputs": [
        {
          "name": "process",
          "type": "address"
        }
      ],
      "name": "getProcess",
      "outputs": [
        {
          "name": "",
          "type": "address"
        }
      ],
      "payable": false,
      "stateMutability": "view",
      "type": "function",
      "signature": "0xd30a9aff"
    },
    {
      "constant": true,
      "inputs": [],
      "name": "getProcesses",
      "outputs": [
        {
          "name": "",
          "type": "address[]"
        }
      ],
      "payable": false,
      "stateMutability": "view",
      "type": "function",
      "signature": "0x6e52b239"
    },
    {
      "constant": true,
      "inputs": [
        {
          "name": "process",
          "type": "address"
        }
      ],
      "name": "getStateOfProcess",
      "outputs": [
        {
          "name": "",
          "type": "address"
        },
        {
          "name": "",
          "type": "address"
        },
        {
          "name": "",
          "type": "address"
        },
        {
          "name": "",
          "type": "uint256"
        },
        {
          "name": "",
          "type": "string"
        },
        {
          "name": "",
          "type": "uint256"
        },
        {
          "name": "",
          "type": "uint256"
        },
        {
          "name": "",
          "type": "uint256"
        }
      ],
      "payable": false,
      "stateMutability": "view",
      "type": "function",
      "signature": "0x4152d427"
    }
  ],
  "bytecode": "0x608060405234801561001057600080fd5b506144f2806100206000396000f3fe608060405260043610620000a15763ffffffff60e060020a6000350416630be796b58114620000a65780633d140d2114620000e35780633d99bdc714620001175780634152d427146200013c5780636e52b23914620001775780639cd14d73146200019e578063c369ac9214620001b5578063cd0a1d6014620001cc578063cfe52bdd14620001e3578063d30a9aff14620001fa578063fb9cb44a146200021f575b600080fd5b348015620000b357600080fd5b50620000cb620000c53660046200242f565b62000244565b604051620000da919062002932565b60405180910390f35b348015620000f057600080fd5b5062000108620001023660046200236d565b620003f9565b604051620000da919062002a9a565b3480156200012457600080fd5b5062000108620001363660046200249c565b62000700565b3480156200014957600080fd5b50620001616200015b3660046200234c565b62000a10565b604051620000da98979695949392919062002942565b3480156200018457600080fd5b506200018f62000f7e565b604051620000da919062002a87565b62000108620001af366004620023ac565b62000fe2565b62000108620001c6366004620023e1565b620014e3565b62000108620001dd366004620023ac565b620016cf565b62000108620001f43660046200234c565b620017ed565b3480156200020757600080fd5b5062000108620002193660046200234c565b62001a6f565b3480156200022c57600080fd5b50620000cb6200023e3660046200242f565b62001ad0565b60008084848462000254620021da565b6200026293929190620029ef565b604051809103906000f0801580156200027f573d6000803e3d6000fd5b509050600081600160a060020a03166338cc48316040518163ffffffff1660e060020a02815260040160206040518083038186803b158015620002c157600080fd5b505afa158015620002d6573d6000803e3d6000fd5b505050506040513d601f19601f82011682018060405250620002fc919081019062002323565b815460018101835560009283526020909220909101805473ffffffffffffffffffffffffffffffffffffffff1916600160a060020a039092169190911790556040517e348a694629aa1d95f5871c91c0b8722435ece0397f5913b4c368069f86e7be906200036e9033908490620029d0565b60405180910390a180600160a060020a03166338cc48316040518163ffffffff1660e060020a02815260040160206040518083038186803b158015620003b357600080fd5b505afa158015620003c8573d6000803e3d6000fd5b505050506040513d601f19601f82011682018060405250620003ee919081019062002323565b9150505b9392505050565b6000620004068362001bfb565b1515620004335760405160e560020a62461bcd0281526004016200042a9062002b13565b60405180910390fd5b6200044083600162001c54565b1515620004645760405160e560020a62461bcd0281526004016200042a9062002b7f565b828215620005b45760405160e060020a6356de96db028152600160a060020a038216906356de96db906200049e9060029060040162002aba565b600060405180830381600087803b158015620004b957600080fd5b505af1158015620004ce573d6000803e3d6000fd5b5050505080600160a060020a031663f6e9178982600160a060020a031663f00e6a2a6040518163ffffffff1660e060020a02815260040160206040518083038186803b1580156200051e57600080fd5b505afa15801562000533573d6000803e3d6000fd5b505050506040513d601f19601f8201168201806040525062000559919081019062002556565b6040518263ffffffff1660e060020a0281526004016200057a919062002a9a565b600060405180830381600087803b1580156200059557600080fd5b505af1158015620005aa573d6000803e3d6000fd5b50505050620006f7565b60405160e060020a6356de96db028152600160a060020a038216906356de96db90620005e69060079060040162002aba565b600060405180830381600087803b1580156200060157600080fd5b505af115801562000616573d6000803e3d6000fd5b5050505080600160a060020a031663f6e9178982600160a060020a031663f00e6a2a6040518163ffffffff1660e060020a02815260040160206040518083038186803b1580156200066657600080fd5b505afa1580156200067b573d6000803e3d6000fd5b505050506040513d601f19601f82011682018060405250620006a1919081019062002556565b6040518263ffffffff1660e060020a028152600401620006c2919062002a9a565b600060405180830381600087803b158015620006dd57600080fd5b505af1158015620006f2573d6000803e3d6000fd5b505050505b90505b92915050565b60008083511115156200072a5760405160e560020a62461bcd0281526004016200042a9062002b49565b620007358662001f88565b1515620007595760405160e560020a62461bcd0281526004016200042a9062002b5b565b6040517fa5ebeaa4000000000000000000000000000000000000000000000000000000008152600160a060020a0387169063a5ebeaa490620007a2908790869060040162002bb3565b60206040518083038186803b158015620007bb57600080fd5b505afa158015620007d0573d6000803e3d6000fd5b505050506040513d601f19601f82011682018060405250620007f6919081019062002535565b15156200081a5760405160e560020a62461bcd0281526004016200042a9062002b25565b620008253362001fe1565b1515620008495760405160e560020a62461bcd0281526004016200042a9062002b01565b60006200085633620020cc565b9050600081600160a060020a03166338cc48316040518163ffffffff1660e060020a02815260040160206040518083038186803b1580156200089757600080fd5b505afa158015620008ac573d6000803e3d6000fd5b505050506040513d601f19601f82011682018060405250620008d2919081019062002323565b88888888620008e0620021eb565b620008f095949392919062002a2b565b604051809103906000f0801580156200090d573d6000803e3d6000fd5b509050600281600160a060020a03166338cc48316040518163ffffffff1660e060020a02815260040160206040518083038186803b1580156200094f57600080fd5b505afa15801562000964573d6000803e3d6000fd5b505050506040513d601f19601f820116820180604052506200098a919081019062002323565b815460018101835560009283526020909220909101805473ffffffffffffffffffffffffffffffffffffffff1916600160a060020a039092169190911790556040517f0882f6c178d03f7e5056c19884ff9dbd841f072c80be76045db6007f9ca30fb590620009fd9033908490620029d0565b60405180910390a1979650505050505050565b600080600080606060008060008089905080600160a060020a031663f00e6a2a6040518163ffffffff1660e060020a02815260040160206040518083038186803b15801562000a5e57600080fd5b505afa15801562000a73573d6000803e3d6000fd5b505050506040513d601f19601f8201168201806040525062000a99919081019062002556565b600160a060020a031663893d20e86040518163ffffffff1660e060020a02815260040160206040518083038186803b15801562000ad557600080fd5b505afa15801562000aea573d6000803e3d6000fd5b505050506040513d601f19601f8201168201806040525062000b10919081019062002323565b81600160a060020a03166350b1be266040518163ffffffff1660e060020a02815260040160206040518083038186803b15801562000b4d57600080fd5b505afa15801562000b62573d6000803e3d6000fd5b505050506040513d601f19601f8201168201806040525062000b88919081019062002556565b600160a060020a031663893d20e86040518163ffffffff1660e060020a02815260040160206040518083038186803b15801562000bc457600080fd5b505afa15801562000bd9573d6000803e3d6000fd5b505050506040513d601f19601f8201168201806040525062000bff919081019062002323565b82600160a060020a0316631b3e7c4b6040518163ffffffff1660e060020a02815260040160206040518083038186803b15801562000c3c57600080fd5b505afa15801562000c51573d6000803e3d6000fd5b505050506040513d601f19601f8201168201806040525062000c77919081019062002556565b600160a060020a031663893d20e86040518163ffffffff1660e060020a02815260040160206040518083038186803b15801562000cb357600080fd5b505afa15801562000cc8573d6000803e3d6000fd5b505050506040513d601f19601f8201168201806040525062000cee919081019062002323565b83600160a060020a0316634d9b37356040518163ffffffff1660e060020a02815260040160206040518083038186803b15801562000d2b57600080fd5b505afa15801562000d40573d6000803e3d6000fd5b505050506040513d601f19601f8201168201806040525062000d669190810190620025d1565b84600160a060020a0316635c5d625e6040518163ffffffff1660e060020a02815260040160006040518083038186803b15801562000da357600080fd5b505afa15801562000db8573d6000803e3d6000fd5b505050506040513d6000823e601f3d908101601f1916820160405262000de2919081019062002598565b85600160a060020a0316631865c57d6040518163ffffffff1660e060020a02815260040160206040518083038186803b15801562000e1f57600080fd5b505afa15801562000e34573d6000803e3d6000fd5b505050506040513d601f19601f8201168201806040525062000e5a9190810190620025d1565b86600160a060020a0316639ed5b5026040518163ffffffff1660e060020a02815260040160206040518083038186803b15801562000e9757600080fd5b505afa15801562000eac573d6000803e3d6000fd5b505050506040513d601f19601f8201168201806040525062000ed2919081019062002577565b600281111562000ede57fe5b87600160a060020a03166390f3213d6040518163ffffffff1660e060020a02815260040160206040518083038186803b15801562000f1b57600080fd5b505afa15801562000f30573d6000803e3d6000fd5b505050506040513d601f19601f8201168201806040525062000f56919081019062002577565b600281111562000f6257fe5b9850985098509850985098509850985050919395975091939597565b6060600280548060200260200160405190810160405280929190818152602001828054801562000fd857602002820191906000526020600020905b8154600160a060020a0316815260019091019060200180831162000fb9575b5050505050905090565b600062000fef8362001bfb565b1515620010135760405160e560020a62461bcd0281526004016200042a9062002b13565b6200102083600462001c54565b1515620010445760405160e560020a62461bcd0281526004016200042a9062002b7f565b600083905080600160a060020a031663620ae1c76040518163ffffffff1660e060020a02815260040160206040518083038186803b1580156200108657600080fd5b505afa1580156200109b573d6000803e3d6000fd5b505050506040513d601f19601f82011682018060405250620010c1919081019062002535565b1515620012e7576040517fa3bbb090000000000000000000000000000000000000000000000000000000008152600160a060020a0382169063a3bbb090906200110f90869060040162002aaa565b600060405180830381600087803b1580156200112a57600080fd5b505af11580156200113f573d6000803e3d6000fd5b5050505080600160a060020a031663f6e9178982600160a060020a031663f00e6a2a6040518163ffffffff1660e060020a02815260040160206040518083038186803b1580156200118f57600080fd5b505afa158015620011a4573d6000803e3d6000fd5b505050506040513d601f19601f82011682018060405250620011ca919081019062002556565b6040518263ffffffff1660e060020a028152600401620011eb919062002a9a565b600060405180830381600087803b1580156200120657600080fd5b505af11580156200121b573d6000803e3d6000fd5b505060405160e060020a6356de96db028152600160a060020a03841692506356de96db9150620012519060069060040162002aba565b600060405180830381600087803b1580156200126c57600080fd5b505af115801562001281573d6000803e3d6000fd5b5050505080600160a060020a031663841eb45a6040518163ffffffff1660e060020a028152600401600060405180830381600087803b158015620012c457600080fd5b505af1158015620012d9573d6000803e3d6000fd5b5050505080915050620006fa565b6040517fa3bbb090000000000000000000000000000000000000000000000000000000008152600160a060020a0382169063a3bbb090906200132e90869060040162002aaa565b600060405180830381600087803b1580156200134957600080fd5b505af11580156200135e573d6000803e3d6000fd5b5050505080600160a060020a031663f6e9178982600160a060020a03166350b1be266040518163ffffffff1660e060020a02815260040160206040518083038186803b158015620013ae57600080fd5b505afa158015620013c3573d6000803e3d6000fd5b505050506040513d601f19601f82011682018060405250620013e9919081019062002556565b6040518263ffffffff1660e060020a0281526004016200140a919062002a9a565b600060405180830381600087803b1580156200142557600080fd5b505af11580156200143a573d6000803e3d6000fd5b505060405160e060020a6356de96db028152600160a060020a03841692506356de96db9150620014709060059060040162002aba565b600060405180830381600087803b1580156200148b57600080fd5b505af1158015620014a0573d6000803e3d6000fd5b5050505080600160a060020a0316639363d6f26040518163ffffffff1660e060020a028152600401600060405180830381600087803b158015620006dd57600080fd5b6000620014f08362001bfb565b1515620015145760405160e560020a62461bcd0281526004016200042a9062002b13565b6200152183600362001c54565b1515620015455760405160e560020a62461bcd0281526004016200042a9062002b7f565b6040517f15336f800000000000000000000000000000000000000000000000000000000081528390600160a060020a038216906315336f80906200158e90869060040162002aca565b600060405180830381600087803b158015620015a957600080fd5b505af1158015620015be573d6000803e3d6000fd5b5050505080600160a060020a031663f6e9178982600160a060020a031663f00e6a2a6040518163ffffffff1660e060020a02815260040160206040518083038186803b1580156200160e57600080fd5b505afa15801562001623573d6000803e3d6000fd5b505050506040513d601f19601f8201168201806040525062001649919081019062002556565b6040518263ffffffff1660e060020a0281526004016200166a919062002a9a565b600060405180830381600087803b1580156200168557600080fd5b505af11580156200169a573d6000803e3d6000fd5b505060405160e060020a6356de96db028152600160a060020a03841692506356de96db91506200147090600490810162002aba565b6000620016dc8362001bfb565b1515620017005760405160e560020a62461bcd0281526004016200042a9062002b13565b6200170d83600562001c54565b1515620017315760405160e560020a62461bcd0281526004016200042a9062002b6d565b6040517f1dc9b2840000000000000000000000000000000000000000000000000000000081528390600160a060020a03821690631dc9b284906200177a90869060040162002aaa565b600060405180830381600087803b1580156200179557600080fd5b505af1158015620017aa573d6000803e3d6000fd5b5050505080600160a060020a031663841eb45a6040518163ffffffff1660e060020a028152600401600060405180830381600087803b158015620006dd57600080fd5b6000620017fa8262001bfb565b15156200181e5760405160e560020a62461bcd0281526004016200042a9062002b13565b6200182b82600262001c54565b15156200184f5760405160e560020a62461bcd0281526004016200042a9062002b7f565b6040517f8827e09b0000000000000000000000000000000000000000000000000000000081528290600160a060020a03821690638827e09b906200189890349060040162002ba3565b600060405180830381600087803b158015620018b357600080fd5b505af1158015620018c8573d6000803e3d6000fd5b5050505080600160a060020a031663f6e9178982600160a060020a03166350b1be266040518163ffffffff1660e060020a02815260040160206040518083038186803b1580156200191857600080fd5b505afa1580156200192d573d6000803e3d6000fd5b505050506040513d601f19601f8201168201806040525062001953919081019062002556565b6040518263ffffffff1660e060020a02815260040162001974919062002a9a565b600060405180830381600087803b1580156200198f57600080fd5b505af1158015620019a4573d6000803e3d6000fd5b505060405160e060020a6356de96db028152600160a060020a03841692506356de96db9150620019da9060039060040162002aba565b600060405180830381600087803b158015620019f557600080fd5b505af115801562001a0a573d6000803e3d6000fd5b5050505080600160a060020a0316639363d6f26040518163ffffffff1660e060020a028152600401600060405180830381600087803b15801562001a4d57600080fd5b505af115801562001a62573d6000803e3d6000fd5b509293505050505b919050565b6000805b60025481101562001ac75782600160a060020a031660028281548110151562001a9857fe5b600091825260209091200154600160a060020a0316141562001abe578291505062001a6a565b60010162001a73565b50600092915050565b60008084848462001ae0620021da565b62001aee93929190620029ef565b604051809103906000f08015801562001b0b573d6000803e3d6000fd5b509050600181600160a060020a03166338cc48316040518163ffffffff1660e060020a02815260040160206040518083038186803b15801562001b4d57600080fd5b505afa15801562001b62573d6000803e3d6000fd5b505050506040513d601f19601f8201168201806040525062001b88919081019062002323565b815460018101835560009283526020909220909101805473ffffffffffffffffffffffffffffffffffffffff1916600160a060020a039092169190911790556040517fc2772959c7d8d2b8db9eb70d179850c99c875ab14cc6768dcfbc8c1d1a5793b6906200036e9033908490620029d0565b6000805b60025481101562001ac75782600160a060020a031660028281548110151562001c2457fe5b600091825260209091200154600160a060020a0316141562001c4b57600191505062001a6a565b60010162001bff565b600062001c618362001bfb565b151562001c855760405160e560020a62461bcd0281526004016200042a9062002add565b600062001c928462001a6f565b905033600160a060020a031681600160a060020a0316631b3e7c4b6040518163ffffffff1660e060020a02815260040160206040518083038186803b15801562001cdb57600080fd5b505afa15801562001cf0573d6000803e3d6000fd5b505050506040513d601f19601f8201168201806040525062001d16919081019062002556565b600160a060020a031663893d20e86040518163ffffffff1660e060020a02815260040160206040518083038186803b15801562001d5257600080fd5b505afa15801562001d67573d6000803e3d6000fd5b505050506040513d601f19601f8201168201806040525062001d8d919081019062002323565b600160a060020a03161462001db95760405160e560020a62461bcd0281526004016200042a9062002b37565b80600160a060020a0316631865c57d6040518163ffffffff1660e060020a02815260040160206040518083038186803b15801562001df657600080fd5b505afa15801562001e0b573d6000803e3d6000fd5b505050506040513d601f19601f8201168201806040525062001e319190810190620025d1565b83600881111562001e3e57fe5b1462001e615760405160e560020a62461bcd0281526004016200042a9062002b91565b600281600160a060020a0316631865c57d6040518163ffffffff1660e060020a02815260040160206040518083038186803b15801562001ea057600080fd5b505afa15801562001eb5573d6000803e3d6000fd5b505050506040513d601f19601f8201168201806040525062001edb9190810190620025d1565b101562001f7e5780600160a060020a0316635f8d96de6040518163ffffffff1660e060020a02815260040160206040518083038186803b15801562001f1f57600080fd5b505afa15801562001f34573d6000803e3d6000fd5b505050506040513d601f19601f8201168201806040525062001f5a9190810190620025d1565b421162001f7e5760405160e560020a62461bcd0281526004016200042a9062002aef565b5060019392505050565b6000805b60005481101562001ac75782600160a060020a031660008281548110151562001fb157fe5b600091825260209091200154600160a060020a0316141562001fd857600191505062001a6a565b60010162001f8c565b6000805b60015481101562001ac75782600160a060020a03166001828154811015156200200a57fe5b60009182526020918290200154604080517f893d20e80000000000000000000000000000000000000000000000000000000081529051600160a060020a039092169263893d20e892600480840193829003018186803b1580156200206d57600080fd5b505afa15801562002082573d6000803e3d6000fd5b505050506040513d601f19601f82011682018060405250620020a8919081019062002323565b600160a060020a03161415620020c357600191505062001a6a565b60010162001fe5565b6000805b60015481101562001ac75782600160a060020a0316600182815481101515620020f557fe5b60009182526020918290200154604080517f893d20e80000000000000000000000000000000000000000000000000000000081529051600160a060020a039092169263893d20e892600480840193829003018186803b1580156200215857600080fd5b505afa1580156200216d573d6000803e3d6000fd5b505050506040513d601f19601f8201168201806040525062002193919081019062002323565b600160a060020a03161415620021d1576001805482908110620021b257fe5b600091825260209091200154600160a060020a0316915062001a6a9050565b600101620020d0565b6040516104b68062002cfa83390190565b60405161130980620031b083390190565b6000620003f2823562002c2d565b6000620003f2825162002c2d565b6000620003f2823562002c67565b6000620003f2825162002c67565b6000620003f2825162002c6c565b6000620003f2823562002c79565b6000620003f2825162002c79565b6000601f820183136200227057600080fd5b813562002287620022818262002bfa565b62002bd2565b91508082526020830160208301858383011115620022a457600080fd5b620022b183828462002cb0565b50505092915050565b6000601f82018313620022cc57600080fd5b8151620022dd620022818262002bfa565b91508082526020830160208301858383011115620022fa57600080fd5b620022b183828462002cbc565b6000620003f2823562002c64565b6000620003f2825162002c64565b6000602082840312156200233657600080fd5b60006200234484846200220a565b949350505050565b6000602082840312156200235f57600080fd5b6000620023448484620021fc565b600080604083850312156200238157600080fd5b60006200238f8585620021fc565b9250506020620023a28582860162002218565b9150509250929050565b60008060408385031215620023c057600080fd5b6000620023ce8585620021fc565b9250506020620023a28582860162002242565b60008060408385031215620023f557600080fd5b6000620024038585620021fc565b925050602083013567ffffffffffffffff8111156200242157600080fd5b620023a2858286016200225e565b6000806000606084860312156200244557600080fd5b6000620024538686620021fc565b9350506020620024668682870162002307565b925050604084013567ffffffffffffffff8111156200248457600080fd5b62002492868287016200225e565b9150509250925092565b600080600080600060a08688031215620024b557600080fd5b6000620024c38888620021fc565b9550506020620024d68882890162002307565b9450506040620024e98882890162002307565b935050606086013567ffffffffffffffff8111156200250757600080fd5b62002515888289016200225e565b9250506080620025288882890162002307565b9150509295509295909350565b6000602082840312156200254857600080fd5b600062002344848462002226565b6000602082840312156200256957600080fd5b600062002344848462002234565b6000602082840312156200258a57600080fd5b600062002344848462002250565b600060208284031215620025ab57600080fd5b815167ffffffffffffffff811115620025c357600080fd5b6200234484828501620022ba565b600060208284031215620025e457600080fd5b600062002344848462002315565b620025fd8162002c89565b82525050565b620025fd8162002c2d565b60006200261b8262002c29565b8084526020840193506200262f8362002c23565b60005b8281101562002665576200264886835162002603565b620026538262002c23565b60209690960195915060010162002632565b5093949350505050565b620025fd8162002c6c565b620025fd8162002c96565b620025fd8162002ca3565b60006200269d8262002c29565b808452620026b381602086016020860162002cbc565b620026be8162002cef565b9093016020019392505050565b601181527f50726f63657373206e6f7420666f756e64000000000000000000000000000000602082015260400190565b601f81527f7374617465203e3d7374617274202626206e6f77203e20646561646c696e6500602082015260400190565b602481527f53656e646572206973206e6f742072656769737465726564206173206120546160208201527f7267657400000000000000000000000000000000000000000000000000000000604082015260600190565b601681527f50726f6365737320646f6573206e6f7420657869737400000000000000000000602082015260400190565b600d81527f46756e647320746f6f206c6f7700000000000000000000000000000000000000602082015260400190565b601381527f4e6578744163746f7220213d2053656e64657200000000000000000000000000602082015260400190565b601581527f6e6f206164647265737365732070726f76696465640000000000000000000000602082015260400190565b600c81527f6e6f206d6974696761746f720000000000000000000000000000000000000000602082015260400190565b602981527f53656e646572206973206e6f7420616c6c6f77656420746f20616476616e636560208201527f2064756520746f3a200000000000000000000000000000000000000000000000604082015260600190565b601581527f53656e646572206973206e6f7420616c6c6f7765640000000000000000000000602082015260400190565b601981527f4e65787420737461746520776f756c64206265206c6f77657200000000000000602082015260400190565b620025fd8162002c64565b60208101620006fa828462002603565b610100810162002953828b62002603565b62002962602083018a62002603565b62002971604083018962002603565b62002980606083018862002927565b818103608083015262002994818762002690565b9050620029a560a083018662002927565b620029b460c083018562002927565b620029c360e083018462002927565b9998505050505050505050565b60408101620029e08285620025f2565b620003f260208301846200266f565b60608101620029ff828662002603565b62002a0e602083018562002927565b818103604083015262002a22818462002690565b95945050505050565b60a0810162002a3b828862002603565b62002a4a602083018762002603565b62002a59604083018662002927565b62002a68606083018562002927565b818103608083015262002a7c818462002690565b979650505050505050565b60208082528101620003f281846200260e565b60208101620006fa82846200266f565b60208101620006fa82846200267a565b60208101620006fa828462002685565b60208082528101620003f2818462002690565b60208082528101620006fa81620026cb565b60208082528101620006fa81620026fb565b60208082528101620006fa816200272b565b60208082528101620006fa8162002781565b60208082528101620006fa81620027b1565b60208082528101620006fa81620027e1565b60208082528101620006fa8162002811565b60208082528101620006fa8162002841565b60208082528101620006fa8162002871565b60208082528101620006fa81620028c7565b60208082528101620006fa81620028f7565b60208101620006fa828462002927565b6040810162002bc3828562002927565b620003f2602083018462002927565b60405181810167ffffffffffffffff8111828210171562002bf257600080fd5b604052919050565b600067ffffffffffffffff82111562002c1257600080fd5b506020601f91909101601f19160190565b60200190565b5190565b6000620006fa8262002c58565b60006003821062002c4757fe5b5090565b60006009821062002c4757fe5b600160a060020a031690565b90565b151590565b6000620006fa8262002c2d565b60006003821062002c4757600080fd5b6000620006fa8262002c6c565b6000620006fa8262002c3a565b6000620006fa8262002c4b565b82818337506000910152565b60005b8381101562002cd957818101518382015260200162002cbf565b8381111562002ce9576000848401525b50505050565b601f01601f19169056fe608060405234801561001057600080fd5b506040516104b63803806104b68339810180604052606081101561003357600080fd5b815160208301516040840180519294919382019264010000000081111561005957600080fd5b8201602081018481111561006c57600080fd5b815164010000000081118282018710171561008657600080fd5b505060008054600160a060020a031916600160a060020a038816179055600185905580519093506100c092506002915060208401906100c9565b50505050610164565b828054600181600116156101000203166002900490600052602060002090601f016020900481019282601f1061010a57805160ff1916838001178555610137565b82800160010185558215610137579182015b8281111561013757825182559160200191906001019061011c565b50610143929150610147565b5090565b61016191905b80821115610143576000815560010161014d565b90565b610343806101736000396000f3fe60806040526004361061006c5763ffffffff7c010000000000000000000000000000000000000000000000000000000060003504166307e4b7e9811461007157806338cc4831146100fb578063893d20e814610139578063a5ebeaa41461014e578063a7cc53f514610192575b600080fd5b34801561007d57600080fd5b506100866101b9565b6040805160208082528351818301528351919283929083019185019080838360005b838110156100c05781810151838201526020016100a8565b50505050905090810190601f1680156100ed5780820380516001836020036101000a031916815260200191505b509250505060405180910390f35b34801561010757600080fd5b5061011061024c565b6040805173ffffffffffffffffffffffffffffffffffffffff9092168252519081900360200190f35b34801561014557600080fd5b50610110610250565b34801561015a57600080fd5b5061017e6004803603604081101561017157600080fd5b508035906020013561026c565b604080519115158252519081900360200190f35b34801561019e57600080fd5b506101a7610311565b60408051918252519081900360200190f35b60028054604080516020601f60001961010060018716150201909416859004938401819004810282018101909252828152606093909290918301828280156102425780601f1061021757610100808354040283529160200191610242565b820191906000526020600020905b81548152906001019060200180831161022557829003601f168201915b5050505050905090565b3090565b60005473ffffffffffffffffffffffffffffffffffffffff1690565b600154600090820283101561030857604080517f08c379a000000000000000000000000000000000000000000000000000000000815260206004820152602d60248201527f4f666665722077617320746f6f206c6f772c20706c656173652070726f76696460448201527f65206d6f72652066756e64732e00000000000000000000000000000000000000606482015290519081900360840190fd5b50600192915050565b6001549056fea165627a7a72305820e916cf7b595291c781971316cdf62e2e04bf2e62afd457f557fa935073dcf21400296080604052600060045560006005556040516200130938038062001309833981018060405260a081101561003257600080fd5b81516020830151604084015160608501516080860180519496939592949193928301929164010000000081111561006857600080fd5b8201602081018481111561007b57600080fd5b815164010000000081118282018710171561009557600080fd5b505060038054600160a060020a03199081163317909155600486905560008054600160a060020a038b811691841691909117909155600180548a83169084161790819055600280549093169116179055600880547401000000000000000000000000000000000000000060a060020a60ff02199091161790556006869055805190935061012b9250600a91506020840190610136565b5050505050506101d1565b828054600181600116156101000203166002900490600052602060002090601f016020900481019282601f1061017757805160ff19168380011785556101a4565b828001600101855582156101a4579182015b828111156101a4578251825591602001919060010190610189565b506101b09291506101b4565b5090565b6101ce91905b808211156101b057600081556001016101ba565b90565b61112880620001e16000396000f3fe60806040526004361061010e5763ffffffff60e060020a60003504166311adbaad811461011057806315336f801461019a5780631865c57d1461024d5780631b3e7c4b146102745780631dc9b284146102a557806338cc4831146102d25780634d9b3735146102e757806350b1be26146102fc57806356de96db146103115780635c5d625e1461033e5780635f8d96de14610353578063620ae1c7146103685780638271bb35146102e7578063841eb45a146103915780638827e09b146103a657806390f3213d146103c35780639363d6f2146103fc5780639ed5b50214610411578063a3bbb09014610426578063e39ff19f14610453578063f00e6a2a14610486578063f6e917891461049b575b005b34801561011c57600080fd5b506101256104ce565b6040805160208082528351818301528351919283929083019185019080838360005b8381101561015f578181015183820152602001610147565b50505050905090810190601f16801561018c5780820380516001836020036101000a031916815260200191505b509250505060405180910390f35b3480156101a657600080fd5b5061010e600480360360208110156101bd57600080fd5b8101906020810181356401000000008111156101d857600080fd5b8201836020820111156101ea57600080fd5b8035906020019184600183028401116401000000008311171561020c57600080fd5b91908080601f016020809104026020016040519081016040528093929190818152602001838380828437600092019190915250929550610565945050505050565b34801561025957600080fd5b506102626105fb565b60408051918252519081900360200190f35b34801561028057600080fd5b5061028961061d565b60408051600160a060020a039092168252519081900360200190f35b3480156102b157600080fd5b5061010e600480360360208110156102c857600080fd5b503560ff1661062c565b3480156102de57600080fd5b5061028961064f565b3480156102f357600080fd5b50610262610653565b34801561030857600080fd5b50610289610659565b34801561031d57600080fd5b5061010e6004803603602081101561033457600080fd5b503560ff16610668565b34801561034a57600080fd5b506101256106a8565b34801561035f57600080fd5b50610262610709565b34801561037457600080fd5b5061037d61070f565b604080519115158252519081900360200190f35b34801561039d57600080fd5b5061010e61073d565b61010e600480360360208110156103bc57600080fd5b50356109f2565b3480156103cf57600080fd5b506103d8610a77565b604051808260028111156103e857fe5b60ff16815260200191505060405180910390f35b34801561040857600080fd5b5061010e610a85565b34801561041d57600080fd5b506103d8610b17565b34801561043257600080fd5b5061010e6004803603602081101561044957600080fd5b503560ff16610b20565b34801561045f57600080fd5b5061010e6004803603602081101561047657600080fd5b5035600160a060020a0316610b39565b34801561049257600080fd5b50610289610c62565b3480156104a757600080fd5b5061010e600480360360208110156104be57600080fd5b5035600160a060020a0316610c71565b600a8054604080516020601f600260001961010060018816150201909516949094049384018190048102820181019092528281526060939092909183018282801561055a5780601f1061052f5761010080835404028352916020019161055a565b820191906000526020600020905b81548152906001019060200180831161053d57829003601f168201915b505050505090505b90565b80516000106105e4576040805160e560020a62461bcd02815260206004820152602a60248201527f456d70747920737472696e672063616e6e6f742062652061636365707465642060448201527f617320612070726f6f6600000000000000000000000000000000000000000000606482015290519081900360840190fd5b80516105f7906009906020840190610ca0565b5050565b6000600860149054906101000a900460ff16600881111561061857fe5b905090565b600254600160a060020a031690565b600b805482919061ff00191661010083600281111561064757fe5b021790555050565b3090565b60055490565b600154600160a060020a031690565b6008805482919074ff0000000000000000000000000000000000000000191674010000000000000000000000000000000000000000838381111561064757fe5b60098054604080516020601f600260001961010060018816150201909516949094049384018190048102820181019092528281526060939092909183018282801561055a5780601f1061052f5761010080835404028352916020019161055a565b60075490565b6000806009805460018160011615610100020316600290049050111561073757506001610562565b50600090565b60008030600160a060020a03166338cc48316040518163ffffffff1660e060020a02815260040160206040518083038186803b15801561077c57600080fd5b505afa158015610790573d6000803e3d6000fd5b505050506040513d60208110156107a657600080fd5b5051600054604080517f38cc48310000000000000000000000000000000000000000000000000000000081529051600160a060020a03909216916338cc483191600480820192602092909190829003018186803b15801561080657600080fd5b505afa15801561081a573d6000803e3d6000fd5b505050506040513d602081101561083057600080fd5b5051600154604080517f38cc48310000000000000000000000000000000000000000000000000000000081529051600160a060020a03909216916338cc483191600480820192602092909190829003018186803b15801561089057600080fd5b505afa1580156108a4573d6000803e3d6000fd5b505050506040513d60208110156108ba57600080fd5b50516108c4610d1e565b600160a060020a03938416815291831660208301529091166040808301919091525190819003606001906000f080158015610903573d6000803e3d6000fd5b506008805473ffffffffffffffffffffffffffffffffffffffff1916600160a060020a039283161790819055166353707b4c61093d61070f565b610945610b17565b61094d610a77565b6040518463ffffffff1660e060020a028152600401808415151515815260200183600281111561097957fe5b60ff16815260200182600281111561098d57fe5b60ff1681526020019350505050604080518083038186803b1580156109b157600080fd5b505afa1580156109c5573d6000803e3d6000fd5b505050506040513d60408110156109db57600080fd5b50805160209091015190925090506105f781610668565b600454811015610a72576040805160e560020a62461bcd02815260206004820152603760248201527f506c656173652070726f76696465206174206c65617374207468652066756e6460448201527f7320796f7520696e697469616c6c79206f666665726564000000000000000000606482015290519081900360840190fd5b600555565b600b54610100900460ff1690565b600354600160a060020a03163314610b0d576040805160e560020a62461bcd02815260206004820152603360248201527f416374696f6e2063616e206f6e6c7920626520706572666f726d65642062792060448201527f746865206f776e696e6720636f6e747261637400000000000000000000000000606482015290519081900360840190fd5b6006544201600755565b600b5460ff1690565b600b805482919060ff1916600183600281111561064757fe5b600354600160a060020a03163314610bc1576040805160e560020a62461bcd02815260206004820152603460248201527f46756e64732063616e206f6e6c79206265207472616e7366657272656420627960448201527f20746865206f776e696e6720636f6e7472616374000000000000000000000000606482015290519081900360840190fd5b80600160a060020a031663893d20e86040518163ffffffff1660e060020a02815260040160206040518083038186803b158015610bfd57600080fd5b505afa158015610c11573d6000803e3d6000fd5b505050506040513d6020811015610c2757600080fd5b5051600554604051600160a060020a039092169181156108fc0291906000818181858888f193505050501580156105f7573d6000803e3d6000fd5b600054600160a060020a031690565b6002805473ffffffffffffffffffffffffffffffffffffffff1916600160a060020a0392909216919091179055565b828054600181600116156101000203166002900490600052602060002090601f016020900481019282601f10610ce157805160ff1916838001178555610d0e565b82800160010185558215610d0e579182015b82811115610d0e578251825591602001919060010190610cf3565b50610d1a929150610d2e565b5090565b6040516103b480610d4983390190565b61056291905b80821115610d1a5760008155600101610d3456fe608060405234801561001057600080fd5b506040516060806103b48339810180604052606081101561003057600080fd5b508051602082015160409092015160008054600160a060020a03938416600160a060020a03199182161790915560018054948416948216949094179093556002805492909116919092161790556103288061008c6000396000f3fe6080604052600436106100775763ffffffff7c01000000000000000000000000000000000000000000000000000000006000350416630b957629811461007c57806315f6c1341461007c578063349590c3146100ea578063415899f31461011f57806353707b4c1461014c5780638886181814610189575b600080fd5b34801561008857600080fd5b506100a96004803603602081101561009f57600080fd5b503560ff166101b6565b60405173ffffffffffffffffffffffffffffffffffffffff83168152602081018260088111156100d557fe5b60ff1681526020019250505060405180910390f35b3480156100f657600080fd5b506100a96004803603604081101561010d57600080fd5b5060ff813581169160200135166101fc565b34801561012b57600080fd5b506100a96004803603602081101561014257600080fd5b503560ff16610252565b34801561015857600080fd5b506100a96004803603606081101561016f57600080fd5b50803515159060ff60208201358116916040013516610297565b34801561019557600080fd5b506100a9600480360360208110156101ac57600080fd5b503560ff166102c4565b60008060028360028111156101c757fe5b14156101ef57505060025473ffffffffffffffffffffffffffffffffffffffff1660066101f7565b506000905060075b915091565b600080600284600281111561020d57fe5b14156102255761021c836101b6565b9150915061024b565b600084600281111561023357fe5b14156102425761021c83610252565b61021c836101b6565b9250929050565b600080600283600281111561026357fe5b141561027557506000905060086101f7565b505060015473ffffffffffffffffffffffffffffffffffffffff1660066101f7565b60008084156102b3576102aa84846101fc565b915091506102bc565b6102aa846102c4565b935093915050565b600080808360028111156102d457fe5b14156101ef57505060015473ffffffffffffffffffffffffffffffffffffffff1660066101f756fea165627a7a7230582089f6309960b8ce70341b9cf754dad47a61214fd2b26bcbdc8c02709894aa3dfd0029a165627a7a72305820d2590627329ea70b4162d15411cea5667949262d7b3b2d102c91eb58ef9256030029a265627a7a7230582084d2767b452d27f73ae72234448025a9827a6f8fab307552e0acfebd3c6d9b3a6c6578706572696d656e74616cf50037",
  "source": "pragma solidity ^0.5.0;\r\npragma experimental ABIEncoderV2;\r\n\r\nimport \"./ProcessData.sol\";\r\nimport \"./IActor.sol\";\r\nimport \"./Enums.sol\";\r\n\r\ncontract Protocol {\r\n\r\n    address[] private Mitigators;\r\n\taddress[] private Targets;\r\n    address[] private CurrentProcesses;\r\n\r\n    event ProcessDataCreated(address _from, ProcessData addr);\r\n\tevent MitigatorCreated(address _from, IActor addr);\r\n\tevent TargetCreated(address _from, IActor addr);\r\n\t\r\n    function registerMitigator(address payable _MitigatorOwner,uint256 PricePerUnit,string memory NetworkName) public returns(address){\r\n        IActor Mitigator = new IActor(_MitigatorOwner,PricePerUnit,NetworkName);\r\n        Mitigators.push(Mitigator.getAddress());\r\n\t\temit MitigatorCreated(msg.sender,Mitigator);\r\n        return Mitigator.getAddress();\r\n    }\r\n\t\r\n\tfunction registerTarget(address payable _TargetOwner,uint256 PricePerUnit,string memory NetworkName) public returns(address){\r\n        IActor Target = new IActor(_TargetOwner,PricePerUnit,NetworkName);\r\n        Targets.push(Target.getAddress());\r\n\t\temit TargetCreated(msg.sender,Target);\r\n        return Target.getAddress();\r\n    }\r\n\r\n    function init(address _Mitigator,uint _DeadlineInterval,uint256 _OfferedFunds,string memory _ListOfAddresses, uint _NumberOfAddresses) \r\n    public \r\n    returns (ProcessData){\r\n        \r\n        require(bytes(_ListOfAddresses).length >0,\"no addresses provided\");\r\n        require(isMitigator(_Mitigator),\"no mitigator\");\r\n        require(IActor(_Mitigator).isOfferAcceptable(_OfferedFunds,_NumberOfAddresses),\"Funds too low\");\r\n        require(senderIsTarget(msg.sender),\"Sender is not registered as a Target\");\r\n\t\t\r\n        IActor _Target = IActor(getTarget(msg.sender));\r\n        ProcessData newProcessData = new ProcessData(_Target.getAddress(),_Mitigator,_DeadlineInterval,_OfferedFunds,_ListOfAddresses);\r\n        CurrentProcesses.push(newProcessData.getAddress());\r\n\t\temit ProcessDataCreated(msg.sender,newProcessData);\r\n\t\t\r\n        return newProcessData;\r\n    }\r\n\r\n    function approve(address payable process,bool descision) \r\n    public\r\n    returns (ProcessData){\r\n        \r\n        require(isProcess(process),\"Process does not exist\");\r\n        require(canSenderAdvance(process,Enums.State.APPROVE),\"Sender is not allowed\");\r\n        \r\n        ProcessData ProcessToUse = ProcessData(process);\r\n        \r\n        if(descision){\r\n            ProcessToUse.setState(Enums.State.FUNDING);\r\n            ProcessToUse.setNextActor(ProcessToUse.getTarget());\r\n        }else{\r\n            ProcessToUse.setState(Enums.State.ABORT);\r\n\t\t\tProcessToUse.setNextActor(ProcessToUse.getTarget());\r\n        }\r\n  \r\n        return ProcessToUse;\r\n    }\r\n    \r\n    function sendFunds(address payable process) \r\n    public\r\n    payable\r\n    returns (ProcessData){\r\n        \r\n        require(isProcess(process),\"Process does not exist\");\r\n        require(canSenderAdvance(process,Enums.State.FUNDING),\"Sender is not allowed\");\r\n        \r\n        ProcessData ProcessToUse = ProcessData(process);\r\n        \r\n        ProcessToUse.receiveFunds(msg.value);\r\n        ProcessToUse.setNextActor(ProcessToUse.getMitigator());\r\n        ProcessToUse.setState(Enums.State.PROOF);\r\n        ProcessToUse.setNextDeadline();\r\n        \r\n        return ProcessToUse;\r\n    }\r\n    \r\n    \r\n    function uploadProof(address payable process,string memory _Proof) \r\n    public\r\n    payable\r\n    returns (ProcessData){\r\n        \r\n        require(isProcess(process),\"Process does not exist\");\r\n        require(canSenderAdvance(process,Enums.State.PROOF),\"Sender is not allowed\");\r\n        \r\n        ProcessData ProcessToUse = ProcessData(process);\r\n        ProcessToUse.setProof(_Proof);\r\n        ProcessToUse.setNextActor(ProcessToUse.getTarget());\r\n        ProcessToUse.setState(Enums.State.TRATE);\r\n        ProcessToUse.setNextDeadline();\r\n        \r\n        return ProcessToUse;\r\n    }\r\n    \r\n    function ratingByTarget(address payable process,Enums.Rating rating) \r\n    public\r\n    payable\r\n    returns (ProcessData){\r\n        \r\n        require(isProcess(process),\"Process does not exist\");\r\n        require(canSenderAdvance(process,Enums.State.TRATE),\"Sender is not allowed\");\r\n        \r\n        ProcessData ProcessToUse = ProcessData(process);\r\n        \r\n        if(!ProcessToUse.isProofProvided()){\r\n            ProcessToUse.setTargetRating(rating);\r\n\t\t\tProcessToUse.setNextActor(ProcessToUse.getTarget());\r\n\t\t\tProcessToUse.setState(Enums.State.COMPLETE);\r\n            ProcessToUse.executeEvaluation();\r\n            return ProcessToUse;\r\n        }\r\n        \r\n        ProcessToUse.setTargetRating(rating);\r\n        ProcessToUse.setNextActor(ProcessToUse.getMitigator());\r\n        ProcessToUse.setState(Enums.State.MRATE);\r\n        ProcessToUse.setNextDeadline();\r\n        \r\n        return ProcessToUse;\r\n         \r\n    }\r\n    \r\n    function ratingByMitigator(address payable process,Enums.Rating rating) \r\n    public\r\n    payable\r\n    returns (ProcessData){\r\n        \r\n        require(isProcess(process),\"Process does not exist\");\r\n\t\t\r\n        require(canSenderAdvance(process,Enums.State.MRATE),\"Sender is not allowed to advance due to: \");\r\n        \r\n        ProcessData ProcessToUse = ProcessData(process);\r\n        ProcessToUse.setMitigatorRating(rating);\r\n        ProcessToUse.executeEvaluation();\r\n\r\n        return ProcessToUse;\r\n    }\r\n\t\r\n\tfunction canCurrentStateBeSkipped(address payable process) private returns(bool){\r\n\t\treturn false;\r\n\t}\r\n   \r\n    /*Checks where the sender of the message is the next actor and the state \r\n    of the action to be performed is the one immediately following in the process\r\n    and if deadline is exceeded*/\r\n    function canSenderAdvance(address payable process,Enums.State newState) \r\n    private \r\n    view\r\n    returns(bool){\r\n        \r\n\t\trequire(isProcess(process),\"Process not found\");\r\n        ProcessData CurrentProcess = getProcess(process);\r\n\r\n        require(CurrentProcess.getNextActor().getOwner() == msg.sender,\"NextActor != Sender\");\r\n        require(uint(newState)==uint(CurrentProcess.getState()),\"Next state would be lower\");\r\n        if(CurrentProcess.getState()<uint(Enums.State.FUNDING)){\r\n            require(now>CurrentProcess.getDeadline(),\"state >=start && now > deadline\");\r\n        }\r\n        \r\n        return true;\r\n    }\r\n\t\r\n\tfunction getProcess(address payable process) \r\n    public view \r\n    returns(ProcessData){\r\n        for (uint i = 0 ; i < CurrentProcesses.length; i++) {\r\n            if(CurrentProcesses[i]==process){\r\n                return ProcessData(process);\r\n            }\r\n        }\r\n\t\treturn ProcessData(0);\r\n    }\r\n\t\r\n    function getProcesses() \r\n    public view \r\n    returns(address[] memory){\r\n        return CurrentProcesses;\r\n    }\r\n    \r\n\r\n    function getStateOfProcess(address payable process) \r\n    public view \r\n    returns(address payable,address payable,address payable,uint,string memory,uint,uint,uint){\r\n        ProcessData ProcessToUse = ProcessData(process);\r\n        return (ProcessToUse.getTarget().getOwner(),ProcessToUse.getMitigator().getOwner(),ProcessToUse.getNextActor().getOwner()\r\n        ,ProcessToUse.getFunds(),ProcessToUse.getProof(),uint(ProcessToUse.getState())\r\n        ,uint(ProcessToUse.getTargetRating()),uint(ProcessToUse.getMitigatorRating()));\r\n    }\r\n    \r\n    function isProcess(address payable process) \r\n    private view \r\n    returns(bool){\r\n        for (uint i = 0 ; i < CurrentProcesses.length; i++) {\r\n            if(CurrentProcesses[i]==process){\r\n                return true;\r\n            }\r\n        }\r\n        return false;\r\n    }\r\n    \r\n    function isMitigator(address mitigator) \r\n    private view \r\n    returns(bool){\r\n        for (uint i = 0 ; i < Mitigators.length; i++) {\r\n            if(Mitigators[i]==mitigator){\r\n                return true;\r\n            }\r\n        }\r\n        return false;\r\n    }\r\n\t\r\n\tfunction senderIsTarget(address payable owner) \r\n    private view \r\n    returns(bool){\r\n        for (uint i = 0 ; i < Targets.length; i++) {\r\n            if(IActor(Targets[i]).getOwner()==owner){\r\n                return true;\r\n            }\r\n        }\r\n        return false;\r\n    }\r\n\t\r\n\tfunction getTarget(address payable owner) \r\n    private view \r\n    returns(address){\r\n        for (uint i = 0 ; i < Targets.length; i++) {\r\n            if(IActor(Targets[i]).getOwner()==owner){\r\n                return Targets[i];\r\n            }\r\n        }\r\n\t\treturn address(0);\r\n    }\r\n}",
  "sourcePath": "C:/Code/Private/CooperativeSignaling/contracts/Protocol.sol",
  "compiler": {
    "name": "solc",
    "version": "0.5.0+commit.1d4f565a.Emscripten.clang"
  },
  "schemaVersion": "3.0.1",
  "updatedAt": "2019-02-02T16:29:05.746Z",
  "devdoc": {
    "methods": {}
  },
  "userdoc": {
    "methods": {}
  }
}