{
  "contractName": "Protocol",
  "abi": [
    {
      "anonymous": false,
      "inputs": [
        {
          "indexed": false,
          "name": "_from",
          "type": "address"
        },
        {
          "indexed": false,
          "name": "addr",
          "type": "address"
        }
      ],
      "name": "ProcessDataCreated",
      "type": "event",
      "signature": "0x0882f6c178d03f7e5056c19884ff9dbd841f072c80be76045db6007f9ca30fb5"
    },
    {
      "anonymous": false,
      "inputs": [
        {
          "indexed": false,
          "name": "_from",
          "type": "address"
        },
        {
          "indexed": false,
          "name": "addr",
          "type": "address"
        }
      ],
      "name": "MitigatorCreated",
      "type": "event",
      "signature": "0x00348a694629aa1d95f5871c91c0b8722435ece0397f5913b4c368069f86e7be"
    },
    {
      "anonymous": false,
      "inputs": [
        {
          "indexed": false,
          "name": "_from",
          "type": "address"
        },
        {
          "indexed": false,
          "name": "addr",
          "type": "address"
        }
      ],
      "name": "TargetCreated",
      "type": "event",
      "signature": "0xc2772959c7d8d2b8db9eb70d179850c99c875ab14cc6768dcfbc8c1d1a5793b6"
    },
    {
      "constant": false,
      "inputs": [
        {
          "name": "_MitigatorOwner",
          "type": "address"
        },
        {
          "name": "PricePerUnit",
          "type": "uint256"
        },
        {
          "name": "NetworkName",
          "type": "string"
        }
      ],
      "name": "registerMitigator",
      "outputs": [
        {
          "name": "",
          "type": "address"
        }
      ],
      "payable": false,
      "stateMutability": "nonpayable",
      "type": "function",
      "signature": "0x0be796b5"
    },
    {
      "constant": false,
      "inputs": [
        {
          "name": "_TargetOwner",
          "type": "address"
        },
        {
          "name": "PricePerUnit",
          "type": "uint256"
        },
        {
          "name": "NetworkName",
          "type": "string"
        }
      ],
      "name": "registerTarget",
      "outputs": [
        {
          "name": "",
          "type": "address"
        }
      ],
      "payable": false,
      "stateMutability": "nonpayable",
      "type": "function",
      "signature": "0xfb9cb44a"
    },
    {
      "constant": false,
      "inputs": [
        {
          "name": "_Mitigator",
          "type": "address"
        },
        {
          "name": "_DeadlineInterval",
          "type": "uint256"
        },
        {
          "name": "_OfferedFunds",
          "type": "uint256"
        },
        {
          "name": "_ListOfAddresses",
          "type": "string"
        },
        {
          "name": "_NumberOfAddresses",
          "type": "uint256"
        }
      ],
      "name": "init",
      "outputs": [
        {
          "name": "",
          "type": "address"
        }
      ],
      "payable": false,
      "stateMutability": "nonpayable",
      "type": "function",
      "signature": "0x3d99bdc7"
    },
    {
      "constant": false,
      "inputs": [
        {
          "name": "process",
          "type": "address"
        },
        {
          "name": "descision",
          "type": "bool"
        }
      ],
      "name": "approve",
      "outputs": [
        {
          "name": "",
          "type": "address"
        }
      ],
      "payable": false,
      "stateMutability": "nonpayable",
      "type": "function",
      "signature": "0x3d140d21"
    },
    {
      "constant": false,
      "inputs": [
        {
          "name": "process",
          "type": "address"
        }
      ],
      "name": "sendFunds",
      "outputs": [
        {
          "name": "",
          "type": "address"
        }
      ],
      "payable": true,
      "stateMutability": "payable",
      "type": "function",
      "signature": "0xcfe52bdd"
    },
    {
      "constant": false,
      "inputs": [
        {
          "name": "process",
          "type": "address"
        },
        {
          "name": "_Proof",
          "type": "string"
        }
      ],
      "name": "proofUploaded",
      "outputs": [
        {
          "name": "",
          "type": "address"
        }
      ],
      "payable": true,
      "stateMutability": "payable",
      "type": "function",
      "signature": "0x6708f4a1"
    },
    {
      "constant": false,
      "inputs": [
        {
          "name": "process",
          "type": "address"
        },
        {
          "name": "rating",
          "type": "uint8"
        }
      ],
      "name": "ratingByTarget",
      "outputs": [
        {
          "name": "",
          "type": "address"
        }
      ],
      "payable": true,
      "stateMutability": "payable",
      "type": "function",
      "signature": "0x9cd14d73"
    },
    {
      "constant": false,
      "inputs": [
        {
          "name": "process",
          "type": "address"
        },
        {
          "name": "rating",
          "type": "uint8"
        }
      ],
      "name": "ratingByMitigator",
      "outputs": [
        {
          "name": "",
          "type": "address"
        }
      ],
      "payable": true,
      "stateMutability": "payable",
      "type": "function",
      "signature": "0xcd0a1d60"
    },
    {
      "constant": true,
      "inputs": [],
      "name": "getProcesses",
      "outputs": [
        {
          "name": "",
          "type": "address[]"
        }
      ],
      "payable": false,
      "stateMutability": "view",
      "type": "function",
      "signature": "0x6e52b239"
    },
    {
      "constant": true,
      "inputs": [
        {
          "name": "process",
          "type": "address"
        }
      ],
      "name": "getStateOfProcess",
      "outputs": [
        {
          "name": "",
          "type": "address"
        },
        {
          "name": "",
          "type": "address"
        },
        {
          "name": "",
          "type": "address"
        },
        {
          "name": "",
          "type": "uint256"
        },
        {
          "name": "",
          "type": "string"
        },
        {
          "name": "",
          "type": "uint256"
        },
        {
          "name": "",
          "type": "uint256"
        },
        {
          "name": "",
          "type": "uint256"
        }
      ],
      "payable": false,
      "stateMutability": "view",
      "type": "function",
      "signature": "0x4152d427"
    }
  ],
  "bytecode": "0x60806040526200000e62000060565b604051809103906000f0801580156200002b573d6000803e3d6000fd5b5060038054600160a060020a031916600160a060020a03929092169190911790553480156200005957600080fd5b5062000071565b60405161088f8062003aeb83390190565b613a6a80620000816000396000f3fe608060405260043610620000955763ffffffff60e060020a6000350416630be796b581146200009a5780633d140d2114620000d75780633d99bdc7146200010b5780634152d42714620001305780636708f4a1146200016b5780636e52b23914620001825780639cd14d7314620001a9578063cd0a1d6014620001c0578063cfe52bdd14620001d7578063fb9cb44a14620001ee575b600080fd5b348015620000a757600080fd5b50620000bf620000b936600462002279565b62000213565b604051620000ce91906200277c565b60405180910390f35b348015620000e457600080fd5b50620000fc620000f6366004620021b7565b620003c8565b604051620000ce9190620028e4565b3480156200011857600080fd5b50620000fc6200012a366004620022e6565b620005f3565b3480156200013d57600080fd5b50620001556200014f36600462002196565b62000903565b604051620000ce9897969594939291906200278c565b620000fc6200017c3660046200222b565b62000e71565b3480156200018f57600080fd5b506200019a620010d0565b604051620000ce9190620028d1565b620000fc620001ba366004620021f6565b62001134565b620000fc620001d1366004620021f6565b620014c7565b620000fc620001e836600462002196565b6200164f565b348015620001fb57600080fd5b50620000bf6200020d36600462002279565b620018d1565b6000808484846200022362002024565b620002319392919062002839565b604051809103906000f0801580156200024e573d6000803e3d6000fd5b509050600081600160a060020a03166338cc48316040518163ffffffff1660e060020a02815260040160206040518083038186803b1580156200029057600080fd5b505afa158015620002a5573d6000803e3d6000fd5b505050506040513d601f19601f82011682018060405250620002cb91908101906200216d565b815460018101835560009283526020909220909101805473ffffffffffffffffffffffffffffffffffffffff1916600160a060020a039092169190911790556040517e348a694629aa1d95f5871c91c0b8722435ece0397f5913b4c368069f86e7be906200033d90339084906200281a565b60405180910390a180600160a060020a03166338cc48316040518163ffffffff1660e060020a02815260040160206040518083038186803b1580156200038257600080fd5b505afa15801562000397573d6000803e3d6000fd5b505050506040513d601f19601f82011682018060405250620003bd91908101906200216d565b9150505b9392505050565b6000620003d583620019fc565b1515620004025760405160e560020a62461bcd028152600401620003f9906200295d565b60405180910390fd5b6200040f83600162001a5e565b1515620004335760405160e560020a62461bcd028152600401620003f990620029c9565b828215620005835760405160e060020a6356de96db028152600160a060020a038216906356de96db906200046d9060029060040162002904565b600060405180830381600087803b1580156200048857600080fd5b505af11580156200049d573d6000803e3d6000fd5b5050505080600160a060020a031663f6e9178982600160a060020a031663f00e6a2a6040518163ffffffff1660e060020a02815260040160206040518083038186803b158015620004ed57600080fd5b505afa15801562000502573d6000803e3d6000fd5b505050506040513d601f19601f82011682018060405250620005289190810190620023a0565b6040518263ffffffff1660e060020a028152600401620005499190620028e4565b600060405180830381600087803b1580156200056457600080fd5b505af115801562000579573d6000803e3d6000fd5b50505050620005ea565b60405160e060020a6356de96db028152600160a060020a038216906356de96db90620005b59060079060040162002904565b600060405180830381600087803b158015620005d057600080fd5b505af1158015620005e5573d6000803e3d6000fd5b505050505b90505b92915050565b60008083511115156200061d5760405160e560020a62461bcd028152600401620003f99062002993565b620006288662001dd2565b15156200064c5760405160e560020a62461bcd028152600401620003f990620029a5565b6040517fa5ebeaa4000000000000000000000000000000000000000000000000000000008152600160a060020a0387169063a5ebeaa490620006959087908690600401620029fd565b60206040518083038186803b158015620006ae57600080fd5b505afa158015620006c3573d6000803e3d6000fd5b505050506040513d601f19601f82011682018060405250620006e991908101906200237f565b15156200070d5760405160e560020a62461bcd028152600401620003f9906200296f565b620007183362001e2b565b15156200073c5760405160e560020a62461bcd028152600401620003f9906200294b565b6000620007493362001f16565b9050600081600160a060020a03166338cc48316040518163ffffffff1660e060020a02815260040160206040518083038186803b1580156200078a57600080fd5b505afa1580156200079f573d6000803e3d6000fd5b505050506040513d601f19601f82011682018060405250620007c591908101906200216d565b88888888620007d362002035565b620007e395949392919062002875565b604051809103906000f08015801562000800573d6000803e3d6000fd5b509050600281600160a060020a03166338cc48316040518163ffffffff1660e060020a02815260040160206040518083038186803b1580156200084257600080fd5b505afa15801562000857573d6000803e3d6000fd5b505050506040513d601f19601f820116820180604052506200087d91908101906200216d565b815460018101835560009283526020909220909101805473ffffffffffffffffffffffffffffffffffffffff1916600160a060020a039092169190911790556040517f0882f6c178d03f7e5056c19884ff9dbd841f072c80be76045db6007f9ca30fb590620008f090339084906200281a565b60405180910390a1979650505050505050565b600080600080606060008060008089905080600160a060020a031663f00e6a2a6040518163ffffffff1660e060020a02815260040160206040518083038186803b1580156200095157600080fd5b505afa15801562000966573d6000803e3d6000fd5b505050506040513d601f19601f820116820180604052506200098c9190810190620023a0565b600160a060020a031663893d20e86040518163ffffffff1660e060020a02815260040160206040518083038186803b158015620009c857600080fd5b505afa158015620009dd573d6000803e3d6000fd5b505050506040513d601f19601f8201168201806040525062000a0391908101906200216d565b81600160a060020a03166350b1be266040518163ffffffff1660e060020a02815260040160206040518083038186803b15801562000a4057600080fd5b505afa15801562000a55573d6000803e3d6000fd5b505050506040513d601f19601f8201168201806040525062000a7b9190810190620023a0565b600160a060020a031663893d20e86040518163ffffffff1660e060020a02815260040160206040518083038186803b15801562000ab757600080fd5b505afa15801562000acc573d6000803e3d6000fd5b505050506040513d601f19601f8201168201806040525062000af291908101906200216d565b82600160a060020a0316631b3e7c4b6040518163ffffffff1660e060020a02815260040160206040518083038186803b15801562000b2f57600080fd5b505afa15801562000b44573d6000803e3d6000fd5b505050506040513d601f19601f8201168201806040525062000b6a9190810190620023a0565b600160a060020a031663893d20e86040518163ffffffff1660e060020a02815260040160206040518083038186803b15801562000ba657600080fd5b505afa15801562000bbb573d6000803e3d6000fd5b505050506040513d601f19601f8201168201806040525062000be191908101906200216d565b83600160a060020a0316634d9b37356040518163ffffffff1660e060020a02815260040160206040518083038186803b15801562000c1e57600080fd5b505afa15801562000c33573d6000803e3d6000fd5b505050506040513d601f19601f8201168201806040525062000c5991908101906200241b565b84600160a060020a0316635c5d625e6040518163ffffffff1660e060020a02815260040160006040518083038186803b15801562000c9657600080fd5b505afa15801562000cab573d6000803e3d6000fd5b505050506040513d6000823e601f3d908101601f1916820160405262000cd59190810190620023e2565b85600160a060020a0316631865c57d6040518163ffffffff1660e060020a02815260040160206040518083038186803b15801562000d1257600080fd5b505afa15801562000d27573d6000803e3d6000fd5b505050506040513d601f19601f8201168201806040525062000d4d91908101906200241b565b86600160a060020a0316639ed5b5026040518163ffffffff1660e060020a02815260040160206040518083038186803b15801562000d8a57600080fd5b505afa15801562000d9f573d6000803e3d6000fd5b505050506040513d601f19601f8201168201806040525062000dc59190810190620023c1565b600281111562000dd157fe5b87600160a060020a03166390f3213d6040518163ffffffff1660e060020a02815260040160206040518083038186803b15801562000e0e57600080fd5b505afa15801562000e23573d6000803e3d6000fd5b505050506040513d601f19601f8201168201806040525062000e499190810190620023c1565b600281111562000e5557fe5b9850985098509850985098509850985050919395975091939597565b600062000e7e83620019fc565b151562000ea25760405160e560020a62461bcd028152600401620003f9906200295d565b62000eaf83600362001a5e565b151562000ed35760405160e560020a62461bcd028152600401620003f990620029c9565b6040517f15336f800000000000000000000000000000000000000000000000000000000081528390600160a060020a038216906315336f809062000f1c90869060040162002914565b600060405180830381600087803b15801562000f3757600080fd5b505af115801562000f4c573d6000803e3d6000fd5b5050505080600160a060020a031663f6e9178982600160a060020a031663f00e6a2a6040518163ffffffff1660e060020a02815260040160206040518083038186803b15801562000f9c57600080fd5b505afa15801562000fb1573d6000803e3d6000fd5b505050506040513d601f19601f8201168201806040525062000fd79190810190620023a0565b6040518263ffffffff1660e060020a02815260040162000ff89190620028e4565b600060405180830381600087803b1580156200101357600080fd5b505af115801562001028573d6000803e3d6000fd5b505060405160e060020a6356de96db028152600160a060020a03841692506356de96db91506200105d90600490810162002904565b600060405180830381600087803b1580156200107857600080fd5b505af11580156200108d573d6000803e3d6000fd5b5050505080600160a060020a0316639363d6f26040518163ffffffff1660e060020a028152600401600060405180830381600087803b158015620005d057600080fd5b606060028054806020026020016040519081016040528092919081815260200182805480156200112a57602002820191906000526020600020905b8154600160a060020a031681526001909101906020018083116200110b575b5050505050905090565b60006200114183620019fc565b1515620011655760405160e560020a62461bcd028152600401620003f9906200295d565b6200117283600462001a5e565b1515620011965760405160e560020a62461bcd028152600401620003f990620029c9565b600083905080600160a060020a031663620ae1c76040518163ffffffff1660e060020a02815260040160206040518083038186803b158015620011d857600080fd5b505afa158015620011ed573d6000803e3d6000fd5b505050506040513d601f19601f820116820180604052506200121391908101906200237f565b156200133e576040517fa3bbb090000000000000000000000000000000000000000000000000000000008152600160a060020a0382169063a3bbb0909062001260908690600401620028f4565b600060405180830381600087803b1580156200127b57600080fd5b505af115801562001290573d6000803e3d6000fd5b50506003546040517ff721fb24000000000000000000000000000000000000000000000000000000008152600160a060020a03909116925063f721fb249150620012df908490600401620028e4565b602060405180830381600087803b158015620012fa57600080fd5b505af11580156200130f573d6000803e3d6000fd5b505050506040513d601f19601f82011682018060405250620013359190810190620023a0565b509050620005ed565b6040517fa3bbb090000000000000000000000000000000000000000000000000000000008152600160a060020a0382169063a3bbb0909062001385908690600401620028f4565b600060405180830381600087803b158015620013a057600080fd5b505af1158015620013b5573d6000803e3d6000fd5b5050505080600160a060020a031663f6e9178982600160a060020a03166350b1be266040518163ffffffff1660e060020a02815260040160206040518083038186803b1580156200140557600080fd5b505afa1580156200141a573d6000803e3d6000fd5b505050506040513d601f19601f82011682018060405250620014409190810190620023a0565b6040518263ffffffff1660e060020a028152600401620014619190620028e4565b600060405180830381600087803b1580156200147c57600080fd5b505af115801562001491573d6000803e3d6000fd5b505060405160e060020a6356de96db028152600160a060020a03841692506356de96db91506200105d9060059060040162002904565b6000620014d483620019fc565b1515620014f85760405160e560020a62461bcd028152600401620003f9906200295d565b6200150583600562001a5e565b1515620015295760405160e560020a62461bcd028152600401620003f990620029b7565b6040517f1dc9b2840000000000000000000000000000000000000000000000000000000081528390600160a060020a03821690631dc9b2849062001572908690600401620028f4565b600060405180830381600087803b1580156200158d57600080fd5b505af1158015620015a2573d6000803e3d6000fd5b50506003546040517ff721fb24000000000000000000000000000000000000000000000000000000008152600160a060020a03909116925063f721fb249150620015f1908490600401620028e4565b602060405180830381600087803b1580156200160c57600080fd5b505af115801562001621573d6000803e3d6000fd5b505050506040513d601f19601f82011682018060405250620016479190810190620023a0565b509392505050565b60006200165c82620019fc565b1515620016805760405160e560020a62461bcd028152600401620003f9906200295d565b6200168d82600262001a5e565b1515620016b15760405160e560020a62461bcd028152600401620003f990620029c9565b6040517f8827e09b0000000000000000000000000000000000000000000000000000000081528290600160a060020a03821690638827e09b90620016fa903490600401620029ed565b600060405180830381600087803b1580156200171557600080fd5b505af11580156200172a573d6000803e3d6000fd5b5050505080600160a060020a031663f6e9178982600160a060020a03166350b1be266040518163ffffffff1660e060020a02815260040160206040518083038186803b1580156200177a57600080fd5b505afa1580156200178f573d6000803e3d6000fd5b505050506040513d601f19601f82011682018060405250620017b59190810190620023a0565b6040518263ffffffff1660e060020a028152600401620017d69190620028e4565b600060405180830381600087803b158015620017f157600080fd5b505af115801562001806573d6000803e3d6000fd5b505060405160e060020a6356de96db028152600160a060020a03841692506356de96db91506200183c9060039060040162002904565b600060405180830381600087803b1580156200185757600080fd5b505af11580156200186c573d6000803e3d6000fd5b5050505080600160a060020a0316639363d6f26040518163ffffffff1660e060020a028152600401600060405180830381600087803b158015620018af57600080fd5b505af1158015620018c4573d6000803e3d6000fd5b509293505050505b919050565b600080848484620018e162002024565b620018ef9392919062002839565b604051809103906000f0801580156200190c573d6000803e3d6000fd5b509050600181600160a060020a03166338cc48316040518163ffffffff1660e060020a02815260040160206040518083038186803b1580156200194e57600080fd5b505afa15801562001963573d6000803e3d6000fd5b505050506040513d601f19601f820116820180604052506200198991908101906200216d565b815460018101835560009283526020909220909101805473ffffffffffffffffffffffffffffffffffffffff1916600160a060020a039092169190911790556040517fc2772959c7d8d2b8db9eb70d179850c99c875ab14cc6768dcfbc8c1d1a5793b6906200033d90339084906200281a565b6000805b60025481101562001a555782600160a060020a031660028281548110151562001a2557fe5b600091825260209091200154600160a060020a0316141562001a4c576001915050620018cc565b60010162001a00565b50600092915050565b60008080805b60025481101562001ab65785600160a060020a031660028281548110151562001a8957fe5b600091825260209091200154600160a060020a0316141562001aad57600191508592505b60010162001a64565b5080151562001adc5760405160e560020a62461bcd028152600401620003f99062002927565b33600160a060020a031682600160a060020a0316631b3e7c4b6040518163ffffffff1660e060020a02815260040160206040518083038186803b15801562001b2357600080fd5b505afa15801562001b38573d6000803e3d6000fd5b505050506040513d601f19601f8201168201806040525062001b5e9190810190620023a0565b600160a060020a031663893d20e86040518163ffffffff1660e060020a02815260040160206040518083038186803b15801562001b9a57600080fd5b505afa15801562001baf573d6000803e3d6000fd5b505050506040513d601f19601f8201168201806040525062001bd591908101906200216d565b600160a060020a03161462001c015760405160e560020a62461bcd028152600401620003f99062002981565b81600160a060020a0316631865c57d6040518163ffffffff1660e060020a02815260040160206040518083038186803b15801562001c3e57600080fd5b505afa15801562001c53573d6000803e3d6000fd5b505050506040513d601f19601f8201168201806040525062001c7991908101906200241b565b84600881111562001c8657fe5b101562001caa5760405160e560020a62461bcd028152600401620003f990620029db565b600282600160a060020a0316631865c57d6040518163ffffffff1660e060020a02815260040160206040518083038186803b15801562001ce957600080fd5b505afa15801562001cfe573d6000803e3d6000fd5b505050506040513d601f19601f8201168201806040525062001d2491908101906200241b565b101562001dc75781600160a060020a0316635f8d96de6040518163ffffffff1660e060020a02815260040160206040518083038186803b15801562001d6857600080fd5b505afa15801562001d7d573d6000803e3d6000fd5b505050506040513d601f19601f8201168201806040525062001da391908101906200241b565b421162001dc75760405160e560020a62461bcd028152600401620003f99062002939565b506001949350505050565b6000805b60005481101562001a555782600160a060020a031660008281548110151562001dfb57fe5b600091825260209091200154600160a060020a0316141562001e22576001915050620018cc565b60010162001dd6565b6000805b60015481101562001a555782600160a060020a031660018281548110151562001e5457fe5b60009182526020918290200154604080517f893d20e80000000000000000000000000000000000000000000000000000000081529051600160a060020a039092169263893d20e892600480840193829003018186803b15801562001eb757600080fd5b505afa15801562001ecc573d6000803e3d6000fd5b505050506040513d601f19601f8201168201806040525062001ef291908101906200216d565b600160a060020a0316141562001f0d576001915050620018cc565b60010162001e2f565b6000805b60015481101562001a555782600160a060020a031660018281548110151562001f3f57fe5b60009182526020918290200154604080517f893d20e80000000000000000000000000000000000000000000000000000000081529051600160a060020a039092169263893d20e892600480840193829003018186803b15801562001fa257600080fd5b505afa15801562001fb7573d6000803e3d6000fd5b505050506040513d601f19601f8201168201806040525062001fdd91908101906200216d565b600160a060020a031614156200201b57600180548290811062001ffc57fe5b600091825260209091200154600160a060020a03169150620018cc9050565b60010162001f1a565b6040516104b68062002b4483390190565b604051610a378062002ffa83390190565b6000620003c1823562002a77565b6000620003c1825162002a77565b6000620003c1823562002ab1565b6000620003c1825162002ab1565b6000620003c1825162002ab6565b6000620003c1823562002ac3565b6000620003c1825162002ac3565b6000601f82018313620020ba57600080fd5b8135620020d1620020cb8262002a44565b62002a1c565b91508082526020830160208301858383011115620020ee57600080fd5b620020fb83828462002afa565b50505092915050565b6000601f820183136200211657600080fd5b815162002127620020cb8262002a44565b915080825260208301602083018583830111156200214457600080fd5b620020fb83828462002b06565b6000620003c1823562002aae565b6000620003c1825162002aae565b6000602082840312156200218057600080fd5b60006200218e848462002054565b949350505050565b600060208284031215620021a957600080fd5b60006200218e848462002046565b60008060408385031215620021cb57600080fd5b6000620021d9858562002046565b9250506020620021ec8582860162002062565b9150509250929050565b600080604083850312156200220a57600080fd5b600062002218858562002046565b9250506020620021ec858286016200208c565b600080604083850312156200223f57600080fd5b60006200224d858562002046565b925050602083013567ffffffffffffffff8111156200226b57600080fd5b620021ec85828601620020a8565b6000806000606084860312156200228f57600080fd5b60006200229d868662002046565b9350506020620022b08682870162002151565b925050604084013567ffffffffffffffff811115620022ce57600080fd5b620022dc86828701620020a8565b9150509250925092565b600080600080600060a08688031215620022ff57600080fd5b60006200230d888862002046565b9550506020620023208882890162002151565b9450506040620023338882890162002151565b935050606086013567ffffffffffffffff8111156200235157600080fd5b6200235f88828901620020a8565b9250506080620023728882890162002151565b9150509295509295909350565b6000602082840312156200239257600080fd5b60006200218e848462002070565b600060208284031215620023b357600080fd5b60006200218e84846200207e565b600060208284031215620023d457600080fd5b60006200218e84846200209a565b600060208284031215620023f557600080fd5b815167ffffffffffffffff8111156200240d57600080fd5b6200218e8482850162002104565b6000602082840312156200242e57600080fd5b60006200218e84846200215f565b620024478162002ad3565b82525050565b620024478162002a77565b6000620024658262002a73565b808452602084019350620024798362002a6d565b60005b82811015620024af57620024928683516200244d565b6200249d8262002a6d565b6020969096019591506001016200247c565b5093949350505050565b620024478162002ab6565b620024478162002ae0565b620024478162002aed565b6000620024e78262002a73565b808452620024fd81602086016020860162002b06565b620025088162002b39565b9093016020019392505050565b601181527f50726f63657373206e6f7420666f756e64000000000000000000000000000000602082015260400190565b601f81527f7374617465203e3d7374617274202626206e6f77203e20646561646c696e6500602082015260400190565b602481527f53656e646572206973206e6f742072656769737465726564206173206120546160208201527f7267657400000000000000000000000000000000000000000000000000000000604082015260600190565b601681527f50726f6365737320646f6573206e6f7420657869737400000000000000000000602082015260400190565b600d81527f46756e647320746f6f206c6f7700000000000000000000000000000000000000602082015260400190565b601381527f4e6578744163746f7220213d2053656e64657200000000000000000000000000602082015260400190565b601581527f6e6f206164647265737365732070726f76696465640000000000000000000000602082015260400190565b600c81527f6e6f206d6974696761746f720000000000000000000000000000000000000000602082015260400190565b602981527f53656e646572206973206e6f7420616c6c6f77656420746f20616476616e636560208201527f2064756520746f3a200000000000000000000000000000000000000000000000604082015260600190565b601581527f53656e646572206973206e6f7420616c6c6f7765640000000000000000000000602082015260400190565b601981527f4e65787420737461746520776f756c64206265206c6f77657200000000000000602082015260400190565b620024478162002aae565b60208101620005ed82846200244d565b61010081016200279d828b6200244d565b620027ac602083018a6200244d565b620027bb60408301896200244d565b620027ca606083018862002771565b8181036080830152620027de8187620024da565b9050620027ef60a083018662002771565b620027fe60c083018562002771565b6200280d60e083018462002771565b9998505050505050505050565b604081016200282a82856200243c565b620003c16020830184620024b9565b606081016200284982866200244d565b62002858602083018562002771565b81810360408301526200286c8184620024da565b95945050505050565b60a081016200288582886200244d565b6200289460208301876200244d565b620028a3604083018662002771565b620028b2606083018562002771565b8181036080830152620028c68184620024da565b979650505050505050565b60208082528101620003c1818462002458565b60208101620005ed8284620024b9565b60208101620005ed8284620024c4565b60208101620005ed8284620024cf565b60208082528101620003c18184620024da565b60208082528101620005ed8162002515565b60208082528101620005ed8162002545565b60208082528101620005ed8162002575565b60208082528101620005ed81620025cb565b60208082528101620005ed81620025fb565b60208082528101620005ed816200262b565b60208082528101620005ed816200265b565b60208082528101620005ed816200268b565b60208082528101620005ed81620026bb565b60208082528101620005ed8162002711565b60208082528101620005ed8162002741565b60208101620005ed828462002771565b6040810162002a0d828562002771565b620003c1602083018462002771565b60405181810167ffffffffffffffff8111828210171562002a3c57600080fd5b604052919050565b600067ffffffffffffffff82111562002a5c57600080fd5b506020601f91909101601f19160190565b60200190565b5190565b6000620005ed8262002aa2565b60006003821062002a9157fe5b5090565b60006009821062002a9157fe5b600160a060020a031690565b90565b151590565b6000620005ed8262002a77565b60006003821062002a9157600080fd5b6000620005ed8262002ab6565b6000620005ed8262002a84565b6000620005ed8262002a95565b82818337506000910152565b60005b8381101562002b2357818101518382015260200162002b09565b8381111562002b33576000848401525b50505050565b601f01601f19169056fe608060405234801561001057600080fd5b506040516104b63803806104b68339810180604052606081101561003357600080fd5b815160208301516040840180519294919382019264010000000081111561005957600080fd5b8201602081018481111561006c57600080fd5b815164010000000081118282018710171561008657600080fd5b505060008054600160a060020a031916600160a060020a038816179055600185905580519093506100c092506002915060208401906100c9565b50505050610164565b828054600181600116156101000203166002900490600052602060002090601f016020900481019282601f1061010a57805160ff1916838001178555610137565b82800160010185558215610137579182015b8281111561013757825182559160200191906001019061011c565b50610143929150610147565b5090565b61016191905b80821115610143576000815560010161014d565b90565b610343806101736000396000f3fe60806040526004361061006c5763ffffffff7c010000000000000000000000000000000000000000000000000000000060003504166307e4b7e9811461007157806338cc4831146100fb578063893d20e814610139578063a5ebeaa41461014e578063a7cc53f514610192575b600080fd5b34801561007d57600080fd5b506100866101b9565b6040805160208082528351818301528351919283929083019185019080838360005b838110156100c05781810151838201526020016100a8565b50505050905090810190601f1680156100ed5780820380516001836020036101000a031916815260200191505b509250505060405180910390f35b34801561010757600080fd5b5061011061024c565b6040805173ffffffffffffffffffffffffffffffffffffffff9092168252519081900360200190f35b34801561014557600080fd5b50610110610250565b34801561015a57600080fd5b5061017e6004803603604081101561017157600080fd5b508035906020013561026c565b604080519115158252519081900360200190f35b34801561019e57600080fd5b506101a7610311565b60408051918252519081900360200190f35b60028054604080516020601f60001961010060018716150201909416859004938401819004810282018101909252828152606093909290918301828280156102425780601f1061021757610100808354040283529160200191610242565b820191906000526020600020905b81548152906001019060200180831161022557829003601f168201915b5050505050905090565b3090565b60005473ffffffffffffffffffffffffffffffffffffffff1690565b600154600090820283101561030857604080517f08c379a000000000000000000000000000000000000000000000000000000000815260206004820152602d60248201527f4f666665722077617320746f6f206c6f772c20706c656173652070726f76696460448201527f65206d6f72652066756e64732e00000000000000000000000000000000000000606482015290519081900360840190fd5b50600192915050565b6001549056fea165627a7a72305820e916cf7b595291c781971316cdf62e2e04bf2e62afd457f557fa935073dcf2140029608060405260006003556000600455604051610a37380380610a37833981018060405260a081101561003057600080fd5b81516020830151604084015160608501516080860180519496939592949193928301929164010000000081111561006657600080fd5b8201602081018481111561007957600080fd5b815164010000000081118282018710171561009357600080fd5b5050600385905560008054600160a060020a038a8116600160a060020a031992831617909255600180548a8416908316178082556002805490931693169290921790556007805460ff1916909117905560058690558051909350610100925060099150602084019061010b565b5050505050506101a6565b828054600181600116156101000203166002900490600052602060002090601f016020900481019282601f1061014c57805160ff1916838001178555610179565b82800160010185558215610179579182015b8281111561017957825182559160200191906001019061015e565b50610185929150610189565b5090565b6101a391905b80821115610185576000815560010161018f565b90565b610882806101b56000396000f3fe60806040526004361061011c5763ffffffff7c010000000000000000000000000000000000000000000000000000000060003504166311adbaad811461011e57806315336f80146101a85780631865c57d1461025b5780631b3e7c4b146102825780631dc9b284146102b35780631ecb0434146102e057806338cc4831146102f55780634d9b3735146102e057806350b1be261461030a57806356de96db1461031f5780635c5d625e1461034c5780635f8d96de14610361578063620ae1c7146103765780638827e09b1461039f57806390f3213d146103bc5780639363d6f2146103f55780639ed5b5021461040a578063a3bbb0901461041f578063e39ff19f1461044c578063f00e6a2a1461047f578063f6e9178914610494575b005b34801561012a57600080fd5b506101336104c7565b6040805160208082528351818301528351919283929083019185019080838360005b8381101561016d578181015183820152602001610155565b50505050905090810190601f16801561019a5780820380516001836020036101000a031916815260200191505b509250505060405180910390f35b3480156101b457600080fd5b5061011c600480360360208110156101cb57600080fd5b8101906020810181356401000000008111156101e657600080fd5b8201836020820111156101f857600080fd5b8035906020019184600183028401116401000000008311171561021a57600080fd5b91908080601f01602080910402602001604051908101604052809392919081815260200183838082843760009201919091525092955061055e945050505050565b34801561026757600080fd5b50610270610575565b60408051918252519081900360200190f35b34801561028e57600080fd5b5061029761058e565b60408051600160a060020a039092168252519081900360200190f35b3480156102bf57600080fd5b5061011c600480360360208110156102d657600080fd5b503560ff1661059d565b3480156102ec57600080fd5b506102706105c0565b34801561030157600080fd5b506102976105c6565b34801561031657600080fd5b506102976105ca565b34801561032b57600080fd5b5061011c6004803603602081101561034257600080fd5b503560ff166105d9565b34801561035857600080fd5b506101336105f2565b34801561036d57600080fd5b50610270610653565b34801561038257600080fd5b5061038b610659565b604080519115158252519081900360200190f35b61011c600480360360208110156103b557600080fd5b5035610687565b3480156103c857600080fd5b506103d161068c565b604051808260028111156103e157fe5b60ff16815260200191505060405180910390f35b34801561040157600080fd5b5061011c61069a565b34801561041657600080fd5b506103d16106a4565b34801561042b57600080fd5b5061011c6004803603602081101561044257600080fd5b503560ff166106ad565b34801561045857600080fd5b5061011c6004803603602081101561046f57600080fd5b5035600160a060020a03166106c6565b34801561048b57600080fd5b50610297610780565b3480156104a057600080fd5b5061011c600480360360208110156104b757600080fd5b5035600160a060020a031661078f565b60098054604080516020601f60026000196101006001881615020190951694909404938401819004810282018101909252828152606093909290918301828280156105535780601f1061052857610100808354040283529160200191610553565b820191906000526020600020905b81548152906001019060200180831161053657829003601f168201915b505050505090505b90565b80516105719060089060208401906107be565b5050565b60075460009060ff16600881111561058957fe5b905090565b600254600160a060020a031690565b600a805482919061ff0019166101008360028111156105b857fe5b021790555050565b60045490565b3090565b600154600160a060020a031690565b6007805482919060ff191660018360088111156105b857fe5b60088054604080516020601f60026000196101006001881615020190951694909404938401819004810282018101909252828152606093909290918301828280156105535780601f1061052857610100808354040283529160200191610553565b60065490565b600080600880546001816001161561010002031660029004905011156106815750600161055b565b50600090565b600455565b600a54610100900460ff1690565b6005544201600655565b600a5460ff1690565b600a805482919060ff191660018360028111156105b857fe5b80600160a060020a031663893d20e86040518163ffffffff167c010000000000000000000000000000000000000000000000000000000002815260040160206040518083038186803b15801561071b57600080fd5b505afa15801561072f573d6000803e3d6000fd5b505050506040513d602081101561074557600080fd5b5051600454604051600160a060020a039092169181156108fc0291906000818181858888f19350505050158015610571573d6000803e3d6000fd5b600054600160a060020a031690565b6002805473ffffffffffffffffffffffffffffffffffffffff1916600160a060020a0392909216919091179055565b828054600181600116156101000203166002900490600052602060002090601f016020900481019282601f106107ff57805160ff191683800117855561082c565b8280016001018555821561082c579182015b8281111561082c578251825591602001919060010190610811565b5061083892915061083c565b5090565b61055b91905b80821115610838576000815560010161084256fea165627a7a72305820fbb71066aea02c054aa6929b647cafd5215dcee6cad9c32167c1b425d520d5370029a265627a7a723058208efef2bf13d6165bb53ca7593d4a09f310156a5a2953c31509deb285f85f13af6c6578706572696d656e74616cf50037608060405234801561001057600080fd5b5061086f806100206000396000f3fe60806040526004361061005e5763ffffffff60e060020a6000350416631493ed6681146100635780632ad9cd9c1461008b578063aaff7109146100b1578063b29de4ae146100d7578063ce23480c146100b1578063f721fb24146100fd575b600080fd5b6100896004803603602081101561007957600080fd5b5035600160a060020a031661013f565b005b610089600480360360208110156100a157600080fd5b5035600160a060020a0316610364565b610089600480360360208110156100c757600080fd5b5035600160a060020a0316610476565b610089600480360360208110156100ed57600080fd5b5035600160a060020a031661053c565b6101236004803603602081101561011357600080fd5b5035600160a060020a03166107b9565b60408051600160a060020a039092168252519081900360200190f35b600081600160a060020a0316639ed5b5026040518163ffffffff1660e060020a02815260040160206040518083038186803b15801561017d57600080fd5b505afa158015610191573d6000803e3d6000fd5b505050506040513d60208110156101a757600080fd5b505160028111156101b457fe5b14156102f95780600160a060020a031663e39ff19f82600160a060020a031663f00e6a2a6040518163ffffffff1660e060020a02815260040160206040518083038186803b15801561020557600080fd5b505afa158015610219573d6000803e3d6000fd5b505050506040513d602081101561022f57600080fd5b50516040805160e060020a63ffffffff8516028152600160a060020a03909216600483015251602480830192600092919082900301818387803b15801561027557600080fd5b505af1158015610289573d6000803e3d6000fd5b505060405160e060020a6356de96db028152600160a060020a03841692506356de96db915060069060040180825b60ff168152602001915050600060405180830381600087803b1580156102dc57600080fd5b505af11580156102f0573d6000803e3d6000fd5b50505050610361565b60405160e060020a6356de96db028152600160a060020a038216906356de96db9060079060040180825b60ff168152602001915050600060405180830381600087803b15801561034857600080fd5b505af115801561035c573d6000803e3d6000fd5b505050505b50565b600281600160a060020a0316639ed5b5026040518163ffffffff1660e060020a02815260040160206040518083038186803b1580156103a257600080fd5b505afa1580156103b6573d6000803e3d6000fd5b505050506040513d60208110156103cc57600080fd5b505160028111156103d957fe5b14156103ed576103e881610476565b610361565b600081600160a060020a0316639ed5b5026040518163ffffffff1660e060020a02815260040160206040518083038186803b15801561042b57600080fd5b505afa15801561043f573d6000803e3d6000fd5b505050506040513d602081101561045557600080fd5b5051600281111561046257fe5b1415610471576103e88161053c565b610361815b600281600160a060020a03166390f3213d6040518163ffffffff1660e060020a02815260040160206040518083038186803b1580156104b457600080fd5b505afa1580156104c8573d6000803e3d6000fd5b505050506040513d60208110156104de57600080fd5b505160028111156104eb57fe5b14156102f95780600160a060020a031663e39ff19f82600160a060020a03166350b1be266040518163ffffffff1660e060020a02815260040160206040518083038186803b15801561020557600080fd5b600281600160a060020a03166390f3213d6040518163ffffffff1660e060020a02815260040160206040518083038186803b15801561057a57600080fd5b505afa15801561058e573d6000803e3d6000fd5b505050506040513d60208110156105a457600080fd5b505160028111156105b157fe5b14156106b85780600160a060020a031663e39ff19f82600160a060020a031663f00e6a2a6040518163ffffffff1660e060020a02815260040160206040518083038186803b15801561060257600080fd5b505afa158015610616573d6000803e3d6000fd5b505050506040513d602081101561062c57600080fd5b50516040805160e060020a63ffffffff8516028152600160a060020a03909216600483015251602480830192600092919082900301818387803b15801561067257600080fd5b505af1158015610686573d6000803e3d6000fd5b505060405160e060020a6356de96db028152600160a060020a03841692506356de96db915060089060040180826102b7565b80600160a060020a031663e39ff19f82600160a060020a031663f00e6a2a6040518163ffffffff1660e060020a02815260040160206040518083038186803b15801561070357600080fd5b505afa158015610717573d6000803e3d6000fd5b505050506040513d602081101561072d57600080fd5b50516040805160e060020a63ffffffff8516028152600160a060020a03909216600483015251602480830192600092919082900301818387803b15801561077357600080fd5b505af1158015610787573d6000803e3d6000fd5b505060405160e060020a6356de96db028152600160a060020a03841692506356de96db91506006906004018082610323565b600081600160a060020a031663620ae1c76040518163ffffffff1660e060020a02815260040160206040518083038186803b1580156107f757600080fd5b505afa15801561080b573d6000803e3d6000fd5b505050506040513d602081101561082157600080fd5b5051156108365761083182610364565b61083f565b61083f8261013f565b509056fea165627a7a72305820acb1b0295afbc9ebc83bd9b21657f9599ac76e246586a9e179960a2dc3f39d6c0029",
  "source": "pragma solidity ^0.5.0;\r\npragma experimental ABIEncoderV2;\r\n\r\nimport \"./ProcessData.sol\";\r\nimport \"./IActor.sol\";\r\nimport \"./Evaluation.sol\";\r\n\r\ncontract Protocol {\r\n\r\n    address[] private Mitigators;\r\n\taddress[] private Targets;\r\n    address[] private CurrentProcesses;\r\n    Evaluation evaluation = new Evaluation();\r\n\t\r\n    event ProcessDataCreated(address _from, ProcessData addr);\r\n\tevent MitigatorCreated(address _from, IActor addr);\r\n\tevent TargetCreated(address _from, IActor addr);\r\n\t\r\n    function registerMitigator(address payable _MitigatorOwner,uint256 PricePerUnit,string memory NetworkName) public returns(address){\r\n        IActor Mitigator = new IActor(_MitigatorOwner,PricePerUnit,NetworkName);\r\n        Mitigators.push(Mitigator.getAddress());\r\n\t\temit MitigatorCreated(msg.sender,Mitigator);\r\n        return Mitigator.getAddress();\r\n    }\r\n\t\r\n\tfunction registerTarget(address payable _TargetOwner,uint256 PricePerUnit,string memory NetworkName) public returns(address){\r\n        IActor Target = new IActor(_TargetOwner,PricePerUnit,NetworkName);\r\n        Targets.push(Target.getAddress());\r\n\t\temit TargetCreated(msg.sender,Target);\r\n        return Target.getAddress();\r\n    }\r\n\r\n    function init(address _Mitigator,uint _DeadlineInterval,uint256 _OfferedFunds,string memory _ListOfAddresses, uint _NumberOfAddresses) \r\n    public \r\n    returns (ProcessData){\r\n        \r\n        require(bytes(_ListOfAddresses).length >0,\"no addresses provided\");\r\n        require(isMitigator(_Mitigator),\"no mitigator\");\r\n        require(IActor(_Mitigator).isOfferAcceptable(_OfferedFunds,_NumberOfAddresses),\"Funds too low\");\r\n        require(senderIsTarget(msg.sender),\"Sender is not registered as a Target\");\r\n\t\t\r\n        IActor _Target = IActor(getTarget(msg.sender));\r\n        ProcessData newProcessData = new ProcessData(_Target.getAddress(),_Mitigator,_DeadlineInterval,_OfferedFunds,_ListOfAddresses);\r\n        CurrentProcesses.push(newProcessData.getAddress());\r\n\t\temit ProcessDataCreated(msg.sender,newProcessData);\r\n\t\t\r\n        return newProcessData;\r\n    }\r\n\r\n    function approve(address payable process,bool descision) \r\n    public\r\n    returns (ProcessData){\r\n        \r\n        require(isProcess(process),\"Process does not exist\");\r\n        require(canSenderAdvance(process,ProcessData.State.APPROVE),\"Sender is not allowed\");\r\n        \r\n        ProcessData ProcessToUse = ProcessData(process);\r\n        \r\n        if(descision){\r\n            ProcessToUse.setState(ProcessData.State.FUNDING);\r\n            ProcessToUse.setNextActor(ProcessToUse.getTarget());\r\n        }else{\r\n            ProcessToUse.setState(ProcessData.State.ABORT);\r\n        }\r\n  \r\n        return ProcessToUse;\r\n    }\r\n    \r\n    function sendFunds(address payable process) \r\n    public\r\n    payable\r\n    returns (ProcessData){\r\n        \r\n        require(isProcess(process),\"Process does not exist\");\r\n        require(canSenderAdvance(process,ProcessData.State.FUNDING),\"Sender is not allowed\");\r\n        \r\n        ProcessData ProcessToUse = ProcessData(process);\r\n        \r\n        ProcessToUse.receiveFunds(msg.value);\r\n        ProcessToUse.setNextActor(ProcessToUse.getMitigator());\r\n        ProcessToUse.setState(ProcessData.State.PROOF);\r\n        ProcessToUse.setNextDeadline();\r\n        \r\n        return ProcessToUse;\r\n    }\r\n    \r\n    \r\n    function proofUploaded(address payable process,string memory _Proof) \r\n    public\r\n    payable\r\n    returns (ProcessData){\r\n        \r\n        require(isProcess(process),\"Process does not exist\");\r\n        require(canSenderAdvance(process,ProcessData.State.PROOF),\"Sender is not allowed\");\r\n        \r\n        ProcessData ProcessToUse = ProcessData(process);\r\n        ProcessToUse.setProof(_Proof);\r\n        ProcessToUse.setNextActor(ProcessToUse.getTarget());\r\n        ProcessToUse.setState(ProcessData.State.TRATE);\r\n        ProcessToUse.setNextDeadline();\r\n        \r\n        return ProcessToUse;\r\n    }\r\n    \r\n    function ratingByTarget(address payable process,ProcessData.Rating rating) \r\n    public\r\n    payable\r\n    returns (ProcessData){\r\n        \r\n        require(isProcess(process),\"Process does not exist\");\r\n        require(canSenderAdvance(process,ProcessData.State.TRATE),\"Sender is not allowed\");\r\n        \r\n        ProcessData ProcessToUse = ProcessData(process);\r\n        \r\n        if(ProcessToUse.isProofProvided()){\r\n            ProcessToUse.setTargetRating(rating);\r\n            evaluation.evaluate(ProcessToUse);\r\n            return ProcessToUse;\r\n        }\r\n        \r\n        ProcessToUse.setTargetRating(rating);\r\n        ProcessToUse.setNextActor(ProcessToUse.getMitigator());\r\n        ProcessToUse.setState(ProcessData.State.MRATE);\r\n        ProcessToUse.setNextDeadline();\r\n        \r\n        return ProcessToUse;\r\n         \r\n    }\r\n    \r\n    function ratingByMitigator(address payable process,ProcessData.Rating rating) \r\n    public\r\n    payable\r\n    returns (ProcessData){\r\n        \r\n        require(isProcess(process),\"Process does not exist\");\r\n        require(canSenderAdvance(process,ProcessData.State.MRATE),\"Sender is not allowed to advance due to: \");\r\n        \r\n        ProcessData ProcessToUse = ProcessData(process);\r\n        ProcessToUse.setMitigatorRating(rating);\r\n        evaluation.evaluate(ProcessToUse);\r\n\r\n        return ProcessToUse;\r\n    }\r\n   \r\n    /*Checks where the sender of the message is the next actor and the state \r\n    of the action to be performed is the one immediately following in the process\r\n    and if deadline is exceeded*/\r\n    function canSenderAdvance(address payable process,ProcessData.State newState) \r\n    private \r\n    view\r\n    returns(bool){\r\n        \r\n        ProcessData CurrentProcess;\r\n        bool processFound;\r\n        for (uint i = 0 ; i < CurrentProcesses.length; i++) {\r\n            if(CurrentProcesses[i]==process){\r\n                processFound= true;\r\n                CurrentProcess = ProcessData(process);\r\n            }\r\n        }\r\n        require(processFound,\"Process not found\");\r\n        require(CurrentProcess.getNextActor().getOwner() == msg.sender,\"NextActor != Sender\");\r\n        require(uint(newState)>=CurrentProcess.getState(),\"Next state would be lower\");\r\n        if(CurrentProcess.getState()<uint(ProcessData.State.FUNDING)){\r\n            require(now>CurrentProcess.getDeadline(),\"state >=start && now > deadline\");\r\n        }\r\n        \r\n        return true;\r\n    }\r\n\r\n    function getProcesses() \r\n    public view \r\n    returns(address[] memory){\r\n        return CurrentProcesses;\r\n    }\r\n    \r\n\r\n    function getStateOfProcess(address payable process) \r\n    public view \r\n    returns(address payable,address payable,address payable,uint,string memory,uint,uint,uint){\r\n        ProcessData ProcessToUse = ProcessData(process);\r\n        return (ProcessToUse.getTarget().getOwner(),ProcessToUse.getMitigator().getOwner(),ProcessToUse.getNextActor().getOwner()\r\n        ,ProcessToUse.getFunds(),ProcessToUse.getProof(),uint(ProcessToUse.getState())\r\n        ,uint(ProcessToUse.getTargetRating()),uint(ProcessToUse.getMitigatorRating()));\r\n    }\r\n    \r\n    function isProcess(address payable process) \r\n    private view \r\n    returns(bool){\r\n        for (uint i = 0 ; i < CurrentProcesses.length; i++) {\r\n            if(CurrentProcesses[i]==process){\r\n                return true;\r\n            }\r\n        }\r\n        return false;\r\n    }\r\n    \r\n    function isMitigator(address mitigator) \r\n    private view \r\n    returns(bool){\r\n        for (uint i = 0 ; i < Mitigators.length; i++) {\r\n            if(Mitigators[i]==mitigator){\r\n                return true;\r\n            }\r\n        }\r\n        return false;\r\n    }\r\n\t\r\n\tfunction senderIsTarget(address payable owner) \r\n    private view \r\n    returns(bool){\r\n        for (uint i = 0 ; i < Targets.length; i++) {\r\n            if(IActor(Targets[i]).getOwner()==owner){\r\n                return true;\r\n            }\r\n        }\r\n        return false;\r\n    }\r\n\t\r\n\tfunction getTarget(address payable owner) \r\n    private view \r\n    returns(address){\r\n        for (uint i = 0 ; i < Targets.length; i++) {\r\n            if(IActor(Targets[i]).getOwner()==owner){\r\n                return Targets[i];\r\n            }\r\n        }\r\n\t\treturn address(0);\r\n    }\r\n}",
  "sourcePath": "C:/Code/Private/CooperativeSignaling/contracts/Protocol.sol",
  "compiler": {
    "name": "solc",
    "version": "0.5.0+commit.1d4f565a.Emscripten.clang"
  },
  "schemaVersion": "3.0.1",
  "updatedAt": "2019-02-01T21:44:45.647Z",
  "devdoc": {
    "methods": {}
  },
  "userdoc": {
    "methods": {}
  }
}