{
  "contractName": "Protocol",
  "abi": [
    {
      "payable": true,
      "stateMutability": "payable",
      "type": "fallback"
    },
    {
      "anonymous": false,
      "inputs": [
        {
          "indexed": false,
          "name": "_from",
          "type": "address"
        },
        {
          "indexed": false,
          "name": "addr",
          "type": "address"
        }
      ],
      "name": "ProcessDataCreated",
      "type": "event",
      "signature": "0x0882f6c178d03f7e5056c19884ff9dbd841f072c80be76045db6007f9ca30fb5"
    },
    {
      "anonymous": false,
      "inputs": [
        {
          "indexed": false,
          "name": "_from",
          "type": "address"
        },
        {
          "indexed": false,
          "name": "addr",
          "type": "address"
        }
      ],
      "name": "MitigatorCreated",
      "type": "event",
      "signature": "0x00348a694629aa1d95f5871c91c0b8722435ece0397f5913b4c368069f86e7be"
    },
    {
      "anonymous": false,
      "inputs": [
        {
          "indexed": false,
          "name": "_from",
          "type": "address"
        },
        {
          "indexed": false,
          "name": "addr",
          "type": "address"
        }
      ],
      "name": "TargetCreated",
      "type": "event",
      "signature": "0xc2772959c7d8d2b8db9eb70d179850c99c875ab14cc6768dcfbc8c1d1a5793b6"
    },
    {
      "anonymous": false,
      "inputs": [
        {
          "indexed": false,
          "name": "value",
          "type": "uint256"
        }
      ],
      "name": "FundsReceived",
      "type": "event",
      "signature": "0xbcdc7071c1beb6dcf2744621e0b29a2f2432ee20812d9ca5e3d5e8f9308d93a3"
    },
    {
      "constant": false,
      "inputs": [
        {
          "name": "_MitigatorOwner",
          "type": "address"
        },
        {
          "name": "PricePerUnit",
          "type": "uint256"
        },
        {
          "name": "NetworkName",
          "type": "string"
        }
      ],
      "name": "registerMitigator",
      "outputs": [
        {
          "name": "",
          "type": "address"
        }
      ],
      "payable": false,
      "stateMutability": "nonpayable",
      "type": "function",
      "signature": "0x0be796b5"
    },
    {
      "constant": false,
      "inputs": [
        {
          "name": "_TargetOwner",
          "type": "address"
        },
        {
          "name": "PricePerUnit",
          "type": "uint256"
        },
        {
          "name": "NetworkName",
          "type": "string"
        }
      ],
      "name": "registerTarget",
      "outputs": [
        {
          "name": "",
          "type": "address"
        }
      ],
      "payable": false,
      "stateMutability": "nonpayable",
      "type": "function",
      "signature": "0xfb9cb44a"
    },
    {
      "constant": false,
      "inputs": [
        {
          "name": "_Mitigator",
          "type": "address"
        },
        {
          "name": "_DeadlineInterval",
          "type": "uint256"
        },
        {
          "name": "_OfferedFunds",
          "type": "uint256"
        },
        {
          "name": "_ListOfAddresses",
          "type": "string"
        },
        {
          "name": "_NumberOfAddresses",
          "type": "uint256"
        }
      ],
      "name": "init",
      "outputs": [
        {
          "name": "",
          "type": "address"
        }
      ],
      "payable": false,
      "stateMutability": "nonpayable",
      "type": "function",
      "signature": "0x3d99bdc7"
    },
    {
      "constant": false,
      "inputs": [
        {
          "name": "process",
          "type": "address"
        },
        {
          "name": "descision",
          "type": "bool"
        }
      ],
      "name": "approve",
      "outputs": [
        {
          "name": "",
          "type": "address"
        }
      ],
      "payable": false,
      "stateMutability": "nonpayable",
      "type": "function",
      "signature": "0x3d140d21"
    },
    {
      "constant": false,
      "inputs": [
        {
          "name": "process",
          "type": "address"
        }
      ],
      "name": "sendFunds",
      "outputs": [
        {
          "name": "",
          "type": "address"
        }
      ],
      "payable": true,
      "stateMutability": "payable",
      "type": "function",
      "signature": "0xcfe52bdd"
    },
    {
      "constant": false,
      "inputs": [
        {
          "name": "process",
          "type": "address"
        },
        {
          "name": "_Proof",
          "type": "string"
        }
      ],
      "name": "uploadProof",
      "outputs": [
        {
          "name": "",
          "type": "address"
        }
      ],
      "payable": false,
      "stateMutability": "nonpayable",
      "type": "function",
      "signature": "0xc369ac92"
    },
    {
      "constant": false,
      "inputs": [
        {
          "name": "process",
          "type": "address"
        },
        {
          "name": "rating",
          "type": "uint8"
        }
      ],
      "name": "ratingByTarget",
      "outputs": [
        {
          "name": "",
          "type": "address"
        }
      ],
      "payable": true,
      "stateMutability": "payable",
      "type": "function",
      "signature": "0x9cd14d73"
    },
    {
      "constant": false,
      "inputs": [
        {
          "name": "process",
          "type": "address"
        },
        {
          "name": "rating",
          "type": "uint8"
        }
      ],
      "name": "ratingByMitigator",
      "outputs": [
        {
          "name": "",
          "type": "address"
        }
      ],
      "payable": true,
      "stateMutability": "payable",
      "type": "function",
      "signature": "0xcd0a1d60"
    },
    {
      "constant": true,
      "inputs": [
        {
          "name": "process",
          "type": "address"
        }
      ],
      "name": "getProcess",
      "outputs": [
        {
          "name": "",
          "type": "address"
        }
      ],
      "payable": false,
      "stateMutability": "view",
      "type": "function",
      "signature": "0xd30a9aff"
    },
    {
      "constant": true,
      "inputs": [],
      "name": "getProcesses",
      "outputs": [
        {
          "name": "",
          "type": "address[]"
        }
      ],
      "payable": false,
      "stateMutability": "view",
      "type": "function",
      "signature": "0x6e52b239"
    },
    {
      "constant": true,
      "inputs": [
        {
          "name": "process",
          "type": "address"
        }
      ],
      "name": "getStateOfProcess",
      "outputs": [
        {
          "name": "",
          "type": "address"
        },
        {
          "name": "",
          "type": "address"
        },
        {
          "name": "",
          "type": "address"
        },
        {
          "name": "",
          "type": "uint256"
        },
        {
          "name": "",
          "type": "string"
        },
        {
          "name": "",
          "type": "uint256"
        },
        {
          "name": "",
          "type": "uint256"
        },
        {
          "name": "",
          "type": "uint256"
        }
      ],
      "payable": false,
      "stateMutability": "view",
      "type": "function",
      "signature": "0x4152d427"
    }
  ],
  "bytecode": "0x608060405234801561001057600080fd5b5061464a806100206000396000f3fe608060405260043610620000a15763ffffffff60e060020a6000350416630be796b58114620000dc5780633d140d2114620001195780633d99bdc7146200014d5780634152d42714620001725780636e52b23914620001ad5780639cd14d7314620001d4578063c369ac9214620001eb578063cd0a1d601462000210578063cfe52bdd1462000227578063d30a9aff146200023e578063fb9cb44a1462000263575b7fbcdc7071c1beb6dcf2744621e0b29a2f2432ee20812d9ca5e3d5e8f9308d93a334604051620000d2919062002cfd565b60405180910390a1005b348015620000e957600080fd5b5062000101620000fb36600462002589565b62000288565b60405162000110919062002a8c565b60405180910390f35b3480156200012657600080fd5b506200013e62000138366004620024c7565b6200043d565b60405162000110919062002bf4565b3480156200015a57600080fd5b506200013e6200016c366004620025f6565b62000744565b3480156200017f57600080fd5b506200019762000191366004620024a6565b62000a54565b6040516200011098979695949392919062002a9c565b348015620001ba57600080fd5b50620001c562000fc2565b60405162000110919062002be1565b6200013e620001e536600462002506565b62001026565b348015620001f857600080fd5b506200013e6200020a3660046200253b565b62001527565b6200013e6200022136600462002506565b62001713565b6200013e62000238366004620024a6565b6200190d565b3480156200024b57600080fd5b506200013e6200025d366004620024a6565b62001bc9565b3480156200027057600080fd5b50620001016200028236600462002589565b62001c2a565b6000808484846200029862002334565b620002a69392919062002b49565b604051809103906000f080158015620002c3573d6000803e3d6000fd5b509050600081600160a060020a03166338cc48316040518163ffffffff1660e060020a02815260040160206040518083038186803b1580156200030557600080fd5b505afa1580156200031a573d6000803e3d6000fd5b505050506040513d601f19601f820116820180604052506200034091908101906200247d565b815460018101835560009283526020909220909101805473ffffffffffffffffffffffffffffffffffffffff1916600160a060020a039092169190911790556040517e348a694629aa1d95f5871c91c0b8722435ece0397f5913b4c368069f86e7be90620003b2903390849062002b2a565b60405180910390a180600160a060020a03166338cc48316040518163ffffffff1660e060020a02815260040160206040518083038186803b158015620003f757600080fd5b505afa1580156200040c573d6000803e3d6000fd5b505050506040513d601f19601f820116820180604052506200043291908101906200247d565b9150505b9392505050565b60006200044a8362001d55565b1515620004775760405160e560020a62461bcd0281526004016200046e9062002c6d565b60405180910390fd5b6200048483600162001dae565b1515620004a85760405160e560020a62461bcd0281526004016200046e9062002cd9565b828215620005f85760405160e060020a6356de96db028152600160a060020a038216906356de96db90620004e29060029060040162002c14565b600060405180830381600087803b158015620004fd57600080fd5b505af115801562000512573d6000803e3d6000fd5b5050505080600160a060020a031663f6e9178982600160a060020a031663f00e6a2a6040518163ffffffff1660e060020a02815260040160206040518083038186803b1580156200056257600080fd5b505afa15801562000577573d6000803e3d6000fd5b505050506040513d601f19601f820116820180604052506200059d9190810190620026b0565b6040518263ffffffff1660e060020a028152600401620005be919062002bf4565b600060405180830381600087803b158015620005d957600080fd5b505af1158015620005ee573d6000803e3d6000fd5b505050506200073b565b60405160e060020a6356de96db028152600160a060020a038216906356de96db906200062a9060079060040162002c14565b600060405180830381600087803b1580156200064557600080fd5b505af11580156200065a573d6000803e3d6000fd5b5050505080600160a060020a031663f6e9178982600160a060020a031663f00e6a2a6040518163ffffffff1660e060020a02815260040160206040518083038186803b158015620006aa57600080fd5b505afa158015620006bf573d6000803e3d6000fd5b505050506040513d601f19601f82011682018060405250620006e59190810190620026b0565b6040518263ffffffff1660e060020a02815260040162000706919062002bf4565b600060405180830381600087803b1580156200072157600080fd5b505af115801562000736573d6000803e3d6000fd5b505050505b90505b92915050565b60008083511115156200076e5760405160e560020a62461bcd0281526004016200046e9062002ca3565b6200077986620020e2565b15156200079d5760405160e560020a62461bcd0281526004016200046e9062002cb5565b6040517fa5ebeaa4000000000000000000000000000000000000000000000000000000008152600160a060020a0387169063a5ebeaa490620007e6908790869060040162002d0d565b60206040518083038186803b158015620007ff57600080fd5b505afa15801562000814573d6000803e3d6000fd5b505050506040513d601f19601f820116820180604052506200083a91908101906200268f565b15156200085e5760405160e560020a62461bcd0281526004016200046e9062002c7f565b62000869336200213b565b15156200088d5760405160e560020a62461bcd0281526004016200046e9062002c5b565b60006200089a3362002226565b9050600081600160a060020a03166338cc48316040518163ffffffff1660e060020a02815260040160206040518083038186803b158015620008db57600080fd5b505afa158015620008f0573d6000803e3d6000fd5b505050506040513d601f19601f820116820180604052506200091691908101906200247d565b888888886200092462002345565b6200093495949392919062002b85565b604051809103906000f08015801562000951573d6000803e3d6000fd5b509050600281600160a060020a03166338cc48316040518163ffffffff1660e060020a02815260040160206040518083038186803b1580156200099357600080fd5b505afa158015620009a8573d6000803e3d6000fd5b505050506040513d601f19601f82011682018060405250620009ce91908101906200247d565b815460018101835560009283526020909220909101805473ffffffffffffffffffffffffffffffffffffffff1916600160a060020a039092169190911790556040517f0882f6c178d03f7e5056c19884ff9dbd841f072c80be76045db6007f9ca30fb59062000a41903390849062002b2a565b60405180910390a1979650505050505050565b600080600080606060008060008089905080600160a060020a031663f00e6a2a6040518163ffffffff1660e060020a02815260040160206040518083038186803b15801562000aa257600080fd5b505afa15801562000ab7573d6000803e3d6000fd5b505050506040513d601f19601f8201168201806040525062000add9190810190620026b0565b600160a060020a031663893d20e86040518163ffffffff1660e060020a02815260040160206040518083038186803b15801562000b1957600080fd5b505afa15801562000b2e573d6000803e3d6000fd5b505050506040513d601f19601f8201168201806040525062000b5491908101906200247d565b81600160a060020a03166350b1be266040518163ffffffff1660e060020a02815260040160206040518083038186803b15801562000b9157600080fd5b505afa15801562000ba6573d6000803e3d6000fd5b505050506040513d601f19601f8201168201806040525062000bcc9190810190620026b0565b600160a060020a031663893d20e86040518163ffffffff1660e060020a02815260040160206040518083038186803b15801562000c0857600080fd5b505afa15801562000c1d573d6000803e3d6000fd5b505050506040513d601f19601f8201168201806040525062000c4391908101906200247d565b82600160a060020a0316631b3e7c4b6040518163ffffffff1660e060020a02815260040160206040518083038186803b15801562000c8057600080fd5b505afa15801562000c95573d6000803e3d6000fd5b505050506040513d601f19601f8201168201806040525062000cbb9190810190620026b0565b600160a060020a031663893d20e86040518163ffffffff1660e060020a02815260040160206040518083038186803b15801562000cf757600080fd5b505afa15801562000d0c573d6000803e3d6000fd5b505050506040513d601f19601f8201168201806040525062000d3291908101906200247d565b83600160a060020a0316634d9b37356040518163ffffffff1660e060020a02815260040160206040518083038186803b15801562000d6f57600080fd5b505afa15801562000d84573d6000803e3d6000fd5b505050506040513d601f19601f8201168201806040525062000daa91908101906200272b565b84600160a060020a0316635c5d625e6040518163ffffffff1660e060020a02815260040160006040518083038186803b15801562000de757600080fd5b505afa15801562000dfc573d6000803e3d6000fd5b505050506040513d6000823e601f3d908101601f1916820160405262000e269190810190620026f2565b85600160a060020a0316631865c57d6040518163ffffffff1660e060020a02815260040160206040518083038186803b15801562000e6357600080fd5b505afa15801562000e78573d6000803e3d6000fd5b505050506040513d601f19601f8201168201806040525062000e9e91908101906200272b565b86600160a060020a0316639ed5b5026040518163ffffffff1660e060020a02815260040160206040518083038186803b15801562000edb57600080fd5b505afa15801562000ef0573d6000803e3d6000fd5b505050506040513d601f19601f8201168201806040525062000f169190810190620026d1565b600281111562000f2257fe5b87600160a060020a03166390f3213d6040518163ffffffff1660e060020a02815260040160206040518083038186803b15801562000f5f57600080fd5b505afa15801562000f74573d6000803e3d6000fd5b505050506040513d601f19601f8201168201806040525062000f9a9190810190620026d1565b600281111562000fa657fe5b9850985098509850985098509850985050919395975091939597565b606060028054806020026020016040519081016040528092919081815260200182805480156200101c57602002820191906000526020600020905b8154600160a060020a0316815260019091019060200180831162000ffd575b5050505050905090565b6000620010338362001d55565b1515620010575760405160e560020a62461bcd0281526004016200046e9062002c6d565b6200106483600462001dae565b1515620010885760405160e560020a62461bcd0281526004016200046e9062002cd9565b600083905080600160a060020a031663620ae1c76040518163ffffffff1660e060020a02815260040160206040518083038186803b158015620010ca57600080fd5b505afa158015620010df573d6000803e3d6000fd5b505050506040513d601f19601f820116820180604052506200110591908101906200268f565b15156200132b576040517fa3bbb090000000000000000000000000000000000000000000000000000000008152600160a060020a0382169063a3bbb090906200115390869060040162002c04565b600060405180830381600087803b1580156200116e57600080fd5b505af115801562001183573d6000803e3d6000fd5b5050505080600160a060020a031663f6e9178982600160a060020a031663f00e6a2a6040518163ffffffff1660e060020a02815260040160206040518083038186803b158015620011d357600080fd5b505afa158015620011e8573d6000803e3d6000fd5b505050506040513d601f19601f820116820180604052506200120e9190810190620026b0565b6040518263ffffffff1660e060020a0281526004016200122f919062002bf4565b600060405180830381600087803b1580156200124a57600080fd5b505af11580156200125f573d6000803e3d6000fd5b505060405160e060020a6356de96db028152600160a060020a03841692506356de96db9150620012959060069060040162002c14565b600060405180830381600087803b158015620012b057600080fd5b505af1158015620012c5573d6000803e3d6000fd5b5050505080600160a060020a031663841eb45a6040518163ffffffff1660e060020a028152600401600060405180830381600087803b1580156200130857600080fd5b505af11580156200131d573d6000803e3d6000fd5b50505050809150506200073e565b6040517fa3bbb090000000000000000000000000000000000000000000000000000000008152600160a060020a0382169063a3bbb090906200137290869060040162002c04565b600060405180830381600087803b1580156200138d57600080fd5b505af1158015620013a2573d6000803e3d6000fd5b5050505080600160a060020a031663f6e9178982600160a060020a03166350b1be266040518163ffffffff1660e060020a02815260040160206040518083038186803b158015620013f257600080fd5b505afa15801562001407573d6000803e3d6000fd5b505050506040513d601f19601f820116820180604052506200142d9190810190620026b0565b6040518263ffffffff1660e060020a0281526004016200144e919062002bf4565b600060405180830381600087803b1580156200146957600080fd5b505af11580156200147e573d6000803e3d6000fd5b505060405160e060020a6356de96db028152600160a060020a03841692506356de96db9150620014b49060059060040162002c14565b600060405180830381600087803b158015620014cf57600080fd5b505af1158015620014e4573d6000803e3d6000fd5b5050505080600160a060020a0316639363d6f26040518163ffffffff1660e060020a028152600401600060405180830381600087803b1580156200072157600080fd5b6000620015348362001d55565b1515620015585760405160e560020a62461bcd0281526004016200046e9062002c6d565b6200156583600362001dae565b1515620015895760405160e560020a62461bcd0281526004016200046e9062002cd9565b6040517f15336f800000000000000000000000000000000000000000000000000000000081528390600160a060020a038216906315336f8090620015d290869060040162002c24565b600060405180830381600087803b158015620015ed57600080fd5b505af115801562001602573d6000803e3d6000fd5b5050505080600160a060020a031663f6e9178982600160a060020a031663f00e6a2a6040518163ffffffff1660e060020a02815260040160206040518083038186803b1580156200165257600080fd5b505afa15801562001667573d6000803e3d6000fd5b505050506040513d601f19601f820116820180604052506200168d9190810190620026b0565b6040518263ffffffff1660e060020a028152600401620016ae919062002bf4565b600060405180830381600087803b158015620016c957600080fd5b505af1158015620016de573d6000803e3d6000fd5b505060405160e060020a6356de96db028152600160a060020a03841692506356de96db9150620014b490600490810162002c14565b6000620017208362001d55565b1515620017445760405160e560020a62461bcd0281526004016200046e9062002c6d565b6200175183600562001dae565b1515620017755760405160e560020a62461bcd0281526004016200046e9062002cc7565b6040517f1dc9b2840000000000000000000000000000000000000000000000000000000081528390600160a060020a03821690631dc9b28490620017be90869060040162002c04565b600060405180830381600087803b158015620017d957600080fd5b505af1158015620017ee573d6000803e3d6000fd5b5050505080600160a060020a031663f6e9178982600160a060020a031663f00e6a2a6040518163ffffffff1660e060020a02815260040160206040518083038186803b1580156200183e57600080fd5b505afa15801562001853573d6000803e3d6000fd5b505050506040513d601f19601f82011682018060405250620018799190810190620026b0565b6040518263ffffffff1660e060020a0281526004016200189a919062002bf4565b600060405180830381600087803b158015620018b557600080fd5b505af1158015620018ca573d6000803e3d6000fd5b5050505080600160a060020a031663841eb45a6040518163ffffffff1660e060020a028152600401600060405180830381600087803b1580156200072157600080fd5b60006200191a8262001d55565b15156200193e5760405160e560020a62461bcd0281526004016200046e9062002c6d565b6200194b82600262001dae565b15156200196f5760405160e560020a62461bcd0281526004016200046e9062002cd9565b600082905080600160a060020a03166338cc48316040518163ffffffff1660e060020a02815260040160206040518083038186803b158015620019b157600080fd5b505afa158015620019c6573d6000803e3d6000fd5b505050506040513d601f19601f82011682018060405250620019ec91908101906200247d565b600160a060020a03166108fc349081150290604051600060405180830381858888f1935050505015801562001a25573d6000803e3d6000fd5b5080600160a060020a031663f6e9178982600160a060020a03166350b1be266040518163ffffffff1660e060020a02815260040160206040518083038186803b15801562001a7257600080fd5b505afa15801562001a87573d6000803e3d6000fd5b505050506040513d601f19601f8201168201806040525062001aad9190810190620026b0565b6040518263ffffffff1660e060020a02815260040162001ace919062002bf4565b600060405180830381600087803b15801562001ae957600080fd5b505af115801562001afe573d6000803e3d6000fd5b505060405160e060020a6356de96db028152600160a060020a03841692506356de96db915062001b349060039060040162002c14565b600060405180830381600087803b15801562001b4f57600080fd5b505af115801562001b64573d6000803e3d6000fd5b5050505080600160a060020a0316639363d6f26040518163ffffffff1660e060020a028152600401600060405180830381600087803b15801562001ba757600080fd5b505af115801562001bbc573d6000803e3d6000fd5b509293505050505b919050565b6000805b60025481101562001c215782600160a060020a031660028281548110151562001bf257fe5b600091825260209091200154600160a060020a0316141562001c18578291505062001bc4565b60010162001bcd565b50600092915050565b60008084848462001c3a62002334565b62001c489392919062002b49565b604051809103906000f08015801562001c65573d6000803e3d6000fd5b509050600181600160a060020a03166338cc48316040518163ffffffff1660e060020a02815260040160206040518083038186803b15801562001ca757600080fd5b505afa15801562001cbc573d6000803e3d6000fd5b505050506040513d601f19601f8201168201806040525062001ce291908101906200247d565b815460018101835560009283526020909220909101805473ffffffffffffffffffffffffffffffffffffffff1916600160a060020a039092169190911790556040517fc2772959c7d8d2b8db9eb70d179850c99c875ab14cc6768dcfbc8c1d1a5793b690620003b2903390849062002b2a565b6000805b60025481101562001c215782600160a060020a031660028281548110151562001d7e57fe5b600091825260209091200154600160a060020a0316141562001da557600191505062001bc4565b60010162001d59565b600062001dbb8362001d55565b151562001ddf5760405160e560020a62461bcd0281526004016200046e9062002c37565b600062001dec8462001bc9565b905033600160a060020a031681600160a060020a0316631b3e7c4b6040518163ffffffff1660e060020a02815260040160206040518083038186803b15801562001e3557600080fd5b505afa15801562001e4a573d6000803e3d6000fd5b505050506040513d601f19601f8201168201806040525062001e709190810190620026b0565b600160a060020a031663893d20e86040518163ffffffff1660e060020a02815260040160206040518083038186803b15801562001eac57600080fd5b505afa15801562001ec1573d6000803e3d6000fd5b505050506040513d601f19601f8201168201806040525062001ee791908101906200247d565b600160a060020a03161462001f135760405160e560020a62461bcd0281526004016200046e9062002c91565b80600160a060020a0316631865c57d6040518163ffffffff1660e060020a02815260040160206040518083038186803b15801562001f5057600080fd5b505afa15801562001f65573d6000803e3d6000fd5b505050506040513d601f19601f8201168201806040525062001f8b91908101906200272b565b83600881111562001f9857fe5b1462001fbb5760405160e560020a62461bcd0281526004016200046e9062002ceb565b600281600160a060020a0316631865c57d6040518163ffffffff1660e060020a02815260040160206040518083038186803b15801562001ffa57600080fd5b505afa1580156200200f573d6000803e3d6000fd5b505050506040513d601f19601f820116820180604052506200203591908101906200272b565b1015620020d85780600160a060020a0316635f8d96de6040518163ffffffff1660e060020a02815260040160206040518083038186803b1580156200207957600080fd5b505afa1580156200208e573d6000803e3d6000fd5b505050506040513d601f19601f82011682018060405250620020b491908101906200272b565b4211620020d85760405160e560020a62461bcd0281526004016200046e9062002c49565b5060019392505050565b6000805b60005481101562001c215782600160a060020a03166000828154811015156200210b57fe5b600091825260209091200154600160a060020a031614156200213257600191505062001bc4565b600101620020e6565b6000805b60015481101562001c215782600160a060020a03166001828154811015156200216457fe5b60009182526020918290200154604080517f893d20e80000000000000000000000000000000000000000000000000000000081529051600160a060020a039092169263893d20e892600480840193829003018186803b158015620021c757600080fd5b505afa158015620021dc573d6000803e3d6000fd5b505050506040513d601f19601f820116820180604052506200220291908101906200247d565b600160a060020a031614156200221d57600191505062001bc4565b6001016200213f565b6000805b60015481101562001c215782600160a060020a03166001828154811015156200224f57fe5b60009182526020918290200154604080517f893d20e80000000000000000000000000000000000000000000000000000000081529051600160a060020a039092169263893d20e892600480840193829003018186803b158015620022b257600080fd5b505afa158015620022c7573d6000803e3d6000fd5b505050506040513d601f19601f82011682018060405250620022ed91908101906200247d565b600160a060020a031614156200232b5760018054829081106200230c57fe5b600091825260209091200154600160a060020a0316915062001bc49050565b6001016200222a565b6040516104b68062002e5483390190565b604051611307806200330a83390190565b600062000436823562002d87565b600062000436825162002d87565b600062000436823562002dc1565b600062000436825162002dc1565b600062000436825162002dc6565b600062000436823562002dd3565b600062000436825162002dd3565b6000601f82018313620023ca57600080fd5b8135620023e1620023db8262002d54565b62002d2c565b91508082526020830160208301858383011115620023fe57600080fd5b6200240b83828462002e0a565b50505092915050565b6000601f820183136200242657600080fd5b815162002437620023db8262002d54565b915080825260208301602083018583830111156200245457600080fd5b6200240b83828462002e16565b600062000436823562002dbe565b600062000436825162002dbe565b6000602082840312156200249057600080fd5b60006200249e848462002364565b949350505050565b600060208284031215620024b957600080fd5b60006200249e848462002356565b60008060408385031215620024db57600080fd5b6000620024e9858562002356565b9250506020620024fc8582860162002372565b9150509250929050565b600080604083850312156200251a57600080fd5b600062002528858562002356565b9250506020620024fc858286016200239c565b600080604083850312156200254f57600080fd5b60006200255d858562002356565b925050602083013567ffffffffffffffff8111156200257b57600080fd5b620024fc85828601620023b8565b6000806000606084860312156200259f57600080fd5b6000620025ad868662002356565b9350506020620025c08682870162002461565b925050604084013567ffffffffffffffff811115620025de57600080fd5b620025ec86828701620023b8565b9150509250925092565b600080600080600060a086880312156200260f57600080fd5b60006200261d888862002356565b9550506020620026308882890162002461565b9450506040620026438882890162002461565b935050606086013567ffffffffffffffff8111156200266157600080fd5b6200266f88828901620023b8565b9250506080620026828882890162002461565b9150509295509295909350565b600060208284031215620026a257600080fd5b60006200249e848462002380565b600060208284031215620026c357600080fd5b60006200249e84846200238e565b600060208284031215620026e457600080fd5b60006200249e8484620023aa565b6000602082840312156200270557600080fd5b815167ffffffffffffffff8111156200271d57600080fd5b6200249e8482850162002414565b6000602082840312156200273e57600080fd5b60006200249e84846200246f565b620027578162002de3565b82525050565b620027578162002d87565b6000620027758262002d83565b808452602084019350620027898362002d7d565b60005b82811015620027bf57620027a28683516200275d565b620027ad8262002d7d565b6020969096019591506001016200278c565b5093949350505050565b620027578162002dc6565b620027578162002df0565b620027578162002dfd565b6000620027f78262002d83565b8084526200280d81602086016020860162002e16565b620028188162002e49565b9093016020019392505050565b601181527f50726f63657373206e6f7420666f756e64000000000000000000000000000000602082015260400190565b601f81527f7374617465203e3d7374617274202626206e6f77203e20646561646c696e6500602082015260400190565b602481527f53656e646572206973206e6f742072656769737465726564206173206120546160208201527f7267657400000000000000000000000000000000000000000000000000000000604082015260600190565b601681527f50726f6365737320646f6573206e6f7420657869737400000000000000000000602082015260400190565b600d81527f46756e647320746f6f206c6f7700000000000000000000000000000000000000602082015260400190565b601381527f4e6578744163746f7220213d2053656e64657200000000000000000000000000602082015260400190565b601581527f6e6f206164647265737365732070726f76696465640000000000000000000000602082015260400190565b600c81527f6e6f206d6974696761746f720000000000000000000000000000000000000000602082015260400190565b602981527f53656e646572206973206e6f7420616c6c6f77656420746f20616476616e636560208201527f2064756520746f3a200000000000000000000000000000000000000000000000604082015260600190565b601581527f53656e646572206973206e6f7420616c6c6f7765640000000000000000000000602082015260400190565b601981527f4e65787420737461746520776f756c64206265206c6f77657200000000000000602082015260400190565b620027578162002dbe565b602081016200073e82846200275d565b610100810162002aad828b6200275d565b62002abc602083018a6200275d565b62002acb60408301896200275d565b62002ada606083018862002a81565b818103608083015262002aee8187620027ea565b905062002aff60a083018662002a81565b62002b0e60c083018562002a81565b62002b1d60e083018462002a81565b9998505050505050505050565b6040810162002b3a82856200274c565b620004366020830184620027c9565b6060810162002b5982866200275d565b62002b68602083018562002a81565b818103604083015262002b7c8184620027ea565b95945050505050565b60a0810162002b9582886200275d565b62002ba460208301876200275d565b62002bb3604083018662002a81565b62002bc2606083018562002a81565b818103608083015262002bd68184620027ea565b979650505050505050565b6020808252810162000436818462002768565b602081016200073e8284620027c9565b602081016200073e8284620027d4565b602081016200073e8284620027df565b60208082528101620004368184620027ea565b602080825281016200073e8162002825565b602080825281016200073e8162002855565b602080825281016200073e8162002885565b602080825281016200073e81620028db565b602080825281016200073e816200290b565b602080825281016200073e816200293b565b602080825281016200073e816200296b565b602080825281016200073e816200299b565b602080825281016200073e81620029cb565b602080825281016200073e8162002a21565b602080825281016200073e8162002a51565b602081016200073e828462002a81565b6040810162002d1d828562002a81565b62000436602083018462002a81565b60405181810167ffffffffffffffff8111828210171562002d4c57600080fd5b604052919050565b600067ffffffffffffffff82111562002d6c57600080fd5b506020601f91909101601f19160190565b60200190565b5190565b60006200073e8262002db2565b60006003821062002da157fe5b5090565b60006009821062002da157fe5b600160a060020a031690565b90565b151590565b60006200073e8262002d87565b60006003821062002da157600080fd5b60006200073e8262002dc6565b60006200073e8262002d94565b60006200073e8262002da5565b82818337506000910152565b60005b8381101562002e3357818101518382015260200162002e19565b8381111562002e43576000848401525b50505050565b601f01601f19169056fe608060405234801561001057600080fd5b506040516104b63803806104b68339810180604052606081101561003357600080fd5b815160208301516040840180519294919382019264010000000081111561005957600080fd5b8201602081018481111561006c57600080fd5b815164010000000081118282018710171561008657600080fd5b505060008054600160a060020a031916600160a060020a038816179055600185905580519093506100c092506002915060208401906100c9565b50505050610164565b828054600181600116156101000203166002900490600052602060002090601f016020900481019282601f1061010a57805160ff1916838001178555610137565b82800160010185558215610137579182015b8281111561013757825182559160200191906001019061011c565b50610143929150610147565b5090565b61016191905b80821115610143576000815560010161014d565b90565b610343806101736000396000f3fe60806040526004361061006c5763ffffffff7c010000000000000000000000000000000000000000000000000000000060003504166307e4b7e9811461007157806338cc4831146100fb578063893d20e814610139578063a5ebeaa41461014e578063a7cc53f514610192575b600080fd5b34801561007d57600080fd5b506100866101b9565b6040805160208082528351818301528351919283929083019185019080838360005b838110156100c05781810151838201526020016100a8565b50505050905090810190601f1680156100ed5780820380516001836020036101000a031916815260200191505b509250505060405180910390f35b34801561010757600080fd5b5061011061024c565b6040805173ffffffffffffffffffffffffffffffffffffffff9092168252519081900360200190f35b34801561014557600080fd5b50610110610250565b34801561015a57600080fd5b5061017e6004803603604081101561017157600080fd5b508035906020013561026c565b604080519115158252519081900360200190f35b34801561019e57600080fd5b506101a7610311565b60408051918252519081900360200190f35b60028054604080516020601f60001961010060018716150201909416859004938401819004810282018101909252828152606093909290918301828280156102425780601f1061021757610100808354040283529160200191610242565b820191906000526020600020905b81548152906001019060200180831161022557829003601f168201915b5050505050905090565b3090565b60005473ffffffffffffffffffffffffffffffffffffffff1690565b600154600090820283101561030857604080517f08c379a000000000000000000000000000000000000000000000000000000000815260206004820152602d60248201527f4f666665722077617320746f6f206c6f772c20706c656173652070726f76696460448201527f65206d6f72652066756e64732e00000000000000000000000000000000000000606482015290519081900360840190fd5b50600192915050565b6001549056fea165627a7a72305820e916cf7b595291c781971316cdf62e2e04bf2e62afd457f557fa935073dcf2140029608060405260006004556040516200130738038062001307833981018060405260a081101561002d57600080fd5b81516020830151604084015160608501516080860180519496939592949193928301929164010000000081111561006357600080fd5b8201602081018481111561007657600080fd5b815164010000000081118282018710171561009057600080fd5b505060038054600160a060020a03199081163317909155600486905560008054600160a060020a038b811691841691909117909155600180548a83169084161790819055600280549093169116179055600780547401000000000000000000000000000000000000000060a060020a60ff0219909116179055600586905580519093506101269250600991506020840190610131565b5050505050506101cc565b828054600181600116156101000203166002900490600052602060002090601f016020900481019282601f1061017257805160ff191683800117855561019f565b8280016001018555821561019f579182015b8281111561019f578251825591602001919060010190610184565b506101ab9291506101af565b5090565b6101c991905b808211156101ab57600081556001016101b5565b90565b61112b80620001dc6000396000f3fe6080604052600436106101035763ffffffff60e060020a60003504166311adbaad81146101cf57806315336f80146102595780631865c57d1461030c5780631b3e7c4b146103335780631dc9b2841461036457806338cc4831146103915780634d9b3735146103a657806350b1be26146103bb57806356de96db146103d05780635c5d625e146103fd5780635f8d96de14610412578063620ae1c7146104275780638271bb3514610450578063841eb45a1461046557806390f3213d1461047a5780639363d6f2146104b35780639ed5b502146104c8578063a3bbb090146104dd578063e39ff19f1461050a578063f00e6a2a1461053d578063f6e9178914610552575b6040805134815290517fa8142743f8f70a4c26f3691cf4ed59718381fb2f18070ec52be1f1022d8555579181900360200190a16004543410156101cd57604080517f08c379a000000000000000000000000000000000000000000000000000000000815260206004820152603760248201527f506c656173652070726f76696465206174206c65617374207468652066756e6460448201527f7320796f7520696e697469616c6c79206f666665726564000000000000000000606482015290519081900360840190fd5b005b3480156101db57600080fd5b506101e4610585565b6040805160208082528351818301528351919283929083019185019080838360005b8381101561021e578181015183820152602001610206565b50505050905090810190601f16801561024b5780820380516001836020036101000a031916815260200191505b509250505060405180910390f35b34801561026557600080fd5b506101cd6004803603602081101561027c57600080fd5b81019060208101813564010000000081111561029757600080fd5b8201836020820111156102a957600080fd5b803590602001918460018302840111640100000000831117156102cb57600080fd5b91908080601f01602080910402602001604051908101604052809392919081815260200183838082843760009201919091525092955061061c945050505050565b34801561031857600080fd5b506103216106c9565b60408051918252519081900360200190f35b34801561033f57600080fd5b506103486106fa565b60408051600160a060020a039092168252519081900360200190f35b34801561037057600080fd5b506101cd6004803603602081101561038757600080fd5b503560ff16610709565b34801561039d57600080fd5b5061034861072c565b3480156103b257600080fd5b50610321610730565b3480156103c757600080fd5b50610348610735565b3480156103dc57600080fd5b506101cd600480360360208110156103f357600080fd5b503560ff16610744565b34801561040957600080fd5b506101e4610785565b34801561041e57600080fd5b506103216107e6565b34801561043357600080fd5b5061043c6107ec565b604080519115158252519081900360200190f35b34801561045c57600080fd5b5061032161081a565b34801561047157600080fd5b506101cd610820565b34801561048657600080fd5b5061048f610aed565b6040518082600281111561049f57fe5b60ff16815260200191505060405180910390f35b3480156104bf57600080fd5b506101cd610afb565b3480156104d457600080fd5b5061048f610ba4565b3480156104e957600080fd5b506101cd6004803603602081101561050057600080fd5b503560ff16610bad565b34801561051657600080fd5b506101cd6004803603602081101561052d57600080fd5b5035600160a060020a0316610bc6565b34801561054957600080fd5b50610348610c65565b34801561055e57600080fd5b506101cd6004803603602081101561057557600080fd5b5035600160a060020a0316610c74565b60098054604080516020601f60026000196101006001881615020190951694909404938401819004810282018101909252828152606093909290918301828280156106115780601f106105e657610100808354040283529160200191610611565b820191906000526020600020905b8154815290600101906020018083116105f457829003601f168201915b505050505090505b90565b80516000106106b257604080517f08c379a000000000000000000000000000000000000000000000000000000000815260206004820152602a60248201527f456d70747920737472696e672063616e6e6f742062652061636365707465642060448201527f617320612070726f6f6600000000000000000000000000000000000000000000606482015290519081900360840190fd5b80516106c5906008906020840190610ca3565b5050565b60075460009074010000000000000000000000000000000000000000900460ff1660088111156106f557fe5b905090565b600254600160a060020a031690565b600a805482919061ff00191661010083600281111561072457fe5b021790555050565b3090565b303190565b600154600160a060020a031690565b6007805482919074ff000000000000000000000000000000000000000019167401000000000000000000000000000000000000000083600881111561072457fe5b60088054604080516020601f60026000196101006001881615020190951694909404938401819004810282018101909252828152606093909290918301828280156106115780601f106105e657610100808354040283529160200191610611565b60065490565b6000806008805460018160011615610100020316600290049050111561081457506001610619565b50600090565b60045490565b60008030600160a060020a03166338cc48316040518163ffffffff1660e060020a02815260040160206040518083038186803b15801561085f57600080fd5b505afa158015610873573d6000803e3d6000fd5b505050506040513d602081101561088957600080fd5b5051600054604080517f38cc48310000000000000000000000000000000000000000000000000000000081529051600160a060020a03909216916338cc483191600480820192602092909190829003018186803b1580156108e957600080fd5b505afa1580156108fd573d6000803e3d6000fd5b505050506040513d602081101561091357600080fd5b5051600154604080517f38cc48310000000000000000000000000000000000000000000000000000000081529051600160a060020a03909216916338cc483191600480820192602092909190829003018186803b15801561097357600080fd5b505afa158015610987573d6000803e3d6000fd5b505050506040513d602081101561099d57600080fd5b50516109a7610d21565b600160a060020a03938416815291831660208301529091166040808301919091525190819003606001906000f0801580156109e6573d6000803e3d6000fd5b506007805473ffffffffffffffffffffffffffffffffffffffff1916600160a060020a039283161790819055166353707b4c610a206107ec565b610a28610ba4565b610a30610aed565b6040518463ffffffff1660e060020a0281526004018084151515158152602001836002811115610a5c57fe5b60ff168152602001826002811115610a7057fe5b60ff1681526020019350505050604080518083038186803b158015610a9457600080fd5b505afa158015610aa8573d6000803e3d6000fd5b505050506040513d6040811015610abe57600080fd5b5080516020909101519092509050600160a060020a03821615610ae457610ae482610bc6565b6106c581610744565b600a54610100900460ff1690565b600354600160a060020a03163314610b9a57604080517f08c379a000000000000000000000000000000000000000000000000000000000815260206004820152603360248201527f416374696f6e2063616e206f6e6c7920626520706572666f726d65642062792060448201527f746865206f776e696e6720636f6e747261637400000000000000000000000000606482015290519081900360840190fd5b6005544201600655565b600a5460ff1690565b600a805482919060ff1916600183600281111561072457fe5b80600160a060020a031663893d20e86040518163ffffffff1660e060020a02815260040160206040518083038186803b158015610c0257600080fd5b505afa158015610c16573d6000803e3d6000fd5b505050506040513d6020811015610c2c57600080fd5b5051604051600160a060020a0390911690303180156108fc02916000818181858888f193505050501580156106c5573d6000803e3d6000fd5b600054600160a060020a031690565b6002805473ffffffffffffffffffffffffffffffffffffffff1916600160a060020a0392909216919091179055565b828054600181600116156101000203166002900490600052602060002090601f016020900481019282601f10610ce457805160ff1916838001178555610d11565b82800160010185558215610d11579182015b82811115610d11578251825591602001919060010190610cf6565b50610d1d929150610d31565b5090565b6040516103b480610d4c83390190565b61061991905b80821115610d1d5760008155600101610d3756fe608060405234801561001057600080fd5b506040516060806103b48339810180604052606081101561003057600080fd5b508051602082015160409092015160008054600160a060020a03938416600160a060020a03199182161790915560018054948416948216949094179093556002805492909116919092161790556103288061008c6000396000f3fe6080604052600436106100775763ffffffff7c01000000000000000000000000000000000000000000000000000000006000350416630b957629811461007c57806315f6c1341461007c578063349590c3146100ea578063415899f31461011f57806353707b4c1461014c5780638886181814610189575b600080fd5b34801561008857600080fd5b506100a96004803603602081101561009f57600080fd5b503560ff166101b6565b60405173ffffffffffffffffffffffffffffffffffffffff83168152602081018260088111156100d557fe5b60ff1681526020019250505060405180910390f35b3480156100f657600080fd5b506100a96004803603604081101561010d57600080fd5b5060ff813581169160200135166101fc565b34801561012b57600080fd5b506100a96004803603602081101561014257600080fd5b503560ff16610252565b34801561015857600080fd5b506100a96004803603606081101561016f57600080fd5b50803515159060ff60208201358116916040013516610297565b34801561019557600080fd5b506100a9600480360360208110156101ac57600080fd5b503560ff166102c4565b60008060028360028111156101c757fe5b14156101ef57505060025473ffffffffffffffffffffffffffffffffffffffff1660066101f7565b506000905060075b915091565b600080600284600281111561020d57fe5b14156102255761021c836101b6565b9150915061024b565b600084600281111561023357fe5b14156102425761021c83610252565b61021c836101b6565b9250929050565b600080600283600281111561026357fe5b141561027557506000905060086101f7565b505060015473ffffffffffffffffffffffffffffffffffffffff1660066101f7565b60008084156102b3576102aa84846101fc565b915091506102bc565b6102aa846102c4565b935093915050565b600080808360028111156102d457fe5b14156101ef57505060015473ffffffffffffffffffffffffffffffffffffffff1660066101f756fea165627a7a7230582089f6309960b8ce70341b9cf754dad47a61214fd2b26bcbdc8c02709894aa3dfd0029a165627a7a7230582000e78cd95101f897567ec1ae6920a79a88bf5babd835cded28c9ce254eb631920029a265627a7a72305820e839ba34e9eda710b3f3794f8a9dfe8f1ae2bc0a0377bc599898909ff72fb18e6c6578706572696d656e74616cf50037",
  "source": "pragma solidity ^0.5.0;\r\npragma experimental ABIEncoderV2;\r\n\r\nimport \"./ProcessData.sol\";\r\nimport \"./IActor.sol\";\r\nimport \"./Enums.sol\";\r\n\r\ncontract Protocol {\r\n\r\n    address[] private Mitigators;\r\n\taddress[] private Targets;\r\n    address[] private CurrentProcesses;\r\n\r\n    event ProcessDataCreated(address _from, ProcessData addr);\r\n\tevent MitigatorCreated(address _from, IActor addr);\r\n\tevent TargetCreated(address _from, IActor addr);\r\n\tevent FundsReceived(uint256 value);\r\n\t\r\n\tfunction() external payable{\r\n\t\temit FundsReceived(msg.value);\r\n\t}\r\n\t\r\n\t\r\n    function registerMitigator(address payable _MitigatorOwner,uint256 PricePerUnit,string memory NetworkName) public returns(address){\r\n        IActor Mitigator = new IActor(_MitigatorOwner,PricePerUnit,NetworkName);\r\n        Mitigators.push(Mitigator.getAddress());\r\n\t\temit MitigatorCreated(msg.sender,Mitigator);\r\n        return Mitigator.getAddress();\r\n    }\r\n\t\r\n\tfunction registerTarget(address payable _TargetOwner,uint256 PricePerUnit,string memory NetworkName) public returns(address){\r\n        IActor Target = new IActor(_TargetOwner,PricePerUnit,NetworkName);\r\n        Targets.push(Target.getAddress());\r\n\t\temit TargetCreated(msg.sender,Target);\r\n        return Target.getAddress();\r\n    }\r\n\r\n    function init(address _Mitigator,uint _DeadlineInterval,uint256 _OfferedFunds,string memory _ListOfAddresses, uint _NumberOfAddresses) \r\n    public \r\n    returns (ProcessData){\r\n        \r\n        require(bytes(_ListOfAddresses).length >0,\"no addresses provided\");\r\n        require(isMitigator(_Mitigator),\"no mitigator\");\r\n        require(IActor(_Mitigator).isOfferAcceptable(_OfferedFunds,_NumberOfAddresses),\"Funds too low\");\r\n        require(senderIsTarget(msg.sender),\"Sender is not registered as a Target\");\r\n\t\t\r\n        IActor _Target = IActor(getTarget(msg.sender));\r\n        ProcessData newProcessData = new ProcessData(_Target.getAddress(),_Mitigator,_DeadlineInterval,_OfferedFunds,_ListOfAddresses);\r\n        CurrentProcesses.push(newProcessData.getAddress());\r\n\t\temit ProcessDataCreated(msg.sender,newProcessData);\r\n\t\t\r\n        return newProcessData;\r\n    }\r\n\r\n    function approve(address payable process,bool descision) \r\n    public\r\n    returns (ProcessData){\r\n        \r\n        require(isProcess(process),\"Process does not exist\");\r\n        require(canSenderAdvance(process,Enums.State.APPROVE),\"Sender is not allowed\");\r\n        \r\n        ProcessData ProcessToUse = ProcessData(process);\r\n        \r\n        if(descision){\r\n            ProcessToUse.setState(Enums.State.FUNDING);\r\n            ProcessToUse.setNextActor(ProcessToUse.getTarget());\r\n        }else{\r\n            ProcessToUse.setState(Enums.State.ABORT);\r\n\t\t\tProcessToUse.setNextActor(ProcessToUse.getTarget());\r\n        }\r\n  \r\n        return ProcessToUse;\r\n    }\r\n    \r\n    function sendFunds(address payable process) \r\n    public\r\n    payable\r\n    returns (ProcessData){\r\n        \r\n        require(isProcess(process),\"Process does not exist\");\r\n        require(canSenderAdvance(process,Enums.State.FUNDING),\"Sender is not allowed\");\r\n        \r\n        ProcessData ProcessToUse = ProcessData(process);\r\n        \r\n        ProcessToUse.getAddress().transfer(msg.value);\r\n        ProcessToUse.setNextActor(ProcessToUse.getMitigator());\r\n        ProcessToUse.setState(Enums.State.PROOF);\r\n        ProcessToUse.setNextDeadline();\r\n        \r\n        return ProcessToUse;\r\n    }\r\n    \r\n    \r\n    function uploadProof(address payable process,string memory _Proof) \r\n    public\r\n    returns (ProcessData){\r\n        \r\n        require(isProcess(process),\"Process does not exist\");\r\n        require(canSenderAdvance(process,Enums.State.PROOF),\"Sender is not allowed\");\r\n        \r\n        ProcessData ProcessToUse = ProcessData(process);\r\n        ProcessToUse.setProof(_Proof);\r\n        ProcessToUse.setNextActor(ProcessToUse.getTarget());\r\n        ProcessToUse.setState(Enums.State.TRATE);\r\n        ProcessToUse.setNextDeadline();\r\n        \r\n        return ProcessToUse;\r\n    }\r\n    \r\n    function ratingByTarget(address payable process,Enums.Rating rating) \r\n    public\r\n    payable\r\n    returns (ProcessData){\r\n        \r\n        require(isProcess(process),\"Process does not exist\");\r\n        require(canSenderAdvance(process,Enums.State.TRATE),\"Sender is not allowed\");\r\n        \r\n        ProcessData ProcessToUse = ProcessData(process);\r\n        \r\n        if(!ProcessToUse.isProofProvided()){\r\n            ProcessToUse.setTargetRating(rating);\r\n\t\t\tProcessToUse.setNextActor(ProcessToUse.getTarget());\r\n\t\t\tProcessToUse.setState(Enums.State.COMPLETE);\r\n            ProcessToUse.executeEvaluation();\r\n            return ProcessToUse;\r\n        }\r\n        \r\n        ProcessToUse.setTargetRating(rating);\r\n        ProcessToUse.setNextActor(ProcessToUse.getMitigator());\r\n        ProcessToUse.setState(Enums.State.MRATE);\r\n        ProcessToUse.setNextDeadline();\r\n        \r\n        return ProcessToUse;\r\n         \r\n    }\r\n    \r\n    function ratingByMitigator(address payable process,Enums.Rating rating) \r\n    public\r\n    payable\r\n    returns (ProcessData){\r\n        \r\n        require(isProcess(process),\"Process does not exist\");\r\n\t\t\r\n        require(canSenderAdvance(process,Enums.State.MRATE),\"Sender is not allowed to advance due to: \");\r\n        \r\n        ProcessData ProcessToUse = ProcessData(process);\r\n        ProcessToUse.setMitigatorRating(rating);\r\n\t\tProcessToUse.setNextActor(ProcessToUse.getTarget());\r\n        ProcessToUse.executeEvaluation();\r\n\r\n        return ProcessToUse;\r\n    }\r\n\t\r\n\tfunction canCurrentStateBeSkipped(address payable process) private returns(bool){\r\n\t\treturn false;\r\n\t}\r\n   \r\n    /*Checks where the sender of the message is the next actor and the state \r\n    of the action to be performed is the one immediately following in the process\r\n    and if deadline is exceeded*/\r\n    function canSenderAdvance(address payable process,Enums.State newState) \r\n    private \r\n    view\r\n    returns(bool){\r\n        \r\n\t\trequire(isProcess(process),\"Process not found\");\r\n        ProcessData CurrentProcess = getProcess(process);\r\n\r\n        require(CurrentProcess.getNextActor().getOwner() == msg.sender,\"NextActor != Sender\");\r\n        require(uint(newState)==uint(CurrentProcess.getState()),\"Next state would be lower\");\r\n        if(CurrentProcess.getState()<uint(Enums.State.FUNDING)){\r\n            require(now>CurrentProcess.getDeadline(),\"state >=start && now > deadline\");\r\n        }\r\n        \r\n        return true;\r\n    }\r\n\t\r\n\tfunction getProcess(address payable process) \r\n    public view \r\n    returns(ProcessData){\r\n        for (uint i = 0 ; i < CurrentProcesses.length; i++) {\r\n            if(CurrentProcesses[i]==process){\r\n                return ProcessData(process);\r\n            }\r\n        }\r\n\t\treturn ProcessData(0);\r\n    }\r\n\t\r\n    function getProcesses() \r\n    public view \r\n    returns(address[] memory){\r\n        return CurrentProcesses;\r\n    }\r\n    \r\n\r\n    function getStateOfProcess(address payable process) \r\n    public view \r\n    returns(address payable,address payable,address payable,uint,string memory,uint,uint,uint){\r\n        ProcessData ProcessToUse = ProcessData(process);\r\n        return (ProcessToUse.getTarget().getOwner(),ProcessToUse.getMitigator().getOwner(),ProcessToUse.getNextActor().getOwner()\r\n        ,ProcessToUse.getFunds(),ProcessToUse.getProof(),uint(ProcessToUse.getState())\r\n        ,uint(ProcessToUse.getTargetRating()),uint(ProcessToUse.getMitigatorRating()));\r\n    }\r\n    \r\n    function isProcess(address payable process) \r\n    private view \r\n    returns(bool){\r\n        for (uint i = 0 ; i < CurrentProcesses.length; i++) {\r\n            if(CurrentProcesses[i]==process){\r\n                return true;\r\n            }\r\n        }\r\n        return false;\r\n    }\r\n    \r\n    function isMitigator(address mitigator) \r\n    private view \r\n    returns(bool){\r\n        for (uint i = 0 ; i < Mitigators.length; i++) {\r\n            if(Mitigators[i]==mitigator){\r\n                return true;\r\n            }\r\n        }\r\n        return false;\r\n    }\r\n\t\r\n\tfunction senderIsTarget(address payable owner) \r\n    private view \r\n    returns(bool){\r\n        for (uint i = 0 ; i < Targets.length; i++) {\r\n            if(IActor(Targets[i]).getOwner()==owner){\r\n                return true;\r\n            }\r\n        }\r\n        return false;\r\n    }\r\n\t\r\n\tfunction getTarget(address payable owner) \r\n    private view \r\n    returns(address){\r\n        for (uint i = 0 ; i < Targets.length; i++) {\r\n            if(IActor(Targets[i]).getOwner()==owner){\r\n                return Targets[i];\r\n            }\r\n        }\r\n\t\treturn address(0);\r\n    }\r\n}",
  "sourcePath": "C:/Code/Private/CooperativeSignaling/contracts/Protocol.sol",
  "compiler": {
    "name": "solc",
    "version": "0.5.0+commit.1d4f565a.Emscripten.clang"
  },
  "schemaVersion": "3.0.1",
  "updatedAt": "2019-02-03T15:21:15.692Z",
  "devdoc": {
    "methods": {}
  },
  "userdoc": {
    "methods": {}
  }
}