{
  "contractName": "Protocol",
  "abi": [
    {
      "payable": true,
      "stateMutability": "payable",
      "type": "fallback"
    },
    {
      "anonymous": false,
      "inputs": [
        {
          "indexed": false,
          "name": "_from",
          "type": "address"
        },
        {
          "indexed": false,
          "name": "addr",
          "type": "address"
        }
      ],
      "name": "ProcessDataCreated",
      "type": "event",
      "signature": "0x0882f6c178d03f7e5056c19884ff9dbd841f072c80be76045db6007f9ca30fb5"
    },
    {
      "anonymous": false,
      "inputs": [
        {
          "indexed": false,
          "name": "_from",
          "type": "address"
        },
        {
          "indexed": false,
          "name": "addr",
          "type": "address"
        }
      ],
      "name": "ActorCreated",
      "type": "event",
      "signature": "0xc5670063c168f180a7b2c6f5900d3e21ebf6b0b7cfb9912d5cbb57fc1b15bf0d"
    },
    {
      "anonymous": false,
      "inputs": [
        {
          "indexed": false,
          "name": "value",
          "type": "uint256"
        }
      ],
      "name": "FundsReceived",
      "type": "event",
      "signature": "0xbcdc7071c1beb6dcf2744621e0b29a2f2432ee20812d9ca5e3d5e8f9308d93a3"
    },
    {
      "constant": false,
      "inputs": [
        {
          "name": "_Owner",
          "type": "address"
        },
        {
          "name": "PricePerUnit",
          "type": "uint256"
        },
        {
          "name": "NetworkName",
          "type": "string"
        }
      ],
      "name": "registerActor",
      "outputs": [
        {
          "name": "",
          "type": "address"
        }
      ],
      "payable": false,
      "stateMutability": "nonpayable",
      "type": "function",
      "signature": "0x103647fc"
    },
    {
      "constant": false,
      "inputs": [
        {
          "name": "_Owner",
          "type": "address"
        }
      ],
      "name": "deleteActor",
      "outputs": [],
      "payable": false,
      "stateMutability": "nonpayable",
      "type": "function",
      "signature": "0x00ed7026"
    },
    {
      "constant": false,
      "inputs": [
        {
          "name": "_MitigatorOwner",
          "type": "address"
        },
        {
          "name": "_DeadlineInterval",
          "type": "uint256"
        },
        {
          "name": "_OfferedFunds",
          "type": "uint256"
        },
        {
          "name": "_ListOfAddresses",
          "type": "string"
        },
        {
          "name": "_NumberOfAddresses",
          "type": "uint256"
        }
      ],
      "name": "init",
      "outputs": [],
      "payable": false,
      "stateMutability": "nonpayable",
      "type": "function",
      "signature": "0x3d99bdc7"
    },
    {
      "constant": false,
      "inputs": [
        {
          "name": "process",
          "type": "address"
        },
        {
          "name": "descision",
          "type": "bool"
        }
      ],
      "name": "approve",
      "outputs": [],
      "payable": false,
      "stateMutability": "nonpayable",
      "type": "function",
      "signature": "0x3d140d21"
    },
    {
      "constant": false,
      "inputs": [
        {
          "name": "process",
          "type": "address"
        }
      ],
      "name": "sendFunds",
      "outputs": [],
      "payable": true,
      "stateMutability": "payable",
      "type": "function",
      "signature": "0xcfe52bdd"
    },
    {
      "constant": false,
      "inputs": [
        {
          "name": "process",
          "type": "address"
        },
        {
          "name": "_Proof",
          "type": "string"
        }
      ],
      "name": "uploadProof",
      "outputs": [],
      "payable": false,
      "stateMutability": "nonpayable",
      "type": "function",
      "signature": "0xc369ac92"
    },
    {
      "constant": false,
      "inputs": [
        {
          "name": "process",
          "type": "address"
        },
        {
          "name": "rating",
          "type": "uint8"
        }
      ],
      "name": "ratingByTarget",
      "outputs": [],
      "payable": true,
      "stateMutability": "payable",
      "type": "function",
      "signature": "0x9cd14d73"
    },
    {
      "constant": false,
      "inputs": [
        {
          "name": "process",
          "type": "address"
        },
        {
          "name": "rating",
          "type": "uint8"
        }
      ],
      "name": "ratingByMitigator",
      "outputs": [],
      "payable": true,
      "stateMutability": "payable",
      "type": "function",
      "signature": "0xcd0a1d60"
    },
    {
      "constant": false,
      "inputs": [
        {
          "name": "process",
          "type": "address"
        }
      ],
      "name": "skipCurrentState",
      "outputs": [],
      "payable": false,
      "stateMutability": "nonpayable",
      "type": "function",
      "signature": "0x2402bea8"
    },
    {
      "constant": true,
      "inputs": [],
      "name": "getProcesses",
      "outputs": [
        {
          "name": "",
          "type": "address[]"
        }
      ],
      "payable": false,
      "stateMutability": "view",
      "type": "function",
      "signature": "0x6e52b239"
    },
    {
      "constant": true,
      "inputs": [],
      "name": "getActors",
      "outputs": [
        {
          "name": "",
          "type": "address[]"
        }
      ],
      "payable": false,
      "stateMutability": "view",
      "type": "function",
      "signature": "0x137e7a7d"
    },
    {
      "constant": true,
      "inputs": [
        {
          "name": "process",
          "type": "address"
        }
      ],
      "name": "getStateOfProcess",
      "outputs": [
        {
          "name": "",
          "type": "address"
        },
        {
          "name": "",
          "type": "address"
        },
        {
          "name": "",
          "type": "address"
        },
        {
          "name": "",
          "type": "uint256"
        },
        {
          "name": "",
          "type": "string"
        },
        {
          "name": "",
          "type": "uint256"
        },
        {
          "name": "",
          "type": "uint256"
        },
        {
          "name": "",
          "type": "uint256"
        }
      ],
      "payable": false,
      "stateMutability": "view",
      "type": "function",
      "signature": "0x4152d427"
    }
  ],
  "bytecode": "0x608060405234801561001057600080fd5b506146d1806100206000396000f3fe608060405260043610620000ac5763ffffffff60e060020a600035041662ed70268114620000e1578063103647fc146200011a578063137e7a7d14620002055780632402bea8146200026f5780633d140d2114620002a65780633d99bdc714620002e55780634152d42714620003bd5780636e52b23914620004d65780639cd14d7314620004ee578063c369ac921462000520578063cd0a1d6014620005ea578063cfe52bdd146200061c575b6040805134815290517fbcdc7071c1beb6dcf2744621e0b29a2f2432ee20812d9ca5e3d5e8f9308d93a39181900360200190a1005b348015620000ee57600080fd5b5062000118600480360360208110156200010757600080fd5b5035600160a060020a031662000645565b005b3480156200012757600080fd5b50620001e9600480360360608110156200014057600080fd5b600160a060020a03823516916020810135918101906060810160408201356401000000008111156200017157600080fd5b8201836020820111156200018457600080fd5b80359060200191846001830284011164010000000083111715620001a757600080fd5b91908080601f01602080910402602001604051908101604052809392919081815260200183838082843760009201919091525092955062000845945050505050565b60408051600160a060020a039092168252519081900360200190f35b3480156200021257600080fd5b506200021d62000aae565b60408051602080825283518183015283519192839290830191858101910280838360005b838110156200025b57818101518382015260200162000241565b505050509050019250505060405180910390f35b3480156200027c57600080fd5b5062000118600480360360208110156200029557600080fd5b5035600160a060020a031662000b13565b348015620002b357600080fd5b506200011860048036036040811015620002cc57600080fd5b50600160a060020a0381351690602001351515620011fb565b348015620002f257600080fd5b5062000118600480360360a08110156200030b57600080fd5b600160a060020a0382351691602081013591604082013591908101906080810160608201356401000000008111156200034357600080fd5b8201836020820111156200035657600080fd5b803590602001918460018302840111640100000000831117156200037957600080fd5b91908080601f016020809104026020016040519081016040528093929190818152602001838380828437600092019190915250929550509135925062001388915050565b348015620003ca57600080fd5b50620003f460048036036020811015620003e357600080fd5b5035600160a060020a0316620017be565b6040518089600160a060020a0316600160a060020a0316815260200188600160a060020a0316600160a060020a0316815260200187600160a060020a0316600160a060020a0316815260200186815260200180602001858152602001848152602001838152602001828103825286818151815260200191508051906020019080838360005b838110156200049357818101518382015260200162000479565b50505050905090810190601f168015620004c15780820380516001836020036101000a031916815260200191505b50995050505050505050505060405180910390f35b348015620004e357600080fd5b506200021d62001da9565b62000118600480360360408110156200050657600080fd5b508035600160a060020a0316906020013560ff1662001e0b565b3480156200052d57600080fd5b5062000118600480360360408110156200054657600080fd5b600160a060020a0382351691908101906040810160208201356401000000008111156200057257600080fd5b8201836020820111156200058557600080fd5b80359060200191846001830284011164010000000083111715620005a857600080fd5b91908080601f0160208091040260200160405190810160405280939291908181526020018383808284376000920191909152509295506200204e945050505050565b62000118600480360360408110156200060257600080fd5b508035600160a060020a0316906020013560ff1662002213565b62000118600480360360208110156200063457600080fd5b5035600160a060020a0316620023b8565b600160a060020a0381163314620006cc576040805160e560020a62461bcd02815260206004820152602860248201527f5468652073656e646572206973206e6f7420746865206f776e6572206f66207460448201527f6865206163746f72000000000000000000000000000000000000000000000000606482015290519081900360840190fd5b620006d781620024d4565b151562000754576040805160e560020a62461bcd02815260206004820152602b60248201527f5468652073656e64657220697320696e766f6c76656420696e20616e2061637460448201527f6976652070726f63657373000000000000000000000000000000000000000000606482015290519081900360840190fd5b6000620007618262002736565b600154909150600010620007bf576040805160e560020a62461bcd02815260206004820152601060248201527f456d707479206163746f72206c69737400000000000000000000000000000000604482015290519081900360640190fd5b600080546000198101908110620007d257fe5b60009182526020822001548154600160a060020a03909116919083908110620007f757fe5b60009182526020822001805473ffffffffffffffffffffffffffffffffffffffff1916600160a060020a0393909316929092179091558054600019019062000840908262002e8a565b505050565b6000620008528462002804565b15620008ce576040805160e560020a62461bcd02815260206004820152603660248201527f5468652070726f7669646564206164647265737320697320616c72656164792060448201527f7265676973746572656420617320616e206163746f7200000000000000000000606482015290519081900360840190fd5b600160a060020a038416331462000955576040805160e560020a62461bcd02815260206004820152602a60248201527f5468652073656e646572206973206e6f7420746865206f776e6572206f66207460448201527f6865206164647265737300000000000000000000000000000000000000000000606482015290519081900360840190fd5b60008484846200096462002eb1565b8084600160a060020a0316600160a060020a0316815260200183815260200180602001828103825283818151815260200191508051906020019080838360005b83811015620009be578181015183820152602001620009a4565b50505050905090810190601f168015620009ec5780820380516001836020036101000a031916815260200191505b50945050505050604051809103906000f08015801562000a10573d6000803e3d6000fd5b50600080546001810182559080527f290decd9548b62a8d60345a988386fc84ba6bc95484008f6362f93160ef3e56301805473ffffffffffffffffffffffffffffffffffffffff1916600160a060020a03831690811790915560408051338152602081019290925280519293507fc5670063c168f180a7b2c6f5900d3e21ebf6b0b7cfb9912d5cbb57fc1b15bf0d92918290030190a1949350505050565b6060600080548060200260200160405190810160405280929190818152602001828054801562000b0857602002820191906000526020600020905b8154600160a060020a0316815260019091019060200180831162000ae9575b505050505090505b90565b62000b1e81620028cc565b151562000b75576040805160e560020a62461bcd02815260206004820152601160248201527f50726f63657373206e6f7420666f756e64000000000000000000000000000000604482015290519081900360640190fd5b600062000b828262002925565b9050600681600160a060020a0316631865c57d6040518163ffffffff1660e060020a02815260040160206040518083038186803b15801562000bc357600080fd5b505afa15801562000bd8573d6000803e3d6000fd5b505050506040513d602081101562000bef57600080fd5b50511062000c6d576040805160e560020a62461bcd02815260206004820152603260248201527f50726f6365737320697320616c72656164792061626f727465642c20636f6d7060448201527f6c65746564206f7220657363616c617465640000000000000000000000000000606482015290519081900360840190fd5b600381600160a060020a0316631865c57d6040518163ffffffff1660e060020a02815260040160206040518083038186803b15801562000cac57600080fd5b505afa15801562000cc1573d6000803e3d6000fd5b505050506040513d602081101562000cd857600080fd5b5051101562000ecb5780600160a060020a031663f00e6a2a6040518163ffffffff1660e060020a02815260040160206040518083038186803b15801562000d1e57600080fd5b505afa15801562000d33573d6000803e3d6000fd5b505050506040513d602081101562000d4a57600080fd5b50516040805160e360020a631127a41d0281529051600160a060020a039092169163893d20e891600480820192602092909190829003018186803b15801562000d9257600080fd5b505afa15801562000da7573d6000803e3d6000fd5b505050506040513d602081101562000dbe57600080fd5b5051600160a060020a0316331462000e46576040805160e560020a62461bcd02815260206004820152603f60248201527f496e20746869732073746174652c207468652070726f636573732063616e206f60448201527f6e6c792062652061626f727465642062792074686520696e69746961746f7200606482015290519081900360840190fd5b6040517faa2515d3000000000000000000000000000000000000000000000000000000008152600160a060020a0382169063aa2515d390600790600401808260ff168152602001915050600060405180830381600087803b15801562000eab57600080fd5b505af115801562000ec0573d6000803e3d6000fd5b5050505050620011f8565b80600160a060020a0316635f8d96de6040518163ffffffff1660e060020a02815260040160206040518083038186803b15801562000f0857600080fd5b505afa15801562000f1d573d6000803e3d6000fd5b505050506040513d602081101562000f3457600080fd5b5051421162000fb3576040805160e560020a62461bcd02815260206004820152602660248201527f446561646c696e65206e6f74207965742065786365656465642c20706c65617360448201527f6520776169740000000000000000000000000000000000000000000000000000606482015290519081900360840190fd5b600481600160a060020a0316631865c57d6040518163ffffffff1660e060020a02815260040160206040518083038186803b15801562000ff257600080fd5b505afa15801562001007573d6000803e3d6000fd5b505050506040513d60208110156200101e57600080fd5b50511415620010ab576040517fa3bbb090000000000000000000000000000000000000000000000000000000008152600160a060020a0382169063a3bbb09090600190600401808260ff168152602001915050600060405180830381600087803b1580156200108c57600080fd5b505af1158015620010a1573d6000803e3d6000fd5b505050506200119e565b600581600160a060020a0316631865c57d6040518163ffffffff1660e060020a02815260040160206040518083038186803b158015620010ea57600080fd5b505afa158015620010ff573d6000803e3d6000fd5b505050506040513d60208110156200111657600080fd5b505114156200119e576040517f1dc9b284000000000000000000000000000000000000000000000000000000008152600160a060020a03821690631dc9b28490600190600401808260ff168152602001915050600060405180830381600087803b1580156200118457600080fd5b505af115801562001199573d6000803e3d6000fd5b505050505b80600160a060020a03166384ecdaf66040518163ffffffff1660e060020a028152600401600060405180830381600087803b158015620011dd57600080fd5b505af1158015620011f2573d6000803e3d6000fd5b50505050505b50565b6200120682620028cc565b15156200124c576040805160e560020a62461bcd028152602060048201526016602482015260008051602062004686833981519152604482015290519081900360640190fd5b620012598260016200297d565b15156200129f576040805160e560020a62461bcd028152602060048201526015602482015260008051602062004666833981519152604482015290519081900360640190fd5b818115620013055780600160a060020a03166384ecdaf66040518163ffffffff1660e060020a028152600401600060405180830381600087803b158015620012e657600080fd5b505af1158015620012fb573d6000803e3d6000fd5b5050505062000840565b6040517faa2515d3000000000000000000000000000000000000000000000000000000008152600160a060020a0382169063aa2515d390600790600401808260ff168152602001915050600060405180830381600087803b1580156200136a57600080fd5b505af11580156200137f573d6000803e3d6000fd5b50505050505050565b8151600010620013e2576040805160e560020a62461bcd02815260206004820152601560248201527f6e6f206164647265737365732070726f76696465640000000000000000000000604482015290519081900360640190fd5b620013ed8562002804565b151562001444576040805160e560020a62461bcd02815260206004820152601360248201527f4e6f2072656769737465726564206163746f7200000000000000000000000000604482015290519081900360640190fd5b6200144f3362002804565b1515620014cb576040805160e560020a62461bcd028152602060048201526024808201527f53656e646572206973206e6f74207265676973746572656420617320616e206160448201527f63746f7200000000000000000000000000000000000000000000000000000000606482015290519081900360840190fd5b33600160a060020a038616141562001552576040805160e560020a62461bcd028152602060048201526024808201527f53656e64657220616e64207461726765742063616e6e6f74206265207468652060448201527f73616d6500000000000000000000000000000000000000000000000000000000606482015290519081900360840190fd5b60006200155f8662002d9f565b905080600160a060020a031663a5ebeaa485846040518363ffffffff1660e060020a028152600401808381526020018281526020019250505060206040518083038186803b158015620015b157600080fd5b505afa158015620015c6573d6000803e3d6000fd5b505050506040513d6020811015620015dd57600080fd5b5051151562001636576040805160e560020a62461bcd02815260206004820152600d60248201527f46756e647320746f6f206c6f7700000000000000000000000000000000000000604482015290519081900360640190fd5b6000620016433362002d9f565b828787876200165162002ec2565b8086600160a060020a0316600160a060020a0316815260200185600160a060020a0316600160a060020a0316815260200184815260200183815260200180602001828103825283818151815260200191508051906020019080838360005b83811015620016c9578181015183820152602001620016af565b50505050905090810190601f168015620016f75780820380516001836020036101000a031916815260200191505b509650505050505050604051809103906000f0801580156200171d573d6000803e3d6000fd5b506001805480820182556000919091527fb10e2d527612073b26eecdfd717e6a320cf44b4afac2b0732d9fcbe2b7fa0cf601805473ffffffffffffffffffffffffffffffffffffffff1916600160a060020a03831690811790915560408051338152602081019290925280519293507f0882f6c178d03f7e5056c19884ff9dbd841f072c80be76045db6007f9ca30fb592918290030190a150505050505050565b600080600080606060008060008089905080600160a060020a031663f00e6a2a6040518163ffffffff1660e060020a02815260040160206040518083038186803b1580156200180c57600080fd5b505afa15801562001821573d6000803e3d6000fd5b505050506040513d60208110156200183857600080fd5b50516040805160e360020a631127a41d0281529051600160a060020a039092169163893d20e891600480820192602092909190829003018186803b1580156200188057600080fd5b505afa15801562001895573d6000803e3d6000fd5b505050506040513d6020811015620018ac57600080fd5b5051604080517f50b1be260000000000000000000000000000000000000000000000000000000081529051600160a060020a038416916350b1be26916004808301926020929190829003018186803b1580156200190857600080fd5b505afa1580156200191d573d6000803e3d6000fd5b505050506040513d60208110156200193457600080fd5b50516040805160e360020a631127a41d0281529051600160a060020a039092169163893d20e891600480820192602092909190829003018186803b1580156200197c57600080fd5b505afa15801562001991573d6000803e3d6000fd5b505050506040513d6020811015620019a857600080fd5b5051604080517f1b3e7c4b0000000000000000000000000000000000000000000000000000000081529051600160a060020a03851691631b3e7c4b916004808301926020929190829003018186803b15801562001a0457600080fd5b505afa15801562001a19573d6000803e3d6000fd5b505050506040513d602081101562001a3057600080fd5b50516040805160e360020a631127a41d0281529051600160a060020a039092169163893d20e891600480820192602092909190829003018186803b15801562001a7857600080fd5b505afa15801562001a8d573d6000803e3d6000fd5b505050506040513d602081101562001aa457600080fd5b5051604080517f4d9b37350000000000000000000000000000000000000000000000000000000081529051600160a060020a03861691634d9b3735916004808301926020929190829003018186803b15801562001b0057600080fd5b505afa15801562001b15573d6000803e3d6000fd5b505050506040513d602081101562001b2c57600080fd5b5051604080517f5c5d625e0000000000000000000000000000000000000000000000000000000081529051600160a060020a03871691635c5d625e916004808301926000929190829003018186803b15801562001b8857600080fd5b505afa15801562001b9d573d6000803e3d6000fd5b505050506040513d6000823e601f3d908101601f19168201604052602081101562001bc757600080fd5b81019080805164010000000081111562001be057600080fd5b8201602081018481111562001bf457600080fd5b815164010000000081118282018710171562001c0f57600080fd5b505092919050505085600160a060020a0316631865c57d6040518163ffffffff1660e060020a02815260040160206040518083038186803b15801562001c5457600080fd5b505afa15801562001c69573d6000803e3d6000fd5b505050506040513d602081101562001c8057600080fd5b5051604080517f9ed5b5020000000000000000000000000000000000000000000000000000000081529051600160a060020a03891691639ed5b502916004808301926020929190829003018186803b15801562001cdc57600080fd5b505afa15801562001cf1573d6000803e3d6000fd5b505050506040513d602081101562001d0857600080fd5b5051600281111562001d1657fe5b87600160a060020a03166390f3213d6040518163ffffffff1660e060020a02815260040160206040518083038186803b15801562001d5357600080fd5b505afa15801562001d68573d6000803e3d6000fd5b505050506040513d602081101562001d7f57600080fd5b5051600281111562001d8d57fe5b9850985098509850985098509850985050919395975091939597565b6060600180548060200260200160405190810160405280929190818152602001828054801562000b0857602002820191906000526020600020908154600160a060020a0316815260019091019060200180831162000ae9575050505050905090565b62001e1682620028cc565b151562001e5c576040805160e560020a62461bcd028152602060048201526016602482015260008051602062004686833981519152604482015290519081900360640190fd5b62001e698260046200297d565b151562001eaf576040805160e560020a62461bcd028152602060048201526015602482015260008051602062004666833981519152604482015290519081900360640190fd5b6040517fa3bbb0900000000000000000000000000000000000000000000000000000000081528290600160a060020a0382169063a3bbb0909084906004018082600281111562001efb57fe5b60ff168152602001915050600060405180830381600087803b15801562001f2157600080fd5b505af115801562001f36573d6000803e3d6000fd5b5050505080600160a060020a031663620ae1c76040518163ffffffff1660e060020a02815260040160206040518083038186803b15801562001f7757600080fd5b505afa15801562001f8c573d6000803e3d6000fd5b505050506040513d602081101562001fa357600080fd5b505115156200200b5780600160a060020a031663841eb45a6040518163ffffffff1660e060020a028152600401600060405180830381600087803b15801562001feb57600080fd5b505af115801562002000573d6000803e3d6000fd5b50505050506200204a565b80600160a060020a03166384ecdaf66040518163ffffffff1660e060020a028152600401600060405180830381600087803b1580156200136a57600080fd5b5050565b6200205982620028cc565b15156200209f576040805160e560020a62461bcd028152602060048201526016602482015260008051602062004686833981519152604482015290519081900360640190fd5b620020ac8260036200297d565b1515620020f2576040805160e560020a62461bcd028152602060048201526015602482015260008051602062004666833981519152604482015290519081900360640190fd5b6040517f15336f800000000000000000000000000000000000000000000000000000000081526020600482018181528351602484015283518593600160a060020a038516936315336f80938793909283926044909101919085019080838360005b838110156200216d57818101518382015260200162002153565b50505050905090810190601f1680156200219b5780820380516001836020036101000a031916815260200191505b5092505050600060405180830381600087803b158015620021bb57600080fd5b505af1158015620021d0573d6000803e3d6000fd5b5050505080600160a060020a03166384ecdaf66040518163ffffffff1660e060020a028152600401600060405180830381600087803b1580156200136a57600080fd5b6200221e82620028cc565b151562002264576040805160e560020a62461bcd028152602060048201526016602482015260008051602062004686833981519152604482015290519081900360640190fd5b620022718260056200297d565b1515620022ee576040805160e560020a62461bcd02815260206004820152602960248201527f53656e646572206973206e6f7420616c6c6f77656420746f20616476616e636560448201527f2064756520746f3a200000000000000000000000000000000000000000000000606482015290519081900360840190fd5b6040517f1dc9b2840000000000000000000000000000000000000000000000000000000081528290600160a060020a03821690631dc9b284908490600401808260028111156200233a57fe5b60ff168152602001915050600060405180830381600087803b1580156200236057600080fd5b505af115801562002375573d6000803e3d6000fd5b5050505080600160a060020a031663841eb45a6040518163ffffffff1660e060020a028152600401600060405180830381600087803b1580156200136a57600080fd5b620023c381620028cc565b151562002409576040805160e560020a62461bcd028152602060048201526016602482015260008051602062004686833981519152604482015290519081900360640190fd5b620024168160026200297d565b15156200245c576040805160e560020a62461bcd028152602060048201526015602482015260008051602062004666833981519152604482015290519081900360640190fd5b6040518190600160a060020a038216903480156108fc02916000818181858888f1935050505015801562002494573d6000803e3d6000fd5b5080600160a060020a03166384ecdaf66040518163ffffffff1660e060020a028152600401600060405180830381600087803b158015620011dd57600080fd5b6000620024e18262002804565b151562002538576040805160e560020a62461bcd02815260206004820152601560248201527f4f776e6572206973206e6f7420616e206163746f720000000000000000000000604482015290519081900360640190fd5b6000620025458362002d9f565b905060005b6001548110156200272a576000620025866001838154811015156200256b57fe5b600091825260209091200154600160a060020a031662002925565b9050600681600160a060020a0316631865c57d6040518163ffffffff1660e060020a02815260040160206040518083038186803b158015620025c757600080fd5b505afa158015620025dc573d6000803e3d6000fd5b505050506040513d6020811015620025f357600080fd5b50511015620027205782600160a060020a031681600160a060020a031663f00e6a2a6040518163ffffffff1660e060020a02815260040160206040518083038186803b1580156200264357600080fd5b505afa15801562002658573d6000803e3d6000fd5b505050506040513d60208110156200266f57600080fd5b5051600160a060020a031614156200268e576000935050505062002731565b82600160a060020a031681600160a060020a03166350b1be266040518163ffffffff1660e060020a02815260040160206040518083038186803b158015620026d557600080fd5b505afa158015620026ea573d6000803e3d6000fd5b505050506040513d60208110156200270157600080fd5b5051600160a060020a0316141562002720576000935050505062002731565b506001016200254a565b5060019150505b919050565b6000805b600054811015620027fb5782600160a060020a03166000828154811015156200275f57fe5b600091825260209182902001546040805160e360020a631127a41d0281529051600160a060020a039092169263893d20e892600480840193829003018186803b158015620027ac57600080fd5b505afa158015620027c1573d6000803e3d6000fd5b505050506040513d6020811015620027d857600080fd5b5051600160a060020a03161415620027f257905062002731565b6001016200273a565b50600092915050565b6000805b600054811015620027fb5782600160a060020a03166000828154811015156200282d57fe5b600091825260209182902001546040805160e360020a631127a41d0281529051600160a060020a039092169263893d20e892600480840193829003018186803b1580156200287a57600080fd5b505afa1580156200288f573d6000803e3d6000fd5b505050506040513d6020811015620028a657600080fd5b5051600160a060020a03161415620028c357600191505062002731565b60010162002808565b6000805b600154811015620027fb5782600160a060020a0316600182815481101515620028f557fe5b600091825260209091200154600160a060020a031614156200291c57600191505062002731565b600101620028d0565b6000805b600154811015620027fb5782600160a060020a03166001828154811015156200294e57fe5b600091825260209091200154600160a060020a0316141562002974578291505062002731565b60010162002929565b60006200298a83620028cc565b1515620029e1576040805160e560020a62461bcd02815260206004820152601160248201527f50726f63657373206e6f7420666f756e64000000000000000000000000000000604482015290519081900360640190fd5b6000620029ee8462002925565b9050600281600160a060020a0316631865c57d6040518163ffffffff1660e060020a02815260040160206040518083038186803b15801562002a2f57600080fd5b505afa15801562002a44573d6000803e3d6000fd5b505050506040513d602081101562002a5b57600080fd5b505111801562002ad55750600681600160a060020a0316631865c57d6040518163ffffffff1660e060020a02815260040160206040518083038186803b15801562002aa557600080fd5b505afa15801562002aba573d6000803e3d6000fd5b505050506040513d602081101562002ad157600080fd5b5051105b1562002b595780600160a060020a0316635f8d96de6040518163ffffffff1660e060020a02815260040160206040518083038186803b15801562002b1857600080fd5b505afa15801562002b2d573d6000803e3d6000fd5b505050506040513d602081101562002b4457600080fd5b505142111562002b595762002b598462000b13565b33600160a060020a031681600160a060020a0316631b3e7c4b6040518163ffffffff1660e060020a02815260040160206040518083038186803b15801562002ba057600080fd5b505afa15801562002bb5573d6000803e3d6000fd5b505050506040513d602081101562002bcc57600080fd5b50516040805160e360020a631127a41d0281529051600160a060020a039092169163893d20e891600480820192602092909190829003018186803b15801562002c1457600080fd5b505afa15801562002c29573d6000803e3d6000fd5b505050506040513d602081101562002c4057600080fd5b5051600160a060020a03161462002ca1576040805160e560020a62461bcd02815260206004820152601360248201527f4e6578744163746f7220213d2053656e64657200000000000000000000000000604482015290519081900360640190fd5b80600160a060020a0316631865c57d6040518163ffffffff1660e060020a02815260040160206040518083038186803b15801562002cde57600080fd5b505afa15801562002cf3573d6000803e3d6000fd5b505050506040513d602081101562002d0a57600080fd5b505183600881111562002d1957fe5b1462002d95576040805160e560020a62461bcd02815260206004820152602160248201527f5374617465206f66206f7065726174696f6e20646f6573206e6f74206d61746360448201527f6800000000000000000000000000000000000000000000000000000000000000606482015290519081900360840190fd5b5060019392505050565b6000805b600054811015620027fb5782600160a060020a031660008281548110151562002dc857fe5b600091825260209182902001546040805160e360020a631127a41d0281529051600160a060020a039092169263893d20e892600480840193829003018186803b15801562002e1557600080fd5b505afa15801562002e2a573d6000803e3d6000fd5b505050506040513d602081101562002e4157600080fd5b5051600160a060020a0316141562002e8157600080548290811062002e6257fe5b600091825260209091200154600160a060020a03169150620027319050565b60010162002da3565b81548183558181111562000840576000838152602090206200084091810190830162002ed3565b6040516104928062002ef583390190565b6040516112df806200338783390190565b62000b1091905b8082111562002ef0576000815560010162002eda565b509056fe608060405234801561001057600080fd5b506040516104923803806104928339810180604052606081101561003357600080fd5b815160208301516040840180519294919382019264010000000081111561005957600080fd5b8201602081018481111561006c57600080fd5b815164010000000081118282018710171561008657600080fd5b505060008054600160a060020a031916600160a060020a038816179055600185905580519093506100c092506002915060208401906100c9565b50505050610164565b828054600181600116156101000203166002900490600052602060002090601f016020900481019282601f1061010a57805160ff1916838001178555610137565b82800160010185558215610137579182015b8281111561013757825182559160200191906001019061011c565b50610143929150610147565b5090565b61016191905b80821115610143576000815560010161014d565b90565b61031f806101736000396000f3fe6080604052600436106100615763ffffffff7c010000000000000000000000000000000000000000000000000000000060003504166307e4b7e98114610066578063893d20e8146100f0578063a5ebeaa41461012e578063a7cc53f514610172575b600080fd5b34801561007257600080fd5b5061007b610199565b6040805160208082528351818301528351919283929083019185019080838360005b838110156100b557818101518382015260200161009d565b50505050905090810190601f1680156100e25780820380516001836020036101000a031916815260200191505b509250505060405180910390f35b3480156100fc57600080fd5b5061010561022c565b6040805173ffffffffffffffffffffffffffffffffffffffff9092168252519081900360200190f35b34801561013a57600080fd5b5061015e6004803603604081101561015157600080fd5b5080359060200135610248565b604080519115158252519081900360200190f35b34801561017e57600080fd5b506101876102ed565b60408051918252519081900360200190f35b60028054604080516020601f60001961010060018716150201909416859004938401819004810282018101909252828152606093909290918301828280156102225780601f106101f757610100808354040283529160200191610222565b820191906000526020600020905b81548152906001019060200180831161020557829003601f168201915b5050505050905090565b60005473ffffffffffffffffffffffffffffffffffffffff1690565b60015460009082028310156102e457604080517f08c379a000000000000000000000000000000000000000000000000000000000815260206004820152602d60248201527f4f666665722077617320746f6f206c6f772c20706c656173652070726f76696460448201527f65206d6f72652066756e64732e00000000000000000000000000000000000000606482015290519081900360840190fd5b50600192915050565b6001549056fea165627a7a72305820313db69cedd0815a1a374e356b8b2345587f37ea86c0291a4e5495727292d284002960806040526000600455604051620012df380380620012df833981018060405260a08110156200002e57600080fd5b8151602083015160408401516060850151608086018051949693959294919392830192916401000000008111156200006557600080fd5b820160208101848111156200007957600080fd5b81516401000000008111828201871017156200009457600080fd5b50506003805433600160a060020a0319918216179091556004869055600080548216600160a060020a038b8116919091179091556001805483168a83161780825560028054919093169316929092179055426007556009805460ff1916909117905560058690558051909350620001159250600b9150602084019062000121565b505050505050620001c6565b828054600181600116156101000203166002900490600052602060002090601f016020900481019282601f106200016457805160ff191683800117855562000194565b8280016001018555821562000194579182015b828111156200019457825182559160200191906001019062000177565b50620001a2929150620001a6565b5090565b620001c391905b80821115620001a25760008155600101620001ad565b90565b61110980620001d66000396000f3fe6080604052600436106101035763ffffffff60e060020a60003504166311adbaad81146101b857806315336f80146102425780631865c57d146102f75780631b3e7c4b1461031e5780631dc9b2841461034f5780634d9b37351461037c57806350b1be26146103915780635c5d625e146103a65780635f8d96de146103bb578063620ae1c7146103d05780638271bb35146103f9578063841eb45a1461040e57806384ecdaf61461042357806390f3213d146104385780639b14949a146104715780639ed5b5021461049f578063a3bbb090146104b4578063aa2515d3146104e1578063c828371e1461050e578063e39ff19f14610523578063f00e6a2a14610556575b600454341015610183576040805160e560020a62461bcd02815260206004820152603760248201527f506c656173652070726f76696465206174206c65617374207468652066756e6460448201527f7320796f7520696e697469616c6c79206f666665726564000000000000000000606482015290519081900360840190fd5b6040805134815290517fa8142743f8f70a4c26f3691cf4ed59718381fb2f18070ec52be1f1022d8555579181900360200190a1005b3480156101c457600080fd5b506101cd61056b565b6040805160208082528351818301528351919283929083019185019080838360005b838110156102075781810151838201526020016101ef565b50505050905090810190601f1680156102345780820380516001836020036101000a031916815260200191505b509250505060405180910390f35b34801561024e57600080fd5b506102f56004803603602081101561026557600080fd5b81019060208101813564010000000081111561028057600080fd5b82018360208201111561029257600080fd5b803590602001918460018302840111640100000000831117156102b457600080fd5b91908080601f016020809104026020016040519081016040528093929190818152602001838380828437600092019190915250929550610602945050505050565b005b34801561030357600080fd5b5061030c6106fc565b60408051918252519081900360200190f35b34801561032a57600080fd5b50610333610715565b60408051600160a060020a039092168252519081900360200190f35b34801561035b57600080fd5b506102f56004803603602081101561037257600080fd5b503560ff16610724565b34801561038857600080fd5b5061030c6107ab565b34801561039d57600080fd5b506103336107b0565b3480156103b257600080fd5b506101cd6107bf565b3480156103c757600080fd5b5061030c610820565b3480156103dc57600080fd5b506103e5610826565b604080519115158252519081900360200190f35b34801561040557600080fd5b5061030c610854565b34801561041a57600080fd5b506102f561085a565b34801561042f57600080fd5b506102f5610b1b565b34801561044457600080fd5b5061044d610c8f565b6040518082600281111561045d57fe5b60ff16815260200191505060405180910390f35b34801561047d57600080fd5b50610486610c9d565b6040805192835260208301919091528051918290030190f35b3480156104ab57600080fd5b5061044d610d32565b3480156104c057600080fd5b506102f5600480360360208110156104d757600080fd5b503560ff16610d3b565b3480156104ed57600080fd5b506102f56004803603602081101561050457600080fd5b503560ff16610db8565b34801561051a57600080fd5b5061030c610ed4565b34801561052f57600080fd5b506102f56004803603602081101561054657600080fd5b5035600160a060020a0316610eda565b34801561056257600080fd5b50610333610fdd565b600b8054604080516020601f60026000196101006001881615020190951694909404938401819004810282018101909252828152606093909290918301828280156105f75780601f106105cc576101008083540402835291602001916105f7565b820191906000526020600020905b8154815290600101906020018083116105da57829003601f168201915b505050505090505b90565b600354600160a060020a03163314610666576040805160e560020a62461bcd02815260206004820152603360248201526000805160206110be833981519152604482015260008051602061109e833981519152606482015290519081900360840190fd5b80516000106106e5576040805160e560020a62461bcd02815260206004820152602a60248201527f456d70747920737472696e672063616e6e6f742062652061636365707465642060448201527f617320612070726f6f6600000000000000000000000000000000000000000000606482015290519081900360840190fd5b80516106f890600a906020840190611005565b5050565b60095460009060ff16600881111561071057fe5b905090565b600254600160a060020a031690565b600354600160a060020a03163314610788576040805160e560020a62461bcd02815260206004820152603360248201526000805160206110be833981519152604482015260008051602061109e833981519152606482015290519081900360840190fd5b600c805482919061ff0019166101008360028111156107a357fe5b021790555050565b303190565b600154600160a060020a031690565b600a8054604080516020601f60026000196101006001881615020190951694909404938401819004810282018101909252828152606093909290918301828280156105f75780601f106105cc576101008083540402835291602001916105f7565b60065490565b600080600a805460018160011615610100020316600290049050111561084e575060016105ff565b50600090565b60045490565b600354600160a060020a031633146108be576040805160e560020a62461bcd02815260206004820152603360248201526000805160206110be833981519152604482015260008051602061109e833981519152606482015290519081900360840190fd5b60008060006108cb610826565b1561098c5760008054600154604080517f67ec1e160000000000000000000000000000000000000000000000000000000081526004810194909452600160a060020a039283166024850152911660448301525173__EvaluationFactory_____________________916367ec1e16916064808301926020929190829003018186803b15801561095957600080fd5b505af415801561096d573d6000803e3d6000fd5b505050506040513d602081101561098357600080fd5b50519050610a45565b60005460018054604080517f67ec1e160000000000000000000000000000000000000000000000000000000081526004810193909352600160a060020a03938416602484015292166044820152905173__EvaluationFactory_____________________916367ec1e16916064808301926020929190829003018186803b158015610a1657600080fd5b505af4158015610a2a573d6000803e3d6000fd5b505050506040513d6020811015610a4057600080fd5b505190505b80600160a060020a0316639e39f364610a5c610d32565b610a64610c8f565b6040518363ffffffff1660e060020a02815260040180836002811115610a8657fe5b60ff168152602001826002811115610a9a57fe5b60ff16815260200192505050604080518083038186803b158015610abd57600080fd5b505afa158015610ad1573d6000803e3d6000fd5b505050506040513d6040811015610ae757600080fd5b5080516020909101519093509150600160a060020a03831615610b0d57610b0d83610eda565b610b1682610db8565b505050565b600354600160a060020a03163314610b7f576040805160e560020a62461bcd02815260206004820152603360248201526000805160206110be833981519152604482015260008051602061109e833981519152606482015290519081900360840190fd5b600260095460ff166008811115610b9257fe5b10610ba05760055442016006555b610ba8610fdd565b600160a060020a0316610bb9610715565b600160a060020a03161415610c0257610bd06107b0565b6002805473ffffffffffffffffffffffffffffffffffffffff1916600160a060020a0392909216919091179055610c38565b610c0a610fdd565b6002805473ffffffffffffffffffffffffffffffffffffffff1916600160a060020a03929092169190911790555b600560095460ff166008811115610c4b57fe5b1415610c5e57610c5961085a565b610c8d565b60095460009060ff166008811115610c7257fe5b6001019050610c8b816008811115610c8657fe5b610fec565b505b565b600c54610100900460ff1690565b6000806006610caa6106fc565b1015610d26576040805160e560020a62461bcd02815260206004820152602760248201527f50726f63657373206e6f7420636f6d706c657465642c206e6f20656e6474696d60448201527f6520676976656e00000000000000000000000000000000000000000000000000606482015290519081900360840190fd5b50506007546008549091565b600c5460ff1690565b600354600160a060020a03163314610d9f576040805160e560020a62461bcd02815260206004820152603360248201526000805160206110be833981519152604482015260008051602061109e833981519152606482015290519081900360840190fd5b600c805482919060ff191660018360028111156107a357fe5b600354600160a060020a03163314610e1c576040805160e560020a62461bcd02815260206004820152603360248201526000805160206110be833981519152604482015260008051602061109e833981519152606482015290519081900360840190fd5b6006816008811115610e2a57fe5b1015610e80576040805160e560020a62461bcd02815260206004820181905260248201527f4f6e6c7920616e6420656e64696e672073746174652063616e20626520736574604482015290519081900360640190fd5b6009805482919060ff19166001836008811115610e9957fe5b0217905550506000546002805473ffffffffffffffffffffffffffffffffffffffff1916600160a060020a0390921691909117905542600855565b60075490565b600354600160a060020a03163314610f3e576040805160e560020a62461bcd02815260206004820152603360248201526000805160206110be833981519152604482015260008051602061109e833981519152606482015290519081900360840190fd5b80600160a060020a031663893d20e86040518163ffffffff1660e060020a02815260040160206040518083038186803b158015610f7a57600080fd5b505afa158015610f8e573d6000803e3d6000fd5b505050506040513d6020811015610fa457600080fd5b5051604051600160a060020a0390911690303180156108fc02916000818181858888f193505050501580156106f8573d6000803e3d6000fd5b600054600160a060020a031690565b6009805482919060ff191660018360088111156107a357fe5b828054600181600116156101000203166002900490600052602060002090601f016020900481019282601f1061104657805160ff1916838001178555611073565b82800160010185558215611073579182015b82811115611073578251825591602001919060010190611058565b5061107f929150611083565b5090565b6105ff91905b8082111561107f576000815560010161108956fe746865206f776e696e6720636f6e747261637400000000000000000000000000416374696f6e2063616e206f6e6c7920626520706572666f726d656420627920a165627a7a723058208e44c066e7fa4942e72659a3ffbc4032aaad9c7cd463ecd9fcf9ccaabd1f9cb8002953656e646572206973206e6f7420616c6c6f776564000000000000000000000050726f6365737320646f6573206e6f7420657869737400000000000000000000a165627a7a72305820a55283d2cc8d86b95dda8be77b68f8c27a3275f52dc7272244a9fd72bbea4cc10029",
  "source": "pragma solidity ^0.5.0;\r\n\r\nimport \"./ProcessData.sol\";\r\nimport \"./IActor.sol\";\r\nimport \"./Enums.sol\";\r\n\r\ncontract Protocol {\r\n\r\n    address[] private Actors;\r\n    address payable[] private CurrentProcesses;\r\n\r\n    event ProcessDataCreated(address _from, ProcessData addr);\r\n\tevent ActorCreated(address _from, address addr);\r\n\tevent FundsReceived(uint256 value);\r\n\t\r\n\tfunction() external payable{\r\n\t\temit FundsReceived(msg.value);\r\n\t}\r\n\r\n    function registerActor(address payable _Owner,uint256 PricePerUnit,string memory NetworkName) public returns(address){\r\n        require(!ownerIsActor(_Owner),\"The provided address is already registered as an actor\");\r\n\t\trequire(_Owner==msg.sender,\"The sender is not the owner of the address\");\r\n\t\tIActor _Actor = new IActor(_Owner,PricePerUnit,NetworkName);\r\n        Actors.push(address(_Actor));\r\n\t\temit ActorCreated(msg.sender,address(_Actor));\r\n        return address(_Actor);\r\n    }\r\n\t\r\n\tfunction deleteActor(address payable _Owner) public{\r\n\t\trequire(_Owner == msg.sender,\"The sender is not the owner of the actor\");\r\n\t\trequire(notInActiveProcesses(_Owner),\"The sender is involved in an active process\");\r\n\t\tuint id = getActorIndexFromOwner(_Owner);\r\n\t\trequire(CurrentProcesses.length > 0,\"Empty actor list\");\r\n\t\tActors[id] = Actors[Actors.length-1];\r\n\t\tActors.length = Actors.length-1;\r\n    }\r\n\t\r\n\tfunction notInActiveProcesses(address payable _Owner) private view returns(bool){\r\n\t\trequire(ownerIsActor(_Owner),\"Owner is not an actor\");\r\n\t\tIActor actor = IActor(getActor(_Owner));\r\n\t\tfor (uint i = 0 ; i < CurrentProcesses.length; i++) {\r\n\t\t\tProcessData CurrentProcess = getProcess(CurrentProcesses[i]);\r\n\t\t\tif(CurrentProcess.getState()<uint(Enums.State.COMPLETE)){\r\n\t\t\t\tif(CurrentProcess.getTarget()==actor){\r\n\t\t\t\t\treturn false;\r\n\t\t\t\t}\r\n\t\t\t\tif(CurrentProcess.getMitigator()==actor){\r\n\t\t\t\t\treturn false;\r\n\t\t\t\t}\r\n\t\t\t} \r\n        }\r\n\t\treturn true;\r\n\t}\r\n\t\r\n    function init(address payable _MitigatorOwner,uint _DeadlineInterval,uint256 _OfferedFunds,string memory _ListOfAddresses, uint _NumberOfAddresses) public{\r\n        \r\n        require(bytes(_ListOfAddresses).length >0,\"no addresses provided\");\r\n        require(ownerIsActor(_MitigatorOwner),\"No registered actor\");\r\n\t\trequire(ownerIsActor(msg.sender),\"Sender is not registered as an actor\");\r\n\t\trequire(msg.sender!=_MitigatorOwner,\"Sender and target cannot be the same\");\r\n\t\tIActor _Mitigator = IActor(getActor(_MitigatorOwner));\r\n        require(_Mitigator.isOfferAcceptable(_OfferedFunds,_NumberOfAddresses),\"Funds too low\");\r\n\t\t\r\n        ProcessData newProcessData = new ProcessData(address(getActor(msg.sender)),address(_Mitigator),_DeadlineInterval,_OfferedFunds,_ListOfAddresses);\r\n        CurrentProcesses.push(address(newProcessData));\r\n\t\temit ProcessDataCreated(msg.sender,newProcessData);\r\n    }\r\n\r\n    function approve(address payable process,bool descision) public{\r\n        \r\n        require(isProcess(process),\"Process does not exist\");\r\n        require(canSenderAdvance(process,Enums.State.APPROVE),\"Sender is not allowed\");\r\n        \r\n        ProcessData ProcessToUse = ProcessData(process);\r\n        \r\n        if(descision){\r\n            ProcessToUse.advanceState();\r\n        }else{\r\n            ProcessToUse.endProcess(Enums.State.ABORT);\r\n        }\r\n    }\r\n    \r\n    function sendFunds(address payable process) public payable{\r\n        \r\n        require(isProcess(process),\"Process does not exist\");\r\n        require(canSenderAdvance(process,Enums.State.FUNDING),\"Sender is not allowed\");\r\n        \r\n        ProcessData ProcessToUse = ProcessData(process);\r\n        \r\n        address(ProcessToUse).transfer(msg.value);\r\n\t\t\r\n        ProcessToUse.advanceState();\r\n    }\r\n    \r\n    \r\n    function uploadProof(address payable process,string memory _Proof) public{\r\n        \r\n        require(isProcess(process),\"Process does not exist\");\r\n        require(canSenderAdvance(process,Enums.State.PROOF),\"Sender is not allowed\");\r\n        \r\n        ProcessData ProcessToUse = ProcessData(process);\r\n        ProcessToUse.setProof(_Proof);\r\n\t\t\r\n        ProcessToUse.advanceState();\r\n    }\r\n    \r\n    function ratingByTarget(address payable process,Enums.Rating rating) public payable{\r\n        \r\n        require(isProcess(process),\"Process does not exist\");\r\n        require(canSenderAdvance(process,Enums.State.TRATE),\"Sender is not allowed\");\r\n        \r\n        ProcessData ProcessToUse = ProcessData(process);\r\n        ProcessToUse.setTargetRating(rating);\r\n        \r\n\t\tif(!ProcessToUse.isProofProvided()){\r\n            ProcessToUse.executeEvaluation();\r\n\t\t\treturn;\r\n        }\r\n\t\t\r\n        ProcessToUse.advanceState();\r\n    }\r\n    \r\n    function ratingByMitigator(address payable process,Enums.Rating rating) public payable{\r\n        \r\n        require(isProcess(process),\"Process does not exist\");\r\n\t\t\r\n        require(canSenderAdvance(process,Enums.State.MRATE),\"Sender is not allowed to advance due to: \");\r\n        \r\n        ProcessData ProcessToUse = ProcessData(process);\r\n        ProcessToUse.setMitigatorRating(rating);\r\n        ProcessToUse.executeEvaluation();\r\n    }\r\n\t\r\n\tfunction skipCurrentState(address payable process) public{\r\n\t\t\r\n\t\trequire(isProcess(process),\"Process not found\");\r\n        ProcessData CurrentProcess = getProcess(process);\r\n\t\trequire(CurrentProcess.getState()<uint(Enums.State.COMPLETE),\"Process is already aborted, completed or escalated\");\r\n\t\t\r\n\t\tif(CurrentProcess.getState()<uint(Enums.State.PROOF)){\r\n\t\t\trequire(msg.sender== CurrentProcess.getTarget().getOwner(),\"In this state, the process can only be aborted by the initiator\");\r\n\t\t\tCurrentProcess.endProcess(Enums.State.ABORT);\r\n\t\t\treturn;\r\n\t\t}\r\n\t\t\r\n\t\trequire(now>CurrentProcess.getDeadline(),\"Deadline not yet exceeded, please wait\");\r\n\r\n\t\tif(CurrentProcess.getState() == uint(Enums.State.TRATE)){\r\n\t\t\tCurrentProcess.setTargetRating(Enums.Rating.NA);\r\n\t\t}else if(CurrentProcess.getState() == uint(Enums.State.MRATE)){\r\n\t\t\tCurrentProcess.setMitigatorRating(Enums.Rating.NA);\r\n\t\t}\r\n\t\t\r\n\t\tCurrentProcess.advanceState();\r\n\t}\r\n   \r\n    /*Checks where the sender of the message is the next actor and the state \r\n    of the action to be performed is the one immediately following in the process\r\n    and if deadline is exceeded*/\r\n    function canSenderAdvance(address payable process,Enums.State stateOfOperation) \r\n    private \r\n    returns(bool){\r\n        \r\n\t\trequire(isProcess(process),\"Process not found\");\r\n        ProcessData CurrentProcess = getProcess(process);\r\n\t\t\r\n\t\tif(CurrentProcess.getState()>uint(Enums.State.FUNDING) && CurrentProcess.getState()<uint(Enums.State.COMPLETE)){\r\n\t\t\tif(now>CurrentProcess.getDeadline()){\r\n\t\t\t\tskipCurrentState(process);\r\n\t\t\t}\r\n\t\t}\r\n\t\t\r\n\t\trequire(CurrentProcess.getNextActor().getOwner() == msg.sender,\"NextActor != Sender\");\r\n\t\trequire(uint(stateOfOperation)==CurrentProcess.getState(),\"State of operation does not match\");\r\n\r\n        return true;\r\n    }\r\n\t\r\n\tfunction getProcess(address payable process) \r\n    private view \r\n    returns(ProcessData){\r\n        for (uint i = 0 ; i < CurrentProcesses.length; i++) {\r\n            if(CurrentProcesses[i]==process){\r\n                return ProcessData(process);\r\n            }\r\n        }\r\n\t\treturn ProcessData(0);\r\n    }\r\n\t\r\n    function getProcesses() \r\n    public view \r\n    returns(address payable[] memory){\r\n        return CurrentProcesses;\r\n    }\r\n\t\r\n\tfunction getActors() \r\n    public view \r\n    returns(address[] memory){\r\n        return Actors;\r\n    }\r\n\r\n    function getStateOfProcess(address payable process) \r\n    public view \r\n    returns(address payable,address payable,address payable,uint,string memory,uint,uint,uint){\r\n        ProcessData ProcessToUse = ProcessData(process);\r\n        return (ProcessToUse.getTarget().getOwner(),ProcessToUse.getMitigator().getOwner(),ProcessToUse.getNextActor().getOwner()\r\n        ,ProcessToUse.getFunds(),ProcessToUse.getProof(),uint(ProcessToUse.getState())\r\n        ,uint(ProcessToUse.getTargetRating()),uint(ProcessToUse.getMitigatorRating()));\r\n    }\r\n    \r\n    function isProcess(address payable process) \r\n    private view \r\n    returns(bool){\r\n        for (uint i = 0 ; i < CurrentProcesses.length; i++) {\r\n            if(CurrentProcesses[i]==process){\r\n                return true;\r\n            }\r\n        }\r\n        return false;\r\n    }\r\n    \r\n    function addressIsActor(address actor) \r\n    private view \r\n    returns(bool){\r\n        for (uint i = 0 ; i < Actors.length; i++) {\r\n            if(Actors[i]==actor){\r\n                return true;\r\n            }\r\n        }\r\n        return false;\r\n    }\r\n\t\r\n\tfunction getActorIndexFromOwner(address payable owner) \r\n    private view \r\n    returns(uint){\r\n        for (uint i = 0 ; i < Actors.length; i++) {\r\n            if(IActor(Actors[i]).getOwner()==owner){\r\n                return i;\r\n            }\r\n        }\r\n        return 0;\r\n    }\r\n\t\r\n\tfunction ownerIsActor(address payable owner) \r\n    private view \r\n    returns(bool){\r\n        for (uint i = 0 ; i < Actors.length; i++) {\r\n            if(IActor(Actors[i]).getOwner()==owner){\r\n                return true;\r\n            }\r\n        }\r\n        return false;\r\n    }\r\n\t\r\n\tfunction getActor(address payable owner) \r\n    private view \r\n    returns(address){\r\n        for (uint i = 0 ; i < Actors.length; i++) {\r\n            if(IActor(Actors[i]).getOwner()==owner){\r\n                return Actors[i];\r\n            }\r\n        }\r\n\t\treturn address(0);\r\n    }\r\n}",
  "sourcePath": "C:/Code/Private/CooperativeSignaling/contracts/Protocol.sol",
  "compiler": {
    "name": "solc",
    "version": "0.5.0+commit.1d4f565a.Emscripten.clang"
  },
  "schemaVersion": "3.0.1",
  "updatedAt": "2019-02-11T14:52:12.936Z",
  "devdoc": {
    "methods": {}
  },
  "userdoc": {
    "methods": {}
  }
}