{
  "contractName": "Protocol",
  "abi": [
    {
      "inputs": [],
      "payable": true,
      "stateMutability": "payable",
      "type": "constructor",
      "signature": "constructor"
    },
    {
      "payable": true,
      "stateMutability": "payable",
      "type": "fallback"
    },
    {
      "anonymous": false,
      "inputs": [
        {
          "indexed": false,
          "name": "_from",
          "type": "address"
        },
        {
          "indexed": false,
          "name": "addr",
          "type": "address"
        }
      ],
      "name": "ProcessCreated",
      "type": "event",
      "signature": "0x6e7faf61cfe268d7ba9b653ca2ccad3dc13a03d89863baa45e6de18e50596fc9"
    },
    {
      "anonymous": false,
      "inputs": [
        {
          "indexed": false,
          "name": "value",
          "type": "uint256"
        }
      ],
      "name": "FundsReceived",
      "type": "event",
      "signature": "0xbcdc7071c1beb6dcf2744621e0b29a2f2432ee20812d9ca5e3d5e8f9308d93a3"
    },
    {
      "constant": false,
      "inputs": [],
      "name": "setNewDeadline",
      "outputs": [],
      "payable": false,
      "stateMutability": "nonpayable",
      "type": "function",
      "signature": "0x20dc80a9"
    },
    {
      "constant": false,
      "inputs": [],
      "name": "getListOfAddresses",
      "outputs": [
        {
          "name": "",
          "type": "string"
        }
      ],
      "payable": false,
      "stateMutability": "nonpayable",
      "type": "function",
      "signature": "0x11adbaad"
    },
    {
      "constant": false,
      "inputs": [],
      "name": "getCurrentState",
      "outputs": [
        {
          "name": "",
          "type": "uint8"
        }
      ],
      "payable": false,
      "stateMutability": "nonpayable",
      "type": "function",
      "signature": "0x378aa701"
    },
    {
      "constant": false,
      "inputs": [],
      "name": "getTargetRating",
      "outputs": [
        {
          "name": "",
          "type": "uint8"
        }
      ],
      "payable": false,
      "stateMutability": "nonpayable",
      "type": "function",
      "signature": "0x9ed5b502"
    },
    {
      "constant": false,
      "inputs": [],
      "name": "getMitigatorRating",
      "outputs": [
        {
          "name": "",
          "type": "uint8"
        }
      ],
      "payable": false,
      "stateMutability": "nonpayable",
      "type": "function",
      "signature": "0x90f3213d"
    },
    {
      "constant": false,
      "inputs": [],
      "name": "getStartTime",
      "outputs": [
        {
          "name": "",
          "type": "uint256"
        }
      ],
      "payable": false,
      "stateMutability": "nonpayable",
      "type": "function",
      "signature": "0xc828371e"
    },
    {
      "constant": false,
      "inputs": [],
      "name": "getEndTime",
      "outputs": [
        {
          "name": "",
          "type": "uint256"
        }
      ],
      "payable": false,
      "stateMutability": "nonpayable",
      "type": "function",
      "signature": "0x439f5ac2"
    },
    {
      "constant": false,
      "inputs": [
        {
          "name": "_Mitigator",
          "type": "address"
        },
        {
          "name": "_DeadlineInterval",
          "type": "uint256"
        },
        {
          "name": "_OfferedFunds",
          "type": "uint256"
        },
        {
          "name": "_ListOfAddresses",
          "type": "string"
        }
      ],
      "name": "init",
      "outputs": [],
      "payable": false,
      "stateMutability": "nonpayable",
      "type": "function",
      "signature": "0x0386ebb0"
    },
    {
      "constant": false,
      "inputs": [
        {
          "name": "descision",
          "type": "bool"
        }
      ],
      "name": "approve",
      "outputs": [],
      "payable": false,
      "stateMutability": "nonpayable",
      "type": "function",
      "signature": "0x09b67f8e"
    },
    {
      "constant": false,
      "inputs": [],
      "name": "sendFunds",
      "outputs": [],
      "payable": true,
      "stateMutability": "payable",
      "type": "function",
      "signature": "0x8d68cf59"
    },
    {
      "constant": false,
      "inputs": [
        {
          "name": "_Proof",
          "type": "string"
        }
      ],
      "name": "uploadProof",
      "outputs": [],
      "payable": false,
      "stateMutability": "nonpayable",
      "type": "function",
      "signature": "0x2f3b7958"
    },
    {
      "constant": false,
      "inputs": [
        {
          "name": "_Rating",
          "type": "uint256"
        }
      ],
      "name": "ratingByTarget",
      "outputs": [],
      "payable": false,
      "stateMutability": "nonpayable",
      "type": "function",
      "signature": "0x85ad35bc"
    },
    {
      "constant": false,
      "inputs": [
        {
          "name": "_Rating",
          "type": "uint256"
        }
      ],
      "name": "ratingByMitigator",
      "outputs": [],
      "payable": false,
      "stateMutability": "nonpayable",
      "type": "function",
      "signature": "0x3a9d5a02"
    }
  ],
  "bytecode": "0x608060405242600655610e95806100176000396000f3fe6080604052600436106100c45763ffffffff7c01000000000000000000000000000000000000000000000000000000006000350416630386ebb081146100f957806309b67f8e146101ca57806311adbaad146101f657806320dc80a9146102805780632f3b795814610295578063378aa701146103485780633a9d5a0214610381578063439f5ac2146103ab57806385ad35bc146103d25780638d68cf59146103fc57806390f3213d146104045780639ed5b50214610429578063c828371e1461043e575b6040805134815290517fbcdc7071c1beb6dcf2744621e0b29a2f2432ee20812d9ca5e3d5e8f9308d93a39181900360200190a1005b34801561010557600080fd5b506101c86004803603608081101561011c57600080fd5b600160a060020a03823516916020810135916040820135919081019060808101606082013564010000000081111561015357600080fd5b82018360208201111561016557600080fd5b8035906020019184600183028401116401000000008311171561018757600080fd5b91908080601f016020809104026020016040519081016040528093929190818152602001838380828437600092019190915250929550610453945050505050565b005b3480156101d657600080fd5b506101c8600480360360208110156101ed57600080fd5b5035151561054d565b34801561020257600080fd5b5061020b610657565b6040805160208082528351818301528351919283929083019185019080838360005b8381101561024557818101518382015260200161022d565b50505050905090810190601f1680156102725780820380516001836020036101000a031916815260200191505b509250505060405180910390f35b34801561028c57600080fd5b506101c86106eb565b3480156102a157600080fd5b506101c8600480360360208110156102b857600080fd5b8101906020810181356401000000008111156102d357600080fd5b8201836020820111156102e557600080fd5b8035906020019184600183028401116401000000008311171561030757600080fd5b91908080601f0160208091040260200160405190810160405280939291908181526020018383808284376000920191909152509295506106f5945050505050565b34801561035457600080fd5b5061035d610815565b6040518082600881111561036d57fe5b60ff16815260200191505060405180910390f35b34801561038d57600080fd5b506101c8600480360360208110156103a457600080fd5b5035610825565b3480156103b757600080fd5b506103c0610929565b60408051918252519081900360200190f35b3480156103de57600080fd5b506101c8600480360360208110156103f557600080fd5b503561092f565b6101c8610ab6565b34801561041057600080fd5b50610419610bee565b6040518082600281111561036d57fe5b34801561043557600080fd5b50610419610bfc565b34801561044a57600080fd5b506103c0610c05565b600054600160a060020a031633146104a3576040805160e560020a62461bcd02815260206004820152601c6024820152600080516020610e4a833981519152604482015290519081900360640190fd5b60018054600160a060020a03861673ffffffffffffffffffffffffffffffffffffffff199182161790915560008054909116331790556008839055600482905580516104f6906002906020840190610d91565b506001805460a060020a60ff02191660a060020a1790556040805133815230602082015281517f6e7faf61cfe268d7ba9b653ca2ccad3dc13a03d89863baa45e6de18e50596fc9929181900390910190a150505050565b600154600160a060020a0316331461059d576040805160e560020a62461bcd02815260206004820152601c6024820152600080516020610e4a833981519152604482015290519081900360640190fd5b600060015460a060020a900460ff1660088111156105b757fe5b146105fa576040805160e560020a62461bcd0281526020600482015260186024820152600080516020610e2a833981519152604482015290519081900360640190fd5b801561062c576001805460a060020a60ff02191674020000000000000000000000000000000000000000179055610654565b6001805460a060020a60ff021916740700000000000000000000000000000000000000001790555b50565b60028054604080516020601f60001961010060018716150201909416859004938401819004810282018101909252828152606093909290918301828280156106e05780601f106106b5576101008083540402835291602001916106e0565b820191906000526020600020905b8154815290600101906020018083116106c357829003601f168201915b505050505090505b90565b6008544201600955565b600060015460a060020a900460ff16600881111561070f57fe5b14610752576040805160e560020a62461bcd0281526020600482015260186024820152600080516020610e2a833981519152604482015290519081900360640190fd5b60095442111561078b576001805460a060020a60ff0219167404000000000000000000000000000000000000000017905561078b6106eb565b600154600160a060020a031633146107db576040805160e560020a62461bcd02815260206004820152601c6024820152600080516020610e4a833981519152604482015290519081900360640190fd5b80516107ee906003906020840190610d91565b50600180546004919060a060020a60ff02191660a060020a835b02179055506106546106eb565b60015460a060020a900460ff1690565b600560015460a060020a900460ff16600881111561083f57fe5b14610882576040805160e560020a62461bcd0281526020600482015260186024820152600080516020610e2a833981519152604482015290519081900360640190fd5b6009544211156108a8576005805461ff0019166101001790556108a3610c0b565b610654565b600154600160a060020a031633146108f8576040805160e560020a62461bcd02815260206004820152601c6024820152600080516020610e4a833981519152604482015290519081900360640190fd5b80600281111561090457fe5b6005805461ff00191661010083600281111561091c57fe5b0217905550610654610c0b565b60075490565b600360015460a060020a900460ff16600881111561094957fe5b1461098c576040805160e560020a62461bcd0281526020600482015260186024820152600080516020610e2a833981519152604482015290519081900360640190fd5b6009544211156109fb5760058054600160ff199091168117909155805460a060020a60ff021916740500000000000000000000000000000000000000001790556109d46106eb565b6000600380546001816001161561010002031660029004905011156109fb576108a3610c0b565b600054600160a060020a03163314610a4b576040805160e560020a62461bcd02815260206004820152601c6024820152600080516020610e4a833981519152604482015290519081900360640190fd5b806002811115610a5757fe5b6005805460ff19166001836002811115610a6d57fe5b0217905550600060038054600181600116156101000203166002900490501115610a99576108a3610c0b565b600180546005919060a060020a60ff02191660a060020a83610808565b600054600160a060020a03163314610b06576040805160e560020a62461bcd02815260206004820152601c6024820152600080516020610e4a833981519152604482015290519081900360640190fd5b600060015460a060020a900460ff166008811115610b2057fe5b14610b63576040805160e560020a62461bcd0281526020600482015260186024820152600080516020610e2a833981519152604482015290519081900360640190fd5b600454341015610bbd576040805160e560020a62461bcd02815260206004820152601f60248201527f73656e64206174206c6561737420746865206f6666657265642066756e647300604482015290519081900360640190fd5b6001805460a060020a60ff02191674030000000000000000000000000000000000000000179055610bec6106eb565b565b600554610100900460ff1690565b60055460ff1690565b60065490565b600080610c16610c6a565b9092509050600160a060020a03821615610c6257604051600160a060020a03831690303180156108fc02916000818181858888f19350505050158015610c60573d6000803e3d6000fd5b505b505042600755565b600080600060038054600181600116156101000203166002900490501115610cdf57600260055460ff166002811115610c9f57fe5b1415610cb657610cad610d19565b91509150610d15565b600060055460ff166002811115610cc957fe5b1415610cd757610cad610d4f565b610cad610d19565b600060055460ff166002811115610cf257fe5b1415610d0d575050600054600160a060020a03166006610d15565b506000905060075b9091565b6000806002600554610100900460ff166002811115610d3457fe5b1415610d0d575050600154600160a060020a03166006610d15565b6000806002600554610100900460ff166002811115610d6a57fe5b1415610d7c5750600090506008610d15565b5050600054600160a060020a03166006610d15565b828054600181600116156101000203166002900490600052602060002090601f016020900481019282601f10610dd257805160ff1916838001178555610dff565b82800160010185558215610dff579182015b82811115610dff578251825591602001919060010190610de4565b50610e0b929150610e0f565b5090565b6106e891905b80821115610e0b5760008155600101610e1556fe5374617465206973206e6f7420617070726f707269617465000000000000000073656e646572206973206e6f74207265717569726564206163746f7200000000a165627a7a72305820133538d54c28d08a7281ed739a7f6c22eb2bca4d70db96b29e1dbf77c1d0fc470029",
  "source": "pragma solidity ^0.5.0;\r\n\r\nimport \"./Enums.sol\";\r\n\r\ncontract Protocol {\r\n\r\n    address payable private Target;\r\n\taddress payable private Mitigator;\r\n\tEnums.State CurrentState;\r\n\tstring private ListOfAddresses;\r\n\tstring private Proof;\r\n\tuint256 private OfferedFunds;\r\n\tEnums.Rating private TargetRating;\r\n\tEnums.Rating private MitigatorRating;\r\n\tuint256 private StartTime = now;\r\n\tuint256 private EndTime;\r\n\tuint256 private DeadlineInterval;\r\n\tuint256 private Deadline;\r\n    event ProcessCreated(address _from, address addr);\r\n\tevent FundsReceived(uint256 value);\r\n\t\r\n\tconstructor() public payable{}\r\n\t\r\n\tfunction() external payable{\r\n\t\temit FundsReceived(msg.value);\r\n\t}\r\n\t\r\n\tfunction setNewDeadline() public{\r\n\t\tDeadline = now + DeadlineInterval * 1 seconds;\r\n\t}\r\n\tfunction getListOfAddresses() public returns(string memory){\r\n\t\treturn ListOfAddresses;\r\n\t}\r\n\tfunction getCurrentState() public returns (Enums.State){\r\n\t\treturn CurrentState;\r\n\t}\r\n\tfunction getTargetRating() public returns (Enums.Rating){\r\n\t\treturn TargetRating;\r\n\t}\r\n\tfunction getMitigatorRating() public returns (Enums.Rating){\r\n\t\treturn MitigatorRating;\r\n\t}\r\n\tfunction getStartTime() public returns (uint256){\r\n\t\treturn StartTime;\r\n\t}\r\n\tfunction getEndTime() public returns (uint256){\r\n\t\treturn EndTime;\r\n\t}\r\n\t\r\n    function init(address payable _Mitigator,uint _DeadlineInterval,uint256 _OfferedFunds,string memory _ListOfAddresses) \r\n    public {\r\n        \r\n        require(msg.sender==Target,\"sender is not required actor\");\r\n\t\tMitigator = _Mitigator;\r\n\t\tTarget = msg.sender;\r\n\t\tDeadlineInterval=_DeadlineInterval;\r\n\t\tOfferedFunds=_OfferedFunds;\r\n\t\tListOfAddresses=_ListOfAddresses;\r\n\t\tCurrentState = Enums.State.APPROVE;\r\n\t\temit ProcessCreated(msg.sender,address(this));\r\n    }\r\n\r\n    function approve(bool descision) \r\n    public{\r\n        \r\n\t\trequire(msg.sender==Mitigator,\"sender is not required actor\");\r\n        require(CurrentState==Enums.State.REQUEST,\"State is not appropriate\");\r\n\r\n        if(descision){\r\n            CurrentState = Enums.State.FUNDING;\r\n        }else{\r\n            CurrentState = Enums.State.ABORT;\r\n        }\r\n    }\r\n    \r\n    function sendFunds() \r\n\tpayable\r\n    public{\r\n        \r\n        require(msg.sender==Target,\"sender is not required actor\");\r\n\t\trequire(CurrentState==Enums.State.REQUEST,\"State is not appropriate\");\r\n        require(msg.value >= OfferedFunds,\"send at least the offered funds\");\r\n\t\t\r\n\t\tCurrentState = Enums.State.PROOF;\r\n\t\tsetNewDeadline();\r\n    }\r\n    \r\n    \r\n    function uploadProof(string memory _Proof) \r\n    public{\r\n        require(CurrentState==Enums.State.REQUEST,\"State is not appropriate\");\r\n\t\t\r\n\t\tif(now>Deadline){\r\n\t\t\tCurrentState = Enums.State.RATE_T;\r\n\t\t\tsetNewDeadline();\r\n\t\t}\r\n\t\t\r\n        require(msg.sender==Mitigator,\"sender is not required actor\");\r\n\r\n        Proof = _Proof;\r\n\t\tCurrentState = Enums.State.RATE_T;\r\n\t\tsetNewDeadline();\r\n    }\r\n    \r\n    function ratingByTarget(uint _Rating) \r\n    public{\r\n        \r\n        require(CurrentState==Enums.State.PROOF,\"State is not appropriate\");\r\n\t\t\r\n\t\tif(now>Deadline){\r\n\t\t\tTargetRating = Enums.Rating.NA;\r\n\t\t\tCurrentState = Enums.State.RATE_M;\r\n\t\t\tsetNewDeadline();\r\n\t\t\t\r\n\t\t\tif(bytes(Proof).length>0){\r\n\t\t\t\treturn endProcess();\r\n\t\t\t}\r\n\t\t}\r\n\t\trequire(msg.sender==Target,\"sender is not required actor\");\r\n        TargetRating = Enums.Rating(_Rating);\r\n        \r\n\t\tif(bytes(Proof).length>0){\r\n\t\t\treturn endProcess();\r\n        }\r\n\t\tCurrentState = Enums.State.RATE_M;\r\n\t\tsetNewDeadline();\r\n    }\r\n    \r\n    function ratingByMitigator(uint _Rating) \r\n    public{\r\n        require(CurrentState==Enums.State.RATE_M,\"State is not appropriate\");\r\n\t\t\r\n\t\tif(now>Deadline){\r\n\t\t\tMitigatorRating = Enums.Rating.NA;\r\n\t\t\treturn endProcess();\r\n\t\t}\r\n\t\t\r\n\t\trequire(msg.sender==Mitigator,\"sender is not required actor\");\r\n        MitigatorRating = Enums.Rating(_Rating);\r\n        \r\n\t\treturn endProcess();\r\n    }\r\n\t\r\n\tfunction endProcess() private{\r\n\t\taddress payable owner;\r\n\t\tEnums.State stateToSet;\r\n\t\t\r\n        (owner,stateToSet) = evaluate();\r\n\t\t\r\n\t\tif(owner!=address(0)){\r\n\t\t\towner.transfer(address(this).balance);\r\n\t\t}\r\n\t\tEndTime = now;\r\n\t}\r\n\t\r\n\t function evaluate() private view returns (address payable,Enums.State){    \r\n        if(bytes(Proof).length>0){\r\n\t\t\tif(TargetRating==Enums.Rating.POS){\r\n\t\t\t\treturn satisfied();\r\n\t\t\t}else if(TargetRating==Enums.Rating.NEG){\r\n\t\t\t\treturn dissatisfied();\r\n\t\t\t}else{\r\n\t\t\t\treturn selfish();\r\n\t\t\t}\r\n        }else{\r\n            if(TargetRating==Enums.Rating.NEG){\r\n\t\t\t\treturn(Target,Enums.State.COMPLETE);\r\n            }else{\r\n                return(address(0),Enums.State.ABORT);\r\n            }\r\n        }\r\n    }\r\n    \r\n    function satisfied() private view returns (address payable,Enums.State){    \r\n        if(MitigatorRating==Enums.Rating.POS){\r\n\t\t\treturn(Mitigator,Enums.State.COMPLETE);\r\n        }else{\r\n            return(address(0),Enums.State.ABORT);\r\n        }\r\n    }\r\n    \r\n    function selfish() private view returns (address payable,Enums.State){    \r\n        if(MitigatorRating==Enums.Rating.POS){\r\n            return(Mitigator,Enums.State.COMPLETE);\r\n        }else{\r\n            return(address(0),Enums.State.ABORT);\r\n        }\r\n    }\r\n    \r\n    function dissatisfied() private view returns (address payable,Enums.State){    \r\n        if(MitigatorRating==Enums.Rating.POS){\r\n            return(address(0),Enums.State.ESCALATE);\r\n        }else{\r\n            return(Target,Enums.State.COMPLETE);\r\n        }\r\n    }\r\n\r\n}",
  "sourcePath": "C:/Code/Private/CooperativeSignaling/contracts/Protocol.sol",
  "compiler": {
    "name": "solc",
    "version": "0.5.0+commit.1d4f565a.Emscripten.clang"
  },
  "schemaVersion": "3.0.1",
  "updatedAt": "2019-02-12T15:30:26.230Z",
  "devdoc": {
    "methods": {}
  },
  "userdoc": {
    "methods": {}
  }
}