{
  "contractName": "Protocol",
  "abi": [
    {
      "payable": true,
      "stateMutability": "payable",
      "type": "fallback"
    },
    {
      "anonymous": false,
      "inputs": [
        {
          "indexed": false,
          "name": "_from",
          "type": "address"
        },
        {
          "indexed": false,
          "name": "addr",
          "type": "address"
        }
      ],
      "name": "ProcessDataCreated",
      "type": "event",
      "signature": "0x0882f6c178d03f7e5056c19884ff9dbd841f072c80be76045db6007f9ca30fb5"
    },
    {
      "anonymous": false,
      "inputs": [
        {
          "indexed": false,
          "name": "_from",
          "type": "address"
        },
        {
          "indexed": false,
          "name": "addr",
          "type": "address"
        }
      ],
      "name": "ActorCreated",
      "type": "event",
      "signature": "0xc5670063c168f180a7b2c6f5900d3e21ebf6b0b7cfb9912d5cbb57fc1b15bf0d"
    },
    {
      "anonymous": false,
      "inputs": [
        {
          "indexed": false,
          "name": "value",
          "type": "uint256"
        }
      ],
      "name": "FundsReceived",
      "type": "event",
      "signature": "0xbcdc7071c1beb6dcf2744621e0b29a2f2432ee20812d9ca5e3d5e8f9308d93a3"
    },
    {
      "constant": false,
      "inputs": [
        {
          "name": "_Owner",
          "type": "address"
        },
        {
          "name": "PricePerUnit",
          "type": "uint256"
        },
        {
          "name": "NetworkName",
          "type": "string"
        }
      ],
      "name": "registerActor",
      "outputs": [
        {
          "name": "",
          "type": "address"
        }
      ],
      "payable": false,
      "stateMutability": "nonpayable",
      "type": "function",
      "signature": "0x103647fc"
    },
    {
      "constant": false,
      "inputs": [
        {
          "name": "_Owner",
          "type": "address"
        }
      ],
      "name": "deleteActor",
      "outputs": [],
      "payable": false,
      "stateMutability": "nonpayable",
      "type": "function",
      "signature": "0x00ed7026"
    },
    {
      "constant": false,
      "inputs": [
        {
          "name": "_MitigatorOwner",
          "type": "address"
        },
        {
          "name": "_DeadlineInterval",
          "type": "uint256"
        },
        {
          "name": "_OfferedFunds",
          "type": "uint256"
        },
        {
          "name": "_ListOfAddresses",
          "type": "string"
        },
        {
          "name": "_NumberOfAddresses",
          "type": "uint256"
        }
      ],
      "name": "init",
      "outputs": [
        {
          "name": "",
          "type": "address"
        }
      ],
      "payable": false,
      "stateMutability": "nonpayable",
      "type": "function",
      "signature": "0x3d99bdc7"
    },
    {
      "constant": false,
      "inputs": [
        {
          "name": "process",
          "type": "address"
        },
        {
          "name": "descision",
          "type": "bool"
        }
      ],
      "name": "approve",
      "outputs": [
        {
          "name": "",
          "type": "address"
        }
      ],
      "payable": false,
      "stateMutability": "nonpayable",
      "type": "function",
      "signature": "0x3d140d21"
    },
    {
      "constant": false,
      "inputs": [
        {
          "name": "process",
          "type": "address"
        }
      ],
      "name": "sendFunds",
      "outputs": [
        {
          "name": "",
          "type": "address"
        }
      ],
      "payable": true,
      "stateMutability": "payable",
      "type": "function",
      "signature": "0xcfe52bdd"
    },
    {
      "constant": false,
      "inputs": [
        {
          "name": "process",
          "type": "address"
        },
        {
          "name": "_Proof",
          "type": "string"
        }
      ],
      "name": "uploadProof",
      "outputs": [
        {
          "name": "",
          "type": "address"
        }
      ],
      "payable": false,
      "stateMutability": "nonpayable",
      "type": "function",
      "signature": "0xc369ac92"
    },
    {
      "constant": false,
      "inputs": [
        {
          "name": "process",
          "type": "address"
        },
        {
          "name": "rating",
          "type": "uint8"
        }
      ],
      "name": "ratingByTarget",
      "outputs": [
        {
          "name": "",
          "type": "address"
        }
      ],
      "payable": true,
      "stateMutability": "payable",
      "type": "function",
      "signature": "0x9cd14d73"
    },
    {
      "constant": false,
      "inputs": [
        {
          "name": "process",
          "type": "address"
        },
        {
          "name": "rating",
          "type": "uint8"
        }
      ],
      "name": "ratingByMitigator",
      "outputs": [
        {
          "name": "",
          "type": "address"
        }
      ],
      "payable": true,
      "stateMutability": "payable",
      "type": "function",
      "signature": "0xcd0a1d60"
    },
    {
      "constant": false,
      "inputs": [
        {
          "name": "process",
          "type": "address"
        }
      ],
      "name": "skipCurrentState",
      "outputs": [
        {
          "name": "",
          "type": "address"
        }
      ],
      "payable": false,
      "stateMutability": "nonpayable",
      "type": "function",
      "signature": "0x2402bea8"
    },
    {
      "constant": true,
      "inputs": [],
      "name": "getProcesses",
      "outputs": [
        {
          "name": "",
          "type": "address[]"
        }
      ],
      "payable": false,
      "stateMutability": "view",
      "type": "function",
      "signature": "0x6e52b239"
    },
    {
      "constant": true,
      "inputs": [
        {
          "name": "process",
          "type": "address"
        }
      ],
      "name": "getStateOfProcess",
      "outputs": [
        {
          "name": "",
          "type": "address"
        },
        {
          "name": "",
          "type": "address"
        },
        {
          "name": "",
          "type": "address"
        },
        {
          "name": "",
          "type": "uint256"
        },
        {
          "name": "",
          "type": "string"
        },
        {
          "name": "",
          "type": "uint256"
        },
        {
          "name": "",
          "type": "uint256"
        },
        {
          "name": "",
          "type": "uint256"
        }
      ],
      "payable": false,
      "stateMutability": "view",
      "type": "function",
      "signature": "0x4152d427"
    }
  ],
  "bytecode": "0x608060405234801561001057600080fd5b5061499d806100206000396000f3fe608060405260043610620000a05763ffffffff60e060020a600035041662ed70268114620000db578063103647fc14620001025780632402bea8146200013f5780633d140d2114620001735780633d99bdc714620001985780634152d42714620001bd5780636e52b23914620001f85780639cd14d73146200021f578063c369ac921462000236578063cd0a1d60146200025b578063cfe52bdd1462000272575b7fbcdc7071c1beb6dcf2744621e0b29a2f2432ee20812d9ca5e3d5e8f9308d93a334604051620000d1919062002f3d565b60405180910390a1005b348015620000e857600080fd5b5062000100620000fa3660046200235e565b62000289565b005b3480156200010f57600080fd5b5062000127620001213660046200246a565b6200038e565b60405162000136919062002c1d565b60405180910390f35b3480156200014c57600080fd5b50620001646200015e3660046200235e565b62000497565b60405162000136919062002da4565b3480156200018057600080fd5b506200016462000192366004620023a8565b62000a95565b348015620001a557600080fd5b5062000164620001b7366004620024d7565b62000be3565b348015620001ca57600080fd5b50620001e2620001dc3660046200235e565b62000e15565b6040516200013698979695949392919062002c4c565b3480156200020557600080fd5b506200021062001383565b60405162000136919062002d91565b6200016462000230366004620023e7565b620013e7565b3480156200024357600080fd5b5062000164620002553660046200241c565b620015e6565b620001646200026c366004620023e7565b62001704565b62000164620002833660046200235e565b62001822565b6200029481620018fc565b15620002c05760405160e560020a62461bcd028152600401620002b79062002f19565b60405180910390fd5b600160a060020a0381163314620002ee5760405160e560020a62461bcd028152600401620002b79062002ead565b620002f981620019f0565b15156200031d5760405160e560020a62461bcd028152600401620002b79062002f07565b60006200032a8262001c44565b600154909150600010620003555760405160e560020a62461bcd028152600401620002b79062002ebf565b60008054829081106200036457fe5b6000918252602090912001805473ffffffffffffffffffffffffffffffffffffffff191690555050565b60006200039b84620018fc565b15620003be5760405160e560020a62461bcd028152600401620002b79062002f19565b6000848484620003cd62002215565b620003db9392919062002cf9565b604051809103906000f080158015620003f8573d6000803e3d6000fd5b50600080546001810182559080527f290decd9548b62a8d60345a988386fc84ba6bc95484008f6362f93160ef3e56301805473ffffffffffffffffffffffffffffffffffffffff1916600160a060020a0383161790556040519091507fc5670063c168f180a7b2c6f5900d3e21ebf6b0b7cfb9912d5cbb57fc1b15bf0d9062000485903390849062002c2d565b60405180910390a190505b9392505050565b6000620004a48262001d2c565b1515620004c85760405160e560020a62461bcd028152600401620002b79062002df9565b6000620004d58362001d85565b9050600681600160a060020a0316631865c57d6040518163ffffffff1660e060020a02815260040160206040518083038186803b1580156200051657600080fd5b505afa1580156200052b573d6000803e3d6000fd5b505050506040513d601f19601f820116820180604052506200055191908101906200260c565b10620005745760405160e560020a62461bcd028152600401620002b79062002e1d565b600381600160a060020a0316631865c57d6040518163ffffffff1660e060020a02815260040160206040518083038186803b158015620005b357600080fd5b505afa158015620005c8573d6000803e3d6000fd5b505050506040513d601f19601f82011682018060405250620005ee91908101906200260c565b1015620007975780600160a060020a031663f00e6a2a6040518163ffffffff1660e060020a02815260040160206040518083038186803b1580156200063257600080fd5b505afa15801562000647573d6000803e3d6000fd5b505050506040513d601f19601f820116820180604052506200066d919081019062002591565b600160a060020a031663893d20e86040518163ffffffff1660e060020a02815260040160206040518083038186803b158015620006a957600080fd5b505afa158015620006be573d6000803e3d6000fd5b505050506040513d601f19601f82011682018060405250620006e4919081019062002387565b600160a060020a03163314620007115760405160e560020a62461bcd028152600401620002b79062002e89565b6040517faa2515d3000000000000000000000000000000000000000000000000000000008152600160a060020a0382169063aa2515d390620007599060079060040162002dc4565b600060405180830381600087803b1580156200077457600080fd5b505af115801562000789573d6000803e3d6000fd5b505050508091505062000a90565b80600160a060020a0316635f8d96de6040518163ffffffff1660e060020a02815260040160206040518083038186803b158015620007d457600080fd5b505afa158015620007e9573d6000803e3d6000fd5b505050506040513d601f19601f820116820180604052506200080f91908101906200260c565b4211620008335760405160e560020a62461bcd028152600401620002b79062002e9b565b600481600160a060020a0316631865c57d6040518163ffffffff1660e060020a02815260040160206040518083038186803b1580156200087257600080fd5b505afa15801562000887573d6000803e3d6000fd5b505050506040513d601f19601f82011682018060405250620008ad91908101906200260c565b141562000936576040517fa3bbb090000000000000000000000000000000000000000000000000000000008152600160a060020a0382169063a3bbb09090620008fc9060019060040162002db4565b600060405180830381600087803b1580156200091757600080fd5b505af11580156200092c573d6000803e3d6000fd5b5050505062000a34565b600581600160a060020a0316631865c57d6040518163ffffffff1660e060020a02815260040160206040518083038186803b1580156200097557600080fd5b505afa1580156200098a573d6000803e3d6000fd5b505050506040513d601f19601f82011682018060405250620009b091908101906200260c565b141562000a34576040517f1dc9b284000000000000000000000000000000000000000000000000000000008152600160a060020a03821690631dc9b28490620009ff9060019060040162002db4565b600060405180830381600087803b15801562000a1a57600080fd5b505af115801562000a2f573d6000803e3d6000fd5b505050505b80600160a060020a03166384ecdaf66040518163ffffffff1660e060020a028152600401600060405180830381600087803b15801562000a7357600080fd5b505af115801562000a88573d6000803e3d6000fd5b509293505050505b919050565b600062000aa28362001d2c565b151562000ac65760405160e560020a62461bcd028152600401620002b79062002e2f565b62000ad383600162001ddd565b151562000af75760405160e560020a62461bcd028152600401620002b79062002f2b565b82821562000b5d5780600160a060020a03166384ecdaf66040518163ffffffff1660e060020a028152600401600060405180830381600087803b15801562000b3e57600080fd5b505af115801562000b53573d6000803e3d6000fd5b5050505062000bda565b6040517faa2515d3000000000000000000000000000000000000000000000000000000008152600160a060020a0382169063aa2515d39062000ba59060079060040162002dc4565b600060405180830381600087803b15801562000bc057600080fd5b505af115801562000bd5573d6000803e3d6000fd5b505050505b90505b92915050565b600080835111151562000c0d5760405160e560020a62461bcd028152600401620002b79062002e77565b62000c1886620018fc565b151562000c3c5760405160e560020a62461bcd028152600401620002b79062002ee3565b62000c4733620018fc565b151562000c6b5760405160e560020a62461bcd028152600401620002b79062002de7565b6040517fa5ebeaa4000000000000000000000000000000000000000000000000000000008152600160a060020a0387169063a5ebeaa49062000cb4908790869060040162002f4d565b60206040518083038186803b15801562000ccd57600080fd5b505afa15801562000ce2573d6000803e3d6000fd5b505050506040513d601f19601f8201168201806040525062000d08919081019062002570565b151562000d2c5760405160e560020a62461bcd028152600401620002b79062002e41565b600062000d393362002107565b8787878762000d4762002226565b62000d5795949392919062002d35565b604051809103906000f08015801562000d74573d6000803e3d6000fd5b506001805480820182556000919091527fb10e2d527612073b26eecdfd717e6a320cf44b4afac2b0732d9fcbe2b7fa0cf601805473ffffffffffffffffffffffffffffffffffffffff1916600160a060020a0383161790556040519091507f0882f6c178d03f7e5056c19884ff9dbd841f072c80be76045db6007f9ca30fb59062000e03903390849062002cda565b60405180910390a19695505050505050565b600080600080606060008060008089905080600160a060020a031663f00e6a2a6040518163ffffffff1660e060020a02815260040160206040518083038186803b15801562000e6357600080fd5b505afa15801562000e78573d6000803e3d6000fd5b505050506040513d601f19601f8201168201806040525062000e9e919081019062002591565b600160a060020a031663893d20e86040518163ffffffff1660e060020a02815260040160206040518083038186803b15801562000eda57600080fd5b505afa15801562000eef573d6000803e3d6000fd5b505050506040513d601f19601f8201168201806040525062000f15919081019062002387565b81600160a060020a03166350b1be266040518163ffffffff1660e060020a02815260040160206040518083038186803b15801562000f5257600080fd5b505afa15801562000f67573d6000803e3d6000fd5b505050506040513d601f19601f8201168201806040525062000f8d919081019062002591565b600160a060020a031663893d20e86040518163ffffffff1660e060020a02815260040160206040518083038186803b15801562000fc957600080fd5b505afa15801562000fde573d6000803e3d6000fd5b505050506040513d601f19601f8201168201806040525062001004919081019062002387565b82600160a060020a0316631b3e7c4b6040518163ffffffff1660e060020a02815260040160206040518083038186803b1580156200104157600080fd5b505afa15801562001056573d6000803e3d6000fd5b505050506040513d601f19601f820116820180604052506200107c919081019062002591565b600160a060020a031663893d20e86040518163ffffffff1660e060020a02815260040160206040518083038186803b158015620010b857600080fd5b505afa158015620010cd573d6000803e3d6000fd5b505050506040513d601f19601f82011682018060405250620010f3919081019062002387565b83600160a060020a0316634d9b37356040518163ffffffff1660e060020a02815260040160206040518083038186803b1580156200113057600080fd5b505afa15801562001145573d6000803e3d6000fd5b505050506040513d601f19601f820116820180604052506200116b91908101906200260c565b84600160a060020a0316635c5d625e6040518163ffffffff1660e060020a02815260040160006040518083038186803b158015620011a857600080fd5b505afa158015620011bd573d6000803e3d6000fd5b505050506040513d6000823e601f3d908101601f19168201604052620011e79190810190620025d3565b85600160a060020a0316631865c57d6040518163ffffffff1660e060020a02815260040160206040518083038186803b1580156200122457600080fd5b505afa15801562001239573d6000803e3d6000fd5b505050506040513d601f19601f820116820180604052506200125f91908101906200260c565b86600160a060020a0316639ed5b5026040518163ffffffff1660e060020a02815260040160206040518083038186803b1580156200129c57600080fd5b505afa158015620012b1573d6000803e3d6000fd5b505050506040513d601f19601f82011682018060405250620012d79190810190620025b2565b6002811115620012e357fe5b87600160a060020a03166390f3213d6040518163ffffffff1660e060020a02815260040160206040518083038186803b1580156200132057600080fd5b505afa15801562001335573d6000803e3d6000fd5b505050506040513d601f19601f820116820180604052506200135b9190810190620025b2565b60028111156200136757fe5b9850985098509850985098509850985050919395975091939597565b60606001805480602002602001604051908101604052809291908181526020018280548015620013dd57602002820191906000526020600020905b8154600160a060020a03168152600190910190602001808311620013be575b5050505050905090565b6000620013f48362001d2c565b1515620014185760405160e560020a62461bcd028152600401620002b79062002e2f565b6200142583600462001ddd565b1515620014495760405160e560020a62461bcd028152600401620002b79062002f2b565b6040517fa3bbb0900000000000000000000000000000000000000000000000000000000081528390600160a060020a0382169063a3bbb090906200149290869060040162002db4565b600060405180830381600087803b158015620014ad57600080fd5b505af1158015620014c2573d6000803e3d6000fd5b5050505080600160a060020a031663620ae1c76040518163ffffffff1660e060020a02815260040160206040518083038186803b1580156200150357600080fd5b505afa15801562001518573d6000803e3d6000fd5b505050506040513d601f19601f820116820180604052506200153e919081019062002570565b1515620015a75780600160a060020a031663841eb45a6040518163ffffffff1660e060020a028152600401600060405180830381600087803b1580156200158457600080fd5b505af115801562001599573d6000803e3d6000fd5b505050508091505062000bdd565b80600160a060020a03166384ecdaf66040518163ffffffff1660e060020a028152600401600060405180830381600087803b15801562000bc057600080fd5b6000620015f38362001d2c565b1515620016175760405160e560020a62461bcd028152600401620002b79062002e2f565b6200162483600362001ddd565b1515620016485760405160e560020a62461bcd028152600401620002b79062002f2b565b6040517f15336f800000000000000000000000000000000000000000000000000000000081528390600160a060020a038216906315336f80906200169190869060040162002dd4565b600060405180830381600087803b158015620016ac57600080fd5b505af1158015620016c1573d6000803e3d6000fd5b5050505080600160a060020a03166384ecdaf66040518163ffffffff1660e060020a028152600401600060405180830381600087803b15801562000bc057600080fd5b6000620017118362001d2c565b1515620017355760405160e560020a62461bcd028152600401620002b79062002e2f565b6200174283600562001ddd565b1515620017665760405160e560020a62461bcd028152600401620002b79062002ed1565b6040517f1dc9b2840000000000000000000000000000000000000000000000000000000081528390600160a060020a03821690631dc9b28490620017af90869060040162002db4565b600060405180830381600087803b158015620017ca57600080fd5b505af1158015620017df573d6000803e3d6000fd5b5050505080600160a060020a031663841eb45a6040518163ffffffff1660e060020a028152600401600060405180830381600087803b15801562000bc057600080fd5b60006200182f8262001d2c565b1515620018535760405160e560020a62461bcd028152600401620002b79062002e2f565b6200186082600262001ddd565b1515620018845760405160e560020a62461bcd028152600401620002b79062002f2b565b6040518290600160a060020a038216903480156108fc02916000818181858888f19350505050158015620018bc573d6000803e3d6000fd5b5080600160a060020a03166384ecdaf66040518163ffffffff1660e060020a028152600401600060405180830381600087803b15801562000a7357600080fd5b6000805b600054811015620019e75782600160a060020a03166000828154811015156200192557fe5b60009182526020918290200154604080517f893d20e80000000000000000000000000000000000000000000000000000000081529051600160a060020a039092169263893d20e892600480840193829003018186803b1580156200198857600080fd5b505afa1580156200199d573d6000803e3d6000fd5b505050506040513d601f19601f82011682018060405250620019c3919081019062002387565b600160a060020a03161415620019de57600191505062000a90565b60010162001900565b50600092915050565b6000620019fd82620018fc565b151562001a215760405160e560020a62461bcd028152600401620002b79062002ef5565b600062001a2e8362002107565b905060005b60015481101562001c3a57600062001a6f60018381548110151562001a5457fe5b600091825260209091200154600160a060020a031662001d85565b9050600681600160a060020a0316631865c57d6040518163ffffffff1660e060020a02815260040160206040518083038186803b15801562001ab057600080fd5b505afa15801562001ac5573d6000803e3d6000fd5b505050506040513d601f19601f8201168201806040525062001aeb91908101906200260c565b101562001c305782600160a060020a031681600160a060020a031663f00e6a2a6040518163ffffffff1660e060020a02815260040160206040518083038186803b15801562001b3957600080fd5b505afa15801562001b4e573d6000803e3d6000fd5b505050506040513d601f19601f8201168201806040525062001b74919081019062002591565b600160a060020a0316141562001b91576000935050505062000a90565b82600160a060020a031681600160a060020a03166350b1be266040518163ffffffff1660e060020a02815260040160206040518083038186803b15801562001bd857600080fd5b505afa15801562001bed573d6000803e3d6000fd5b505050506040513d601f19601f8201168201806040525062001c13919081019062002591565b600160a060020a0316141562001c30576000935050505062000a90565b5060010162001a33565b5060019392505050565b6000805b600054811015620019e75782600160a060020a031660008281548110151562001c6d57fe5b60009182526020918290200154604080517f893d20e80000000000000000000000000000000000000000000000000000000081529051600160a060020a039092169263893d20e892600480840193829003018186803b15801562001cd057600080fd5b505afa15801562001ce5573d6000803e3d6000fd5b505050506040513d601f19601f8201168201806040525062001d0b919081019062002387565b600160a060020a0316141562001d2357905062000a90565b60010162001c48565b6000805b600154811015620019e75782600160a060020a031660018281548110151562001d5557fe5b600091825260209091200154600160a060020a0316141562001d7c57600191505062000a90565b60010162001d30565b6000805b600154811015620019e75782600160a060020a031660018281548110151562001dae57fe5b600091825260209091200154600160a060020a0316141562001dd4578291505062000a90565b60010162001d89565b600062001dea8362001d2c565b151562001e0e5760405160e560020a62461bcd028152600401620002b79062002df9565b600062001e1b8462001d85565b905033600160a060020a031681600160a060020a0316631b3e7c4b6040518163ffffffff1660e060020a02815260040160206040518083038186803b15801562001e6457600080fd5b505afa15801562001e79573d6000803e3d6000fd5b505050506040513d601f19601f8201168201806040525062001e9f919081019062002591565b600160a060020a031663893d20e86040518163ffffffff1660e060020a02815260040160206040518083038186803b15801562001edb57600080fd5b505afa15801562001ef0573d6000803e3d6000fd5b505050506040513d601f19601f8201168201806040525062001f16919081019062002387565b600160a060020a03161462001f425760405160e560020a62461bcd028152600401620002b79062002e65565b80600160a060020a0316631865c57d6040518163ffffffff1660e060020a02815260040160206040518083038186803b15801562001f7f57600080fd5b505afa15801562001f94573d6000803e3d6000fd5b505050506040513d601f19601f8201168201806040525062001fba91908101906200260c565b83600881111562001fc757fe5b1462001fea5760405160e560020a62461bcd028152600401620002b79062002e0b565b600281600160a060020a0316631865c57d6040518163ffffffff1660e060020a02815260040160206040518083038186803b1580156200202957600080fd5b505afa1580156200203e573d6000803e3d6000fd5b505050506040513d601f19601f820116820180604052506200206491908101906200260c565b111562001c3a5780600160a060020a0316635f8d96de6040518163ffffffff1660e060020a02815260040160206040518083038186803b158015620020a857600080fd5b505afa158015620020bd573d6000803e3d6000fd5b505050506040513d601f19601f82011682018060405250620020e391908101906200260c565b421062001c3a5760405160e560020a62461bcd028152600401620002b79062002e53565b6000805b600054811015620019e75782600160a060020a03166000828154811015156200213057fe5b60009182526020918290200154604080517f893d20e80000000000000000000000000000000000000000000000000000000081529051600160a060020a039092169263893d20e892600480840193829003018186803b1580156200219357600080fd5b505afa158015620021a8573d6000803e3d6000fd5b505050506040513d601f19601f82011682018060405250620021ce919081019062002387565b600160a060020a031614156200220c576000805482908110620021ed57fe5b600091825260209091200154600160a060020a0316915062000a909050565b6001016200210b565b604051610492806200309483390190565b60405161143e806200352683390190565b600062000490823562002fc7565b600062000490825162002fc7565b600062000490823562003001565b600062000490825162003001565b600062000490825162003006565b600062000490823562003013565b600062000490825162003013565b6000601f82018313620022ab57600080fd5b8135620022c2620022bc8262002f94565b62002f6c565b91508082526020830160208301858383011115620022df57600080fd5b620022ec8382846200304a565b50505092915050565b6000601f820183136200230757600080fd5b815162002318620022bc8262002f94565b915080825260208301602083018583830111156200233557600080fd5b620022ec83828462003056565b600062000490823562002ffe565b600062000490825162002ffe565b6000602082840312156200237157600080fd5b60006200237f848462002237565b949350505050565b6000602082840312156200239a57600080fd5b60006200237f848462002245565b60008060408385031215620023bc57600080fd5b6000620023ca858562002237565b9250506020620023dd8582860162002253565b9150509250929050565b60008060408385031215620023fb57600080fd5b600062002409858562002237565b9250506020620023dd858286016200227d565b600080604083850312156200243057600080fd5b60006200243e858562002237565b925050602083013567ffffffffffffffff8111156200245c57600080fd5b620023dd8582860162002299565b6000806000606084860312156200248057600080fd5b60006200248e868662002237565b9350506020620024a18682870162002342565b925050604084013567ffffffffffffffff811115620024bf57600080fd5b620024cd8682870162002299565b9150509250925092565b600080600080600060a08688031215620024f057600080fd5b6000620024fe888862002237565b9550506020620025118882890162002342565b9450506040620025248882890162002342565b935050606086013567ffffffffffffffff8111156200254257600080fd5b620025508882890162002299565b9250506080620025638882890162002342565b9150509295509295909350565b6000602082840312156200258357600080fd5b60006200237f848462002261565b600060208284031215620025a457600080fd5b60006200237f84846200226f565b600060208284031215620025c557600080fd5b60006200237f84846200228b565b600060208284031215620025e657600080fd5b815167ffffffffffffffff811115620025fe57600080fd5b6200237f84828501620022f5565b6000602082840312156200261f57600080fd5b60006200237f848462002350565b620026388162003023565b82525050565b620026388162002fc7565b6000620026568262002fc3565b8084526020840193506200266a8362002fbd565b60005b82811015620026a057620026838683516200263e565b6200268e8262002fbd565b6020969096019591506001016200266d565b5093949350505050565b620026388162003006565b620026388162003030565b62002638816200303d565b6000620026d88262002fc3565b808452620026ee81602086016020860162003056565b620026f98162003089565b9093016020019392505050565b602481527f53656e646572206973206e6f74207265676973746572656420617320616e206160208201527f63746f7200000000000000000000000000000000000000000000000000000000604082015260600190565b601181527f50726f63657373206e6f7420666f756e64000000000000000000000000000000602082015260400190565b602181527f5374617465206f66206f7065726174696f6e20646f6573206e6f74206d61746360208201527f6800000000000000000000000000000000000000000000000000000000000000604082015260600190565b603281527f50726f6365737320697320616c72656164792061626f727465642c20636f6d7060208201527f6c65746564206f7220657363616c617465640000000000000000000000000000604082015260600190565b601681527f50726f6365737320646f6573206e6f7420657869737400000000000000000000602082015260400190565b600d81527f46756e647320746f6f206c6f7700000000000000000000000000000000000000602082015260400190565b603881527f5374617465203e2046756e64696e67202626206e6f77203e20646561646c696e60208201527f652c20706c6561736520736b6970207468652073746174650000000000000000604082015260600190565b601381527f4e6578744163746f7220213d2053656e64657200000000000000000000000000602082015260400190565b601581527f6e6f206164647265737365732070726f76696465640000000000000000000000602082015260400190565b603f81527f496e20746869732073746174652c207468652070726f636573732063616e206f60208201527f6e6c792062652061626f727465642062792074686520696e69746961746f7200604082015260600190565b602681527f446561646c696e65206e6f74207965742065786365656465642c20706c65617360208201527f6520776169740000000000000000000000000000000000000000000000000000604082015260600190565b602881527f5468652073656e646572206973206e6f7420746865206f776e6572206f66207460208201527f6865206163746f72000000000000000000000000000000000000000000000000604082015260600190565b601081527f456d707479206163746f72206c69737400000000000000000000000000000000602082015260400190565b602981527f53656e646572206973206e6f7420616c6c6f77656420746f20616476616e636560208201527f2064756520746f3a200000000000000000000000000000000000000000000000604082015260600190565b601381527f4e6f2072656769737465726564206163746f7200000000000000000000000000602082015260400190565b601581527f4f776e6572206973206e6f7420616e206163746f720000000000000000000000602082015260400190565b602b81527f5468652073656e64657220697320696e766f6c76656420696e20616e2061637460208201527f6976652070726f63657373000000000000000000000000000000000000000000604082015260600190565b603381527f5468652070726f7669646564206164647265737320697320616c736f2072656760208201527f6973746572656420617320616e206163746f7200000000000000000000000000604082015260600190565b601581527f53656e646572206973206e6f7420616c6c6f7765640000000000000000000000602082015260400190565b620026388162002ffe565b6020810162000bdd82846200263e565b6040810162002c3d82856200262d565b6200049060208301846200263e565b610100810162002c5d828b6200263e565b62002c6c602083018a6200263e565b62002c7b60408301896200263e565b62002c8a606083018862002c12565b818103608083015262002c9e8187620026cb565b905062002caf60a083018662002c12565b62002cbe60c083018562002c12565b62002ccd60e083018462002c12565b9998505050505050505050565b6040810162002cea82856200262d565b620004906020830184620026aa565b6060810162002d0982866200263e565b62002d18602083018562002c12565b818103604083015262002d2c8184620026cb565b95945050505050565b60a0810162002d4582886200263e565b62002d5460208301876200262d565b62002d63604083018662002c12565b62002d72606083018562002c12565b818103608083015262002d868184620026cb565b979650505050505050565b6020808252810162000490818462002649565b6020810162000bdd8284620026aa565b6020810162000bdd8284620026b5565b6020810162000bdd8284620026c0565b60208082528101620004908184620026cb565b6020808252810162000bdd8162002706565b6020808252810162000bdd816200275c565b6020808252810162000bdd816200278c565b6020808252810162000bdd81620027e2565b6020808252810162000bdd8162002838565b6020808252810162000bdd8162002868565b6020808252810162000bdd8162002898565b6020808252810162000bdd81620028ee565b6020808252810162000bdd816200291e565b6020808252810162000bdd816200294e565b6020808252810162000bdd81620029a4565b6020808252810162000bdd81620029fa565b6020808252810162000bdd8162002a50565b6020808252810162000bdd8162002a80565b6020808252810162000bdd8162002ad6565b6020808252810162000bdd8162002b06565b6020808252810162000bdd8162002b36565b6020808252810162000bdd8162002b8c565b6020808252810162000bdd8162002be2565b6020810162000bdd828462002c12565b6040810162002f5d828562002c12565b62000490602083018462002c12565b60405181810167ffffffffffffffff8111828210171562002f8c57600080fd5b604052919050565b600067ffffffffffffffff82111562002fac57600080fd5b506020601f91909101601f19160190565b60200190565b5190565b600062000bdd8262002ff2565b60006003821062002fe157fe5b5090565b60006009821062002fe157fe5b600160a060020a031690565b90565b151590565b600062000bdd8262002fc7565b60006003821062002fe157600080fd5b600062000bdd8262003006565b600062000bdd8262002fd4565b600062000bdd8262002fe5565b82818337506000910152565b60005b838110156200307357818101518382015260200162003059565b8381111562003083576000848401525b50505050565b601f01601f19169056fe608060405234801561001057600080fd5b506040516104923803806104928339810180604052606081101561003357600080fd5b815160208301516040840180519294919382019264010000000081111561005957600080fd5b8201602081018481111561006c57600080fd5b815164010000000081118282018710171561008657600080fd5b505060008054600160a060020a031916600160a060020a038816179055600185905580519093506100c092506002915060208401906100c9565b50505050610164565b828054600181600116156101000203166002900490600052602060002090601f016020900481019282601f1061010a57805160ff1916838001178555610137565b82800160010185558215610137579182015b8281111561013757825182559160200191906001019061011c565b50610143929150610147565b5090565b61016191905b80821115610143576000815560010161014d565b90565b61031f806101736000396000f3fe6080604052600436106100615763ffffffff7c010000000000000000000000000000000000000000000000000000000060003504166307e4b7e98114610066578063893d20e8146100f0578063a5ebeaa41461012e578063a7cc53f514610172575b600080fd5b34801561007257600080fd5b5061007b610199565b6040805160208082528351818301528351919283929083019185019080838360005b838110156100b557818101518382015260200161009d565b50505050905090810190601f1680156100e25780820380516001836020036101000a031916815260200191505b509250505060405180910390f35b3480156100fc57600080fd5b5061010561022c565b6040805173ffffffffffffffffffffffffffffffffffffffff9092168252519081900360200190f35b34801561013a57600080fd5b5061015e6004803603604081101561015157600080fd5b5080359060200135610248565b604080519115158252519081900360200190f35b34801561017e57600080fd5b506101876102ed565b60408051918252519081900360200190f35b60028054604080516020601f60001961010060018716150201909416859004938401819004810282018101909252828152606093909290918301828280156102225780601f106101f757610100808354040283529160200191610222565b820191906000526020600020905b81548152906001019060200180831161020557829003601f168201915b5050505050905090565b60005473ffffffffffffffffffffffffffffffffffffffff1690565b60015460009082028310156102e457604080517f08c379a000000000000000000000000000000000000000000000000000000000815260206004820152602d60248201527f4f666665722077617320746f6f206c6f772c20706c656173652070726f76696460448201527f65206d6f72652066756e64732e00000000000000000000000000000000000000606482015290519081900360840190fd5b50600192915050565b6001549056fea165627a7a72305820313db69cedd0815a1a374e356b8b2345587f37ea86c0291a4e5495727292d2840029608060405260006004556040516200143e3803806200143e833981018060405260a08110156200002e57600080fd5b8151602083015160408401516060850151608086018051949693959294919392830192916401000000008111156200006557600080fd5b820160208101848111156200007957600080fd5b81516401000000008111828201871017156200009457600080fd5b50506003805433600160a060020a0319918216179091556004869055600080548216600160a060020a038b8116919091179091556001805483168a83161780825560028054919093169316929092179055426007556009805460ff1916909117905560058690558051909350620001159250600b9150602084019062000121565b505050505050620001c6565b828054600181600116156101000203166002900490600052602060002090601f016020900481019282601f106200016457805160ff191683800117855562000194565b8280016001018555821562000194579182015b828111156200019457825182559160200191906001019062000177565b50620001a2929150620001a6565b5090565b620001c391905b80821115620001a25760008155600101620001ad565b90565b61126880620001d66000396000f3fe6080604052600436106100f85763ffffffff60e060020a60003504166311adbaad81146101ad57806315336f80146102375780631865c57d146102ec5780631b3e7c4b146103135780631dc9b284146103445780634d9b37351461037157806350b1be26146103865780635c5d625e1461039b5780635f8d96de146103b0578063620ae1c7146103c55780638271bb35146103ee578063841eb45a1461040357806384ecdaf61461041857806390f3213d1461042d5780639b14949a146104665780639ed5b50214610494578063a3bbb090146104a9578063aa2515d3146104d6578063e39ff19f14610503578063f00e6a2a14610536575b600454341015610178576040805160e560020a62461bcd02815260206004820152603760248201527f506c656173652070726f76696465206174206c65617374207468652066756e6460448201527f7320796f7520696e697469616c6c79206f666665726564000000000000000000606482015290519081900360840190fd5b6040805134815290517fa8142743f8f70a4c26f3691cf4ed59718381fb2f18070ec52be1f1022d8555579181900360200190a1005b3480156101b957600080fd5b506101c261054b565b6040805160208082528351818301528351919283929083019185019080838360005b838110156101fc5781810151838201526020016101e4565b50505050905090810190601f1680156102295780820380516001836020036101000a031916815260200191505b509250505060405180910390f35b34801561024357600080fd5b506102ea6004803603602081101561025a57600080fd5b81019060208101813564010000000081111561027557600080fd5b82018360208201111561028757600080fd5b803590602001918460018302840111640100000000831117156102a957600080fd5b91908080601f0160208091040260200160405190810160405280939291908181526020018383808284376000920191909152509295506105e2945050505050565b005b3480156102f857600080fd5b506103016106dc565b60408051918252519081900360200190f35b34801561031f57600080fd5b506103286106f5565b60408051600160a060020a039092168252519081900360200190f35b34801561035057600080fd5b506102ea6004803603602081101561036757600080fd5b503560ff16610704565b34801561037d57600080fd5b5061030161078b565b34801561039257600080fd5b50610328610790565b3480156103a757600080fd5b506101c261079f565b3480156103bc57600080fd5b50610301610800565b3480156103d157600080fd5b506103da610806565b604080519115158252519081900360200190f35b3480156103fa57600080fd5b50610301610834565b34801561040f57600080fd5b506102ea61083a565b34801561042457600080fd5b506102ea610987565b34801561043957600080fd5b50610442610afb565b6040518082600281111561045257fe5b60ff16815260200191505060405180910390f35b34801561047257600080fd5b5061047b610b09565b6040805192835260208301919091528051918290030190f35b3480156104a057600080fd5b50610442610b13565b3480156104b557600080fd5b506102ea600480360360208110156104cc57600080fd5b503560ff16610b1c565b3480156104e257600080fd5b506102ea600480360360208110156104f957600080fd5b503560ff16610b99565b34801561050f57600080fd5b506102ea6004803603602081101561052657600080fd5b5035600160a060020a0316610c51565b34801561054257600080fd5b50610328610d78565b600b8054604080516020601f60026000196101006001881615020190951694909404938401819004810282018101909252828152606093909290918301828280156105d75780601f106105ac576101008083540402835291602001916105d7565b820191906000526020600020905b8154815290600101906020018083116105ba57829003601f168201915b505050505090505b90565b600354600160a060020a03163314610646576040805160e560020a62461bcd028152602060048201526033602482015260008051602061121d83398151915260448201526000805160206111fd833981519152606482015290519081900360840190fd5b80516000106106c5576040805160e560020a62461bcd02815260206004820152602a60248201527f456d70747920737472696e672063616e6e6f742062652061636365707465642060448201527f617320612070726f6f6600000000000000000000000000000000000000000000606482015290519081900360840190fd5b80516106d890600a906020840190610da0565b5050565b60095460009060ff1660088111156106f057fe5b905090565b600254600160a060020a031690565b600354600160a060020a03163314610768576040805160e560020a62461bcd028152602060048201526033602482015260008051602061121d83398151915260448201526000805160206111fd833981519152606482015290519081900360840190fd5b600c805482919061ff00191661010083600281111561078357fe5b021790555050565b303190565b600154600160a060020a031690565b600a8054604080516020601f60026000196101006001881615020190951694909404938401819004810282018101909252828152606093909290918301828280156105d75780601f106105ac576101008083540402835291602001916105d7565b60065490565b600080600a805460018160011615610100020316600290049050111561082e575060016105df565b50600090565b60045490565b60008054600154829182913091600160a060020a03908116911661085c610e1e565b600160a060020a03938416815291831660208301529091166040808301919091525190819003606001906000f08015801561089b573d6000803e3d6000fd5b50905080600160a060020a03166353707b4c6108b5610806565b6108bd610b13565b6108c5610afb565b6040518463ffffffff1660e060020a02815260040180841515151581526020018360028111156108f157fe5b60ff16815260200182600281111561090557fe5b60ff1681526020019350505050604080518083038186803b15801561092957600080fd5b505afa15801561093d573d6000803e3d6000fd5b505050506040513d604081101561095357600080fd5b5080516020909101519093509150600160a060020a038316156109795761097983610c51565b61098282610b99565b505050565b600354600160a060020a031633146109eb576040805160e560020a62461bcd028152602060048201526033602482015260008051602061121d83398151915260448201526000805160206111fd833981519152606482015290519081900360840190fd5b600260095460ff1660088111156109fe57fe5b10610a0c5760055442016006555b610a14610d78565b600160a060020a0316610a256106f5565b600160a060020a03161415610a6e57610a3c610790565b6002805473ffffffffffffffffffffffffffffffffffffffff1916600160a060020a0392909216919091179055610aa4565b610a76610d78565b6002805473ffffffffffffffffffffffffffffffffffffffff1916600160a060020a03929092169190911790555b600560095460ff166008811115610ab757fe5b1415610aca57610ac561083a565b610af9565b60095460009060ff166008811115610ade57fe5b6001019050610af7816008811115610af257fe5b610d87565b505b565b600c54610100900460ff1690565b6007546008549091565b600c5460ff1690565b600354600160a060020a03163314610b80576040805160e560020a62461bcd028152602060048201526033602482015260008051602061121d83398151915260448201526000805160206111fd833981519152606482015290519081900360840190fd5b600c805482919060ff1916600183600281111561078357fe5b600354600160a060020a03163314610bfd576040805160e560020a62461bcd028152602060048201526033602482015260008051602061121d83398151915260448201526000805160206111fd833981519152606482015290519081900360840190fd5b6009805482919060ff19166001836008811115610c1657fe5b0217905550506000546002805473ffffffffffffffffffffffffffffffffffffffff1916600160a060020a0390921691909117905542600855565b600354600160a060020a03163314610cd9576040805160e560020a62461bcd02815260206004820152603460248201527f46756e64732063616e206f6e6c79206265207472616e7366657272656420627960448201527f20746865206f776e696e6720636f6e7472616374000000000000000000000000606482015290519081900360840190fd5b80600160a060020a031663893d20e86040518163ffffffff1660e060020a02815260040160206040518083038186803b158015610d1557600080fd5b505afa158015610d29573d6000803e3d6000fd5b505050506040513d6020811015610d3f57600080fd5b5051604051600160a060020a0390911690303180156108fc02916000818181858888f193505050501580156106d8573d6000803e3d6000fd5b600054600160a060020a031690565b6009805482919060ff1916600183600881111561078357fe5b828054600181600116156101000203166002900490600052602060002090601f016020900481019282601f10610de157805160ff1916838001178555610e0e565b82800160010185558215610e0e579182015b82811115610e0e578251825591602001919060010190610df3565b50610e1a929150610e2e565b5090565b6040516103b480610e4983390190565b6105df91905b80821115610e1a5760008155600101610e3456fe608060405234801561001057600080fd5b506040516060806103b48339810180604052606081101561003057600080fd5b508051602082015160409092015160008054600160a060020a03938416600160a060020a03199182161790915560018054948416948216949094179093556002805492909116919092161790556103288061008c6000396000f3fe6080604052600436106100775763ffffffff7c01000000000000000000000000000000000000000000000000000000006000350416630b957629811461007c57806315f6c1341461007c578063349590c3146100ea578063415899f31461011f57806353707b4c1461014c5780638886181814610189575b600080fd5b34801561008857600080fd5b506100a96004803603602081101561009f57600080fd5b503560ff166101b6565b60405173ffffffffffffffffffffffffffffffffffffffff83168152602081018260088111156100d557fe5b60ff1681526020019250505060405180910390f35b3480156100f657600080fd5b506100a96004803603604081101561010d57600080fd5b5060ff813581169160200135166101fc565b34801561012b57600080fd5b506100a96004803603602081101561014257600080fd5b503560ff16610252565b34801561015857600080fd5b506100a96004803603606081101561016f57600080fd5b50803515159060ff60208201358116916040013516610297565b34801561019557600080fd5b506100a9600480360360208110156101ac57600080fd5b503560ff166102c4565b60008060028360028111156101c757fe5b14156101ef57505060025473ffffffffffffffffffffffffffffffffffffffff1660066101f7565b506000905060075b915091565b600080600284600281111561020d57fe5b14156102255761021c836101b6565b9150915061024b565b600084600281111561023357fe5b14156102425761021c83610252565b61021c836101b6565b9250929050565b600080600283600281111561026357fe5b141561027557506000905060086101f7565b505060015473ffffffffffffffffffffffffffffffffffffffff1660066101f7565b60008084156102b3576102aa84846101fc565b915091506102bc565b6102aa846102c4565b935093915050565b600080808360028111156102d457fe5b14156101ef57505060015473ffffffffffffffffffffffffffffffffffffffff1660066101f756fea165627a7a7230582089f6309960b8ce70341b9cf754dad47a61214fd2b26bcbdc8c02709894aa3dfd0029746865206f776e696e6720636f6e747261637400000000000000000000000000416374696f6e2063616e206f6e6c7920626520706572666f726d656420627920a165627a7a72305820709389516e23b4933a1a7e485869d50e08f5aea8113ba4fac03877b23e59a5280029a265627a7a72305820f365dffe7d9c8ca2b35c6f7c6781024be9cdf06703d973b06d4e1beb5e4038b06c6578706572696d656e74616cf50037",
  "source": "pragma solidity ^0.5.0;\r\npragma experimental ABIEncoderV2;\r\n\r\nimport \"./ProcessData.sol\";\r\nimport \"./IActor.sol\";\r\nimport \"./Enums.sol\";\r\n\r\ncontract Protocol {\r\n\r\n    address[] private Actors;\r\n    address payable[] private CurrentProcesses;\r\n\r\n    event ProcessDataCreated(address _from, ProcessData addr);\r\n\tevent ActorCreated(address _from, address addr);\r\n\tevent FundsReceived(uint256 value);\r\n\t\r\n\tfunction() external payable{\r\n\t\temit FundsReceived(msg.value);\r\n\t}\r\n\r\n    function registerActor(address payable _Owner,uint256 PricePerUnit,string memory NetworkName) public returns(address){\r\n        require(!ownerIsActor(_Owner),\"The provided address is also registered as an actor\");\r\n\t\tIActor _Actor = new IActor(_Owner,PricePerUnit,NetworkName);\r\n        Actors.push(address(_Actor));\r\n\t\temit ActorCreated(msg.sender,address(_Actor));\r\n        return address(_Actor);\r\n    }\r\n\t\r\n\tfunction deleteActor(address payable _Owner) public{\r\n        require(!ownerIsActor(_Owner),\"The provided address is also registered as an actor\");\r\n\t\trequire(_Owner == msg.sender,\"The sender is not the owner of the actor\");\r\n\t\trequire(notInActiveProcesses(_Owner),\"The sender is involved in an active process\");\r\n\t\tuint id = getActorIndexFromOwner(_Owner);\r\n\t\trequire(CurrentProcesses.length > 0,\"Empty actor list\");\r\n\t\tdelete Actors[id];\r\n    }\r\n\t\r\n\tfunction notInActiveProcesses(address payable _Owner) private view returns(bool){\r\n\t\trequire(ownerIsActor(_Owner),\"Owner is not an actor\");\r\n\t\tIActor actor = IActor(getActor(_Owner));\r\n\t\tfor (uint i = 0 ; i < CurrentProcesses.length; i++) {\r\n\t\t\tProcessData CurrentProcess = getProcess(CurrentProcesses[i]);\r\n\t\t\tif(CurrentProcess.getState()<uint(Enums.State.COMPLETE)){\r\n\t\t\t\tif(CurrentProcess.getTarget()==actor){\r\n\t\t\t\t\treturn false;\r\n\t\t\t\t}\r\n\t\t\t\tif(CurrentProcess.getMitigator()==actor){\r\n\t\t\t\t\treturn false;\r\n\t\t\t\t}\r\n\t\t\t} \r\n        }\r\n\t\treturn true;\r\n\t}\r\n\t\r\n    function init(address payable _MitigatorOwner,uint _DeadlineInterval,uint256 _OfferedFunds,string memory _ListOfAddresses, uint _NumberOfAddresses) \r\n    public \r\n    returns (ProcessData){\r\n        \r\n        require(bytes(_ListOfAddresses).length >0,\"no addresses provided\");\r\n        require(ownerIsActor(_MitigatorOwner),\"No registered actor\");\r\n\t\trequire(ownerIsActor(msg.sender),\"Sender is not registered as an actor\");\r\n        require(IActor(_MitigatorOwner).isOfferAcceptable(_OfferedFunds,_NumberOfAddresses),\"Funds too low\");\r\n\t\t\r\n        ProcessData newProcessData = new ProcessData(address(getActor(msg.sender)),_MitigatorOwner,_DeadlineInterval,_OfferedFunds,_ListOfAddresses);\r\n        CurrentProcesses.push(address(newProcessData));\r\n\t\temit ProcessDataCreated(msg.sender,newProcessData);\r\n\t\t\r\n        return newProcessData;\r\n    }\r\n\r\n    function approve(address payable process,bool descision) \r\n    public\r\n    returns (ProcessData){\r\n        \r\n        require(isProcess(process),\"Process does not exist\");\r\n        require(canSenderAdvance(process,Enums.State.APPROVE),\"Sender is not allowed\");\r\n        \r\n        ProcessData ProcessToUse = ProcessData(process);\r\n        \r\n        if(descision){\r\n            ProcessToUse.advanceState();\r\n        }else{\r\n            ProcessToUse.endProcess(Enums.State.ABORT);\r\n        }\r\n  \r\n        return ProcessToUse;\r\n    }\r\n    \r\n    function sendFunds(address payable process) \r\n    public\r\n    payable\r\n    returns (ProcessData){\r\n        \r\n        require(isProcess(process),\"Process does not exist\");\r\n        require(canSenderAdvance(process,Enums.State.FUNDING),\"Sender is not allowed\");\r\n        \r\n        ProcessData ProcessToUse = ProcessData(process);\r\n        \r\n        address(ProcessToUse).transfer(msg.value);\r\n\t\t\r\n        ProcessToUse.advanceState();\r\n        \r\n        return ProcessToUse;\r\n    }\r\n    \r\n    \r\n    function uploadProof(address payable process,string memory _Proof) \r\n    public\r\n    returns (ProcessData){\r\n        \r\n        require(isProcess(process),\"Process does not exist\");\r\n        require(canSenderAdvance(process,Enums.State.PROOF),\"Sender is not allowed\");\r\n        \r\n        ProcessData ProcessToUse = ProcessData(process);\r\n        ProcessToUse.setProof(_Proof);\r\n\t\t\r\n        ProcessToUse.advanceState();\r\n        \r\n        return ProcessToUse;\r\n    }\r\n    \r\n    function ratingByTarget(address payable process,Enums.Rating rating) \r\n    public\r\n    payable\r\n    returns (ProcessData){\r\n        \r\n        require(isProcess(process),\"Process does not exist\");\r\n        require(canSenderAdvance(process,Enums.State.TRATE),\"Sender is not allowed\");\r\n        \r\n        ProcessData ProcessToUse = ProcessData(process);\r\n        ProcessToUse.setTargetRating(rating);\r\n        \r\n\t\tif(!ProcessToUse.isProofProvided()){\r\n            ProcessToUse.executeEvaluation();\r\n            return ProcessToUse;\r\n        }\r\n\t\t\r\n        ProcessToUse.advanceState();\r\n\t\t\r\n        return ProcessToUse;\r\n    }\r\n    \r\n    function ratingByMitigator(address payable process,Enums.Rating rating) \r\n    public\r\n    payable\r\n    returns (ProcessData){\r\n        \r\n        require(isProcess(process),\"Process does not exist\");\r\n\t\t\r\n        require(canSenderAdvance(process,Enums.State.MRATE),\"Sender is not allowed to advance due to: \");\r\n        \r\n        ProcessData ProcessToUse = ProcessData(process);\r\n        ProcessToUse.setMitigatorRating(rating);\r\n        ProcessToUse.executeEvaluation();\r\n\r\n        return ProcessToUse;\r\n    }\r\n\t\r\n\tfunction skipCurrentState(address payable process) public returns(ProcessData){\r\n\t\t\r\n\t\trequire(isProcess(process),\"Process not found\");\r\n        ProcessData CurrentProcess = getProcess(process);\r\n\t\trequire(CurrentProcess.getState()<uint(Enums.State.COMPLETE),\"Process is already aborted, completed or escalated\");\r\n\t\t\r\n\t\tif(CurrentProcess.getState()<uint(Enums.State.PROOF)){\r\n\t\t\trequire(msg.sender== CurrentProcess.getTarget().getOwner(),\"In this state, the process can only be aborted by the initiator\");\r\n\t\t\tCurrentProcess.endProcess(Enums.State.ABORT);\r\n\t\t\treturn CurrentProcess;\r\n\t\t}\r\n\t\t\r\n\t\trequire(now>CurrentProcess.getDeadline(),\"Deadline not yet exceeded, please wait\");\r\n\r\n\t\tif(CurrentProcess.getState() == uint(Enums.State.TRATE)){\r\n\t\t\tCurrentProcess.setTargetRating(Enums.Rating.NA);\r\n\t\t}else if(CurrentProcess.getState() == uint(Enums.State.MRATE)){\r\n\t\t\tCurrentProcess.setMitigatorRating(Enums.Rating.NA);\r\n\t\t}\r\n\t\t\r\n\t\tCurrentProcess.advanceState();\r\n\t\t\r\n\t\treturn CurrentProcess;\r\n\t}\r\n   \r\n    /*Checks where the sender of the message is the next actor and the state \r\n    of the action to be performed is the one immediately following in the process\r\n    and if deadline is exceeded*/\r\n    function canSenderAdvance(address payable process,Enums.State stateOfOperation) \r\n    private \r\n    view\r\n    returns(bool){\r\n        \r\n\t\trequire(isProcess(process),\"Process not found\");\r\n        ProcessData CurrentProcess = getProcess(process);\r\n\t\t\r\n\t\trequire(CurrentProcess.getNextActor().getOwner() == msg.sender,\"NextActor != Sender\");\r\n\t\trequire(uint(stateOfOperation)==CurrentProcess.getState(),\"State of operation does not match\");\r\n\t\tif(CurrentProcess.getState()>uint(Enums.State.FUNDING)){\r\n\t\t\trequire(now<CurrentProcess.getDeadline(),\"State > Funding && now > deadline, please skip the state\");\r\n\t\t}\r\n        return true;\r\n    }\r\n\t\r\n\tfunction getProcess(address payable process) \r\n    private view \r\n    returns(ProcessData){\r\n        for (uint i = 0 ; i < CurrentProcesses.length; i++) {\r\n            if(CurrentProcesses[i]==process){\r\n                return ProcessData(process);\r\n            }\r\n        }\r\n\t\treturn ProcessData(0);\r\n    }\r\n\t\r\n    function getProcesses() \r\n    public view \r\n    returns(address payable[] memory){\r\n        return CurrentProcesses;\r\n    }\r\n    \r\n\r\n    function getStateOfProcess(address payable process) \r\n    public view \r\n    returns(address payable,address payable,address payable,uint,string memory,uint,uint,uint){\r\n        ProcessData ProcessToUse = ProcessData(process);\r\n        return (ProcessToUse.getTarget().getOwner(),ProcessToUse.getMitigator().getOwner(),ProcessToUse.getNextActor().getOwner()\r\n        ,ProcessToUse.getFunds(),ProcessToUse.getProof(),uint(ProcessToUse.getState())\r\n        ,uint(ProcessToUse.getTargetRating()),uint(ProcessToUse.getMitigatorRating()));\r\n    }\r\n    \r\n    function isProcess(address payable process) \r\n    private view \r\n    returns(bool){\r\n        for (uint i = 0 ; i < CurrentProcesses.length; i++) {\r\n            if(CurrentProcesses[i]==process){\r\n                return true;\r\n            }\r\n        }\r\n        return false;\r\n    }\r\n    \r\n    function addressIsActor(address actor) \r\n    private view \r\n    returns(bool){\r\n        for (uint i = 0 ; i < Actors.length; i++) {\r\n            if(Actors[i]==actor){\r\n                return true;\r\n            }\r\n        }\r\n        return false;\r\n    }\r\n\t\r\n\tfunction getActorIndexFromOwner(address payable owner) \r\n    private view \r\n    returns(uint){\r\n        for (uint i = 0 ; i < Actors.length; i++) {\r\n            if(IActor(Actors[i]).getOwner()==owner){\r\n                return i;\r\n            }\r\n        }\r\n        return 0;\r\n    }\r\n\t\r\n\tfunction ownerIsActor(address payable owner) \r\n    private view \r\n    returns(bool){\r\n        for (uint i = 0 ; i < Actors.length; i++) {\r\n            if(IActor(Actors[i]).getOwner()==owner){\r\n                return true;\r\n            }\r\n        }\r\n        return false;\r\n    }\r\n\t\r\n\tfunction getActor(address payable owner) \r\n    private view \r\n    returns(address){\r\n        for (uint i = 0 ; i < Actors.length; i++) {\r\n            if(IActor(Actors[i]).getOwner()==owner){\r\n                return Actors[i];\r\n            }\r\n        }\r\n\t\treturn address(0);\r\n    }\r\n}",
  "sourcePath": "C:/Code/Private/CooperativeSignaling/contracts/Protocol.sol",
  "compiler": {
    "name": "solc",
    "version": "0.5.0+commit.1d4f565a.Emscripten.clang"
  },
  "schemaVersion": "3.0.1",
  "updatedAt": "2019-02-05T20:40:45.114Z",
  "devdoc": {
    "methods": {}
  },
  "userdoc": {
    "methods": {}
  }
}