{
  "contractName": "Protocol",
  "abi": [
    {
      "payable": true,
      "stateMutability": "payable",
      "type": "fallback"
    },
    {
      "anonymous": false,
      "inputs": [
        {
          "indexed": false,
          "name": "_from",
          "type": "address"
        },
        {
          "indexed": false,
          "name": "addr",
          "type": "address"
        }
      ],
      "name": "ProcessDataCreated",
      "type": "event",
      "signature": "0x0882f6c178d03f7e5056c19884ff9dbd841f072c80be76045db6007f9ca30fb5"
    },
    {
      "anonymous": false,
      "inputs": [
        {
          "indexed": false,
          "name": "_from",
          "type": "address"
        },
        {
          "indexed": false,
          "name": "addr",
          "type": "address"
        }
      ],
      "name": "MitigatorCreated",
      "type": "event",
      "signature": "0x00348a694629aa1d95f5871c91c0b8722435ece0397f5913b4c368069f86e7be"
    },
    {
      "anonymous": false,
      "inputs": [
        {
          "indexed": false,
          "name": "_from",
          "type": "address"
        },
        {
          "indexed": false,
          "name": "addr",
          "type": "address"
        }
      ],
      "name": "TargetCreated",
      "type": "event",
      "signature": "0xc2772959c7d8d2b8db9eb70d179850c99c875ab14cc6768dcfbc8c1d1a5793b6"
    },
    {
      "anonymous": false,
      "inputs": [
        {
          "indexed": false,
          "name": "value",
          "type": "uint256"
        }
      ],
      "name": "FundsReceived",
      "type": "event",
      "signature": "0xbcdc7071c1beb6dcf2744621e0b29a2f2432ee20812d9ca5e3d5e8f9308d93a3"
    },
    {
      "constant": false,
      "inputs": [
        {
          "name": "_MitigatorOwner",
          "type": "address"
        },
        {
          "name": "PricePerUnit",
          "type": "uint256"
        },
        {
          "name": "NetworkName",
          "type": "string"
        }
      ],
      "name": "registerMitigator",
      "outputs": [
        {
          "name": "",
          "type": "address"
        }
      ],
      "payable": false,
      "stateMutability": "nonpayable",
      "type": "function",
      "signature": "0x0be796b5"
    },
    {
      "constant": false,
      "inputs": [
        {
          "name": "_TargetOwner",
          "type": "address"
        },
        {
          "name": "PricePerUnit",
          "type": "uint256"
        },
        {
          "name": "NetworkName",
          "type": "string"
        }
      ],
      "name": "registerTarget",
      "outputs": [
        {
          "name": "",
          "type": "address"
        }
      ],
      "payable": false,
      "stateMutability": "nonpayable",
      "type": "function",
      "signature": "0xfb9cb44a"
    },
    {
      "constant": false,
      "inputs": [
        {
          "name": "_Mitigator",
          "type": "address"
        },
        {
          "name": "_DeadlineInterval",
          "type": "uint256"
        },
        {
          "name": "_OfferedFunds",
          "type": "uint256"
        },
        {
          "name": "_ListOfAddresses",
          "type": "string"
        },
        {
          "name": "_NumberOfAddresses",
          "type": "uint256"
        }
      ],
      "name": "init",
      "outputs": [
        {
          "name": "",
          "type": "address"
        }
      ],
      "payable": false,
      "stateMutability": "nonpayable",
      "type": "function",
      "signature": "0x3d99bdc7"
    },
    {
      "constant": false,
      "inputs": [
        {
          "name": "process",
          "type": "address"
        },
        {
          "name": "descision",
          "type": "bool"
        }
      ],
      "name": "approve",
      "outputs": [
        {
          "name": "",
          "type": "address"
        }
      ],
      "payable": false,
      "stateMutability": "nonpayable",
      "type": "function",
      "signature": "0x3d140d21"
    },
    {
      "constant": false,
      "inputs": [
        {
          "name": "process",
          "type": "address"
        }
      ],
      "name": "sendFunds",
      "outputs": [
        {
          "name": "",
          "type": "address"
        }
      ],
      "payable": true,
      "stateMutability": "payable",
      "type": "function",
      "signature": "0xcfe52bdd"
    },
    {
      "constant": false,
      "inputs": [
        {
          "name": "process",
          "type": "address"
        },
        {
          "name": "_Proof",
          "type": "string"
        }
      ],
      "name": "uploadProof",
      "outputs": [
        {
          "name": "",
          "type": "address"
        }
      ],
      "payable": false,
      "stateMutability": "nonpayable",
      "type": "function",
      "signature": "0xc369ac92"
    },
    {
      "constant": false,
      "inputs": [
        {
          "name": "process",
          "type": "address"
        },
        {
          "name": "rating",
          "type": "uint8"
        }
      ],
      "name": "ratingByTarget",
      "outputs": [
        {
          "name": "",
          "type": "address"
        }
      ],
      "payable": true,
      "stateMutability": "payable",
      "type": "function",
      "signature": "0x9cd14d73"
    },
    {
      "constant": false,
      "inputs": [
        {
          "name": "process",
          "type": "address"
        },
        {
          "name": "rating",
          "type": "uint8"
        }
      ],
      "name": "ratingByMitigator",
      "outputs": [
        {
          "name": "",
          "type": "address"
        }
      ],
      "payable": true,
      "stateMutability": "payable",
      "type": "function",
      "signature": "0xcd0a1d60"
    },
    {
      "constant": false,
      "inputs": [
        {
          "name": "process",
          "type": "address"
        }
      ],
      "name": "skipCurrentState",
      "outputs": [
        {
          "name": "",
          "type": "address"
        }
      ],
      "payable": false,
      "stateMutability": "nonpayable",
      "type": "function",
      "signature": "0x2402bea8"
    },
    {
      "constant": true,
      "inputs": [
        {
          "name": "process",
          "type": "address"
        }
      ],
      "name": "getProcess",
      "outputs": [
        {
          "name": "",
          "type": "address"
        }
      ],
      "payable": false,
      "stateMutability": "view",
      "type": "function",
      "signature": "0xd30a9aff"
    },
    {
      "constant": true,
      "inputs": [],
      "name": "getProcesses",
      "outputs": [
        {
          "name": "",
          "type": "address[]"
        }
      ],
      "payable": false,
      "stateMutability": "view",
      "type": "function",
      "signature": "0x6e52b239"
    },
    {
      "constant": true,
      "inputs": [
        {
          "name": "process",
          "type": "address"
        }
      ],
      "name": "getStateOfProcess",
      "outputs": [
        {
          "name": "",
          "type": "address"
        },
        {
          "name": "",
          "type": "address"
        },
        {
          "name": "",
          "type": "address"
        },
        {
          "name": "",
          "type": "uint256"
        },
        {
          "name": "",
          "type": "string"
        },
        {
          "name": "",
          "type": "uint256"
        },
        {
          "name": "",
          "type": "uint256"
        },
        {
          "name": "",
          "type": "uint256"
        }
      ],
      "payable": false,
      "stateMutability": "view",
      "type": "function",
      "signature": "0x4152d427"
    }
  ],
  "bytecode": "0x608060405234801561001057600080fd5b506151f7806100206000396000f3fe608060405260043610620000ad5763ffffffff60e060020a6000350416630be796b58114620000e85780632402bea814620001255780633d140d2114620001595780633d99bdc7146200017e5780634152d42714620001a35780636e52b23914620001de5780639cd14d731462000205578063c369ac92146200021c578063cd0a1d601462000241578063cfe52bdd1462000258578063d30a9aff146200026f578063fb9cb44a1462000294575b7fbcdc7071c1beb6dcf2744621e0b29a2f2432ee20812d9ca5e3d5e8f9308d93a334604051620000de9190620038a8565b60405180910390a1005b348015620000f557600080fd5b506200010d6200010736600462002fd6565b620002b9565b6040516200011c919062003601565b60405180910390f35b3480156200013257600080fd5b506200014a6200014436600462002ef3565b6200046e565b6040516200011c919062003769565b3480156200016657600080fd5b506200014a6200017836600462002f14565b62000f73565b3480156200018b57600080fd5b506200014a6200019d36600462003043565b62001271565b348015620001b057600080fd5b50620001c8620001c236600462002ef3565b62001581565b6040516200011c98979695949392919062003611565b348015620001eb57600080fd5b50620001f662001aef565b6040516200011c919062003756565b6200014a6200021636600462002f53565b62001b53565b3480156200022957600080fd5b506200014a6200023b36600462002f88565b62001fee565b6200014a6200025236600462002f53565b620021da565b6200014a6200026936600462002ef3565b620023d4565b3480156200027c57600080fd5b506200014a6200028e36600462002ef3565b62002616565b348015620002a157600080fd5b506200010d620002b336600462002fd6565b62002677565b600080848484620002c962002d81565b620002d793929190620036be565b604051809103906000f080158015620002f4573d6000803e3d6000fd5b509050600081600160a060020a03166338cc48316040518163ffffffff1660e060020a02815260040160206040518083038186803b1580156200033657600080fd5b505afa1580156200034b573d6000803e3d6000fd5b505050506040513d601f19601f8201168201806040525062000371919081019062002eca565b815460018101835560009283526020909220909101805473ffffffffffffffffffffffffffffffffffffffff1916600160a060020a039092169190911790556040517e348a694629aa1d95f5871c91c0b8722435ece0397f5913b4c368069f86e7be90620003e390339084906200369f565b60405180910390a180600160a060020a03166338cc48316040518163ffffffff1660e060020a02815260040160206040518083038186803b1580156200042857600080fd5b505afa1580156200043d573d6000803e3d6000fd5b505050506040513d601f19601f8201168201806040525062000463919081019062002eca565b9150505b9392505050565b60006200047b82620027a2565b1515620004a85760405160e560020a62461bcd0281526004016200049f90620037ac565b60405180910390fd5b6000620004b58362002616565b9050600681600160a060020a0316631865c57d6040518163ffffffff1660e060020a02815260040160206040518083038186803b158015620004f657600080fd5b505afa1580156200050b573d6000803e3d6000fd5b505050506040513d601f19601f8201168201806040525062000531919081019062003178565b10620005545760405160e560020a62461bcd0281526004016200049f90620037d0565b600381600160a060020a0316631865c57d6040518163ffffffff1660e060020a02815260040160206040518083038186803b1580156200059357600080fd5b505afa158015620005a8573d6000803e3d6000fd5b505050506040513d601f19601f82011682018060405250620005ce919081019062003178565b10156200083d5780600160a060020a031663f00e6a2a6040518163ffffffff1660e060020a02815260040160206040518083038186803b1580156200061257600080fd5b505afa15801562000627573d6000803e3d6000fd5b505050506040513d601f19601f820116820180604052506200064d9190810190620030fd565b600160a060020a031663893d20e86040518163ffffffff1660e060020a02815260040160206040518083038186803b1580156200068957600080fd5b505afa1580156200069e573d6000803e3d6000fd5b505050506040513d601f19601f82011682018060405250620006c4919081019062002eca565b600160a060020a03163314620006f15760405160e560020a62461bcd0281526004016200049f906200384e565b60405160e060020a6356de96db028152600160a060020a038216906356de96db90620007239060079060040162003789565b600060405180830381600087803b1580156200073e57600080fd5b505af115801562000753573d6000803e3d6000fd5b5050505080600160a060020a031663f6e9178982600160a060020a031663f00e6a2a6040518163ffffffff1660e060020a02815260040160206040518083038186803b158015620007a357600080fd5b505afa158015620007b8573d6000803e3d6000fd5b505050506040513d601f19601f82011682018060405250620007de9190810190620030fd565b6040518263ffffffff1660e060020a028152600401620007ff919062003769565b600060405180830381600087803b1580156200081a57600080fd5b505af11580156200082f573d6000803e3d6000fd5b505050508091505062000f6e565b80600160a060020a0316635f8d96de6040518163ffffffff1660e060020a02815260040160206040518083038186803b1580156200087a57600080fd5b505afa1580156200088f573d6000803e3d6000fd5b505050506040513d601f19601f82011682018060405250620008b5919081019062003178565b4211620008d95760405160e560020a62461bcd0281526004016200049f9062003860565b80600160a060020a031663f00e6a2a6040518163ffffffff1660e060020a02815260040160206040518083038186803b1580156200091657600080fd5b505afa1580156200092b573d6000803e3d6000fd5b505050506040513d601f19601f82011682018060405250620009519190810190620030fd565b600160a060020a031681600160a060020a0316631b3e7c4b6040518163ffffffff1660e060020a02815260040160206040518083038186803b1580156200099757600080fd5b505afa158015620009ac573d6000803e3d6000fd5b505050506040513d601f19601f82011682018060405250620009d29190810190620030fd565b600160a060020a0316141562000ac45780600160a060020a031663f6e9178982600160a060020a03166350b1be266040518163ffffffff1660e060020a02815260040160206040518083038186803b15801562000a2e57600080fd5b505afa15801562000a43573d6000803e3d6000fd5b505050506040513d601f19601f8201168201806040525062000a699190810190620030fd565b6040518263ffffffff1660e060020a02815260040162000a8a919062003769565b600060405180830381600087803b15801562000aa557600080fd5b505af115801562000aba573d6000803e3d6000fd5b5050505062000ba1565b80600160a060020a031663f6e9178982600160a060020a031663f00e6a2a6040518163ffffffff1660e060020a02815260040160206040518083038186803b15801562000b1057600080fd5b505afa15801562000b25573d6000803e3d6000fd5b505050506040513d601f19601f8201168201806040525062000b4b9190810190620030fd565b6040518263ffffffff1660e060020a02815260040162000b6c919062003769565b600060405180830381600087803b15801562000b8757600080fd5b505af115801562000b9c573d6000803e3d6000fd5b505050505b600381600160a060020a0316631865c57d6040518163ffffffff1660e060020a02815260040160206040518083038186803b15801562000be057600080fd5b505afa15801562000bf5573d6000803e3d6000fd5b505050506040513d601f19601f8201168201806040525062000c1b919081019062003178565b141562000c8d5760405160e060020a6356de96db028152600160a060020a038216906356de96db9062000c5390600490810162003789565b600060405180830381600087803b15801562000c6e57600080fd5b505af115801562000c83573d6000803e3d6000fd5b5050505062000f12565b600481600160a060020a0316631865c57d6040518163ffffffff1660e060020a02815260040160206040518083038186803b15801562000ccc57600080fd5b505afa15801562000ce1573d6000803e3d6000fd5b505050506040513d601f19601f8201168201806040525062000d07919081019062003178565b141562000dbc5760405160e060020a6356de96db028152600160a060020a038216906356de96db9062000d409060059060040162003789565b600060405180830381600087803b15801562000d5b57600080fd5b505af115801562000d70573d6000803e3d6000fd5b50506040517fa3bbb090000000000000000000000000000000000000000000000000000000008152600160a060020a038416925063a3bbb090915062000c539060019060040162003779565b600581600160a060020a0316631865c57d6040518163ffffffff1660e060020a02815260040160206040518083038186803b15801562000dfb57600080fd5b505afa15801562000e10573d6000803e3d6000fd5b505050506040513d601f19601f8201168201806040525062000e36919081019062003178565b141562000f12576040517f1dc9b284000000000000000000000000000000000000000000000000000000008152600160a060020a03821690631dc9b2849062000e859060019060040162003779565b600060405180830381600087803b15801562000ea057600080fd5b505af115801562000eb5573d6000803e3d6000fd5b5050505080600160a060020a031663841eb45a6040518163ffffffff1660e060020a028152600401600060405180830381600087803b15801562000ef857600080fd5b505af115801562000f0d573d6000803e3d6000fd5b505050505b80600160a060020a0316639363d6f26040518163ffffffff1660e060020a028152600401600060405180830381600087803b15801562000f5157600080fd5b505af115801562000f66573d6000803e3d6000fd5b509293505050505b919050565b600062000f8083620027a2565b151562000fa45760405160e560020a62461bcd0281526004016200049f9062003806565b62000fb1836001620027fb565b151562000fd55760405160e560020a62461bcd0281526004016200049f9062003896565b828215620011255760405160e060020a6356de96db028152600160a060020a038216906356de96db906200100f9060029060040162003789565b600060405180830381600087803b1580156200102a57600080fd5b505af11580156200103f573d6000803e3d6000fd5b5050505080600160a060020a031663f6e9178982600160a060020a031663f00e6a2a6040518163ffffffff1660e060020a02815260040160206040518083038186803b1580156200108f57600080fd5b505afa158015620010a4573d6000803e3d6000fd5b505050506040513d601f19601f82011682018060405250620010ca9190810190620030fd565b6040518263ffffffff1660e060020a028152600401620010eb919062003769565b600060405180830381600087803b1580156200110657600080fd5b505af11580156200111b573d6000803e3d6000fd5b5050505062001268565b60405160e060020a6356de96db028152600160a060020a038216906356de96db90620011579060079060040162003789565b600060405180830381600087803b1580156200117257600080fd5b505af115801562001187573d6000803e3d6000fd5b5050505080600160a060020a031663f6e9178982600160a060020a031663f00e6a2a6040518163ffffffff1660e060020a02815260040160206040518083038186803b158015620011d757600080fd5b505afa158015620011ec573d6000803e3d6000fd5b505050506040513d601f19601f82011682018060405250620012129190810190620030fd565b6040518263ffffffff1660e060020a02815260040162001233919062003769565b600060405180830381600087803b1580156200124e57600080fd5b505af115801562001263573d6000803e3d6000fd5b505050505b90505b92915050565b60008083511115156200129b5760405160e560020a62461bcd0281526004016200049f906200383c565b620012a68662002b2f565b1515620012ca5760405160e560020a62461bcd0281526004016200049f9062003872565b6040517fa5ebeaa4000000000000000000000000000000000000000000000000000000008152600160a060020a0387169063a5ebeaa490620013139087908690600401620038b8565b60206040518083038186803b1580156200132c57600080fd5b505afa15801562001341573d6000803e3d6000fd5b505050506040513d601f19601f82011682018060405250620013679190810190620030dc565b15156200138b5760405160e560020a62461bcd0281526004016200049f9062003818565b620013963362002b88565b1515620013ba5760405160e560020a62461bcd0281526004016200049f90620037f4565b6000620013c73362002c73565b9050600081600160a060020a03166338cc48316040518163ffffffff1660e060020a02815260040160206040518083038186803b1580156200140857600080fd5b505afa1580156200141d573d6000803e3d6000fd5b505050506040513d601f19601f8201168201806040525062001443919081019062002eca565b888888886200145162002d92565b62001461959493929190620036fa565b604051809103906000f0801580156200147e573d6000803e3d6000fd5b509050600281600160a060020a03166338cc48316040518163ffffffff1660e060020a02815260040160206040518083038186803b158015620014c057600080fd5b505afa158015620014d5573d6000803e3d6000fd5b505050506040513d601f19601f82011682018060405250620014fb919081019062002eca565b815460018101835560009283526020909220909101805473ffffffffffffffffffffffffffffffffffffffff1916600160a060020a039092169190911790556040517f0882f6c178d03f7e5056c19884ff9dbd841f072c80be76045db6007f9ca30fb5906200156e90339084906200369f565b60405180910390a1979650505050505050565b600080600080606060008060008089905080600160a060020a031663f00e6a2a6040518163ffffffff1660e060020a02815260040160206040518083038186803b158015620015cf57600080fd5b505afa158015620015e4573d6000803e3d6000fd5b505050506040513d601f19601f820116820180604052506200160a9190810190620030fd565b600160a060020a031663893d20e86040518163ffffffff1660e060020a02815260040160206040518083038186803b1580156200164657600080fd5b505afa1580156200165b573d6000803e3d6000fd5b505050506040513d601f19601f8201168201806040525062001681919081019062002eca565b81600160a060020a03166350b1be266040518163ffffffff1660e060020a02815260040160206040518083038186803b158015620016be57600080fd5b505afa158015620016d3573d6000803e3d6000fd5b505050506040513d601f19601f82011682018060405250620016f99190810190620030fd565b600160a060020a031663893d20e86040518163ffffffff1660e060020a02815260040160206040518083038186803b1580156200173557600080fd5b505afa1580156200174a573d6000803e3d6000fd5b505050506040513d601f19601f8201168201806040525062001770919081019062002eca565b82600160a060020a0316631b3e7c4b6040518163ffffffff1660e060020a02815260040160206040518083038186803b158015620017ad57600080fd5b505afa158015620017c2573d6000803e3d6000fd5b505050506040513d601f19601f82011682018060405250620017e89190810190620030fd565b600160a060020a031663893d20e86040518163ffffffff1660e060020a02815260040160206040518083038186803b1580156200182457600080fd5b505afa15801562001839573d6000803e3d6000fd5b505050506040513d601f19601f820116820180604052506200185f919081019062002eca565b83600160a060020a0316634d9b37356040518163ffffffff1660e060020a02815260040160206040518083038186803b1580156200189c57600080fd5b505afa158015620018b1573d6000803e3d6000fd5b505050506040513d601f19601f82011682018060405250620018d7919081019062003178565b84600160a060020a0316635c5d625e6040518163ffffffff1660e060020a02815260040160006040518083038186803b1580156200191457600080fd5b505afa15801562001929573d6000803e3d6000fd5b505050506040513d6000823e601f3d908101601f191682016040526200195391908101906200313f565b85600160a060020a0316631865c57d6040518163ffffffff1660e060020a02815260040160206040518083038186803b1580156200199057600080fd5b505afa158015620019a5573d6000803e3d6000fd5b505050506040513d601f19601f82011682018060405250620019cb919081019062003178565b86600160a060020a0316639ed5b5026040518163ffffffff1660e060020a02815260040160206040518083038186803b15801562001a0857600080fd5b505afa15801562001a1d573d6000803e3d6000fd5b505050506040513d601f19601f8201168201806040525062001a4391908101906200311e565b600281111562001a4f57fe5b87600160a060020a03166390f3213d6040518163ffffffff1660e060020a02815260040160206040518083038186803b15801562001a8c57600080fd5b505afa15801562001aa1573d6000803e3d6000fd5b505050506040513d601f19601f8201168201806040525062001ac791908101906200311e565b600281111562001ad357fe5b9850985098509850985098509850985050919395975091939597565b6060600280548060200260200160405190810160405280929190818152602001828054801562001b4957602002820191906000526020600020905b8154600160a060020a0316815260019091019060200180831162001b2a575b5050505050905090565b600062001b6083620027a2565b151562001b845760405160e560020a62461bcd0281526004016200049f9062003806565b62001b91836004620027fb565b151562001bb55760405160e560020a62461bcd0281526004016200049f9062003896565b600083905080600160a060020a031663620ae1c76040518163ffffffff1660e060020a02815260040160206040518083038186803b15801562001bf757600080fd5b505afa15801562001c0c573d6000803e3d6000fd5b505050506040513d601f19601f8201168201806040525062001c329190810190620030dc565b151562001df2576040517fa3bbb090000000000000000000000000000000000000000000000000000000008152600160a060020a0382169063a3bbb0909062001c8090869060040162003779565b600060405180830381600087803b15801562001c9b57600080fd5b505af115801562001cb0573d6000803e3d6000fd5b5050505080600160a060020a031663f6e9178982600160a060020a031663f00e6a2a6040518163ffffffff1660e060020a02815260040160206040518083038186803b15801562001d0057600080fd5b505afa15801562001d15573d6000803e3d6000fd5b505050506040513d601f19601f8201168201806040525062001d3b9190810190620030fd565b6040518263ffffffff1660e060020a02815260040162001d5c919062003769565b600060405180830381600087803b15801562001d7757600080fd5b505af115801562001d8c573d6000803e3d6000fd5b5050505080600160a060020a031663841eb45a6040518163ffffffff1660e060020a028152600401600060405180830381600087803b15801562001dcf57600080fd5b505af115801562001de4573d6000803e3d6000fd5b50505050809150506200126b565b6040517fa3bbb090000000000000000000000000000000000000000000000000000000008152600160a060020a0382169063a3bbb0909062001e3990869060040162003779565b600060405180830381600087803b15801562001e5457600080fd5b505af115801562001e69573d6000803e3d6000fd5b5050505080600160a060020a031663f6e9178982600160a060020a03166350b1be266040518163ffffffff1660e060020a02815260040160206040518083038186803b15801562001eb957600080fd5b505afa15801562001ece573d6000803e3d6000fd5b505050506040513d601f19601f8201168201806040525062001ef49190810190620030fd565b6040518263ffffffff1660e060020a02815260040162001f15919062003769565b600060405180830381600087803b15801562001f3057600080fd5b505af115801562001f45573d6000803e3d6000fd5b505060405160e060020a6356de96db028152600160a060020a03841692506356de96db915062001f7b9060059060040162003789565b600060405180830381600087803b15801562001f9657600080fd5b505af115801562001fab573d6000803e3d6000fd5b5050505080600160a060020a0316639363d6f26040518163ffffffff1660e060020a028152600401600060405180830381600087803b1580156200124e57600080fd5b600062001ffb83620027a2565b15156200201f5760405160e560020a62461bcd0281526004016200049f9062003806565b6200202c836003620027fb565b1515620020505760405160e560020a62461bcd0281526004016200049f9062003896565b6040517f15336f800000000000000000000000000000000000000000000000000000000081528390600160a060020a038216906315336f80906200209990869060040162003799565b600060405180830381600087803b158015620020b457600080fd5b505af1158015620020c9573d6000803e3d6000fd5b5050505080600160a060020a031663f6e9178982600160a060020a031663f00e6a2a6040518163ffffffff1660e060020a02815260040160206040518083038186803b1580156200211957600080fd5b505afa1580156200212e573d6000803e3d6000fd5b505050506040513d601f19601f82011682018060405250620021549190810190620030fd565b6040518263ffffffff1660e060020a02815260040162002175919062003769565b600060405180830381600087803b1580156200219057600080fd5b505af1158015620021a5573d6000803e3d6000fd5b505060405160e060020a6356de96db028152600160a060020a03841692506356de96db915062001f7b90600490810162003789565b6000620021e783620027a2565b15156200220b5760405160e560020a62461bcd0281526004016200049f9062003806565b62002218836005620027fb565b15156200223c5760405160e560020a62461bcd0281526004016200049f9062003884565b6040517f1dc9b2840000000000000000000000000000000000000000000000000000000081528390600160a060020a03821690631dc9b284906200228590869060040162003779565b600060405180830381600087803b158015620022a057600080fd5b505af1158015620022b5573d6000803e3d6000fd5b5050505080600160a060020a031663f6e9178982600160a060020a031663f00e6a2a6040518163ffffffff1660e060020a02815260040160206040518083038186803b1580156200230557600080fd5b505afa1580156200231a573d6000803e3d6000fd5b505050506040513d601f19601f82011682018060405250620023409190810190620030fd565b6040518263ffffffff1660e060020a02815260040162002361919062003769565b600060405180830381600087803b1580156200237c57600080fd5b505af115801562002391573d6000803e3d6000fd5b5050505080600160a060020a031663841eb45a6040518163ffffffff1660e060020a028152600401600060405180830381600087803b1580156200124e57600080fd5b6000620023e182620027a2565b1515620024055760405160e560020a62461bcd0281526004016200049f9062003806565b62002412826002620027fb565b1515620024365760405160e560020a62461bcd0281526004016200049f9062003896565b600082905080600160a060020a03166338cc48316040518163ffffffff1660e060020a02815260040160206040518083038186803b1580156200247857600080fd5b505afa1580156200248d573d6000803e3d6000fd5b505050506040513d601f19601f82011682018060405250620024b3919081019062002eca565b600160a060020a03166108fc349081150290604051600060405180830381858888f19350505050158015620024ec573d6000803e3d6000fd5b5080600160a060020a031663f6e9178982600160a060020a03166350b1be266040518163ffffffff1660e060020a02815260040160206040518083038186803b1580156200253957600080fd5b505afa1580156200254e573d6000803e3d6000fd5b505050506040513d601f19601f82011682018060405250620025749190810190620030fd565b6040518263ffffffff1660e060020a02815260040162002595919062003769565b600060405180830381600087803b158015620025b057600080fd5b505af1158015620025c5573d6000803e3d6000fd5b505060405160e060020a6356de96db028152600160a060020a03841692506356de96db9150620025fb9060039060040162003789565b600060405180830381600087803b15801562000ef857600080fd5b6000805b6002548110156200266e5782600160a060020a03166002828154811015156200263f57fe5b600091825260209091200154600160a060020a0316141562002665578291505062000f6e565b6001016200261a565b50600092915050565b6000808484846200268762002d81565b6200269593929190620036be565b604051809103906000f080158015620026b2573d6000803e3d6000fd5b509050600181600160a060020a03166338cc48316040518163ffffffff1660e060020a02815260040160206040518083038186803b158015620026f457600080fd5b505afa15801562002709573d6000803e3d6000fd5b505050506040513d601f19601f820116820180604052506200272f919081019062002eca565b815460018101835560009283526020909220909101805473ffffffffffffffffffffffffffffffffffffffff1916600160a060020a039092169190911790556040517fc2772959c7d8d2b8db9eb70d179850c99c875ab14cc6768dcfbc8c1d1a5793b690620003e390339084906200369f565b6000805b6002548110156200266e5782600160a060020a0316600282815481101515620027cb57fe5b600091825260209091200154600160a060020a03161415620027f257600191505062000f6e565b600101620027a6565b60006200280883620027a2565b15156200282c5760405160e560020a62461bcd0281526004016200049f90620037ac565b6000620028398462002616565b905033600160a060020a031681600160a060020a0316631b3e7c4b6040518163ffffffff1660e060020a02815260040160206040518083038186803b1580156200288257600080fd5b505afa15801562002897573d6000803e3d6000fd5b505050506040513d601f19601f82011682018060405250620028bd9190810190620030fd565b600160a060020a031663893d20e86040518163ffffffff1660e060020a02815260040160206040518083038186803b158015620028f957600080fd5b505afa1580156200290e573d6000803e3d6000fd5b505050506040513d601f19601f8201168201806040525062002934919081019062002eca565b600160a060020a031614620029605760405160e560020a62461bcd0281526004016200049f906200382a565b80600160a060020a0316631865c57d6040518163ffffffff1660e060020a02815260040160206040518083038186803b1580156200299d57600080fd5b505afa158015620029b2573d6000803e3d6000fd5b505050506040513d601f19601f82011682018060405250620029d8919081019062003178565b836008811115620029e557fe5b1462002a085760405160e560020a62461bcd0281526004016200049f90620037be565b600281600160a060020a0316631865c57d6040518163ffffffff1660e060020a02815260040160206040518083038186803b15801562002a4757600080fd5b505afa15801562002a5c573d6000803e3d6000fd5b505050506040513d601f19601f8201168201806040525062002a82919081019062003178565b111562002b255780600160a060020a0316635f8d96de6040518163ffffffff1660e060020a02815260040160206040518083038186803b15801562002ac657600080fd5b505afa15801562002adb573d6000803e3d6000fd5b505050506040513d601f19601f8201168201806040525062002b01919081019062003178565b421062002b255760405160e560020a62461bcd0281526004016200049f90620037e2565b5060019392505050565b6000805b6000548110156200266e5782600160a060020a031660008281548110151562002b5857fe5b600091825260209091200154600160a060020a0316141562002b7f57600191505062000f6e565b60010162002b33565b6000805b6001548110156200266e5782600160a060020a031660018281548110151562002bb157fe5b60009182526020918290200154604080517f893d20e80000000000000000000000000000000000000000000000000000000081529051600160a060020a039092169263893d20e892600480840193829003018186803b15801562002c1457600080fd5b505afa15801562002c29573d6000803e3d6000fd5b505050506040513d601f19601f8201168201806040525062002c4f919081019062002eca565b600160a060020a0316141562002c6a57600191505062000f6e565b60010162002b8c565b6000805b6001548110156200266e5782600160a060020a031660018281548110151562002c9c57fe5b60009182526020918290200154604080517f893d20e80000000000000000000000000000000000000000000000000000000081529051600160a060020a039092169263893d20e892600480840193829003018186803b15801562002cff57600080fd5b505afa15801562002d14573d6000803e3d6000fd5b505050506040513d601f19601f8201168201806040525062002d3a919081019062002eca565b600160a060020a0316141562002d7857600180548290811062002d5957fe5b600091825260209091200154600160a060020a0316915062000f6e9050565b60010162002c77565b6040516104b680620039ff83390190565b6040516113098062003eb583390190565b600062000467823562003932565b600062000467825162003932565b60006200046782356200396c565b60006200046782516200396c565b600062000467825162003971565b60006200046782356200397e565b60006200046782516200397e565b6000601f8201831362002e1757600080fd5b813562002e2e62002e2882620038ff565b620038d7565b9150808252602083016020830185838301111562002e4b57600080fd5b62002e58838284620039b5565b50505092915050565b6000601f8201831362002e7357600080fd5b815162002e8462002e2882620038ff565b9150808252602083016020830185838301111562002ea157600080fd5b62002e58838284620039c1565b600062000467823562003969565b600062000467825162003969565b60006020828403121562002edd57600080fd5b600062002eeb848462002db1565b949350505050565b60006020828403121562002f0657600080fd5b600062002eeb848462002da3565b6000806040838503121562002f2857600080fd5b600062002f36858562002da3565b925050602062002f498582860162002dbf565b9150509250929050565b6000806040838503121562002f6757600080fd5b600062002f75858562002da3565b925050602062002f498582860162002de9565b6000806040838503121562002f9c57600080fd5b600062002faa858562002da3565b925050602083013567ffffffffffffffff81111562002fc857600080fd5b62002f498582860162002e05565b60008060006060848603121562002fec57600080fd5b600062002ffa868662002da3565b93505060206200300d8682870162002eae565b925050604084013567ffffffffffffffff8111156200302b57600080fd5b620030398682870162002e05565b9150509250925092565b600080600080600060a086880312156200305c57600080fd5b60006200306a888862002da3565b95505060206200307d8882890162002eae565b9450506040620030908882890162002eae565b935050606086013567ffffffffffffffff811115620030ae57600080fd5b620030bc8882890162002e05565b9250506080620030cf8882890162002eae565b9150509295509295909350565b600060208284031215620030ef57600080fd5b600062002eeb848462002dcd565b6000602082840312156200311057600080fd5b600062002eeb848462002ddb565b6000602082840312156200313157600080fd5b600062002eeb848462002df7565b6000602082840312156200315257600080fd5b815167ffffffffffffffff8111156200316a57600080fd5b62002eeb8482850162002e61565b6000602082840312156200318b57600080fd5b600062002eeb848462002ebc565b620031a4816200398e565b82525050565b620031a48162003932565b6000620031c2826200392e565b808452602084019350620031d68362003928565b60005b828110156200320c57620031ef868351620031aa565b620031fa8262003928565b602096909601959150600101620031d9565b5093949350505050565b620031a48162003971565b620031a4816200399b565b620031a481620039a8565b600062003244826200392e565b8084526200325a816020860160208601620039c1565b6200326581620039f4565b9093016020019392505050565b601181527f50726f63657373206e6f7420666f756e64000000000000000000000000000000602082015260400190565b602181527f5374617465206f66206f7065726174696f6e20646f6573206e6f74206d61746360208201527f6800000000000000000000000000000000000000000000000000000000000000604082015260600190565b603281527f50726f6365737320697320616c72656164792061626f727465642c20636f6d7060208201527f6c65746564206f7220657363616c617465640000000000000000000000000000604082015260600190565b601f81527f7374617465203e3d7374617274202626206e6f77203e20646561646c696e6500602082015260400190565b602481527f53656e646572206973206e6f742072656769737465726564206173206120546160208201527f7267657400000000000000000000000000000000000000000000000000000000604082015260600190565b601681527f50726f6365737320646f6573206e6f7420657869737400000000000000000000602082015260400190565b600d81527f46756e647320746f6f206c6f7700000000000000000000000000000000000000602082015260400190565b601381527f4e6578744163746f7220213d2053656e64657200000000000000000000000000602082015260400190565b601581527f6e6f206164647265737365732070726f76696465640000000000000000000000602082015260400190565b603f81527f496e20746869732073746174652c207468652070726f636573732063616e206f60208201527f6e6c792062652061626f727465642062792074686520696e69746961746f7200604082015260600190565b602681527f446561646c696e65206e6f74207965742065786365656465642c20706c65617360208201527f6520776169740000000000000000000000000000000000000000000000000000604082015260600190565b600c81527f6e6f206d6974696761746f720000000000000000000000000000000000000000602082015260400190565b602981527f53656e646572206973206e6f7420616c6c6f77656420746f20616476616e636560208201527f2064756520746f3a200000000000000000000000000000000000000000000000604082015260600190565b601581527f53656e646572206973206e6f7420616c6c6f7765640000000000000000000000602082015260400190565b620031a48162003969565b602081016200126b8284620031aa565b610100810162003622828b620031aa565b62003631602083018a620031aa565b620036406040830189620031aa565b6200364f6060830188620035f6565b818103608083015262003663818762003237565b90506200367460a0830186620035f6565b6200368360c0830185620035f6565b6200369260e0830184620035f6565b9998505050505050505050565b60408101620036af828562003199565b62000467602083018462003216565b60608101620036ce8286620031aa565b620036dd6020830185620035f6565b8181036040830152620036f1818462003237565b95945050505050565b60a081016200370a8288620031aa565b620037196020830187620031aa565b620037286040830186620035f6565b620037376060830185620035f6565b81810360808301526200374b818462003237565b979650505050505050565b60208082528101620004678184620031b5565b602081016200126b828462003216565b602081016200126b828462003221565b602081016200126b82846200322c565b6020808252810162000467818462003237565b602080825281016200126b8162003272565b602080825281016200126b81620032a2565b602080825281016200126b81620032f8565b602080825281016200126b816200334e565b602080825281016200126b816200337e565b602080825281016200126b81620033d4565b602080825281016200126b8162003404565b602080825281016200126b8162003434565b602080825281016200126b8162003464565b602080825281016200126b8162003494565b602080825281016200126b81620034ea565b602080825281016200126b8162003540565b602080825281016200126b8162003570565b602080825281016200126b81620035c6565b602081016200126b8284620035f6565b60408101620038c88285620035f6565b620004676020830184620035f6565b60405181810167ffffffffffffffff81118282101715620038f757600080fd5b604052919050565b600067ffffffffffffffff8211156200391757600080fd5b506020601f91909101601f19160190565b60200190565b5190565b60006200126b826200395d565b6000600382106200394c57fe5b5090565b6000600982106200394c57fe5b600160a060020a031690565b90565b151590565b60006200126b8262003932565b6000600382106200394c57600080fd5b60006200126b8262003971565b60006200126b826200393f565b60006200126b8262003950565b82818337506000910152565b60005b83811015620039de578181015183820152602001620039c4565b83811115620039ee576000848401525b50505050565b601f01601f19169056fe608060405234801561001057600080fd5b506040516104b63803806104b68339810180604052606081101561003357600080fd5b815160208301516040840180519294919382019264010000000081111561005957600080fd5b8201602081018481111561006c57600080fd5b815164010000000081118282018710171561008657600080fd5b505060008054600160a060020a031916600160a060020a038816179055600185905580519093506100c092506002915060208401906100c9565b50505050610164565b828054600181600116156101000203166002900490600052602060002090601f016020900481019282601f1061010a57805160ff1916838001178555610137565b82800160010185558215610137579182015b8281111561013757825182559160200191906001019061011c565b50610143929150610147565b5090565b61016191905b80821115610143576000815560010161014d565b90565b610343806101736000396000f3fe60806040526004361061006c5763ffffffff7c010000000000000000000000000000000000000000000000000000000060003504166307e4b7e9811461007157806338cc4831146100fb578063893d20e814610139578063a5ebeaa41461014e578063a7cc53f514610192575b600080fd5b34801561007d57600080fd5b506100866101b9565b6040805160208082528351818301528351919283929083019185019080838360005b838110156100c05781810151838201526020016100a8565b50505050905090810190601f1680156100ed5780820380516001836020036101000a031916815260200191505b509250505060405180910390f35b34801561010757600080fd5b5061011061024c565b6040805173ffffffffffffffffffffffffffffffffffffffff9092168252519081900360200190f35b34801561014557600080fd5b50610110610250565b34801561015a57600080fd5b5061017e6004803603604081101561017157600080fd5b508035906020013561026c565b604080519115158252519081900360200190f35b34801561019e57600080fd5b506101a7610311565b60408051918252519081900360200190f35b60028054604080516020601f60001961010060018716150201909416859004938401819004810282018101909252828152606093909290918301828280156102425780601f1061021757610100808354040283529160200191610242565b820191906000526020600020905b81548152906001019060200180831161022557829003601f168201915b5050505050905090565b3090565b60005473ffffffffffffffffffffffffffffffffffffffff1690565b600154600090820283101561030857604080517f08c379a000000000000000000000000000000000000000000000000000000000815260206004820152602d60248201527f4f666665722077617320746f6f206c6f772c20706c656173652070726f76696460448201527f65206d6f72652066756e64732e00000000000000000000000000000000000000606482015290519081900360840190fd5b50600192915050565b6001549056fea165627a7a72305820e916cf7b595291c781971316cdf62e2e04bf2e62afd457f557fa935073dcf2140029608060405260006004556040516200130938038062001309833981018060405260a081101561002d57600080fd5b81516020830151604084015160608501516080860180519496939592949193928301929164010000000081111561006357600080fd5b8201602081018481111561007657600080fd5b815164010000000081118282018710171561009057600080fd5b505060038054600160a060020a03199081163317909155600486905560008054600160a060020a038b811691841691909117909155600180548a83169084161790819055600280549093169116179055600780547401000000000000000000000000000000000000000060a060020a60ff0219909116179055600586905580519093506101269250600991506020840190610131565b5050505050506101cc565b828054600181600116156101000203166002900490600052602060002090601f016020900481019282601f1061017257805160ff191683800117855561019f565b8280016001018555821561019f579182015b8281111561019f578251825591602001919060010190610184565b506101ab9291506101af565b5090565b6101c991905b808211156101ab57600081556001016101b5565b90565b61112d80620001dc6000396000f3fe6080604052600436106101035763ffffffff60e060020a60003504166311adbaad81146101cf57806315336f80146102595780631865c57d1461030e5780631b3e7c4b146103355780631dc9b2841461036657806338cc4831146103935780634d9b3735146103a857806350b1be26146103bd57806356de96db146103d25780635c5d625e146103ff5780635f8d96de14610414578063620ae1c7146104295780638271bb3514610452578063841eb45a1461046757806390f3213d1461047c5780639363d6f2146104b55780639ed5b502146104ca578063a3bbb090146104df578063e39ff19f1461050c578063f00e6a2a1461053f578063f6e9178914610554575b60045434101561019a57604080517f08c379a000000000000000000000000000000000000000000000000000000000815260206004820152603760248201527f506c656173652070726f76696465206174206c65617374207468652066756e6460448201527f7320796f7520696e697469616c6c79206f666665726564000000000000000000606482015290519081900360840190fd5b6040805134815290517fa8142743f8f70a4c26f3691cf4ed59718381fb2f18070ec52be1f1022d8555579181900360200190a1005b3480156101db57600080fd5b506101e4610587565b6040805160208082528351818301528351919283929083019185019080838360005b8381101561021e578181015183820152602001610206565b50505050905090810190601f16801561024b5780820380516001836020036101000a031916815260200191505b509250505060405180910390f35b34801561026557600080fd5b5061030c6004803603602081101561027c57600080fd5b81019060208101813564010000000081111561029757600080fd5b8201836020820111156102a957600080fd5b803590602001918460018302840111640100000000831117156102cb57600080fd5b91908080601f01602080910402602001604051908101604052809392919081815260200183838082843760009201919091525092955061061e945050505050565b005b34801561031a57600080fd5b506103236106cb565b60408051918252519081900360200190f35b34801561034157600080fd5b5061034a6106fc565b60408051600160a060020a039092168252519081900360200190f35b34801561037257600080fd5b5061030c6004803603602081101561038957600080fd5b503560ff1661070b565b34801561039f57600080fd5b5061034a61072e565b3480156103b457600080fd5b50610323610732565b3480156103c957600080fd5b5061034a610737565b3480156103de57600080fd5b5061030c600480360360208110156103f557600080fd5b503560ff16610746565b34801561040b57600080fd5b506101e4610787565b34801561042057600080fd5b506103236107e8565b34801561043557600080fd5b5061043e6107ee565b604080519115158252519081900360200190f35b34801561045e57600080fd5b5061032361081c565b34801561047357600080fd5b5061030c610822565b34801561048857600080fd5b50610491610aef565b604051808260028111156104a157fe5b60ff16815260200191505060405180910390f35b3480156104c157600080fd5b5061030c610afd565b3480156104d657600080fd5b50610491610ba6565b3480156104eb57600080fd5b5061030c6004803603602081101561050257600080fd5b503560ff16610baf565b34801561051857600080fd5b5061030c6004803603602081101561052f57600080fd5b5035600160a060020a0316610bc8565b34801561054b57600080fd5b5061034a610c67565b34801561056057600080fd5b5061030c6004803603602081101561057757600080fd5b5035600160a060020a0316610c76565b60098054604080516020601f60026000196101006001881615020190951694909404938401819004810282018101909252828152606093909290918301828280156106135780601f106105e857610100808354040283529160200191610613565b820191906000526020600020905b8154815290600101906020018083116105f657829003601f168201915b505050505090505b90565b80516000106106b457604080517f08c379a000000000000000000000000000000000000000000000000000000000815260206004820152602a60248201527f456d70747920737472696e672063616e6e6f742062652061636365707465642060448201527f617320612070726f6f6600000000000000000000000000000000000000000000606482015290519081900360840190fd5b80516106c7906008906020840190610ca5565b5050565b60075460009074010000000000000000000000000000000000000000900460ff1660088111156106f757fe5b905090565b600254600160a060020a031690565b600a805482919061ff00191661010083600281111561072657fe5b021790555050565b3090565b303190565b600154600160a060020a031690565b6007805482919074ff000000000000000000000000000000000000000019167401000000000000000000000000000000000000000083600881111561072657fe5b60088054604080516020601f60026000196101006001881615020190951694909404938401819004810282018101909252828152606093909290918301828280156106135780601f106105e857610100808354040283529160200191610613565b60065490565b600080600880546001816001161561010002031660029004905011156108165750600161061b565b50600090565b60045490565b60008030600160a060020a03166338cc48316040518163ffffffff1660e060020a02815260040160206040518083038186803b15801561086157600080fd5b505afa158015610875573d6000803e3d6000fd5b505050506040513d602081101561088b57600080fd5b5051600054604080517f38cc48310000000000000000000000000000000000000000000000000000000081529051600160a060020a03909216916338cc483191600480820192602092909190829003018186803b1580156108eb57600080fd5b505afa1580156108ff573d6000803e3d6000fd5b505050506040513d602081101561091557600080fd5b5051600154604080517f38cc48310000000000000000000000000000000000000000000000000000000081529051600160a060020a03909216916338cc483191600480820192602092909190829003018186803b15801561097557600080fd5b505afa158015610989573d6000803e3d6000fd5b505050506040513d602081101561099f57600080fd5b50516109a9610d23565b600160a060020a03938416815291831660208301529091166040808301919091525190819003606001906000f0801580156109e8573d6000803e3d6000fd5b506007805473ffffffffffffffffffffffffffffffffffffffff1916600160a060020a039283161790819055166353707b4c610a226107ee565b610a2a610ba6565b610a32610aef565b6040518463ffffffff1660e060020a0281526004018084151515158152602001836002811115610a5e57fe5b60ff168152602001826002811115610a7257fe5b60ff1681526020019350505050604080518083038186803b158015610a9657600080fd5b505afa158015610aaa573d6000803e3d6000fd5b505050506040513d6040811015610ac057600080fd5b5080516020909101519092509050600160a060020a03821615610ae657610ae682610bc8565b6106c781610746565b600a54610100900460ff1690565b600354600160a060020a03163314610b9c57604080517f08c379a000000000000000000000000000000000000000000000000000000000815260206004820152603360248201527f416374696f6e2063616e206f6e6c7920626520706572666f726d65642062792060448201527f746865206f776e696e6720636f6e747261637400000000000000000000000000606482015290519081900360840190fd5b6005544201600655565b600a5460ff1690565b600a805482919060ff1916600183600281111561072657fe5b80600160a060020a031663893d20e86040518163ffffffff1660e060020a02815260040160206040518083038186803b158015610c0457600080fd5b505afa158015610c18573d6000803e3d6000fd5b505050506040513d6020811015610c2e57600080fd5b5051604051600160a060020a0390911690303180156108fc02916000818181858888f193505050501580156106c7573d6000803e3d6000fd5b600054600160a060020a031690565b6002805473ffffffffffffffffffffffffffffffffffffffff1916600160a060020a0392909216919091179055565b828054600181600116156101000203166002900490600052602060002090601f016020900481019282601f10610ce657805160ff1916838001178555610d13565b82800160010185558215610d13579182015b82811115610d13578251825591602001919060010190610cf8565b50610d1f929150610d33565b5090565b6040516103b480610d4e83390190565b61061b91905b80821115610d1f5760008155600101610d3956fe608060405234801561001057600080fd5b506040516060806103b48339810180604052606081101561003057600080fd5b508051602082015160409092015160008054600160a060020a03938416600160a060020a03199182161790915560018054948416948216949094179093556002805492909116919092161790556103288061008c6000396000f3fe6080604052600436106100775763ffffffff7c01000000000000000000000000000000000000000000000000000000006000350416630b957629811461007c57806315f6c1341461007c578063349590c3146100ea578063415899f31461011f57806353707b4c1461014c5780638886181814610189575b600080fd5b34801561008857600080fd5b506100a96004803603602081101561009f57600080fd5b503560ff166101b6565b60405173ffffffffffffffffffffffffffffffffffffffff83168152602081018260088111156100d557fe5b60ff1681526020019250505060405180910390f35b3480156100f657600080fd5b506100a96004803603604081101561010d57600080fd5b5060ff813581169160200135166101fc565b34801561012b57600080fd5b506100a96004803603602081101561014257600080fd5b503560ff16610252565b34801561015857600080fd5b506100a96004803603606081101561016f57600080fd5b50803515159060ff60208201358116916040013516610297565b34801561019557600080fd5b506100a9600480360360208110156101ac57600080fd5b503560ff166102c4565b60008060028360028111156101c757fe5b14156101ef57505060025473ffffffffffffffffffffffffffffffffffffffff1660066101f7565b506000905060075b915091565b600080600284600281111561020d57fe5b14156102255761021c836101b6565b9150915061024b565b600084600281111561023357fe5b14156102425761021c83610252565b61021c836101b6565b9250929050565b600080600283600281111561026357fe5b141561027557506000905060086101f7565b505060015473ffffffffffffffffffffffffffffffffffffffff1660066101f7565b60008084156102b3576102aa84846101fc565b915091506102bc565b6102aa846102c4565b935093915050565b600080808360028111156102d457fe5b14156101ef57505060015473ffffffffffffffffffffffffffffffffffffffff1660066101f756fea165627a7a7230582089f6309960b8ce70341b9cf754dad47a61214fd2b26bcbdc8c02709894aa3dfd0029a165627a7a7230582020f433005aab771a8800f3c84239153b83d52e5572060bd7bbc5ff9ad874181d0029a265627a7a7230582048cbcab8405bf7420e5b459ae2a079b4dd4bffd1b8a4f053dcb4e7a5852ad8766c6578706572696d656e74616cf50037",
  "source": "pragma solidity ^0.5.0;\r\npragma experimental ABIEncoderV2;\r\n\r\nimport \"./ProcessData.sol\";\r\nimport \"./IActor.sol\";\r\nimport \"./Enums.sol\";\r\n\r\ncontract Protocol {\r\n\r\n    address[] private Mitigators;\r\n\taddress[] private Targets;\r\n    address[] private CurrentProcesses;\r\n\r\n    event ProcessDataCreated(address _from, ProcessData addr);\r\n\tevent MitigatorCreated(address _from, IActor addr);\r\n\tevent TargetCreated(address _from, IActor addr);\r\n\tevent FundsReceived(uint256 value);\r\n\t\r\n\tfunction() external payable{\r\n\t\temit FundsReceived(msg.value);\r\n\t}\r\n\t\r\n\t\r\n    function registerMitigator(address payable _MitigatorOwner,uint256 PricePerUnit,string memory NetworkName) public returns(address){\r\n        IActor Mitigator = new IActor(_MitigatorOwner,PricePerUnit,NetworkName);\r\n        Mitigators.push(Mitigator.getAddress());\r\n\t\temit MitigatorCreated(msg.sender,Mitigator);\r\n        return Mitigator.getAddress();\r\n    }\r\n\t\r\n\tfunction registerTarget(address payable _TargetOwner,uint256 PricePerUnit,string memory NetworkName) public returns(address){\r\n        IActor Target = new IActor(_TargetOwner,PricePerUnit,NetworkName);\r\n        Targets.push(Target.getAddress());\r\n\t\temit TargetCreated(msg.sender,Target);\r\n        return Target.getAddress();\r\n    }\r\n\r\n    function init(address _Mitigator,uint _DeadlineInterval,uint256 _OfferedFunds,string memory _ListOfAddresses, uint _NumberOfAddresses) \r\n    public \r\n    returns (ProcessData){\r\n        \r\n        require(bytes(_ListOfAddresses).length >0,\"no addresses provided\");\r\n        require(isMitigator(_Mitigator),\"no mitigator\");\r\n        require(IActor(_Mitigator).isOfferAcceptable(_OfferedFunds,_NumberOfAddresses),\"Funds too low\");\r\n        require(senderIsTarget(msg.sender),\"Sender is not registered as a Target\");\r\n\t\t\r\n        IActor _Target = IActor(getTarget(msg.sender));\r\n        ProcessData newProcessData = new ProcessData(_Target.getAddress(),_Mitigator,_DeadlineInterval,_OfferedFunds,_ListOfAddresses);\r\n        CurrentProcesses.push(newProcessData.getAddress());\r\n\t\temit ProcessDataCreated(msg.sender,newProcessData);\r\n\t\t\r\n        return newProcessData;\r\n    }\r\n\r\n    function approve(address payable process,bool descision) \r\n    public\r\n    returns (ProcessData){\r\n        \r\n        require(isProcess(process),\"Process does not exist\");\r\n        require(canSenderAdvance(process,Enums.State.APPROVE),\"Sender is not allowed\");\r\n        \r\n        ProcessData ProcessToUse = ProcessData(process);\r\n        \r\n        if(descision){\r\n            ProcessToUse.setState(Enums.State.FUNDING);\r\n            ProcessToUse.setNextActor(ProcessToUse.getTarget());\r\n        }else{\r\n            ProcessToUse.setState(Enums.State.ABORT);\r\n\t\t\tProcessToUse.setNextActor(ProcessToUse.getTarget());\r\n        }\r\n  \r\n        return ProcessToUse;\r\n    }\r\n    \r\n    function sendFunds(address payable process) \r\n    public\r\n    payable\r\n    returns (ProcessData){\r\n        \r\n        require(isProcess(process),\"Process does not exist\");\r\n        require(canSenderAdvance(process,Enums.State.FUNDING),\"Sender is not allowed\");\r\n        \r\n        ProcessData ProcessToUse = ProcessData(process);\r\n        \r\n        ProcessToUse.getAddress().transfer(msg.value);\r\n        ProcessToUse.setNextActor(ProcessToUse.getMitigator());\r\n        ProcessToUse.setState(Enums.State.PROOF);\r\n        ProcessToUse.setNextDeadline();\r\n        \r\n        return ProcessToUse;\r\n    }\r\n    \r\n    \r\n    function uploadProof(address payable process,string memory _Proof) \r\n    public\r\n    returns (ProcessData){\r\n        \r\n        require(isProcess(process),\"Process does not exist\");\r\n        require(canSenderAdvance(process,Enums.State.PROOF),\"Sender is not allowed\");\r\n        \r\n        ProcessData ProcessToUse = ProcessData(process);\r\n        ProcessToUse.setProof(_Proof);\r\n        ProcessToUse.setNextActor(ProcessToUse.getTarget());\r\n        ProcessToUse.setState(Enums.State.TRATE);\r\n        ProcessToUse.setNextDeadline();\r\n        \r\n        return ProcessToUse;\r\n    }\r\n    \r\n    function ratingByTarget(address payable process,Enums.Rating rating) \r\n    public\r\n    payable\r\n    returns (ProcessData){\r\n        \r\n        require(isProcess(process),\"Process does not exist\");\r\n        require(canSenderAdvance(process,Enums.State.TRATE),\"Sender is not allowed\");\r\n        \r\n        ProcessData ProcessToUse = ProcessData(process);\r\n        \r\n        if(!ProcessToUse.isProofProvided()){\r\n            ProcessToUse.setTargetRating(rating);\r\n\t\t\tProcessToUse.setNextActor(ProcessToUse.getTarget());\r\n            ProcessToUse.executeEvaluation();\r\n            return ProcessToUse;\r\n        }\r\n        \r\n        ProcessToUse.setTargetRating(rating);\r\n        ProcessToUse.setNextActor(ProcessToUse.getMitigator());\r\n        ProcessToUse.setState(Enums.State.MRATE);\r\n        ProcessToUse.setNextDeadline();\r\n        \r\n        return ProcessToUse;\r\n         \r\n    }\r\n    \r\n    function ratingByMitigator(address payable process,Enums.Rating rating) \r\n    public\r\n    payable\r\n    returns (ProcessData){\r\n        \r\n        require(isProcess(process),\"Process does not exist\");\r\n\t\t\r\n        require(canSenderAdvance(process,Enums.State.MRATE),\"Sender is not allowed to advance due to: \");\r\n        \r\n        ProcessData ProcessToUse = ProcessData(process);\r\n        ProcessToUse.setMitigatorRating(rating);\r\n\t\tProcessToUse.setNextActor(ProcessToUse.getTarget());\r\n        ProcessToUse.executeEvaluation();\r\n\r\n        return ProcessToUse;\r\n    }\r\n\t\r\n\tfunction skipCurrentState(address payable process) public returns(ProcessData){\r\n\t\t\r\n\t\trequire(isProcess(process),\"Process not found\");\r\n        ProcessData CurrentProcess = getProcess(process);\r\n\t\trequire(CurrentProcess.getState()<uint(Enums.State.COMPLETE),\"Process is already aborted, completed or escalated\");\r\n\t\t\r\n\t\tif(CurrentProcess.getState()<uint(Enums.State.PROOF)){\r\n\t\t\trequire(msg.sender== CurrentProcess.getTarget().getOwner(),\"In this state, the process can only be aborted by the initiator\");\r\n\t\t\tCurrentProcess.setState(Enums.State.ABORT);\r\n\t\t\tCurrentProcess.setNextActor(CurrentProcess.getTarget());\r\n\t\t\treturn CurrentProcess;\r\n\t\t}\r\n\t\t\r\n\t\trequire(now>CurrentProcess.getDeadline(),\"Deadline not yet exceeded, please wait\");\r\n\t\r\n\t\tif(CurrentProcess.getNextActor()==CurrentProcess.getTarget()){\r\n\t\t\tCurrentProcess.setNextActor(CurrentProcess.getMitigator());\r\n\t\t}else{\r\n\t\t\tCurrentProcess.setNextActor(CurrentProcess.getTarget());\t\t\t\t\r\n\t\t}\r\n\r\n\t\tif(CurrentProcess.getState()==uint(Enums.State.PROOF)){\r\n\t\t\tCurrentProcess.setState(Enums.State.TRATE);\r\n\t\t}else if(CurrentProcess.getState() == uint(Enums.State.TRATE)){\r\n\t\t\tCurrentProcess.setState(Enums.State.MRATE);\r\n\t\t\tCurrentProcess.setTargetRating(Enums.Rating.NA);\r\n\t\t}else if(CurrentProcess.getState() == uint(Enums.State.MRATE)){\r\n\t\t\tCurrentProcess.setMitigatorRating(Enums.Rating.NA);\r\n\t\t\tCurrentProcess.executeEvaluation();\r\n\t\t}\r\n\t\t\r\n\t\tCurrentProcess.setNextDeadline();\r\n\t\treturn CurrentProcess;\r\n\t}\r\n   \r\n    /*Checks where the sender of the message is the next actor and the state \r\n    of the action to be performed is the one immediately following in the process\r\n    and if deadline is exceeded*/\r\n    function canSenderAdvance(address payable process,Enums.State stateOfOperation) \r\n    private \r\n    view\r\n    returns(bool){\r\n        \r\n\t\trequire(isProcess(process),\"Process not found\");\r\n        ProcessData CurrentProcess = getProcess(process);\r\n\t\t\r\n\t\trequire(CurrentProcess.getNextActor().getOwner() == msg.sender,\"NextActor != Sender\");\r\n\t\trequire(uint(stateOfOperation)==uint(CurrentProcess.getState()),\"State of operation does not match\");\r\n\t\tif(CurrentProcess.getState()>uint(Enums.State.FUNDING)){\r\n\t\t\trequire(now<CurrentProcess.getDeadline(),\"state >=start && now > deadline\");\r\n\t\t}\r\n        return true;\r\n    }\r\n\t\r\n\tfunction getProcess(address payable process) \r\n    public view \r\n    returns(ProcessData){\r\n        for (uint i = 0 ; i < CurrentProcesses.length; i++) {\r\n            if(CurrentProcesses[i]==process){\r\n                return ProcessData(process);\r\n            }\r\n        }\r\n\t\treturn ProcessData(0);\r\n    }\r\n\t\r\n    function getProcesses() \r\n    public view \r\n    returns(address[] memory){\r\n        return CurrentProcesses;\r\n    }\r\n    \r\n\r\n    function getStateOfProcess(address payable process) \r\n    public view \r\n    returns(address payable,address payable,address payable,uint,string memory,uint,uint,uint){\r\n        ProcessData ProcessToUse = ProcessData(process);\r\n        return (ProcessToUse.getTarget().getOwner(),ProcessToUse.getMitigator().getOwner(),ProcessToUse.getNextActor().getOwner()\r\n        ,ProcessToUse.getFunds(),ProcessToUse.getProof(),uint(ProcessToUse.getState())\r\n        ,uint(ProcessToUse.getTargetRating()),uint(ProcessToUse.getMitigatorRating()));\r\n    }\r\n    \r\n    function isProcess(address payable process) \r\n    private view \r\n    returns(bool){\r\n        for (uint i = 0 ; i < CurrentProcesses.length; i++) {\r\n            if(CurrentProcesses[i]==process){\r\n                return true;\r\n            }\r\n        }\r\n        return false;\r\n    }\r\n    \r\n    function isMitigator(address mitigator) \r\n    private view \r\n    returns(bool){\r\n        for (uint i = 0 ; i < Mitigators.length; i++) {\r\n            if(Mitigators[i]==mitigator){\r\n                return true;\r\n            }\r\n        }\r\n        return false;\r\n    }\r\n\t\r\n\tfunction senderIsTarget(address payable owner) \r\n    private view \r\n    returns(bool){\r\n        for (uint i = 0 ; i < Targets.length; i++) {\r\n            if(IActor(Targets[i]).getOwner()==owner){\r\n                return true;\r\n            }\r\n        }\r\n        return false;\r\n    }\r\n\t\r\n\tfunction getTarget(address payable owner) \r\n    private view \r\n    returns(address){\r\n        for (uint i = 0 ; i < Targets.length; i++) {\r\n            if(IActor(Targets[i]).getOwner()==owner){\r\n                return Targets[i];\r\n            }\r\n        }\r\n\t\treturn address(0);\r\n    }\r\n}",
  "sourcePath": "C:/Code/Private/CooperativeSignaling/contracts/Protocol.sol",
  "compiler": {
    "name": "solc",
    "version": "0.5.0+commit.1d4f565a.Emscripten.clang"
  },
  "schemaVersion": "3.0.1",
  "updatedAt": "2019-02-04T20:35:41.997Z",
  "devdoc": {
    "methods": {}
  },
  "userdoc": {
    "methods": {}
  }
}