{
  "contractName": "Protocol",
  "abi": [
    {
      "payable": true,
      "stateMutability": "payable",
      "type": "fallback"
    },
    {
      "anonymous": false,
      "inputs": [
        {
          "indexed": false,
          "name": "_from",
          "type": "address"
        },
        {
          "indexed": false,
          "name": "addr",
          "type": "address"
        }
      ],
      "name": "ProcessDataCreated",
      "type": "event",
      "signature": "0x0882f6c178d03f7e5056c19884ff9dbd841f072c80be76045db6007f9ca30fb5"
    },
    {
      "anonymous": false,
      "inputs": [
        {
          "indexed": false,
          "name": "_from",
          "type": "address"
        },
        {
          "indexed": false,
          "name": "addr",
          "type": "address"
        }
      ],
      "name": "MitigatorCreated",
      "type": "event",
      "signature": "0x00348a694629aa1d95f5871c91c0b8722435ece0397f5913b4c368069f86e7be"
    },
    {
      "anonymous": false,
      "inputs": [
        {
          "indexed": false,
          "name": "_from",
          "type": "address"
        },
        {
          "indexed": false,
          "name": "addr",
          "type": "address"
        }
      ],
      "name": "TargetCreated",
      "type": "event",
      "signature": "0xc2772959c7d8d2b8db9eb70d179850c99c875ab14cc6768dcfbc8c1d1a5793b6"
    },
    {
      "anonymous": false,
      "inputs": [
        {
          "indexed": false,
          "name": "value",
          "type": "uint256"
        }
      ],
      "name": "FundsReceived",
      "type": "event",
      "signature": "0xbcdc7071c1beb6dcf2744621e0b29a2f2432ee20812d9ca5e3d5e8f9308d93a3"
    },
    {
      "constant": false,
      "inputs": [
        {
          "name": "_MitigatorOwner",
          "type": "address"
        },
        {
          "name": "PricePerUnit",
          "type": "uint256"
        },
        {
          "name": "NetworkName",
          "type": "string"
        }
      ],
      "name": "registerMitigator",
      "outputs": [
        {
          "name": "",
          "type": "address"
        }
      ],
      "payable": false,
      "stateMutability": "nonpayable",
      "type": "function",
      "signature": "0x0be796b5"
    },
    {
      "constant": false,
      "inputs": [
        {
          "name": "_TargetOwner",
          "type": "address"
        },
        {
          "name": "PricePerUnit",
          "type": "uint256"
        },
        {
          "name": "NetworkName",
          "type": "string"
        }
      ],
      "name": "registerTarget",
      "outputs": [
        {
          "name": "",
          "type": "address"
        }
      ],
      "payable": false,
      "stateMutability": "nonpayable",
      "type": "function",
      "signature": "0xfb9cb44a"
    },
    {
      "constant": false,
      "inputs": [
        {
          "name": "_Mitigator",
          "type": "address"
        },
        {
          "name": "_DeadlineInterval",
          "type": "uint256"
        },
        {
          "name": "_OfferedFunds",
          "type": "uint256"
        },
        {
          "name": "_ListOfAddresses",
          "type": "string"
        },
        {
          "name": "_NumberOfAddresses",
          "type": "uint256"
        }
      ],
      "name": "init",
      "outputs": [
        {
          "name": "",
          "type": "address"
        }
      ],
      "payable": false,
      "stateMutability": "nonpayable",
      "type": "function",
      "signature": "0x3d99bdc7"
    },
    {
      "constant": false,
      "inputs": [
        {
          "name": "process",
          "type": "address"
        },
        {
          "name": "descision",
          "type": "bool"
        }
      ],
      "name": "approve",
      "outputs": [
        {
          "name": "",
          "type": "address"
        }
      ],
      "payable": false,
      "stateMutability": "nonpayable",
      "type": "function",
      "signature": "0x3d140d21"
    },
    {
      "constant": false,
      "inputs": [
        {
          "name": "process",
          "type": "address"
        }
      ],
      "name": "sendFunds",
      "outputs": [
        {
          "name": "",
          "type": "address"
        }
      ],
      "payable": true,
      "stateMutability": "payable",
      "type": "function",
      "signature": "0xcfe52bdd"
    },
    {
      "constant": false,
      "inputs": [
        {
          "name": "process",
          "type": "address"
        },
        {
          "name": "_Proof",
          "type": "string"
        }
      ],
      "name": "uploadProof",
      "outputs": [
        {
          "name": "",
          "type": "address"
        }
      ],
      "payable": false,
      "stateMutability": "nonpayable",
      "type": "function",
      "signature": "0xc369ac92"
    },
    {
      "constant": false,
      "inputs": [
        {
          "name": "process",
          "type": "address"
        },
        {
          "name": "rating",
          "type": "uint8"
        }
      ],
      "name": "ratingByTarget",
      "outputs": [
        {
          "name": "",
          "type": "address"
        }
      ],
      "payable": true,
      "stateMutability": "payable",
      "type": "function",
      "signature": "0x9cd14d73"
    },
    {
      "constant": false,
      "inputs": [
        {
          "name": "process",
          "type": "address"
        },
        {
          "name": "rating",
          "type": "uint8"
        }
      ],
      "name": "ratingByMitigator",
      "outputs": [
        {
          "name": "",
          "type": "address"
        }
      ],
      "payable": true,
      "stateMutability": "payable",
      "type": "function",
      "signature": "0xcd0a1d60"
    },
    {
      "constant": false,
      "inputs": [
        {
          "name": "process",
          "type": "address"
        }
      ],
      "name": "skipCurrentState",
      "outputs": [
        {
          "name": "",
          "type": "address"
        }
      ],
      "payable": false,
      "stateMutability": "nonpayable",
      "type": "function",
      "signature": "0x2402bea8"
    },
    {
      "constant": true,
      "inputs": [],
      "name": "getProcesses",
      "outputs": [
        {
          "name": "",
          "type": "address[]"
        }
      ],
      "payable": false,
      "stateMutability": "view",
      "type": "function",
      "signature": "0x6e52b239"
    },
    {
      "constant": true,
      "inputs": [
        {
          "name": "process",
          "type": "address"
        }
      ],
      "name": "getStateOfProcess",
      "outputs": [
        {
          "name": "",
          "type": "address"
        },
        {
          "name": "",
          "type": "address"
        },
        {
          "name": "",
          "type": "address"
        },
        {
          "name": "",
          "type": "uint256"
        },
        {
          "name": "",
          "type": "string"
        },
        {
          "name": "",
          "type": "uint256"
        },
        {
          "name": "",
          "type": "uint256"
        },
        {
          "name": "",
          "type": "uint256"
        }
      ],
      "payable": false,
      "stateMutability": "view",
      "type": "function",
      "signature": "0x4152d427"
    }
  ],
  "bytecode": "0x608060405234801561001057600080fd5b50614881806100206000396000f3fe608060405260043610620000a15763ffffffff60e060020a6000350416630be796b58114620000dc5780632402bea814620001195780633d140d21146200014d5780633d99bdc714620001725780634152d42714620001975780636e52b23914620001d25780639cd14d7314620001f9578063c369ac921462000210578063cd0a1d601462000235578063cfe52bdd146200024c578063fb9cb44a1462000263575b7fbcdc7071c1beb6dcf2744621e0b29a2f2432ee20812d9ca5e3d5e8f9308d93a334604051620000d2919062002cbf565b60405180910390a1005b348015620000e957600080fd5b5062000101620000fb366004620023c7565b62000288565b60405162000110919062002a18565b60405180910390f35b3480156200012657600080fd5b506200013e62000138366004620022e4565b6200043d565b60405162000110919062002b80565b3480156200015a57600080fd5b506200013e6200016c36600462002305565b62000a44565b3480156200017f57600080fd5b506200013e6200019136600462002434565b62000b92565b348015620001a457600080fd5b50620001bc620001b6366004620022e4565b62000ea2565b6040516200011098979695949392919062002a28565b348015620001df57600080fd5b50620001ea62001410565b60405162000110919062002b6d565b6200013e6200020a36600462002344565b62001474565b3480156200021d57600080fd5b506200013e6200022f36600462002379565b62001673565b6200013e6200024636600462002344565b62001791565b6200013e6200025d366004620022e4565b620018af565b3480156200027057600080fd5b506200010162000282366004620023c7565b62001a07565b6000808484846200029862002172565b620002a69392919062002ad5565b604051809103906000f080158015620002c3573d6000803e3d6000fd5b509050600081600160a060020a03166338cc48316040518163ffffffff1660e060020a02815260040160206040518083038186803b1580156200030557600080fd5b505afa1580156200031a573d6000803e3d6000fd5b505050506040513d601f19601f82011682018060405250620003409190810190620022bb565b815460018101835560009283526020909220909101805473ffffffffffffffffffffffffffffffffffffffff1916600160a060020a039092169190911790556040517e348a694629aa1d95f5871c91c0b8722435ece0397f5913b4c368069f86e7be90620003b2903390849062002ab6565b60405180910390a180600160a060020a03166338cc48316040518163ffffffff1660e060020a02815260040160206040518083038186803b158015620003f757600080fd5b505afa1580156200040c573d6000803e3d6000fd5b505050506040513d601f19601f82011682018060405250620004329190810190620022bb565b9150505b9392505050565b60006200044a8262001b32565b1515620004775760405160e560020a62461bcd0281526004016200046e9062002bc3565b60405180910390fd5b6000620004848362001b94565b9050600681600160a060020a0316631865c57d6040518163ffffffff1660e060020a02815260040160206040518083038186803b158015620004c557600080fd5b505afa158015620004da573d6000803e3d6000fd5b505050506040513d601f19601f8201168201806040525062000500919081019062002569565b10620005235760405160e560020a62461bcd0281526004016200046e9062002be7565b600381600160a060020a0316631865c57d6040518163ffffffff1660e060020a02815260040160206040518083038186803b1580156200056257600080fd5b505afa15801562000577573d6000803e3d6000fd5b505050506040513d601f19601f820116820180604052506200059d919081019062002569565b1015620007465780600160a060020a031663f00e6a2a6040518163ffffffff1660e060020a02815260040160206040518083038186803b158015620005e157600080fd5b505afa158015620005f6573d6000803e3d6000fd5b505050506040513d601f19601f820116820180604052506200061c9190810190620024ee565b600160a060020a031663893d20e86040518163ffffffff1660e060020a02815260040160206040518083038186803b1580156200065857600080fd5b505afa1580156200066d573d6000803e3d6000fd5b505050506040513d601f19601f82011682018060405250620006939190810190620022bb565b600160a060020a03163314620006c05760405160e560020a62461bcd0281526004016200046e9062002c65565b6040517faa2515d3000000000000000000000000000000000000000000000000000000008152600160a060020a0382169063aa2515d390620007089060079060040162002ba0565b600060405180830381600087803b1580156200072357600080fd5b505af115801562000738573d6000803e3d6000fd5b505050508091505062000a3f565b80600160a060020a0316635f8d96de6040518163ffffffff1660e060020a02815260040160206040518083038186803b1580156200078357600080fd5b505afa15801562000798573d6000803e3d6000fd5b505050506040513d601f19601f82011682018060405250620007be919081019062002569565b4211620007e25760405160e560020a62461bcd0281526004016200046e9062002c77565b600481600160a060020a0316631865c57d6040518163ffffffff1660e060020a02815260040160206040518083038186803b1580156200082157600080fd5b505afa15801562000836573d6000803e3d6000fd5b505050506040513d601f19601f820116820180604052506200085c919081019062002569565b1415620008e5576040517fa3bbb090000000000000000000000000000000000000000000000000000000008152600160a060020a0382169063a3bbb09090620008ab9060019060040162002b90565b600060405180830381600087803b158015620008c657600080fd5b505af1158015620008db573d6000803e3d6000fd5b50505050620009e3565b600581600160a060020a0316631865c57d6040518163ffffffff1660e060020a02815260040160206040518083038186803b1580156200092457600080fd5b505afa15801562000939573d6000803e3d6000fd5b505050506040513d601f19601f820116820180604052506200095f919081019062002569565b1415620009e3576040517f1dc9b284000000000000000000000000000000000000000000000000000000008152600160a060020a03821690631dc9b28490620009ae9060019060040162002b90565b600060405180830381600087803b158015620009c957600080fd5b505af1158015620009de573d6000803e3d6000fd5b505050505b80600160a060020a03166384ecdaf66040518163ffffffff1660e060020a028152600401600060405180830381600087803b15801562000a2257600080fd5b505af115801562000a37573d6000803e3d6000fd5b509293505050505b919050565b600062000a518362001b32565b151562000a755760405160e560020a62461bcd0281526004016200046e9062002c0b565b62000a8283600162001bec565b151562000aa65760405160e560020a62461bcd0281526004016200046e9062002cad565b82821562000b0c5780600160a060020a03166384ecdaf66040518163ffffffff1660e060020a028152600401600060405180830381600087803b15801562000aed57600080fd5b505af115801562000b02573d6000803e3d6000fd5b5050505062000b89565b6040517faa2515d3000000000000000000000000000000000000000000000000000000008152600160a060020a0382169063aa2515d39062000b549060079060040162002ba0565b600060405180830381600087803b15801562000b6f57600080fd5b505af115801562000b84573d6000803e3d6000fd5b505050505b90505b92915050565b600080835111151562000bbc5760405160e560020a62461bcd0281526004016200046e9062002c53565b62000bc78662001f20565b151562000beb5760405160e560020a62461bcd0281526004016200046e9062002c89565b6040517fa5ebeaa4000000000000000000000000000000000000000000000000000000008152600160a060020a0387169063a5ebeaa49062000c34908790869060040162002ccf565b60206040518083038186803b15801562000c4d57600080fd5b505afa15801562000c62573d6000803e3d6000fd5b505050506040513d601f19601f8201168201806040525062000c889190810190620024cd565b151562000cac5760405160e560020a62461bcd0281526004016200046e9062002c1d565b62000cb73362001f79565b151562000cdb5760405160e560020a62461bcd0281526004016200046e9062002bf9565b600062000ce83362002064565b9050600081600160a060020a03166338cc48316040518163ffffffff1660e060020a02815260040160206040518083038186803b15801562000d2957600080fd5b505afa15801562000d3e573d6000803e3d6000fd5b505050506040513d601f19601f8201168201806040525062000d649190810190620022bb565b8888888862000d7262002183565b62000d8295949392919062002b11565b604051809103906000f08015801562000d9f573d6000803e3d6000fd5b509050600281600160a060020a03166338cc48316040518163ffffffff1660e060020a02815260040160206040518083038186803b15801562000de157600080fd5b505afa15801562000df6573d6000803e3d6000fd5b505050506040513d601f19601f8201168201806040525062000e1c9190810190620022bb565b815460018101835560009283526020909220909101805473ffffffffffffffffffffffffffffffffffffffff1916600160a060020a039092169190911790556040517f0882f6c178d03f7e5056c19884ff9dbd841f072c80be76045db6007f9ca30fb59062000e8f903390849062002ab6565b60405180910390a1979650505050505050565b600080600080606060008060008089905080600160a060020a031663f00e6a2a6040518163ffffffff1660e060020a02815260040160206040518083038186803b15801562000ef057600080fd5b505afa15801562000f05573d6000803e3d6000fd5b505050506040513d601f19601f8201168201806040525062000f2b9190810190620024ee565b600160a060020a031663893d20e86040518163ffffffff1660e060020a02815260040160206040518083038186803b15801562000f6757600080fd5b505afa15801562000f7c573d6000803e3d6000fd5b505050506040513d601f19601f8201168201806040525062000fa29190810190620022bb565b81600160a060020a03166350b1be266040518163ffffffff1660e060020a02815260040160206040518083038186803b15801562000fdf57600080fd5b505afa15801562000ff4573d6000803e3d6000fd5b505050506040513d601f19601f820116820180604052506200101a9190810190620024ee565b600160a060020a031663893d20e86040518163ffffffff1660e060020a02815260040160206040518083038186803b1580156200105657600080fd5b505afa1580156200106b573d6000803e3d6000fd5b505050506040513d601f19601f82011682018060405250620010919190810190620022bb565b82600160a060020a0316631b3e7c4b6040518163ffffffff1660e060020a02815260040160206040518083038186803b158015620010ce57600080fd5b505afa158015620010e3573d6000803e3d6000fd5b505050506040513d601f19601f82011682018060405250620011099190810190620024ee565b600160a060020a031663893d20e86040518163ffffffff1660e060020a02815260040160206040518083038186803b1580156200114557600080fd5b505afa1580156200115a573d6000803e3d6000fd5b505050506040513d601f19601f82011682018060405250620011809190810190620022bb565b83600160a060020a0316634d9b37356040518163ffffffff1660e060020a02815260040160206040518083038186803b158015620011bd57600080fd5b505afa158015620011d2573d6000803e3d6000fd5b505050506040513d601f19601f82011682018060405250620011f8919081019062002569565b84600160a060020a0316635c5d625e6040518163ffffffff1660e060020a02815260040160006040518083038186803b1580156200123557600080fd5b505afa1580156200124a573d6000803e3d6000fd5b505050506040513d6000823e601f3d908101601f1916820160405262001274919081019062002530565b85600160a060020a0316631865c57d6040518163ffffffff1660e060020a02815260040160206040518083038186803b158015620012b157600080fd5b505afa158015620012c6573d6000803e3d6000fd5b505050506040513d601f19601f82011682018060405250620012ec919081019062002569565b86600160a060020a0316639ed5b5026040518163ffffffff1660e060020a02815260040160206040518083038186803b1580156200132957600080fd5b505afa1580156200133e573d6000803e3d6000fd5b505050506040513d601f19601f820116820180604052506200136491908101906200250f565b60028111156200137057fe5b87600160a060020a03166390f3213d6040518163ffffffff1660e060020a02815260040160206040518083038186803b158015620013ad57600080fd5b505afa158015620013c2573d6000803e3d6000fd5b505050506040513d601f19601f82011682018060405250620013e891908101906200250f565b6002811115620013f457fe5b9850985098509850985098509850985050919395975091939597565b606060028054806020026020016040519081016040528092919081815260200182805480156200146a57602002820191906000526020600020905b8154600160a060020a031681526001909101906020018083116200144b575b5050505050905090565b6000620014818362001b32565b1515620014a55760405160e560020a62461bcd0281526004016200046e9062002c0b565b620014b283600462001bec565b1515620014d65760405160e560020a62461bcd0281526004016200046e9062002cad565b6040517fa3bbb0900000000000000000000000000000000000000000000000000000000081528390600160a060020a0382169063a3bbb090906200151f90869060040162002b90565b600060405180830381600087803b1580156200153a57600080fd5b505af11580156200154f573d6000803e3d6000fd5b5050505080600160a060020a031663620ae1c76040518163ffffffff1660e060020a02815260040160206040518083038186803b1580156200159057600080fd5b505afa158015620015a5573d6000803e3d6000fd5b505050506040513d601f19601f82011682018060405250620015cb9190810190620024cd565b1515620016345780600160a060020a031663841eb45a6040518163ffffffff1660e060020a028152600401600060405180830381600087803b1580156200161157600080fd5b505af115801562001626573d6000803e3d6000fd5b505050508091505062000b8c565b80600160a060020a03166384ecdaf66040518163ffffffff1660e060020a028152600401600060405180830381600087803b15801562000b6f57600080fd5b6000620016808362001b32565b1515620016a45760405160e560020a62461bcd0281526004016200046e9062002c0b565b620016b183600362001bec565b1515620016d55760405160e560020a62461bcd0281526004016200046e9062002cad565b6040517f15336f800000000000000000000000000000000000000000000000000000000081528390600160a060020a038216906315336f80906200171e90869060040162002bb0565b600060405180830381600087803b1580156200173957600080fd5b505af11580156200174e573d6000803e3d6000fd5b5050505080600160a060020a03166384ecdaf66040518163ffffffff1660e060020a028152600401600060405180830381600087803b15801562000b6f57600080fd5b60006200179e8362001b32565b1515620017c25760405160e560020a62461bcd0281526004016200046e9062002c0b565b620017cf83600562001bec565b1515620017f35760405160e560020a62461bcd0281526004016200046e9062002c9b565b6040517f1dc9b2840000000000000000000000000000000000000000000000000000000081528390600160a060020a03821690631dc9b284906200183c90869060040162002b90565b600060405180830381600087803b1580156200185757600080fd5b505af11580156200186c573d6000803e3d6000fd5b5050505080600160a060020a031663841eb45a6040518163ffffffff1660e060020a028152600401600060405180830381600087803b15801562000b6f57600080fd5b6000620018bc8262001b32565b1515620018e05760405160e560020a62461bcd0281526004016200046e9062002c0b565b620018ed82600262001bec565b1515620019115760405160e560020a62461bcd0281526004016200046e9062002cad565b600082905080600160a060020a03166338cc48316040518163ffffffff1660e060020a02815260040160206040518083038186803b1580156200195357600080fd5b505afa15801562001968573d6000803e3d6000fd5b505050506040513d601f19601f820116820180604052506200198e9190810190620022bb565b600160a060020a03166108fc349081150290604051600060405180830381858888f19350505050158015620019c7573d6000803e3d6000fd5b5080600160a060020a03166384ecdaf66040518163ffffffff1660e060020a028152600401600060405180830381600087803b15801562000a2257600080fd5b60008084848462001a1762002172565b62001a259392919062002ad5565b604051809103906000f08015801562001a42573d6000803e3d6000fd5b509050600181600160a060020a03166338cc48316040518163ffffffff1660e060020a02815260040160206040518083038186803b15801562001a8457600080fd5b505afa15801562001a99573d6000803e3d6000fd5b505050506040513d601f19601f8201168201806040525062001abf9190810190620022bb565b815460018101835560009283526020909220909101805473ffffffffffffffffffffffffffffffffffffffff1916600160a060020a039092169190911790556040517fc2772959c7d8d2b8db9eb70d179850c99c875ab14cc6768dcfbc8c1d1a5793b690620003b2903390849062002ab6565b6000805b60025481101562001b8b5782600160a060020a031660028281548110151562001b5b57fe5b600091825260209091200154600160a060020a0316141562001b8257600191505062000a3f565b60010162001b36565b50600092915050565b6000805b60025481101562001b8b5782600160a060020a031660028281548110151562001bbd57fe5b600091825260209091200154600160a060020a0316141562001be3578291505062000a3f565b60010162001b98565b600062001bf98362001b32565b151562001c1d5760405160e560020a62461bcd0281526004016200046e9062002bc3565b600062001c2a8462001b94565b905033600160a060020a031681600160a060020a0316631b3e7c4b6040518163ffffffff1660e060020a02815260040160206040518083038186803b15801562001c7357600080fd5b505afa15801562001c88573d6000803e3d6000fd5b505050506040513d601f19601f8201168201806040525062001cae9190810190620024ee565b600160a060020a031663893d20e86040518163ffffffff1660e060020a02815260040160206040518083038186803b15801562001cea57600080fd5b505afa15801562001cff573d6000803e3d6000fd5b505050506040513d601f19601f8201168201806040525062001d259190810190620022bb565b600160a060020a03161462001d515760405160e560020a62461bcd0281526004016200046e9062002c41565b80600160a060020a0316631865c57d6040518163ffffffff1660e060020a02815260040160206040518083038186803b15801562001d8e57600080fd5b505afa15801562001da3573d6000803e3d6000fd5b505050506040513d601f19601f8201168201806040525062001dc9919081019062002569565b83600881111562001dd657fe5b1462001df95760405160e560020a62461bcd0281526004016200046e9062002bd5565b600281600160a060020a0316631865c57d6040518163ffffffff1660e060020a02815260040160206040518083038186803b15801562001e3857600080fd5b505afa15801562001e4d573d6000803e3d6000fd5b505050506040513d601f19601f8201168201806040525062001e73919081019062002569565b111562001f165780600160a060020a0316635f8d96de6040518163ffffffff1660e060020a02815260040160206040518083038186803b15801562001eb757600080fd5b505afa15801562001ecc573d6000803e3d6000fd5b505050506040513d601f19601f8201168201806040525062001ef2919081019062002569565b421062001f165760405160e560020a62461bcd0281526004016200046e9062002c2f565b5060019392505050565b6000805b60005481101562001b8b5782600160a060020a031660008281548110151562001f4957fe5b600091825260209091200154600160a060020a0316141562001f7057600191505062000a3f565b60010162001f24565b6000805b60015481101562001b8b5782600160a060020a031660018281548110151562001fa257fe5b60009182526020918290200154604080517f893d20e80000000000000000000000000000000000000000000000000000000081529051600160a060020a039092169263893d20e892600480840193829003018186803b1580156200200557600080fd5b505afa1580156200201a573d6000803e3d6000fd5b505050506040513d601f19601f82011682018060405250620020409190810190620022bb565b600160a060020a031614156200205b57600191505062000a3f565b60010162001f7d565b6000805b60015481101562001b8b5782600160a060020a03166001828154811015156200208d57fe5b60009182526020918290200154604080517f893d20e80000000000000000000000000000000000000000000000000000000081529051600160a060020a039092169263893d20e892600480840193829003018186803b158015620020f057600080fd5b505afa15801562002105573d6000803e3d6000fd5b505050506040513d601f19601f820116820180604052506200212b9190810190620022bb565b600160a060020a03161415620021695760018054829081106200214a57fe5b600091825260209091200154600160a060020a0316915062000a3f9050565b60010162002068565b6040516104b68062002e1683390190565b60405161157c80620032cc83390190565b600062000436823562002d49565b600062000436825162002d49565b600062000436823562002d83565b600062000436825162002d83565b600062000436825162002d88565b600062000436823562002d95565b600062000436825162002d95565b6000601f820183136200220857600080fd5b81356200221f620022198262002d16565b62002cee565b915080825260208301602083018583830111156200223c57600080fd5b6200224983828462002dcc565b50505092915050565b6000601f820183136200226457600080fd5b815162002275620022198262002d16565b915080825260208301602083018583830111156200229257600080fd5b6200224983828462002dd8565b600062000436823562002d80565b600062000436825162002d80565b600060208284031215620022ce57600080fd5b6000620022dc8484620021a2565b949350505050565b600060208284031215620022f757600080fd5b6000620022dc848462002194565b600080604083850312156200231957600080fd5b600062002327858562002194565b92505060206200233a85828601620021b0565b9150509250929050565b600080604083850312156200235857600080fd5b600062002366858562002194565b92505060206200233a85828601620021da565b600080604083850312156200238d57600080fd5b60006200239b858562002194565b925050602083013567ffffffffffffffff811115620023b957600080fd5b6200233a85828601620021f6565b600080600060608486031215620023dd57600080fd5b6000620023eb868662002194565b9350506020620023fe868287016200229f565b925050604084013567ffffffffffffffff8111156200241c57600080fd5b6200242a86828701620021f6565b9150509250925092565b600080600080600060a086880312156200244d57600080fd5b60006200245b888862002194565b95505060206200246e888289016200229f565b945050604062002481888289016200229f565b935050606086013567ffffffffffffffff8111156200249f57600080fd5b620024ad88828901620021f6565b9250506080620024c0888289016200229f565b9150509295509295909350565b600060208284031215620024e057600080fd5b6000620022dc8484620021be565b6000602082840312156200250157600080fd5b6000620022dc8484620021cc565b6000602082840312156200252257600080fd5b6000620022dc8484620021e8565b6000602082840312156200254357600080fd5b815167ffffffffffffffff8111156200255b57600080fd5b620022dc8482850162002252565b6000602082840312156200257c57600080fd5b6000620022dc8484620022ad565b620025958162002da5565b82525050565b620025958162002d49565b6000620025b38262002d45565b808452602084019350620025c78362002d3f565b60005b82811015620025fd57620025e08683516200259b565b620025eb8262002d3f565b602096909601959150600101620025ca565b5093949350505050565b620025958162002d88565b620025958162002db2565b620025958162002dbf565b6000620026358262002d45565b8084526200264b81602086016020860162002dd8565b620026568162002e0b565b9093016020019392505050565b601181527f50726f63657373206e6f7420666f756e64000000000000000000000000000000602082015260400190565b602181527f5374617465206f66206f7065726174696f6e20646f6573206e6f74206d61746360208201527f6800000000000000000000000000000000000000000000000000000000000000604082015260600190565b603281527f50726f6365737320697320616c72656164792061626f727465642c20636f6d7060208201527f6c65746564206f7220657363616c617465640000000000000000000000000000604082015260600190565b602481527f53656e646572206973206e6f742072656769737465726564206173206120546160208201527f7267657400000000000000000000000000000000000000000000000000000000604082015260600190565b601681527f50726f6365737320646f6573206e6f7420657869737400000000000000000000602082015260400190565b600d81527f46756e647320746f6f206c6f7700000000000000000000000000000000000000602082015260400190565b603881527f5374617465203e2046756e64696e67202626206e6f77203e20646561646c696e60208201527f652c20706c6561736520736b6970207468652073746174650000000000000000604082015260600190565b601381527f4e6578744163746f7220213d2053656e64657200000000000000000000000000602082015260400190565b601581527f6e6f206164647265737365732070726f76696465640000000000000000000000602082015260400190565b603f81527f496e20746869732073746174652c207468652070726f636573732063616e206f60208201527f6e6c792062652061626f727465642062792074686520696e69746961746f7200604082015260600190565b602681527f446561646c696e65206e6f74207965742065786365656465642c20706c65617360208201527f6520776169740000000000000000000000000000000000000000000000000000604082015260600190565b600c81527f6e6f206d6974696761746f720000000000000000000000000000000000000000602082015260400190565b602981527f53656e646572206973206e6f7420616c6c6f77656420746f20616476616e636560208201527f2064756520746f3a200000000000000000000000000000000000000000000000604082015260600190565b601581527f53656e646572206973206e6f7420616c6c6f7765640000000000000000000000602082015260400190565b620025958162002d80565b6020810162000b8c82846200259b565b610100810162002a39828b6200259b565b62002a48602083018a6200259b565b62002a5760408301896200259b565b62002a66606083018862002a0d565b818103608083015262002a7a818762002628565b905062002a8b60a083018662002a0d565b62002a9a60c083018562002a0d565b62002aa960e083018462002a0d565b9998505050505050505050565b6040810162002ac682856200258a565b62000436602083018462002607565b6060810162002ae582866200259b565b62002af4602083018562002a0d565b818103604083015262002b08818462002628565b95945050505050565b60a0810162002b2182886200259b565b62002b3060208301876200259b565b62002b3f604083018662002a0d565b62002b4e606083018562002a0d565b818103608083015262002b62818462002628565b979650505050505050565b60208082528101620004368184620025a6565b6020810162000b8c828462002607565b6020810162000b8c828462002612565b6020810162000b8c82846200261d565b6020808252810162000436818462002628565b6020808252810162000b8c8162002663565b6020808252810162000b8c8162002693565b6020808252810162000b8c81620026e9565b6020808252810162000b8c816200273f565b6020808252810162000b8c8162002795565b6020808252810162000b8c81620027c5565b6020808252810162000b8c81620027f5565b6020808252810162000b8c816200284b565b6020808252810162000b8c816200287b565b6020808252810162000b8c81620028ab565b6020808252810162000b8c8162002901565b6020808252810162000b8c8162002957565b6020808252810162000b8c8162002987565b6020808252810162000b8c81620029dd565b6020810162000b8c828462002a0d565b6040810162002cdf828562002a0d565b62000436602083018462002a0d565b60405181810167ffffffffffffffff8111828210171562002d0e57600080fd5b604052919050565b600067ffffffffffffffff82111562002d2e57600080fd5b506020601f91909101601f19160190565b60200190565b5190565b600062000b8c8262002d74565b60006003821062002d6357fe5b5090565b60006009821062002d6357fe5b600160a060020a031690565b90565b151590565b600062000b8c8262002d49565b60006003821062002d6357600080fd5b600062000b8c8262002d88565b600062000b8c8262002d56565b600062000b8c8262002d67565b82818337506000910152565b60005b8381101562002df557818101518382015260200162002ddb565b8381111562002e05576000848401525b50505050565b601f01601f19169056fe608060405234801561001057600080fd5b506040516104b63803806104b68339810180604052606081101561003357600080fd5b815160208301516040840180519294919382019264010000000081111561005957600080fd5b8201602081018481111561006c57600080fd5b815164010000000081118282018710171561008657600080fd5b505060008054600160a060020a031916600160a060020a038816179055600185905580519093506100c092506002915060208401906100c9565b50505050610164565b828054600181600116156101000203166002900490600052602060002090601f016020900481019282601f1061010a57805160ff1916838001178555610137565b82800160010185558215610137579182015b8281111561013757825182559160200191906001019061011c565b50610143929150610147565b5090565b61016191905b80821115610143576000815560010161014d565b90565b610343806101736000396000f3fe60806040526004361061006c5763ffffffff7c010000000000000000000000000000000000000000000000000000000060003504166307e4b7e9811461007157806338cc4831146100fb578063893d20e814610139578063a5ebeaa41461014e578063a7cc53f514610192575b600080fd5b34801561007d57600080fd5b506100866101b9565b6040805160208082528351818301528351919283929083019185019080838360005b838110156100c05781810151838201526020016100a8565b50505050905090810190601f1680156100ed5780820380516001836020036101000a031916815260200191505b509250505060405180910390f35b34801561010757600080fd5b5061011061024c565b6040805173ffffffffffffffffffffffffffffffffffffffff9092168252519081900360200190f35b34801561014557600080fd5b50610110610250565b34801561015a57600080fd5b5061017e6004803603604081101561017157600080fd5b508035906020013561026c565b604080519115158252519081900360200190f35b34801561019e57600080fd5b506101a7610311565b60408051918252519081900360200190f35b60028054604080516020601f60001961010060018716150201909416859004938401819004810282018101909252828152606093909290918301828280156102425780601f1061021757610100808354040283529160200191610242565b820191906000526020600020905b81548152906001019060200180831161022557829003601f168201915b5050505050905090565b3090565b60005473ffffffffffffffffffffffffffffffffffffffff1690565b600154600090820283101561030857604080517f08c379a000000000000000000000000000000000000000000000000000000000815260206004820152602d60248201527f4f666665722077617320746f6f206c6f772c20706c656173652070726f76696460448201527f65206d6f72652066756e64732e00000000000000000000000000000000000000606482015290519081900360840190fd5b50600192915050565b6001549056fea165627a7a72305820e916cf7b595291c781971316cdf62e2e04bf2e62afd457f557fa935073dcf2140029608060405260006004556040516200157c3803806200157c833981018060405260a08110156200002e57600080fd5b8151602083015160408401516060850151608086018051949693959294919392830192916401000000008111156200006557600080fd5b820160208101848111156200007957600080fd5b81516401000000008111828201871017156200009457600080fd5b50506003805433600160a060020a0319918216179091556004869055600080548216600160a060020a038b8116919091179091556001805483168a83161780825560028054919093169316929092179055426007556009805460ff1916909117905560058690558051909350620001159250600b9150602084019062000121565b505050505050620001c6565b828054600181600116156101000203166002900490600052602060002090601f016020900481019282601f106200016457805160ff191683800117855562000194565b8280016001018555821562000194579182015b828111156200019457825182559160200191906001019062000177565b50620001a2929150620001a6565b5090565b620001c391905b80821115620001a25760008155600101620001ad565b90565b6113a680620001d66000396000f3fe6080604052600436106101035763ffffffff60e060020a60003504166311adbaad81146101b857806315336f80146102425780631865c57d146102f75780631b3e7c4b1461031e5780631dc9b2841461034f57806338cc48311461037c5780634d9b37351461039157806350b1be26146103a65780635c5d625e146103bb5780635f8d96de146103d0578063620ae1c7146103e55780638271bb351461040e578063841eb45a1461042357806384ecdaf61461043857806390f3213d1461044d5780639b14949a146104865780639ed5b502146104b4578063a3bbb090146104c9578063aa2515d3146104f6578063e39ff19f14610523578063f00e6a2a14610556575b600454341015610183576040805160e560020a62461bcd02815260206004820152603760248201527f506c656173652070726f76696465206174206c65617374207468652066756e6460448201527f7320796f7520696e697469616c6c79206f666665726564000000000000000000606482015290519081900360840190fd5b6040805134815290517fa8142743f8f70a4c26f3691cf4ed59718381fb2f18070ec52be1f1022d8555579181900360200190a1005b3480156101c457600080fd5b506101cd61056b565b6040805160208082528351818301528351919283929083019185019080838360005b838110156102075781810151838201526020016101ef565b50505050905090810190601f1680156102345780820380516001836020036101000a031916815260200191505b509250505060405180910390f35b34801561024e57600080fd5b506102f56004803603602081101561026557600080fd5b81019060208101813564010000000081111561028057600080fd5b82018360208201111561029257600080fd5b803590602001918460018302840111640100000000831117156102b457600080fd5b91908080601f016020809104026020016040519081016040528093929190818152602001838380828437600092019190915250929550610602945050505050565b005b34801561030357600080fd5b5061030c6106fc565b60408051918252519081900360200190f35b34801561032a57600080fd5b50610333610715565b60408051600160a060020a039092168252519081900360200190f35b34801561035b57600080fd5b506102f56004803603602081101561037257600080fd5b503560ff16610724565b34801561038857600080fd5b506103336107ab565b34801561039d57600080fd5b5061030c6107af565b3480156103b257600080fd5b506103336107b4565b3480156103c757600080fd5b506101cd6107c3565b3480156103dc57600080fd5b5061030c610824565b3480156103f157600080fd5b506103fa61082a565b604080519115158252519081900360200190f35b34801561041a57600080fd5b5061030c610858565b34801561042f57600080fd5b506102f561085e565b34801561044457600080fd5b506102f5610b12565b34801561045957600080fd5b50610462610c7d565b6040518082600281111561047257fe5b60ff16815260200191505060405180910390f35b34801561049257600080fd5b5061049b610c8b565b6040805192835260208301919091528051918290030190f35b3480156104c057600080fd5b50610462610c95565b3480156104d557600080fd5b506102f5600480360360208110156104ec57600080fd5b503560ff16610c9e565b34801561050257600080fd5b506102f56004803603602081101561051957600080fd5b503560ff16610d1b565b34801561052f57600080fd5b506102f56004803603602081101561054657600080fd5b5035600160a060020a0316610d8f565b34801561056257600080fd5b50610333610eb6565b600b8054604080516020601f60026000196101006001881615020190951694909404938401819004810282018101909252828152606093909290918301828280156105f75780601f106105cc576101008083540402835291602001916105f7565b820191906000526020600020905b8154815290600101906020018083116105da57829003601f168201915b505050505090505b90565b600354600160a060020a03163314610666576040805160e560020a62461bcd028152602060048201526033602482015260008051602061135b833981519152604482015260008051602061133b833981519152606482015290519081900360840190fd5b80516000106106e5576040805160e560020a62461bcd02815260206004820152602a60248201527f456d70747920737472696e672063616e6e6f742062652061636365707465642060448201527f617320612070726f6f6600000000000000000000000000000000000000000000606482015290519081900360840190fd5b80516106f890600a906020840190610ede565b5050565b60095460009060ff16600881111561071057fe5b905090565b600254600160a060020a031690565b600354600160a060020a03163314610788576040805160e560020a62461bcd028152602060048201526033602482015260008051602061135b833981519152604482015260008051602061133b833981519152606482015290519081900360840190fd5b600c805482919061ff0019166101008360028111156107a357fe5b021790555050565b3090565b303190565b600154600160a060020a031690565b600a8054604080516020601f60026000196101006001881615020190951694909404938401819004810282018101909252828152606093909290918301828280156105f75780601f106105cc576101008083540402835291602001916105f7565b60065490565b600080600a8054600181600116156101000203166002900490501115610852575060016105ff565b50600090565b60045490565b600080600030600160a060020a03166338cc48316040518163ffffffff1660e060020a02815260040160206040518083038186803b15801561089f57600080fd5b505afa1580156108b3573d6000803e3d6000fd5b505050506040513d60208110156108c957600080fd5b5051600054604080517f38cc48310000000000000000000000000000000000000000000000000000000081529051600160a060020a03909216916338cc483191600480820192602092909190829003018186803b15801561092957600080fd5b505afa15801561093d573d6000803e3d6000fd5b505050506040513d602081101561095357600080fd5b5051600154604080517f38cc48310000000000000000000000000000000000000000000000000000000081529051600160a060020a03909216916338cc483191600480820192602092909190829003018186803b1580156109b357600080fd5b505afa1580156109c7573d6000803e3d6000fd5b505050506040513d60208110156109dd57600080fd5b50516109e7610f5c565b600160a060020a03938416815291831660208301529091166040808301919091525190819003606001906000f080158015610a26573d6000803e3d6000fd5b50905080600160a060020a03166353707b4c610a4061082a565b610a48610c95565b610a50610c7d565b6040518463ffffffff1660e060020a0281526004018084151515158152602001836002811115610a7c57fe5b60ff168152602001826002811115610a9057fe5b60ff1681526020019350505050604080518083038186803b158015610ab457600080fd5b505afa158015610ac8573d6000803e3d6000fd5b505050506040513d6040811015610ade57600080fd5b5080516020909101519093509150600160a060020a03831615610b0457610b0483610d8f565b610b0d82610d1b565b505050565b600354600160a060020a03163314610b76576040805160e560020a62461bcd028152602060048201526033602482015260008051602061135b833981519152604482015260008051602061133b833981519152606482015290519081900360840190fd5b600260095460ff166008811115610b8957fe5b10610b975760055442016006555b610b9f610eb6565b600160a060020a0316610bb0610715565b600160a060020a03161415610bf957610bc76107b4565b6002805473ffffffffffffffffffffffffffffffffffffffff1916600160a060020a0392909216919091179055610c2f565b610c01610eb6565b6002805473ffffffffffffffffffffffffffffffffffffffff1916600160a060020a03929092169190911790555b6005610c396106fc565b1415610c4c57610c4761085e565b610c7b565b60095460009060ff166008811115610c6057fe5b6001019050610c79816008811115610c7457fe5b610ec5565b505b565b600c54610100900460ff1690565b6007546008549091565b600c5460ff1690565b600354600160a060020a03163314610d02576040805160e560020a62461bcd028152602060048201526033602482015260008051602061135b833981519152604482015260008051602061133b833981519152606482015290519081900360840190fd5b600c805482919060ff191660018360028111156107a357fe5b600354600160a060020a03163314610d7f576040805160e560020a62461bcd028152602060048201526033602482015260008051602061135b833981519152604482015260008051602061133b833981519152606482015290519081900360840190fd5b610d8881610ec5565b5042600855565b600354600160a060020a03163314610e17576040805160e560020a62461bcd02815260206004820152603460248201527f46756e64732063616e206f6e6c79206265207472616e7366657272656420627960448201527f20746865206f776e696e6720636f6e7472616374000000000000000000000000606482015290519081900360840190fd5b80600160a060020a031663893d20e86040518163ffffffff1660e060020a02815260040160206040518083038186803b158015610e5357600080fd5b505afa158015610e67573d6000803e3d6000fd5b505050506040513d6020811015610e7d57600080fd5b5051604051600160a060020a0390911690303180156108fc02916000818181858888f193505050501580156106f8573d6000803e3d6000fd5b600054600160a060020a031690565b6009805482919060ff191660018360088111156107a357fe5b828054600181600116156101000203166002900490600052602060002090601f016020900481019282601f10610f1f57805160ff1916838001178555610f4c565b82800160010185558215610f4c579182015b82811115610f4c578251825591602001919060010190610f31565b50610f58929150610f6c565b5090565b6040516103b480610f8783390190565b6105ff91905b80821115610f585760008155600101610f7256fe608060405234801561001057600080fd5b506040516060806103b48339810180604052606081101561003057600080fd5b508051602082015160409092015160008054600160a060020a03938416600160a060020a03199182161790915560018054948416948216949094179093556002805492909116919092161790556103288061008c6000396000f3fe6080604052600436106100775763ffffffff7c01000000000000000000000000000000000000000000000000000000006000350416630b957629811461007c57806315f6c1341461007c578063349590c3146100ea578063415899f31461011f57806353707b4c1461014c5780638886181814610189575b600080fd5b34801561008857600080fd5b506100a96004803603602081101561009f57600080fd5b503560ff166101b6565b60405173ffffffffffffffffffffffffffffffffffffffff83168152602081018260088111156100d557fe5b60ff1681526020019250505060405180910390f35b3480156100f657600080fd5b506100a96004803603604081101561010d57600080fd5b5060ff813581169160200135166101fc565b34801561012b57600080fd5b506100a96004803603602081101561014257600080fd5b503560ff16610252565b34801561015857600080fd5b506100a96004803603606081101561016f57600080fd5b50803515159060ff60208201358116916040013516610297565b34801561019557600080fd5b506100a9600480360360208110156101ac57600080fd5b503560ff166102c4565b60008060028360028111156101c757fe5b14156101ef57505060025473ffffffffffffffffffffffffffffffffffffffff1660066101f7565b506000905060075b915091565b600080600284600281111561020d57fe5b14156102255761021c836101b6565b9150915061024b565b600084600281111561023357fe5b14156102425761021c83610252565b61021c836101b6565b9250929050565b600080600283600281111561026357fe5b141561027557506000905060086101f7565b505060015473ffffffffffffffffffffffffffffffffffffffff1660066101f7565b60008084156102b3576102aa84846101fc565b915091506102bc565b6102aa846102c4565b935093915050565b600080808360028111156102d457fe5b14156101ef57505060015473ffffffffffffffffffffffffffffffffffffffff1660066101f756fea165627a7a7230582089f6309960b8ce70341b9cf754dad47a61214fd2b26bcbdc8c02709894aa3dfd0029746865206f776e696e6720636f6e747261637400000000000000000000000000416374696f6e2063616e206f6e6c7920626520706572666f726d656420627920a165627a7a72305820007edf57b0a625029ee11a4b70b859d32c6743c8990c206ac7206561ea09a0340029a265627a7a72305820cc9f71ab7d33c84efec1f7b016b9b3aca18823b409a408eaab9007337333e3286c6578706572696d656e74616cf50037",
  "source": "pragma solidity ^0.5.0;\r\npragma experimental ABIEncoderV2;\r\n\r\nimport \"./ProcessData.sol\";\r\nimport \"./IActor.sol\";\r\nimport \"./Enums.sol\";\r\n\r\ncontract Protocol {\r\n\r\n    address[] private Mitigators;\r\n\taddress[] private Targets;\r\n    address[] private CurrentProcesses;\r\n\r\n    event ProcessDataCreated(address _from, ProcessData addr);\r\n\tevent MitigatorCreated(address _from, IActor addr);\r\n\tevent TargetCreated(address _from, IActor addr);\r\n\tevent FundsReceived(uint256 value);\r\n\t\r\n\tfunction() external payable{\r\n\t\temit FundsReceived(msg.value);\r\n\t}\r\n\t\r\n\t\r\n    function registerMitigator(address payable _MitigatorOwner,uint256 PricePerUnit,string memory NetworkName) public returns(address){\r\n        IActor Mitigator = new IActor(_MitigatorOwner,PricePerUnit,NetworkName);\r\n        Mitigators.push(Mitigator.getAddress());\r\n\t\temit MitigatorCreated(msg.sender,Mitigator);\r\n        return Mitigator.getAddress();\r\n    }\r\n\t\r\n\tfunction registerTarget(address payable _TargetOwner,uint256 PricePerUnit,string memory NetworkName) public returns(address){\r\n        IActor Target = new IActor(_TargetOwner,PricePerUnit,NetworkName);\r\n        Targets.push(Target.getAddress());\r\n\t\temit TargetCreated(msg.sender,Target);\r\n        return Target.getAddress();\r\n    }\r\n\r\n    function init(address _Mitigator,uint _DeadlineInterval,uint256 _OfferedFunds,string memory _ListOfAddresses, uint _NumberOfAddresses) \r\n    public \r\n    returns (ProcessData){\r\n        \r\n        require(bytes(_ListOfAddresses).length >0,\"no addresses provided\");\r\n        require(isMitigator(_Mitigator),\"no mitigator\");\r\n        require(IActor(_Mitigator).isOfferAcceptable(_OfferedFunds,_NumberOfAddresses),\"Funds too low\");\r\n        require(senderIsTarget(msg.sender),\"Sender is not registered as a Target\");\r\n\t\t\r\n        IActor _Target = IActor(getTarget(msg.sender));\r\n        ProcessData newProcessData = new ProcessData(_Target.getAddress(),_Mitigator,_DeadlineInterval,_OfferedFunds,_ListOfAddresses);\r\n        CurrentProcesses.push(newProcessData.getAddress());\r\n\t\temit ProcessDataCreated(msg.sender,newProcessData);\r\n\t\t\r\n        return newProcessData;\r\n    }\r\n\r\n    function approve(address payable process,bool descision) \r\n    public\r\n    returns (ProcessData){\r\n        \r\n        require(isProcess(process),\"Process does not exist\");\r\n        require(canSenderAdvance(process,Enums.State.APPROVE),\"Sender is not allowed\");\r\n        \r\n        ProcessData ProcessToUse = ProcessData(process);\r\n        \r\n        if(descision){\r\n            ProcessToUse.advanceState();\r\n        }else{\r\n            ProcessToUse.endProcess(Enums.State.ABORT);\r\n        }\r\n  \r\n        return ProcessToUse;\r\n    }\r\n    \r\n    function sendFunds(address payable process) \r\n    public\r\n    payable\r\n    returns (ProcessData){\r\n        \r\n        require(isProcess(process),\"Process does not exist\");\r\n        require(canSenderAdvance(process,Enums.State.FUNDING),\"Sender is not allowed\");\r\n        \r\n        ProcessData ProcessToUse = ProcessData(process);\r\n        \r\n        ProcessToUse.getAddress().transfer(msg.value);\r\n\t\t\r\n        ProcessToUse.advanceState();\r\n        \r\n        return ProcessToUse;\r\n    }\r\n    \r\n    \r\n    function uploadProof(address payable process,string memory _Proof) \r\n    public\r\n    returns (ProcessData){\r\n        \r\n        require(isProcess(process),\"Process does not exist\");\r\n        require(canSenderAdvance(process,Enums.State.PROOF),\"Sender is not allowed\");\r\n        \r\n        ProcessData ProcessToUse = ProcessData(process);\r\n        ProcessToUse.setProof(_Proof);\r\n\t\t\r\n        ProcessToUse.advanceState();\r\n        \r\n        return ProcessToUse;\r\n    }\r\n    \r\n    function ratingByTarget(address payable process,Enums.Rating rating) \r\n    public\r\n    payable\r\n    returns (ProcessData){\r\n        \r\n        require(isProcess(process),\"Process does not exist\");\r\n        require(canSenderAdvance(process,Enums.State.TRATE),\"Sender is not allowed\");\r\n        \r\n        ProcessData ProcessToUse = ProcessData(process);\r\n        ProcessToUse.setTargetRating(rating);\r\n        \r\n\t\tif(!ProcessToUse.isProofProvided()){\r\n            ProcessToUse.executeEvaluation();\r\n            return ProcessToUse;\r\n        }\r\n\t\t\r\n        ProcessToUse.advanceState();\r\n\t\t\r\n        return ProcessToUse;\r\n    }\r\n    \r\n    function ratingByMitigator(address payable process,Enums.Rating rating) \r\n    public\r\n    payable\r\n    returns (ProcessData){\r\n        \r\n        require(isProcess(process),\"Process does not exist\");\r\n\t\t\r\n        require(canSenderAdvance(process,Enums.State.MRATE),\"Sender is not allowed to advance due to: \");\r\n        \r\n        ProcessData ProcessToUse = ProcessData(process);\r\n        ProcessToUse.setMitigatorRating(rating);\r\n        ProcessToUse.executeEvaluation();\r\n\r\n        return ProcessToUse;\r\n    }\r\n\t\r\n\tfunction skipCurrentState(address payable process) public returns(ProcessData){\r\n\t\t\r\n\t\trequire(isProcess(process),\"Process not found\");\r\n        ProcessData CurrentProcess = getProcess(process);\r\n\t\trequire(CurrentProcess.getState()<uint(Enums.State.COMPLETE),\"Process is already aborted, completed or escalated\");\r\n\t\t\r\n\t\tif(CurrentProcess.getState()<uint(Enums.State.PROOF)){\r\n\t\t\trequire(msg.sender== CurrentProcess.getTarget().getOwner(),\"In this state, the process can only be aborted by the initiator\");\r\n\t\t\tCurrentProcess.endProcess(Enums.State.ABORT);\r\n\t\t\treturn CurrentProcess;\r\n\t\t}\r\n\t\t\r\n\t\trequire(now>CurrentProcess.getDeadline(),\"Deadline not yet exceeded, please wait\");\r\n\r\n\t\tif(CurrentProcess.getState() == uint(Enums.State.TRATE)){\r\n\t\t\tCurrentProcess.setTargetRating(Enums.Rating.NA);\r\n\t\t}else if(CurrentProcess.getState() == uint(Enums.State.MRATE)){\r\n\t\t\tCurrentProcess.setMitigatorRating(Enums.Rating.NA);\r\n\t\t}\r\n\t\t\r\n\t\tCurrentProcess.advanceState();\r\n\t\t\r\n\t\treturn CurrentProcess;\r\n\t}\r\n   \r\n    /*Checks where the sender of the message is the next actor and the state \r\n    of the action to be performed is the one immediately following in the process\r\n    and if deadline is exceeded*/\r\n    function canSenderAdvance(address payable process,Enums.State stateOfOperation) \r\n    private \r\n    view\r\n    returns(bool){\r\n        \r\n\t\trequire(isProcess(process),\"Process not found\");\r\n        ProcessData CurrentProcess = getProcess(process);\r\n\t\t\r\n\t\trequire(CurrentProcess.getNextActor().getOwner() == msg.sender,\"NextActor != Sender\");\r\n\t\trequire(uint(stateOfOperation)==uint(CurrentProcess.getState()),\"State of operation does not match\");\r\n\t\tif(CurrentProcess.getState()>uint(Enums.State.FUNDING)){\r\n\t\t\trequire(now<CurrentProcess.getDeadline(),\"State > Funding && now > deadline, please skip the state\");\r\n\t\t}\r\n        return true;\r\n    }\r\n\t\r\n\tfunction getProcess(address payable process) \r\n    private view \r\n    returns(ProcessData){\r\n        for (uint i = 0 ; i < CurrentProcesses.length; i++) {\r\n            if(CurrentProcesses[i]==process){\r\n                return ProcessData(process);\r\n            }\r\n        }\r\n\t\treturn ProcessData(0);\r\n    }\r\n\t\r\n    function getProcesses() \r\n    public view \r\n    returns(address[] memory){\r\n        return CurrentProcesses;\r\n    }\r\n    \r\n\r\n    function getStateOfProcess(address payable process) \r\n    public view \r\n    returns(address payable,address payable,address payable,uint,string memory,uint,uint,uint){\r\n        ProcessData ProcessToUse = ProcessData(process);\r\n        return (ProcessToUse.getTarget().getOwner(),ProcessToUse.getMitigator().getOwner(),ProcessToUse.getNextActor().getOwner()\r\n        ,ProcessToUse.getFunds(),ProcessToUse.getProof(),uint(ProcessToUse.getState())\r\n        ,uint(ProcessToUse.getTargetRating()),uint(ProcessToUse.getMitigatorRating()));\r\n    }\r\n    \r\n    function isProcess(address payable process) \r\n    private view \r\n    returns(bool){\r\n        for (uint i = 0 ; i < CurrentProcesses.length; i++) {\r\n            if(CurrentProcesses[i]==process){\r\n                return true;\r\n            }\r\n        }\r\n        return false;\r\n    }\r\n    \r\n    function isMitigator(address mitigator) \r\n    private view \r\n    returns(bool){\r\n        for (uint i = 0 ; i < Mitigators.length; i++) {\r\n            if(Mitigators[i]==mitigator){\r\n                return true;\r\n            }\r\n        }\r\n        return false;\r\n    }\r\n\t\r\n\tfunction senderIsTarget(address payable owner) \r\n    private view \r\n    returns(bool){\r\n        for (uint i = 0 ; i < Targets.length; i++) {\r\n            if(IActor(Targets[i]).getOwner()==owner){\r\n                return true;\r\n            }\r\n        }\r\n        return false;\r\n    }\r\n\t\r\n\tfunction getTarget(address payable owner) \r\n    private view \r\n    returns(address){\r\n        for (uint i = 0 ; i < Targets.length; i++) {\r\n            if(IActor(Targets[i]).getOwner()==owner){\r\n                return Targets[i];\r\n            }\r\n        }\r\n\t\treturn address(0);\r\n    }\r\n}",
  "sourcePath": "C:/Code/Private/CooperativeSignaling/contracts/Protocol.sol",
  "compiler": {
    "name": "solc",
    "version": "0.5.0+commit.1d4f565a.Emscripten.clang"
  },
  "schemaVersion": "3.0.1",
  "updatedAt": "2019-02-05T18:09:20.815Z",
  "devdoc": {
    "methods": {}
  },
  "userdoc": {
    "methods": {}
  }
}