{
  "contractName": "Protocol",
  "abi": [
    {
      "payable": true,
      "stateMutability": "payable",
      "type": "fallback"
    },
    {
      "anonymous": false,
      "inputs": [
        {
          "indexed": false,
          "name": "_from",
          "type": "address"
        },
        {
          "indexed": false,
          "name": "addr",
          "type": "address"
        }
      ],
      "name": "ProcessDataCreated",
      "type": "event",
      "signature": "0x0882f6c178d03f7e5056c19884ff9dbd841f072c80be76045db6007f9ca30fb5"
    },
    {
      "anonymous": false,
      "inputs": [
        {
          "indexed": false,
          "name": "_from",
          "type": "address"
        },
        {
          "indexed": false,
          "name": "addr",
          "type": "address"
        }
      ],
      "name": "MitigatorCreated",
      "type": "event",
      "signature": "0x00348a694629aa1d95f5871c91c0b8722435ece0397f5913b4c368069f86e7be"
    },
    {
      "anonymous": false,
      "inputs": [
        {
          "indexed": false,
          "name": "_from",
          "type": "address"
        },
        {
          "indexed": false,
          "name": "addr",
          "type": "address"
        }
      ],
      "name": "TargetCreated",
      "type": "event",
      "signature": "0xc2772959c7d8d2b8db9eb70d179850c99c875ab14cc6768dcfbc8c1d1a5793b6"
    },
    {
      "anonymous": false,
      "inputs": [
        {
          "indexed": false,
          "name": "value",
          "type": "uint256"
        }
      ],
      "name": "FundsReceived",
      "type": "event",
      "signature": "0xbcdc7071c1beb6dcf2744621e0b29a2f2432ee20812d9ca5e3d5e8f9308d93a3"
    },
    {
      "constant": false,
      "inputs": [
        {
          "name": "_MitigatorOwner",
          "type": "address"
        },
        {
          "name": "PricePerUnit",
          "type": "uint256"
        },
        {
          "name": "NetworkName",
          "type": "string"
        }
      ],
      "name": "registerMitigator",
      "outputs": [
        {
          "name": "",
          "type": "address"
        }
      ],
      "payable": false,
      "stateMutability": "nonpayable",
      "type": "function",
      "signature": "0x0be796b5"
    },
    {
      "constant": false,
      "inputs": [
        {
          "name": "_TargetOwner",
          "type": "address"
        },
        {
          "name": "PricePerUnit",
          "type": "uint256"
        },
        {
          "name": "NetworkName",
          "type": "string"
        }
      ],
      "name": "registerTarget",
      "outputs": [
        {
          "name": "",
          "type": "address"
        }
      ],
      "payable": false,
      "stateMutability": "nonpayable",
      "type": "function",
      "signature": "0xfb9cb44a"
    },
    {
      "constant": false,
      "inputs": [
        {
          "name": "_Mitigator",
          "type": "address"
        },
        {
          "name": "_DeadlineInterval",
          "type": "uint256"
        },
        {
          "name": "_OfferedFunds",
          "type": "uint256"
        },
        {
          "name": "_ListOfAddresses",
          "type": "string"
        },
        {
          "name": "_NumberOfAddresses",
          "type": "uint256"
        }
      ],
      "name": "init",
      "outputs": [
        {
          "name": "",
          "type": "address"
        }
      ],
      "payable": false,
      "stateMutability": "nonpayable",
      "type": "function",
      "signature": "0x3d99bdc7"
    },
    {
      "constant": false,
      "inputs": [
        {
          "name": "process",
          "type": "address"
        },
        {
          "name": "descision",
          "type": "bool"
        }
      ],
      "name": "approve",
      "outputs": [
        {
          "name": "",
          "type": "address"
        }
      ],
      "payable": false,
      "stateMutability": "nonpayable",
      "type": "function",
      "signature": "0x3d140d21"
    },
    {
      "constant": false,
      "inputs": [
        {
          "name": "process",
          "type": "address"
        }
      ],
      "name": "sendFunds",
      "outputs": [
        {
          "name": "",
          "type": "address"
        }
      ],
      "payable": true,
      "stateMutability": "payable",
      "type": "function",
      "signature": "0xcfe52bdd"
    },
    {
      "constant": false,
      "inputs": [
        {
          "name": "process",
          "type": "address"
        },
        {
          "name": "_Proof",
          "type": "string"
        }
      ],
      "name": "uploadProof",
      "outputs": [
        {
          "name": "",
          "type": "address"
        }
      ],
      "payable": false,
      "stateMutability": "nonpayable",
      "type": "function",
      "signature": "0xc369ac92"
    },
    {
      "constant": false,
      "inputs": [
        {
          "name": "process",
          "type": "address"
        },
        {
          "name": "rating",
          "type": "uint8"
        }
      ],
      "name": "ratingByTarget",
      "outputs": [
        {
          "name": "",
          "type": "address"
        }
      ],
      "payable": true,
      "stateMutability": "payable",
      "type": "function",
      "signature": "0x9cd14d73"
    },
    {
      "constant": false,
      "inputs": [
        {
          "name": "process",
          "type": "address"
        },
        {
          "name": "rating",
          "type": "uint8"
        }
      ],
      "name": "ratingByMitigator",
      "outputs": [
        {
          "name": "",
          "type": "address"
        }
      ],
      "payable": true,
      "stateMutability": "payable",
      "type": "function",
      "signature": "0xcd0a1d60"
    },
    {
      "constant": false,
      "inputs": [
        {
          "name": "process",
          "type": "address"
        }
      ],
      "name": "skipCurrentState",
      "outputs": [
        {
          "name": "",
          "type": "address"
        }
      ],
      "payable": false,
      "stateMutability": "nonpayable",
      "type": "function",
      "signature": "0x2402bea8"
    },
    {
      "constant": true,
      "inputs": [
        {
          "name": "process",
          "type": "address"
        }
      ],
      "name": "getProcess",
      "outputs": [
        {
          "name": "",
          "type": "address"
        }
      ],
      "payable": false,
      "stateMutability": "view",
      "type": "function",
      "signature": "0xd30a9aff"
    },
    {
      "constant": true,
      "inputs": [],
      "name": "getProcesses",
      "outputs": [
        {
          "name": "",
          "type": "address[]"
        }
      ],
      "payable": false,
      "stateMutability": "view",
      "type": "function",
      "signature": "0x6e52b239"
    },
    {
      "constant": true,
      "inputs": [
        {
          "name": "process",
          "type": "address"
        }
      ],
      "name": "getStateOfProcess",
      "outputs": [
        {
          "name": "",
          "type": "address"
        },
        {
          "name": "",
          "type": "address"
        },
        {
          "name": "",
          "type": "address"
        },
        {
          "name": "",
          "type": "uint256"
        },
        {
          "name": "",
          "type": "string"
        },
        {
          "name": "",
          "type": "uint256"
        },
        {
          "name": "",
          "type": "uint256"
        },
        {
          "name": "",
          "type": "uint256"
        }
      ],
      "payable": false,
      "stateMutability": "view",
      "type": "function",
      "signature": "0x4152d427"
    }
  ],
  "bytecode": "0x608060405234801561001057600080fd5b50615267806100206000396000f3fe608060405260043610620000ad5763ffffffff60e060020a6000350416630be796b58114620000e85780632402bea814620001255780633d140d2114620001595780633d99bdc7146200017e5780634152d42714620001a35780636e52b23914620001de5780639cd14d731462000205578063c369ac92146200021c578063cd0a1d601462000241578063cfe52bdd1462000258578063d30a9aff146200026f578063fb9cb44a1462000294575b7fbcdc7071c1beb6dcf2744621e0b29a2f2432ee20812d9ca5e3d5e8f9308d93a334604051620000de919062003918565b60405180910390a1005b348015620000f557600080fd5b506200010d620001073660046200306c565b620002b9565b6040516200011c919062003671565b60405180910390f35b3480156200013257600080fd5b506200014a6200014436600462002f89565b6200046e565b6040516200011c9190620037d9565b3480156200016657600080fd5b506200014a6200017836600462002faa565b62000fa3565b3480156200018b57600080fd5b506200014a6200019d366004620030d9565b620012a1565b348015620001b057600080fd5b50620001c8620001c236600462002f89565b620015b1565b6040516200011c98979695949392919062003681565b348015620001eb57600080fd5b50620001f662001b1f565b6040516200011c9190620037c6565b6200014a6200021636600462002fe9565b62001b83565b3480156200022957600080fd5b506200014a6200023b3660046200301e565b62002084565b6200014a6200025236600462002fe9565b62002270565b6200014a6200026936600462002f89565b6200246a565b3480156200027c57600080fd5b506200014a6200028e36600462002f89565b620026ac565b348015620002a157600080fd5b506200010d620002b33660046200306c565b6200270d565b600080848484620002c962002e17565b620002d7939291906200372e565b604051809103906000f080158015620002f4573d6000803e3d6000fd5b509050600081600160a060020a03166338cc48316040518163ffffffff1660e060020a02815260040160206040518083038186803b1580156200033657600080fd5b505afa1580156200034b573d6000803e3d6000fd5b505050506040513d601f19601f8201168201806040525062000371919081019062002f60565b815460018101835560009283526020909220909101805473ffffffffffffffffffffffffffffffffffffffff1916600160a060020a039092169190911790556040517e348a694629aa1d95f5871c91c0b8722435ece0397f5913b4c368069f86e7be90620003e390339084906200370f565b60405180910390a180600160a060020a03166338cc48316040518163ffffffff1660e060020a02815260040160206040518083038186803b1580156200042857600080fd5b505afa1580156200043d573d6000803e3d6000fd5b505050506040513d601f19601f8201168201806040525062000463919081019062002f60565b9150505b9392505050565b60006200047b8262002838565b1515620004a85760405160e560020a62461bcd0281526004016200049f906200381c565b60405180910390fd5b6000620004b583620026ac565b9050600681600160a060020a0316631865c57d6040518163ffffffff1660e060020a02815260040160206040518083038186803b158015620004f657600080fd5b505afa1580156200050b573d6000803e3d6000fd5b505050506040513d601f19601f820116820180604052506200053191908101906200320e565b10620005545760405160e560020a62461bcd0281526004016200049f906200382e565b600381600160a060020a0316631865c57d6040518163ffffffff1660e060020a02815260040160206040518083038186803b1580156200059357600080fd5b505afa158015620005a8573d6000803e3d6000fd5b505050506040513d601f19601f82011682018060405250620005ce91908101906200320e565b10156200083d5780600160a060020a031663f00e6a2a6040518163ffffffff1660e060020a02815260040160206040518083038186803b1580156200061257600080fd5b505afa15801562000627573d6000803e3d6000fd5b505050506040513d601f19601f820116820180604052506200064d919081019062003193565b600160a060020a031663893d20e86040518163ffffffff1660e060020a02815260040160206040518083038186803b1580156200068957600080fd5b505afa1580156200069e573d6000803e3d6000fd5b505050506040513d601f19601f82011682018060405250620006c4919081019062002f60565b600160a060020a03163314620006f15760405160e560020a62461bcd0281526004016200049f90620038ac565b60405160e060020a6356de96db028152600160a060020a038216906356de96db906200072390600790600401620037f9565b600060405180830381600087803b1580156200073e57600080fd5b505af115801562000753573d6000803e3d6000fd5b5050505080600160a060020a031663f6e9178982600160a060020a031663f00e6a2a6040518163ffffffff1660e060020a02815260040160206040518083038186803b158015620007a357600080fd5b505afa158015620007b8573d6000803e3d6000fd5b505050506040513d601f19601f82011682018060405250620007de919081019062003193565b6040518263ffffffff1660e060020a028152600401620007ff9190620037d9565b600060405180830381600087803b1580156200081a57600080fd5b505af11580156200082f573d6000803e3d6000fd5b505050508091505062000f9e565b80600160a060020a0316635f8d96de6040518163ffffffff1660e060020a02815260040160206040518083038186803b1580156200087a57600080fd5b505afa1580156200088f573d6000803e3d6000fd5b505050506040513d601f19601f82011682018060405250620008b591908101906200320e565b4211620008d95760405160e560020a62461bcd0281526004016200049f90620038be565b80600160a060020a031663f00e6a2a6040518163ffffffff1660e060020a02815260040160206040518083038186803b1580156200091657600080fd5b505afa1580156200092b573d6000803e3d6000fd5b505050506040513d601f19601f8201168201806040525062000951919081019062003193565b600160a060020a031681600160a060020a0316631b3e7c4b6040518163ffffffff1660e060020a02815260040160206040518083038186803b1580156200099757600080fd5b505afa158015620009ac573d6000803e3d6000fd5b505050506040513d601f19601f82011682018060405250620009d2919081019062003193565b600160a060020a0316141562000ac45780600160a060020a031663f6e9178982600160a060020a03166350b1be266040518163ffffffff1660e060020a02815260040160206040518083038186803b15801562000a2e57600080fd5b505afa15801562000a43573d6000803e3d6000fd5b505050506040513d601f19601f8201168201806040525062000a69919081019062003193565b6040518263ffffffff1660e060020a02815260040162000a8a9190620037d9565b600060405180830381600087803b15801562000aa557600080fd5b505af115801562000aba573d6000803e3d6000fd5b5050505062000ba1565b80600160a060020a031663f6e9178982600160a060020a031663f00e6a2a6040518163ffffffff1660e060020a02815260040160206040518083038186803b15801562000b1057600080fd5b505afa15801562000b25573d6000803e3d6000fd5b505050506040513d601f19601f8201168201806040525062000b4b919081019062003193565b6040518263ffffffff1660e060020a02815260040162000b6c9190620037d9565b600060405180830381600087803b15801562000b8757600080fd5b505af115801562000b9c573d6000803e3d6000fd5b505050505b600381600160a060020a0316631865c57d6040518163ffffffff1660e060020a02815260040160206040518083038186803b15801562000be057600080fd5b505afa15801562000bf5573d6000803e3d6000fd5b505050506040513d601f19601f8201168201806040525062000c1b91908101906200320e565b141562000c885760405160e060020a6356de96db028152600160a060020a038216906356de96db9062000c53906004908101620037f9565b600060405180830381600087803b15801562000c6e57600080fd5b505af115801562000c83573d6000803e3d6000fd5b505050505b600481600160a060020a0316631865c57d6040518163ffffffff1660e060020a02815260040160206040518083038186803b15801562000cc757600080fd5b505afa15801562000cdc573d6000803e3d6000fd5b505050506040513d601f19601f8201168201806040525062000d0291908101906200320e565b141562000dec5760405160e060020a6356de96db028152600160a060020a038216906356de96db9062000d3b90600590600401620037f9565b600060405180830381600087803b15801562000d5657600080fd5b505af115801562000d6b573d6000803e3d6000fd5b50506040517fa3bbb090000000000000000000000000000000000000000000000000000000008152600160a060020a038416925063a3bbb090915062000db790600190600401620037e9565b600060405180830381600087803b15801562000dd257600080fd5b505af115801562000de7573d6000803e3d6000fd5b505050505b600581600160a060020a0316631865c57d6040518163ffffffff1660e060020a02815260040160206040518083038186803b15801562000e2b57600080fd5b505afa15801562000e40573d6000803e3d6000fd5b505050506040513d601f19601f8201168201806040525062000e6691908101906200320e565b141562000f42576040517f1dc9b284000000000000000000000000000000000000000000000000000000008152600160a060020a03821690631dc9b2849062000eb590600190600401620037e9565b600060405180830381600087803b15801562000ed057600080fd5b505af115801562000ee5573d6000803e3d6000fd5b5050505080600160a060020a031663841eb45a6040518163ffffffff1660e060020a028152600401600060405180830381600087803b15801562000f2857600080fd5b505af115801562000f3d573d6000803e3d6000fd5b505050505b80600160a060020a0316639363d6f26040518163ffffffff1660e060020a028152600401600060405180830381600087803b15801562000f8157600080fd5b505af115801562000f96573d6000803e3d6000fd5b509293505050505b919050565b600062000fb08362002838565b151562000fd45760405160e560020a62461bcd0281526004016200049f9062003864565b62000fe183600162002891565b1515620010055760405160e560020a62461bcd0281526004016200049f90620038f4565b828215620011555760405160e060020a6356de96db028152600160a060020a038216906356de96db906200103f90600290600401620037f9565b600060405180830381600087803b1580156200105a57600080fd5b505af11580156200106f573d6000803e3d6000fd5b5050505080600160a060020a031663f6e9178982600160a060020a031663f00e6a2a6040518163ffffffff1660e060020a02815260040160206040518083038186803b158015620010bf57600080fd5b505afa158015620010d4573d6000803e3d6000fd5b505050506040513d601f19601f82011682018060405250620010fa919081019062003193565b6040518263ffffffff1660e060020a0281526004016200111b9190620037d9565b600060405180830381600087803b1580156200113657600080fd5b505af11580156200114b573d6000803e3d6000fd5b5050505062001298565b60405160e060020a6356de96db028152600160a060020a038216906356de96db906200118790600790600401620037f9565b600060405180830381600087803b158015620011a257600080fd5b505af1158015620011b7573d6000803e3d6000fd5b5050505080600160a060020a031663f6e9178982600160a060020a031663f00e6a2a6040518163ffffffff1660e060020a02815260040160206040518083038186803b1580156200120757600080fd5b505afa1580156200121c573d6000803e3d6000fd5b505050506040513d601f19601f8201168201806040525062001242919081019062003193565b6040518263ffffffff1660e060020a028152600401620012639190620037d9565b600060405180830381600087803b1580156200127e57600080fd5b505af115801562001293573d6000803e3d6000fd5b505050505b90505b92915050565b6000808351111515620012cb5760405160e560020a62461bcd0281526004016200049f906200389a565b620012d68662002bc5565b1515620012fa5760405160e560020a62461bcd0281526004016200049f90620038d0565b6040517fa5ebeaa4000000000000000000000000000000000000000000000000000000008152600160a060020a0387169063a5ebeaa49062001343908790869060040162003928565b60206040518083038186803b1580156200135c57600080fd5b505afa15801562001371573d6000803e3d6000fd5b505050506040513d601f19601f8201168201806040525062001397919081019062003172565b1515620013bb5760405160e560020a62461bcd0281526004016200049f9062003876565b620013c63362002c1e565b1515620013ea5760405160e560020a62461bcd0281526004016200049f9062003852565b6000620013f73362002d09565b9050600081600160a060020a03166338cc48316040518163ffffffff1660e060020a02815260040160206040518083038186803b1580156200143857600080fd5b505afa1580156200144d573d6000803e3d6000fd5b505050506040513d601f19601f8201168201806040525062001473919081019062002f60565b888888886200148162002e28565b620014919594939291906200376a565b604051809103906000f080158015620014ae573d6000803e3d6000fd5b509050600281600160a060020a03166338cc48316040518163ffffffff1660e060020a02815260040160206040518083038186803b158015620014f057600080fd5b505afa15801562001505573d6000803e3d6000fd5b505050506040513d601f19601f820116820180604052506200152b919081019062002f60565b815460018101835560009283526020909220909101805473ffffffffffffffffffffffffffffffffffffffff1916600160a060020a039092169190911790556040517f0882f6c178d03f7e5056c19884ff9dbd841f072c80be76045db6007f9ca30fb5906200159e90339084906200370f565b60405180910390a1979650505050505050565b600080600080606060008060008089905080600160a060020a031663f00e6a2a6040518163ffffffff1660e060020a02815260040160206040518083038186803b158015620015ff57600080fd5b505afa15801562001614573d6000803e3d6000fd5b505050506040513d601f19601f820116820180604052506200163a919081019062003193565b600160a060020a031663893d20e86040518163ffffffff1660e060020a02815260040160206040518083038186803b1580156200167657600080fd5b505afa1580156200168b573d6000803e3d6000fd5b505050506040513d601f19601f82011682018060405250620016b1919081019062002f60565b81600160a060020a03166350b1be266040518163ffffffff1660e060020a02815260040160206040518083038186803b158015620016ee57600080fd5b505afa15801562001703573d6000803e3d6000fd5b505050506040513d601f19601f8201168201806040525062001729919081019062003193565b600160a060020a031663893d20e86040518163ffffffff1660e060020a02815260040160206040518083038186803b1580156200176557600080fd5b505afa1580156200177a573d6000803e3d6000fd5b505050506040513d601f19601f82011682018060405250620017a0919081019062002f60565b82600160a060020a0316631b3e7c4b6040518163ffffffff1660e060020a02815260040160206040518083038186803b158015620017dd57600080fd5b505afa158015620017f2573d6000803e3d6000fd5b505050506040513d601f19601f8201168201806040525062001818919081019062003193565b600160a060020a031663893d20e86040518163ffffffff1660e060020a02815260040160206040518083038186803b1580156200185457600080fd5b505afa15801562001869573d6000803e3d6000fd5b505050506040513d601f19601f820116820180604052506200188f919081019062002f60565b83600160a060020a0316634d9b37356040518163ffffffff1660e060020a02815260040160206040518083038186803b158015620018cc57600080fd5b505afa158015620018e1573d6000803e3d6000fd5b505050506040513d601f19601f820116820180604052506200190791908101906200320e565b84600160a060020a0316635c5d625e6040518163ffffffff1660e060020a02815260040160006040518083038186803b1580156200194457600080fd5b505afa15801562001959573d6000803e3d6000fd5b505050506040513d6000823e601f3d908101601f19168201604052620019839190810190620031d5565b85600160a060020a0316631865c57d6040518163ffffffff1660e060020a02815260040160206040518083038186803b158015620019c057600080fd5b505afa158015620019d5573d6000803e3d6000fd5b505050506040513d601f19601f82011682018060405250620019fb91908101906200320e565b86600160a060020a0316639ed5b5026040518163ffffffff1660e060020a02815260040160206040518083038186803b15801562001a3857600080fd5b505afa15801562001a4d573d6000803e3d6000fd5b505050506040513d601f19601f8201168201806040525062001a739190810190620031b4565b600281111562001a7f57fe5b87600160a060020a03166390f3213d6040518163ffffffff1660e060020a02815260040160206040518083038186803b15801562001abc57600080fd5b505afa15801562001ad1573d6000803e3d6000fd5b505050506040513d601f19601f8201168201806040525062001af79190810190620031b4565b600281111562001b0357fe5b9850985098509850985098509850985050919395975091939597565b6060600280548060200260200160405190810160405280929190818152602001828054801562001b7957602002820191906000526020600020905b8154600160a060020a0316815260019091019060200180831162001b5a575b5050505050905090565b600062001b908362002838565b151562001bb45760405160e560020a62461bcd0281526004016200049f9062003864565b62001bc183600462002891565b151562001be55760405160e560020a62461bcd0281526004016200049f90620038f4565b600083905080600160a060020a031663620ae1c76040518163ffffffff1660e060020a02815260040160206040518083038186803b15801562001c2757600080fd5b505afa15801562001c3c573d6000803e3d6000fd5b505050506040513d601f19601f8201168201806040525062001c62919081019062003172565b151562001e88576040517fa3bbb090000000000000000000000000000000000000000000000000000000008152600160a060020a0382169063a3bbb0909062001cb0908690600401620037e9565b600060405180830381600087803b15801562001ccb57600080fd5b505af115801562001ce0573d6000803e3d6000fd5b5050505080600160a060020a031663f6e9178982600160a060020a031663f00e6a2a6040518163ffffffff1660e060020a02815260040160206040518083038186803b15801562001d3057600080fd5b505afa15801562001d45573d6000803e3d6000fd5b505050506040513d601f19601f8201168201806040525062001d6b919081019062003193565b6040518263ffffffff1660e060020a02815260040162001d8c9190620037d9565b600060405180830381600087803b15801562001da757600080fd5b505af115801562001dbc573d6000803e3d6000fd5b505060405160e060020a6356de96db028152600160a060020a03841692506356de96db915062001df290600690600401620037f9565b600060405180830381600087803b15801562001e0d57600080fd5b505af115801562001e22573d6000803e3d6000fd5b5050505080600160a060020a031663841eb45a6040518163ffffffff1660e060020a028152600401600060405180830381600087803b15801562001e6557600080fd5b505af115801562001e7a573d6000803e3d6000fd5b50505050809150506200129b565b6040517fa3bbb090000000000000000000000000000000000000000000000000000000008152600160a060020a0382169063a3bbb0909062001ecf908690600401620037e9565b600060405180830381600087803b15801562001eea57600080fd5b505af115801562001eff573d6000803e3d6000fd5b5050505080600160a060020a031663f6e9178982600160a060020a03166350b1be266040518163ffffffff1660e060020a02815260040160206040518083038186803b15801562001f4f57600080fd5b505afa15801562001f64573d6000803e3d6000fd5b505050506040513d601f19601f8201168201806040525062001f8a919081019062003193565b6040518263ffffffff1660e060020a02815260040162001fab9190620037d9565b600060405180830381600087803b15801562001fc657600080fd5b505af115801562001fdb573d6000803e3d6000fd5b505060405160e060020a6356de96db028152600160a060020a03841692506356de96db91506200201190600590600401620037f9565b600060405180830381600087803b1580156200202c57600080fd5b505af115801562002041573d6000803e3d6000fd5b5050505080600160a060020a0316639363d6f26040518163ffffffff1660e060020a028152600401600060405180830381600087803b1580156200127e57600080fd5b6000620020918362002838565b1515620020b55760405160e560020a62461bcd0281526004016200049f9062003864565b620020c283600362002891565b1515620020e65760405160e560020a62461bcd0281526004016200049f90620038f4565b6040517f15336f800000000000000000000000000000000000000000000000000000000081528390600160a060020a038216906315336f80906200212f90869060040162003809565b600060405180830381600087803b1580156200214a57600080fd5b505af11580156200215f573d6000803e3d6000fd5b5050505080600160a060020a031663f6e9178982600160a060020a031663f00e6a2a6040518163ffffffff1660e060020a02815260040160206040518083038186803b158015620021af57600080fd5b505afa158015620021c4573d6000803e3d6000fd5b505050506040513d601f19601f82011682018060405250620021ea919081019062003193565b6040518263ffffffff1660e060020a0281526004016200220b9190620037d9565b600060405180830381600087803b1580156200222657600080fd5b505af11580156200223b573d6000803e3d6000fd5b505060405160e060020a6356de96db028152600160a060020a03841692506356de96db915062002011906004908101620037f9565b60006200227d8362002838565b1515620022a15760405160e560020a62461bcd0281526004016200049f9062003864565b620022ae83600562002891565b1515620022d25760405160e560020a62461bcd0281526004016200049f90620038e2565b6040517f1dc9b2840000000000000000000000000000000000000000000000000000000081528390600160a060020a03821690631dc9b284906200231b908690600401620037e9565b600060405180830381600087803b1580156200233657600080fd5b505af11580156200234b573d6000803e3d6000fd5b5050505080600160a060020a031663f6e9178982600160a060020a031663f00e6a2a6040518163ffffffff1660e060020a02815260040160206040518083038186803b1580156200239b57600080fd5b505afa158015620023b0573d6000803e3d6000fd5b505050506040513d601f19601f82011682018060405250620023d6919081019062003193565b6040518263ffffffff1660e060020a028152600401620023f79190620037d9565b600060405180830381600087803b1580156200241257600080fd5b505af115801562002427573d6000803e3d6000fd5b5050505080600160a060020a031663841eb45a6040518163ffffffff1660e060020a028152600401600060405180830381600087803b1580156200127e57600080fd5b6000620024778262002838565b15156200249b5760405160e560020a62461bcd0281526004016200049f9062003864565b620024a882600262002891565b1515620024cc5760405160e560020a62461bcd0281526004016200049f90620038f4565b600082905080600160a060020a03166338cc48316040518163ffffffff1660e060020a02815260040160206040518083038186803b1580156200250e57600080fd5b505afa15801562002523573d6000803e3d6000fd5b505050506040513d601f19601f8201168201806040525062002549919081019062002f60565b600160a060020a03166108fc349081150290604051600060405180830381858888f1935050505015801562002582573d6000803e3d6000fd5b5080600160a060020a031663f6e9178982600160a060020a03166350b1be266040518163ffffffff1660e060020a02815260040160206040518083038186803b158015620025cf57600080fd5b505afa158015620025e4573d6000803e3d6000fd5b505050506040513d601f19601f820116820180604052506200260a919081019062003193565b6040518263ffffffff1660e060020a0281526004016200262b9190620037d9565b600060405180830381600087803b1580156200264657600080fd5b505af11580156200265b573d6000803e3d6000fd5b505060405160e060020a6356de96db028152600160a060020a03841692506356de96db91506200269190600390600401620037f9565b600060405180830381600087803b15801562000f2857600080fd5b6000805b600254811015620027045782600160a060020a0316600282815481101515620026d557fe5b600091825260209091200154600160a060020a03161415620026fb578291505062000f9e565b600101620026b0565b50600092915050565b6000808484846200271d62002e17565b6200272b939291906200372e565b604051809103906000f08015801562002748573d6000803e3d6000fd5b509050600181600160a060020a03166338cc48316040518163ffffffff1660e060020a02815260040160206040518083038186803b1580156200278a57600080fd5b505afa1580156200279f573d6000803e3d6000fd5b505050506040513d601f19601f82011682018060405250620027c5919081019062002f60565b815460018101835560009283526020909220909101805473ffffffffffffffffffffffffffffffffffffffff1916600160a060020a039092169190911790556040517fc2772959c7d8d2b8db9eb70d179850c99c875ab14cc6768dcfbc8c1d1a5793b690620003e390339084906200370f565b6000805b600254811015620027045782600160a060020a03166002828154811015156200286157fe5b600091825260209091200154600160a060020a031614156200288857600191505062000f9e565b6001016200283c565b60006200289e8362002838565b1515620028c25760405160e560020a62461bcd0281526004016200049f906200381c565b6000620028cf84620026ac565b905033600160a060020a031681600160a060020a0316631b3e7c4b6040518163ffffffff1660e060020a02815260040160206040518083038186803b1580156200291857600080fd5b505afa1580156200292d573d6000803e3d6000fd5b505050506040513d601f19601f8201168201806040525062002953919081019062003193565b600160a060020a031663893d20e86040518163ffffffff1660e060020a02815260040160206040518083038186803b1580156200298f57600080fd5b505afa158015620029a4573d6000803e3d6000fd5b505050506040513d601f19601f82011682018060405250620029ca919081019062002f60565b600160a060020a031614620029f65760405160e560020a62461bcd0281526004016200049f9062003888565b80600160a060020a0316631865c57d6040518163ffffffff1660e060020a02815260040160206040518083038186803b15801562002a3357600080fd5b505afa15801562002a48573d6000803e3d6000fd5b505050506040513d601f19601f8201168201806040525062002a6e91908101906200320e565b83600881111562002a7b57fe5b1462002a9e5760405160e560020a62461bcd0281526004016200049f9062003906565b600281600160a060020a0316631865c57d6040518163ffffffff1660e060020a02815260040160206040518083038186803b15801562002add57600080fd5b505afa15801562002af2573d6000803e3d6000fd5b505050506040513d601f19601f8201168201806040525062002b1891908101906200320e565b101562002bbb5780600160a060020a0316635f8d96de6040518163ffffffff1660e060020a02815260040160206040518083038186803b15801562002b5c57600080fd5b505afa15801562002b71573d6000803e3d6000fd5b505050506040513d601f19601f8201168201806040525062002b9791908101906200320e565b421162002bbb5760405160e560020a62461bcd0281526004016200049f9062003840565b5060019392505050565b6000805b600054811015620027045782600160a060020a031660008281548110151562002bee57fe5b600091825260209091200154600160a060020a0316141562002c1557600191505062000f9e565b60010162002bc9565b6000805b600154811015620027045782600160a060020a031660018281548110151562002c4757fe5b60009182526020918290200154604080517f893d20e80000000000000000000000000000000000000000000000000000000081529051600160a060020a039092169263893d20e892600480840193829003018186803b15801562002caa57600080fd5b505afa15801562002cbf573d6000803e3d6000fd5b505050506040513d601f19601f8201168201806040525062002ce5919081019062002f60565b600160a060020a0316141562002d0057600191505062000f9e565b60010162002c22565b6000805b600154811015620027045782600160a060020a031660018281548110151562002d3257fe5b60009182526020918290200154604080517f893d20e80000000000000000000000000000000000000000000000000000000081529051600160a060020a039092169263893d20e892600480840193829003018186803b15801562002d9557600080fd5b505afa15801562002daa573d6000803e3d6000fd5b505050506040513d601f19601f8201168201806040525062002dd0919081019062002f60565b600160a060020a0316141562002e0e57600180548290811062002def57fe5b600091825260209091200154600160a060020a0316915062000f9e9050565b60010162002d0d565b6040516104b68062003a6f83390190565b6040516113098062003f2583390190565b6000620004678235620039a2565b6000620004678251620039a2565b6000620004678235620039dc565b6000620004678251620039dc565b6000620004678251620039e1565b6000620004678235620039ee565b6000620004678251620039ee565b6000601f8201831362002ead57600080fd5b813562002ec462002ebe826200396f565b62003947565b9150808252602083016020830185838301111562002ee157600080fd5b62002eee83828462003a25565b50505092915050565b6000601f8201831362002f0957600080fd5b815162002f1a62002ebe826200396f565b9150808252602083016020830185838301111562002f3757600080fd5b62002eee83828462003a31565b6000620004678235620039d9565b6000620004678251620039d9565b60006020828403121562002f7357600080fd5b600062002f81848462002e47565b949350505050565b60006020828403121562002f9c57600080fd5b600062002f81848462002e39565b6000806040838503121562002fbe57600080fd5b600062002fcc858562002e39565b925050602062002fdf8582860162002e55565b9150509250929050565b6000806040838503121562002ffd57600080fd5b60006200300b858562002e39565b925050602062002fdf8582860162002e7f565b600080604083850312156200303257600080fd5b600062003040858562002e39565b925050602083013567ffffffffffffffff8111156200305e57600080fd5b62002fdf8582860162002e9b565b6000806000606084860312156200308257600080fd5b600062003090868662002e39565b9350506020620030a38682870162002f44565b925050604084013567ffffffffffffffff811115620030c157600080fd5b620030cf8682870162002e9b565b9150509250925092565b600080600080600060a08688031215620030f257600080fd5b600062003100888862002e39565b9550506020620031138882890162002f44565b9450506040620031268882890162002f44565b935050606086013567ffffffffffffffff8111156200314457600080fd5b620031528882890162002e9b565b9250506080620031658882890162002f44565b9150509295509295909350565b6000602082840312156200318557600080fd5b600062002f81848462002e63565b600060208284031215620031a657600080fd5b600062002f81848462002e71565b600060208284031215620031c757600080fd5b600062002f81848462002e8d565b600060208284031215620031e857600080fd5b815167ffffffffffffffff8111156200320057600080fd5b62002f818482850162002ef7565b6000602082840312156200322157600080fd5b600062002f81848462002f52565b6200323a81620039fe565b82525050565b6200323a81620039a2565b600062003258826200399e565b8084526020840193506200326c8362003998565b60005b82811015620032a2576200328586835162003240565b620032908262003998565b6020969096019591506001016200326f565b5093949350505050565b6200323a81620039e1565b6200323a8162003a0b565b6200323a8162003a18565b6000620032da826200399e565b808452620032f081602086016020860162003a31565b620032fb8162003a64565b9093016020019392505050565b601181527f50726f63657373206e6f7420666f756e64000000000000000000000000000000602082015260400190565b603281527f50726f6365737320697320616c72656164792061626f727465642c20636f6d7060208201527f6c65746564206f7220657363616c617465640000000000000000000000000000604082015260600190565b601f81527f7374617465203e3d7374617274202626206e6f77203e20646561646c696e6500602082015260400190565b602481527f53656e646572206973206e6f742072656769737465726564206173206120546160208201527f7267657400000000000000000000000000000000000000000000000000000000604082015260600190565b601681527f50726f6365737320646f6573206e6f7420657869737400000000000000000000602082015260400190565b600d81527f46756e647320746f6f206c6f7700000000000000000000000000000000000000602082015260400190565b601381527f4e6578744163746f7220213d2053656e64657200000000000000000000000000602082015260400190565b601581527f6e6f206164647265737365732070726f76696465640000000000000000000000602082015260400190565b603f81527f496e20746869732073746174652c207468652070726f636573732063616e206f60208201527f6e6c792062652061626f727465642062792074686520696e69746961746f7200604082015260600190565b602681527f446561646c696e65206e6f74207965742065786365656465642c20706c65617360208201527f6520776169740000000000000000000000000000000000000000000000000000604082015260600190565b600c81527f6e6f206d6974696761746f720000000000000000000000000000000000000000602082015260400190565b602981527f53656e646572206973206e6f7420616c6c6f77656420746f20616476616e636560208201527f2064756520746f3a200000000000000000000000000000000000000000000000604082015260600190565b601581527f53656e646572206973206e6f7420616c6c6f7765640000000000000000000000602082015260400190565b601981527f4e65787420737461746520776f756c64206265206c6f77657200000000000000602082015260400190565b6200323a81620039d9565b602081016200129b828462003240565b610100810162003692828b62003240565b620036a1602083018a62003240565b620036b0604083018962003240565b620036bf606083018862003666565b8181036080830152620036d38187620032cd565b9050620036e460a083018662003666565b620036f360c083018562003666565b6200370260e083018462003666565b9998505050505050505050565b604081016200371f82856200322f565b620004676020830184620032ac565b606081016200373e828662003240565b6200374d602083018562003666565b8181036040830152620037618184620032cd565b95945050505050565b60a081016200377a828862003240565b62003789602083018762003240565b62003798604083018662003666565b620037a7606083018562003666565b8181036080830152620037bb8184620032cd565b979650505050505050565b602080825281016200046781846200324b565b602081016200129b8284620032ac565b602081016200129b8284620032b7565b602081016200129b8284620032c2565b60208082528101620004678184620032cd565b602080825281016200129b8162003308565b602080825281016200129b8162003338565b602080825281016200129b816200338e565b602080825281016200129b81620033be565b602080825281016200129b8162003414565b602080825281016200129b8162003444565b602080825281016200129b8162003474565b602080825281016200129b81620034a4565b602080825281016200129b81620034d4565b602080825281016200129b816200352a565b602080825281016200129b8162003580565b602080825281016200129b81620035b0565b602080825281016200129b8162003606565b602080825281016200129b8162003636565b602081016200129b828462003666565b6040810162003938828562003666565b62000467602083018462003666565b60405181810167ffffffffffffffff811182821017156200396757600080fd5b604052919050565b600067ffffffffffffffff8211156200398757600080fd5b506020601f91909101601f19160190565b60200190565b5190565b60006200129b82620039cd565b600060038210620039bc57fe5b5090565b600060098210620039bc57fe5b600160a060020a031690565b90565b151590565b60006200129b82620039a2565b600060038210620039bc57600080fd5b60006200129b82620039e1565b60006200129b82620039af565b60006200129b82620039c0565b82818337506000910152565b60005b8381101562003a4e57818101518382015260200162003a34565b8381111562003a5e576000848401525b50505050565b601f01601f19169056fe608060405234801561001057600080fd5b506040516104b63803806104b68339810180604052606081101561003357600080fd5b815160208301516040840180519294919382019264010000000081111561005957600080fd5b8201602081018481111561006c57600080fd5b815164010000000081118282018710171561008657600080fd5b505060008054600160a060020a031916600160a060020a038816179055600185905580519093506100c092506002915060208401906100c9565b50505050610164565b828054600181600116156101000203166002900490600052602060002090601f016020900481019282601f1061010a57805160ff1916838001178555610137565b82800160010185558215610137579182015b8281111561013757825182559160200191906001019061011c565b50610143929150610147565b5090565b61016191905b80821115610143576000815560010161014d565b90565b610343806101736000396000f3fe60806040526004361061006c5763ffffffff7c010000000000000000000000000000000000000000000000000000000060003504166307e4b7e9811461007157806338cc4831146100fb578063893d20e814610139578063a5ebeaa41461014e578063a7cc53f514610192575b600080fd5b34801561007d57600080fd5b506100866101b9565b6040805160208082528351818301528351919283929083019185019080838360005b838110156100c05781810151838201526020016100a8565b50505050905090810190601f1680156100ed5780820380516001836020036101000a031916815260200191505b509250505060405180910390f35b34801561010757600080fd5b5061011061024c565b6040805173ffffffffffffffffffffffffffffffffffffffff9092168252519081900360200190f35b34801561014557600080fd5b50610110610250565b34801561015a57600080fd5b5061017e6004803603604081101561017157600080fd5b508035906020013561026c565b604080519115158252519081900360200190f35b34801561019e57600080fd5b506101a7610311565b60408051918252519081900360200190f35b60028054604080516020601f60001961010060018716150201909416859004938401819004810282018101909252828152606093909290918301828280156102425780601f1061021757610100808354040283529160200191610242565b820191906000526020600020905b81548152906001019060200180831161022557829003601f168201915b5050505050905090565b3090565b60005473ffffffffffffffffffffffffffffffffffffffff1690565b600154600090820283101561030857604080517f08c379a000000000000000000000000000000000000000000000000000000000815260206004820152602d60248201527f4f666665722077617320746f6f206c6f772c20706c656173652070726f76696460448201527f65206d6f72652066756e64732e00000000000000000000000000000000000000606482015290519081900360840190fd5b50600192915050565b6001549056fea165627a7a72305820e916cf7b595291c781971316cdf62e2e04bf2e62afd457f557fa935073dcf2140029608060405260006004556040516200130938038062001309833981018060405260a081101561002d57600080fd5b81516020830151604084015160608501516080860180519496939592949193928301929164010000000081111561006357600080fd5b8201602081018481111561007657600080fd5b815164010000000081118282018710171561009057600080fd5b505060038054600160a060020a03199081163317909155600486905560008054600160a060020a038b811691841691909117909155600180548a83169084161790819055600280549093169116179055600780547401000000000000000000000000000000000000000060a060020a60ff0219909116179055600586905580519093506101269250600991506020840190610131565b5050505050506101cc565b828054600181600116156101000203166002900490600052602060002090601f016020900481019282601f1061017257805160ff191683800117855561019f565b8280016001018555821561019f579182015b8281111561019f578251825591602001919060010190610184565b506101ab9291506101af565b5090565b6101c991905b808211156101ab57600081556001016101b5565b90565b61112d80620001dc6000396000f3fe6080604052600436106101035763ffffffff60e060020a60003504166311adbaad81146101cf57806315336f80146102595780631865c57d1461030e5780631b3e7c4b146103355780631dc9b2841461036657806338cc4831146103935780634d9b3735146103a857806350b1be26146103bd57806356de96db146103d25780635c5d625e146103ff5780635f8d96de14610414578063620ae1c7146104295780638271bb3514610452578063841eb45a1461046757806390f3213d1461047c5780639363d6f2146104b55780639ed5b502146104ca578063a3bbb090146104df578063e39ff19f1461050c578063f00e6a2a1461053f578063f6e9178914610554575b60045434101561019a57604080517f08c379a000000000000000000000000000000000000000000000000000000000815260206004820152603760248201527f506c656173652070726f76696465206174206c65617374207468652066756e6460448201527f7320796f7520696e697469616c6c79206f666665726564000000000000000000606482015290519081900360840190fd5b6040805134815290517fa8142743f8f70a4c26f3691cf4ed59718381fb2f18070ec52be1f1022d8555579181900360200190a1005b3480156101db57600080fd5b506101e4610587565b6040805160208082528351818301528351919283929083019185019080838360005b8381101561021e578181015183820152602001610206565b50505050905090810190601f16801561024b5780820380516001836020036101000a031916815260200191505b509250505060405180910390f35b34801561026557600080fd5b5061030c6004803603602081101561027c57600080fd5b81019060208101813564010000000081111561029757600080fd5b8201836020820111156102a957600080fd5b803590602001918460018302840111640100000000831117156102cb57600080fd5b91908080601f01602080910402602001604051908101604052809392919081815260200183838082843760009201919091525092955061061e945050505050565b005b34801561031a57600080fd5b506103236106cb565b60408051918252519081900360200190f35b34801561034157600080fd5b5061034a6106fc565b60408051600160a060020a039092168252519081900360200190f35b34801561037257600080fd5b5061030c6004803603602081101561038957600080fd5b503560ff1661070b565b34801561039f57600080fd5b5061034a61072e565b3480156103b457600080fd5b50610323610732565b3480156103c957600080fd5b5061034a610737565b3480156103de57600080fd5b5061030c600480360360208110156103f557600080fd5b503560ff16610746565b34801561040b57600080fd5b506101e4610787565b34801561042057600080fd5b506103236107e8565b34801561043557600080fd5b5061043e6107ee565b604080519115158252519081900360200190f35b34801561045e57600080fd5b5061032361081c565b34801561047357600080fd5b5061030c610822565b34801561048857600080fd5b50610491610aef565b604051808260028111156104a157fe5b60ff16815260200191505060405180910390f35b3480156104c157600080fd5b5061030c610afd565b3480156104d657600080fd5b50610491610ba6565b3480156104eb57600080fd5b5061030c6004803603602081101561050257600080fd5b503560ff16610baf565b34801561051857600080fd5b5061030c6004803603602081101561052f57600080fd5b5035600160a060020a0316610bc8565b34801561054b57600080fd5b5061034a610c67565b34801561056057600080fd5b5061030c6004803603602081101561057757600080fd5b5035600160a060020a0316610c76565b60098054604080516020601f60026000196101006001881615020190951694909404938401819004810282018101909252828152606093909290918301828280156106135780601f106105e857610100808354040283529160200191610613565b820191906000526020600020905b8154815290600101906020018083116105f657829003601f168201915b505050505090505b90565b80516000106106b457604080517f08c379a000000000000000000000000000000000000000000000000000000000815260206004820152602a60248201527f456d70747920737472696e672063616e6e6f742062652061636365707465642060448201527f617320612070726f6f6600000000000000000000000000000000000000000000606482015290519081900360840190fd5b80516106c7906008906020840190610ca5565b5050565b60075460009074010000000000000000000000000000000000000000900460ff1660088111156106f757fe5b905090565b600254600160a060020a031690565b600a805482919061ff00191661010083600281111561072657fe5b021790555050565b3090565b303190565b600154600160a060020a031690565b6007805482919074ff000000000000000000000000000000000000000019167401000000000000000000000000000000000000000083600881111561072657fe5b60088054604080516020601f60026000196101006001881615020190951694909404938401819004810282018101909252828152606093909290918301828280156106135780601f106105e857610100808354040283529160200191610613565b60065490565b600080600880546001816001161561010002031660029004905011156108165750600161061b565b50600090565b60045490565b60008030600160a060020a03166338cc48316040518163ffffffff1660e060020a02815260040160206040518083038186803b15801561086157600080fd5b505afa158015610875573d6000803e3d6000fd5b505050506040513d602081101561088b57600080fd5b5051600054604080517f38cc48310000000000000000000000000000000000000000000000000000000081529051600160a060020a03909216916338cc483191600480820192602092909190829003018186803b1580156108eb57600080fd5b505afa1580156108ff573d6000803e3d6000fd5b505050506040513d602081101561091557600080fd5b5051600154604080517f38cc48310000000000000000000000000000000000000000000000000000000081529051600160a060020a03909216916338cc483191600480820192602092909190829003018186803b15801561097557600080fd5b505afa158015610989573d6000803e3d6000fd5b505050506040513d602081101561099f57600080fd5b50516109a9610d23565b600160a060020a03938416815291831660208301529091166040808301919091525190819003606001906000f0801580156109e8573d6000803e3d6000fd5b506007805473ffffffffffffffffffffffffffffffffffffffff1916600160a060020a039283161790819055166353707b4c610a226107ee565b610a2a610ba6565b610a32610aef565b6040518463ffffffff1660e060020a0281526004018084151515158152602001836002811115610a5e57fe5b60ff168152602001826002811115610a7257fe5b60ff1681526020019350505050604080518083038186803b158015610a9657600080fd5b505afa158015610aaa573d6000803e3d6000fd5b505050506040513d6040811015610ac057600080fd5b5080516020909101519092509050600160a060020a03821615610ae657610ae682610bc8565b6106c781610746565b600a54610100900460ff1690565b600354600160a060020a03163314610b9c57604080517f08c379a000000000000000000000000000000000000000000000000000000000815260206004820152603360248201527f416374696f6e2063616e206f6e6c7920626520706572666f726d65642062792060448201527f746865206f776e696e6720636f6e747261637400000000000000000000000000606482015290519081900360840190fd5b6005544201600655565b600a5460ff1690565b600a805482919060ff1916600183600281111561072657fe5b80600160a060020a031663893d20e86040518163ffffffff1660e060020a02815260040160206040518083038186803b158015610c0457600080fd5b505afa158015610c18573d6000803e3d6000fd5b505050506040513d6020811015610c2e57600080fd5b5051604051600160a060020a0390911690303180156108fc02916000818181858888f193505050501580156106c7573d6000803e3d6000fd5b600054600160a060020a031690565b6002805473ffffffffffffffffffffffffffffffffffffffff1916600160a060020a0392909216919091179055565b828054600181600116156101000203166002900490600052602060002090601f016020900481019282601f10610ce657805160ff1916838001178555610d13565b82800160010185558215610d13579182015b82811115610d13578251825591602001919060010190610cf8565b50610d1f929150610d33565b5090565b6040516103b480610d4e83390190565b61061b91905b80821115610d1f5760008155600101610d3956fe608060405234801561001057600080fd5b506040516060806103b48339810180604052606081101561003057600080fd5b508051602082015160409092015160008054600160a060020a03938416600160a060020a03199182161790915560018054948416948216949094179093556002805492909116919092161790556103288061008c6000396000f3fe6080604052600436106100775763ffffffff7c01000000000000000000000000000000000000000000000000000000006000350416630b957629811461007c57806315f6c1341461007c578063349590c3146100ea578063415899f31461011f57806353707b4c1461014c5780638886181814610189575b600080fd5b34801561008857600080fd5b506100a96004803603602081101561009f57600080fd5b503560ff166101b6565b60405173ffffffffffffffffffffffffffffffffffffffff83168152602081018260088111156100d557fe5b60ff1681526020019250505060405180910390f35b3480156100f657600080fd5b506100a96004803603604081101561010d57600080fd5b5060ff813581169160200135166101fc565b34801561012b57600080fd5b506100a96004803603602081101561014257600080fd5b503560ff16610252565b34801561015857600080fd5b506100a96004803603606081101561016f57600080fd5b50803515159060ff60208201358116916040013516610297565b34801561019557600080fd5b506100a9600480360360208110156101ac57600080fd5b503560ff166102c4565b60008060028360028111156101c757fe5b14156101ef57505060025473ffffffffffffffffffffffffffffffffffffffff1660066101f7565b506000905060075b915091565b600080600284600281111561020d57fe5b14156102255761021c836101b6565b9150915061024b565b600084600281111561023357fe5b14156102425761021c83610252565b61021c836101b6565b9250929050565b600080600283600281111561026357fe5b141561027557506000905060086101f7565b505060015473ffffffffffffffffffffffffffffffffffffffff1660066101f7565b60008084156102b3576102aa84846101fc565b915091506102bc565b6102aa846102c4565b935093915050565b600080808360028111156102d457fe5b14156101ef57505060015473ffffffffffffffffffffffffffffffffffffffff1660066101f756fea165627a7a7230582089f6309960b8ce70341b9cf754dad47a61214fd2b26bcbdc8c02709894aa3dfd0029a165627a7a7230582020f433005aab771a8800f3c84239153b83d52e5572060bd7bbc5ff9ad874181d0029a265627a7a7230582025f28ddec6cbdeac522e964b9b213b43fc4d2b1eb5f9c507adf9495a78afb1d06c6578706572696d656e74616cf50037",
  "source": "pragma solidity ^0.5.0;\r\npragma experimental ABIEncoderV2;\r\n\r\nimport \"./ProcessData.sol\";\r\nimport \"./IActor.sol\";\r\nimport \"./Enums.sol\";\r\n\r\ncontract Protocol {\r\n\r\n    address[] private Mitigators;\r\n\taddress[] private Targets;\r\n    address[] private CurrentProcesses;\r\n\r\n    event ProcessDataCreated(address _from, ProcessData addr);\r\n\tevent MitigatorCreated(address _from, IActor addr);\r\n\tevent TargetCreated(address _from, IActor addr);\r\n\tevent FundsReceived(uint256 value);\r\n\t\r\n\tfunction() external payable{\r\n\t\temit FundsReceived(msg.value);\r\n\t}\r\n\t\r\n\t\r\n    function registerMitigator(address payable _MitigatorOwner,uint256 PricePerUnit,string memory NetworkName) public returns(address){\r\n        IActor Mitigator = new IActor(_MitigatorOwner,PricePerUnit,NetworkName);\r\n        Mitigators.push(Mitigator.getAddress());\r\n\t\temit MitigatorCreated(msg.sender,Mitigator);\r\n        return Mitigator.getAddress();\r\n    }\r\n\t\r\n\tfunction registerTarget(address payable _TargetOwner,uint256 PricePerUnit,string memory NetworkName) public returns(address){\r\n        IActor Target = new IActor(_TargetOwner,PricePerUnit,NetworkName);\r\n        Targets.push(Target.getAddress());\r\n\t\temit TargetCreated(msg.sender,Target);\r\n        return Target.getAddress();\r\n    }\r\n\r\n    function init(address _Mitigator,uint _DeadlineInterval,uint256 _OfferedFunds,string memory _ListOfAddresses, uint _NumberOfAddresses) \r\n    public \r\n    returns (ProcessData){\r\n        \r\n        require(bytes(_ListOfAddresses).length >0,\"no addresses provided\");\r\n        require(isMitigator(_Mitigator),\"no mitigator\");\r\n        require(IActor(_Mitigator).isOfferAcceptable(_OfferedFunds,_NumberOfAddresses),\"Funds too low\");\r\n        require(senderIsTarget(msg.sender),\"Sender is not registered as a Target\");\r\n\t\t\r\n        IActor _Target = IActor(getTarget(msg.sender));\r\n        ProcessData newProcessData = new ProcessData(_Target.getAddress(),_Mitigator,_DeadlineInterval,_OfferedFunds,_ListOfAddresses);\r\n        CurrentProcesses.push(newProcessData.getAddress());\r\n\t\temit ProcessDataCreated(msg.sender,newProcessData);\r\n\t\t\r\n        return newProcessData;\r\n    }\r\n\r\n    function approve(address payable process,bool descision) \r\n    public\r\n    returns (ProcessData){\r\n        \r\n        require(isProcess(process),\"Process does not exist\");\r\n        require(canSenderAdvance(process,Enums.State.APPROVE),\"Sender is not allowed\");\r\n        \r\n        ProcessData ProcessToUse = ProcessData(process);\r\n        \r\n        if(descision){\r\n            ProcessToUse.setState(Enums.State.FUNDING);\r\n            ProcessToUse.setNextActor(ProcessToUse.getTarget());\r\n        }else{\r\n            ProcessToUse.setState(Enums.State.ABORT);\r\n\t\t\tProcessToUse.setNextActor(ProcessToUse.getTarget());\r\n        }\r\n  \r\n        return ProcessToUse;\r\n    }\r\n    \r\n    function sendFunds(address payable process) \r\n    public\r\n    payable\r\n    returns (ProcessData){\r\n        \r\n        require(isProcess(process),\"Process does not exist\");\r\n        require(canSenderAdvance(process,Enums.State.FUNDING),\"Sender is not allowed\");\r\n        \r\n        ProcessData ProcessToUse = ProcessData(process);\r\n        \r\n        ProcessToUse.getAddress().transfer(msg.value);\r\n        ProcessToUse.setNextActor(ProcessToUse.getMitigator());\r\n        ProcessToUse.setState(Enums.State.PROOF);\r\n        ProcessToUse.setNextDeadline();\r\n        \r\n        return ProcessToUse;\r\n    }\r\n    \r\n    \r\n    function uploadProof(address payable process,string memory _Proof) \r\n    public\r\n    returns (ProcessData){\r\n        \r\n        require(isProcess(process),\"Process does not exist\");\r\n        require(canSenderAdvance(process,Enums.State.PROOF),\"Sender is not allowed\");\r\n        \r\n        ProcessData ProcessToUse = ProcessData(process);\r\n        ProcessToUse.setProof(_Proof);\r\n        ProcessToUse.setNextActor(ProcessToUse.getTarget());\r\n        ProcessToUse.setState(Enums.State.TRATE);\r\n        ProcessToUse.setNextDeadline();\r\n        \r\n        return ProcessToUse;\r\n    }\r\n    \r\n    function ratingByTarget(address payable process,Enums.Rating rating) \r\n    public\r\n    payable\r\n    returns (ProcessData){\r\n        \r\n        require(isProcess(process),\"Process does not exist\");\r\n        require(canSenderAdvance(process,Enums.State.TRATE),\"Sender is not allowed\");\r\n        \r\n        ProcessData ProcessToUse = ProcessData(process);\r\n        \r\n        if(!ProcessToUse.isProofProvided()){\r\n            ProcessToUse.setTargetRating(rating);\r\n\t\t\tProcessToUse.setNextActor(ProcessToUse.getTarget());\r\n\t\t\tProcessToUse.setState(Enums.State.COMPLETE);\r\n            ProcessToUse.executeEvaluation();\r\n            return ProcessToUse;\r\n        }\r\n        \r\n        ProcessToUse.setTargetRating(rating);\r\n        ProcessToUse.setNextActor(ProcessToUse.getMitigator());\r\n        ProcessToUse.setState(Enums.State.MRATE);\r\n        ProcessToUse.setNextDeadline();\r\n        \r\n        return ProcessToUse;\r\n         \r\n    }\r\n    \r\n    function ratingByMitigator(address payable process,Enums.Rating rating) \r\n    public\r\n    payable\r\n    returns (ProcessData){\r\n        \r\n        require(isProcess(process),\"Process does not exist\");\r\n\t\t\r\n        require(canSenderAdvance(process,Enums.State.MRATE),\"Sender is not allowed to advance due to: \");\r\n        \r\n        ProcessData ProcessToUse = ProcessData(process);\r\n        ProcessToUse.setMitigatorRating(rating);\r\n\t\tProcessToUse.setNextActor(ProcessToUse.getTarget());\r\n        ProcessToUse.executeEvaluation();\r\n\r\n        return ProcessToUse;\r\n    }\r\n\t\r\n\tfunction skipCurrentState(address payable process) public returns(ProcessData){\r\n\t\t\r\n\t\trequire(isProcess(process),\"Process not found\");\r\n        ProcessData CurrentProcess = getProcess(process);\r\n\t\trequire(CurrentProcess.getState()<uint(Enums.State.COMPLETE),\"Process is already aborted, completed or escalated\");\r\n\t\t\r\n\t\tif(CurrentProcess.getState()<uint(Enums.State.PROOF)){\r\n\t\t\trequire(msg.sender== CurrentProcess.getTarget().getOwner(),\"In this state, the process can only be aborted by the initiator\");\r\n\t\t\tCurrentProcess.setState(Enums.State.ABORT);\r\n\t\t\tCurrentProcess.setNextActor(CurrentProcess.getTarget());\r\n\t\t\treturn CurrentProcess;\r\n\t\t}\r\n\t\t\r\n\t\trequire(now>CurrentProcess.getDeadline(),\"Deadline not yet exceeded, please wait\");\r\n\t\r\n\t\tif(CurrentProcess.getNextActor()==CurrentProcess.getTarget()){\r\n\t\t\tCurrentProcess.setNextActor(CurrentProcess.getMitigator());\r\n\t\t}else{\r\n\t\t\tCurrentProcess.setNextActor(CurrentProcess.getTarget());\t\t\t\t\r\n\t\t}\r\n\r\n\t\tif(CurrentProcess.getState()==uint(Enums.State.PROOF)){\r\n\t\t\tCurrentProcess.setState(Enums.State.TRATE);\r\n\t\t}\r\n\t\t\t\r\n\t\tif(CurrentProcess.getState() == uint(Enums.State.TRATE)){\r\n\t\t\tCurrentProcess.setState(Enums.State.MRATE);\r\n\t\t\tCurrentProcess.setTargetRating(Enums.Rating.NA);\r\n\t\t}\r\n\t\t\t\r\n\t\tif(CurrentProcess.getState() == uint(Enums.State.MRATE)){\r\n\t\t\tCurrentProcess.setMitigatorRating(Enums.Rating.NA);\r\n\t\t\tCurrentProcess.executeEvaluation();\r\n\t\t}\r\n\t\t\r\n\t\tCurrentProcess.setNextDeadline();\r\n\t\t\r\n\t\treturn CurrentProcess;\r\n\t}\r\n   \r\n    /*Checks where the sender of the message is the next actor and the state \r\n    of the action to be performed is the one immediately following in the process\r\n    and if deadline is exceeded*/\r\n    function canSenderAdvance(address payable process,Enums.State newState) \r\n    private \r\n    view\r\n    returns(bool){\r\n        \r\n\t\trequire(isProcess(process),\"Process not found\");\r\n        ProcessData CurrentProcess = getProcess(process);\r\n\t\t\r\n\t\trequire(CurrentProcess.getNextActor().getOwner() == msg.sender,\"NextActor != Sender\");\r\n\t\trequire(uint(newState)==uint(CurrentProcess.getState()),\"Next state would be lower\");\r\n\t\tif(CurrentProcess.getState()<uint(Enums.State.FUNDING)){\r\n\t\t\trequire(now>CurrentProcess.getDeadline(),\"state >=start && now > deadline\");\r\n\t\t}\r\n        return true;\r\n    }\r\n\t\r\n\tfunction getProcess(address payable process) \r\n    public view \r\n    returns(ProcessData){\r\n        for (uint i = 0 ; i < CurrentProcesses.length; i++) {\r\n            if(CurrentProcesses[i]==process){\r\n                return ProcessData(process);\r\n            }\r\n        }\r\n\t\treturn ProcessData(0);\r\n    }\r\n\t\r\n    function getProcesses() \r\n    public view \r\n    returns(address[] memory){\r\n        return CurrentProcesses;\r\n    }\r\n    \r\n\r\n    function getStateOfProcess(address payable process) \r\n    public view \r\n    returns(address payable,address payable,address payable,uint,string memory,uint,uint,uint){\r\n        ProcessData ProcessToUse = ProcessData(process);\r\n        return (ProcessToUse.getTarget().getOwner(),ProcessToUse.getMitigator().getOwner(),ProcessToUse.getNextActor().getOwner()\r\n        ,ProcessToUse.getFunds(),ProcessToUse.getProof(),uint(ProcessToUse.getState())\r\n        ,uint(ProcessToUse.getTargetRating()),uint(ProcessToUse.getMitigatorRating()));\r\n    }\r\n    \r\n    function isProcess(address payable process) \r\n    private view \r\n    returns(bool){\r\n        for (uint i = 0 ; i < CurrentProcesses.length; i++) {\r\n            if(CurrentProcesses[i]==process){\r\n                return true;\r\n            }\r\n        }\r\n        return false;\r\n    }\r\n    \r\n    function isMitigator(address mitigator) \r\n    private view \r\n    returns(bool){\r\n        for (uint i = 0 ; i < Mitigators.length; i++) {\r\n            if(Mitigators[i]==mitigator){\r\n                return true;\r\n            }\r\n        }\r\n        return false;\r\n    }\r\n\t\r\n\tfunction senderIsTarget(address payable owner) \r\n    private view \r\n    returns(bool){\r\n        for (uint i = 0 ; i < Targets.length; i++) {\r\n            if(IActor(Targets[i]).getOwner()==owner){\r\n                return true;\r\n            }\r\n        }\r\n        return false;\r\n    }\r\n\t\r\n\tfunction getTarget(address payable owner) \r\n    private view \r\n    returns(address){\r\n        for (uint i = 0 ; i < Targets.length; i++) {\r\n            if(IActor(Targets[i]).getOwner()==owner){\r\n                return Targets[i];\r\n            }\r\n        }\r\n\t\treturn address(0);\r\n    }\r\n}",
  "sourcePath": "C:/Code/Private/CooperativeSignaling/contracts/Protocol.sol",
  "compiler": {
    "name": "solc",
    "version": "0.5.0+commit.1d4f565a.Emscripten.clang"
  },
  "schemaVersion": "3.0.1",
  "updatedAt": "2019-02-03T19:13:05.316Z",
  "devdoc": {
    "methods": {}
  },
  "userdoc": {
    "methods": {}
  }
}