{
  "contractName": "Protocol",
  "abi": [
    {
      "inputs": [],
      "payable": true,
      "stateMutability": "payable",
      "type": "constructor",
      "signature": "constructor"
    },
    {
      "payable": true,
      "stateMutability": "payable",
      "type": "fallback"
    },
    {
      "anonymous": false,
      "inputs": [
        {
          "indexed": false,
          "name": "_from",
          "type": "address"
        },
        {
          "indexed": false,
          "name": "addr",
          "type": "address"
        }
      ],
      "name": "ProcessCreated",
      "type": "event",
      "signature": "0x6e7faf61cfe268d7ba9b653ca2ccad3dc13a03d89863baa45e6de18e50596fc9"
    },
    {
      "anonymous": false,
      "inputs": [
        {
          "indexed": false,
          "name": "value",
          "type": "uint256"
        }
      ],
      "name": "FundsReceived",
      "type": "event",
      "signature": "0xbcdc7071c1beb6dcf2744621e0b29a2f2432ee20812d9ca5e3d5e8f9308d93a3"
    },
    {
      "constant": false,
      "inputs": [
        {
          "name": "_Mitigator",
          "type": "address"
        },
        {
          "name": "_DeadlineInterval",
          "type": "uint256"
        },
        {
          "name": "_OfferedFunds",
          "type": "uint256"
        },
        {
          "name": "_ListOfAddresses",
          "type": "string"
        }
      ],
      "name": "init",
      "outputs": [],
      "payable": false,
      "stateMutability": "nonpayable",
      "type": "function",
      "signature": "0x0386ebb0"
    },
    {
      "constant": false,
      "inputs": [
        {
          "name": "descision",
          "type": "bool"
        }
      ],
      "name": "approve",
      "outputs": [],
      "payable": false,
      "stateMutability": "nonpayable",
      "type": "function",
      "signature": "0x09b67f8e"
    },
    {
      "constant": false,
      "inputs": [],
      "name": "sendFunds",
      "outputs": [],
      "payable": true,
      "stateMutability": "payable",
      "type": "function",
      "signature": "0x8d68cf59"
    },
    {
      "constant": false,
      "inputs": [
        {
          "name": "_Proof",
          "type": "string"
        }
      ],
      "name": "uploadProof",
      "outputs": [],
      "payable": false,
      "stateMutability": "nonpayable",
      "type": "function",
      "signature": "0x2f3b7958"
    },
    {
      "constant": false,
      "inputs": [
        {
          "name": "_Rating",
          "type": "uint256"
        }
      ],
      "name": "ratingByTarget",
      "outputs": [],
      "payable": false,
      "stateMutability": "nonpayable",
      "type": "function",
      "signature": "0x85ad35bc"
    },
    {
      "constant": false,
      "inputs": [
        {
          "name": "_Rating",
          "type": "uint256"
        }
      ],
      "name": "ratingByMitigator",
      "outputs": [],
      "payable": false,
      "stateMutability": "nonpayable",
      "type": "function",
      "signature": "0x3a9d5a02"
    }
  ],
  "bytecode": "0x608060405242600655610b49806100176000396000f3fe6080604052600436106100775763ffffffff7c01000000000000000000000000000000000000000000000000000000006000350416630386ebb081146100ac57806309b67f8e1461017d5780632f3b7958146101a95780633a9d5a021461025c57806385ad35bc146102865780638d68cf59146102b0575b6040805134815290517fbcdc7071c1beb6dcf2744621e0b29a2f2432ee20812d9ca5e3d5e8f9308d93a39181900360200190a1005b3480156100b857600080fd5b5061017b600480360360808110156100cf57600080fd5b600160a060020a03823516916020810135916040820135919081019060808101606082013564010000000081111561010657600080fd5b82018360208201111561011857600080fd5b8035906020019184600183028401116401000000008311171561013a57600080fd5b91908080601f0160208091040260200160405190810160405280939291908181526020018383808284376000920191909152509295506102b8945050505050565b005b34801561018957600080fd5b5061017b600480360360208110156101a057600080fd5b503515156103b2565b3480156101b557600080fd5b5061017b600480360360208110156101cc57600080fd5b8101906020810181356401000000008111156101e757600080fd5b8201836020820111156101f957600080fd5b8035906020019184600183028401116401000000008311171561021b57600080fd5b91908080601f0160208091040260200160405190810160405280939291908181526020018383808284376000920191909152509295506104b3945050505050565b34801561026857600080fd5b5061017b6004803603602081101561027f57600080fd5b5035610591565b34801561029257600080fd5b5061017b600480360360208110156102a957600080fd5b503561066f565b61017b61078c565b600054600160a060020a03163314610308576040805160e560020a62461bcd02815260206004820152601c6024820152600080516020610afe833981519152604482015290519081900360640190fd5b60018054600160a060020a03861673ffffffffffffffffffffffffffffffffffffffff1991821617909155600080549091163317905560088390556004829055805161035b906002906020840190610a42565b506001805460a060020a60ff02191660a060020a1790556040805133815230602082015281517f6e7faf61cfe268d7ba9b653ca2ccad3dc13a03d89863baa45e6de18e50596fc9929181900390910190a150505050565b600154600160a060020a03163314610402576040805160e560020a62461bcd02815260206004820152601c6024820152600080516020610afe833981519152604482015290519081900360640190fd5b600060015460a060020a900460ff16600881111561041c57fe5b1461045f576040805160e560020a62461bcd0281526020600482015260186024820152600080516020610ade833981519152604482015290519081900360640190fd5b8015610491576001805460a060020a60ff021916740200000000000000000000000000000000000000001790556104b0565b600180546007919060a060020a60ff02191660a060020a835b02179055505b50565b600154600160a060020a03163314610503576040805160e560020a62461bcd02815260206004820152601c6024820152600080516020610afe833981519152604482015290519081900360640190fd5b600060015460a060020a900460ff16600881111561051d57fe5b14610560576040805160e560020a62461bcd0281526020600482015260186024820152600080516020610ade833981519152604482015290519081900360640190fd5b8051610573906003906020840190610a42565b50600180546004919060a060020a60ff02191660a060020a836104aa565b600154600160a060020a031633146105e1576040805160e560020a62461bcd02815260206004820152601c6024820152600080516020610afe833981519152604482015290519081900360640190fd5b600560015460a060020a900460ff1660088111156105fb57fe5b1461063e576040805160e560020a62461bcd0281526020600482015260186024820152600080516020610ade833981519152604482015290519081900360640190fd5b80600281111561064a57fe5b6005805461ff00191661010083600281111561066257fe5b02179055506104b06108bc565b600054600160a060020a031633146106bf576040805160e560020a62461bcd02815260206004820152601c6024820152600080516020610afe833981519152604482015290519081900360640190fd5b600360015460a060020a900460ff1660088111156106d957fe5b1461071c576040805160e560020a62461bcd0281526020600482015260186024820152600080516020610ade833981519152604482015290519081900360640190fd5b80600281111561072857fe5b6005805460ff1916600183600281111561073e57fe5b021790555060006003805460018160011615610100020316600290049050111561076f5761076a6108bc565b6104b0565b600180546005919060a060020a60ff02191660a060020a836104aa565b600054600160a060020a031633146107dc576040805160e560020a62461bcd02815260206004820152601c6024820152600080516020610afe833981519152604482015290519081900360640190fd5b600060015460a060020a900460ff1660088111156107f657fe5b14610839576040805160e560020a62461bcd0281526020600482015260186024820152600080516020610ade833981519152604482015290519081900360640190fd5b600454341015610893576040805160e560020a62461bcd02815260206004820152601f60248201527f73656e64206174206c6561737420746865206f6666657265642066756e647300604482015290519081900360640190fd5b6001805460a060020a60ff02191674030000000000000000000000000000000000000000179055565b6000806108c761091b565b9092509050600160a060020a0382161561091357604051600160a060020a03831690303180156108fc02916000818181858888f19350505050158015610911573d6000803e3d6000fd5b505b505042600755565b60008060006003805460018160011615610100020316600290049050111561099057600260055460ff16600281111561095057fe5b14156109675761095e6109ca565b915091506109c6565b600060055460ff16600281111561097a57fe5b14156109885761095e610a00565b61095e6109ca565b600060055460ff1660028111156109a357fe5b14156109be575050600054600160a060020a031660066109c6565b506000905060075b9091565b6000806002600554610100900460ff1660028111156109e557fe5b14156109be575050600154600160a060020a031660066109c6565b6000806002600554610100900460ff166002811115610a1b57fe5b1415610a2d57506000905060086109c6565b5050600054600160a060020a031660066109c6565b828054600181600116156101000203166002900490600052602060002090601f016020900481019282601f10610a8357805160ff1916838001178555610ab0565b82800160010185558215610ab0579182015b82811115610ab0578251825591602001919060010190610a95565b50610abc929150610ac0565b5090565b610ada91905b80821115610abc5760008155600101610ac6565b9056fe5374617465206973206e6f7420617070726f707269617465000000000000000073656e646572206973206e6f74207265717569726564206163746f7200000000a165627a7a723058205a8be46a89403bf585b7f4e6045e2831b776b2e8f59e36cd89f903a7828566270029",
  "source": "pragma solidity ^0.5.0;\r\n\r\nimport \"./Enums.sol\";\r\n\r\ncontract Protocol {\r\n\r\n    address payable private Target;\r\n\taddress payable private Mitigator;\r\n\tEnums.State CurrentState;\r\n\tstring private ListOfAddresses;\r\n\tstring private Proof;\r\n\tuint256 private OfferedFunds;\r\n\tEnums.Rating private TargetRating;\r\n\tEnums.Rating private MitigatorRating;\r\n\tuint256 private StartTime = now;\r\n\tuint256 private EndTime;\r\n\tuint256 private DeadlineInterval;\r\n\tuint256 private CurrentDeadline;\r\n    event ProcessCreated(address _from, address addr);\r\n\tevent FundsReceived(uint256 value);\r\n\t\r\n\tconstructor() public payable{}\r\n\t\r\n\tfunction() external payable{\r\n\t\temit FundsReceived(msg.value);\r\n\t}\r\n\r\n    function init(address payable _Mitigator,uint _DeadlineInterval,uint256 _OfferedFunds,string memory _ListOfAddresses) \r\n    public {\r\n        \r\n        require(msg.sender==Target,\"sender is not required actor\");\r\n\t\tMitigator = _Mitigator;\r\n\t\tTarget = msg.sender;\r\n\t\tDeadlineInterval=_DeadlineInterval;\r\n\t\tOfferedFunds=_OfferedFunds;\r\n\t\tListOfAddresses=_ListOfAddresses;\r\n\t\tCurrentState = Enums.State.APPROVE;\r\n\t\temit ProcessCreated(msg.sender,address(this));\r\n    }\r\n\r\n    function approve(bool descision) \r\n    public{\r\n        \r\n\t\trequire(msg.sender==Mitigator,\"sender is not required actor\");\r\n        require(CurrentState==Enums.State.REQUEST,\"State is not appropriate\");\r\n\r\n        if(descision){\r\n            CurrentState = Enums.State.FUNDING;\r\n        }else{\r\n            CurrentState = Enums.State.ABORT;\r\n        }\r\n    }\r\n    \r\n    function sendFunds() \r\n\tpayable\r\n    public{\r\n        \r\n        require(msg.sender==Target,\"sender is not required actor\");\r\n\t\trequire(CurrentState==Enums.State.REQUEST,\"State is not appropriate\");\r\n        require(msg.value >= OfferedFunds,\"send at least the offered funds\");\r\n\t\t\r\n\t\tCurrentState = Enums.State.PROOF;\r\n    }\r\n    \r\n    \r\n    function uploadProof(string memory _Proof) \r\n    public{\r\n        \r\n        require(msg.sender==Mitigator,\"sender is not required actor\");\r\n        require(CurrentState==Enums.State.REQUEST,\"State is not appropriate\");\r\n        \r\n        Proof = _Proof;\r\n\t\tCurrentState = Enums.State.RATE_T;\r\n    }\r\n    \r\n    function ratingByTarget(uint _Rating) \r\n    public{\r\n        \r\n        require(msg.sender==Target,\"sender is not required actor\");\r\n        require(CurrentState==Enums.State.PROOF,\"State is not appropriate\");\r\n\r\n        TargetRating = Enums.Rating(_Rating);\r\n        \r\n\t\tif(bytes(Proof).length>0){\r\n\t\t\treturn endProcess();\r\n        }\r\n\t\tCurrentState = Enums.State.RATE_M;\r\n    }\r\n    \r\n    function ratingByMitigator(uint _Rating) \r\n    public{\r\n        \r\n\t\trequire(msg.sender==Mitigator,\"sender is not required actor\");\r\n\t\trequire(CurrentState==Enums.State.RATE_M,\"State is not appropriate\");\r\n\t\t\r\n        MitigatorRating = Enums.Rating(_Rating);\r\n        \r\n\t\treturn endProcess();\r\n    }\r\n\t\r\n\tfunction endProcess() private{\r\n\t\taddress payable owner;\r\n\t\tEnums.State stateToSet;\r\n\t\t\r\n        (owner,stateToSet) = evaluate();\r\n\t\t\r\n\t\tif(owner!=address(0)){\r\n\t\t\towner.transfer(address(this).balance);\r\n\t\t}\r\n\t\tEndTime = now;\r\n\t}\r\n\t\r\n\t function evaluate() private view returns (address payable,Enums.State){    \r\n        if(bytes(Proof).length>0){\r\n\t\t\tif(TargetRating==Enums.Rating.POS){\r\n\t\t\t\treturn satisfied();\r\n\t\t\t}else if(TargetRating==Enums.Rating.NEG){\r\n\t\t\t\treturn dissatisfied();\r\n\t\t\t}else{\r\n\t\t\t\treturn selfish();\r\n\t\t\t}\r\n        }else{\r\n            if(TargetRating==Enums.Rating.NEG){\r\n\t\t\t\treturn(Target,Enums.State.COMPLETE);\r\n            }else{\r\n                return(address(0),Enums.State.ABORT);\r\n            }\r\n        }\r\n    }\r\n    \r\n    function satisfied() private view returns (address payable,Enums.State){    \r\n        if(MitigatorRating==Enums.Rating.POS){\r\n\t\t\treturn(Mitigator,Enums.State.COMPLETE);\r\n        }else{\r\n            return(address(0),Enums.State.ABORT);\r\n        }\r\n    }\r\n    \r\n    function selfish() private view returns (address payable,Enums.State){    \r\n        if(MitigatorRating==Enums.Rating.POS){\r\n            return(Mitigator,Enums.State.COMPLETE);\r\n        }else{\r\n            return(address(0),Enums.State.ABORT);\r\n        }\r\n    }\r\n    \r\n    function dissatisfied() private view returns (address payable,Enums.State){    \r\n        if(MitigatorRating==Enums.Rating.POS){\r\n            return(address(0),Enums.State.ESCALATE);\r\n        }else{\r\n            return(Target,Enums.State.COMPLETE);\r\n        }\r\n    }\r\n\r\n}",
  "sourcePath": "C:/Code/Private/CooperativeSignaling/contracts/Protocol.sol",
  "compiler": {
    "name": "solc",
    "version": "0.5.0+commit.1d4f565a.Emscripten.clang"
  },
  "schemaVersion": "3.0.1",
  "updatedAt": "2019-02-12T15:06:26.496Z",
  "devdoc": {
    "methods": {}
  },
  "userdoc": {
    "methods": {}
  }
}