{
  "contractName": "StateRatingByMitigator",
  "abi": [
    {
      "constant": true,
      "inputs": [],
      "name": "Statename",
      "outputs": [
        {
          "name": "",
          "type": "string"
        }
      ],
      "payable": false,
      "stateMutability": "view",
      "type": "function"
    },
    {
      "constant": true,
      "inputs": [],
      "name": "getName",
      "outputs": [
        {
          "name": "",
          "type": "string"
        }
      ],
      "payable": false,
      "stateMutability": "view",
      "type": "function"
    },
    {
      "constant": false,
      "inputs": [],
      "name": "canAdvance",
      "outputs": [
        {
          "name": "",
          "type": "bool"
        }
      ],
      "payable": false,
      "stateMutability": "nonpayable",
      "type": "function"
    },
    {
      "inputs": [
        {
          "name": "_data",
          "type": "address"
        }
      ],
      "payable": true,
      "stateMutability": "payable",
      "type": "constructor"
    },
    {
      "constant": false,
      "inputs": [],
      "name": "execute",
      "outputs": [],
      "payable": false,
      "stateMutability": "nonpayable",
      "type": "function"
    },
    {
      "constant": false,
      "inputs": [
        {
          "name": "value",
          "type": "bool"
        }
      ],
      "name": "execute",
      "outputs": [],
      "payable": false,
      "stateMutability": "nonpayable",
      "type": "function"
    },
    {
      "constant": false,
      "inputs": [
        {
          "name": "value",
          "type": "string"
        }
      ],
      "name": "execute",
      "outputs": [],
      "payable": false,
      "stateMutability": "nonpayable",
      "type": "function"
    },
    {
      "constant": false,
      "inputs": [
        {
          "name": "value",
          "type": "uint256"
        }
      ],
      "name": "execute",
      "outputs": [],
      "payable": false,
      "stateMutability": "nonpayable",
      "type": "function"
    },
    {
      "constant": true,
      "inputs": [],
      "name": "getActorOfState",
      "outputs": [
        {
          "name": "",
          "type": "address"
        }
      ],
      "payable": false,
      "stateMutability": "view",
      "type": "function"
    }
  ],
  "bytecode": "0x60c0604052600660808190527f495374617465000000000000000000000000000000000000000000000000000060a090815261003e9160019190610084565b5060405160208061085c8339810180604052602081101561005e57600080fd5b505160008054600160a060020a031916600160a060020a0390921691909117905561011f565b828054600181600116156101000203166002900490600052602060002090601f016020900481019282601f106100c557805160ff19168380011785556100f2565b828001600101855582156100f2579182015b828111156100f25782518255916020019190600101906100d7565b506100fe929150610102565b5090565b61011c91905b808211156100fe5760008155600101610108565b90565b61072e8061012e6000396000f3fe6080604052600436106100745763ffffffff60e060020a60003504166307918ec5811461007957806317d7de7c1461010357806325e3926e1461011857806361461954146101415780637bb3ad9b14610158578063972213ad14610196578063bd590d7e146101c2578063fe0d94c114610275575b600080fd5b34801561008557600080fd5b5061008e61029f565b6040805160208082528351818301528351919283929083019185019080838360005b838110156100c85781810151838201526020016100b0565b50505050905090810190601f1680156100f55780820380516001836020036101000a031916815260200191505b509250505060405180910390f35b34801561010f57600080fd5b5061008e61032c565b34801561012457600080fd5b5061012d6103c2565b604080519115158252519081900360200190f35b34801561014d57600080fd5b506101566104fd565b005b34801561016457600080fd5b5061016d610564565b6040805173ffffffffffffffffffffffffffffffffffffffff9092168252519081900360200190f35b3480156101a257600080fd5b50610156600480360360208110156101b957600080fd5b503515156104fd565b3480156101ce57600080fd5b50610156600480360360208110156101e557600080fd5b81019060208101813564010000000081111561020057600080fd5b82018360208201111561021257600080fd5b8035906020019184600183028401116401000000008311171561023457600080fd5b91908080601f0160208091040260200160405190810160405280939291908181526020018383808284376000920191909152509295506104fd945050505050565b34801561028157600080fd5b506101566004803603602081101561029857600080fd5b5035610601565b60018054604080516020600284861615610100026000190190941693909304601f810184900484028201840190925281815292918301828280156103245780601f106102f957610100808354040283529160200191610324565b820191906000526020600020905b81548152906001019060200180831161030757829003601f168201915b505050505081565b60018054604080516020601f600260001961010087891615020190951694909404938401819004810282018101909252828152606093909290918301828280156103b75780601f1061038c576101008083540402835291602001916103b7565b820191906000526020600020905b81548152906001019060200180831161039a57829003601f168201915b505050505090505b90565b6000805474010000000000000000000000000000000000000000900460ff1615156001141561045257604080517f08c379a000000000000000000000000000000000000000000000000000000000815260206004820152600f60248201527f50726f636573732061626f727465640000000000000000000000000000000000604482015290519081900360640190fd5b6000809054906101000a900473ffffffffffffffffffffffffffffffffffffffff1673ffffffffffffffffffffffffffffffffffffffff16635f8d96de6040518163ffffffff1660e060020a02815260040160206040518083038186803b1580156104bc57600080fd5b505afa1580156104d0573d6000803e3d6000fd5b505050506040513d60208110156104e657600080fd5b50514211156104f7575060006103bf565b50600190565b604080517f08c379a000000000000000000000000000000000000000000000000000000000815260206004820152600f60248201527f4e6f7420496d706c656d656e7465640000000000000000000000000000000000604482015290519081900360640190fd5b60008060009054906101000a900473ffffffffffffffffffffffffffffffffffffffff1673ffffffffffffffffffffffffffffffffffffffff166350b1be266040518163ffffffff1660e060020a02815260040160206040518083038186803b1580156105d057600080fd5b505afa1580156105e4573d6000803e3d6000fd5b505050506040513d60208110156105fa57600080fd5b5051905090565b6106096103c2565b151561067657604080517f08c379a000000000000000000000000000000000000000000000000000000000815260206004820152600d60248201527f43616e277420616476616e636500000000000000000000000000000000000000604482015290519081900360640190fd5b60005473ffffffffffffffffffffffffffffffffffffffff16631dc9b2848260028111156106a057fe5b6040518263ffffffff1660e060020a028152600401808260028111156106c257fe5b60ff168152602001915050600060405180830381600087803b1580156106e757600080fd5b505af11580156106fb573d6000803e3d6000fd5b505050505056fea165627a7a723058204cb1ea1e3fa68ccf5907c95f8965835a810e7bb63ff25b6b1cdc25a21ab198cd0029",
  "source": "pragma solidity ^0.5.0;\r\n\r\nimport \"./IState.sol\";\r\n\r\ncontract StateRatingByMitigator is IState{\r\n\r\n\tconstructor(address payable _data) IState(_data) public payable {}\r\n\t\r\n    function execute(uint256 value) public{\r\n        if(!canAdvance()){\r\n            revert(\"Can't advance\");\r\n        }\r\n        IData(data).setMitigatorRating(Enums.Rating(value));\r\n    }\r\n\r\n    function getActorOfState() public view returns(address){return IData(data).getMitigator();}\r\n    \r\n}",
  "sourcePath": "C:\\Code\\Private\\MBM\\contracts\\StateRatingByMitigator.sol",
  "compiler": {
    "name": "solc",
    "version": "0.5.0+commit.1d4f565a.Emscripten.clang"
  },
  "schemaVersion": "3.0.1",
  "updatedAt": "2019-02-07T21:19:52.015Z",
  "devdoc": {
    "methods": {}
  },
  "userdoc": {
    "methods": {}
  }
}