{
  "contractName": "StateRatingByTarget",
  "abi": [
    {
      "inputs": [
        {
          "name": "_data",
          "type": "address"
        }
      ],
      "payable": true,
      "stateMutability": "payable",
      "type": "constructor"
    },
    {
      "constant": false,
      "inputs": [],
      "name": "execute",
      "outputs": [
        {
          "name": "",
          "type": "uint8"
        }
      ],
      "payable": false,
      "stateMutability": "nonpayable",
      "type": "function"
    },
    {
      "constant": false,
      "inputs": [
        {
          "name": "",
          "type": "bool"
        }
      ],
      "name": "execute",
      "outputs": [
        {
          "name": "",
          "type": "uint8"
        }
      ],
      "payable": false,
      "stateMutability": "nonpayable",
      "type": "function"
    },
    {
      "constant": false,
      "inputs": [
        {
          "name": "",
          "type": "string"
        }
      ],
      "name": "execute",
      "outputs": [
        {
          "name": "",
          "type": "uint8"
        }
      ],
      "payable": false,
      "stateMutability": "nonpayable",
      "type": "function"
    },
    {
      "constant": false,
      "inputs": [
        {
          "name": "value",
          "type": "uint256"
        }
      ],
      "name": "execute",
      "outputs": [
        {
          "name": "",
          "type": "uint8"
        }
      ],
      "payable": false,
      "stateMutability": "nonpayable",
      "type": "function"
    },
    {
      "constant": false,
      "inputs": [],
      "name": "abort",
      "outputs": [
        {
          "name": "",
          "type": "uint8"
        }
      ],
      "payable": false,
      "stateMutability": "nonpayable",
      "type": "function"
    },
    {
      "constant": true,
      "inputs": [],
      "name": "getOwnerOfState",
      "outputs": [
        {
          "name": "",
          "type": "address"
        }
      ],
      "payable": false,
      "stateMutability": "view",
      "type": "function"
    }
  ],
  "bytecode": "0x608060408190526001805460a860020a60ff021960a060020a60ff0219909116740100000000000000000000000000000000000000001716905560208061082c8339810180604052602081101561005557600080fd5b505160008054600160a060020a031916600160a060020a038084169190911791829055604080517ff00e6a2a0000000000000000000000000000000000000000000000000000000081529051929091169163f00e6a2a91600480820192602092909190829003018186803b1580156100cc57600080fd5b505afa1580156100e0573d6000803e3d6000fd5b505050506040513d60208110156100f657600080fd5b5051604080517f893d20e80000000000000000000000000000000000000000000000000000000081529051600160a060020a039092169163893d20e891600480820192602092909190829003018186803b15801561015357600080fd5b505afa158015610167573d6000803e3d6000fd5b505050506040513d602081101561017d57600080fd5b505160018054600160a060020a031916600160a060020a03928316179055600054604080517fae8921570000000000000000000000000000000000000000000000000000000081529051919092169163ae892157916004808301926020929190829003018186803b1580156101f157600080fd5b505afa158015610205573d6000803e3d6000fd5b505050506040513d602081101561021b57600080fd5b50514201600255506105fa806102326000396000f3fe6080604052600436106100775763ffffffff7c010000000000000000000000000000000000000000000000000000000060003504166335a063b4811461007c57806361461954146100b55780636f7f0907146100ca578063972213ad14610108578063bd590d7e14610134578063fe0d94c1146101b1575b600080fd5b34801561008857600080fd5b506100916101db565b604051808260098111156100a157fe5b60ff16815260200191505060405180910390f35b3480156100c157600080fd5b5061009161028b565b3480156100d657600080fd5b506100df6102dd565b6040805173ffffffffffffffffffffffffffffffffffffffff9092168252519081900360200190f35b34801561011457600080fd5b506100916004803603602081101561012b57600080fd5b5035151561028b565b34801561014057600080fd5b506100916004803603602081101561015757600080fd5b81019060208101813564010000000081111561017257600080fd5b82018360208201111561018457600080fd5b803590602001918460018302840111640100000000831117156101a657600080fd5b50909250905061028b565b3480156101bd57600080fd5b50610091600480360360208110156101d457600080fd5b50356102f9565b60015460009073ffffffffffffffffffffffffffffffffffffffff16321461024d576040805160e560020a62461bcd02815260206004820152601860248201527f4572726f72206f776e657220213d2074782e6f726967696e0000000000000000604482015290519081900360640190fd5b506001805475ff0000000000000000000000000000000000000000001916750100000000000000000000000000000000000000000017905560085b90565b6040805160e560020a62461bcd02815260206004820152600f60248201527f4e6f7420696d706c656d656e74656400000000000000000000000000000000006044820152905160009181900360640190fd5b60015473ffffffffffffffffffffffffffffffffffffffff1690565b60015460009074010000000000000000000000000000000000000000900460ff161515610370576040805160e560020a62461bcd02815260206004820152601660248201527f50726f63657373206e6f742065786563757461626c6500000000000000000000604482015290519081900360640190fd5b6001547501000000000000000000000000000000000000000000900460ff16156103ba57506001805474ff00000000000000000000000000000000000000001916905560086105af565b6103c26105b4565b151561043c5760015473ffffffffffffffffffffffffffffffffffffffff163214610437576040805160e560020a62461bcd02815260206004820152601860248201527f4572726f72206f776e657220213d2074782e6f726967696e0000000000000000604482015290519081900360640190fd5b6104ea565b60008054604080517fa3bbb09000000000000000000000000000000000000000000000000000000000815260016004820152905173ffffffffffffffffffffffffffffffffffffffff9092169263a3bbb0909260248084019382900301818387803b1580156104aa57600080fd5b505af11580156104be573d6000803e3d6000fd5b50506001805474ff00000000000000000000000000000000000000001916905550600591506105af9050565b60005473ffffffffffffffffffffffffffffffffffffffff1663a3bbb09083600281111561051457fe5b6040518263ffffffff167c01000000000000000000000000000000000000000000000000000000000281526004018082600281111561054f57fe5b60ff168152602001915050600060405180830381600087803b15801561057457600080fd5b505af1158015610588573d6000803e3d6000fd5b50506001805474ff0000000000000000000000000000000000000000191690555060059150505b919050565b60004260025410156105c857506000610288565b5060019056fea165627a7a723058205927e6e6447c1ba9204991b28663ae8cd8dabafdcb980db22da5a46b754533d90029",
  "source": "pragma solidity ^0.5.0;\r\n\r\nimport \"./IState.sol\";\r\n\r\ncontract StateRatingByTarget is IState{\r\n\r\n\taddress payable data;\r\n\taddress payable owner;\r\n\tbool internal executable = true;\r\n\tbool internal aborted = false;\r\n\tuint256 internal deadline;\r\n\t\r\n    constructor(address payable _data) public payable {\r\n\t\tdata = _data;\r\n\t\towner = IActor(IData(data).getTarget()).getOwner();\r\n\t\tdeadline = now + IData(data).getDeadlineInterval() * 1 seconds;\r\n\t}\t\t\r\n\t\r\n\tfunction execute(uint256 value) external returns(Enums.StateType){\r\n        require(executable,\"Process not executable\");\r\n\t\tif(aborted){\r\n\t\t\texecutable=false;\r\n\t\t\treturn Enums.StateType.ABORT; \r\n\t\t}\r\n\t\tif(!canBeSkipped()){\r\n\t\t\trequire(owner == tx.origin,\"Error owner != tx.origin\");\r\n\t\t}else{\r\n\t\t\tIData(data).setTargetRating(Enums.Rating.NA);\r\n\t\t\texecutable=false;\r\n\t\t\treturn Enums.StateType.RATE_M;\r\n\t\t}\r\n\t\tIData(data).setTargetRating(Enums.Rating(value));\r\n\t\texecutable=false;\r\n\t\treturn Enums.StateType.RATE_M;\r\n        \r\n    } \r\n\tfunction execute(bool /*value*/) external returns(Enums.StateType) {revert(\"Not implemented\");}\r\n    function execute() external returns(Enums.StateType) {revert(\"Not implemented\");}\r\n    function execute(string calldata /*value*/) external returns(Enums.StateType) {revert(\"Not implemented\");}\r\n        \r\n\tfunction canBeSkipped() private view returns(bool){\r\n\t\tif(deadline<now){return false;}\r\n\t\treturn true;\r\n\t}\r\n\t\r\n\tfunction abort() public returns(Enums.StateType){\r\n\t\trequire(owner == tx.origin,\"Error owner != tx.origin\"); \r\n\t\taborted=true; \r\n\t\treturn Enums.StateType.ABORT; \r\n\t}\r\n\t\t\r\n\tfunction getOwnerOfState() external view returns(address payable){return owner;}  \r\n}",
  "sourcePath": "C:\\Code\\Private\\CooperativeSignaling\\contracts\\StateRatingByTarget.sol",
  "compiler": {
    "name": "solc",
    "version": "0.5.0+commit.1d4f565a.Emscripten.clang"
  },
  "schemaVersion": "3.0.1",
  "updatedAt": "2019-02-10T15:13:47.128Z",
  "devdoc": {
    "methods": {}
  },
  "userdoc": {
    "methods": {}
  }
}