{
  "contractName": "StateAbort",
  "abi": [
    {
      "inputs": [
        {
          "name": "_data",
          "type": "address"
        }
      ],
      "payable": true,
      "stateMutability": "payable",
      "type": "constructor"
    },
    {
      "constant": false,
      "inputs": [],
      "name": "execute",
      "outputs": [
        {
          "name": "",
          "type": "uint8"
        }
      ],
      "payable": false,
      "stateMutability": "nonpayable",
      "type": "function"
    },
    {
      "constant": false,
      "inputs": [
        {
          "name": "",
          "type": "bool"
        }
      ],
      "name": "execute",
      "outputs": [
        {
          "name": "",
          "type": "uint8"
        }
      ],
      "payable": false,
      "stateMutability": "nonpayable",
      "type": "function"
    },
    {
      "constant": false,
      "inputs": [
        {
          "name": "",
          "type": "string"
        }
      ],
      "name": "execute",
      "outputs": [
        {
          "name": "",
          "type": "uint8"
        }
      ],
      "payable": false,
      "stateMutability": "nonpayable",
      "type": "function"
    },
    {
      "constant": false,
      "inputs": [
        {
          "name": "",
          "type": "uint256"
        }
      ],
      "name": "execute",
      "outputs": [
        {
          "name": "",
          "type": "uint8"
        }
      ],
      "payable": false,
      "stateMutability": "nonpayable",
      "type": "function"
    },
    {
      "constant": true,
      "inputs": [],
      "name": "getOwnerOfState",
      "outputs": [
        {
          "name": "",
          "type": "address"
        }
      ],
      "payable": false,
      "stateMutability": "view",
      "type": "function"
    },
    {
      "constant": true,
      "inputs": [],
      "name": "getStateType",
      "outputs": [
        {
          "name": "",
          "type": "uint8"
        }
      ],
      "payable": false,
      "stateMutability": "view",
      "type": "function"
    }
  ],
  "bytecode": "0x608060408190526000805460a060020a60ff021916905560208061033e8339810180604052602081101561003257600080fd5b505160008054600160a060020a03909216600160a060020a03199092169190911790556102da806100646000396000f3fe6080604052600436106100775763ffffffff7c010000000000000000000000000000000000000000000000000000000060003504166361461954811461007c5780636f7f0907146100b5578063972213ad146100f3578063991d1ca91461011f578063bd590d7e14610134578063fe0d94c1146101b1575b600080fd5b34801561008857600080fd5b506100916101d7565b604051808260098111156100a157fe5b60ff16815260200191505060405180910390f35b3480156100c157600080fd5b506100ca610240565b6040805173ffffffffffffffffffffffffffffffffffffffff9092168252519081900360200190f35b3480156100ff57600080fd5b506100916004803603602081101561011657600080fd5b503515156101d7565b34801561012b57600080fd5b506100916102a9565b34801561014057600080fd5b506100916004803603602081101561015757600080fd5b81019060208101813564010000000081111561017257600080fd5b82018360208201111561018457600080fd5b803590602001918460018302840111640100000000831117156101a657600080fd5b5090925090506101d7565b3480156101bd57600080fd5b50610091600480360360208110156101d457600080fd5b50355b604080517f08c379a000000000000000000000000000000000000000000000000000000000815260206004820152600f60248201527f4e6f7420696d706c656d656e74656400000000000000000000000000000000006044820152905160009181900360640190fd5b604080517f08c379a000000000000000000000000000000000000000000000000000000000815260206004820152600860248201527f4e6f204f776e65720000000000000000000000000000000000000000000000006044820152905160009181900360640190fd5b60089056fea165627a7a72305820da224d1c5faf5f88deacb59e2d0fa5566faea9cc7d5eabe1106e3f35dff0ca720029",
  "source": "pragma solidity ^0.5.0;\r\n\r\nimport \"./IState.sol\";\r\n\r\ncontract StateAbort is IState{\r\n    \r\n\taddress payable data;\r\n\tbool internal executable = false;\r\n\t\r\n    constructor(address payable _data) public payable {\r\n\t\tdata = _data;\r\n\t}\t\r\n\t\r\n\tfunction execute() external returns(Enums.StateType){revert(\"Not implemented\");}\r\n\tfunction execute(bool /*value*/) external returns(Enums.StateType) {revert(\"Not implemented\");}\r\n    function execute(uint256 /*value*/) external returns(Enums.StateType) {revert(\"Not implemented\");}\r\n    function execute(string calldata /*value*/) external returns(Enums.StateType) {revert(\"Not implemented\");}     \r\n\t\r\n\tfunction getOwnerOfState() external view returns(address payable){revert(\"No Owner\");}  \r\n\t\r\n\tfunction getStateType() external view returns(Enums.StateType){return Enums.StateType.ABORT;}\r\n\t\r\n}",
  "sourcePath": "C:\\Code\\Private\\CooperativeSignaling\\contracts\\StateAbort.sol",
  "compiler": {
    "name": "solc",
    "version": "0.5.0+commit.1d4f565a.Emscripten.clang"
  },
  "schemaVersion": "3.0.1",
  "updatedAt": "2019-02-10T16:05:26.491Z",
  "devdoc": {
    "methods": {}
  },
  "userdoc": {
    "methods": {}
  }
}