{
  "contractName": "StateEvaluation",
  "abi": [
    {
      "inputs": [
        {
          "name": "_data",
          "type": "address"
        }
      ],
      "payable": true,
      "stateMutability": "payable",
      "type": "constructor"
    },
    {
      "constant": false,
      "inputs": [],
      "name": "execute",
      "outputs": [
        {
          "name": "",
          "type": "uint8"
        }
      ],
      "payable": false,
      "stateMutability": "nonpayable",
      "type": "function"
    },
    {
      "constant": false,
      "inputs": [
        {
          "name": "",
          "type": "bool"
        }
      ],
      "name": "execute",
      "outputs": [
        {
          "name": "",
          "type": "uint8"
        }
      ],
      "payable": false,
      "stateMutability": "nonpayable",
      "type": "function"
    },
    {
      "constant": false,
      "inputs": [
        {
          "name": "",
          "type": "string"
        }
      ],
      "name": "execute",
      "outputs": [
        {
          "name": "",
          "type": "uint8"
        }
      ],
      "payable": false,
      "stateMutability": "nonpayable",
      "type": "function"
    },
    {
      "constant": false,
      "inputs": [
        {
          "name": "",
          "type": "uint256"
        }
      ],
      "name": "execute",
      "outputs": [
        {
          "name": "",
          "type": "uint8"
        }
      ],
      "payable": false,
      "stateMutability": "nonpayable",
      "type": "function"
    },
    {
      "constant": true,
      "inputs": [],
      "name": "getOwnerOfState",
      "outputs": [
        {
          "name": "",
          "type": "address"
        }
      ],
      "payable": false,
      "stateMutability": "view",
      "type": "function"
    }
  ],
  "bytecode": "0x608060408190526001805460a860020a60ff021960a060020a60ff02199091167401000000000000000000000000000000000000000017169055602080610ac98339810180604052602081101561005557600080fd5b505160008054600160a060020a03808416600160a060020a03199283161792839055600180549092163317909155604080517fae8921570000000000000000000000000000000000000000000000000000000081529051929091169163ae89215791600480820192602092909190829003018186803b1580156100d757600080fd5b505afa1580156100eb573d6000803e3d6000fd5b505050506040513d602081101561010157600080fd5b50514201600255506109b1806101186000396000f3fe6080604052600436106100535763ffffffff60e060020a6000350416636146195481146100585780636f7f090714610091578063972213ad146100c2578063bd590d7e146100ee578063fe0d94c11461016b575b600080fd5b34801561006457600080fd5b5061006d610195565b6040518082600981111561007d57fe5b60ff16815260200191505060405180910390f35b34801561009d57600080fd5b506100a661090d565b60408051600160a060020a039092168252519081900360200190f35b3480156100ce57600080fd5b5061006d600480360360208110156100e557600080fd5b5035151561091c565b3480156100fa57600080fd5b5061006d6004803603602081101561011157600080fd5b81019060208101813564010000000081111561012c57600080fd5b82018360208201111561013e57600080fd5b8035906020019184600183028401116401000000008311171561016057600080fd5b50909250905061091c565b34801561017757600080fd5b5061006d6004803603602081101561018e57600080fd5b503561091c565b60015460009074010000000000000000000000000000000000000000900460ff16151561022357604080517f08c379a000000000000000000000000000000000000000000000000000000000815260206004820152601660248201527f50726f63657373206e6f742065786563757461626c6500000000000000000000604482015290519081900360640190fd5b600154600160a060020a0316331461029c57604080517f08c379a000000000000000000000000000000000000000000000000000000000815260206004820152601860248201527f4572726f72206f776e657220213d2074782e6f726967696e0000000000000000604482015290519081900360640190fd5b60008060008060009054906101000a9004600160a060020a0316600160a060020a031663620ae1c76040518163ffffffff1660e060020a02815260040160206040518083038186803b1580156102f157600080fd5b505afa158015610305573d6000803e3d6000fd5b505050506040513d602081101561031b57600080fd5b5051156104ee5773__EvaluationFactory_____________________6367ec1e1660008060009054906101000a9004600160a060020a0316600160a060020a031663f00e6a2a6040518163ffffffff1660e060020a02815260040160206040518083038186803b15801561038e57600080fd5b505afa1580156103a2573d6000803e3d6000fd5b505050506040513d60208110156103b857600080fd5b5051600054604080517f50b1be260000000000000000000000000000000000000000000000000000000081529051600160a060020a03909216916350b1be2691600480820192602092909190829003018186803b15801561041857600080fd5b505afa15801561042c573d6000803e3d6000fd5b505050506040513d602081101561044257600080fd5b505160405160e060020a63ffffffff86160281526004018084600181111561046657fe5b60ff16815260200183600160a060020a0316600160a060020a0316815260200182600160a060020a0316600160a060020a03168152602001935050505060206040518083038186803b1580156104bb57600080fd5b505af41580156104cf573d6000803e3d6000fd5b505050506040513d60208110156104e557600080fd5b505190506106b6565b73__EvaluationFactory_____________________6367ec1e1660016000809054906101000a9004600160a060020a0316600160a060020a031663f00e6a2a6040518163ffffffff1660e060020a02815260040160206040518083038186803b15801561055a57600080fd5b505afa15801561056e573d6000803e3d6000fd5b505050506040513d602081101561058457600080fd5b5051600054604080517f50b1be260000000000000000000000000000000000000000000000000000000081529051600160a060020a03909216916350b1be2691600480820192602092909190829003018186803b1580156105e457600080fd5b505afa1580156105f8573d6000803e3d6000fd5b505050506040513d602081101561060e57600080fd5b505160405160e060020a63ffffffff86160281526004018084600181111561063257fe5b60ff16815260200183600160a060020a0316600160a060020a0316815260200182600160a060020a0316600160a060020a03168152602001935050505060206040518083038186803b15801561068757600080fd5b505af415801561069b573d6000803e3d6000fd5b505050506040513d60208110156106b157600080fd5b505190505b80600160a060020a0316639e39f3646000809054906101000a9004600160a060020a0316600160a060020a0316639ed5b5026040518163ffffffff1660e060020a02815260040160206040518083038186803b15801561071557600080fd5b505afa158015610729573d6000803e3d6000fd5b505050506040513d602081101561073f57600080fd5b5051600054604080517f90f3213d0000000000000000000000000000000000000000000000000000000081529051600160a060020a03909216916390f3213d91600480820192602092909190829003018186803b15801561079f57600080fd5b505afa1580156107b3573d6000803e3d6000fd5b505050506040513d60208110156107c957600080fd5b505160405160e060020a63ffffffff8516028152600401808360028111156107ed57fe5b60ff16815260200182600281111561080157fe5b60ff16815260200192505050604080518083038186803b15801561082457600080fd5b505afa158015610838573d6000803e3d6000fd5b505050506040513d604081101561084e57600080fd5b5080516020909101519093509150600160a060020a038316156108e85760008054604080517fe39ff19f000000000000000000000000000000000000000000000000000000008152600160a060020a0387811660048301529151919092169263e39ff19f926024808201939182900301818387803b1580156108cf57600080fd5b505af11580156108e3573d6000803e3d6000fd5b505050505b506001805474ff00000000000000000000000000000000000000001916905591505090565b600154600160a060020a031690565b604080517f08c379a000000000000000000000000000000000000000000000000000000000815260206004820152600f60248201527f4e6f7420696d706c656d656e74656400000000000000000000000000000000006044820152905160009181900360640190fdfea165627a7a72305820174ff621da748926efa0a50c6daa47184addc566061b9dfa3f489efae50b899c0029",
  "source": "pragma solidity ^0.5.0;\r\n\r\nimport \"./IState.sol\";\r\nimport \"./IEvaluation.sol\";\r\nimport \"./EvaluationFactory.sol\";\r\n\r\ncontract StateEvaluation is IState{\r\n\t\t\r\n\taddress payable data;\r\n\taddress payable owner;\r\n\tbool internal executable = true;\r\n\tbool internal aborted = false;\r\n\tuint256 internal deadline;\r\n\t\r\n    constructor(address payable _data) public payable {\r\n\t\tdata = _data;\r\n\t\towner = msg.sender;\r\n\t\tdeadline = now + IData(data).getDeadlineInterval() * 1 seconds;\r\n\t}\t\r\n\t\r\n    function execute() external returns(Enums.StateType){\r\n        require(executable,\"Process not executable\");\r\n\t\trequire(owner == msg.sender,\"Error owner != tx.origin\");\r\n\r\n\t\taddress payable actor;\r\n\t\tEnums.StateType stateToSet;\r\n\t\tIEvaluation _Evaluation;\r\n\t\tif(IData(data).isProofProvided()){\r\n\t\t\t_Evaluation = EvaluationFactory.create(Enums.EvaluationType.WITHPROOF,IData(data).getTarget(),IData(data).getMitigator());\r\n\t\t}else{\r\n\t\t\t_Evaluation = EvaluationFactory.create(Enums.EvaluationType.WITHOUTPROOF,IData(data).getTarget(),IData(data).getMitigator());\r\n\t\t}\r\n\t\t\r\n        (actor,stateToSet) = _Evaluation.evaluate(IData(data).getTargetRating(),IData(data).getMitigatorRating());\r\n\t\r\n\t\tif(actor!=address(0)){\r\n\t\t\tIData(data).transferFunds(actor);\r\n\t\t}\r\n\t\texecutable=false;\r\n\t\treturn stateToSet;\r\n        \r\n    }\r\n\tfunction execute(bool /*value*/) external returns(Enums.StateType) {revert(\"Not implemented\");}\r\n    function execute(uint256 /*value*/) external returns(Enums.StateType) {revert(\"Not implemented\");}\r\n    function execute(string calldata /*value*/) external returns(Enums.StateType) {revert(\"Not implemented\");}\r\n    \r\n\tfunction getOwnerOfState() external view returns(address payable){return owner;}  \r\n}",
  "sourcePath": "C:\\Code\\Private\\CooperativeSignaling\\contracts\\StateEvaluation.sol",
  "compiler": {
    "name": "solc",
    "version": "0.5.0+commit.1d4f565a.Emscripten.clang"
  },
  "schemaVersion": "3.0.1",
  "updatedAt": "2019-02-10T15:13:47.136Z",
  "devdoc": {
    "methods": {}
  },
  "userdoc": {
    "methods": {}
  }
}