{
  "contractName": "StateApprove",
  "abi": [
    {
      "constant": true,
      "inputs": [],
      "name": "Statename",
      "outputs": [
        {
          "name": "",
          "type": "string"
        }
      ],
      "payable": false,
      "stateMutability": "view",
      "type": "function"
    },
    {
      "constant": true,
      "inputs": [],
      "name": "getName",
      "outputs": [
        {
          "name": "",
          "type": "string"
        }
      ],
      "payable": false,
      "stateMutability": "view",
      "type": "function"
    },
    {
      "inputs": [
        {
          "name": "_data",
          "type": "address"
        }
      ],
      "payable": true,
      "stateMutability": "payable",
      "type": "constructor"
    },
    {
      "constant": false,
      "inputs": [],
      "name": "canAdvance",
      "outputs": [
        {
          "name": "",
          "type": "bool"
        }
      ],
      "payable": false,
      "stateMutability": "nonpayable",
      "type": "function"
    },
    {
      "constant": false,
      "inputs": [],
      "name": "execute",
      "outputs": [],
      "payable": false,
      "stateMutability": "nonpayable",
      "type": "function"
    },
    {
      "constant": false,
      "inputs": [
        {
          "name": "value",
          "type": "bool"
        }
      ],
      "name": "execute",
      "outputs": [],
      "payable": false,
      "stateMutability": "nonpayable",
      "type": "function"
    },
    {
      "constant": false,
      "inputs": [
        {
          "name": "value",
          "type": "string"
        }
      ],
      "name": "execute",
      "outputs": [],
      "payable": false,
      "stateMutability": "nonpayable",
      "type": "function"
    },
    {
      "constant": false,
      "inputs": [
        {
          "name": "value",
          "type": "uint256"
        }
      ],
      "name": "execute",
      "outputs": [],
      "payable": false,
      "stateMutability": "nonpayable",
      "type": "function"
    },
    {
      "constant": true,
      "inputs": [],
      "name": "getActorOfState",
      "outputs": [
        {
          "name": "",
          "type": "address"
        }
      ],
      "payable": false,
      "stateMutability": "view",
      "type": "function"
    }
  ],
  "bytecode": "0x60c0604052600660808190527f495374617465000000000000000000000000000000000000000000000000000060a090815261003e91600191906100c9565b506040805180820190915260078082527f417070726f7665000000000000000000000000000000000000000000000000006020909201918252610083916002916100c9565b506040516020806107e8833981018060405260208110156100a357600080fd5b505160008054600160a060020a031916600160a060020a03909216919091179055610164565b828054600181600116156101000203166002900490600052602060002090601f016020900481019282601f1061010a57805160ff1916838001178555610137565b82800160010185558215610137579182015b8281111561013757825182559160200191906001019061011c565b50610143929150610147565b5090565b61016191905b80821115610143576000815560010161014d565b90565b610675806101736000396000f3fe60806040526004361061008d5763ffffffff7c010000000000000000000000000000000000000000000000000000000060003504166307918ec5811461009257806317d7de7c1461011c57806325e3926e14610131578063614619541461015a5780637bb3ad9b14610171578063972213ad146101af578063bd590d7e146101db578063fe0d94c11461028e575b600080fd5b34801561009e57600080fd5b506100a76102b8565b6040805160208082528351818301528351919283929083019185019080838360005b838110156100e15781810151838201526020016100c9565b50505050905090810190601f16801561010e5780820380516001836020036101000a031916815260200191505b509250505060405180910390f35b34801561012857600080fd5b506100a7610343565b34801561013d57600080fd5b506101466103d8565b604080519115158252519081900360200190f35b34801561016657600080fd5b5061016f61046e565b005b34801561017d57600080fd5b506101866104d5565b6040805173ffffffffffffffffffffffffffffffffffffffff9092168252519081900360200190f35b3480156101bb57600080fd5b5061016f600480360360208110156101d257600080fd5b5035151561058b565b3480156101e757600080fd5b5061016f600480360360208110156101fe57600080fd5b81019060208101813564010000000081111561021957600080fd5b82018360208201111561022b57600080fd5b8035906020019184600183028401116401000000008311171561024d57600080fd5b91908080601f01602080910402602001604051908101604052809392919081815260200183838082843760009201919091525092955061046e945050505050565b34801561029a57600080fd5b5061016f600480360360208110156102b157600080fd5b503561046e565b6002805460408051602060018416156101000260001901909316849004601f8101849004840282018401909252818152929183018282801561033b5780601f106103105761010080835404028352916020019161033b565b820191906000526020600020905b81548152906001019060200180831161031e57829003601f168201915b505050505081565b60018054604080516020601f600260001961010087891615020190951694909404938401819004810282018101909252828152606093909290918301828280156103ce5780601f106103a3576101008083540402835291602001916103ce565b820191906000526020600020905b8154815290600101906020018083116103b157829003601f168201915b5050505050905090565b6000805474010000000000000000000000000000000000000000900460ff1615156001141561046857604080517f08c379a000000000000000000000000000000000000000000000000000000000815260206004820152600f60248201527f50726f636573732061626f727465640000000000000000000000000000000000604482015290519081900360640190fd5b50600190565b604080517f08c379a000000000000000000000000000000000000000000000000000000000815260206004820152600f60248201527f4e6f7420496d706c656d656e7465640000000000000000000000000000000000604482015290519081900360640190fd5b60008060009054906101000a900473ffffffffffffffffffffffffffffffffffffffff1673ffffffffffffffffffffffffffffffffffffffff166350b1be266040518163ffffffff167c010000000000000000000000000000000000000000000000000000000002815260040160206040518083038186803b15801561055a57600080fd5b505afa15801561056e573d6000803e3d6000fd5b505050506040513d602081101561058457600080fd5b5051905090565b6105936103d8565b151561060057604080517f08c379a000000000000000000000000000000000000000000000000000000000815260206004820152600d60248201527f43616e277420616476616e636500000000000000000000000000000000000000604482015290519081900360640190fd5b80151561060f5761060f610612565b50565b6000805474ff000000000000000000000000000000000000000019167401000000000000000000000000000000000000000017905556fea165627a7a723058204e775c833b56dff5dfe2cfd2f2a84233928d92c0eebe1e9e1e5ba2740ce0f9480029",
  "source": "pragma solidity ^0.5.0;\r\n\r\nimport \"./IState.sol\";\r\n\r\ncontract StateApprove is IState{\r\n    \r\n\tstring public Statename = \"Approve\";\r\n\t\r\n\tconstructor(address payable _data) IState(_data) public payable {}\r\n\t\r\n    function canAdvance() public returns(bool){\r\n        require(aborted!= true,\"Process aborted\");\r\n        //require(getActorOfState().getOwner() == caller,\"Error proceed in approve\");\r\n        return true;\r\n    }\r\n    \r\n    function execute(bool value) public{\r\n        if(!canAdvance()){\r\n            revert(\"Can't advance\");\r\n        }\r\n        if(value==false){\r\n            abort();\r\n        }\r\n    }\r\n    \r\n    function getActorOfState() public view returns(address){return IData(data).getMitigator();}\r\n\r\n}",
  "sourcePath": "C:\\Code\\Private\\MBM\\contracts\\StateApprove.sol",
  "compiler": {
    "name": "solc",
    "version": "0.5.0+commit.1d4f565a.Emscripten.clang"
  },
  "schemaVersion": "3.0.1",
  "updatedAt": "2019-02-07T21:19:52.017Z",
  "devdoc": {
    "methods": {}
  },
  "userdoc": {
    "methods": {}
  }
}