{
  "contractName": "StateFactory",
  "abi": [
    {
      "constant": false,
      "inputs": [
        {
          "name": "_Type",
          "type": "Enums.StateType"
        },
        {
          "name": "data",
          "type": "address"
        }
      ],
      "name": "create",
      "outputs": [
        {
          "name": "",
          "type": "IState"
        }
      ],
      "payable": false,
      "stateMutability": "nonpayable",
      "type": "function"
    }
  ],
  "bytecode": "0x614780610030600b82828239805160001a6073146000811461002057610022565bfe5b5030600052607381538281f3fe73000000000000000000000000000000000000000030146080604052600436106100575763ffffffff7c01000000000000000000000000000000000000000000000000000000006000350416636ca4b0aa811461005c575b600080fd5b81801561006857600080fd5b506100a56004803603604081101561007f57600080fd5b50803560ff16906020013573ffffffffffffffffffffffffffffffffffffffff166100ce565b6040805173ffffffffffffffffffffffffffffffffffffffff9092168252519081900360200190f35b6000808360098111156100dd57fe5b141561012e57816100ec6102a0565b73ffffffffffffffffffffffffffffffffffffffff909116815260405190819003602001906000f080158015610126573d6000803e3d6000fd5b50905061029a565b600183600981111561013c57fe5b141561014b57816100ec6102b0565b600283600981111561015957fe5b141561016857816100ec6102c0565b600383600981111561017657fe5b141561018557816100ec6102d0565b600483600981111561019357fe5b14156101a257816100ec6102e0565b60058360098111156101b057fe5b14156101bf57816100ec6102f0565b60068360098111156101cd57fe5b14156101dc57816100ec610300565b60078360098111156101ea57fe5b14156101f957816100ec610310565b600883600981111561020757fe5b141561021657816100ec610320565b600983600981111561022457fe5b141561023357816100ec610330565b604080517f08c379a000000000000000000000000000000000000000000000000000000000815260206004820152601860248201527f54797065206e6f7420696e205374617465466163746f72790000000000000000604482015290519081900360640190fd5b92915050565b60405161064a8061034183390190565b60405161065d8061098b83390190565b60405161071080610fe883390190565b6040516108e4806116f883390190565b60405161094e80611fdc83390190565b60405161084b8061292a83390190565b604051610aee8061317583390190565b6040516103a680613c6383390190565b6040516103a68061400983390190565b6040516103a6806143af8339019056fe608060408190526001805460a860020a60ff021960a060020a60ff0219909116740100000000000000000000000000000000000000001716905560208061064a8339810180604052602081101561005557600080fd5b505160008054600160a060020a031916600160a060020a038084169190911791829055604080517ff00e6a2a0000000000000000000000000000000000000000000000000000000081529051929091169163f00e6a2a91600480820192602092909190829003018186803b1580156100cc57600080fd5b505afa1580156100e0573d6000803e3d6000fd5b505050506040513d60208110156100f657600080fd5b5051604080517f893d20e80000000000000000000000000000000000000000000000000000000081529051600160a060020a039092169163893d20e891600480820192602092909190829003018186803b15801561015357600080fd5b505afa158015610167573d6000803e3d6000fd5b505050506040513d602081101561017d57600080fd5b505160018054600160a060020a031916600160a060020a039092169190911790555061049c806101ae6000396000f3fe6080604052600436106100825763ffffffff7c010000000000000000000000000000000000000000000000000000000060003504166335a063b4811461008757806361461954146100c05780636f7f0907146100d5578063972213ad14610113578063991d1ca91461013f578063bd590d7e14610154578063fe0d94c1146101d1575b600080fd5b34801561009357600080fd5b5061009c6101fb565b604051808260098111156100ac57fe5b60ff16815260200191505060405180910390f35b3480156100cc57600080fd5b5061009c6102ab565b3480156100e157600080fd5b506100ea6103fd565b6040805173ffffffffffffffffffffffffffffffffffffffff9092168252519081900360200190f35b34801561011f57600080fd5b5061009c6004803603602081101561013657600080fd5b50351515610419565b34801561014b57600080fd5b5061009c61046b565b34801561016057600080fd5b5061009c6004803603602081101561017757600080fd5b81019060208101813564010000000081111561019257600080fd5b8201836020820111156101a457600080fd5b803590602001918460018302840111640100000000831117156101c657600080fd5b509092509050610419565b3480156101dd57600080fd5b5061009c600480360360208110156101f457600080fd5b5035610419565b60015460009073ffffffffffffffffffffffffffffffffffffffff16321461026d576040805160e560020a62461bcd02815260206004820152601860248201527f4572726f72206f776e657220213d2074782e6f726967696e0000000000000000604482015290519081900360640190fd5b506001805475ff0000000000000000000000000000000000000000001916750100000000000000000000000000000000000000000017905560085b90565b60015460009074010000000000000000000000000000000000000000900460ff161515610322576040805160e560020a62461bcd02815260206004820152601660248201527f50726f63657373206e6f742065786563757461626c6500000000000000000000604482015290519081900360640190fd5b6001547501000000000000000000000000000000000000000000900460ff161561036c57506001805474ff00000000000000000000000000000000000000001916905560086102a8565b60015473ffffffffffffffffffffffffffffffffffffffff1632146103db576040805160e560020a62461bcd02815260206004820152601860248201527f4572726f72206f776e657220213d2074782e6f726967696e0000000000000000604482015290519081900360640190fd5b506001805474ff00000000000000000000000000000000000000001916815590565b60015473ffffffffffffffffffffffffffffffffffffffff1690565b6040805160e560020a62461bcd02815260206004820152600f60248201527f4e6f7420696d706c656d656e74656400000000000000000000000000000000006044820152905160009181900360640190fd5b60009056fea165627a7a72305820277c63463404f0b40148f7c81b7d2f4cf621dc878edbfddb1b893c270cfa428d0029608060408190526001805460a860020a60ff021960a060020a60ff0219909116740100000000000000000000000000000000000000001716905560208061065d8339810180604052602081101561005557600080fd5b505160008054600160a060020a031916600160a060020a038084169190911791829055604080517f50b1be26000000000000000000000000000000000000000000000000000000008152905192909116916350b1be2691600480820192602092909190829003018186803b1580156100cc57600080fd5b505afa1580156100e0573d6000803e3d6000fd5b505050506040513d60208110156100f657600080fd5b5051604080517f893d20e80000000000000000000000000000000000000000000000000000000081529051600160a060020a039092169163893d20e891600480820192602092909190829003018186803b15801561015357600080fd5b505afa158015610167573d6000803e3d6000fd5b505050506040513d602081101561017d57600080fd5b505160018054600160a060020a031916600160a060020a03909216919091179055506104af806101ae6000396000f3fe6080604052600436106100825763ffffffff7c010000000000000000000000000000000000000000000000000000000060003504166335a063b4811461008757806361461954146100c05780636f7f0907146100d5578063972213ad14610113578063991d1ca91461013f578063bd590d7e14610154578063fe0d94c1146101d1575b600080fd5b34801561009357600080fd5b5061009c6101fb565b604051808260098111156100ac57fe5b60ff16815260200191505060405180910390f35b3480156100cc57600080fd5b5061009c6102aa565b3480156100e157600080fd5b506100ea6102fc565b6040805173ffffffffffffffffffffffffffffffffffffffff9092168252519081900360200190f35b34801561011f57600080fd5b5061009c6004803603602081101561013657600080fd5b50351515610318565b34801561014b57600080fd5b5061009c61047e565b34801561016057600080fd5b5061009c6004803603602081101561017757600080fd5b81019060208101813564010000000081111561019257600080fd5b8201836020820111156101a457600080fd5b803590602001918460018302840111640100000000831117156101c657600080fd5b5090925090506102aa565b3480156101dd57600080fd5b5061009c600480360360208110156101f457600080fd5b50356102aa565b60015460009073ffffffffffffffffffffffffffffffffffffffff16321461026d576040805160e560020a62461bcd02815260206004820152601860248201527f4572726f72206f776e657220213d2074782e6f726967696e0000000000000000604482015290519081900360640190fd5b506001805475ff00000000000000000000000000000000000000000019167501000000000000000000000000000000000000000000179055600890565b6040805160e560020a62461bcd02815260206004820152600f60248201527f4e6f7420696d706c656d656e74656400000000000000000000000000000000006044820152905160009181900360640190fd5b60015473ffffffffffffffffffffffffffffffffffffffff1690565b60015460009074010000000000000000000000000000000000000000900460ff16151561038f576040805160e560020a62461bcd02815260206004820152601660248201527f50726f63657373206e6f742065786563757461626c6500000000000000000000604482015290519081900360640190fd5b6001547501000000000000000000000000000000000000000000900460ff16156103d957506001805474ff0000000000000000000000000000000000000000191690556008610479565b60015473ffffffffffffffffffffffffffffffffffffffff163214610448576040805160e560020a62461bcd02815260206004820152601860248201527f4572726f72206f776e657220213d2074782e6f726967696e0000000000000000604482015290519081900360640190fd5b81151561045757506008610479565b506001805474ff00000000000000000000000000000000000000001916905560025b919050565b60019056fea165627a7a723058206380f7000aee3dcc418e436750ee8559c6af1f347457e6809202b8867a1d38f40029608060408190526001805460a860020a60ff021960a060020a60ff021990911674010000000000000000000000000000000000000000171690556020806107108339810180604052602081101561005557600080fd5b505160008054600160a060020a031916600160a060020a038084169190911791829055604080517ff00e6a2a0000000000000000000000000000000000000000000000000000000081529051929091169163f00e6a2a91600480820192602092909190829003018186803b1580156100cc57600080fd5b505afa1580156100e0573d6000803e3d6000fd5b505050506040513d60208110156100f657600080fd5b5051604080517f893d20e80000000000000000000000000000000000000000000000000000000081529051600160a060020a039092169163893d20e891600480820192602092909190829003018186803b15801561015357600080fd5b505afa158015610167573d6000803e3d6000fd5b505050506040513d602081101561017d57600080fd5b505160018054600160a060020a031916600160a060020a0390921691909117905550610562806101ae6000396000f3fe6080604052600436106100825763ffffffff7c010000000000000000000000000000000000000000000000000000000060003504166335a063b4811461008757806361461954146100c05780636f7f0907146100d5578063972213ad14610106578063991d1ca914610132578063bd590d7e14610147578063fe0d94c1146101c4575b600080fd5b34801561009357600080fd5b5061009c6101ee565b604051808260098111156100ac57fe5b60ff16815260200191505060405180910390f35b3480156100cc57600080fd5b5061009c610291565b3480156100e157600080fd5b506100ea6104d0565b60408051600160a060020a039092168252519081900360200190f35b34801561011257600080fd5b5061009c6004803603602081101561012957600080fd5b503515156104df565b34801561013e57600080fd5b5061009c610531565b34801561015357600080fd5b5061009c6004803603602081101561016a57600080fd5b81019060208101813564010000000081111561018557600080fd5b82018360208201111561019757600080fd5b803590602001918460018302840111640100000000831117156101b957600080fd5b5090925090506104df565b3480156101d057600080fd5b5061009c600480360360208110156101e757600080fd5b50356104df565b600154600090600160a060020a03163214610253576040805160e560020a62461bcd02815260206004820152601860248201527f4572726f72206f776e657220213d2074782e6f726967696e0000000000000000604482015290519081900360640190fd5b506001805475ff0000000000000000000000000000000000000000001916750100000000000000000000000000000000000000000017905560085b90565b60015460009074010000000000000000000000000000000000000000900460ff161515610308576040805160e560020a62461bcd02815260206004820152601660248201527f50726f63657373206e6f742065786563757461626c6500000000000000000000604482015290519081900360640190fd5b6001547501000000000000000000000000000000000000000000900460ff161561035257506001805474ff000000000000000000000000000000000000000019169055600861028e565b600154600160a060020a031632146103b4576040805160e560020a62461bcd02815260206004820152601860248201527f4572726f72206f776e657220213d2074782e6f726967696e0000000000000000604482015290519081900360640190fd5b6000809054906101000a9004600160a060020a0316600160a060020a0316638271bb356040518163ffffffff167c010000000000000000000000000000000000000000000000000000000002815260040160206040518083038186803b15801561041d57600080fd5b505afa158015610431573d6000803e3d6000fd5b505050506040513d602081101561044757600080fd5b5051600054600160a060020a03163110156104ac576040805160e560020a62461bcd02815260206004820152601860248201527f506c656173652070726f76696465207468652066756e64730000000000000000604482015290519081900360640190fd5b506001805474ff000000000000000000000000000000000000000019169055600390565b600154600160a060020a031690565b6040805160e560020a62461bcd02815260206004820152600f60248201527f4e6f7420696d706c656d656e74656400000000000000000000000000000000006044820152905160009181900360640190fd5b60029056fea165627a7a7230582027e637287c096c25895a496cad323b4d777871547f5e10c54f5af3eff320589f0029608060408190526001805460a860020a60ff021960a060020a60ff021990911674010000000000000000000000000000000000000000171690556020806108e48339810180604052602081101561005557600080fd5b505160008054600160a060020a031916600160a060020a038084169190911791829055604080517f50b1be26000000000000000000000000000000000000000000000000000000008152905192909116916350b1be2691600480820192602092909190829003018186803b1580156100cc57600080fd5b505afa1580156100e0573d6000803e3d6000fd5b505050506040513d60208110156100f657600080fd5b5051604080517f893d20e80000000000000000000000000000000000000000000000000000000081529051600160a060020a039092169163893d20e891600480820192602092909190829003018186803b15801561015357600080fd5b505afa158015610167573d6000803e3d6000fd5b505050506040513d602081101561017d57600080fd5b505160018054600160a060020a031916600160a060020a03928316179055600054604080517fae8921570000000000000000000000000000000000000000000000000000000081529051919092169163ae892157916004808301926020929190829003018186803b1580156101f157600080fd5b505afa158015610205573d6000803e3d6000fd5b505050506040513d602081101561021b57600080fd5b50514201600255506106b2806102326000396000f3fe6080604052600436106100825763ffffffff7c010000000000000000000000000000000000000000000000000000000060003504166335a063b4811461008757806361461954146100c05780636f7f0907146100d5578063972213ad14610113578063991d1ca91461013f578063bd590d7e14610154578063fe0d94c1146101d1575b600080fd5b34801561009357600080fd5b5061009c6101fb565b604051808260098111156100ac57fe5b60ff16815260200191505060405180910390f35b3480156100cc57600080fd5b5061009c6102c5565b3480156100e157600080fd5b506100ea610402565b6040805173ffffffffffffffffffffffffffffffffffffffff9092168252519081900360200190f35b34801561011f57600080fd5b5061009c6004803603602081101561013657600080fd5b5035151561041e565b34801561014b57600080fd5b5061009c610470565b34801561016057600080fd5b5061009c6004803603602081101561017757600080fd5b81019060208101813564010000000081111561019257600080fd5b8201836020820111156101a457600080fd5b803590602001918460018302840111640100000000831117156101c657600080fd5b509092509050610475565b3480156101dd57600080fd5b5061009c600480360360208110156101f457600080fd5b503561041e565b60015460009073ffffffffffffffffffffffffffffffffffffffff16321461026d576040805160e560020a62461bcd02815260206004820152601860248201527f4572726f72206f776e657220213d2074782e6f726967696e0000000000000000604482015290519081900360640190fd5b506001805474ff00000000000000000000000000000000000000001975ff0000000000000000000000000000000000000000001990911675010000000000000000000000000000000000000000001716905560045b90565b60015460009074010000000000000000000000000000000000000000900460ff16151561033c576040805160e560020a62461bcd02815260206004820152601660248201527f50726f63657373206e6f742065786563757461626c6500000000000000000000604482015290519081900360640190fd5b61034461066c565b1561036f57506001805474ff00000000000000000000000000000000000000001916905560046102c2565b60015473ffffffffffffffffffffffffffffffffffffffff1632146103de576040805160e560020a62461bcd02815260206004820152601860248201527f4572726f72206f776e657220213d2074782e6f726967696e0000000000000000604482015290519081900360640190fd5b506001805474ff000000000000000000000000000000000000000019169055600490565b60015473ffffffffffffffffffffffffffffffffffffffff1690565b6040805160e560020a62461bcd02815260206004820152600f60248201527f4e6f7420696d706c656d656e74656400000000000000000000000000000000006044820152905160009181900360640190fd5b600390565b60015460009074010000000000000000000000000000000000000000900460ff1615156104ec576040805160e560020a62461bcd02815260206004820152601660248201527f50726f63657373206e6f742065786563757461626c6500000000000000000000604482015290519081900360640190fd5b6104f461066c565b1561051f57506001805474ff0000000000000000000000000000000000000000191690556004610666565b60015473ffffffffffffffffffffffffffffffffffffffff16321461058e576040805160e560020a62461bcd02815260206004820152601860248201527f4572726f72206f776e657220213d2074782e6f726967696e0000000000000000604482015290519081900360640190fd5b6000546040517f15336f800000000000000000000000000000000000000000000000000000000081526020600482019081526024820185905273ffffffffffffffffffffffffffffffffffffffff909216916315336f8091869186918190604401848480828437600081840152601f19601f8201169050808301925050509350505050600060405180830381600087803b15801561062b57600080fd5b505af115801561063f573d6000803e3d6000fd5b50506001805474ff0000000000000000000000000000000000000000191690555060049150505b92915050565b6000600254421115610680575060016102c2565b5060009056fea165627a7a72305820508772ee56b4960cf4fd81db0679eca9c820a7ea9e29b0c7a89960f4ce1e3abc0029608060408190526001805460a860020a60ff021960a060020a60ff0219909116740100000000000000000000000000000000000000001716905560208061094e8339810180604052602081101561005557600080fd5b505160008054600160a060020a031916600160a060020a038084169190911791829055604080517ff00e6a2a0000000000000000000000000000000000000000000000000000000081529051929091169163f00e6a2a91600480820192602092909190829003018186803b1580156100cc57600080fd5b505afa1580156100e0573d6000803e3d6000fd5b505050506040513d60208110156100f657600080fd5b5051604080517f893d20e80000000000000000000000000000000000000000000000000000000081529051600160a060020a039092169163893d20e891600480820192602092909190829003018186803b15801561015357600080fd5b505afa158015610167573d6000803e3d6000fd5b505050506040513d602081101561017d57600080fd5b505160018054600160a060020a031916600160a060020a03928316179055600054604080517fae8921570000000000000000000000000000000000000000000000000000000081529051919092169163ae892157916004808301926020929190829003018186803b1580156101f157600080fd5b505afa158015610205573d6000803e3d6000fd5b505050506040513d602081101561021b57600080fd5b505142016002555061071c806102326000396000f3fe6080604052600436106100825763ffffffff7c010000000000000000000000000000000000000000000000000000000060003504166335a063b4811461008757806361461954146100c05780636f7f0907146100d5578063972213ad14610106578063991d1ca914610132578063bd590d7e14610147578063fe0d94c1146101c4575b600080fd5b34801561009357600080fd5b5061009c6101ee565b604051808260098111156100ac57fe5b60ff16815260200191505060405180910390f35b3480156100cc57600080fd5b5061009c610329565b3480156100e157600080fd5b506100ea61037b565b60408051600160a060020a039092168252519081900360200190f35b34801561011257600080fd5b5061009c6004803603602081101561012957600080fd5b50351515610329565b34801561013e57600080fd5b5061009c61038a565b34801561015357600080fd5b5061009c6004803603602081101561016a57600080fd5b81019060208101813564010000000081111561018557600080fd5b82018360208201111561019757600080fd5b803590602001918460018302840111640100000000831117156101b957600080fd5b509092509050610329565b3480156101d057600080fd5b5061009c600480360360208110156101e757600080fd5b503561038f565b600154600090600160a060020a03163214610253576040805160e560020a62461bcd02815260206004820152601860248201527f4572726f72206f776e657220213d2074782e6f726967696e0000000000000000604482015290519081900360640190fd5b6001805474ff00000000000000000000000000000000000000001975ff000000000000000000000000000000000000000000199091167501000000000000000000000000000000000000000000171681556000546040517fa3bbb090000000000000000000000000000000000000000000000000000000008152600160a060020a039091169163a3bbb09091600401808260ff168152602001915050600060405180830381600087803b15801561030957600080fd5b505af115801561031d573d6000803e3d6000fd5b50505050600590505b90565b6040805160e560020a62461bcd02815260206004820152600f60248201527f4e6f7420696d706c656d656e74656400000000000000000000000000000000006044820152905160009181900360640190fd5b600154600160a060020a031690565b600490565b60015460009074010000000000000000000000000000000000000000900460ff161515610406576040805160e560020a62461bcd02815260206004820152601660248201527f50726f63657373206e6f742065786563757461626c6500000000000000000000604482015290519081900360640190fd5b61040e6106bd565b156105415760008054604080517fa3bbb090000000000000000000000000000000000000000000000000000000008152600160048201529051600160a060020a039092169263a3bbb0909260248084019382900301818387803b15801561047457600080fd5b505af1158015610488573d6000803e3d6000fd5b50506001805474ff0000000000000000000000000000000000000000191690555050600054604080517f620ae1c7000000000000000000000000000000000000000000000000000000008152905161053a92600160a060020a03169163620ae1c7916004808301926020929190829003018186803b15801561050957600080fd5b505afa15801561051d573d6000803e3d6000fd5b505050506040513d602081101561053357600080fd5b50516106d7565b90506106b8565b600154600160a060020a031632146105a3576040805160e560020a62461bcd02815260206004820152601860248201527f4572726f72206f776e657220213d2074782e6f726967696e0000000000000000604482015290519081900360640190fd5b600054600160a060020a031663a3bbb0908360028111156105c057fe5b6040518263ffffffff167c0100000000000000000000000000000000000000000000000000000000028152600401808260028111156105fb57fe5b60ff168152602001915050600060405180830381600087803b15801561062057600080fd5b505af1158015610634573d6000803e3d6000fd5b50506001805474ff0000000000000000000000000000000000000000191690555050600054604080517f620ae1c700000000000000000000000000000000000000000000000000000000815290516106b592600160a060020a03169163620ae1c7916004808301926020929190829003018186803b15801561050957600080fd5b90505b919050565b60006002544211156106d157506001610326565b50600090565b60008115156106e8575060066106b8565b5060056106b856fea165627a7a723058208948e68a54e311878a39c9a71e51b9376c1c7d0fd5aa861563c63db62d8dd6e10029608060408190526001805460a860020a60ff021960a060020a60ff0219909116740100000000000000000000000000000000000000001716905560208061084b8339810180604052602081101561005557600080fd5b505160008054600160a060020a031916600160a060020a038084169190911791829055604080517f50b1be26000000000000000000000000000000000000000000000000000000008152905192909116916350b1be2691600480820192602092909190829003018186803b1580156100cc57600080fd5b505afa1580156100e0573d6000803e3d6000fd5b505050506040513d60208110156100f657600080fd5b5051604080517f893d20e80000000000000000000000000000000000000000000000000000000081529051600160a060020a039092169163893d20e891600480820192602092909190829003018186803b15801561015357600080fd5b505afa158015610167573d6000803e3d6000fd5b505050506040513d602081101561017d57600080fd5b505160018054600160a060020a031916600160a060020a03928316179055600054604080517fae8921570000000000000000000000000000000000000000000000000000000081529051919092169163ae892157916004808301926020929190829003018186803b1580156101f157600080fd5b505afa158015610205573d6000803e3d6000fd5b505050506040513d602081101561021b57600080fd5b5051420160025550610619806102326000396000f3fe6080604052600436106100825763ffffffff7c010000000000000000000000000000000000000000000000000000000060003504166335a063b4811461008757806361461954146100c05780636f7f0907146100d5578063972213ad14610106578063991d1ca914610132578063bd590d7e14610147578063fe0d94c1146101c4575b600080fd5b34801561009357600080fd5b5061009c6101ee565b604051808260098111156100ac57fe5b60ff16815260200191505060405180910390f35b3480156100cc57600080fd5b5061009c610329565b3480156100e157600080fd5b506100ea61037b565b60408051600160a060020a039092168252519081900360200190f35b34801561011257600080fd5b5061009c6004803603602081101561012957600080fd5b50351515610329565b34801561013e57600080fd5b5061009c61038a565b34801561015357600080fd5b5061009c6004803603602081101561016a57600080fd5b81019060208101813564010000000081111561018557600080fd5b82018360208201111561019757600080fd5b803590602001918460018302840111640100000000831117156101b957600080fd5b509092509050610329565b3480156101d057600080fd5b5061009c600480360360208110156101e757600080fd5b503561038f565b600154600090600160a060020a03163214610253576040805160e560020a62461bcd02815260206004820152601860248201527f4572726f72206f776e657220213d2074782e6f726967696e0000000000000000604482015290519081900360640190fd5b6001805474ff00000000000000000000000000000000000000001975ff000000000000000000000000000000000000000000199091167501000000000000000000000000000000000000000000171681556000546040517f1dc9b284000000000000000000000000000000000000000000000000000000008152600160a060020a0390911691631dc9b28491600401808260ff168152602001915050600060405180830381600087803b15801561030957600080fd5b505af115801561031d573d6000803e3d6000fd5b50505050600690505b90565b6040805160e560020a62461bcd02815260206004820152600f60248201527f4e6f7420696d706c656d656e74656400000000000000000000000000000000006044820152905160009181900360640190fd5b600154600160a060020a031690565b600590565b60015460009074010000000000000000000000000000000000000000900460ff161515610406576040805160e560020a62461bcd02815260206004820152601660248201527f50726f63657373206e6f742065786563757461626c6500000000000000000000604482015290519081900360640190fd5b61040e6105d3565b156104b45760008054604080517f1dc9b284000000000000000000000000000000000000000000000000000000008152600160048201529051600160a060020a0390921692631dc9b2849260248084019382900301818387803b15801561047457600080fd5b505af1158015610488573d6000803e3d6000fd5b50506001805474ff00000000000000000000000000000000000000001916905550600691506105ce9050565b600154600160a060020a03163214610516576040805160e560020a62461bcd02815260206004820152601860248201527f4572726f72206f776e657220213d2074782e6f726967696e0000000000000000604482015290519081900360640190fd5b600054600160a060020a0316631dc9b28483600281111561053357fe5b6040518263ffffffff167c01000000000000000000000000000000000000000000000000000000000281526004018082600281111561056e57fe5b60ff168152602001915050600060405180830381600087803b15801561059357600080fd5b505af11580156105a7573d6000803e3d6000fd5b50506001805474ff0000000000000000000000000000000000000000191690555060069150505b919050565b60006002544211156105e757506001610326565b5060009056fea165627a7a72305820c79d3cca84f7e4d554ebbd05d5e32a50c32bb702a25a275e26be6c8a5b6593de0029608060408190526001805460a860020a60ff021960a060020a60ff02199091167401000000000000000000000000000000000000000017169055602080610aee8339810180604052602081101561005557600080fd5b505160008054600160a060020a03808416600160a060020a03199283161792839055600180549092163317909155604080517fae8921570000000000000000000000000000000000000000000000000000000081529051929091169163ae89215791600480820192602092909190829003018186803b1580156100d757600080fd5b505afa1580156100eb573d6000803e3d6000fd5b505050506040513d602081101561010157600080fd5b50514201600255506109d6806101186000396000f3fe60806040526004361061005e5763ffffffff60e060020a6000350416636146195481146100635780636f7f09071461009c578063972213ad146100cd578063991d1ca9146100f9578063bd590d7e1461010e578063fe0d94c11461018b575b600080fd5b34801561006f57600080fd5b506100786101b5565b6040518082600981111561008857fe5b60ff16815260200191505060405180910390f35b3480156100a857600080fd5b506100b161092d565b60408051600160a060020a039092168252519081900360200190f35b3480156100d957600080fd5b50610078600480360360208110156100f057600080fd5b5035151561093c565b34801561010557600080fd5b506100786109a5565b34801561011a57600080fd5b506100786004803603602081101561013157600080fd5b81019060208101813564010000000081111561014c57600080fd5b82018360208201111561015e57600080fd5b8035906020019184600183028401116401000000008311171561018057600080fd5b50909250905061093c565b34801561019757600080fd5b50610078600480360360208110156101ae57600080fd5b503561093c565b60015460009074010000000000000000000000000000000000000000900460ff16151561024357604080517f08c379a000000000000000000000000000000000000000000000000000000000815260206004820152601660248201527f50726f63657373206e6f742065786563757461626c6500000000000000000000604482015290519081900360640190fd5b600154600160a060020a031633146102bc57604080517f08c379a000000000000000000000000000000000000000000000000000000000815260206004820152601960248201527f4572726f72206f776e657220213d206d73672e73656e64657200000000000000604482015290519081900360640190fd5b60008060008060009054906101000a9004600160a060020a0316600160a060020a031663620ae1c76040518163ffffffff1660e060020a02815260040160206040518083038186803b15801561031157600080fd5b505afa158015610325573d6000803e3d6000fd5b505050506040513d602081101561033b57600080fd5b50511561050e5773__EvaluationFactory_____________________6367ec1e1660008060009054906101000a9004600160a060020a0316600160a060020a031663f00e6a2a6040518163ffffffff1660e060020a02815260040160206040518083038186803b1580156103ae57600080fd5b505afa1580156103c2573d6000803e3d6000fd5b505050506040513d60208110156103d857600080fd5b5051600054604080517f50b1be260000000000000000000000000000000000000000000000000000000081529051600160a060020a03909216916350b1be2691600480820192602092909190829003018186803b15801561043857600080fd5b505afa15801561044c573d6000803e3d6000fd5b505050506040513d602081101561046257600080fd5b505160405160e060020a63ffffffff86160281526004018084600181111561048657fe5b60ff16815260200183600160a060020a0316600160a060020a0316815260200182600160a060020a0316600160a060020a03168152602001935050505060206040518083038186803b1580156104db57600080fd5b505af41580156104ef573d6000803e3d6000fd5b505050506040513d602081101561050557600080fd5b505190506106d6565b73__EvaluationFactory_____________________6367ec1e1660016000809054906101000a9004600160a060020a0316600160a060020a031663f00e6a2a6040518163ffffffff1660e060020a02815260040160206040518083038186803b15801561057a57600080fd5b505afa15801561058e573d6000803e3d6000fd5b505050506040513d60208110156105a457600080fd5b5051600054604080517f50b1be260000000000000000000000000000000000000000000000000000000081529051600160a060020a03909216916350b1be2691600480820192602092909190829003018186803b15801561060457600080fd5b505afa158015610618573d6000803e3d6000fd5b505050506040513d602081101561062e57600080fd5b505160405160e060020a63ffffffff86160281526004018084600181111561065257fe5b60ff16815260200183600160a060020a0316600160a060020a0316815260200182600160a060020a0316600160a060020a03168152602001935050505060206040518083038186803b1580156106a757600080fd5b505af41580156106bb573d6000803e3d6000fd5b505050506040513d60208110156106d157600080fd5b505190505b80600160a060020a0316639e39f3646000809054906101000a9004600160a060020a0316600160a060020a0316639ed5b5026040518163ffffffff1660e060020a02815260040160206040518083038186803b15801561073557600080fd5b505afa158015610749573d6000803e3d6000fd5b505050506040513d602081101561075f57600080fd5b5051600054604080517f90f3213d0000000000000000000000000000000000000000000000000000000081529051600160a060020a03909216916390f3213d91600480820192602092909190829003018186803b1580156107bf57600080fd5b505afa1580156107d3573d6000803e3d6000fd5b505050506040513d60208110156107e957600080fd5b505160405160e060020a63ffffffff85160281526004018083600281111561080d57fe5b60ff16815260200182600281111561082157fe5b60ff16815260200192505050604080518083038186803b15801561084457600080fd5b505afa158015610858573d6000803e3d6000fd5b505050506040513d604081101561086e57600080fd5b5080516020909101519093509150600160a060020a038316156109085760008054604080517fe39ff19f000000000000000000000000000000000000000000000000000000008152600160a060020a0387811660048301529151919092169263e39ff19f926024808201939182900301818387803b1580156108ef57600080fd5b505af1158015610903573d6000803e3d6000fd5b505050505b506001805474ff00000000000000000000000000000000000000001916905591505090565b600154600160a060020a031690565b604080517f08c379a000000000000000000000000000000000000000000000000000000000815260206004820152600f60248201527f4e6f7420696d706c656d656e74656400000000000000000000000000000000006044820152905160009181900360640190fd5b60069056fea165627a7a72305820e76d50e550c90494f4fc6e4708bcb0a41619599d23b4f30bedb1c6ab1a67c4a10029608060408190526000805460a060020a60ff02191690556020806103a68339810180604052602081101561003257600080fd5b505160008054600160a060020a031916600160a060020a0380841691909117808355604080517f76be6af6000000000000000000000000000000000000000000000000000000008152905191909216926376be6af6926004808201939182900301818387803b1580156100a457600080fd5b505af11580156100b8573d6000803e3d6000fd5b50505050506102da806100cc6000396000f3fe6080604052600436106100775763ffffffff7c010000000000000000000000000000000000000000000000000000000060003504166361461954811461007c5780636f7f0907146100b5578063972213ad146100f3578063991d1ca91461011f578063bd590d7e14610134578063fe0d94c1146101b1575b600080fd5b34801561008857600080fd5b506100916101d7565b604051808260098111156100a157fe5b60ff16815260200191505060405180910390f35b3480156100c157600080fd5b506100ca610240565b6040805173ffffffffffffffffffffffffffffffffffffffff9092168252519081900360200190f35b3480156100ff57600080fd5b506100916004803603602081101561011657600080fd5b503515156101d7565b34801561012b57600080fd5b506100916102a9565b34801561014057600080fd5b506100916004803603602081101561015757600080fd5b81019060208101813564010000000081111561017257600080fd5b82018360208201111561018457600080fd5b803590602001918460018302840111640100000000831117156101a657600080fd5b5090925090506101d7565b3480156101bd57600080fd5b50610091600480360360208110156101d457600080fd5b50355b604080517f08c379a000000000000000000000000000000000000000000000000000000000815260206004820152600f60248201527f4e6f7420696d706c656d656e74656400000000000000000000000000000000006044820152905160009181900360640190fd5b604080517f08c379a000000000000000000000000000000000000000000000000000000000815260206004820152600860248201527f4e6f204f776e65720000000000000000000000000000000000000000000000006044820152905160009181900360640190fd5b60079056fea165627a7a72305820bc89609831831b8494926c2be9b324fceadf515a5d5f900fd2d2478c9d63a1de0029608060408190526000805460a060020a60ff02191690556020806103a68339810180604052602081101561003257600080fd5b505160008054600160a060020a031916600160a060020a0380841691909117808355604080517f76be6af6000000000000000000000000000000000000000000000000000000008152905191909216926376be6af6926004808201939182900301818387803b1580156100a457600080fd5b505af11580156100b8573d6000803e3d6000fd5b50505050506102da806100cc6000396000f3fe6080604052600436106100775763ffffffff7c010000000000000000000000000000000000000000000000000000000060003504166361461954811461007c5780636f7f0907146100b5578063972213ad146100f3578063991d1ca91461011f578063bd590d7e14610134578063fe0d94c1146101b1575b600080fd5b34801561008857600080fd5b506100916101d7565b604051808260098111156100a157fe5b60ff16815260200191505060405180910390f35b3480156100c157600080fd5b506100ca610240565b6040805173ffffffffffffffffffffffffffffffffffffffff9092168252519081900360200190f35b3480156100ff57600080fd5b506100916004803603602081101561011657600080fd5b503515156101d7565b34801561012b57600080fd5b506100916102a9565b34801561014057600080fd5b506100916004803603602081101561015757600080fd5b81019060208101813564010000000081111561017257600080fd5b82018360208201111561018457600080fd5b803590602001918460018302840111640100000000831117156101a657600080fd5b5090925090506101d7565b3480156101bd57600080fd5b50610091600480360360208110156101d457600080fd5b50355b604080517f08c379a000000000000000000000000000000000000000000000000000000000815260206004820152600f60248201527f4e6f7420696d706c656d656e74656400000000000000000000000000000000006044820152905160009181900360640190fd5b604080517f08c379a000000000000000000000000000000000000000000000000000000000815260206004820152600860248201527f4e6f204f776e65720000000000000000000000000000000000000000000000006044820152905160009181900360640190fd5b60089056fea165627a7a72305820c93af06324ccc308dae4242528a13e3fa6c57238da5e14d817d7284ea2e6077a0029608060408190526000805460a060020a60ff02191690556020806103a68339810180604052602081101561003257600080fd5b505160008054600160a060020a031916600160a060020a0380841691909117808355604080517f76be6af6000000000000000000000000000000000000000000000000000000008152905191909216926376be6af6926004808201939182900301818387803b1580156100a457600080fd5b505af11580156100b8573d6000803e3d6000fd5b50505050506102da806100cc6000396000f3fe6080604052600436106100775763ffffffff7c010000000000000000000000000000000000000000000000000000000060003504166361461954811461007c5780636f7f0907146100b5578063972213ad146100f3578063991d1ca91461011f578063bd590d7e14610134578063fe0d94c1146101b1575b600080fd5b34801561008857600080fd5b506100916101d7565b604051808260098111156100a157fe5b60ff16815260200191505060405180910390f35b3480156100c157600080fd5b506100ca610240565b6040805173ffffffffffffffffffffffffffffffffffffffff9092168252519081900360200190f35b3480156100ff57600080fd5b506100916004803603602081101561011657600080fd5b503515156101d7565b34801561012b57600080fd5b506100916102a9565b34801561014057600080fd5b506100916004803603602081101561015757600080fd5b81019060208101813564010000000081111561017257600080fd5b82018360208201111561018457600080fd5b803590602001918460018302840111640100000000831117156101a657600080fd5b5090925090506101d7565b3480156101bd57600080fd5b50610091600480360360208110156101d457600080fd5b50355b604080517f08c379a000000000000000000000000000000000000000000000000000000000815260206004820152600f60248201527f4e6f7420696d706c656d656e74656400000000000000000000000000000000006044820152905160009181900360640190fd5b604080517f08c379a000000000000000000000000000000000000000000000000000000000815260206004820152600860248201527f4e6f204f776e65720000000000000000000000000000000000000000000000006044820152905160009181900360640190fd5b60099056fea165627a7a723058202346c28bdc5d3ce3997bb391bf67a48d50177a1d720e3da9a78f778654e6db9a0029a165627a7a72305820ccbb30fd26c339f06f473801509cf245526379b9a7b742e82a625bae254e29b00029",
  "source": "pragma solidity ^0.5.0;\r\n\r\nimport \"./Enums.sol\";\r\nimport \"./IState.sol\";\r\nimport \"./StateStart.sol\";\r\nimport \"./StateFunding.sol\";\r\nimport \"./StateRatingByMitigator.sol\";\r\nimport \"./StateEvaluation.sol\";\r\nimport \"./StateApprove.sol\";\r\nimport \"./StateProof.sol\";\r\nimport \"./StateRatingByTarget.sol\";\r\nimport \"./StateComplete.sol\";\r\nimport \"./StateAbort.sol\";\r\nimport \"./StateEscalate.sol\";\r\n\r\nlibrary StateFactory{\r\n    \r\n    function create(Enums.StateType _Type,address payable data) \r\n    public\r\n\treturns (IState){\r\n        \r\n\t\tif(_Type == Enums.StateType.REQUEST){\r\n\t\t\treturn new StateStart(data);\r\n\t\t}else if(_Type == Enums.StateType.APPROVE){\r\n\t\t\treturn new StateApprove(data);\r\n\t\t}else if(_Type == Enums.StateType.FUNDING){\r\n\t\t\treturn new StateFunding(data);\r\n\t\t}else if(_Type == Enums.StateType.PROOF){\r\n\t\t\treturn new StateProof(data);\r\n\t\t}else if(_Type == Enums.StateType.RATE_T){\r\n\t\t\treturn new StateRatingByTarget(data);\r\n\t\t}else if(_Type == Enums.StateType.RATE_M){\r\n\t\t\treturn new StateRatingByMitigator(data);\r\n\t\t}else if(_Type == Enums.StateType.EVALUATION){\r\n\t\t\treturn new StateEvaluation(data);\r\n\t\t}else if(_Type == Enums.StateType.COMPLETE){\r\n\t\t\treturn new StateComplete(data);\r\n\t\t}else if(_Type == Enums.StateType.ABORT){\r\n\t\t\treturn new StateAbort(data);\r\n\t\t}else if(_Type == Enums.StateType.ESCALATE){\r\n\t\t\treturn new StateEscalate(data);\r\n\t\t}else{\r\n\t\t\trevert(\"Type not in StateFactory\");\r\n\t\t}\r\n\t}\r\n    \r\n}",
  "sourcePath": "C:\\Code\\Private\\CooperativeSignaling\\contracts\\StateFactory.sol",
  "compiler": {
    "name": "solc",
    "version": "0.5.0+commit.1d4f565a.Emscripten.clang"
  },
  "schemaVersion": "3.0.1",
  "updatedAt": "2019-02-10T19:16:31.358Z",
  "devdoc": {
    "methods": {}
  },
  "userdoc": {
    "methods": {}
  }
}