{
  "contractName": "StateFunding",
  "abi": [
    {
      "inputs": [
        {
          "name": "_data",
          "type": "address"
        }
      ],
      "payable": true,
      "stateMutability": "payable",
      "type": "constructor"
    },
    {
      "constant": false,
      "inputs": [],
      "name": "execute",
      "outputs": [
        {
          "name": "",
          "type": "uint8"
        }
      ],
      "payable": false,
      "stateMutability": "nonpayable",
      "type": "function"
    },
    {
      "constant": false,
      "inputs": [
        {
          "name": "",
          "type": "bool"
        }
      ],
      "name": "execute",
      "outputs": [
        {
          "name": "",
          "type": "uint8"
        }
      ],
      "payable": false,
      "stateMutability": "nonpayable",
      "type": "function"
    },
    {
      "constant": false,
      "inputs": [
        {
          "name": "",
          "type": "string"
        }
      ],
      "name": "execute",
      "outputs": [
        {
          "name": "",
          "type": "uint8"
        }
      ],
      "payable": false,
      "stateMutability": "nonpayable",
      "type": "function"
    },
    {
      "constant": false,
      "inputs": [
        {
          "name": "",
          "type": "uint256"
        }
      ],
      "name": "execute",
      "outputs": [
        {
          "name": "",
          "type": "uint8"
        }
      ],
      "payable": false,
      "stateMutability": "nonpayable",
      "type": "function"
    },
    {
      "constant": false,
      "inputs": [],
      "name": "abort",
      "outputs": [
        {
          "name": "",
          "type": "uint8"
        }
      ],
      "payable": false,
      "stateMutability": "nonpayable",
      "type": "function"
    },
    {
      "constant": true,
      "inputs": [],
      "name": "getOwnerOfState",
      "outputs": [
        {
          "name": "",
          "type": "address"
        }
      ],
      "payable": false,
      "stateMutability": "view",
      "type": "function"
    },
    {
      "constant": true,
      "inputs": [],
      "name": "getStateType",
      "outputs": [
        {
          "name": "",
          "type": "uint8"
        }
      ],
      "payable": false,
      "stateMutability": "view",
      "type": "function"
    }
  ],
  "bytecode": "0x608060408190526001805460a860020a60ff021960a060020a60ff021990911674010000000000000000000000000000000000000000171690556020806107108339810180604052602081101561005557600080fd5b505160008054600160a060020a031916600160a060020a038084169190911791829055604080517ff00e6a2a0000000000000000000000000000000000000000000000000000000081529051929091169163f00e6a2a91600480820192602092909190829003018186803b1580156100cc57600080fd5b505afa1580156100e0573d6000803e3d6000fd5b505050506040513d60208110156100f657600080fd5b5051604080517f893d20e80000000000000000000000000000000000000000000000000000000081529051600160a060020a039092169163893d20e891600480820192602092909190829003018186803b15801561015357600080fd5b505afa158015610167573d6000803e3d6000fd5b505050506040513d602081101561017d57600080fd5b505160018054600160a060020a031916600160a060020a0390921691909117905550610562806101ae6000396000f3fe6080604052600436106100825763ffffffff7c010000000000000000000000000000000000000000000000000000000060003504166335a063b4811461008757806361461954146100c05780636f7f0907146100d5578063972213ad14610106578063991d1ca914610132578063bd590d7e14610147578063fe0d94c1146101c4575b600080fd5b34801561009357600080fd5b5061009c6101ee565b604051808260098111156100ac57fe5b60ff16815260200191505060405180910390f35b3480156100cc57600080fd5b5061009c610291565b3480156100e157600080fd5b506100ea6104d0565b60408051600160a060020a039092168252519081900360200190f35b34801561011257600080fd5b5061009c6004803603602081101561012957600080fd5b503515156104df565b34801561013e57600080fd5b5061009c610531565b34801561015357600080fd5b5061009c6004803603602081101561016a57600080fd5b81019060208101813564010000000081111561018557600080fd5b82018360208201111561019757600080fd5b803590602001918460018302840111640100000000831117156101b957600080fd5b5090925090506104df565b3480156101d057600080fd5b5061009c600480360360208110156101e757600080fd5b50356104df565b600154600090600160a060020a03163214610253576040805160e560020a62461bcd02815260206004820152601860248201527f4572726f72206f776e657220213d2074782e6f726967696e0000000000000000604482015290519081900360640190fd5b506001805475ff0000000000000000000000000000000000000000001916750100000000000000000000000000000000000000000017905560085b90565b60015460009074010000000000000000000000000000000000000000900460ff161515610308576040805160e560020a62461bcd02815260206004820152601660248201527f50726f63657373206e6f742065786563757461626c6500000000000000000000604482015290519081900360640190fd5b6001547501000000000000000000000000000000000000000000900460ff161561035257506001805474ff000000000000000000000000000000000000000019169055600861028e565b600154600160a060020a031632146103b4576040805160e560020a62461bcd02815260206004820152601860248201527f4572726f72206f776e657220213d2074782e6f726967696e0000000000000000604482015290519081900360640190fd5b6000809054906101000a9004600160a060020a0316600160a060020a0316638271bb356040518163ffffffff167c010000000000000000000000000000000000000000000000000000000002815260040160206040518083038186803b15801561041d57600080fd5b505afa158015610431573d6000803e3d6000fd5b505050506040513d602081101561044757600080fd5b5051600054600160a060020a03163110156104ac576040805160e560020a62461bcd02815260206004820152601860248201527f506c656173652070726f76696465207468652066756e64730000000000000000604482015290519081900360640190fd5b506001805474ff000000000000000000000000000000000000000019169055600390565b600154600160a060020a031690565b6040805160e560020a62461bcd02815260206004820152600f60248201527f4e6f7420696d706c656d656e74656400000000000000000000000000000000006044820152905160009181900360640190fd5b60029056fea165627a7a723058206d7f6f79c0c633e98f65b2fc18f3ea3704071773a027552d0e1bb8e9506685320029",
  "source": "pragma solidity ^0.5.0;\r\n\r\nimport \"./IState.sol\";\r\n\r\ncontract StateFunding is IState{\r\n\r\n\taddress payable data;\r\n\taddress payable owner;\r\n\tbool internal executable = true;\r\n\tbool internal aborted = false;\r\n\t\r\n    constructor(address payable _data) public payable {\r\n\t\tdata = _data;\r\n\t\towner = IActor(IData(data).getTarget()).getOwner();\r\n\t}\t\r\n\t\r\n\tfunction execute() external returns(Enums.StateType){\r\n\t\trequire(executable,\"Process not executable\");\r\n\t\tif(aborted){\r\n\t\t\texecutable=false;\r\n\t\t\treturn Enums.StateType.ABORT; \r\n\t\t}\r\n\t\trequire(owner == tx.origin,\"Error owner != tx.origin\");\r\n\t\trequire(address(IData(data)).balance>=IData(data).getOfferedFunds() ,\"Please provide the funds\");\r\n\t\t\r\n\t\texecutable=false;\r\n\t\treturn Enums.StateType.PROOF;\r\n    }\r\n\tfunction execute(bool /*value*/) external returns(Enums.StateType) {revert(\"Not implemented\");}\r\n    function execute(uint256 /*value*/) external returns(Enums.StateType) {revert(\"Not implemented\");}\r\n    function execute(string calldata /*value*/) external returns(Enums.StateType) {revert(\"Not implemented\");}\r\n\t\r\n\tfunction abort() public returns(Enums.StateType){\r\n\t\trequire(owner == tx.origin,\"Error owner != tx.origin\"); \r\n\t\taborted=true; \r\n\t\treturn Enums.StateType.ABORT; \r\n\t}\r\n\t\r\n\tfunction getOwnerOfState() external view returns(address payable){return owner;}  \r\n\t\r\n\tfunction getStateType() external view returns(Enums.StateType){return Enums.StateType.FUNDING;}\r\n\t\r\n}",
  "sourcePath": "C:\\Users\\Dominik Bünzli\\Documents\\GitHub\\CooperativeSignaling\\contracts\\StateFunding.sol",
  "compiler": {
    "name": "solc",
    "version": "0.5.0+commit.1d4f565a.Emscripten.clang"
  },
  "schemaVersion": "3.0.1",
  "updatedAt": "2019-02-10T22:12:09.301Z",
  "devdoc": {
    "methods": {}
  },
  "userdoc": {
    "methods": {}
  }
}