{
  "contractName": "StateEvaluation",
  "abi": [
    {
      "constant": true,
      "inputs": [],
      "name": "Statename",
      "outputs": [
        {
          "name": "",
          "type": "string"
        }
      ],
      "payable": false,
      "stateMutability": "view",
      "type": "function"
    },
    {
      "constant": true,
      "inputs": [],
      "name": "getName",
      "outputs": [
        {
          "name": "",
          "type": "string"
        }
      ],
      "payable": false,
      "stateMutability": "view",
      "type": "function"
    },
    {
      "constant": false,
      "inputs": [],
      "name": "canAdvance",
      "outputs": [
        {
          "name": "",
          "type": "bool"
        }
      ],
      "payable": false,
      "stateMutability": "nonpayable",
      "type": "function"
    },
    {
      "inputs": [
        {
          "name": "_data",
          "type": "address"
        }
      ],
      "payable": true,
      "stateMutability": "payable",
      "type": "constructor"
    },
    {
      "constant": false,
      "inputs": [],
      "name": "execute",
      "outputs": [],
      "payable": false,
      "stateMutability": "nonpayable",
      "type": "function"
    },
    {
      "constant": false,
      "inputs": [
        {
          "name": "value",
          "type": "uint256"
        }
      ],
      "name": "execute",
      "outputs": [],
      "payable": false,
      "stateMutability": "nonpayable",
      "type": "function"
    },
    {
      "constant": false,
      "inputs": [
        {
          "name": "value",
          "type": "string"
        }
      ],
      "name": "execute",
      "outputs": [],
      "payable": false,
      "stateMutability": "nonpayable",
      "type": "function"
    },
    {
      "constant": false,
      "inputs": [
        {
          "name": "value",
          "type": "bool"
        }
      ],
      "name": "execute",
      "outputs": [],
      "payable": false,
      "stateMutability": "nonpayable",
      "type": "function"
    },
    {
      "constant": true,
      "inputs": [
        {
          "name": "_ProofWasProvided",
          "type": "bool"
        },
        {
          "name": "TargetRating",
          "type": "uint8"
        },
        {
          "name": "MitigatorRating",
          "type": "uint8"
        }
      ],
      "name": "evaluate",
      "outputs": [
        {
          "name": "",
          "type": "address"
        },
        {
          "name": "",
          "type": "uint8"
        }
      ],
      "payable": false,
      "stateMutability": "view",
      "type": "function"
    },
    {
      "constant": true,
      "inputs": [
        {
          "name": "TargetRating",
          "type": "uint8"
        }
      ],
      "name": "evaluationWithoutProof",
      "outputs": [
        {
          "name": "",
          "type": "address"
        },
        {
          "name": "",
          "type": "uint8"
        }
      ],
      "payable": false,
      "stateMutability": "view",
      "type": "function"
    },
    {
      "constant": true,
      "inputs": [
        {
          "name": "TargetRating",
          "type": "uint8"
        },
        {
          "name": "MitigatorRating",
          "type": "uint8"
        }
      ],
      "name": "evaluationWithProof",
      "outputs": [
        {
          "name": "",
          "type": "address"
        },
        {
          "name": "",
          "type": "uint8"
        }
      ],
      "payable": false,
      "stateMutability": "view",
      "type": "function"
    },
    {
      "constant": true,
      "inputs": [
        {
          "name": "MitigatorRating",
          "type": "uint8"
        }
      ],
      "name": "evaluationWithProofAcknowledged",
      "outputs": [
        {
          "name": "",
          "type": "address"
        },
        {
          "name": "",
          "type": "uint8"
        }
      ],
      "payable": false,
      "stateMutability": "view",
      "type": "function"
    },
    {
      "constant": true,
      "inputs": [
        {
          "name": "MitigatorRating",
          "type": "uint8"
        }
      ],
      "name": "evaluationWithProofSelfish",
      "outputs": [
        {
          "name": "",
          "type": "address"
        },
        {
          "name": "",
          "type": "uint8"
        }
      ],
      "payable": false,
      "stateMutability": "view",
      "type": "function"
    },
    {
      "constant": true,
      "inputs": [
        {
          "name": "MitigatorRating",
          "type": "uint8"
        }
      ],
      "name": "evaluationWithProofRejected",
      "outputs": [
        {
          "name": "",
          "type": "address"
        },
        {
          "name": "",
          "type": "uint8"
        }
      ],
      "payable": false,
      "stateMutability": "view",
      "type": "function"
    },
    {
      "constant": true,
      "inputs": [],
      "name": "getActorOfState",
      "outputs": [
        {
          "name": "",
          "type": "address"
        }
      ],
      "payable": false,
      "stateMutability": "view",
      "type": "function"
    }
  ],
  "bytecode": "0x60c0604052600660808190527f495374617465000000000000000000000000000000000000000000000000000060a090815261003e91600191906101d6565b506000809054906101000a9004600160a060020a0316600160a060020a031663f00e6a2a6040518163ffffffff167c010000000000000000000000000000000000000000000000000000000002815260040160206040518083038186803b1580156100a857600080fd5b505afa1580156100bc573d6000803e3d6000fd5b505050506040513d60208110156100d257600080fd5b505160028054600160a060020a031916600160a060020a03928316179055600054604080517f50b1be26000000000000000000000000000000000000000000000000000000008152905191909216916350b1be26916004808301926020929190829003018186803b15801561014657600080fd5b505afa15801561015a573d6000803e3d6000fd5b505050506040513d602081101561017057600080fd5b505160038054600160a060020a031916600160a060020a03909216919091179055604051602080610d56833981018060405260208110156101b057600080fd5b505160008054600160a060020a031916600160a060020a03909216919091179055610271565b828054600181600116156101000203166002900490600052602060002090601f016020900481019282601f1061021757805160ff1916838001178555610244565b82800160010185558215610244579182015b82811115610244578251825591602001919060010190610229565b50610250929150610254565b5090565b61026e91905b80821115610250576000815560010161025a565b90565b610ad6806102806000396000f3fe6080604052600436106100b65763ffffffff60e060020a60003504166307918ec581146100bb5780630b9576291461014557806315f6c1341461014557806317d7de7c146101a657806325e3926e146101bb578063349590c3146101e4578063415899f31461021957806353707b4c1461024657806361461954146102835780637bb3ad9b1461029a57806388861818146102cb578063972213ad146102f8578063bd590d7e14610324578063fe0d94c1146103d7575b600080fd5b3480156100c757600080fd5b506100d0610401565b6040805160208082528351818301528351919283929083019185019080838360005b8381101561010a5781810151838201526020016100f2565b50505050905090810190601f1680156101375780820380516001836020036101000a031916815260200191505b509250505060405180910390f35b34801561015157600080fd5b506101726004803603602081101561016857600080fd5b503560ff1661048e565b604051600160a060020a03831681526020810182600881111561019157fe5b60ff1681526020019250505060405180910390f35b3480156101b257600080fd5b506100d06104c7565b3480156101c757600080fd5b506101d061055d565b604080519115158252519081900360200190f35b3480156101f057600080fd5b506101726004803603604081101561020757600080fd5b5060ff8135811691602001351661067e565b34801561022557600080fd5b506101726004803603602081101561023c57600080fd5b503560ff166106d4565b34801561025257600080fd5b506101726004803603606081101561026957600080fd5b50803515159060ff6020820135811691604001351661070c565b34801561028f57600080fd5b50610298610739565b005b3480156102a657600080fd5b506102af61095e565b60408051600160a060020a039092168252519081900360200190f35b3480156102d757600080fd5b50610172600480360360208110156102ee57600080fd5b503560ff166109e1565b34801561030457600080fd5b506102986004803603602081101561031b57600080fd5b50351515610a0c565b34801561033057600080fd5b506102986004803603602081101561034757600080fd5b81019060208101813564010000000081111561036257600080fd5b82018360208201111561037457600080fd5b8035906020019184600183028401116401000000008311171561039657600080fd5b91908080601f016020809104026020016040519081016040528093929190818152602001838380828437600092019190915250929550610a0c945050505050565b3480156103e357600080fd5b50610298600480360360208110156103fa57600080fd5b5035610a0c565b60018054604080516020600284861615610100026000190190941693909304601f810184900484028201840190925281815292918301828280156104865780601f1061045b57610100808354040283529160200191610486565b820191906000526020600020905b81548152906001019060200180831161046957829003601f168201915b505050505081565b600080600283600281111561049f57fe5b14156104ba575050600354600160a060020a031660066104c2565b506000905060075b915091565b60018054604080516020601f600260001961010087891615020190951694909404938401819004810282018101909252828152606093909290918301828280156105525780601f1061052757610100808354040283529160200191610552565b820191906000526020600020905b81548152906001019060200180831161053557829003601f168201915b505050505090505b90565b6000805474010000000000000000000000000000000000000000900460ff161515600114156105ed57604080517f08c379a000000000000000000000000000000000000000000000000000000000815260206004820152600f60248201527f50726f636573732061626f727465640000000000000000000000000000000000604482015290519081900360640190fd5b6000809054906101000a9004600160a060020a0316600160a060020a0316635f8d96de6040518163ffffffff1660e060020a02815260040160206040518083038186803b15801561063d57600080fd5b505afa158015610651573d6000803e3d6000fd5b505050506040513d602081101561066757600080fd5b50514211156106785750600061055a565b50600190565b600080600284600281111561068f57fe5b14156106a75761069e8361048e565b915091506106cd565b60008460028111156106b557fe5b14156106c45761069e836106d4565b61069e8361048e565b9250929050565b60008060028360028111156106e557fe5b14156106f757506000905060086104c2565b5050600254600160a060020a031660066104c2565b60008084156107285761071f848461067e565b91509150610731565b61071f846109e1565b935093915050565b61074161055d565b15156107ae57604080517f08c379a000000000000000000000000000000000000000000000000000000000815260206004820152600d60248201527f43616e277420616476616e636500000000000000000000000000000000000000604482015290519081900360640190fd5b6000806108c160016000809054906101000a9004600160a060020a0316600160a060020a0316639ed5b5026040518163ffffffff1660e060020a02815260040160206040518083038186803b15801561080657600080fd5b505afa15801561081a573d6000803e3d6000fd5b505050506040513d602081101561083057600080fd5b5051600054604080517f90f3213d0000000000000000000000000000000000000000000000000000000081529051600160a060020a03909216916390f3213d91600480820192602092909190829003018186803b15801561089057600080fd5b505afa1580156108a4573d6000803e3d6000fd5b505050506040513d60208110156108ba57600080fd5b505161070c565b9092509050600160a060020a038216156109525760008054604080517fe39ff19f000000000000000000000000000000000000000000000000000000008152600160a060020a0386811660048301529151919092169263e39ff19f926024808201939182900301818387803b15801561093957600080fd5b505af115801561094d573d6000803e3d6000fd5b505050505b61095a610a73565b5050565b60008060009054906101000a9004600160a060020a0316600160a060020a031663f00e6a2a6040518163ffffffff1660e060020a02815260040160206040518083038186803b1580156109b057600080fd5b505afa1580156109c4573d6000803e3d6000fd5b505050506040513d60208110156109da57600080fd5b5051905090565b600080808360028111156109f157fe5b14156104ba575050600254600160a060020a031660066104c2565b604080517f08c379a000000000000000000000000000000000000000000000000000000000815260206004820152600f60248201527f4e6f7420496d706c656d656e7465640000000000000000000000000000000000604482015290519081900360640190fd5b6000805474ff000000000000000000000000000000000000000019167401000000000000000000000000000000000000000017905556fea165627a7a72305820612cfa6266cacacb3d9e2778e66eac7ee3422270f6ec4068d0a9880422635ef40029",
  "source": "pragma solidity ^0.5.0;\r\n\r\nimport \"./IState.sol\";\r\n\r\ncontract StateEvaluation is IState{\r\n\t\r\n\taddress payable TargetAddress = IData(data).getTarget();\r\n\taddress payable MitigatorAddress = IData(data).getMitigator();\r\n\t\r\n\tconstructor(address payable _data) IState(_data) public payable {}\r\n\t\r\n    function execute() public{\r\n        if(!canAdvance()){\r\n            revert(\"Can't advance\");\r\n        }\r\n\t\t\r\n\t\taddress payable actor;\r\n\t\tEnums.State stateToSet;\r\n\t\t\r\n        (actor,stateToSet) = evaluate(true,IData(data).getTargetRating(),IData(data).getMitigatorRating());\r\n\t\r\n\t\tif(actor!=address(0)){\r\n\t\t\tIData(data).transferFunds(actor);\r\n\t\t}\r\n        abort();\r\n    }\r\n    \r\n\tfunction evaluate(bool _ProofWasProvided, Enums.Rating TargetRating, Enums.Rating MitigatorRating) public view returns (address payable,Enums.State){    \r\n        if(_ProofWasProvided){\r\n            return evaluationWithProof(TargetRating,MitigatorRating);\r\n        }else{\r\n            return evaluationWithoutProof(TargetRating);\r\n        }\r\n    }\r\n    \r\n    function evaluationWithoutProof(Enums.Rating TargetRating) public view returns (address payable,Enums.State){    \r\n        if(TargetRating==Enums.Rating.REJ){\r\n\t\t\t\treturn(TargetAddress,Enums.State.COMPLETE);\r\n            }else{\r\n                return(address(0),Enums.State.ABORT);\r\n            }\r\n    }\r\n    \r\n    function evaluationWithProof(Enums.Rating TargetRating, Enums.Rating MitigatorRating) public view returns (address payable,Enums.State){    \r\n        if(TargetRating==Enums.Rating.ACK){\r\n            return evaluationWithProofAcknowledged(MitigatorRating);\r\n        }else if(TargetRating==Enums.Rating.REJ){\r\n            return evaluationWithProofRejected(MitigatorRating);\r\n        }else{\r\n            return evaluationWithProofSelfish(MitigatorRating);\r\n        }\r\n    }\r\n    \r\n    function evaluationWithProofAcknowledged(Enums.Rating MitigatorRating) public view returns (address payable,Enums.State){    \r\n        if(MitigatorRating==Enums.Rating.ACK){\r\n\t\t\treturn(MitigatorAddress,Enums.State.COMPLETE);\r\n        }else{\r\n            return(address(0),Enums.State.ABORT);\r\n        }\r\n    }\r\n    \r\n    function evaluationWithProofSelfish(Enums.Rating MitigatorRating) public view returns (address payable,Enums.State){    \r\n        if(MitigatorRating==Enums.Rating.ACK){\r\n            return(MitigatorAddress,Enums.State.COMPLETE);\r\n        }else{\r\n            return(address(0),Enums.State.ABORT);\r\n        }\r\n    }\r\n    \r\n    function evaluationWithProofRejected(Enums.Rating MitigatorRating) public view returns (address payable,Enums.State){    \r\n        if(MitigatorRating==Enums.Rating.ACK){\r\n            return(address(0),Enums.State.ESCALATE);\r\n        }else{\r\n            return(TargetAddress,Enums.State.COMPLETE);\r\n        }\r\n    }\r\n    function getActorOfState() public view returns(address){return IData(data).getTarget();}\r\n\r\n}",
  "sourcePath": "C:\\Code\\Private\\MBM\\contracts\\StateEvaluation.sol",
  "compiler": {
    "name": "solc",
    "version": "0.5.0+commit.1d4f565a.Emscripten.clang"
  },
  "schemaVersion": "3.0.1",
  "updatedAt": "2019-02-07T21:19:52.036Z",
  "devdoc": {
    "methods": {}
  },
  "userdoc": {
    "methods": {}
  }
}