{
  "contractName": "StateApprove",
  "abi": [
    {
      "inputs": [
        {
          "name": "_data",
          "type": "address"
        }
      ],
      "payable": true,
      "stateMutability": "payable",
      "type": "constructor"
    },
    {
      "constant": false,
      "inputs": [],
      "name": "execute",
      "outputs": [
        {
          "name": "",
          "type": "uint8"
        }
      ],
      "payable": false,
      "stateMutability": "nonpayable",
      "type": "function"
    },
    {
      "constant": false,
      "inputs": [
        {
          "name": "value",
          "type": "bool"
        }
      ],
      "name": "execute",
      "outputs": [
        {
          "name": "",
          "type": "uint8"
        }
      ],
      "payable": false,
      "stateMutability": "nonpayable",
      "type": "function"
    },
    {
      "constant": false,
      "inputs": [
        {
          "name": "",
          "type": "string"
        }
      ],
      "name": "execute",
      "outputs": [
        {
          "name": "",
          "type": "uint8"
        }
      ],
      "payable": false,
      "stateMutability": "nonpayable",
      "type": "function"
    },
    {
      "constant": false,
      "inputs": [
        {
          "name": "",
          "type": "uint256"
        }
      ],
      "name": "execute",
      "outputs": [
        {
          "name": "",
          "type": "uint8"
        }
      ],
      "payable": false,
      "stateMutability": "nonpayable",
      "type": "function"
    },
    {
      "constant": false,
      "inputs": [],
      "name": "abort",
      "outputs": [
        {
          "name": "",
          "type": "uint8"
        }
      ],
      "payable": false,
      "stateMutability": "nonpayable",
      "type": "function"
    },
    {
      "constant": true,
      "inputs": [],
      "name": "getOwnerOfState",
      "outputs": [
        {
          "name": "",
          "type": "address"
        }
      ],
      "payable": false,
      "stateMutability": "view",
      "type": "function"
    },
    {
      "constant": true,
      "inputs": [],
      "name": "getStateType",
      "outputs": [
        {
          "name": "",
          "type": "uint8"
        }
      ],
      "payable": false,
      "stateMutability": "view",
      "type": "function"
    }
  ],
  "bytecode": "0x608060408190526001805460a860020a60ff021960a060020a60ff021990911674010000000000000000000000000000000000000000171690556020806106e18339810180604052602081101561005557600080fd5b505160008054600160a060020a031916600160a060020a038084169190911791829055604080517f50b1be26000000000000000000000000000000000000000000000000000000008152905192909116916350b1be2691600480820192602092909190829003018186803b1580156100cc57600080fd5b505afa1580156100e0573d6000803e3d6000fd5b505050506040513d60208110156100f657600080fd5b5051604080517f893d20e80000000000000000000000000000000000000000000000000000000081529051600160a060020a039092169163893d20e891600480820192602092909190829003018186803b15801561015357600080fd5b505afa158015610167573d6000803e3d6000fd5b505050506040513d602081101561017d57600080fd5b505160018054600160a060020a031916600160a060020a03928316179055600054604080517fae8921570000000000000000000000000000000000000000000000000000000081529051919092169163ae892157916004808301926020929190829003018186803b1580156101f157600080fd5b505afa158015610205573d6000803e3d6000fd5b505050506040513d602081101561021b57600080fd5b50514201600255506104af806102326000396000f3fe6080604052600436106100825763ffffffff7c010000000000000000000000000000000000000000000000000000000060003504166335a063b4811461008757806361461954146100c05780636f7f0907146100d5578063972213ad14610113578063991d1ca91461013f578063bd590d7e14610154578063fe0d94c1146101d1575b600080fd5b34801561009357600080fd5b5061009c6101fb565b604051808260098111156100ac57fe5b60ff16815260200191505060405180910390f35b3480156100cc57600080fd5b5061009c6102aa565b3480156100e157600080fd5b506100ea6102fc565b6040805173ffffffffffffffffffffffffffffffffffffffff9092168252519081900360200190f35b34801561011f57600080fd5b5061009c6004803603602081101561013657600080fd5b50351515610318565b34801561014b57600080fd5b5061009c61047e565b34801561016057600080fd5b5061009c6004803603602081101561017757600080fd5b81019060208101813564010000000081111561019257600080fd5b8201836020820111156101a457600080fd5b803590602001918460018302840111640100000000831117156101c657600080fd5b5090925090506102aa565b3480156101dd57600080fd5b5061009c600480360360208110156101f457600080fd5b50356102aa565b60015460009073ffffffffffffffffffffffffffffffffffffffff16321461026d576040805160e560020a62461bcd02815260206004820152601860248201527f4572726f72206f776e657220213d2074782e6f726967696e0000000000000000604482015290519081900360640190fd5b506001805475ff00000000000000000000000000000000000000000019167501000000000000000000000000000000000000000000179055600890565b6040805160e560020a62461bcd02815260206004820152600f60248201527f4e6f7420696d706c656d656e74656400000000000000000000000000000000006044820152905160009181900360640190fd5b60015473ffffffffffffffffffffffffffffffffffffffff1690565b60015460009074010000000000000000000000000000000000000000900460ff16151561038f576040805160e560020a62461bcd02815260206004820152601660248201527f50726f63657373206e6f742065786563757461626c6500000000000000000000604482015290519081900360640190fd5b6001547501000000000000000000000000000000000000000000900460ff16156103d957506001805474ff0000000000000000000000000000000000000000191690556008610479565b60015473ffffffffffffffffffffffffffffffffffffffff163214610448576040805160e560020a62461bcd02815260206004820152601860248201527f4572726f72206f776e657220213d2074782e6f726967696e0000000000000000604482015290519081900360640190fd5b81151561045757506008610479565b506001805474ff00000000000000000000000000000000000000001916905560025b919050565b60019056fea165627a7a72305820c34cd329a89dd76ca561b9019d115bd2d11b26111ff6ad4599e74b1af969d9190029",
  "source": "pragma solidity ^0.5.0;\r\n\r\nimport \"./IState.sol\";\r\n\r\ncontract StateApprove is IState{\r\n    \t\r\n\taddress payable data;\r\n\taddress payable owner;\r\n\tbool internal executable = true;\r\n\tbool internal aborted = false;\r\n\tuint256 internal deadline;\r\n\t\r\n    constructor(address payable _data) public payable {\r\n\t\tdata = _data;\r\n\t\towner = IActor(IData(data).getMitigator()).getOwner();\r\n\t\tdeadline = now + IData(data).getDeadlineInterval() * 1 seconds;\r\n\t}\t\r\n\t\r\n\tfunction execute() external returns(Enums.StateType) {revert(\"Not implemented\");}\r\n    function execute(uint256 /*value*/) external returns(Enums.StateType) {revert(\"Not implemented\");}\r\n    function execute(string calldata /*value*/) external returns(Enums.StateType) {revert(\"Not implemented\");} \r\n\t\r\n    function execute(bool value) external returns(Enums.StateType){\r\n        require(executable,\"Process not executable\");\r\n\t\tif(aborted){\r\n\t\t\texecutable=false;\r\n\t\t\treturn Enums.StateType.ABORT; \r\n\t\t}\r\n\t\trequire(owner == tx.origin,\"Error owner != tx.origin\");\t\t\r\n        if(value==false){\r\n\t\t\treturn Enums.StateType.ABORT;\r\n        }\r\n\t\texecutable=false;\r\n\t\treturn Enums.StateType.FUNDING;\r\n    }\r\n\t\r\n\tfunction abort() public returns(Enums.StateType){\r\n\t\trequire(owner == tx.origin,\"Error owner != tx.origin\"); \r\n\t\taborted=true; \r\n\t\treturn Enums.StateType.ABORT; \r\n\t}\r\n    \r\n    function getOwnerOfState() external view returns(address payable){return owner;}  \r\n\t\r\n\tfunction getStateType() external view returns(Enums.StateType){return Enums.StateType.APPROVE;}\r\n}",
  "sourcePath": "C:\\Code\\Private\\CooperativeSignaling\\contracts\\StateApprove.sol",
  "compiler": {
    "name": "solc",
    "version": "0.5.0+commit.1d4f565a.Emscripten.clang"
  },
  "schemaVersion": "3.0.1",
  "updatedAt": "2019-02-10T16:05:26.513Z",
  "devdoc": {
    "methods": {}
  },
  "userdoc": {
    "methods": {}
  }
}